:10100000D06903200111000067700200A5360400BA
:101010006770020067700200677002000000000045
:1010200000000000000000000000000067700200E7
:101030006770020000000000677002006770020025
:1010400059110000C111000067700200C1120000B8
:10105000677002006770020075750200451200009B
:10106000B5120000677002006770020039120000BC
:1010700067700200CD110000677002006770020007
:10108000677002004D760200677002006770020010
:10109000AD11000067700200677002006770020007
:1010A00067700200677002006770020067700200DC
:1010B000677002006770020000000000000000007E
:1010C00067700200677002006770020091120000F2
:1010D0006770020067700200677002000D13000065
:1010E0006770020067700200677002000000000075
:1010F000000000006770020000000000677002003E
:1011000025F0B4FF0E480F490022814201D004C0EF
:10111000FBE70D480D490E4A814202D008CA08C0BB
:10112000FAE70C484FF47001026842EA01020260DB
:10113000BFF34F8FBFF36F8F22F0FBFF00DE000085
:10114000108B032008F80320D06903200C8B0320A8
:1011500050F5040088ED00E0B0B502AF3CF0D6F9E0
:10116000104C206828B1002020600F48183026F06D
:10117000FBFC606850B10C4D0020606005F1180068
:1011800026F0F2FC05F1300026F0EEFCA06838B144
:101190000020A06004483030BDE8B04026F0E4BC38
:1011A000B0BD00BF1C01004098E6032080B56F462B
:1011B0000248BDE8804026F0D7BC00BFC0D903205C
:1011C00080B56F46BDE880403DF032BDF0B503AF5D
:1011D0004DF804BD154E0020306027F0E3FB144DA0
:1011E0000446A86EF0B94FF0FF30A866686F78B17A
:1011F000A96F88420CD0D6F808140170D5E91D01FA
:1012000001306867884204BF05F16C0026F080FC5D
:10121000A86E0130A86620465DF804BBBDE8F0402A
:1012200027F0F6BB034825F09DFD00BF00D100402C
:1012300098E60320E8C3040080B56F46BDE880400F
:101240003EF092BBD0B502AF0F4C206930B11020F8
:10125000C4F808020D48283026F086FC606830B1DA
:101260000220C4F808020948283026F07DFC2068D6
:1012700040B10120C4F8080204482830BDE8D0403D
:1012800026F072BCD0BD00BF0071004098E603207C
:10129000D0B502AF054C206830B10548383026F093
:1012A00063FC4020C4F8F001D0BD00BF18310240FB
:1012B00098E6032080B56F46BDE880403DF0ACBCA9
:1012C000D0B502AF0F4C606C38B10F48403026F0FB
:1012D0004BFC4FF48020C4F80402206830B10A4867
:1012E000403026F041FC0220C4F80402206A38B1E4
:1012F0000548403026F038FC4FF40070C4F8040272
:10130000D0BD00BF0431004098E60320F0B503AF24
:101310002DE9800F394D286858B1394C0120C5F8A6
:10132000080204F1180026F01FFC04F1200026F04A
:101330001BFCE86D38B14FF40000C5F808023048D6
:10134000203026F011FCA86A38B14FF48060C5F84F
:1013500008022B48203026F007FCA86D28B1002099
:10136000A8652748183026F0FFFB286EE0B3002060
:101370002866D5F86CA32248C5F86CA3BFF35F8F2D
:1013800050E8041F41EA0A0140E80412002AF7D19C
:10139000DFF87C804FF0000BDFF86C900126BFF384
:1013A0005F8F5FEACB701FD13546072E1CD82E46C3
:1013B0002AFA05F418BF0136E00706D0681E08288F
:1013C00014D209EBC00026F0CFFBE81FB0FA80F082
:1013D0004FEA501BE003E4D5681E082808D208EB4A
:1013E000C00026F0C1FBDCE72CF064BC054A00E03D
:1013F000064A4FF0FF30082125F05AF800710240EC
:1014000098E6032060A5040080D7032070A504009F
:10141000C0D70320F0B503AF2DE9000F9BB0D0E992
:10142000014B814608460E46A4EB0B052BF0FAF95A
:10143000854201D2002073E23046D9F800502BF0EB
:10144000F1F9DFF808152A46009100EB0B01584628
:10145000234629F0B5F83278FF2A1CD13279FF2AC9
:101460003BD12DF074F83089012812A814BF1B213C
:101470001D2129F0E5F8C0B2022840F048827189A8
:1014800012A829F0FDF8C0B2022840F04082D6E947
:10149000031212A8C4E1B2F10A044FF0000398BF8E
:1014A0001C46002C33D0012C46D12DF050F812A848
:1014B000522129F0C5F8C0B2022840F02882B18933
:1014C00012A829F0DDF8C0B2022840F02082D6E947
:1014D000011212A82AF0AAFA34E0CDE9090100208D
:1014E0000B90DFE812F009003601590016013100B7
:1014F0006B0193013301A00109A8032129F0A0F891
:10150000C0B2022840F00382F18809A8F9E112ACC8
:101510000A2A0BC400F21482DFE812F00B008D01DE
:10152000A701AA01DA01BB01E301120212021202B1
:101530008A0112A8102180E12DF009F812A81E21BD
:1015400029F07EF8C0B2E2E109A8092129F078F873
:10155000C0B2022840F0DB81746909A8214629F055
:101560006FF8C0B2022840F0D2812CF02FFB12A8F5
:1015700029462BF0D1F89DF84800FF2840F0C6819D
:101580002CF07CFBC0B2022840F0C1812CF061FE3F
:10159000C0B20228EBD0BAE109A8052129F050F821
:1015A000C0B2022840F0B381357D09A8294629F050
:1015B00047F8C0B2022840F0AA81D6E90220CDE95E
:1015C0000E2031698DF8445010910EAC401AE9B2EA
:1015D0004FF0100A012908BF4FF0020A0AF1020178
:1015E0008842C0F09381204629F0D8FE0546C00706
:1015F00040F09F8112A8214652462BF0C3F8129862
:10160000002800F096811399022924D004291AD0C9
:10161000102928D1C2684FF0020881880792C27A47
:10162000ADF8681001680892827A02925FFA81FC34
:10163000427A0392027A199101210492C279807947
:101640000592069012E0D0F800C04FF00108CDF8E6
:1016500064C001210AE0B0F800C00121ADF864C007
:101660004FF0000802E0CDF866100021002900F0DC
:101670005A81079BA2460C93290C9DF860308DF887
:101680003430089B8DF85430029B8DF85330039B07
:101690008DF85230049B9DF868008DF85130059B01
:1016A0009DF869209DF865E09DF866509DF86740BB
:1016B0008DF85030069B8DF84D000C988DF84F300A
:1016C0008DF84E208DF84C408DF84B508DF84AE047
:1016D0008DF849C08DF84880CDF8550009AC2046FA
:1016E00028F0CEFFC0B2022840F0118112A828F0E5
:1016F00077FF2CF04AFC20461A462AF097F9C0B230
:10170000022840F00481DDE90F0154469DF8445061
:101710005CE709A8012128F093FFC0B2022840F03D
:10172000F680717909A828F08BFFC0B2022840F03A
:10173000EE80318909A828F0A3FFC0B2022840F04A
:10174000E680B17909A828F01BFFDCE009A80D218B
:101750005EE009A8072128F073FFC0B2022840F01C
:10176000D68031690DF148080DF1240AD6E902202E
:101770001491CDE91220401A0428C0F0C7804046D9
:1017800029F00CFE0546C00740F0C080404629F015
:1017900005FE0446C00740F0B980290C2CF0D1FEAC
:1017A000C0B2022840F0B380210C2CF0CAFEC0B2B7
:1017B000022840F0AC80DDE91301DCE709A8112123
:1017C00028F03EFFC0B2022840F0A180746909A849
:1017D000214628F035FFC0B2022840F098802CF056
:1017E000F5F912A829462AF097FF9DF84800FF282E
:1017F00040F08C802CF042FAC0B2022840F0878082
:101800002CF027FDC0B20228EBD080E009A80B2104
:1018100028F016FFC0B2022879D1D6E9021209A831
:101820002AF004F96FE009A8132128F009FF6AE003
:1018300012A80C2157E012A8082128F001FFC0B21D
:10184000022864D1718A12A828F01AFFC0B20228B7
:101850005DD1B18A12A828F013FFC0B2022856D178
:10186000711C12A82AF034FD4DE012A80A2131E0C3
:1018700012A8122128F0E4FEC0B2022847D17188D4
:1018800012A828F0FDFEC0B2022840D1D6E901120C
:10189000FFE512A8062128F0D3FEC0B2022836D1F7
:1018A000718812A828F0ECFEC0B202282FD1B188AE
:1018B00012A828F0E5FEC0B2022828D1F18812A8AB
:1018C00028F0DEFEC0B2022821D1D6E90212E0E5FE
:1018D00012A8022128F0B4FEC0B2022817D17188E4
:1018E0000EE012A8042128F0ABFEC0B202280ED1EF
:1018F000718812A828F0C4FEC0B2022807D1B188AE
:1019000012A828F0BDFEC0B2022800D10220022891
:1019100006D130462AF086FF5844C9F80800022054
:101920001BB02CF004B80798CDF85D0008988DF82E
:101930005C009DF860008DF8340017980C90E5E786
:1019400003480F21034A24F0ACFD00BF3CD404003F
:101950002CDC04004CDC0400F0B503AF4DF804BDF2
:1019600084B00446D0E901300D46191A04290CD37D
:101970002268061D08492BF061FFCDE9020102A88B
:10198000294604221EF0F2FC08B1002001E00220EA
:10199000A66004B02BF07FBFA858040080B56F4646
:1019A0000021017301490131016080BD98E60320E7
:1019B00080B56F4641F2B03281501044002101726F
:1019C00080BDF0B503AF4DF8048D8CB091E87C007C
:1019D000EC4680460CF1140061467CC029222CF0B4
:1019E00063F9002088F829000CB05DF8048BF0BD85
:1019F00080B56F46002180F8281080BD80B56F4605
:101A00000021017480BDD4D4E0B502AF1F49044663
:101A10002CF0C6FBB0F58B4F2FD00D1800F58B4086
:101A200005F1180353E8006F26B943E80026002E9D
:101A3000F8D102E0BFF32F8FECE71548686205F19B
:101A400028002146FFF7B4FF2046294625F032FD45
:101A50000025BFF35F8F54E8000F44E800510029D0
:101A6000F9D1BFF35F8F30B1C669C5614576416A70
:101A700088473046F7E720BFEBE706487A1E00901C
:101A80002B210548054B25F0BCF900BF90900320A1
:101A900021C70100D4930400DAD50400A49F0400F8
:101AA000F0B503AF2DE9000B94B00446F8680DF1D2
:101AB0003C082CF0CEF89DF83C00FF2803D040F6FF
:101AC000032020801DE0A7F14E0008F10401851CD1
:101AD0002BF07EFD02A82946861C2BF0DBFC0BAD0B
:101AE00031462BF075FD2CF0E6FB2078FF2808D05E
:101AF0002CF083F9044825F0DDFA2BF060FF25F087
:101B000041FC14B02BF035BFDF000000F0B503AF8F
:101B10002DE9000FCDB0FE68D7F80880CDE91D2073
:101B200056F870AFD8F84400C346CDF8AB00C146B4
:101B30005BF8410FD6F808E02A90D8F83D001293E0
:101B400016917268F568D6F810C07369B169F469C6
:101B5000CDF8CB0059F83A0F2192CDF870E01B95E3
:101B6000CDF868C0199320911F94329032A88DE867
:101B7000120454460DF1F80ACDE9032E624605958C
:101B80002AA9CDE90610A6F1300150461CF0B8FD97
:101B900022A89AE82E002EC04298119043981090E7
:101BA00044980F9045980E90306A1890706A17907C
:101BB00008F14E00D6E90AA52BF09CFA20F07F40F0
:101BC000CDE90A0B209800901F98CDE901042198D7
:101BD00003901C98CDE908A5049005461B98CDF804
:101BE00054B005908346189806901798CDF84C90FD
:101BF000CDF830901494079026A822A91A9A199B20
:101C0000914698461CF0A2FC1D98102804D126A8E5
:101C100016991FF097F930B11E99FF20087040F611
:101C2000033088805EE0D6E90C40D7F808A01D900C
:101C3000B06B18900AF14800F66B2BF05BFA20F0BD
:101C40007F400A9013980B9015980C902098049060
:101C50001F981899CDE905041D98CDE90816CDE91E
:101C6000005BCDE9029807902AA822A9149A219B2B
:101C70001CF06CFCDDE92C01DDE92A23CDE9000133
:101C80003EAC204605F092F89DF8F850FF2D0AD0A2
:101C9000611C32AC2BF098FC1E9E21462BF0C6FD39
:101CA0003571FF201DE00DF1C809211D09F1030563
:101CB0002BF08EFC2EAE29462BF0ECFB129C0DF186
:101CC000F8083246404621461EF041FC9DF8F85087
:101CD000FF2D0AD01E9E08F101012BF0A7FDFF2069
:101CE000357130704DB02BF056BD9AF83800022394
:101CF0009AF84A100DF1F8089AF85020022801F0DD
:101D0000030008BF012302F0030180F0010081F00D
:101D1000010108430F990091B0FA80F00E99400933
:101D2000CDE901132146DDE91032039040461EF053
:101D300041FC9DF82161022E09D198E86E004846C9
:101D40006EC01E9E99E83E00301D3EC0A9E732AC31
:101D50003EA929222BF076FDBDF826012146ADF8DB
:101D600030012922DDF822014B903EAD2BF071FDB0
:101D700050462946292241F0B7FA4B981E99CAF8D5
:101D80002A00BDF83001AAF82E000A208AF829603E
:101D90000870A7E7102B7DD1F0B503AF2DE9000F38
:101DA0009DB009908846F868137800F16006D2F873
:101DB0000100D2F80540D2F8095043EA002C3969F5
:101DC0002B0243EA1463240244EA1060D47BB2F885
:101DD0000D20C6E900C042EA0442120242EA15623E
:101DE000C6E9023218A803F05BF806F1300A189829
:101DF00006F11003F66B1A9A08F07F041999DDF8C2
:101E00006CB0069283E80708A4F1400207913146BE
:101E100008909AE82006504641F0ECF8CDF814807E
:101E2000804628464946224641F0E4F8C4F1400283
:101E3000814650463146D7F80CA041F0F1F80AF13E
:101E4000200103910699402CCDE901BA009138BFD9
:101E500049EA00082948002C08BFA8462CF016FBC8
:101E60000AA8DDE907321CF0D5FBDDE90C01DDE94C
:101E70000A23CDE9000118AC204604F0D3FE9DF8FA
:101E80006050FF2D0CD0611C0FAC2BF09DFB099E08
:101E900021461FE0FF21017040F603218180704739
:101EA000DDF814900FA8C61C211D1022D7F8088059
:101EB0002BF093FC14AD31462BF08AFB18AC414655
:101EC0002A4620461EF043FB9DF86050FF2D09D0A6
:101ED000099E611C2BF0AAFCFF20357130701DB0EB
:101EE0002BF059BC099C5146B02204F1080040F087
:101EF00071FB0620C4F804902070F0E7C0FFFF7F5C
:101F0000F0B503AF2DE9000B94B00446F8680DF16D
:101F10003C082BF09EFE9DF83C00FF2803D040F6C5
:101F2000032020801DE0A7F14E0008F10401851C6C
:101F30002BF04EFB02A82946861C2BF0ABFA0BAD0A
:101F400031462BF045FB2CF0B6F92078FF2808D05D
:101F50002BF053FF044825F0ADF82BF030FD25F0B1
:101F600011FA14B02BF005BDDE000000F0B503AF90
:101F70002DE9000F9FB08246880701D411206FE041
:101F8000D56B934605F108030FCB41EA030440EA01
:101F90000206344311BF8DE80F000020CDE9020096
:101FA000CDE9000016AE6946304604F02FFF9DF8DB
:101FB0005840FF2C3DD111A8311D00F1030810221B
:101FC0002BF072FE0AAE41462BF064FA0DF158096F
:101FD000594632462CF05FFA9DF85840FF2C30D11C
:101FE0002868C10741D06968000A0A0E8DF83E20B2
:101FF0000A0A40EA0160ADF83C200E9016AE0EA928
:10200000304604F04DFF9DF85840FF2C11D1311D92
:1020100040462BF03AFC1BAE41462BF03BFA05A89C
:10202000594632461EF093FA9DF81440FF2CA5D075
:102030000DE011AD711C13222BF00BFC05A82946F5
:1020400002E005A809F1010101302BF0C3FB05A94D
:102050000AF1050001312BF0BDFBFF208AF8044096
:102060008AF800001FB02BF096BB0524EFE7F0B50F
:1020700003AF2DE9000F8BB0044602A80E460021E5
:10208000924604F0A5FD9DF80800FF281DD09DF89C
:102090000B10E170BDF809109DF81B20DDE903C5A8
:1020A000A4F80110BDF81910059E9DF81830ADF880
:1020B0001C108DF81E202374C4E901C5E660A4F845
:1020C0001110E27420702BF0EFBA9DF818B0059D46
:1020D000BDF81900ADF8040059469DF81B008DF8B5
:1020E00006002846DDE903891AF092FC02460B46F9
:1020F00006F1480011461A462BF0B4F8C0B2022887
:102100001CD1BDF804005146ADF829009DF8060029
:102110008DF828B00995CDE907898DF82B0002AD1F
:1021200007AA28461EF013FA9DF80860FF2E10D06B
:10213000601C691C2BF04EFB2670C4E70520494645
:10214000207040460BB0BDE8000FBDE8F0402BF01A
:102150005FB8FF20B6E7D4D4F0B503AF2DE9000F88
:102160009FB00D46B968069314460B901AA802F06A
:1021700097FE1A9804F170061C9A05F07F0504F189
:10218000900B1B991D9B0FC60892A5F140020A9067
:102190009BE8400E504609915946079340F02AFFAC
:1021A0008046304649462A4640F024FFC5F14002A9
:1021B00081465046594640F033FF04F12001402D3E
:1021C000CDE90241079901910899009138BF49EA88
:1021D00000082448002D08BFB0462CF057F90CA881
:1021E000DDE909321CF016FADDE90E01DDE90C2308
:1021F000CDE900011AAC204604F014FD9DF86850AA
:10220000FF2D0BD0611C11AC2BF0DEF90B9E21468B
:102210001322701C41F068F835701FE0DDF82C8047
:1022200011A8C51C211D2BF0D3F916AE29462BF0A1
:1022300031F91AAC0699324620461EF088F99DF80D
:102240006850FF2D07D008F10100611C2BF0C2FA85
:1022500088F8005002E0FF2088F800001FB02BF043
:102260009ABA00BFC0FFFF7FF0B503AF2DE9000FA2
:10227000B5B016461D46CDE91210B046D6F83D0061
:102280000DF1A00C55F8702FCDF8A30058F83A0FB7
:10229000289056F8410FD5F808906B68D5F80CA037
:1022A000D5F810E0D5F814B0AC69E9692C90D6F8EF
:1022B000030014921593CDF86C90CDF868A0CDF87A
:1022C00064E0CDF860B017941691CDF8B3002CA857
:1022D0008DE800460DF18009CDE9051CA5F130011E
:1022E00007904846CDE903B41CF00AFA1CA899E807
:1022F0001E0005F1300B1EC02498119025981090F7
:1023000026980F9027980E90F01D9BE8100AD5F89C
:102310003CA02AF0EFFE20F07F40CDE90A08DDE97D
:102320001A10CDE908BA0C96CDE90001199802906F
:102330001898039017980490169805A981E811023F
:1023400028A81CA9DDE914231CF000F9DDE92823E5
:102350000DF18009DDE92A01CDE90001484604F0CC
:1023600025FD9DF88060FF2E0ED02CAC09F10101F7
:102370002BF02AF9139D21461322681D40F0B4FF6B
:10238000FF202E71287051E0DDF84C802CA8C61C6F
:1023900009F104012BF07EF831AC31462BF088F9BD
:1023A0000DF18009129922462CF075F89DF88040B5
:1023B000FF2C0BD008F1050009F101012BF00AFAFE
:1023C000FF2088F8044088F800002FE005F1200B7A
:1023D000464608F11804ED6A9BE8000D09F1070074
:1023E0001CA92BF052FA0B20494606F8010B1722C4
:1023F0002BF0F3F9199804F12C012062189860620F
:102400001798A0621698E56381E8010D1198206085
:10241000109860600F98A0600E98E060149820619A
:10242000159860611B98A0611A98E06135B02BF097
:10243000B2B9D4D4F0B503AF2DE9000F8BB0044688
:102440000220ADF80A0001208DF808001E462C4835
:1024500088468DF80920039007A82AF08FFE079D73
:10246000EDB3DDE9089BFB20D7F808A0CDE904B067
:102470000020069004A803A9FFF76EFAC0B2022854
:102480001CD104A802A9FFF767FAC0B2022815D12F
:10249000DDE90530191A02290ED3049A1949009171
:1024A000811C019128F08CF8CDE9070107A831467D
:1024B00002221DF05BFFB0B1042004E0C0074FF022
:1024C000040018BF0D200121207061702846494684
:1024D0000BB0BDE8000FBDE8F0402AF099BE162011
:1024E00020702BF0E1B8019851460A9007A880E8C7
:1024F000200A07AB204642461BF001FEF1E700BF71
:1025000006000500A858040091F8673301F514721D
:10251000012B12BF91F8561202F58C720121A0B165
:10252000D0B502AF9388B0F8154112686340D0F877
:10253000114162401A4390F817315940C90718BF3A
:102540000020002A18BF0020D0BD00207047D4D43E
:10255000F0B503AF2DE9000794B002AD884681467F
:1025600048212BF002FDD8F80C404826334B294671
:10257000482C38BF26463046482229F083FA0546C3
:10258000D8F808008A4621461DF0D6FA8E4251D866
:1025900003462B4800901A4628465146334626F0FB
:1025A00023FB022C09D22D4824F084FD304624F070
:1025B00073FD24F0E7FE0A2019E09DF80800441E90
:1025C000E5B20E2D12D22046A6F1010A1AF092FCB5
:1025D00080B282451BD109F1010002A9482240F0D6
:1025E00083FEC9F84C6089F8004008E0072089F8AC
:1025F0000500032089F80400FF2089F80000D8E9CD
:1026000000012AF005FE14B0BDE80007F0BD0D483A
:1026100024F050FD0C480D4CA0470D48A0470D4834
:102620000D4950F8250051F8251022F0A3FC002098
:10263000A047BEE70A4B0A462BF060FAD8590400BF
:10264000F8590400D4000000140000007370020068
:102650003102000078E1040040E10400D5000000F0
:10266000E8590400F0B503AF2DE9000F95B01C78D0
:102670008046FF2C15D046481D4616468A4693F8DC
:1026800001B024F017FD434824F0F3FC284628F05D
:10269000F3FF032C18BF4FF0080B24F073FE192C26
:1026A00005D1FF2088F8000015B02BF074B8B6F8FB
:1026B00058430FA82AF062FD0F98002848D0A7F1D0
:1026C00043000094C51C0FA90C222BF0C2F8A7F1FF
:1026D00052002946C61C0C222BF07FF812AD314661
:1026E0000C222BF0B6F802A8294604221AF0A2F90F
:1026F0009DF80800DDE903549DF81860FF28DDF817
:10270000149026D1484631461AF082F9E1B380F898
:1027100000B030461AF074F9CDE904904046CDE996
:10272000025402AD009A51462B461BF0E8FC98F883
:102730000000FF28B5D098E85E0028465EC0164825
:1027400024F0B8FC284628F089FF24F01BFEABE7F4
:1027500016209DF80B1088F80310BDF809109DF89D
:102760001B20A8F80110BDF81910ADF804108DF861
:10277000062088F81060C8E90154C8F80C90A8F841
:10278000111088F813208DE7044A2AF087FE00BF55
:10279000CD0000000B020000D2000000185A040017
:1027A000F0B503AF4DF8048D92B00DF104080D465D
:1027B00006461146404644221C4640F0BBFCB86821
:1027C0002946009030464246234600F005F812B0F4
:1027D0005DF8048BF0BDD4D4F0B503AF2DE9000F44
:1027E000ADF29C6D189301F1780A1790DCAE91F868
:1027F000C84006F1600B90460D46022C199132D16B
:102800000DF168092946C82248463FF0E3FE15202D
:1028100028710E2028709DF8685098F800000C2D43
:1028200000F2128306F17004DFE815F00D008C0150
:1028300042012801C9000A01DF010E037502C60228
:102840000E03AB029700FF2804BF98F80C10002974
:1028500000F02287411E0329C0F0B882002840F012
:10286000EF8200F05ABF0DF50C792946C8221AAE46
:1028700048463FF0AFFE15209DF830122871122017
:1028800028700F2998F8000000F2B68506F160055F
:10289000DFE811F01000C10302039F04CF04B2056A
:1028A0007B03E0032204B205AB053205B205B20595
:1028B000E6028803FF2804BF98F80C200A2A40F09B
:1028C0009B85D8F80800002802F09882199D0C22F8
:1028D000D8F8041095F81901032808BF0822DDF87C
:1028E00060A0DAF8383093F8700393F8713302443B
:1028F00085F81A210C7813B1012185F818110DF50E
:102900009F6858B195F81C0195F81D1140F003001F
:1029100085F81C0141F0030185F81D111AA85146E4
:102920001DF0BBFF9DF891000DF55C79022807D0E2
:10293000600741F1C3829DF89000022801F0BE8239
:10294000DCAC2BF0D2FA2BF051FE01F01B822AF006
:10295000A5FE8DF8FC5401F0C6BAFF2804BF98F814
:102960000C10082940F02F82D8F80820002A02F025
:102970004382D8F804000478022C81F01A800DF507
:102980009F68062A42F22A82199A50F8011FDDF840
:1029900060A0C2F811118188A2F8151192F8F910FF
:1029A00082F81741022900F0FB868188A2F8F41012
:1029B0000068C2F8F00082F8F64000F0F1BEFF288F
:1029C00004BF98F80C10022900F05186042800F288
:1029D0003E82DFE810F0E806FB01FB010500E80697
:1029E0000DF59F600DF59F6B00F1900519989022F1
:1029F00000F1180158463FF0EDFDDCAE09F1010190
:102A000011222AF0EAFE0024D8F80400C5E90004E7
:102A1000C5E904049DF87003C5E90244C007C5E98F
:102A2000064401F05C85DDF860A0721CB8680021E6
:102A3000CDE900AB102302908CA8FFF7ABF9CBE1F6
:102A4000FF2804BF98F80C10022940F0BC811998A7
:102A50000DF59F64B02200F1080120463FF0BAFD59
:102A6000D8E90123A046DDF860A0B8681B99CDE93C
:102A700000A402908CA8FFF78DF9AFE1042800F2C2
:102A8000E887DFE810F090060500C707A30190066D
:102A90009DF86900002801F07781199909F1180063
:102AA0001022D031CDE9001009F1020100F043BF3E
:102AB000FF2804BF98F80C10032940F08481199D69
:102AC0004CA870222AF0B8FFDAF8000005F198014E
:102AD00016902022DAE901B9DAF80C60C6A840F0B5
:102AE00003FC2BF01FF840F09A87D8F804000DF58E
:102AF0009F6A169A5B461596D0F809101491D0F883
:102B00000110139101781291C17B11911899D0F89D
:102B10000550B0F80D0010905046CDE900965E4685
:102B2000FEF7BEFF9DF8F884B8F1FF0F01F06F8249
:102B30008CA80AF1010105302AF04CFE8DF8348290
:102B400000F0A8BFFF2804BF98F80C100B2940F034
:102B50003A81D8E901120DF5467840462AF032FA5A
:102B6000DDF860A02022DAF82C10BEAC2AF06AFE54
:102B7000DAF830104CAE40222AF02FFE0DF59F6996
:102B800021464246334648462AF04CF99DF8F8045F
:102B9000C00700F049879DF8FB0409F106018DF894
:102BA00006021222BDF8F9049DF8FC449DF8FD646C
:102BB000ADF804027CA840F097FB09F1180079A950
:102BC0000DF59F6A0CC80CC1007808704CA95046DE
:102BD00004F074F89DF8F804FF2801F072820A20CE
:102BE00003258DF8710301F097BAFF2804BF98F808
:102BF0000C10032940F0E7802BF01BFCDCA83FF011
:102C0000E9FC2AF08FFF40F01887D8F804001B9DDC
:102C1000DBE90E98D0F801100278129505F07F05D7
:102C200042EA0122CBF820201692D0F80930D0F8E1
:102C300005201C0244EA1264120242EA1161CBF838
:102C40002840CBF82410C5F140021591C17BB0F8A3
:102C50000D00149440EA01404146000240EA136A24
:102C60004846CBF82CA0DBE90C6440F0D9F913906E
:102C7000304621462A4640F0BDF9A5F140020446FF
:102C80004846414640F0B6F91399402D38BF44EA12
:102C90000100EF49002D08BF3046DCAA61F35F0058
:102CA000149B02F12001CDE9003ACDE90212049013
:102CB000BEA8DDE915321BF0ADFCDBE900ACDDE9B7
:102CC000BE648CEA0401DBE90289DDE9C03589EAEA
:102CD000050008438AEA060288EA03011143084313
:102CE00041F06680DBE904230DF59F64DBE9060112
:102CF000CDE90001204603F0BBFF9DF8F854DDF854
:102D000060A0FF2D01F0FB84611C4CAC2AF05CFC40
:102D10008CA821462EE0FF2804BF98F80C10032948
:102D200051D12BF086FBDCA83FF054FC2AF0FAFED0
:102D300040F08886D8F8040004F110052AF0A0FDC0
:102D40000EC5B968E061204602F0AAF8DDF860A07F
:102D5000D4E90201D4E900230DF59F64CDE9000117
:102D600051462046FEF79CFE2BF038FC01F0E68130
:102D70008CA8611C05302AF02DFD8DF8345200F02E
:102D800057BEFF2804BF98F80C1007291BD12AF062
:102D9000C9FE40F07C86199890F8F900022808D006
:102DA000D8F804000AF168042AF06AFD0EC4CAF8D3
:102DB00074000C2000F06FBEFF2804BF98F80C10C0
:102DC0000C2900F0B085411E032936D28CA81AA91F
:102DD0002BF0F9FADDF860A00DF59F689DF8300240
:102DE000FF2800F0E7840DF50C790DF59F60C822EF
:102DF00049463FF0EFFB9DF8F8040E2800F0E4840C
:102E0000199D0D2840F0008595F8F980B8F1020F62
:102E100000F0FA8495F81A0100F00300012802BFBF
:102E200095F8200100F00300012800F02A8595F8AC
:102E3000F8C04FF0020800F051BD002800F06B848C
:102E4000042804D100F0AFBCFF2840F0598498F862
:102E50000C00042800F0F1830D28B7D000F0A3BCCB
:102E6000FF2804BF98F80C20072A40F0C5822AF0FA
:102E700059FE40F0A486199D95F8F900022808D063
:102E8000D8F804000AF168042AF0FAFC0EC4CAF863
:102E900074000F2000F098BEFF2804BF98F80C20A3
:102EA0000B2A40F0A982BEAE09F1040120222AF0CB
:102EB00094FCDDF864B00DF5467940220BF1240A4C
:102EC0004846514640F010FAD8E901124CAC204671
:102ED0002AF078F80DF55C78314622464B4640469C
:102EE00029F0A0FF9DF87003C00700F070869DF8E0
:102EF000730308F106018DF8AA001222BDF87103D0
:102F0000ADF8A800BDF874431AAE06F1450040F0D4
:102F1000EBF906F1570008F118012BF036FA06F12B
:102F200020004CA92AF080FD304651462AF07CFD55
:102F300028465021ADF8AB4040F04AF99BF8080113
:102F4000811E38BF0221DDF860A0C9B2022901F05C
:102F500034820DF55C79032941F04E820F202BF06D
:102F60000FFADAF83820D6AEDCAC2BF02CF89DF84E
:102F70005853FF2D41F0E883E01D1AA92AF025FDE2
:102F800009200DF59F6801F0F9BC98F80C10FF2896
:102F900008BF022900F04F84DDE918A5FF2800F0E2
:102FA000318276E2FF2804BF98F80C20082A40F00E
:102FB0002382D8F80820002A01F02287D8F80400DC
:102FC000DDE918A50478022C80F040860DF59F6895
:102FD000062A41F2058750F8011F0DF55C79C5F806
:102FE00011118188A5F8151195F8F91085F8174188
:102FF000022907D08188A5F8F4100068C5F8F00010
:1030000085F8F64095F822110DF59F605246FEF7BF
:10301000ADFF00F0A9BFDDE918A5FF2840F0FC8254
:1030200098F80C100A2900F0DF85012940F0EA81A8
:10303000D8E90112DCA82AF025F99DF870030228CE
:1030400040F0D4860A202AF00BFB01F090BA00BFB2
:10305000C0FFFF7FFF2804BF98F80C20022A40F031
:10306000CB81199DDCA860222AF0E6FC9AE8500882
:1030700005F188013022DAF80C901AA840F034F9F2
:103080002AF050FD40F0F883D8F804000DF5987848
:10309000224633468D9D01681691416815918168DD
:1030A00014911899C06813904046CDE900B9FEF715
:1030B00027FF9DF830A1BAF1FF0F01F0B6800DF5A2
:1030C0009F6208F10101501D90462AF083FBFF200A
:1030D0008DF8FCA401F0CDB8FF2804BF98F80C20AF
:1030E000032A40F08981199DDCA8B0222AF0A4FCB3
:1030F0002AF018FD40F07A858D98DBE90EA900F0E2
:103100007F04DBF83410A4F14002DBF83050159155
:10311000494614905046D8F8046016953FF06AFF6F
:1031200015998046284622463FF064FFC4F14002CC
:103130001590504649463FF073FFB368F568D6F8DE
:1031400000907268DCA9039120310291402CCDE9F6
:103150001253CDE90035159938BF41EA0008169899
:10316000002C08BF8046E3482BF090F990461AA83F
:103170004A4643461BF04EFADBE900C1DBE9022375
:103180001AAE1D9870CE69405840084386EA020185
:1031900084EA0C021143084340F031861499DDF8AB
:1031A00060A0CBE908980DF59F6813981329CBF818
:1031B00028001298CBF82C0041F0DE81DCAB199D81
:1031C0000DF59F60514605F1D002FFF74DF800F074
:1031D0004ABDFF2804BF98F80C20022A40F00C8159
:1031E0002BF027F91AA83FF0F5F92AF09BFC40F0E4
:1031F0004383D8F804002AF043FB85E80E00B96841
:10320000E86005F1100001F04BFED5E90601D5E9B3
:103210000423CDE90001DCAC2AF06DFE2BF0E6F9C9
:1032200040F09686E01D1AA92AF0CFFB042000F09A
:10323000E7BEFF2804BF98F80C20032A40F0DC808A
:1032400019980DF1680BB02200F1080158463FF0C3
:10325000C1F92AF067FC40F00F83D8F804000BF1A5
:1032600020028168D0F80CA0D0F80490D0F800803B
:103270000020CDE9001ACDE915214B46CDE9022BFE
:1032800042460490C6A81BF0C5F9D5E902E3DDE982
:10329000C646DDE9C802D5E900C15A40714080EA5E
:1032A0000E0011438CEA04021043084340F0B48539
:1032B00005F11003169CC5E908890FCBC5E90A4A38
:1032C000159DCDF800B001AE86E82003CDE9044A93
:1032D0001BF0DEF9199D044695F80801022841F01B
:1032E0006381854823F0E6FE2AF07BFE24F04AF84D
:1032F0000DF59F601AAB39E3FF2804BF98F80C2046
:103300000C2A79D1DCA8199C00F11005DCA804F185
:10331000080150223FF05EF9D8E9010105F1280BC0
:103320000E902869139068691290A8691190E86955
:103330001090286A1490686A1590686B0F9004F5D5
:103340008F709BE8000B1691D5E90EA629F0D2FEEE
:10335000D4F8142120F07F40D4F81111CDF8332196
:103360004C91D4F80D21D4F80A11CDF86B201A91A4
:10337000CDE908A60A904CA80B901AA80C901398B7
:10338000029012980390119804901098CDE9050BC3
:103390000F98CDE900890790D6A8DCA9DDE91423B0
:1033A0001BF0D4F81698102806D1D6A90E981DF057
:1033B000C9FD002800F039854FF00B090325DDF821
:1033C00060A00DF59F68BEA908F1060012223FF02B
:1033D0008BFFFF208DF8FD948DF8FC540DF55C7982
:1033E0008DF8F804199D00F0C1BDFF2804BF98F8BE
:1033F0000C20032A00F0A782FF280BD198F80C10AC
:10340000DDE918A5042924D02AF02AF90D2900F0B5
:1034100008810DE1DDE918A50539082900F2FC80D5
:10342000DFE811F009003700FA00FA009200FA0014
:10343000FA00DE00F700012800F0E2822AF010F91D
:10344000022840F0F58040F60340ADF8FC0400F09F
:1034500090BDD8F808000DF55C79002801F0C8840B
:10346000D8F804000478254823F024FE601EC0B27A
:10347000102828BF0824204628F0A2F923F082FF54
:1034800003208DF8FD448DF8FC040DF59F6800F0D5
:1034900070BD032840F0C080DCAE05F11801902219
:1034A00030463FF097F80020D8F80410CBE90C1014
:1034B0003246CBE910100021CBE90E005346CBE990
:1034C0001200B8689DF8315200901AAC2046FEF701
:1034D00043FE9DF86860FF2E00F091830DF59F6814
:1034E000611C08F105002AF075F98DF8FC6400F004
:1034F00035BD00BFC0FFFF7F340000009300000017
:1035000078A604002000000094000000D80000000D
:103510001F000000DC000000E2000000DA000000F4
:10352000CB000000D30000001E000000C1BD02005F
:103530002CD80400E4000000CE000000D7000000FA
:1035400064000000C9000000042865D105F10801ED
:103550001AADB02228463FF03DF8D8F8010008F136
:10356000210416902022D8F80D002146D8F805B085
:10357000D8F809A015904CAE2AF02FF95FF880100A
:1035800020461DF0DFFC40B95FF88C1006F11000FA
:103590001DF0D8FC002800F0AB8429460DF5987981
:1035A0002031002099E860033346CDE90089CDE958
:1035B00002112A460490DCAC20461BF02BF84CA8E4
:1035C00000F1100120461DF0BDFC002800F094849D
:1035D000FF208DF8F80440F20340ADF8FC044DE103
:1035E000D0B998F80100002800F08B835FF8EC0058
:1035F00023F06CFD95F823010DF59F68800700F11D
:103600003D8695F822110DF59F605246FEF7AEFCFF
:1036100029E3002800F0E8812AF022F80138022886
:1036200006D20DF59F608CA92AF0CDFE00F09CBC5F
:1036300015208DF8FC0400F09CBCD8F80800002888
:1036400001F0D883D8F8040004785FF8440123F02F
:1036500031FD601EC0B2102828BF0824204628F083
:10366000AFF823F08FFE8DF8354203209CE02AF05E
:1036700059FA40F08781D8F804108CACA01C2AF0CD
:1036800004F919990DF59F682AF016FC2AF05BF9E8
:10369000DDF860A004207DE118990DF59F60D8E960
:1036A00001A91DF0FAF89DF82105022819D00D2076
:1036B0000DF59F688DF8F80418984346816A826B6F
:1036C000DCAC2AF042FD9DF87003FF2809D02AF0F7
:1036D00094FB5FF8C80123F0EDFC2AF070F923F0A9
:1036E00051FE0DF59F6051464A4629F0CBFD9DF8ED
:1036F000F844022C40F052812AF0BDF80A20BBE2C7
:10370000072D08BF042800F0CA81411E0329FFF4D9
:103710005DAB002847D10A2D45D198F8010000285B
:1037200000F027815FF8180223F0D0FCDDF860A0DC
:103730000DF59F680DF55C793DBB0DF59F64514615
:1037400020461DF058F89DF82155FF2D00F0008708
:10375000DCAC0DF59F6129222AF074F8DDF8220512
:103760002146199E29228890BDF82605ADF824022D
:1037700006F1D0003FF0B8FD8898C6F8FA00BDF811
:10378000240286F8F950A6F8FE00199991F81D0157
:10379000800700F1AB8291F82201800700F1438598
:1037A0000D2001F0E2B815208DF83402DDF860A09C
:1037B0000DF59F688CA808F10401043090E87C00A6
:1037C0000E207CC18DF8F8040DF55C7908F1040138
:1037D00009F104001DF014FC0C202AF0D1FD4B4629
:1037E000DAF838204CAC2AF0B0FC2AF0BDFC0AD044
:1037F0002AF057FE5FF8E40223F05CFC484627F00D
:103800002DFF23F0BFFD199D0DF59F6128462AF07D
:10381000DAFD8CAC2946204628F046FBFF208DF8C7
:1038200070039DF83002DCAEFE2818BF2646179DB7
:1038300096E81F00DAE3DDE918A52AF073F940F0F5
:10384000CA80D8F804100DF59F6808F102002AF02C
:103850001CF80DF55C7905F1180109F106002AF054
:10386000B4F8012049468DF8F90408F11200B62297
:103870003FF03AFD062038E32AF049F829F0FBFF33
:103880006FE34CAE05F1D0045146304622461CF0A1
:1038900034FF2AF069FC10D00DF55C7A96E83E0002
:1038A00050463EC05FF890032AF08AFD504605F16D
:1038B000D00427F0D3FE23F065FD206805F1E00C6D
:1038C0001690AB4660681590D4E902AE4C469CE871
:1038D0006F006FC4DDE915209BF8F8C0CDE9E0AEBC
:1038E0000DF55C7ECDE9DE020EF118018DF871C395
:1038F00099E87D00F1467DC10B2073468DF8700379
:1039000018988DF8A1838DF8A0C3816A826B4CACA6
:103910002AF01BFC2AF028FC3FF475AF2AF0C1FD09
:103920005FF8080468E7199B09F10800D8E901125B
:10393000D033CDE900308CA8DDF860A05346FEF707
:10394000E5F8FFF749BA199DDCA8B0222AF074F80F
:103950002AF0E8F840F04E81D8F8040029F090FFF2
:10396000FF90FCA80EC0DCAB0DF59F60DDF860A0F9
:103970004AE05FF8540423F0A9FB2AF03FFE40F62A
:1039800003702FE20520DDF860A08DF83402FF20DF
:103990000DF59F688DF83002FFF722BA9DF8FA54B2
:1039A0000DF59F68DDF860A0280700F15F81032016
:1039B00062E15FF8900423F07DFB204621F092FC49
:1039C00023F0E0FCDDF860A005200DF59F688DF880
:1039D000340200F0C9BF05200DF59F688DF8FC0486
:1039E000FF200DF55C7980E298F80100002800F0D6
:1039F00095815FF8CC0423F069FB112000F045BCF1
:103A000009F108030DF59F6005F1D0025146FEF75C
:103A10002BFC26E140F60340ADF83402C6E640F642
:103A20000320ADF8340235E040F60330ADF834023F
:103A3000FF200DF59F6800F098BF2AF0DFFD40F6EB
:103A40000320CFE12AF0DAFD05208DF83402FFF7DC
:103A5000C1B99DF8690000287FF4F9A998F80C0015
:103A60000C287FF4F4A92AF05DF840F0C186D8F85C
:103A700004108CACA01C29F008FF19990DF59F6863
:103A80002AF01AFA29F05FFF032000F0B7BE0520E4
:103A90008DF83402FF208DF83002FFF79BB9199C96
:103AA0000DF59879B02204F1080148463EF092FDE8
:103AB00008F121060DF5467A2022504631463FF0A6
:103AC00013FCD8F801001690D8F809005FF8D0155B
:103AD0001490D8F80D0015903046D8F8055094F899
:103AE0001EB128F065F940B95FF8EC150AF1100035
:103AF00028F05EF9002800F0FC84CDE912B5C6ABD1
:103B00000DF53E780FCB119000BAC19008BAC09065
:103B100010BA10914146BF9018BA0F920E93BE9002
:103B2000DCAE304621F080F80DF59F64002531466B
:103B30004FF4B8722046CDF8DC54CDF8D854CDF807
:103B4000D454CDF8D054CDF86856CDF86C56CDF895
:103B50007056CDF874563FF0EDFADCAE21464FF4C6
:103B6000C0722AF001FD09F120045FF8409630464A
:103B7000202221468DF8F054C847304621462022A5
:103B8000C8470DF59F64304601228DF8F854214650
:103B9000C847204631464FF4C2723FF0CBFA9DF839
:103BA00078A604F5B8715FF878361022504627F0F1
:103BB000AFFB002966D000F8015B0139F9E7052069
:103BC000199D8DF8FC04FF208DF8F80414E040F6F0
:103BD0000330DDF860A0ADF8FC04FF208DF8F80498
:103BE00029F03EFD5D46BFE101204EE3052029F0AE
:103BF00042FE08E129F08BFEDDF860A031E00DF512
:103C00009F68E80700F0508109F1020029F038FEB2
:103C10008BE80E00CBF80C00DBE90601CDE90001D2
:103C20005146DBE904231AAC2046FEF769F99DF8FA
:103C30006850FF2D40F08E8108F10800DCA92AF0C1
:103C40008EF80020CDF8FC04082088E15FF81C07FE
:103C500023F030FA204621F045FB23F093FB29F0B6
:103C600056FE0DF59F680DF55C797DE19DF8FB64CE
:103C7000102E80F0708206208DF8350203208DF81A
:103C8000340297E5A7F13C060025204647F83C5C46
:103C900031468DF8785647E90E5547F8305C28F0E4
:103CA000F1F8A7F12C09314648461DF005FA04F554
:103CB000B076102D09D06019013590F8601190F898
:103CC0007021514080F86011F3E7BAF1100F40F015
:103CD0006C8229F0D0FDDDE912B50020102800F03B
:103CE0007D8219F8001029F07CFEF7E7DAF83C40F5
:103CF00004F108032AF0BCFB00F0918382AD0FC5EC
:103D000092E35FF8CC0723F0E1F940F603700DF57C
:103D10009F68ADF8FC040DF55C792AE10DF55C783F
:103D20002AF041F80DF168090D2043468DF8700323
:103D300048461CF0B9FC2AF030F90BD099E86E0027
:103D400040466EC05FF80C082AF03AFB29F037FEB7
:103D500023F018FBE00700F093825FF81C0823F0C3
:103D6000B5F9DCAC2AF0C1F89DF870530DF59F68E9
:103D70000DF55C79FF2D00F0478529F08FFC8DF85B
:103D8000FC54F6E00120AFE019990DF59F6808F1A9
:103D90000700B02218313FF0A7FA092041468DF8FC
:103DA00030028CA82AF020F9DDF860A0FFF71BB8DC
:103DB0005FF870089B4616953546664623F07AF9FB
:103DC0005046314642464B4627F046FB169B284656
:103DD00021465A4627F040FB23F0D4FA2AF00EFC85
:103DE00040F20340ADF83402FEF7F4BF9DF87213C1
:103DF00029F036FC0A0700F1B4830320B7E329F069
:103E00003AFD199D032004218DF8FC04FF208DF854
:103E1000FD148DF8F80426E7DDF860A029F020FCF9
:103E200040F60340ADF8FC04E2E3DDF864B002269E
:103E30000DF168089BF81A119BF820419BF80801C6
:103E400001F0030104F0030481F00101022884F071
:103E5000010408BF01262143DDF860A0B1FA81F119
:103E6000D5E900234909D5E90205039151468DE8BA
:103E7000610040461CF09EFB9DF8685008F102016D
:103E80009DF8699012229DF89160C6AC29F0DAFC89
:103E9000022E40F0AF83BEA84ECCFF2D4EC021882D
:103EA00001807FF48EAADDE308F10800DCA929F087
:103EB00056FF0020CDF8FC04072050E0DCAC514652
:103EC00020461CF098FC9DF89953FF2D40F0CF83BD
:103ED0000DF5987C94E86E0060466EC008F1040011
:103EE0009CE83E003EC0FF20199D8DF8F8043DE09F
:103EF0000DF5987999E860031AA800F170041998F3
:103F000090F81E01002804BF82468346169908BF18
:103F10000146159A08BF0246C4E9081B04F13000A7
:103F2000B968C4E90AA280E86003DCA800F0B8FF21
:103F3000DDE9DE01DDE9DC23C4E90023C4E9020197
:103F4000CDE90001DCAC29F0D6FF2AF04FFB52D0BE
:103F50000DF59F6829F0A2FB8DF8FC54FF208DF829
:103F6000F8040DF55C79199D9DF8F804FF2840F0E0
:103F7000928108F1040009F1040190E87C0012200C
:103F80007CC14C46199D8DF8700308F10400211D79
:103F90001DF036F80C20DAF828108DF8F8044346A6
:103FA000DAF838204CAC2AF0D0F82AF0DDF809D045
:103FB00029F023FFDFF8900E2AF002FA29F0FFFC27
:103FC00023F0E0F91AACDCA928462AF0FCF92046D7
:103FD000294627F07AFFFF208DF8F8049DF8680045
:103FE000FE2818BFA046179D98E81F001FC50DF2B8
:103FF0009C6D29F0D0BBE01D1AA929F0E6FC0A202F
:104000000DF59F682AF0A2F93FF06EF9A9E7DDE906
:104010001010702241EA00484CA9DCA83EF0DAFA00
:10402000139A28022946149DDDF858B040EA126A16
:104030001298C4E900B640EA0222280240EA11615F
:104040004FEA082040EA1568159D1392C4E903520F
:1040500020221291C4F80890C4E905A1C4F81C807C
:10406000DCAC04F19000C6A93FF03EF904F1200059
:10407000129A8DE81108514643461398CDE9036919
:1040800005951AF005FB0446199890F808010228D6
:1040900040F00F83DFF8C00D23F00CF829F0A1FFEA
:1040A00023F070F90DF59F64DCA9E01D29F08DFC6B
:1040B000092021468DF830028CA829F095FFFEF7E3
:1040C00089BE1694D6A800F102080AF10401102254
:1040D00029F0EAFD82A84146841C29F0E9FA0DF591
:1040E00008782146102229F0DFFD0DF55C7918993A
:1040F00042462AF0D0F92AF079FA00F02B8399E8A9
:104100005E0050465EC0DFF8540D22F0D3FF5046EB
:1041100027F0A4FA23F036F98CA8DCA90530013188
:1041200013220DF59F683FF0DFF8FF208DF8345221
:104130008DF83002DDF860A0FEF750BEE01DDCA96E
:1041400029F043FC092021468DF830028CA829F083
:104150004BFFFEF741BEBDF8FC949DF8F9845FEA81
:10416000897041BF199991F81C0140F0020081F853
:104170001C015FEA895040F13584DAF83C30D3E91C
:1041800002E1D3E9042341EA030C4EEA020050EABB
:104190000C0000F01084CDF8F8E4CDF8FC14CDF854
:1041A0000025CDF8043500F00FBC16F80A00A7F181
:1041B0002C0180F0800006F80A0040461CF07CFFCD
:1041C000DDF860A00020DDE912B5102804D018F851
:1041D000001029F006FCF8E70DF59F680DF59F60CB
:1041E000314627F04FFE0FCE00BAC19008BAC090FA
:1041F00010BABF9018BABE90C6A800F11001BEA8B0
:1042000027F0D6FD0DF1380EDDF844C000289EE8F9
:10421000104200F076812AF0F1F940F20340ADF847
:104220003402FEF7DBBD0B209FE30DF59F6ADCA98E
:104230000AF1080060220AF168083EF0CBF91698EE
:1042400008F10C01C8F8000030221598C8F80400E5
:104250001498C8F808001398C8F81C90D04681E854
:1042600051080AF188001AA93FF03EF8CDF8FC5435
:1042700008208DF8F804DDF860A072E60E2006E054
:10428000DFF8AC0B22F022FF10200DF59F680DF532
:104290005C798DF8F8044C460DF59F69DCA8C822BE
:1042A00049463EF097F99DF8700312283FF46DAE31
:1042B0001AAC11287FF487AE95F8F980B8F1020F97
:1042C00004D1DFF87C0B22F001FF73E095F81A01AE
:1042D00000F00300012802BF95F8200100F0030060
:1042E000012804D095F8F8C04FF0020831E04CAE38
:1042F00005F1D00B514630465A461CF0FEF929F024
:1043000033FF0CD096E83E0048463EC0DFF8280B4D
:104310002AF056F8484627F0A1F923F033F8DBF8E5
:10432000000005F1E00C16900DF1680EDBF80400BA
:1043300014907446DBF808001590DBF80CA0AB462F
:104340009CE86F006FC47446DDE9142116989BF851
:10435000F8C0CDF804252246CDF8000509F1180E65
:104360008DF8F9C4CDF80815CDF80CA592E87B00BE
:104370008EE87B000B204B468DF8F80418988DF8DA
:1043800029858DF828C5816A826B4CAE2AF0E9F840
:1043900029F0EAFE0CD096E83E0048463EC0DFF821
:1043A0009C0A22F087FE484627F058F922F0EAFFDF
:1043B0001AAC199D0DF59F6805E629F051F9002802
:1043C00000F025820A2029F0DBFFDAF83820D6AE8B
:1043D000DCAC29F0F8FD9DF85853FF2D40F0B68174
:1043E000A01D1AA929F0F1FA06202146ADF8F8041B
:1043F00008F11200B622C3E208F107001AA9B022A0
:104400005D463EF071FF03200DF59F628DF8F804C4
:10441000501C41469046B7223EF066FFA4E50020BE
:10442000CDE98400CDE982000DF59F6682A9304672
:1044300002F0ECFC2AF0D2F846D14CA8311D00F174
:10444000030910222AF02AF8D6AE494629F022F8AC
:104450000DF59F685146324640461CF078F82AF028
:10446000BDF840F06B812068C10700F0738261687D
:10447000000A0DF59F660A0E8DF8F6210A0A40EA39
:1044800001607C90ADF8F4217CA9304602F008FD73
:104490009DF8F8540DF59F68FF2D15D1311D484644
:1044A00029F0F3F9BEAE494628F0F4FF0DF59F64FC
:1044B0005146324620461CF04AF82AF08FF840F068
:1044C00010841999FFF767B9711C4CAE132229F0BB
:1044D00084F9C6A81ECE1EC029F008FF3DE28CA8B4
:1044E0000DF59F61083029F03AFC8D940520FFF707
:1044F000D2BADDE9C6CE0DF59F68DDE9C894DDF8D6
:1045000060A04CA8149E90301BF0010104BF0E4621
:104510000D46169A08BF0A46159B08BF0B4600F1C8
:104520000C0180E86400B022C0E9069408F107009D
:1045300081E808504CA93EF0D7FE082041468DF88E
:1045400030028CA80130B7223EF0CEFEFEF746BC0A
:1045500029F0A7FF49468CA891E87C0004307CC074
:1045600002E29DF873230F2A00F2BA8106208DF82B
:10457000FD040320FFF75DB8B8684C1C00901AAE2C
:10458000DCAA214630465346FDF7E6FD9DF868500B
:104590000DF55C79FF2D24D108F10800DCA929F084
:1045A000DEFBCDF8FC4499E1DFF86C0822F082FDD7
:1045B00029F017FD22F0E6FEDDF860A009208DF855
:1045C0007003DD9429F0EFFB4CAEDCAC29F0FBFC72
:1045D0009DF830510DF59F680DF55C79FF2D00F0C9
:1045E000C88108F10500711C29F0F4F88DF8FC541D
:1045F000FF20A2E208F1140C16960DF59878BCE89D
:104600004F00C646AEE84F009CF800008EF8000050
:10461000BDF89600ADF80C02DDF8920082901AA960
:104620004DCC8C46ACE84D0012222088ACF800003E
:104630000BF1D2008BF8D1908BF8D0503EF054FEA5
:10464000B8E83E000BF1E4003EC016998BF8F91073
:1046500098F8001001708298CBF8FA00BDF80C02AF
:10466000ABF8FE000C200DF59F68FEF7B7BE4CA816
:10467000DCA929223EF038FEDDF89A03022DC6900F
:10468000BDF89E03ADF81C0300F0AF834CA9199C44
:10469000292204F1D0003EF027FEC698C4F8FA00A3
:1046A000BDF81C0384F8F9502546A4F8FE000D203F
:1046B0001BE4DFF8A00722F0FDFC29F092FC22F0B9
:1046C00061FEDDF860A00920CDF8FC440DF59F6483
:1046D00029F05BFB2346DAF83820BEAE29F041FF13
:1046E0009DF8F8520DF59F68FF2D00F04D818CA8C4
:1046F000711C053029F06EF88DF8345234E14CA865
:10470000211DC61C28F0C6FEC6AC314628F0D0FFDD
:104710000DF59F665146224630461BF018FF9DF866
:10472000F8440DF59F68FF2C00F03A818CA8711CAD
:10473000053029F04FF88DF8344215E108F10101F8
:10474000C6A829F047F806E10DF59F6808F10500B5
:10475000711CEDE14CA9484629F066F909F12004E5
:10476000C6A9202229F06EF8169812228DF8B303FC
:10477000BDF80402ADF8B0039DF806028DF8B2034F
:1047800009F145008DF8B4637CA93EF0ADFD09F157
:10479000570079A929F0F9FD584650213EF018FD3F
:1047A00019990DF59F6891F80801023838BF022069
:1047B000C0B2022800F0C581DDF860A0032840F0F7
:1047C000F7810F200DF59F6529F0DFFA2B46DAF807
:1047D0003820D6AE29F0C5FE9DF85843FF2C40F096
:1047E0006582E81DDCA929F0F0F807202946A6E635
:1047F00005200DF59F688DF83402FF208DF83002FA
:10480000DDF860A0FEF7ECBA199D012041E506F144
:1048100090001690E44840F2FF18D7F808A04FF037
:10482000FF39834650461FF03DFA044650460E4677
:104830001FF038FADD4D0023A0FB0502E1FB052344
:10484000A4FB0541A6FB056576184FF00001454124
:1048500052F1000253F1000024EA080341F1000183
:10486000BBEB030379EB060379EB050379EB02025B
:10487000D8D3169C0022DDF860A004F1100384E870
:10488000070083E8070008218DF87013DA60E26002
:10489000DD9029F088FAD6ACDCAB29F056FC9DF807
:1048A00058530DF55C79FF2D40F03D81B86800212B
:1048B0000090DCAC1AAA534620460026FDF74CFCBB
:1048C0009DF870530DF59F68FF2D40F02E8108F183
:1048D00008001AA929F043FACDF8FC6407202CE15E
:1048E00085F8201105F58F7185F81E0105F58C708E
:1048F000BDF874339DF87143A5F8223185F8212164
:1049000085F81F4128F000FC85F80801DFF8100544
:1049100085F8091122F0CEFB29F0DAFA22F032FDF7
:10492000DAF82C104CA829F07FF8DAF83010DCAE59
:10493000402228F052FF0DF168083146404602F04F
:10494000BDF929F02AFB00F07A810A2003248DF8B2
:1049500019039FE105250DF59F688DF834528CA849
:104960000530C6A928F036FFFF208DF83002FEF78B
:1049700035BAE01D1AA929F028F8052029F0E6FC2F
:104980003EF0B2FCFFF7EFBAA01DDCA929F01DF83C
:1049900003202146ADF830028CA81230B622D3E5B0
:1049A000129C132C40F08881F01DDCA929F00DF831
:1049B00009203146C3E50020CDF80405CDF80005F7
:1049C000CDF8FC04CDF8F804DFF868140DF59F600D
:1049D0001CF0B8FA30B1199991F81D0140F00200AD
:1049E00081F81D0119980C2180F82051054680F8A6
:1049F0001F8105F58C78A0F8229180F8216180F85C
:104A00001E4190F81901032808BF0821DAF8380080
:104A100090F8702390F87133881885F81A0105F51D
:104A20008F7013B1012188F80010414628F06CFB0B
:104A300085F80801DFF8340485F8091122F03AFB03
:104A400029F046FA22F09EFC0DF59F60012102F04C
:104A5000BFF829F0C3FD3FD19DF80865DDF8044596
:104A6000BDF80905ADF8180331469DF80B058DF822
:104A70001A032046DDF8FC94DDF8005517F0C8FF56
:104A800029F083FA40461A4628F0ECFBC0B202280F
:104A900044D1CDF8F8940DF59F68BDF818030DF5D5
:104AA0005C79ADF8050551469DF81A0342468DF82C
:104AB000070548468DF80465CDF80045CDF8FC544F
:104AC0001BF045FD29F092FD59D10DF59F6801209D
:104AD0008DF83002FEF787B99DF808259DF8FB0494
:104AE0008DF88023DDF804258DF87303BDF8F904F3
:104AF000DF92DDF800259DF80B15ADF87103BDF8C8
:104B00000905DE92DDF8FC24ADF830018DF8321194
:104B1000DD928DF88313ADF881033BE0484629F020
:104B20000EFB052536E00DF59F6808F10500611CB8
:104B300028F050FEFF208DF8FC548DF8F804FFF7A4
:104B400012BADDF860A091F80901002800F0CE80CB
:104B50000A200DF59F6529F018F92B46DAF8382060
:104B6000D6AE29F0FEFC9DF85843FF2C40F09E8005
:104B7000A81DDCA928F029FF042029460AE799E8A6
:104B80005E0040465EC0BA4822F094FA28F017FF53
:104B900022F0F8FBDCA98CA80530013128F01AFEC0
:104BA0008DF83452FEF704BEFFC5FCFF40420F00F3
:104BB000B9680BF1100000F073F9DBE9060100257C
:104BC000DBE904238DE803020DF59F60CDE9034581
:104BD00019F020FDDDF804150DF59F68DDF8F824C7
:104BE000DDF8FC34DDF80005CBE90201CDE9000178
:104BF0004046CBE9002302F015F89DF8F844FF2C5D
:104C000063D182A808F10401C61C28F043FC88ACDB
:104C1000314628F04DFD0DF556795146224629F0D2
:104C20003AFC9DF85843FF2C40F0808008F10700C3
:104C3000DCA928F0CAFE02204146FFF785BABEA8CB
:104C400008F10401861C28F025FCD6A83146841CF6
:104C500028F02EFD0DF502792146102229F01EFCC8
:104C600051460DF5467A4A4650461BF070FC9DF8B9
:104C70001843FF2C40D09AE86E0040466EC0694849
:104C800022F018FA28F09BFE22F07CFBDDF860A0F1
:104C90000DF55C79C6A90DF59F6808F10500013195
:104CA00028F098FD8DF8FC44FFF763B98CA8711CBF
:104CB000053028F08FFD4CE08CA8DCA9083029F0E5
:104CC0004EF8601C8D9005204FE682AD08F1010181
:104CD000132228F0BEFDD6AE2946701C28F07AFDBE
:104CE00030E0611CC6A828F075FD36E6DAF8000051
:104CF00098B3DAF8041049E008F103004CA928F051
:104D000093FE0DF59F64DCA904F1240040223EF0DF
:104D1000EBFA022041468DF8F804601C2322A046DD
:104D20003EF0E2FADDF860A0FEF79DBF99E86E0064
:104D300040466EC04C4822F0BDF928F040FE22F0FB
:104D400021FBD6AE8CA8711C053028F043FD0DF573
:104D50009F68FF208DF8344207E6BE682F4C414D16
:104D6000D6F80001402807D33046002118F0E8FBB0
:104D7000D6F80001402846D2421C56F82000C6F85A
:104D80000021A0FB0401A8421046EBD80BF1400023
:104D900000260BF13002CDF8FC14C0E900160DF529
:104DA0009F63C0E902660820C2E90016C2E90266F4
:104DB00028F0EBFFDAF83820D6AD28461BF074FC5B
:104DC0009DF858438CA8FF2C05D10830DCA928F0A9
:104DD000C6FF8D9677E70530691C6AE71B4B00E03C
:104DE0000B4B0120072121F01DFB0F4821F0B0FFE4
:104DF000144A06E01F4A04E0154A02E00B4A00E0AC
:104E0000044A28F04BFB164A402121F051FB00BF19
:104E100028590400185904003600000040420F00D1
:104E200037000000E000000008590400F8580400B2
:104E3000CF00000078A60400E3000000D9000000C5
:104E4000E5000000E8580400DB00000098D60400EC
:104E500088D604003500000033000000E1000000A7
:104E6000BCA404007F3DF1FFDD000000380000001D
:104E7000D6000000C8580400D0B502AF92B0BC689C
:104E80008DF81020FF228DF80420CDE902343A6914
:104E9000FB68009201AAFDF79FFC12B0D0BDD4D4EC
:104EA000F0B503AF2DE9FF07DFF8949000260D461B
:104EB0008046EA46CDE90266CDE900660F2E1ED88F
:104EC000D5F80041402C07D32846002118F038FBC4
:104ED000D5F80041412C2AD23046514610224B468B
:104EE00026F016FA02460B4605EB8400C4F1400199
:104EF00023F08AFE2044C5F800010E44DEE704A832
:104F00009AE81E001EC004AB28F0F1FC1FBFA8E801
:104F10000F0008B0BDE80007F0BD084822F0CAF84D
:104F200004A826F011FD22F02DFA22F079F9054BA4
:104F300020464021402221F075FA00BFEB0000001E
:104F40004CDD0400ACA40400D0B502AF0F4A526996
:104F5000BFF35F8FA2B152680123014413600023A5
:104F600088420AD0D2F80041002CFBD0C2F80031B0
:104F7000D2F8084500F8014BF2E701205060D0BD9F
:104F8000034822F0A3F822F04BF900BF98E6032073
:104F9000AD000000D0B502AF04460A4822F069F81F
:104FA0002078FF2806D028F0E7FC2046BDE8D04056
:104FB00026F054BB28F0A6FD6068BDE8D04023F081
:104FC000B1B900BF05020000D0B502AF04460A48DF
:104FD00022F04FF82078012806D128F0CDFC606837
:104FE000BDE8D04023F09EB928F08CFD6078BDE884
:104FF000D0401FF0F7BF00BF11010000F0B503AFB4
:105000004DF804BD0446764822F033F82578FF2D8C
:1050100015D128F0B1FC784822F02BF82579FF2D26
:1050200026D128F0A9FC794822F023F8207A22F032
:105030005BF8608922F01DF8D4E90301B5E0002097
:10504000002622F051F8674822F013F8B5F10A0063
:1050500098BF3046E0B1012829D128F08DFC634883
:1050600022F007F8A08922F004F8D4E901019CE0BD
:1050700028F048FD614821F0FCFFDFE805F005431A
:10508000233221505B415F0028F03CFDE08811E0B5
:1050900028F038FD564821F0ECFFDFE805F0066AFD
:1050A000575C517A8C6096538E00002062E028F0A5
:1050B00091FF4D485DF804BBBDE8F04021F0D9BF39
:1050C00004202DE028F086FF4D4821F0D2FF4D4806
:1050D000257D21F0CEFF681E18BF012022F004F8C4
:1050E00015E029F026F8607921F0FEFF208921F0F3
:1050F000C0FFA0795DF804BBBDE8F04026F052BBCC
:10510000072018E028F038FC3F4821F0B2FF04F1F6
:1051100008005DF804BBBDE8F04026F0A3BB052005
:1051200021F0E2FF04F108005DF804BBBDE8F040A7
:1051300026F088BB062021F0D7FF34E0082048E0A5
:10514000042004E0092021F0CFFF8EE7022021F0A7
:10515000CBFF6088AEE728F0ECFF608883E707208C
:1051600021F0C2FF608821F084FFA08821F081FF38
:1051700019E0012021F0B8FF608A21F07AFFA08AAF
:1051800021F077FF601C5DF804BBBDE8F04026F01D
:105190007BBB052021F0A8FF6088164DA847A0889A
:1051A000A847E088A847D4E902015DF804BBBDE840
:1051B000F04022F095BF062000E00A2021F094FF85
:1051C000608821F056FFA08874E7082021F08CFF4A
:1051D00060785DF804BBBDE8F04021F085BF00BFFA
:1051E0000202000013020000030200001A02000085
:1051F0001002000073700200140200000802000098
:105200000A02000019020000090200000E0200005C
:10521000D0B502AF0446044821F02BFF2046BDE87C
:10522000D0401EF0FFBD00BF14000000D0B502AF9B
:1052300004460A4821F01DFF2088012809D128F0E2
:105240009BFB074821F015FF6088BDE8D0401FF0A8
:1052500083BE0020BDE8D04021F046BF0E00000014
:105260000F010000D0B502AF0446044821F001FF51
:105270002078BDE8D04021F037BF00BF1500000006
:10528000B0B502AF0546044828F0A1FE28462146E5
:10529000BDE8B04021F0B2BF02000000F0B503AF9E
:1052A0002DE9000FB1B00546886800248846002823
:1052B0008C6053D0D8E9046B0A90B868D8F80C1009
:1052C00000280895099153D0304659461AF034FC0D
:1052D0002BAC28F05AFE20461A4627F0EDFA2D98FE
:1052E0000E3405900A222C98214606909DF8AD00B8
:1052F000BDF8B8A0BDF8AE509DF8AC90079017A8C7
:105300003DF0F2FFB9F1FE0F00F09E8117A9204693
:105310000A223DF0E9FF0598B9F1FF0F2D9006989C
:105320002C900798ADF8B8A0ADF8AE508DF8AD0050
:105330008DF8AC9000F0948101220020B9F10A0FA1
:10534000A9F10B0188BF52FA81F0002800F0BC805F
:10535000012800F0C6804FF0000AC2E098F804105F
:10536000D8F800001BF070FFAC60297128601AE1CA
:1053700030465946CDE906231AF0DEFB2BAE28F065
:105380006FFC0DF15C0BB11C16229DF8ACA05846C9
:105390009DF8AD903DF0A8FFBAF1FE0F00F05981E5
:1053A000594611A87CC97CC016220988018059463B
:1053B0008DF82D908DF82CA00BA802303DF094FFB5
:1053C000BAF1FF0F00F051818DF85D900BF10200F2
:1053D0008DF85CA011A9162216243DF085FF2BA89C
:1053E00027F0CCFE2B9D002D69D0DDE92CA1FB2000
:1053F0000DF1AC0B0422CDE91D1000201F90584682
:1054000003911DA94FF0040926F0DEFA2B9E9DF8AA
:10541000B040002E00F0B4800BF105010DF1980BA7
:105420001322CDE9045A58463DF05EFFDDF89B108B
:105430000DF18C0922910BF1070126980C22CDF871
:10544000850029F02BF8D8F8005098F804A0D5E989
:1054500000018DF884405246209619F045F81FFA55
:1054600080FB484626F018FB864B02460E468B45CD
:1054700028BF8B4611465846324626F003FBCDE93D
:1054800000012BA817AB0699079C4246A0479DF840
:10549000AC00FF2800F08A80089E9DF8AF1006F14E
:1054A0000805F171BDF8AD10A6F805102CAC3071EF
:1054B0001ECC1EC5DDE9045A002030606BE008995F
:1054C000002008600C716AE0B9F10A0F3FF643AFA3
:1054D0000120AA4600FA09F040F20C4108423FF4CC
:1054E0003AAF304659461AF027FB002900F0C78032
:1054F00098F80450D8F800600DF15C080078ADF819
:1055000060A00DF12C0AF9682A468DF85D00032091
:105510008DF85E1031468DF85C005046434600F031
:10552000BDF89DF82C40FF2C0BD011AD0AF1010104
:10553000132228F08EF9089E294628F077F90025D5
:105540001BE011A80AF10401C41C28F0B1F80DF108
:105550002C0A2146102250463DF0C6FE3046294610
:105560001BF072FE054608F103000C46514628F078
:105570008CF9089E414628F059F9347135600EE0E7
:1055800008990120487100200860E00718BF4FF01B
:105590000D0981F804902846514627F039FEDDE9CF
:1055A000091027F035FE31B028F0F5B8089E2C9888
:1055B000012809D1DDE924212D98521A82420ED208
:1055C0004FF48270B08075E7284651461BF03CFED0
:1055D000002231713060B260DDE90401DDE70C18B2
:1055E00020A8D146AB46214625F04AF8DDE9045A09
:1055F000C0B2022816D120A804214FF0040825F0DB
:105600003FF8C0B2022816D12298494604445846B1
:105610001BF01AFE039AC6E9025AC6E90424317146
:105620003060BCE70121C00771714FF0040018BF62
:105630000D20307140E701217171C00718BF4FF094
:105640000D0886F8048037E7134821F033FD0798EA
:1056500003E00E4821F02EFD484626F0D1F80AE07E
:105660000C4821F027FD2BA803E0074821F022FD7C
:105670000BA8FFF7C3FC21F085FE21F0D1FD044A01
:1056800027F00CFF7C5A0400F6000000FB0000002D
:105690008C5A0400F8000000FC000000F0B503AFD5
:1056A0002DE9000F9BB0044615A8984691460E467A
:1056B00027F064FD159D002D64D016980DF1540B54
:1056C0000690FB2017990422CDE9071000200594CD
:1056D000042409905846CDE90369019107A926F0F1
:1056E00073F9DDF854A09DF85890BAF1000F57D027
:1056F000029510AC0BF1050127F066FFDDF84310B1
:105700000C2210980C91E11DCDF82D000DAE28F063
:1057100064F88DF82C900BF10400CDF828A098E8DF
:105720003E003EC05946FF208DF854003046FBF73E
:1057300071FEC0B2022828D10398049AD0E9000172
:1057400018F0D2FE0F9D80B2A84238BF05460AA8C5
:10575000294624F095FFC0B2022816D10AA80421D8
:1057600024F08EFFC0B202280FD1059AFF200299C3
:1057700010700C9851600699284491600199C2E913
:10578000031019E01620207016E00121059AC007C9
:105790004FF00400517018BF0D20029D107007E0FB
:1057A0000599012048705FEAC97018BF0D240C707C
:1057B0000699284627F02CFD1BB027F0ECBFD4D467
:1057C000F0B503AF2DE9000FD1B0CDE90F204FF0B8
:1057D000000C78694FF000091291010E11913EA959
:1057E00001F11C02243108920B9130A9243104915B
:1057F000010C000A0590D7E9030B0E90D0480D91DB
:105800000793804600200C900C98C00740F07E82E1
:105810004B45C0F077820F98A3EB090ABAF1070F46
:10582000484407D80025AA454AD0415D0A2935D009
:105830000135F8E7C11CAAF1080E21F003010C1A8A
:1058400001D1002408E00025415D0A2926D0013558
:10585000AC42F9D1744512D80559BA4A85F00A36D6
:10586000961B35430619766886F00A31511A314382
:105870002940C94311F0803F01D10834EAE7A2452D
:105880001ED0191B2044A1EB09050022815C0A29C6
:1058900003D001329542F9D112E0151909EB050246
:1058A0004FF00009541CB3D0A1469C42B0D80F98C9
:1058B000A146805C0A28ABD10020A1460C9004E0F0
:1058C000012064460C9099461A460F98DBF81C504C
:1058D0006245604401D1002106E0A2EB0C014A1EA2
:1058E000835C0D2B08BF1146DBF824206FF00043CA
:1058F0009A4228BF1A460E9BCDE909549B1A0D9A6D
:105900000693D2B2022A0FD1119A022A40F08D805A
:105910000144DBF81840DBF8205019F0C8F82919C9
:10592000BA6801FB0025B2E1119A022A40F00C810D
:10593000BA68CDE9000130A8594615F097FC4EA889
:1059400030A919F0CDF8509A501C00F09F8128F032
:10595000DCFD38BF08464E9D18B1012840F0978104
:10596000EDE7DDF83CA123A8594622F08FFA279CE9
:10597000002CE4D0269E002EE1D024980028DED40E
:10598000259B002BDBD423998219D1F808C06245EE
:10599000D5D8CA6803EB040E9645D0D80CF107029F
:1059A00028F0A0FDACEB060ECDF808E00CFB0300E0
:1059B0003346CDE9004013A817F090F90D98CDE9D2
:1059C0002064CDE91E5A8DF86C003EAD13A91EAAC5
:1059D000284619F017F81BA84C902AAC20462946F7
:1059E0001BF0CDFB9DF8B0000028F7D00228A6D010
:1059F0004C98DDE92A230478002AEED4002BECD45D
:105A00002AA8129915F028FB2A980128E5D1DDE98A
:105A10002B108F2998BF4728DFD827F0B6FC08BF86
:105A200043EA02050D543EADD7E7BA68CDE900015F
:105A300030A8594615F01AFC4EA830A919F050F8B4
:105A4000509A501C00F0228128F05FFD38BF0846B4
:105A5000DDE94E5670B1012840F01981DBF82000D5
:105A60000028E9D028F0A2F8CDE93E563EAA1EF063
:105A700031FAE1E723A8594622F008FA279C002CC6
:105A8000DAD0DDF898A0BAF1000FD5D0249800281C
:105A9000D2D4259B002BCFD4239900EB0A02D1F856
:105AA00008C06245C8D8CA6803EB040E9645C3D83F
:105AB0000CF1070228F016FDACEB0A0ECDF808E059
:105AC0000CFB03005346CDE9004013A817F006F97C
:105AD00021941EA880E8600411988DF86C003EADFA
:105AE00013A91EAA284618F08DFF1BA84C902AACBB
:105AF000204629461BF043FB9DF8B00010B1022858
:105B00009AD0F5E74C98DDE92A230478002AEED4F0
:105B1000002BECD42AA8129915F09EFA2A98012895
:105B2000E5D1DDE92B108F2998BF4728DFD827F072
:105B30002CFC08BF43EA02050D543EADD7E700BF79
:105B4000FFFF100000010101BA68CDE9000113A8B0
:105B5000594615F08BFB1BA813A918F0C1FF1D9A1D
:105B6000501C00F0938028F0D0FC38BF0846DDE9D7
:105B70001B5470B1012840F08A80DBF82000002817
:105B8000E9D028F013F8CDE93E543EAA1EF0A2F960
:105B9000E1E71EA8594622F079F9229E002EDAD0BC
:105BA000DDF884A0BAF1000FD5D01F980028D2D418
:105BB000209B002BCFD41E9900EB0A02D1F808C01D
:105BC0006245C8D8CA6803EB060E9645C3D80CF1E7
:105BD000070228F087FCACEB0A0ECDF808E00CFBBE
:105BE00003005346CDE9006023A817F077F80D981D
:105BF00007F8A20C119807F8A10C0498CDE92CA67F
:105C0000CDE92A542AA922F03BFA30AC23A91C2260
:105C100027F018FEA7F1A2003890A7F1A100379055
:105C20003EA8214638223DF05FFB0020CDE94C0024
:105C30004EA80B991BF0C1FA4E9801288BD1DDE9D3
:105C40004F653EA81AF006FCC0B202283FF483AFAD
:105C50000899002E51F820000478E9D4002DE7D4EB
:105C60004EA8129932462B4615F0F6F94E980128A7
:105C7000DED1DDE94F108F2998BF4728D8D827F00B
:105C800084FB08BF43EA02050D54D1E7BD68DDE996
:105C900009026421079B94464843B0FBF1F00E993A
:105CA0000144B8680E9185427FF7AEAD2C1A059875
:105CB0000D99164615F06CFAC0B202280AD0B968E0
:105CC00000F001033E91DBE90A1228F0E7F93EAA51
:105CD0001EF000F978690D9915F05AFA079BC0B2C9
:105CE000B44602283FF490ADB96800F001033E913C
:105CF000DBE90C1228F0D2F93EAA1EF0EBF8079B64
:105D0000B44681E5012064460C90DDE551B027F0F2
:105D100042BDD4D4F0B503AF2DE9000F8BB00646D9
:105D200038690C4699B280B2D7F808B0B1FBF0F0F0
:105D30004FF001080390002002920193F968884215
:105D40002DD0039988422CD0411C0491396900253B
:105D5000029A00FB0129B96900EB010AAB451CD08E
:105D60003969E808B1EBD50F25D919F8000005F01D
:105D70000701884000060ED5114831460A900020E0
:105D8000CDE9088022467869CDE906A82844059027
:105D900005A801F092FA0135E0E70498CEE727F074
:105DA00083BC3A690399074B02FB01F0013151436F
:105DB000019A20F037FB014A20F07AFBAC5A04002C
:105DC000010201009C5A040080B56F4618B1BDE87D
:105DD000804027F01DBA80BD80B56F46016819B1BB
:105DE000BDE8804000F0BEB880BD80B56F46C243BC
:105DF00012061CBFBDE8804000F06CBD80BDD4D44D
:105E00000168426B8A429EBF00210160704780B5E5
:105E10006F46024B10460A4620F004FB6CAA0400B1
:105E200080B56F4680BDD4D4F0B503AF4DF804BD46
:105E30000A460646D0E9000118F082F90C461249DC
:105E4000054606F5767024F09BFC0E4695F85E1329
:105E5000A1B1013985F85E13090604BF95F85C13FA
:105E6000042903D028F0CEFB27F02EBC103041F2DD
:105E70000131A5F85C1321F04BFEF3E7034821F054
:105E800025F921F0CDF900BF0CA40400F3000000B7
:105E900080B56F46014640684A7A00F5B7601AB18E
:105EA000BDE8804015F0A7B8097ABDE8804015F03C
:105EB00086B880B56F4680BDB0B502AF456865B1A4
:105EC0000289006828F065F838B10C46D0F8401314
:105ED000294428F03EF827F048FDB0BDB0B502AF28
:105EE00088B00446D0E9062043690020009002AD46
:105EF00021462846FFF7D2F92846FFF76DFF2046D6
:105F000008B0BDE8B04000F071B8B0B502AF88B0DD
:105F10000446D0E906204369012194F82000CDE928
:105F2000001002AD21462846FFF7B8F92846FFF7D2
:105F300053FF204608B0BDE8B04000F057B880B528
:105F40006F460178042907D0082918BF80BD0430A6
:105F5000BDE8804000F058B890F83A00BDE88040B5
:105F600027F04AB9F0B503AF2DE900078AB0D0F8A1
:105F700000A0044686680020A06036B304F10C003F
:105F80000DF1140808F1080190E82C002CC194F8D8
:105F90000490DAE900014A4623F0DAFB0A68B0F817
:105FA0005803013A0A600AF57E71ADF8140068469C
:105FB0004246069617F098FA019840B1029927F0E8
:105FC00027F9094821F082F801E094F8049050463E
:105FD0004946FFF729FFE16800200AB0BDE8000745
:105FE000BDE8F040FFF7F0BE68000000D0B502AF9A
:105FF0000446D0E90201FFF7E7FE21792068BDE8F9
:10600000D040FFF711BFD4D480B56F4602C8DFE897
:1060100001F002020206BDE88040FFF75FBFBDE865
:106020008040FFF772BFD0B502AF18F0A1F968B198
:106030000C4690F86F130022012980F86F2304BFEB
:1060400000F51E7021F064FD27F08FFCD0BD80B5F7
:106050006F4600F5B7600021BDE8804014F0AFBF87
:1060600080B56F4690F8441031B1032918BF80BD48
:10607000BDE88040FFF70CBF3830F9E7B0B502AF9C
:1060800004460025902D08D06019017D032904BF26
:10609000043000F03CFB1835F4E7B0BDD0B502AFDA
:1060A000044600F00CFC04F11800BDE8D04000F0FC
:1060B00006BC80B56F4690F83010032918BF80BD2C
:1060C0001430BDE8804000F02DBBD4D480B56F46BD
:1060D000054800210122016004494250016800295D
:1060E000FCD00021016080BD14710040F4FEFFFF70
:1060F00080B56F46C0B2BDE8804039F0FFBED4D451
:10610000D0B502AF0446006850B9002020734FF0AC
:10611000FF302060201D21F0FBFC27F026FCD0BDC5
:10612000044820F0C7FF24F019FB21F02BF921F0DF
:1061300077F800BFA2000000F0B503AF2DE9000F13
:1061400089B0824630480068C00557D18946304939
:10615000104618F043FB0546D0E90046D0F8E400AD
:1061600005F1080B88460138C5F8E400584614F0DC
:10617000BBFE241A66F10000BAEB040179EB0000C3
:1061800035D3E9465946484617F0EAFEBAEB040013
:10619000049004D0411E68461DF014FE50B105ACB9
:1061A00099E84E0020464EC027F0CCFF10B128F0F1
:1061B00011FAF9E700206C46D5E90212914202D1AA
:1061C0002A7CD2070DD005EBC101896949B9204667
:1061D000594617F0D3FE9DF8000002280BD001208D
:1061E000EAE7C0071CBF05F1B80022F0D4FF27F092
:1061F000E5F927F098B9074820F0AAFD034820F0F8
:1062000065FF21F00DF800BF04ED00E0B1000000D3
:10621000389C040040A2040080B56F460949096813
:10622000C9050AD1094918F0D9FAD0F8E820013A8D
:10623000C0F8E82027F032FB80BD034820F046FF7D
:1062400020F0EEFF04ED00E0B1000000689C0400C7
:1062500080B56F4609490968C9050AD1094918F08E
:10626000BDFAD0F8C020013AC0F8C02027F016FBD4
:1062700080BD034820F02AFF20F0D2FF04ED00E0AB
:10628000B1000000689C040080B56F4608490968A9
:10629000C90508D1084918F0A1FA026C013A026454
:1062A00027F0FCFA80BD034820F010FF20F0B8FF73
:1062B00004ED00E0B1000000689C040080B56F466A
:1062C00090F88810032918BF80BD2C30BDE88040AD
:1062D00000F0E9BA80B56F4690F8EC10032918BFBA
:1062E00080BD1830BDE8804000F00CB880B56F4626
:1062F00090F8F810032918BF80BD2430BDE8804015
:1063000000F000B880B56F4690F84410032908D01B
:10631000042918BF052909D14830BDE8804000F0A4
:10632000C2BA4830BDE88040FFF7C8BF80BD80B525
:106330006F46817F0339012988BF80BD2430BDE8C5
:10634000804000F000B8D0B502AF044690F82700B6
:10635000042818BFD0BD04F13C0000F037FAE06A11
:10636000228ED0E90001BDE8D040FFF75CBE80B5C9
:106370006F46417C042918BF80BD4068BDE880405D
:10638000FFF7BEBED0B502AF044690F83500032833
:1063900009D0042803D0052818BFD0BD03E004F1BC
:1063A000380000F0DFF9002084F83400D0BDD0B50B
:1063B00002AF044690F83500032804D0042807D023
:1063C000052818BFD0BD04F1380000F009F803E03B
:1063D00004F1380000F0C6F9002084F83400D0BD84
:1063E00080B56F4690F85010063907290AD8DFE8C3
:1063F00001F00A0F0904091409045430BDE8804073
:1064000000F076B880BD5430BDE88040FFF76EBF25
:106410005430BDE8804000F059B85430BDE88040A9
:1064200000F0C1B980B56F4690F82010042918BF5C
:1064300080BD2430BDE8804000F0EBB980B56F46E8
:1064400090F87C10032918BF80BDBDE88040FFF79D
:10645000E9BFD0B502AF0446007A032804D004286F
:1064600004D16068FFF7D8FE00206072D0BDD0B5BF
:1064700002AF0446807C032804D0042804D120689D
:10648000FFF7E6FE0020E074D0BDD0B502AF0446B1
:10649000C079032804D0042804D12068FFF7F4FE53
:1064A0000020A071D0BD80B56F4690F8341003294C
:1064B00007D0042918BF80BD5830BDE88040FFF7E1
:1064C000CFBD5830BDE8804000F040B880B56F4681
:1064D000017C032907D0042918BF80BD1830BDE80E
:1064E000804000F0E0B91430BDE8804000F000B812
:1064F00080B56F46017C042918BF80BD1830BDE807
:10650000804000F0D0B980B56F46017F042918BFE4
:1065100080BD2030BDE8804000F00CB880B56F46EB
:1065200090F85810032918BF80BD0430BDE88040A2
:1065300000F0ADB980B56F4690F85C10032918BF24
:1065400080BD0830BDE8804000F0A1B9D0B502AFF1
:10655000044690F85C00011F042906D3032818BFE5
:10656000D0BD04F16000FFF702FFE06B4068BDE8BA
:10657000D040FFF76CBD80B56F46C0B2032818BF8E
:1065800080BDBDE88040FFF7A1BDD0B502AF044695
:1065900090F82000042806D1E0690078FFF7A8FDF4
:1065A000002084F82200D0BD80B56F4690F84010DE
:1065B000032918BF80BD0C30BDE88040FFF7E5BF60
:1065C00080B56F4690F84410032918BF80BD103085
:1065D000BDE88040FFF7D9BF80B56F46017B042935
:1065E00018BF80BD8068BDE88040FFF789BD80B5D9
:1065F0006F4690F8A810032998BF80BDD0F890008E
:10660000BDE88040FFF77CBD80B56F4690F8D8119B
:10661000032918BF80BD0C30BDE88040FFF7B2BE33
:1066200080B56F4690F80012032918BF80BD103066
:10663000BDE88040FFF7BBBE80B56F4690F8E01123
:10664000032918BF80BD0430BDE88040FFF7DCBFE0
:1066500080B56F4690F820100339C9B2032988BF6E
:1066600080BD044A52F821100844BDE88040FFF77D
:10667000D7BF00BF38A6040080B56F4690F8201041
:106680000339C9B2042988BF80BD044A52F82110D9
:106690000844BDE88040FFF7C3BF00BFB0E104007D
:1066A00080B56F46817C0E390B2911D8DFE801F0E7
:1066B0000610101110101010060B100B1830BDE84A
:1066C0008040FFF794BF1430BDE88040FFF784BFDF
:1066D00080BD1430BDE88040FFF729BED0B502AFC1
:1066E000044690F83100052809D006280ED104F19F
:1066F000480000F06BF8A06BA28F26F06DFFD4E984
:10670000000126F085FD002084F83000D0BD80B562
:106710006F46017B032918BF80BD0430BDE880406F
:1067200000F060B880B56F46017E032918BF80BDB8
:106730000430BDE8804000F060B880B56F4690F846
:106740002D1041B1032918BF80BDD0E90601BDE875
:106750008040FFF739BBD0E90001BDE8804026F05A
:1067600057BDD4D480B56F4690F82C100339052955
:1067700018D8DFE801F00317170D08123030BDE814
:106780008040FFF7C0BE3030BDE88040FFF7B0BEAC
:106790003030BDE88040FFF7CDBE3030BDE88040EE
:1067A00000F001B880BD80B56F4690F860100529F3
:1067B00007D0062918BF80BD6430BDE88040FFF7D0
:1067C000B9BE7430BDE88040FFF784BD80B56F4628
:1067D00090F82510042918BF80BD2830BDE88040FE
:1067E000FFF76ABB80B56F464179032918BF80BDAA
:1067F0000430BDE8804021F0A9B880B56F46017A29
:106800000339012988BF80BD0C30BDE88040FFF707
:10681000E9BF80B56F4690F8441039B1032918BF1D
:1068200080BD1430BDE88040FFF787BFD0E901018B
:10683000BDE8804026F0ECBCD0B502AF044690F82D
:106840008800032801D028B1D0BD04F14000FFF733
:10685000E0FF18342046BDE8D040FFF783BB80B589
:106860006F4690F8A410032918BF80BD2430BDE8FE
:106870008040FFF7E3BD80B56F4690F89410032980
:1068800018BF80BD0430BDE88040FFF7F7BB80B57E
:106890006F4690F85010032918BF80BD0C30BDE83A
:1068A0008040FFF781BE80B56F4690F858100329ED
:1068B00018BF80BD1030BDE88040FFF781BE80B5B5
:1068C0006F46017D032918BF80BD0430BDE88040BC
:1068D000FFF71DBF80B56F46C0B2072818BF80BD47
:1068E0000846BDE8804026F087BC80B56F4680BD75
:1068F000B0B502AF051D0C4634B155E90101FFF7F3
:1069000063FA013C1035F7E7B0BDB0B502AF051D25
:106910000C4634B155E9010126F07AFC013C1035F2
:10692000F7E7B0BDB0B502AF00F13A050C463CB197
:1069300015F83A0C15F8401BFFF7CCFF013CF6E7C1
:10694000B0BDE0B502AFCDE9000101A968461EF077
:1069500065FED4D4F0B503AF4DF804BD06461B4820
:106960000068C0052AD11B481B4917F037FF0546B0
:1069700090F838000C46012804BF05F1300017F0EC
:1069800039FBA86AC0B195F83810E1B9D5E90C1205
:10699000002A05EBC203186483F83C6018BF01327B
:1069A0006A63914204BF012085F8380026F06AFD31
:1069B00005F1080022F0C2FB26F086BE044820F054
:1069C00085FB20F02DFC054820F0C2F904ED00E025
:1069D000B100000088E2032030C70400B0C7040003
:1069E000F0B503AF4DF804BD84B006461D480068FD
:1069F000C0052ED11D481E4917F0F0FE054690F83F
:106A000058000C46012804D105F1500101A817F0E7
:106A100007FBA86CC0B195F85810F9B9D5E9141264
:106A2000002A05EBC2031866A3F85C6018BF0132A8
:106A30006A65914204BF012085F8580026F022FDC6
:106A400005F1080022F070FB26F08FFF04B026F05D
:106A50001FBF054820F03AFB20F0E2FB054820F07C
:106A600077F900BF04ED00E0B100000088E30320E7
:106A700030C70400B0C70400F0B503AF4DF804BD43
:106A800006461B480068C0052AD11B481B4917F061
:106A9000A5FE054690F870000C46012804BF05F1DC
:106AA000680017F0A7FA286EC0B195F87010E1B928
:106AB000D5E91A12002A05EBC203986783F87460BF
:106AC00018BF0132EA66914204BF012085F87000C8
:106AD00026F0D8FC05F1080014F0E6FC26F0F4BD21
