:10100000A0D202200111000015200300C15A0500E2
:101010001520030015200300152003000000000028
:101020000000000000000000000000001520030088
:101030001520030000000000152003001520030008
:1010400059110000C11100001520030015200300F4
:101050001520030015200300FD24030015200300C4
:101060003D1200001520030015200300311200007E
:1010700015200300CD1100001520030015200300EA
:1010800015200300C12503001520030015200300CF
:10109000AD110000152003001520030015200300EA
:1010A0001520030015200300152003001520030060
:1010B00015200300152003000000000000000000C0
:1010C0001520030015200300152003001520030040
:1010D000152003001520030015200300491200000D
:1010E0001520030015200300152003000000000058
:1010F0000000000015200300000000001520030080
:1011000030F08BFF0E480F490022814201D004C00D
:10111000FBE70D480D490E4A814202D008CA08C0BB
:10112000FAE70C484FF47001026842EA01020260DB
:10113000BFF34F8FBFF36F8F2FF07FF800DE0000FB
:1011400010F4022008F80320A0D202200CF40220A0
:10115000C08A050088ED00E0B0B502AF4EF08CFB10
:10116000104C206828B1002020600F48203031F05A
:101170003DFC606850B10C4D0020606005F120001E
:1011800031F034FC05F1300031F030FCA06838B1AA
:101190000020A06004483030BDE8B04031F026BCEB
:1011A000B0BD00BF1C010040D4E2032080B56F46F3
:1011B0000248BDE8804031F019BC00BF98D303203D
:1011C00080B56F46BDE880404FF0E8BEF0B503AF94
:1011D0004DF804BD144E0020306032F02FFB134D4B
:1011E0000446286EF0B94FF0FF302866E86E78B1FB
:1011F000296F88420CD0D6F808140170D5E91B017C
:101200000130E866884204BF05F1640031F0C2FB9A
:10121000286E0130286620465DF804BBBDE8F0402A
:1012200032F042BB30F017FE00D100404CE3032007
:1012300080B56F46BDE8804050F04CBD80B56F462C
:10124000BDE880404FF09EBEF0B503AF4DF8048D71
:1012500084B0344C206858B1334D0120C4F80802E2
:1012600005F1200031F0C2FB05F1280031F0BEFB92
:10127000E06D38B14FF40000C4F808022A48283065
:1012800031F0B4FBA06A38B14FF48060C4F80802B2
:101290002548283031F0AAFBA06D28B10020A065B8
:1012A0002148203031F0A2FB206EB8B30020206628
:1012B000D4F86C631C48C4F86C63BFF35F8F50E8CC
:1012C000061F314340E80612002AF8D10020BFF380
:1012D0005F8F8DF80C0007200DF1040802900120AB
:1012E0000190404629F048FC012817D101F01F0465
:1012F0000D4626FA04F0C00704D0284623F052FC1D
:1013000031F074FB84F0100026FA00F0C007E8D03A
:10131000284623F07DFC31F069FBE2E704B039F0A8
:10132000FDBC00BF00710240D4E20320F0B503AF62
:101330002DE9000F93B0D0E90149834608468A465B
:10134000A4EB090538F0F8FA854201D200200BE23F
:101350005046DBF8005038F0EFFA00EB0901484640
:101360002A46234636F0ACFC9AF80020FF2A1FD10B
:101370009AF80420FF2A3ED13AF090FCBAF808000F
:10138000012808A814BF1B211D2136F0AFFCC0B2F4
:10139000022840F0E081BAF80A1008A836F0BEFC36
:1013A000C0B2022840F0D781DAE9031208A851E15F
:1013B000B2F10A044FF0000398BF1C46002C35D050
:1013C000012C48D13AF06AFC08A8522136F08EFC74
:1013D000C0B2022840F0BF81BAF80C1008A836F05D
:1013E0009DFCC0B2022840F0B681DAE9011208A8DB
:1013F00037F061FD35E0CDE9010100200390DFE821
:1014000012F00900C8005E00A4003200F2001E01C4
:10141000C5002C0101A8032136F068FCC0B20228E7
:1014200040F09981BAF8061001A88EE108AC0A2AAA
:101430000BC400F2A581DFE812F00B0018013501A2
:1014400038016C014A017601A301A301A301150132
:1014500008A810210BE13AF021FC08A81E2136F063
:1014600045FCC0B277E101A8092136F03FFCC0B2CB
:10147000022840F07081DAF8144001A8214636F0C5
:1014800035FCC0B2022840F066810AF108021194CE
:1014900039F0C9FE08A8294638F011F99DF8200056
:1014A000FF2840F0578139F068FEC0B2022840F0B2
:1014B00052813AF037FAC0B20228EBD04BE101A8D2
:1014C000052136F013FCC0B2022840F044819AF89E
:1014D000144001A8214636F009FCC0B2022840F0B1
:1014E0003A810AF108028DF81C400DF1380807CA4C
:1014F00004AB07C308A80430009001AC08A804A9F5
:1015000038F02DF9BDF82000002840F02381009A22
:10151000A446BDF82210404678CA78C064461278C6
:101520000270604636F0FAFBC0B2022840F0138128
:10153000404636F0D1FB3AF013F920461A4637F010
:10154000BAFCC0B20228D9D005E101A8012136F0C9
:10155000CDFBC0B2022840F0FE809AF8051001A829
:1015600036F0C4FBC0B2022840F0F580BAF808108B
:1015700001A836F0D3FBC0B2022840F0EC80DDE9D0
:101580000230834240F0F3800020E4E001A80D2106
:1015900057E001A8072136F0A9FBC0B2022840F0AD
:1015A000DA800AF108020DF1200839F03CFE4046CD
:1015B000294637F01BFE9DF82000FF2840F0CA8026
:1015C000BDF822103046BDF8244036F0A7FBC0B26B
:1015D000022840F0C0803046214636F09FFBC0B262
:1015E0000228E4D0B7E001A8112136F07FFBC0B299
:1015F000022840F0B080DAF8144001A8214636F005
:1016000075FBC0B2022840F0A6800AF108021194CE
:1016100039F009FE08A8294638F051F89DF8200055
:10162000FF2840F0978039F0A8FDC0B2022840F0B2
:1016300092803AF077F9C0B20228EBD08BE001A893
:101640000B2136F053FBC0B2022840F08480DAE967
:10165000021201A837F02FFC79E001A8132136F01F
:1016600045FB74E008A80C215FE008A8082136F0CB
:101670003DFBC0B202286ED1BAF8121008A836F0AD
:101680004DFBC0B2022866D1BAF8141008A836F093
:1016900045FBC0B202285ED10AF1010108A837F06B
:1016A000CFFD54E008A80A2135E008A8122136F041
:1016B0001DFBC0B202284ED1BAF8021008A836F0BD
:1016C0002DFBC0B2022846D1DAE901126EE608A865
:1016D000062136F00BFBC0B202283CD1BAF802104A
:1016E00008A836F01BFBC0B2022834D1BAF80410A7
:1016F00008A836F013FBC0B202282CD1BAF80610A5
:1017000008A836F00BFBC0B2022824D1DAE9021295
:101710004CE608A8022136F0E9FAC0B202281AD134
:10172000BAF8021010E008A8042136F0DFFAC0B2BF
:10173000022810D1BAF8021008A836F0EFFAC0B2A9
:10174000022808D1BAF8041008A836F0E7FAC0B2A7
:10175000022800D10220022806D1504638F0ECF8C9
:101760004844CBF80800022013B039F038BA019A87
:10177000411C9AF8064036F0A3FA21B10470E9E75B
:101780000F2030F0DEF938F024FEF0B503AF4DF84D
:1017900004BD82B00446D0E901300D46191A04296F
:1017A0000BD3061D226839F001FFCDE90001684620
:1017B0002946042223F004FA08B1002001E00220A7
:1017C000A66038F05CBF80B56F460021817540F699
:1017D0000601418280BDD4D480B56F4600210173DB
:1017E00001490131016080BDD4E2032080B56F461C
:1017F00045F2C472815010440021817180BDD4D45F
:1018000080B56F46DFF874C0044600254DF6684089
:1018100040F2011285422FD02B18654405F11806BD
:1018200056E8001F21B946E800210029F8D103E05D
:10183000BFF32F8F1D46EDE71148686205F12800C0
:101840002146FFF7D3FF2046294630F0F5FD00255D
:10185000BFF35F8F54E8000F44E800510029F9D12D
:10186000BFF35F8F30B1C669C5614576416A88476D
:101870003046F7E720BFEBE739F091FE78F402201D
:1018800031200200F0B503AF2DE9000B94B00446FF
:10189000F8680DF13C0839F07EFC9DF83C00FF280B
:1018A00003D040F6032020801DE0A7F14E0008F190
:1018B0000401851C38F05FFF02A82946861C38F019
:1018C000ACFD0BAD314638F056FF3AF062F82078A7
:1018D000FF2808D039F014FB044830F0C3FB39F07E
:1018E0005BFA30F017FD14B039F073B9A4010000B1
:1018F000F0B503AF2DE9000FCDB0FE68D7F8088032
:10190000CDE91D2056F870AFD8F84400C346CDF895
:10191000AB00C1465BF8410FD6F808E02A90D8F832
:101920003D00129316917268F568D6F810C073697D
:10193000B169F469CDF8CB0059F83A0F2192CDF88E
:1019400070E01B95CDF868C0199320911F943290D8
:1019500032A88DE8120454460DF1F80ACDE9032EA1
:10196000624605952AA9CDE90610A6F13001504638
:1019700022F064F922A89AE82E002EC04298119015
:101980004398109044980F9045980E90306A1890A4
:10199000706A179008F14E00D6E90AA538F019FBD5
:1019A00020F07F40CDE90A0B209800901F98CDE9E8
:1019B0000104219803901C98CDE908A504900546E0
:1019C0001B98CDF854B00590834618980690179848
:1019D000CDF84C90CDF830901494079026A822A909
:1019E0001A9A199B9146984622F04EF81D98102895
:1019F00004D126A8169924F07BFD30B11E99FF2052
:101A0000087040F6033088805EE0D6E90C40D7F8D5
:101A100008A01D90B06B18900AF14800F66B38F0E2
:101A2000D8FA20F07F400A9013980B9015980C90EC
:101A3000209804901F981899CDE905041D98CDE9C8
:101A40000816CDE9005BCDE9029807902AA822A9E3
:101A5000149A219B22F018F8DDE92C01DDE92A23F4
:101A6000CDE900013EAC204604F0F5FE9DF8F850AB
:101A7000FF2D0AD0611C32AC38F031FF1E9E21468A
:101A800039F07FFD3571FF201DE00DF1C809211DE2
:101A900009F1030538F06FFE2EAE294638F0BDFC83
:101AA000129C0DF1F80832464046214623F0AFF96A
:101AB0009DF8F850FF2D0AD01E9E08F1010139F063
:101AC00060FDFF20357130704DB038F0B6BF9AF828
:101AD000380002239AF84A100DF1F8089AF85020BD
:101AE000022801F0030008BF012302F0030180F087
:101AF000010081F0010108430F990091B0FA80F0D4
:101B00000E994009CDE901132146DDE91032039019
:101B1000404623F0AFF99DF82161022E09D198E8E3
:101B20006E0048466EC01E9E99E83E00301D3EC0C5
:101B3000A9E732AC3EA9292238F0A7FFBDF826015B
:101B40002146ADF830012922DDF822014B903EAD4F
:101B500038F09EFF50462946292253F0D2FD4B987B
:101B60001E99CAF82A00BDF83001AAF82E000A20F2
:101B70008AF829600870A7E7102B7DD1F0B503AF74
:101B80002DE9000F9DB009908846F868137800F1A0
:101B90006006D2F80100D2F80540D2F8095043EAB5
:101BA000002C39692B0243EA1463240244EA1060D2
:101BB000D47BB2F80D20C6E900C042EA044212020A
:101BC00042EA1562C6E9023218A803F02DF806F1C0
:101BD000300A189806F11003F66B1A9A08F07F0481
:101BE0001999DDF86CB0069283E80708A4F1400269
:101BF0000791314608909AE82006504653F0D4FBEE
:101C0000CDF81480804628464946224653F0CCFB46
:101C1000C4F14002814650463146D7F80CA053F03B
:101C2000D9FB0AF1200103910699402CCDE901BAB4
:101C3000009138BF49EA00082948002C08BFA8468F
:101C400039F0B5FF0AA8DDE9073221F081FFDDE9AF
:101C50000C01DDE90A23CDE9000118AC204604F0AF
:101C60004BFD9DF86050FF2D0CD0611C0FAC38F07F
:101C700036FE099E21461FE0FF21017040F6032138
:101C800081807047DDF814900FA8C61C211D10221A
:101C9000D7F8088038F0F6FE14AD314638F06BFD09
:101CA00018AC41462A46204623F0B1F89DF8605012
:101CB000FF2D09D0099E611C39F063FCFF203571AE
:101CC00030701DB038F0B9BE099C5146B02204F105
:101CD000080053F068FA0620C4F804902070F0E77A
:101CE000C0FFFF7FF0B503AF2DE9000B94B00446B1
:101CF000F8680DF13C0839F04EFA9DF83C00FF28D9
:101D000003D040F6032020801DE0A7F14E0008F12B
:101D10000401851C38F02FFD02A82946861C38F0E6
:101D20007CFB0BAD314638F026FD39F032FE2078D1
:101D3000FF2808D039F0E4F8044830F093F939F07E
:101D40002BF830F0E7FA14B038F043BFA3010000DD
:101D5000F0B503AF2DE9000F9FB08246880701D48C
:101D600011206FE0D56B934605F108030FCB41EAD4
:101D7000030440EA0206344311BF8DE80F0000203F
:101D8000CDE90200CDE9000016AE6946304604F008
:101D900095FD9DF85840FF2C3DD111A8311D00F153
:101DA0000308102239F0C6F80AAE414638F035FB78
:101DB0000DF158095946324639F078FF9DF85840E0
:101DC000FF2C30D12868C10741D06968000A0A0E8B
:101DD0008DF83E200A0A40EA0160ADF83C200E90E2
:101DE00016AE0EA9304604F09DFD9DF85840FF2C1C
:101DF00011D1311D404638F0F8FE1BAE414638F097
:101E00000CFB05A85946324623F001F89DF8144012
:101E1000FF2CA5D00DE011AD711C132238F038FE57
:101E200005A8294602E005A809F10101013038F0B2
:101E30000AFE05A90AF10500013138F004FEFF2071
:101E40008AF804408AF800001FB038F0F6BD052477
:101E5000EFE7F0B503AF2DE9000F8BB0044602A801
:101E60000E460021924604F01DFC9DF80800FF2854
:101E70001ED09DF80B10E170BDF809109DF81B20D5
:101E8000DDE903C5A4F80110BDF81910059E9DF801
:101E90001830ADF81C108DF81E202374C4E901C55C
:101EA000E660A4F81110E27420700BB038F0C5BDE4
:101EB0009DF818B0059DBDF81900ADF8040059460D
:101EC0009DF81B008DF806002846DDE9038920F007
:101ED00006F902460B4606F1480011461A4638F04C
:101EE0001CF9C0B202281CD1BDF804005146ADF85F
:101EF00029009DF806008DF828B00995CDE90789DD
:101F00008DF82B0002AD07AA284622F080FF9DF82D
:101F10000860FF2E10D0601C691C38F094FD2670FC
:101F2000C3E705204946207040460BB0BDE8000FCE
:101F3000BDE8F04038F0CEB8FF20B5E7F0B503AF0C
:101F40002DE9000F9FB00D46B968069314460B901B
:101F50001AA802F069FE1A9804F170061C9A05F09E
:101F60007F0504F1900B1B991D9B0FC60892A5F1EC
:101F700040020A909BE8400E50460991594607934B
:101F800053F012FA8046304649462A4653F00CFA7E
:101F9000C5F1400281465046594653F01BFA04F100
:101FA0002001402DCDE90241079901910899009146
:101FB00038BF49EA00082448002D08BFB04639F070
:101FC000F6FD0CA8DDE9093221F0C2FDDDE90E01C4
:101FD000DDE90C23CDE900011AAC204604F08CFBAE
:101FE0009DF86850FF2D0BD0611C11AC38F077FCC8
:101FF0000B9E21461322701C53F083FB35701FE0AB
:10200000DDF82C8011A8C51C211D38F0B4FB16AEDC
:10201000294638F002FA1AAC06993246204622F0D8
:10202000F6FE9DF86850FF2D07D008F10100611CF5
:1020300038F009FD88F8005002E0FF2088F8000021
:102040001FB038F0FABC00BFC0FFFF7FF0B503AF90
:102050002DE9000FB5B016461D46CDE91210B04669
:10206000D6F83D000DF1A00C55F8702FCDF8A30067
:1020700058F83A0F289056F8410FD5F808906B6839
:10208000D5F80CA0D5F810E0D5F814B0AC69E96922
:102090002C90D6F8030014921593CDF86C90CDF8DF
:1020A00068A0CDF864E0CDF860B017941691CDF833
:1020B000B3002CA88DE800460DF18009CDE9051C80
:1020C000A5F1300107904846CDE903B421F0B6FDF3
:1020D0001CA899E81E0005F1300B1EC02498119031
:1020E0002598109026980F9027980E90F01D9BE849
:1020F000100AD5F83CA037F06CFF20F07F40CDE906
:102100000A08DDE91A10CDE908BA0C96CDE90001FC
:10211000199802901898039017980490169805A99A
:1021200081E8110228A81CA9DDE9142321F0ACFCE8
:10213000DDE928230DF18009DDE92A01CDE900015F
:10214000484604F088FB9DF88060FF2E0ED02CAC32
:1021500009F1010138F0C3FB139D21461322681DCC
:1021600053F0CFFAFF202E71287052E0DDF84C803A
:102170002CA8C61C09F1040138F04FF931AC3146E6
:10218000102238F082FC0DF180091299224639F0B4
:102190008DFD9DF88040FF2C0BD008F1050009F162
:1021A000010138F050FCFF2088F8044088F8000056
:1021B0002FE005F1200B464608F11804ED6A9BE874
:1021C000000D09F107001CA938F00FFD0B2049464E
:1021D00006F8010B172238F055FC199804F12C0170
:1021E0002062189860621798A0621698E56381E8EB
:1021F000010D11982060109860600F98A0600E98F3
:10220000E06014982061159860611B98A0611A988D
:10221000E06135B038F011BCF0B503AF2DE9000F27
:102220008BB004460220ADF80A0001208DF80800AA
:102230001E462B4888468DF80920039007A837F0E2
:102240000DFF079DDDB3DDE9089BFB20D7F808A053
:10225000CDE904B00020069004A803A9FFF795FA81
:10226000C0B202281AD104A802A9FFF78EFAC0B2A0
:10227000022813D1DDE90530191A02290CD3049A7A
:10228000811C019135F01CFDCDE9070107A83146FD
:10229000022222F095FCB8B1042004E0C0074FF000
:1022A000040018BF0D2001212070617028464946A6
:1022B0000BB0BDE8000FBDE8F04037F00BBF1620B3
:1022C00020700BB038F0B9BB019851460A9007A8AE
:1022D00080E8200A07AB2046424621F0E1F9F0E70A
:1022E00006000500DCB504AF10CB5031009431F08E
:1022F0004DFFDCBD91F8673301F51472012B12BF5D
:1023000091F8561202F58C720121A0B1D0B502AF3E
:102310009388B0F8154112686340D0F811416240CB
:102320001A4390F817315940C90718BF0020002AF6
:1023300018BF0020D0BD00207047D4D4F0B503AF43
:102340002DE9000792B06D4688468146284648210F
:1023500052F0D3FFD8F80C4048262946482C38BF05
:1023600026463046482236F0C8FD0546D8F8080013
:102370008A46214622F0C6F88E424DD802462846AB
:10238000514639F0B0FB022C09D22C482FF06AFEDE
:1023900030462FF059FE2FF0BDFF0A2019E09DF8BE
:1023A0000000441EE5B20E2D12D22046A6F1010A0D
:1023B0001FF08EFF80B282451BD109F101006946F2
:1023C000482253F09EF9C9F84C6089F8004008E0B3
:1023D000072089F80500032089F80400FF2089F808
:1023E0000000D8E9000137F075FE12B0BDE8000723
:1023F000F0BD0C482FF036FE0B480C4CA0470C48A3
:10240000A0470C480C4950F8250051F825102EF033
:10241000BDFD0020A047BEE70B460020314639F045
:10242000CEF800BF99010000120000002120030037
:10243000EB02000028760500F07505009A01000007
:10244000F0B503AF2DE9000F95B01C788046FF2C46
:1024500015D045481D4616468A4693F801B02FF020
:1024600001FE42482FF0DCFD284636F0BBFB032C72
:1024700018BF4FF0080B2FF04DFF192C05D1FF208E
:1024800088F8000015B038F0D8BAB6F858430FA84D
:1024900037F0E4FD0F98002848D0A7F143000094DE
:1024A000C51C0FA90C2238F0F3FAA7F152002946F7
:1024B000C61C0C2238F0E6FA12AD31460C2238F078
:1024C000E7FA02A8294604221FF018FE9DF808002A
:1024D000DDE903549DF81860FF28DDF8149026D13B
:1024E000484631461FF0FBFDE1B380F800B03046AE
:1024F0001FF0EEFDCDE904904046CDE9025402AD57
:10250000009A51462B4621F0CBF898F80000FF289E
:10251000B5D098E85E0028465EC015482FF0A2FDB1
:10252000284636F051FB2FF0F5FEABE716209DF85C
:102530000B1088F80310BDF809109DF81B20A8F8AF
:102540000110BDF81910ADF804108DF8062088F8B8
:102550001060C8E90154C8F80C90A8F8111088F868
:1025600013208DE737F035FF92010000CE02000006
:1025700097010000F0B503AF4DF8048D92B00DF156
:1025800004080D4606461146404644221C4653F0B8
:1025900013F8B8682946009030464246234600F0BA
:1025A00005F812B05DF8048BF0BDD4D4F0B503AFDC
:1025B0002DE9000FADF29C6D189301F1780A179088
:1025C000DCAE91F8C84006F1600B90460D46022C37
:1025D000199132D10DF168092946C822484652F0B6
:1025E000E2FD152028710E2028709DF8685098F89B
:1025F00000000C2D00F2118306F17004DFE815F0E5
:102600000D008C0142012801C9000A01DE010D0301
:102610007402C5020D03AA029700FF2804BF98F8B0
:102620000C10002900F01E87411E0329C0F0B7825C
:10263000002840F0EE8200F056BF0DF50C792946D7
:10264000C8221AAE484652F0AEFD15209DF8301251
:102650002871122028700F2998F8000000F2B48524
:1026600006F16005DFE811F01000BF0301039D04CF
:10267000CD04B0057903DE032004B005A9053005BB
:10268000B005B005E5028603FF2804BF98F80C20CA
:102690000A2A40F09985D8F80800002802F08982BB
:1026A000199D0C22D8F8041095F81901032808BFC9
:1026B0000822DDF860A0DAF8383093F8700393F858
:1026C0007133024485F81A210C7813B1012185F881
:1026D00018110DF59F6858B195F81C0195F81D115A
:1026E00040F0030085F81C0141F0030185F81D113D
:1026F0001AA8514622F00DFD9DF891000DF55C7968
:10270000022807D0600741F1BB829DF890000228A3
:1027100001F0B682DCAC38F0E1FE39F021FB01F0CB
:10272000138238F0CAF88DF8FC5401F0BEBAFF28C5
:1027300004BF98F80C10082940F02E82D8F8082021
:10274000002A02F03682D8F804000478022C81F0C6
:1027500016800DF59F68062A42F22582199A50F8D4
:10276000011FDDF860A0C2F811118188A2F81511CF
:1027700092F8F91082F81741022900F0F786818853
:10278000A2F8F4100068C2F8F00082F8F64000F0F9
:10279000EDBEFF2804BF98F80C10022900F04D860A
:1027A000042800F23D82DFE810F0E406FA01FA01A5
:1027B0000500E4060DF59F600DF59F6B00F1900597
:1027C0001998902200F11801584652F0ECFCDCAE4A
:1027D00009F10101112238F055F90024D8F804005C
:1027E000C5E90004C5E904049DF87003C5E9024485
:1027F000C007C5E9064401F05585DDF860A0721CEC
:10280000B8680021CDE900AB102302908CA8FFF737
:10281000B3F9CAE1FF2804BF98F80C10022940F070
:10282000BB8119980DF59F64B02200F10801204684
:1028300052F0B9FCD8E90123A046DDF860A0B868E1
:102840001B99CDE900A402908CA8FFF795F9AEE1A1
:10285000042800F2E387DFE810F08C060500C207C9
:10286000A2018C069DF86900002801F06F8119997A
:1028700009F118001022D031CDE9001009F1020150
:1028800000F03FBFFF2804BF98F80C10032940F068
:102890008381199D4CA8702238F0D1FADAF8000033
:1028A00005F1980116902022DAE901B9DAF80C60F6
:1028B000C6A852F026FF38F075FB40F09587D8F88F
:1028C00004000DF59F6A169A5B461596D0F809101C
:1028D0001491D0F80110139101781291C17B1191DC
:1028E0001899D0F80550B0F80D0010905046CDE979
:1028F00000965E46FEF7C6FF9DF8F884B8F1FF0F1C
:1029000001F067828CA80AF10101053038F09BF8CC
:102910008DF8348200F0A3BFFF2804BF98F80C1094
:102920000B2940F03981D8E901120DF5467840466F
:1029300037F019FBDDF860A02022DAF82C10BEACCD
:1029400038F0A3F8DAF830104CAE37F072FF0DF51E
:102950009F69214642463346484637F047FA9DF87C
:10296000F804C00700F045879DF8FB0409F1060153
:102970008DF806021222BDF8F9049DF8FC449DF87A
:10298000FD64ADF804027CA852F0BBFE09F118000A
:1029900079A90DF59F6A0CC80CC1007808704CA984
:1029A000504603F0EFFE9DF8F804FF2801F06B821B
:1029B0000A2003258DF8710301F091BAFF2804BFA6
:1029C00098F80C10032940F0E78039F0B0F8DCA843
:1029D00052F0E9FB38F0E6FA40F01487D8F804002A
:1029E0001B9DDBE90E98D0F801100278129505F0D6
:1029F0007F0542EA0122CBF820201692D0F8093058
:102A0000D0F805201C0244EA1264120242EA116165
:102A1000CBF82840CBF82410C5F140021591C17BBA
:102A2000B0F80D00149440EA01404146000240EA2B
:102A3000136A4846CBF82CA0DBE90C6452F0CAFCC0
:102A40001390304621462A4652F0AEFCA5F14002D2
:102A500004464846414652F0A7FC1399402D38BF22
:102A600044EA0100EE49002D08BF3046DCAA61F3BC
:102A70005F00149B02F12001CDE9003ACDE902127A
:102A80000490BEA8DDE9153221F062F8DBE900AC64
:102A9000DDE9BE648CEA0401DBE90289DDE9C035C9
:102AA00089EA050008438AEA060288EA030111431D
:102AB000084341F05F80DBE904230DF59F64DBE907
:102AC0000601CDE90001204603F039FE9DF8F854D7
:102AD000DDF860A0FF2D01F0F584611C4CAC37F0EF
:102AE000FEFE8CA821462EE0FF2804BF98F80C10AB
:102AF000032951D139F01BF8DCA852F054FB38F00F
:102B000051FA40F08486D8F8040004F1100538F03A
:102B100013F80EC5B968E061204602F085F8DDF8CB
:102B200060A0D4E90201D4E900230DF59F64CDE94A
:102B3000000151462046FEF7A5FE39F00DF901F0DF
:102B4000E0818CA8611C053037F07DFF8DF8345290
:102B500000F053BEFF2804BF98F80C1007291BD1C2
:102B600038F020FA40F07886199890F8F900022899
:102B700008D0D8F804000AF1680437F0DDFF0EC46D
:102B8000CAF874000C2000F06BBEFF2804BF98F850
:102B90000C100C2900F0AD85411E032936D28CA8FB
:102BA0001AA938F088FFDDF860A00DF59F689DF840
:102BB0003002FF2800F0E4840DF50C790DF59F60DC
:102BC000C822494652F0EFFA9DF8F8040E2800F0AA
:102BD000E184199D0D2840F0FD8495F8F980B8F145
:102BE000020F00F0F78495F81A0100F003000128A5
:102BF00002BF95F8200100F00300012800F02785AE
:102C000095F8F8C04FF0020800F04EBD002800F023
:102C10006884042804D100F0ACBCFF2840F056843E
:102C200098F80C00042800F0EE830D28B7D000F0CF
:102C3000A0BCFF2804BF98F80C20072A40F0C482EB
:102C400038F0B0F940F09E86199D95F8F9000228F9
:102C500008D0D8F804000AF1680437F06DFF0EC4FC
:102C6000CAF874000F2000F092BEFF2804BF98F845
:102C70000C200B2A40F0A882BEAE09F104012022EC
:102C800037F000FFDDF864B00DF5467940220BF116
:102C9000240A4846514652F034FDD8E901124CACA2
:102CA000204637F060F90DF55C78314622464B46F8
:102CB000404637F09BF89DF87003C00700F06A8625
:102CC0009DF8730308F106018DF8AA001222BDF8E1
:102CD0007103ADF8A800BDF874431AAE06F14500C3
:102CE00052F00FFD06F1570008F1180138F043FDCE
:102CF00006F120004CA937F0A3FE304637F01EFC49
:102D000028465021ADF8AB4052F0A4FC9BF80801D6
:102D1000811E38BF0221DDF860A0C9B2022901F08E
:102D20002F820DF55C79032941F049820F2038F09C
:102D300088FEDAF83820D6AEDCAC38F05CFC9DF8C2
:102D40005853FF2D41F0E483E01D1AA938F01EF816
:102D500009200DF59F6801F0F4BC98F80C10FF28CD
:102D600008BF022900F04D84DDE918A5FF2800F016
:102D7000318276E2FF2804BF98F80C20082A40F040
:102D80002382D8F80820002A01F01387D8F804001D
:102D9000DDE918A50478022C80F03B860DF59F68CC
:102DA000062A41F2008750F8011F0DF55C79C5F83D
:102DB00011118188A5F8151195F8F91085F81741BA
:102DC000022907D08188A5F8F4100068C5F8F00042
:102DD00085F8F64095F822110DF59F605246FEF7F2
:102DE000B7FF00F0A3BFDDE918A5FF2840F0FA8285
:102DF00098F80C100A2900F0DA85012940F0EA81E0
:102E0000D8E90112DCA837F098F99DF87003022880
:102E100040F0CE860A2037F0D8FC01F08BBA00BF14
:102E2000C0FFFF7FFF2804BF98F80C20022A40F063
:102E3000CB81199DDCA8602238F001F89AE850088F
:102E400005F188013022DAF80C901AA852F059FCEA
:102E500038F0A8F840F0F683D8F804000DF598781B
:102E6000224633468D9D016816914168159181680F
:102E700014911899C06813904046CDE900B9FEF747
:102E800031FF9DF830A1BAF1FF0F01F0B1800DF5CF
:102E90009F6208F10101501D904637F0D4FDFF20DC
:102EA0008DF8FCA401F0C8B8FF2804BF98F80C20E6
:102EB000032A40F08981199DDCA8B02237F0BFFFBA
:102EC00038F070F840F075858D98DBE90EA900F0B8
:102ED0007F04DBF83410A4F14002DBF83050159188
:102EE000494614905046D8F80460169552F05CFAA2
:102EF000159980462846224652F056FAC4F14002FF
:102F000015905046494652F065FAB368F568D6F810
:102F100000907268DCA9039120310291402CCDE928
:102F20001253CDE90035159938BF41EA00081698CB
:102F3000002C08BF8046E34838F039FE90461AA8B6
:102F40004A46434620F004FEDBE900C1DBE90223E8
:102F50001AAE1D9870CE69405840084386EA0201B7
:102F600084EA0C021143084340F02B861499DDF8E3
:102F700060A0CBE908980DF59F6813981329CBF84A
:102F800028001298CBF82C0041F0D981DCAB199DB8
:102F90000DF59F60514605F1D002FFF757F800F09C
:102FA00044BDFF2804BF98F80C20022A40F00C8191
:102FB00038F0BDFD1AA852F0F6F837F0F3FF40F0F4
:102FC0004183D8F8040037F0B7FD85E80E00B968F2
:102FD000E86005F1100001F027FED5E90601D5E90A
:102FE0000423CDE90001DCAC38F07EFA38F0B8FEFD
:102FF00040F09086E01D1AA937F0C8FE042000F0CA
:10300000E1BEFF2804BF98F80C20032A40F0DC80C2
:1030100019980DF1680BB02200F10801584652F0E2
:10302000C2F837F0BFFF40F00D83D8F804000BF171
:1030300020028168D0F80CA0D0F80490D0F800806D
:103040000020CDE9001ACDE915214B46CDE9022B30
:1030500042460490C6A820F07BFDD5E902E3DDE9F5
:10306000C646DDE9C802D5E900C15A40714080EA90
:103070000E0011438CEA04021043084340F0AE8571
:1030800005F11003169CC5E908890FCBC5E90A4A6A
:10309000159DCDF800B001AE86E82003CDE9044AC5
:1030A00020F094FD199D044695F80801022841F08E
:1030B0005E8185482EF0D6FF38F0DDFA2FF02AF930
:1030C0000DF59F601AAB37E3FF2804BF98F80C207A
:1030D0000C2A79D1DCA8199C00F11005DCA804F1B8
:1030E0000801502252F05FF8D8E9010105F1280BE0
:1030F0000E902869139068691290A8691190E86988
:103100001090286A1490686A1590686B0F9004F507
:103110008F709BE8000B1691D5E90EA636F059FF8B
:10312000D4F8142120F07F40D4F81111CDF83321C8
:103130004C91D4F80D21D4F80A11CDF86B201A91D6
:10314000CDE908A60A904CA80B901AA80C901398E9
:10315000029012980390119804901098CDE9050BF5
:103160000F98CDE900890790D6A8DCA9DDE91423E2
:1031700020F08AFC1698102806D1D6A90E9823F0C4
:10318000B7F9002800F033854FF00B090325DDF86F
:1031900060A00DF59F68BEA908F10600122252F04A
:1031A000B0FAFF208DF8FD948DF8FC540DF55C7994
:1031B0008DF8F804199D00F0BBBDFF2804BF98F8F6
:1031C0000C20032A00F0A582FF280BD198F80C10E0
:1031D000DDE918A5042924D037F0F7FA0D2900F00D
:1031E00006810BE1DDE918A50539082900F2FA800E
:1031F000DFE811F009003700F800F8009000F8004F
:10320000F800DC00F500012800F0DF8237F0DDFA7D
:10321000022840F0F38040F60340ADF8FC0400F0D3
:103220008ABDD8F808000DF55C79002801F0C1844A
:10323000D8F80400047825482EF014FF601EC0B2B0
:10324000102828BF0824204635F06CFD2FF062F8C6
:1032500003208DF8FD448DF8FC040DF59F6800F007
:103260006ABD032840F0BE80DCAE05F11801902253
:10327000304651F098FF0020D8F80410CBE90C102C
:103280003246CBE910100021CBE90E005346CBE9C2
:103290001200B8689DF8315200901AAC2046FEF733
:1032A0004DFE9DF86860FF2E00F08C830DF59F6841
:1032B000611C08F1050037F0C6FB8DF8FC6400F0D6
:1032C0002FBD00BFC0FFFF7F7D0000003201000066
:1032D0000062050069000000330100009D0100004C
:1032E00068000000A1010000A70100009F0100008C
:1032F0009001000098010000670000008D8F03001E
:10330000A9010000930100009C01000002010000DF
:103310008E010000042865D105F108011AADB02224
:10332000284651F040FFD8F8010008F1210416901A
:103330002022D8F80D002146D8F805B0D8F809A009
:1033400015904CAE37F09EFB5FF87C10204623F0C2
:10335000CFF840B95FF8881006F1100023F0C8F8E4
:10336000002800F0A78429460DF598792031002027
:1033700099E860033346CDE90089CDE902112A4678
:103380000490DCAC204620F0E3FB4CA800F11001D7
:10339000204623F0ADF8002800F09084FF208DF83F
:1033A000F80440F20340ADF8FC044DE1D0B998F8C0
:1033B0000100002800F087835FF8E8002EF05EFE31
:1033C00095F823010DF59F68800700F13A8695F87E
:1033D00022110DF59F605246FEF7BAFC25E3002846
:1033E00000F0E78137F0F1F90138022806D20DF537
:1033F0009F608CA938F05FFB00F098BC15208DF819
:10340000FC0400F098BCD8F80800002801F0D18333
:10341000D8F8040004785FF840012EF023FE601E07
:10342000C0B2102828BF0824204635F07BFC2EF0BF
:1034300071FF8DF8354203209CE037F0B3FD40F07A
:103440008781D8F804108CACA01C37F0CEFB1999FA
:103450000DF59F6838F014F837F033FCDDF860A004
:1034600004207DE118990DF59F60D8E901A921F0AC
:1034700050FE9DF82105022819D00D200DF59F68FA
:103480008DF8F80418984346816A826BDCAC38F0FA
:10349000A8F99DF87003FF2809D037F031FD5FF8D7
:1034A000C4012EF0DFFD37F077FC2EF033FF0DF571
:1034B0009F6051464A4636F040FE9DF8F844022C83
:1034C00040F0528137F042FB0A20B7E2072D08BFD7
:1034D000042800F0C981411E0329FFF460AB0028D5
:1034E00047D10A2D45D198F80100002800F0278126
:1034F0005FF814022EF0C2FDDDF860A00DF59F68A4
:103500000DF55C793DBB0DF59F645146204621F0D9
:10351000AEFD9DF82155FF2D00F0FD86DCAC0DF5CC
:103520009F61292237F0B1FADDF822052146199E64
:1035300029228890BDF82605ADF8240206F1D000B6
:1035400052F0DFF88898C6F8FA00BDF8240286F831
:10355000F950A6F8FE00199991F81D01800700F1B5
:10356000A78291F82201800700F140850D2001F02B
:10357000DFB815208DF83402DDF860A00DF59F68E6
:103580008CA808F10401043090E87C000E207CC176
:103590008DF8F8040DF55C7908F1040109F10400D7
:1035A00027F052F90C2038F04CFA4B46DAF8382064
:1035B0004CAC38F016F938F02AF90AD038F014FB80
:1035C0005FF8E0022EF04EFD484635F0FDFA2EF091
:1035D000A1FE199D0DF59F61284638F06CFA8CAC60
:1035E0002946204635F022FDFF208DF870039DF816
:1035F0003002DCAEFE2818BF2646179D96E81F0055
:10360000D6E3DDE918A537F0CDFC40F0C980D8F845
:1036100004100DF59F6808F1020037F0E6FA0DF589
:103620005C7905F1180109F1060037F0AFFB0120C4
:1036300049468DF8F90408F11200B62252F061F8FB
:10364000062034E337F018FB37F080FA6BE34CAE1A
:1036500005F1D00451463046224621F0AEFC38F048
:10366000D6F810D00DF55C7A96E83E0050463EC084
:103670005FF88C0338F01CFA504605F1D00435F0A1
:10368000A3FA2EF047FE206805F1E00C1690AB4639
:1036900060681590D4E902AE4C469CE86F006FC498
:1036A000DDE915209BF8F8C0CDE9E0AE0DF55C7EB4
:1036B000CDE9DE020EF118018DF871C399E87D00A5
:1036C000F1467DC10B2073468DF8700318988DF874
:1036D000A1838DF8A0C3816A826B4CAC38F081F86D
:1036E00038F095F83FF475AF38F07EFA5FF80404CF
:1036F00068E7199B09F10800D8E90112D033CDE938
:1037000000308CA8DDF860A05346FEF7F1F8FFF713
:103710004CBA199DDCA8B02237F091FB37F042FC7F
:1037200040F04B81D8F8040037F006FAFF90FCA86F
:103730000EC0DCAB0DF59F60DDF860A049E05FF8DE
:1037400050042EF09BFC38F01BFB40F603702BE27C
:103750000520DDF860A08DF83402FF200DF59F688C
:103760008DF83002FFF725BA9DF8FA540DF59F68E1
:10377000DDF860A0280700F15B8103205EE15FF8BF
:103780008C042EF06FFC37F023FD2EF0C3FDDDF826
:1037900060A005200DF59F688DF8340200F0C7BFCA
:1037A00005200DF59F688DF8FC04FF200DF55C7970
:1037B0007DE298F80100002800F092815FF8C804CB
:1037C0002EF05CFC112000F043BC09F108030DF55C
:1037D0009F6005F1D0025146FEF738FC23E140F628
:1037E0000340ADF83402C7E640F60320ADF83402DA
:1037F00035E040F60330ADF83402FF200DF59F6848
:1038000000F096BF38F0BCFA40F60320CCE138F067
:10381000B7FA05208DF83402FFF7C5B99DF86900A5
:1038200000287FF4FDA998F80C000C287FF4F8A973
:1038300037F0B8FB40F0C086D8F804108CACA01C60
:1038400037F0D3F919990DF59F6837F019FE37F065
:1038500038FA032000F0B6BE05208DF83402FF20B0
:103860008DF83002FFF79FB9199C0DF59879B022B9
:1038700004F10801484651F096FC08F121060DF5C7
:10388000467A20225046314651F03BFFD8F80100DD
:103890001690D8F809005FF8C8151490D8F80D00F4
:1038A00015903046D8F8055094F81EB135F066FBF7
:1038B00040B95FF8E4150AF1100035F05FFB00280D
:1038C00000F0FA84CDE912B5C6AB0DF53E780FCB0A
:1038D000119000BAC19008BAC09010BA1091414638
:1038E000BF9018BA0F920E93BE90DCAE30462DF00A
:1038F000D5F90DF59F64002531464FF4B872204686
:10390000CDF8DC54CDF8D854CDF8D454CDF8D054FB
:10391000CDF86856CDF86C56CDF87056CDF8745683
:1039200051F04AFEDCAE21464FF4C07237F041FF41
:1039300009F120045FF83C963046202221468DF89C
:10394000F054C847304621462022C8470DF59F64F1
:10395000304601228DF8F8542146C84720463146AA
:103960004FF4C27251F028FE9DF878A604F5B871A4
:103970001022504635F00EF8002965D000F8015BA2
:103980000139F9E70520199D8DF8FC04FF208DF819
:10399000F80414E040F60330DDF860A0ADF8FC0454
:1039A000FF208DF8F80436F010FF5D46BEE10120DF
:1039B0004EE3052037F0CAF807E137F05DF9DDF88E
:1039C00060A030E00DF59F68E80700F04F8109F135
:1039D000020037F0B1F88BE80E00CBF80C00DBE901
:1039E0000601CDE900015146DBE904231AAC20466B
:1039F000FEF778F99DF86850FF2D40F08D8108F1B1
:103A00000800DCA937F01CFC0020CDF8FC040820DD
:103A100087E15FF814072EF025FB37F0D9FB2EF075
:103A200079FC37F029F90DF59F680DF55C797DE19A
:103A30009DF8FB64102E80F0718206208DF835020F
:103A400003208DF834029BE5A7F13C0600252046B3
:103A500047F83C5C31468DF8785647E90E5547F8F3
:103A6000305C35F0D1FAA7F12C093146484626F0F2
:103A700069FF04F5B076102D09D06019013590F872
:103A8000601190F87021514080F86011F3E7BAF1AD
:103A9000100F40F06D8237F059F8DDE912B50020C3
:103AA000102800F07E8219F8001037F090F9F7E73F
:103AB000DAF83C4004F1080338F065F800F092832E
:103AC00082AD0FC593E35FF8C4072EF0D7FA40F636
:103AD00003700DF59F68ADF8FC040DF55C792AE1E3
:103AE0000DF55C7837F004FC0DF168090D204346B4
:103AF0008DF87003484621F037FA37F0ABFC0BD055
:103B000099E86E0040466EC05FF8040837F0D0FFB9
:103B100037F042F92EF0FEFBE00700F094825FF8E8
:103B200014082EF0ABFADCAC37F0D8FC9DF87053DB
:103B30000DF59F680DF55C79FF2D00F0498536F095
:103B4000BCFE8DF8FC54F6E00120AFE019990DF5AC
:103B50009F6808F10700B022183151F0D2FD09200A
:103B600041468DF830028CA837F088FDDDF860A062
:103B7000FFF722B85FF868089B46169535466646FB
:103B80002EF070FA5046314642464B4634F09EFFC6
:103B9000169B284621465A4634F098FF2EF0BAFB71
:103BA00038F0EEF840F20340ADF83402FEF7FBBF08
:103BB0009DF8721336F009FE0A0700F1B583032061
:103BC000B8E336F0C3FF199D032004218DF8FC04EF
:103BD000FF208DF8FD148DF8F80426E7DDF860A0CD
:103BE00036F0F3FD40F60340ADF8FC04E3E3DDF806
:103BF00064B002260DF168089BF81A119BF8204169
:103C00009BF8080101F0030104F0030481F00101B5
:103C1000022884F0010408BF01262143DDF860A0DA
:103C2000B1FA81F1D5E900234909D5E902050391EB
:103C300051468DE86100404621F01CF99DF868501E
:103C400008F102019DF8699012229DF89160C6ACBE
:103C500036F01BFF022E40F0B083BEA84ECCFF2DE5
:103C60004EC0218801807FF494AADEE308F10800A9
:103C7000DCA937F0E5FA0020CDF8FC04072050E07D
:103C8000DCAC5146204621F0F2F99DF89953FF2D06
:103C900040F0D0830DF5987C94E86E0060466EC0CD
:103CA00008F104009CE83E003EC0FF20199D8DF8FD
:103CB000F8043DE00DF5987999E860031AA800F141
:103CC0007004199890F81E01002804BF82468346AC
:103CD000169908BF0146159A08BF0246C4E9081B99
:103CE00004F13000B968C4E90AA280E86003DCA8E6
:103CF00000F09AFFDDE9DE01DDE9DC23C4E9002301
:103D0000C4E90201CDE90001DCAC37F0EDFB38F08D
:103D100027F852D00DF59F6836F0CFFD8DF8FC5492
:103D2000FF208DF8F8040DF55C79199D9DF8F804D5
:103D3000FF2840F0938108F1040009F1040190E8A4
:103D40007C0012207CC14C46199D8DF8700308F14F
:103D50000400211D26F078FD0C20DAF828108DF8DB
:103D6000F8044346DAF838204CAC37F03AFD37F027
:103D70004EFD09D037F0C4F8DFF8640E37F098FE36
:103D800037F00AF82EF0C6FA1AACDCA9284637F04C
:103D900092FE2046294635F05AF9FF208DF8F804A6
:103DA0009DF86800FE2818BFA046179D98E81F00E0
:103DB0001FC50DF29C6D36F040BEE01D1AA936F00D
:103DC000E5FF0A200DF59F6837F01EFE51F099FCC3
:103DD000A9E7DDE91010702241EA00484CA9DCA8EF
:103DE00051F0E1F9139A28022946149DDDF858B0E4
:103DF00040EA126A1298C4E900B640EA0222280298
:103E000040EA11614FEA082040EA1568159D1392B7
:103E1000C4E9035220221291C4F80890C4E905A114
:103E2000C4F81C80DCAC04F19000C6A951F069FC18
:103E300004F12000129A8DE8110851464346139868
:103E4000CDE9036905951FF0C1FE0446199890F865
:103E50000801022840F01083DFF88C0D2EF002F9E3
:103E600037F009FC2EF056FA0DF59F64DCA9E01D31
:103E700036F08CFF092021468DF830028CA837F0EF
:103E8000FDFBFEF790BE1694D6A800F102080AF1D9
:103E90000401102237F04EF882A84146841C1022FB
:103EA00036F0F3FD0DF508782146102237F042F880
:103EB0000DF55C791899424637F0F8FE37F050FF5F
:103EC00000F02C8399E85E0050465EC0DFF81C0DC0
:103ED0002EF0C8F8504634F077FE2EF01BFA8CA86E
:103EE000DCA90530013113220DF59F6851F009FC62
:103EF000FF208DF834528DF83002DDF860A0FEF717
:103F000056BEE01DDCA936F041FF092021468DF8A0
:103F100030028CA837F0B2FBFEF747BEBDF8FC9428
:103F20009DF8F9845FEA897041BF199991F81C01E5
:103F300040F0020081F81C015FEA895040F13584AD
:103F4000DAF83C30D3E902E1D3E9042341EA030C77
:103F50004EEA020050EA0C0000F01084CDF8F8E4BC
:103F6000CDF8FC14CDF80025CDF8043500F00FBCD9
:103F700016F80A00A7F12C0180F0800006F80A006C
:103F8000404626F0DFFCDDF860A00020DDE912B538
:103F9000102804D018F8001036F019FFF8E70DF5D6
:103FA0009F680DF59F60314635F02EF80FCE00BAB0
:103FB000C19008BAC09010BABF9018BABE90C6A8F7
:103FC00000F11001BEA834F0D9FF0DF1380EDDF874
:103FD00044C000289EE8104200F0768137F0D0FE01
:103FE00040F20340ADF83402FEF7E1BD0B209FE341
:103FF0000DF59F6ADCA90AF1080060220AF1680841
:1040000051F0D1F8169808F10C01C8F800003022E0
:104010001598C8F804001498C8F808001398C8F850
:104020001C90D04681E851080AF188001AA951F085
:1040300068FBCDF8FC5408208DF8F804DDF860A08A
:1040400071E60E2006E0DFF8840B2EF017F8102042
:104050000DF59F680DF55C798DF8F8044C460DF56B
:104060009F69DCA8C822494651F09DF89DF870036D
:1040700012283FF46CAE1AAC11287FF486AE95F886
:10408000F980B8F1020F04D1DFF8500B2DF0F6FFE4
:1040900073E095F81A0100F00300012802BF95F8BB
:1040A000200100F00300012804D095F8F8C04FF07B
:1040B000020831E04CAE05F1D00B514630465A466D
:1040C00020F07BFF37F0A3FB0CD096E83E0048467B
:1040D0003EC0DFF8000B37F0EBFC484634F074FDCF
:1040E0002EF018F9DBF8000005F1E00C16900DF148
:1040F000680EDBF8040014907446DBF80800159095
:10410000DBF80CA0AB469CE86F006FC47446DDE999
:10411000142116989BF8F8C0CDF804252246CDF856
:10412000000509F1180E8DF8F9C4CDF80815CDF881
:104130000CA592E87B008EE87B000B204B468DF8A7
:10414000F80418988DF829858DF828C5816A826B46
:104150004CAE37F083FD37F05AFB0CD096E83E00AA
:1041600048463EC0DFF8700A2DF07CFF484634F028
:104170002BFD2EF0CFF81AAC199D0DF59F6804E6C3
:1041800036F023FB002800F026820A2037F059FC85
:10419000DAF83820D6AEDCAC37F02DFA9DF858535B
:1041A000FF2D40F0B781A01D1AA936F0EFFD0620C3
:1041B0002146ADF8F80408F11200B622C3E208F176
:1041C00007001AA9B0225D4651F09BFA03200DF5B5
:1041D0009F628DF8F804501C41469046B72251F07A
:1041E00090FAA3E50020CDE98400CDE982000DF529
:1041F0009F6682A9304602F061FB37F0ADFD46D1E3
:104200004CA8311D00F10309102237F01FF8D6AE7B
:10421000494636F002F90DF59F6851463246404650
:1042200020F0F5FD37F098FD40F06C812068C10763
:1042300000F073826168000A0DF59F660A0E8DF822
:10424000F6210A0A40EA01607C90ADF8F4217CA9CD
:10425000304602F067FB9DF8F8540DF59F68FF2D7E
:1042600015D1311D484636F0C0FCBEAE494636F089
:10427000D4F80DF59F6451463246204620F0C7FD24
:1042800037F06AFD40F013841999FFF76AB9711C81
:104290004CAE132236F0F6FBC6A81ECE1EC037F079
:1042A00096FB3DE28CA80DF59F61083036F0C8FF03
:1042B0008D940520FFF7D4BADDE9C6CE0DF59F68D1
:1042C000DDE9C894DDF860A04CA8149E90301BF086
:1042D000010104BF0E460D46169A08BF0A46159BFB
:1042E00008BF0B4600F10C0180E86400B022C0E971
:1042F000069408F1070081E808504CA951F001FA32
:10430000082041468DF830028CA80130B72251F0C8
:10431000F8F9FEF74CBC37F067FC49468CA891E8E9
:104320007C0004307CC002E29DF873230F2A00F267
:10433000BB8106208DF8FD040320FFF760B8B86844
:104340004C1C00901AAEDCAA214630465346FDF7BD
:10435000F5FD9DF868500DF55C79FF2D24D108F12D
:104360000800DCA936F06CFFCDF8FC449AE1DFF8D8
:104370004C082DF077FE37F07EF92DF0CBFFDDF8FD
:1043800060A009208DF87003DD9436F0B1FF4CAECB
:10439000DCAC37F030F99DF830510DF59F680DF524
:1043A0005C79FF2D00F0C88108F10500711C36F022
:1043B0004AFB8DF8FC54FF20A3E208F1140C16967A
:1043C0000DF59878BCE84F00C646AEE84F009CF863
:1043D00000008EF80000BDF89600ADF80C02DDF884
:1043E000920082901AA94DCC8C46ACE84D00122266
:1043F0002088ACF800000BF1D2008BF8D1908BF83C
:10440000D05051F07EF9B8E83E000BF1E4003EC018
:1044100016998BF8F91098F8001001708298CBF873
:10442000FA00BDF80C02ABF8FE000C200DF59F68F9
:10443000FEF7BCBE4CA8DCA9292251F062F9DDF8D8
:104440009A03022DC690BDF89E03ADF81C0300F040
:10445000AE834CA9199C292204F1D00051F051F9E6
:10446000C698C4F8FA00BDF81C0384F8F950254634
:10447000A4F8FE000D201AE4DFF868072DF0F2FD25
:1044800037F0F9F82DF046FFDDF860A00920CDF8EF
:10449000FC440DF59F6436F00FFF2346DAF8382010
:1044A000BEAE37F0DBFB9DF8F8520DF59F68FF2D8F
:1044B00000F04D818CA8711C053036F0C4FA8DF8DF
:1044C000345234E14CA8211DC61C35F0A6FFC6AC01
:1044D0003146102236F0D9FA0DF59F665146224634
:1044E000304620F094FC9DF8F8440DF59F68FF2CB1
:1044F00000F039818CA8711C053036F0A4FA8DF8D3
:10450000344214E108F10101C6A836F09CFA05E135
:104510000DF59F6808F10500711CEDE14CA94846B6
:1045200036F08EFA09F12004C6A9202236F0ADFA41
:10453000169812228DF8B303BDF80402ADF8B0034B
:104540009DF806028DF8B20309F145008DF8B463B9
:104550007CA951F0D6F809F1570079A937F00BF989
:104560005846502151F076F819990DF59F6891F849
:104570000801023838BF0220C0B2022800F0C5810D
:10458000DDF860A0032840F0F7810F200DF59F654E
:1045900036F092FE2B46DAF83820D6AE37F05EFBC6
:1045A0009DF85843FF2C40F06782E81DDCA936F0E7
:1045B000EDFB07202946A5E605200DF59F688DF83F
:1045C0003402FF208DF83002DDF860A0FEF7F1BA6A
:1045D000199D012040E506F190001690E44840F254
:1045E000FF18D7F808A04FF0FF39834650462BF04C
:1045F000BFFA044650460E462BF0BAFADD4D0023B2
:10460000A0FB0502E1FB0523A4FB0541A6FB056514
:1046100076184FF00001454152F1000253F10000BD
:1046200024EA080341F10001BBEB030379EB060325
:1046300079EB050379EB0202D8D3169C0022DDF852
:1046400060A004F1100384E8070083E80700082154
:104650008DF87013DA60E260DD9036F049FED6AC7A
:10466000DCAB37F0BEF89DF858530DF55C79FF2DA3
:1046700040F03D81B86800210090DCAC1AAA534696
:1046800020460026FDF75AFC9DF870530DF59F68F3
:10469000FF2D40F02E8108F108001AA936F0D0FD58
:1046A000CDF8FC6407202CE185F8201105F58F7109
:1046B00085F81E0105F58C70BDF874339DF87143C3
:1046C000A5F8223185F8212185F81F4135F08CFCB1
:1046D00085F80801DFF8EC0485F809112DF0C2FC1B
:1046E00036F0D4FE2DF016FEDAF82C104CA836F079
:1046F000A7F9DAF83010DCAE36F09BF80DF1680857
:104700003146404602F03EF836F0A4FE00F07C81CF
:104710000A2003248DF81903A2E105250DF59F68F1
:104720008DF834528CA80530C6A936F08CF9FF20DC
:104730008DF83002FEF73BBAE01D1AA936F026FBD1
:10474000052037F061F950F0DCFFFFF7EEBAA01D4D
:10475000DCA936F01BFB03202146ADF830028CA803
:104760001230B622D3E5129C132C40F08B81F01D41
:10477000DCA936F00BFB09203146C3E50020CDF85B
:104780000405CDF80005CDF8FC04CDF8F804DFF8F9
:1047900040140DF59F6021F0ABFE30B1199991F8EE
:1047A0001D0140F0020081F81D0119980C2180F8CC
:1047B0002051054680F81F8105F58C78A0F82291DC
:1047C00080F8216180F81E4190F81901032808BF84
:1047D0000821DAF8380090F8702390F871338818BF
:1047E00085F81A0105F58F7013B1012188F80010C2
:1047F000414635F0F9FB85F80801DFF8FC0385F840
:1048000009112DF02FFC36F041FE2DF083FD0DF542
:104810009F60012101F046FF37F09EFA3FD19DF8DD
:104820000865DDF80445BDF80905ADF81803314603
:104830009DF80B058DF81A032046DDF8FC94DDF891
:1048400000551DF04CFC36F08BFF40461A4635F003
:1048500064FCC0B2022844D1CDF8F8940DF59F68ED
:10486000BDF818030DF55C79ADF8050551469DF8C6
:104870001A0342468DF8070548468DF80465CDF8C1
:104880000045CDF8FC5420F0C2FA37F069FA5AD14D
:104890000DF59F6801208DF83002FEF78DB99DF867
:1048A00008259DF8FB048DF88023DDF804258DF89C
:1048B0007303BDF8F904DF92DDF800259DF80B15B0
:1048C000ADF87103BDF80905DE92DDF8FC24ADF802
:1048D00030018DF83211DD928DF88313ADF881032C
:1048E0003CE04846294635F0F5FB052536E00DF558
:1048F0009F6808F10500611C36F0A5F8FF208DF8CF
:10490000FC548DF8F804FFF710BADDF860A091F8B8
:104910000901002800F0D0800A200DF59F6536F0CF
:10492000CBFC2B46DAF83820D6AE37F097F99DF855
:104930005843FF2C40F0A080A81DDCA936F026FAD1
:104940000420294609E799E85E0040465EC0AB486E
:104950002DF088FB36F020FA2DF0DCFCDCA98CA8C9
:104960000530013136F06FF88DF83452FEF706BE8F
:10497000FFC5FCFF40420F00B9680BF1100000F0CA
:1049800053F9DBE906010025DBE904238DE8030286
:104990000DF59F60CDE903451FF0DAF8DDF8041549
:1049A0000DF59F68DDF8F824DDF8FC34DDF800052E
:1049B000CBE90201CDE900014046CBE9002301F03B
:1049C0009BFE9DF8F844FF2C65D182A808F10401F4
:1049D000C61C35F022FD88AC3146102236F055F861
:1049E0000DF556795146224637F060F99DF8584347
:1049F000FF2C40F0808008F10700DCA936F0C6F9F2
:104A000002204146FFF783BABEA808F10401861CC4
:104A100035F003FDD6A83146841C102236F035F857
:104A20000DF502792146102236F010FC51460DF5A5
:104A3000467A4A46504620F0EAF99DF81843FF2C82
:104A400040D09AE86E0040466EC05F482DF00AFBE9
:104A500036F0A2F92DF05EFCDDF860A00DF55C7972
:104A6000C6A90DF59F6808F10500013135F0EBFF8F
:104A70008DF8FC44FFF75FB98CA8711C053035F048
:104A8000E2FF4BE08CA8DCA9083036F0D9FB601CB3
:104A90008D9005204CE682AD08F10101132235F01E
:104AA000F7FFD6AE2946701C35F0CDFF2FE0611C14
:104AB000C6A835F0C8FF33E6DAF8000090B3DAF89C
:104AC000041048E008F103004CA935F0B9FF0DF5DA
:104AD0009F64DCA904F1240036F053FE0220414615
:104AE0008DF8F804601C2322A04650F00AFEDDF881
:104AF00060A0FEF79ABF99E86E0040466EC03D4840
:104B00002DF0B0FA36F048F92DF004FCD6AE8CA8A2
:104B1000711C053035F097FF0DF59F68FF208DF86B
:104B2000344205E6BE68264C314DD6F800014028D7
:104B300007D3304600211DF019FFD6F800014028A8
:104B400039D2421C56F82000C6F80021A0FB04010F
:104B5000A8421046EBD80BF1400000260BF13002C2
:104B6000CDF8FC14C0E900160DF59F63C0E902669C
:104B70000820C2E90016C2E9026636F09DFBDAF8A9
:104B80003820D6AD284620F0EFF99DF858438CA880
:104B9000FF2C05D10830DCA936F052FB8D9678E762
:104BA0000530691C6BE7012007212CF0C6FF2DF0B2
:104BB0004DF935F00EFC40212CF0C7FF7F000000BE
:104BC00040420F0080000000A50100009401000099
:104BD00000620500A80100009E010000AA0100007B
:104BE000A00100007E0000007C000000A601000083
:104BF0007F3DF1FFA2010000810000009B01000049
:104C0000D0B502AF92B0BC688DF81020FF228DF8AD
:104C10000420CDE902343A69FB68009201AAFDF74D
:104C2000C5FC12B0D0BDD4D4F0B503AF2DE9FF0B55
:104C300000260D468046E946CDE90266CDE90066CC
:104C40000F2E1DD8D5F80041402C07D3284600214F
:104C50001DF08CFED5F80041412C29D23046494642
:104C6000102220F080FA02460B4605EB8400C4F1C6
:104C700040012EF096FE2044C5F800010E44DFE707
:104C800004A899E81E001EC004AB35F0E5FF1FBF65
:104C9000A8E80F0008B0BDE8000BF0BD07482DF0F4
:104CA000E1F904A834F0B4F82DF034FB2DF090FABB
:104CB0002046402140222CF040FF00BFB001000000
:104CC000D0B502AF0F4AD269BFF35F8FA2B152686D
:104CD000012301441360002388420AD0D2F8004126
:104CE000002CFBD0C2F80031D2F8084500F8014B87
:104CF000F2E701205060D0BD03482DF0BFF92DF040
:104D000067FA00BFD4E203205A010000D0B502AF19
:104D100004460A482DF084F92078FF2806D036F0A2
:104D20003EF82046BDE8D04033F04EBF36F02FF9B4
:104D30006068BDE8D0402EF041BA00BFCB02000051
:104D4000D0B502AF04460A482DF06AF92078012850
:104D500006D136F024F86068BDE8D0402EF02EBAB7
:104D600036F015F96078BDE8D0402CF055B900BF99
:104D7000CD010000D0B502AF044604482DF050F933
:104D800003492046BDE8D0402DF090B91000000046
:104D900068660500D0B502AF044610482DF040F912
:104DA0002068023838BF0020DFE800F00210090B4D
:104DB00036F0EDF82046BDE8D0402FF00DBE0220C1
:104DC00000E00320BDE8D0402DF066B935F0E7FFE4
:104DD0002079BDE8D0402FF099BD00BFA2020000AD
:104DE000D0B502AF044604482DF01AF92046BDE8BC
:104DF000D04032F015B900BF95020000D0B502AF27
:104E000004460D482DF00CF921780C48DFE801F03C
:104E10000F030A0C050E0D4809E004202DF03CF9A3
:104E2000601C04E0084802E0064800E004480078FE
:104E3000BDE8D0402DF030B9A0020000027005009E
:104E40000575050018730500177305001673050036
:104E5000D0B502AF044604482DF0E2F82046BDE884
:104E6000D0402AF0ADBF00BF12000000D0B502AFA5
:104E700004460A482DF0D4F82088012809D135F0DD
:104E80008EFF07482DF0CCF86088BDE8D0402CF0AC
:104E90006FB80020BDE8D0402DF0FEB80E00000035
:104EA000CB010000D0B502AF044604482DF0B8F89D
:104EB0002088BDE8D0402CF05BB800BFCB010000DB
:104EC000D0B502AF044604482DF0AAF82046BDE84C
:104ED000D04032F083BA00BFB9020000D0B502AFB3
:104EE000044604482DF09CF82078BDE8D0402DF011
:104EF000D3B800BF13000000F0B503AF4DF804BDF8
:104F0000856804686DB14268C66804F10800531BE7
:104F100000EB4211B21A00EB431052014FF02EFD8C
:104F200000E0C668701B206035F05CBE80B56F463F
:104F300018B1BDE8804035F0CDB880BD80B56F4672
:104F4000C24312061CBFBDE8804001F049B980BDD4
:104F50000168426C8A429EBF00210160704780B5A3
:104F60006F4610460A462CF0E8FD0168426B8A4203
:104F70009EBF00210160704780B56F4610460A460B
:104F80002CF0DBFDD0B502AF044602688068211D1D
:104F900020F0E9F800202060D0BDD4D4F0B503AFF4
:104FA0004DF804BD0A460646D0E900011EF0BCFBE0
:104FB000054606F576700C4632F028FF0E4695F849
:104FC0005E13A1B1013985F85E13090604BF95F897
:104FD0005C13042903D035F0E5FE35F099B91030A3
:104FE00041F20131A5F85C132DF0D4FCF3E702483F
:104FF0002DF044F82DF0ECF8B7010000B0B502AF89
:1050000045684DB10289006836F046FB20B10C4678
:1050100035F060FE35F071FDB0BDF0B503AF4DF871
:10502000048D044601790068FFF7B8FF41F2901043
:105030002618215875688D4208D1307AC00705D1ED
:1050400000214FF00408042000250FE041F29C10DD
:1050500004EB000801EB81008D4208EB800091BF5A
:10506000C1F10101691A00254FF0040801F0F4F8BC
:105070004046294601F0F0F8316A11B1706AC968FA
:105080008847B16A11B1F06AC968884704F108001D
:105090005DF8048BBDE8F04000F0B0B8D0B502AFC9
:1050A0001EF049FC68B10C4690F86F1300220129EC
:1050B00080F86F2304BF00F51E702DF06BFC35F0F7
:1050C0001CFDD0BD80B56F4600F5BD60BDE88040D9
:1050D0001BF021B980B56F4600F5BA60BDE880408D
:1050E0001BF019B980B56F46BDE8804000F000B8EC
:1050F00080B56F46D0E90012114306BF90F85010FA
:10510000032980BD5830BDE8804000F0AFBBD0B56A
:1051100002AF044690F83B0003280FD0042805D0C6
:1051200005280ED1D4E91101FFF700FF94F83A00E9
:10513000012804BFD4E9080134F0CCFF002084F832
:105140003A00D0BDD0B502AF044690F85005032810
:1051500004BF04F59F60FFF7DAFF94F8A702033855
:1051600004281AD8DFE800F003150D10080004F534
:10517000307000F0CFFF10E004F52A7000F0F8FC6A
:105180000BE004F52A7006E004F5327000F028FC0C
:1051900003E004F5307000F004FC94F822000428C9
:1051A00006D0032818BFD0BD04F1280000F023FC6E
:1051B00007CCBDE8D04000F097B980B56F46C0B2CB
:1051C000BDE880404DF050B8D0B502AF044600684D
:1051D00048B90020207336F0E7FD201D2DF0DAFBE2
:1051E00035F08BFCD0BD04482CF03CFF32F0FCFDC8
:1051F0002DF090F82CF0ECFF43010000D0B502AF89
:10520000044610301EF020F941F27C00204431F0B9
:1052100054FE41F288002044BDE8D04031F04DBE3C
:1052200080B56F4690F87510042918BF80BDD0E98D
:105230000010C968BDE880400847D4D4F0B503AF7A
:105240002DE9000F89B0824623480068C0053ED191
:1052500035F081FA35F059FB35F08BFB31D3E94657
:10526000594648461EF029F936F07EFA04D0411E10
:1052700068462AF081FD40B105AC35F0BCFA35F046
:10528000F1FF10B135F0B0FEF9E700206C46D5E92A
:105290000212914202D12A7CD2070CD036F0F9FCDE
:1052A00009D1204659462EF0DDFD9DF80000022868
:1052B0000BD00120EBE7C0071CBF05F160002EF00A
:1052C00054FE35F00DF835F0B2B82CF0BFFD0348B0
:1052D0002CF0D4FE2CF07CFF04ED00E05C0100001B
:1052E000F0B503AF2DE9000F89B082462848006869
:1052F000C00548D135F02FFA0546D0E90046D0F870
:10530000840005F1080B88460138C5F8840058462A
:105310001AF0A8FF35F02DFB2FD3E9465946484631
:105320001EF0E0F836F020FA04D0411E68462AF05C
:1053300023FD40B105AC35F05EFA35F093FF10B1B6
:1053400035F052FEF9E700206C46D5E90212914291
:1053500002D12A7CD2070AD036F09BFC07D1204626
:1053600059462EF0BBFD009858B10120EDE7C0076B
:105370001CBF05F178002EF057FE34F0B1FF35F078
:1053800056B82CF063FD03482CF078FE2CF020FF7B
:1053900004ED00E05C010000F0B503AF2DE9000F63
:1053A00089B0824626480068C00544D135F0D3F95B
:1053B0000546D0E9004B806B05F140080E460138E8
:1053C000A86340461AF05CFF34F0F7FF31D3E9469A
:1053D000414648461EF0B6F836F0C6F904D0411EE4
:1053E00068462AF0DAFC48B135F04DF920461FF046
:1053F000D3FC10B135F0B9FDF8E756460021D5E9E8
:105400001002801A18BF012095F848201043C007E9
:1054100009D0E86C38B940461EF0B2F801210028E6
:10542000EDD12CF013FDC8071CBF05F12C002EF0A8
:10543000FBFD34F073BF03482CF020FE2CF0C8FEB7
:1054400004ED00E05C010000F0B503AF2DE9000FB2
:1054500089B0824622480068C0053CD135F07BF90E
:1054600035F047FA34F0A9FF31D3E94641464846C2
:105470001EF098F836F078F904D0411E68462AF0FC
:105480007BFC40B135F0FFF835F0ECFE10B135F0A3
:10549000ABFDF9E7564600206C46D5E91412891A8F
:1054A00018BF012195F858201143C90709D0296E6A
:1054B00039B9204641461EF08AF8009848B10120CB
:1054C000EBE7C0071CBF05F13C002EF0ADFD34F04A
:1054D00025BF2CF0BBFC03482CF0D0FD2CF078FE4F
:1054E00004ED00E05C010000F0B503AF2DE9000F12
:1054F00089B0824625480068C00542D135F02BF9B5
:105500000546D0E9004B006E05F168080E460138EB
:10551000286640461AF0C2FE34F04FFF2FD3E9460A
:1055200036F021F836F020F904D0411E68462AF002
:1055300023FC40B135F0A7F835F094FE10B135F0FA
:1055400053FDF9E756460020D5E91A12891A18BF0B
:10555000012195F870201143C9070AD0A96F41B9FC
:1055600040461EF060F8C1B201200229ECD12CF0B7
:105570006DFCC0071CBF05F154002EF055FD34F042
:10558000CDBE03482CF07AFD2CF022FE04ED00E0A5
:105590005C010000F0B503AF2DE9000F89B0824631
:1055A00021480068C0053AD135F0D5F835F0A1F9A9
:1055B00034F003FF2FD3E94635F0D5FF36F0D4F8A9
:1055C00004D0411E68462AF0D7FB40B135F05BF8A5
:1055D00035F048FE10B135F007FDF9E756460020DA
:1055E0006C46D5E91412891A18BF012195F8582084
:1055F0001143C90709D0296E39B9204641462EF01A
:10560000E5FC009848B10120EBE7C0071CBF05F19D
:1056100034002EF0AAFC34F081BE2CF017FC0348B5
:105620002CF02CFD2CF0D4FD04ED00E05C0100001A
:10563000F0B503AF2DE9000F89B08246224800681B
:10564000C0053CD135F087F835F05FF935F091F9B8
:105650002FD3E946594648461DF0FBFF36F084F843
:1056600004D0411E68462AF087FB40B105AC35F0F6
:10567000C2F835F0F7FD10B135F0B6FCF9E70020BF
:105680006C46D5E90212914202D12A7CD2070AD097
:1056900036F0FFFA07D1204659461DF0EFFF00987B
:1056A00058B10120EDE7C0071CBF05F160002EF0E6
:1056B0005CFC34F015FE34F0BABE2CF0C7FB034896
:1056C0002CF0DCFC2CF084FD04ED00E05C0100001B
:1056D00080B56F4609490968C90509D11EF049FB23
:1056E000D0F8E820013AC0F8E82035F002FA80BD91
:1056F00003482CF0C3FC2CF06BFD00BF04ED00E070
:105700005C01000080B56F4609490968C90509D1E7
:105710001EF02FFBD0F8F020013AC0F8F02035F051
:10572000E8F980BD03482CF0A9FC2CF051FD00BF26
:1057300004ED00E05C01000080B56F4690F8881031
:10574000032918BF80BD2C30BDE8804000F024BD87
:1057500080B56F4690F8A610032918BF80BD1C3095
:10576000BDE8804000F063B880B56F4690F8EC105B
:10577000032918BF80BD1830BDE8804000F00CB888
:1057800080B56F4690F8F810032918BF80BD24300B
:10579000BDE8804000F000B880B56F4690F8441036
:1057A000032908D0042918BF052909D14830BDE8CC
:1057B000804000F0F1BC4830BDE88040FFF7BCBF3E
:1057C00080BD80B56F46817F0339012988BF80BDC8
:1057D0002430BDE8804000F02AB8D4D480B56F46AC
:1057E00090F823100339062988BF80BDDFE801F057
:1057F0000B10060415041A0028300FE02430BDE811
:10580000804000F09DB92830BDE8804000F08DB99F
:105810002430BDE8804000F037BB2430BDE8804034
:1058200000F077B92430BDE8804000F05AB9D0B517
:1058300002AF044690F82700042818BFD0BD04F139
:105840003C0000F030FCE06A228ED0E90001BDE8A7
:10585000D040FFF723BC80B56F46417C042918BFB8
:1058600080BD4068BDE88040FFF7AEBCD0B502AF58
:10587000044690F88C03032818BFD0BD04F53A7095
:1058800000F098FB2046BDE8D04000F075BBD0B5D5
:1058900002AF044690F83500032809D0042803D04D
:1058A000052818BFD0BD03E004F1380000F0B0FBBC
:1058B000002084F83400D0BDD0B502AF044690F883
:1058C0003500032804D0042807D0052818BFD0BD10
:1058D00004F1380000F00AF803E004F1380000F0A9
:1058E00097FB002084F83400D0BDD4D480B56F4637
:1058F00090F85010063907290AD8DFE801F00A0F9E
:105900000904091409045430BDE8804000F0D3B8FC
:1059100080BD5430BDE88040FFF732BF5430BDE851
:10592000804000F0B6B85430BDE8804000F091BB34
:1059300080B56F4690F82210052918BF80BD2C3025
:10594000BDE8804000F094BA80B56F4690F8FC1036
:10595000032918BF80BD1030BDE8804000F00BB8AF
:1059600080B56F4690F8E010032918BF80BDBDE8F0
:10597000804000F00BB880B56F4690F8DE10032928
:1059800018BF80BDBDE8804000F01EBC80B56F46EA
:1059900090F8D610032918BF80BDBDE8804000F004
:1059A00013BC80B56F4690F82010032907D0042956
:1059B00018BF80BD2830BDE8804000F0B7BB38304C
:1059C000BDE88040FFF7C0BF80B56F4690F8C010BB
:1059D000032918BF80BD1030BDE8804000F0E8BB4F
:1059E00080B56F4690F8E210032918BF80BDBDE86E
:1059F000804000F083BB80B56F4690F834100329D7
:105A000018BF80BD3830BDE88040FFF791BFD0B5EA
:105A100002AF0446007A032804D0042804D1606849
:105A2000FFF756FE00206072D0BDD0B502AF04462D
:105A3000C07A032804D0042804D12068FFF762FE4E
:105A400000202073D0BDD4D4D0B502AF04464FF4AB
:105A50008F50205C033803281AD8DFE800F00214C6
:105A6000090F41F2E8102044BDE8D04000F069BBC6
:105A700041F2E8102044FFF7BEFF04E041F2E810D5
:105A80002044FFF75FFB2046BDE8D040FFF7C5BAD2
:105A9000D0BD80B56F46017C032907D0042918BF0B
:105AA00080BD1830BDE8804000F076BB1430BDE802
:105AB000804000F000B880B56F46017C042918BF13
:105AC00080BD1830BDE8804000F066BB80B56F46F1
:105AD000017F042918BF80BD2030BDE8804000F060
:105AE0000CB880B56F4690F85810032918BF80BDD8
:105AF0000430BDE8804000F043BB80B56F4690F8AD
:105B00005C10032918BF80BD0830BDE8804000F05C
:105B100037BB80B56F4690F8EC11032918BF80BDE4
:105B20002030BDE88040FFF7B2BE80B56F46017EF1
:105B3000032918BF80BD1C30BDE8804000F09CBA2E
:105B400080B56F4690F8E011032918BF80BD14306E
:105B5000BDE88040FFF79BBE80B56F4690F82410EB
:105B6000032938BF80BD2830BDE88040FFF74FBF14
:105B7000B0B502AF90F8F020062A0ED804460820EF
:105B800004212546DFE802F0350909040E0A040065
:105B900004F1F80000F036F804E0B0BD04F1F800BC
:105BA000FFF7DAFF04F1E00207CAFFF79DFC04F1FA
:105BB000D00207CAFFF794FB04F1C00207CAFFF73F
:105BC00043FC04F1B00207CAFFF7E6FB04F1A002B0
:105BD00007CAFFF733FB04F1900207CAFFF7DAFCAC
:105BE00004F1800207CAFFF723FD04F140054820B5
:105BF00044212258204443686058816A2868BDE8DF
:105C0000B040084780B56F4690F8F410032918BFDC
:105C100080BD0C30BDE8804000F0A6BA80B56F466C
:105C2000017C03290ED0042907D0052918BF80BDA7
:105C30001830BDE8804000F00AB81830BDE8804058
:105C400000F0A5B82030BDE8804000F0C7B880B5AE
:105C50006F4690F82810032907D0042918BF80BD8B
:105C60003030BDE8804000F092B83030BDE8804070
:105C700000F0B4B880B56F4690F849100339072991
:105C800088BF80BDDFE801F00D0408120408060695
:105C900050300CE0503005E05030BDE88040FFF758
:105CA000D6BF6030BDE8804000F098B85830BDE8FD
:105CB000804000F06CB8D4D4D0B502AF044690F860
:105CC00007010338082820D8DFE800F0050B050B92
:105CD000100808051A0004F58C7009E004F58870B6
:105CE00001E004F58C7000F052F803E004F58870D0
:105CF00000F074F804F16000BDE8D040FFF728B967
:105D000004F59C7000F050F8F4E7D0BD80B56F4604
:105D1000017C032907D0042918BF80BD1830BDE8D5
:105D2000804000F005B81830BDE8804000F023B88E
:105D300080B56F4690F830100339052988BF80BDC3
:105D4000DFE801F00A030F030514403000E03830AB
:105D5000BDE8804000F028B83830BDE88040FFF74B
:105D6000ABBF3830BDE88040FFF784BF4030BDE8AE
:105D7000804000F033B880B56F4690F8CF13032908
:105D800018BF80BD2030BDE88040FFF7D1BF80B58F
:105D90006F46017C052918BF032904D11830BDE8DE
:105DA000804000F01BB880BD80B56F4690F823108E
:105DB00003290ED0042907D0052918BF80BD28303B
:105DC000BDE88040FFF756BF2830BDE88040FFF7B0
:105DD000DEBF3030BDE8804000F000B880B56F46CF
:105DE000017C032918BF80BD1830BDE88040FFF753
:105DF0001CBED0B502AF044690F82000042806D19E
:105E0000E0690078FFF7D9F9002084F82200D0BDBE
:105E100080B56F4690F84010032918BF80BD0C3044
:105E2000BDE88040FFF7E5BF80B56F4690F84410AD
:105E3000032918BF80BD1030BDE88040FFF7D9BFEF
:105E400080B56F46017B042918BF80BD8068BDE81E
:105E50008040FFF7B9B980B56F4690F8A8100329C4
:105E600098BF80BDD0F89000BDE88040FFF7ACB986
:105E700080B56F4690F8B210032918BF80BD083076
:105E8000BDE88040FFF764BC80B56F4690F8D8113C
:105E9000032918BF80BD0C30BDE88040FFF7F7BC78
:105EA00080B56F4690F80012032918BF80BD1030EE
:105EB000BDE88040FFF700BD80B56F4690F8E01167
:105EC000032918BF80BD0430BDE88040FFF7DCBF68
:105ED00080B56F4690F820100339C9B2032988BFF6
:105EE00080BD044A52F821100844BDE88040FFF705
:105EF000D7BF00BFB061050080B56F4690F8201095
:105F00000339C9B2042988BF80BD044A52F8211060
:105F10000844BDE88040FFF7C3BF00BF60760500BE
:105F200080B56F4690F858110339042988BF80BDA9
:105F3000DFE801F0031B0F15090000F5AE70BDE8A6
:105F40008040FFF7B9BF00F5B070BDE88040FFF7B3
:105F5000BFBF00F5B070BDE88040FFF7CDBF00F5D2
:105F6000AE70BDE88040FFF79BBF00F5AE70BDE8A6
:105F70008040FFF7B6BDD4D480B56F46817C0E3922
:105F80000B2911D8DFE801F00610101110101010C5
:105F9000060B100B1830BDE88040FFF75CBF1430D3
:105FA000BDE88040FFF74CBF80BD1430BDE88040A5
:105FB000FFF707BCD0B502AF044690F831000528C2
:105FC00009D006280ED104F1480000F06CF8A06B4F
:105FD000A28F34F0B7FAD4E9000134F07BF8002046
:105FE00084F83000D0BD80B56F4690F82D1041B1D7
:105FF000032918BF80BDD0E90601BDE88040FEF747
:1060000095BFD0E90001BDE8804034F063B8D4D436
:1060100080B56F4690F82C100339052918D8DFE8B1
:1060200001F00317170D08123030BDE88040FFF76C
:106030004DBD3030BDE88040FFF73DBD3030BDE89C
:106040008040FFF75ABD3030BDE8804000F001B815
:1060500080BD80B56F4690F86010052907D00629ED
:1060600018BF80BD6430BDE88040FFF746BD743086
:10607000BDE88040FFF778BBD0B502AF044690F88A
:106080003D00092807D80121814011F46E7F03D01B
:10609000002084F83C00D0BD0628FCD104F140006B
:1060A000FFF7B6FFF4E780B56F4690F82510042996
:1060B00018BF80BD2830BDE88040FEF79FBF80B587
:1060C0006F4690F8441039B1032918BF80BD1430D1
:1060D000BDE88040FFF787BFD0E90101BDE88040FF
:1060E00033F0F8BF80B56F4690F89810032918BFB9
:1060F00080BD5030BDE88040FFF7E1BF80B56F46FE
:1061000090F8CE10032918BF80BD0830BDE880404C
:1061100000F05AB880B56F4690F8B011032918BF47
:1061200080BDE030BDE8804000F04EB880B56F46DD
:1061300090F8F010032918BF80BDBDE88040FFF73C
:106140000FBCD0B502AF044690F82900032803D055
:10615000042818BFD0BD03E004F12C00FFF7AFFF07
:10616000002084F82800D0BD80B56F4690F8E41078
:10617000032918BF80BD2030BDE88040FFF724BC54
:1061800080B56F4690F85010032918BF80BD0C30C1
:10619000BDE88040FFF73CBE80B56F4690F85810D0
:1061A000032918BF80BD1030BDE88040FFF73CBE1A
:1061B00080B56F4690F8AC10032918BF80BD103031
:1061C000BDE88040FFF78EBF80B56F4690F8201085
:1061D000032918BF80BD2430BDE88040FFF782BF8F
:1061E00080B56F46C0B2072801D1C80700D080BD76
:1061F0000248BDE880402BF041BF00BF8F01000086
:1062000080B56F4680BDB0B502AF051D0C4634B1F8
:1062100055E90101FEF78AFE013C1035F7E7B0BDF4
:10622000B0B502AF051D0C4634B155E9010133F09C
:1062300051FF013C1035F7E7B0BDB0B502AF00F13A
:106240003A050C463CB115F83A0C15F8401BFFF71F
:10625000C7FF013CF6E7B0BDB0B502AF051D0C4667
:106260002CB1F5E8050133F035FF013CF8E7B0BD8E
:1062700080B56F462BF086F9F0B503AF2DE9F80F26
:106280000646B0F80A9090F8098025480068C005D5
:1062900040D125481DF06DFD0546007C8A46012849
:1062A00004D105F1080101A81DF031F9D5F8BC4071
:1062B0005CB3287C20B1B8F1FF0F26D02BF0C6FDCF
:1062C000D5F80CB03146CDF80090092205EB0B193A
:1062D00009F114004FF015FA0098A9F81E000BF10F
:1062E0000100B0F10801C9F8204089F81D8018BFED
:1062F0000146A868E960884204BF0120287434F090
:1063000054F805F194002DF030FE34F0D2FB05B0C6
:1063100034F093BB03482BF0B1FE2BF059FF00BFC4
:1063200004ED00E05C01000050DC0320F0B503AF99
:106330004DF804BD06461A480068C00529D11A4820
:106340001DF017FD054690F870000C46012804BFAB
:1063500005F168001DF067F9286EC0B195F870105E
:10636000E1B9D5E91A12002A05EBC203986783F850
:10637000746018BF0132EA66914204BF012085F8BB
:10638000700034F012F805F108001AF097FD33F0B0
:10639000BFBF04482BF072FE2BF01AFF2BF056FD06
:1063A00004ED00E05C01000098DE0320BFB506AFFD
:1063B0000168DFE801F0041F191B17252C1DD0E927
:1063C0000101CDE9010101A8039028482BF04AFE04
:1063D00027482BF025FE274903A82BF067FE2BF05A
:1063E00099FFBFBD1E4806E01E4804E0174802E0C2
:1063F000174800E01C4804B0BDE8B0402BF03EBE9A
:10640000446816482BF02EFE34F059FE19E0D0E90E
:10641000015410482BF026FE0F482BF001FEDFE858
:1064200005F0020D0406002009E0022007E0032029
:106430002BF032FE20462BF0B1FE02E001202BF0C3
:106440002BFEBDE8BF402BF065BF00BF7901000007
:106450006D0100006F010000C70200006001000034
:106460005F01000075010000760100006701000077
:106470001000000078660500F0B503AF2DE9000FAD
:106480008DB093F813901C4693F814801546D3E909
:1064900002BA0E46069091F8870001281ED100210D
:1064A000D6F8D8008DF82D104FF44071ADF82910B2
:1064B0000B218DF8280030468DF82C9006238DF89E
:1064C0002B800AAA2CF022FCD6E905100538884258
:1064D00080F0C68031690A5C01320A54CDF814B0EC
:1064E000D6F8D8B0BBF1080F80F0BC800BF10100EA
:1064F000C6F8D80006EB4B004FF48071A0F8DC1012
:106500003068012840F0B88070687169884280F076
:10651000A7803169B2698DF82C804FF003080B5CBD
:106520008DF82D9001330B54111D01208DF82B8017
:106530000723C6E9020100208DF82E000421ADF8E2
:10654000290030468DF828B00AAA2CF0DFFB222063
:106550008DF82DA08DF82C0021214F4807230A909B
:106560004FEA1A20CDF80CA002908DF82E000AAA4E
:1065700030462CF0CBFB06F1F00094F812A0049406
:10658000B4F810902CF038F901287AD08DF82480D6
:106590000DF11C08D6F8EC00079041F0800008F1DE
:1065A00004018DF822003046BC688DF823A0ADF8B8
:1065B00020902CF0E1FBE4B106F1F2002CF01CF984
:1065C000012861D003208DF82FA08DF8300082467D
:1065D000D6F8EC00ADF82C908DF82E100A900AA891
:1065E000011D30462CF0C8FBDDF82C900A98019074
:1065F00001E04FF0FF0A06F1500206F1480307CA16
:106600002CF066FC029805F1200468772220E876D9
:106610004FF48070A5F819002048039AC5F81500BA
:106620000498059BD0E900012A77C5E900321C4A8D
:10663000C5E9024030462961294685F814B01DF0AD
:10664000C1F9069D0198C5E90309284685F814A0FB
:1066500098E80E000EC0AC610DB0BDE8000FF0BDB3
:106660002BF073FA0A482BF0FDFC08202BF0ECFC11
:106670002BF050FE2BF0ACFD06482BF0FFFC2BF06E
:10668000A7FD18202BF0EFFB19202BF0ECFB00BF2F
:106690004E0100005001000010010001092110010D
:1066A000805C0500F0B503AF4DF8048D8EB0054653
:1066B00008A8884633F0D2FC0898C0B1A7F137008B
:1066C00008A9C61C0C2234F0DDF9A7F146003146BA
:1066D000C41C0C2234F0D9F90BAE21460C2234F044
:1066E000D1F92846314642461BF008FD01E016204C
:1066F00028700EB034F012BBF0B503AF2DE9FE0FD9
:10670000044602A8022199469046FFF7CBFF35F0D8
:1067100032FA02D033F045FD0DE09DF818A0059E39
:1067200033F01CFE34F0F6FB34F0F2FF02AA2DF039
:1067300029F935F0A0FA84F800B033F07CBEF0B54A
:1067400003AF2DE9FE0F044602A8032199469046A7
:10675000FFF7A8FF35F00FFA02D033F022FD0DE06D
:106760009DF818A0059E33F0F9FD34F0D3FB34F00A
:10677000CFFF02AA2DF006F935F07DFA84F800B0BB
:1067800033F059BEF0B503AF2DE9000F97B001AE5D
:10679000044620220D4634F075F905F1200109ADBB
:1067A000202234F075F930461AF007FA28461AF01C
:1067B00004FA12A80B21FFF775FF9DF848B0BBF152
:1067C000FF0F1BD09DF84B00E070BDF849009DF80D
:1067D0005B10DDE91365A4F80100BDF85900159AB6
:1067E0009DF85830ADF844008DF846102374C4E984
:1067F0000165E260A4F81100E17427E09DF858807B
:10680000DDF85490BDF859009DF85B10DDE9135296
:10681000ADF84400A4F8110048468DF8461035F054
:1068200059F882460E4620205146324632F065FB2A
:1068300001AA35F096F9202040215246334631F026
:106840003FFA09AA35F08DF935F00EFA84F800B058
:1068500017B034F0F2B8F0B503AF2DE9FE0F0446DF
:1068600002A80C211E469246FFF71CFF35F083F963
:1068700002D033F096FC1DE09DF81880DDF81490EE
:1068800033F06CFD48468DF8061035F023F80246CB
:10689000F8680B460590B8681146049010201A4617
:1068A000CDE902A632F029FB02AA10232DF06AF8E6
:1068B00035F0DAF984F800B033F0BDBDF0B503AFC0
:1068C0002DE9FE0F044602A888460721FFF7EAFEDD
:1068D0009DF808A0BAF1FF0F02D033F062FC1DE072
:1068E0009DF81860DDF81490BDF819009DF81B1094
:1068F000ADF80400A4F8110048468DF80610E174C4
:106900003146DDE9035B1BF0EAFB424610232DF024
:1069100039F82674C4E9015BC4F80C9084F800A02F
:1069200033F089BDF0B503AF2DE9FF07044603A896
:106930000D460821FFF7B6FE9DF80C00FF281ED07B
:106940009DF80F10E170BDF80D109DF81F20DDE9D6
:106950000463A4F80110BDF81D10DDF818C09DF8FF
:106960001C50ADF808108DF80A202574C4E90163A5
:10697000C4F80CC0A4F81110E27420702EE09DF849
:106980001C80069EBDF81D00ADF8040041469DF830
:106990001F008DF806003046DDE9049A1BF09FFBCE
:1069A000F9B10246A8790B46002818BF01201070E3
:1069B0000120072131F084F92A4606232CF0E2FF5A
:1069C000FF2084F810802070BDF80400A4F81100A6
:1069D0009DF80600C4E9019AE660E07408B034F05E
:1069E000B4B933F0F6FCF0B503AF4DF8048DD0E93F
:1069F00000234FF0000CD0E908568046AA1A76EB27
:106A0000030238BF4FF0010C00F120020223BCF159
:106A1000000F0CD0994217D0D2E90004D2E90856F1
:106A2000281A76EB040023D220320133F2E7994290
:106A30000AD0D2E90056D2E90804401B74EB0600E4
:106A400016D320320133F2E7BCF1000F0ED008EB71
:106A500041104E08A0F1200546B1404629462AF0D3
:106A60006BFD013E08F12008203DF5E734F056B9F2
:106A700034F0E6FA5DF8048BBDE8F04000F0A0B910
:106A8000F0B503AF2DE9800F93460C468046082BE6
:106A90000ED3DD08DFF864A0E800A0EBD30908EB13
:106AA000C51134F071FF34F0F2F934F0DDF98346AA
:106AB000DBE900EC0025D4E90023B2EB0E0673EB12
:106AC0000C064FF0000638BF0126D8E900108A1ADC
:106AD00070EB03024FF0000238BF012292EA060F6A
