:1010000068D2022001110000F1270300356A0500B3
:10101000F1270300F1270300F1270300000000007F
:10102000000000000000000000000000F1270300A5
:10103000F127030000000000F1270300F12703005F
:1010400059110000C1110000F1270300F12703002E
:10105000F1270300F1270300D92C0300F127030037
:101060003D120000F1270300F127030031120000B8
:10107000F1270300CD110000F1270300F127030041
:10108000F12703009D2D0300F1270300F127030042
:10109000AD110000F1270300F1270300F127030041
:1010A000F1270300F1270300F1270300F1270300D4
:1010B000F1270300F12703000000000000000000FA
:1010C000F1270300F1270300F1270300F1270300B4
:1010D000F1270300F1270300F12703004912000064
:1010E000F1270300F1270300F127030000000000AF
:1010F00000000000F127030000000000F1270300BA
:1011000031F079FB0E480F490022814201D004C022
:10111000FBE70D480D490E4A814202D008CA08C0BB
:10112000FAE70C484FF47001026842EA01020260DB
:10113000BFF34F8FBFF36F8F2FF06EFC00DE000008
:10114000D8F3022008F8032068D20220D4F302204A
:10115000389A050088ED00E0B0B502AF4FF040FBD3
:10116000104C206828B1002020600F48203032F059
:101170002BF8606850B10C4D0020606005F1200034
:1011800032F022F805F1300032F01EF8A06838B1D4
:101190000020A06004483030BDE8B04032F014B800
:1011A000B0BD00BF1C0100404CE3032080B56F467A
:1011B0000248BDE8804032F007B800BF00D40320E9
:1011C00080B56F46BDE8804050F09CBEF0B503AFDF
:1011D0004DF804BD144E0020306032F01FFF134D57
:1011E0000446686DF0B94FF0FF306865286E78B13D
:1011F000696E88420CD0D6F808140170D5E9180140
:1012000001302866884204BF05F1580031F0B0FF74
:10121000686D0130686520465DF804BBBDE8F040AC
:1012200032F032BF31F005FA00D10040C4E30320B0
:1012300080B56F46BDE8804051F000BD80B56F4677
:10124000BDE8804050F052BEF0B503AF4DF8048DBC
:1012500084B0344C206858B1334D0120C4F80802E2
:1012600005F1200031F0B0FF05F1280031F0ACFFAE
:10127000E06D38B14FF40000C4F808022A48283065
:1012800031F0A2FFA06A38B14FF48060C4F80802C0
:101290002548283031F098FFA06D28B10020A065C6
:1012A0002148203031F090FF206EB8B30020206636
:1012B000D4F86C631C48C4F86C63BFF35F8F50E8CC
:1012C000061F314340E80612002AF8D10020BFF380
:1012D0005F8F8DF80C0007200DF1040802900120AB
:1012E000019040462AF022FC012817D101F01F048A
:1012F0000D4626FA04F0C00704D0284624F09EFBD1
:1013000031F062FF84F0100026FA00F0C007E8D048
:10131000284624F0D5FB31F057FFE2E704B03AF05D
:10132000ABBC00BF007102404CE30320F0B503AF3B
:101330002DE9000F93B0D0E90149834608468A465B
:10134000A4EB090539F084F9854201D200200BE2B3
:101350005046DBF8005039F07BF900EB09014846B4
:101360002A46234624F094FB9AF80020FF2A1FD136
:101370009AF80420FF2A3ED13BF059FCBAF8080045
:10138000012808A814BF1B211D2137F055FBC0B24E
:10139000022840F0E081BAF80A1008A837F064FB90
:1013A000C0B2022840F0D781DAE9031208A851E15F
:1013B000B2F10A044FF0000398BF1C46002C35D050
:1013C000012C48D13BF033FC08A8522137F034FB04
:1013D000C0B2022840F0BF81BAF80C1008A837F05C
:1013E00043FBC0B2022840F0B681DAE9011208A836
:1013F00038F0FDFB35E0CDE9010100200390DFE886
:1014000012F00900C8005E00A4003200F2001E01C4
:10141000C5002C0101A8032137F00EFBC0B2022841
:1014200040F09981BAF8061001A88EE108AC0A2AAA
:101430000BC400F2A581DFE812F00B0018013501A2
:1014400038016C014A017601A301A301A301150132
:1014500008A810210BE13BF0EAFB08A81E2137F099
:10146000EBFAC0B277E101A8092137F0E5FAC0B282
:10147000022840F07081DAF8144001A8214637F0C4
:10148000DBFAC0B2022840F066810AF1080211942A
:101490003AF027FE08A8294638F09EFF9DF8200064
:1014A000FF2840F057813AF0C6FDC0B2022840F054
:1014B00052813BF0BFF9C0B20228EBD04BE101A84A
:1014C000052137F0B9FAC0B2022840F044819AF8F9
:1014D000144001A8214637F0AFFAC0B2022840F00C
:1014E0003A810AF108028DF81C400DF1380807CA4C
:1014F00004AB07C308A80430009001AC08A804A9F5
:1015000038F0BAFFBDF82000002840F02381009A8F
:10151000A446BDF82210404678CA78C064461278C6
:101520000270604637F0A0FAC0B2022840F0138182
:10153000404637F077FA3BF09AF820461A4638F0E2
:1015400056FBC0B20228D9D005E101A8012137F02D
:1015500073FAC0B2022840F0FE809AF8051001A884
:1015600037F06AFAC0B2022840F0F580BAF80810E5
:1015700001A837F079FAC0B2022840F0EC80DDE92A
:101580000230834240F0F3800020E4E001A80D2106
:1015900057E001A8072137F04FFAC0B2022840F007
:1015A000DA800AF108020DF120083AF09AFD40466F
:1015B000294638F0A6FC9DF82000FF2840F0CA809C
:1015C000BDF822103046BDF8244037F04DFAC0B2C5
:1015D000022840F0C0803046214637F045FAC0B2BC
:1015E0000228E4D0B7E001A8112137F025FAC0B2F3
:1015F000022840F0B080DAF8144001A8214637F004
:101600001BFAC0B2022840F0A6800AF10802119429
:101610003AF067FD08A8294638F0DEFE9DF8200064
:10162000FF2840F097803AF006FDC0B2022840F053
:1016300092803BF0FFF8C0B20228EBD08BE001A80B
:101640000B2137F0F9F9C0B2022840F08480DAE9C2
:10165000021201A838F0CBFA79E001A8132137F083
:10166000EBF974E008A80C215FE008A8082137F026
:10167000E3F9C0B202286ED1BAF8121008A837F008
:10168000F3F9C0B2022866D1BAF8141008A837F0EE
:10169000EBF9C0B202285ED10AF1010108A838F0C6
:1016A0005BFC54E008A80A2135E008A8122137F0B5
:1016B000C3F9C0B202284ED1BAF8021008A837F018
:1016C000D3F9C0B2022846D1DAE901126EE608A8C1
:1016D000062137F0B1F9C0B202283CD1BAF80210A5
:1016E00008A837F0C1F9C0B2022834D1BAF8041002
:1016F00008A837F0B9F9C0B202282CD1BAF8061000
:1017000008A837F0B1F9C0B2022824D1DAE90212F0
:101710004CE608A8022137F08FF9C0B202281AD18E
:10172000BAF8021010E008A8042137F085F9C0B219
:10173000022810D1BAF8021008A837F095F9C0B203
:10174000022808D1BAF8041008A837F08DF9C0B201
:10175000022800D10220022806D1504638F078FF36
:101760004844CBF80800022013B03AF09DB9019A22
:10177000411C9AF8064024F08BF921B10470E9E786
:101780000F2030F0CCFD39F02CFDF0B503AF4DF853
:1017900004BD82B00446D0E901300D46191A04296F
:1017A0000BD3061D22683AF0A8FCCDE9000168467B
:1017B0002946042224F050F908B1002001E002205B
:1017C000A66039F066BE80B56F460021817540F68F
:1017D0000601418280BDD4D480B56F4600210173DB
:1017E00001490131016080BD4CE3032080B56F46A3
:1017F00045F2C472815010440021817180BDD4D45F
:1018000080B56F46DFF874C0044600254DF6D04021
:1018100040F2011285422FD02B18654405F11806BD
:1018200056E8001F21B946E800210029F8D103E05D
:10183000BFF32F8F1D46EDE71148686205F12800C0
:101840002146FFF7D3FF2046294631F0E3F9002572
:10185000BFF35F8F54E8000F44E800510029F9D12D
:10186000BFF35F8F30B1C669C5614576416A88476D
:101870003046F7E720BFEBE73AF023FE40F40220C2
:10188000BD2E0200F0B503AF2DE9000B94B0044665
:10189000F8680DF13C083AF0DCFB9DF83C00FF28AD
:1018A00003D040F6032020801DE0A7F14E0008F190
:1018B0000401851C39F083FE02A82946861C39F0F4
:1018C000B8FC0BAD314639F07AFE3AF0E5FF2078EE
:1018D000FF2808D03AF0D9F8044830F0B1FF3AF0C8
:1018E000DEF931F005F914B03AF05AB8AC01000055
:1018F000F0B503AF2DE9000FCDB0FE68D7F8088032
:10190000CDE91D2056F870AFD8F84400C346CDF895
:10191000AB00C1465BF8410FD6F808E02A90D8F832
:101920003D00129316917268F568D6F810C073697D
:10193000B169F469CDF8CB0059F83A0F2192CDF88E
:1019400070E01B95CDF868C0199320911F943290D8
:1019500032A88DE8120454460DF1F80ACDE9032EA1
:10196000624605952AA9CDE90610A6F13001504638
:1019700023F098F822A89AE82E002EC042981190E1
:101980004398109044980F9045980E90306A1890A4
:10199000706A179008F14E00D6E90AA539F0A5F94A
:1019A00020F07F40CDE90A0B209800901F98CDE9E8
:1019B0000104219803901C98CDE908A504900546E0
:1019C0001B98CDF854B00590834618980690179848
:1019D000CDF84C90CDF830901494079026A822A909
:1019E0001A9A199B9146984622F082FF1D9810285A
:1019F00004D126A8169925F0E7FC30B11E99FF20E6
:101A0000087040F6033088805EE0D6E90C40D7F8D5
:101A100008A01D90B06B18900AF14800F66B39F0E1
:101A200064F920F07F400A9013980B9015980C9061
:101A3000209804901F981899CDE905041D98CDE9C8
:101A40000816CDE9005BCDE9029807902AA822A9E3
:101A5000149A219B22F04CFFDDE92C01DDE92A23B9
:101A6000CDE900013EAC204604F045FF9DF8F8505A
:101A7000FF2D0AD0611C32AC39F058FE1E9E214663
:101A80003AF017FD3571FF201DE00DF1C809211D49
:101A900009F1030539F093FD2EAE294639F0C9FB53
:101AA000129C0DF1F80832464046214624F01AF9FE
:101AB0009DF8F850FF2D0AD01E9E08F101013AF062
:101AC000F8FCFF20357130704DB039F006BF9AF840
:101AD000380002239AF84A100DF1F8089AF85020BD
:101AE000022801F0030008BF012302F0030180F087
:101AF000010081F0010108430F990091B0FA80F0D4
:101B00000E994009CDE901132146DDE91032039019
:101B1000404624F01BF99DF82161022E09D198E876
:101B20006E0048466EC01E9E99E83E00301D3EC0C5
:101B3000A9E732AC3EA9292239F00DFFBDF82601F4
:101B40002146ADF830012922DDF822014B903EAD4F
:101B500039F0FBFE50462946292254F08CFD4B9863
:101B60001E99CAF82A00BDF83001AAF82E000A20F2
:101B70008AF829600870A7E7102B7DD1F0B503AF74
:101B80002DE9000F9DB009908846F868137800F1A0
:101B90006006D2F80100D2F80540D2F8095043EAB5
:101BA000002C39692B0243EA1463240244EA1060D2
:101BB000D47BB2F80D20C6E900C042EA044212020A
:101BC00042EA1562C6E9023218A803F02BF806F1C2
:101BD000300A189806F11003F66B1A9A08F07F0481
:101BE0001999DDF86CB0069283E80708A4F1400269
:101BF0000791314608909AE82006504654F088FB39
:101C0000CDF81480804628464946224654F080FB91
:101C1000C4F14002814650463146D7F80CA054F03A
:101C20008DFB0AF1200103910699402CCDE901BA00
:101C3000009138BF49EA00082948002C08BFA8468F
:101C40003AF08CFF0AA8DDE9073222F0B5FEDDE9A3
:101C50000C01DDE90A23CDE9000118AC204604F0AF
:101C60009BFD9DF86050FF2D0CD0611C0FAC39F02E
:101C70005DFD099E21461FE0FF21017040F6032112
:101C800081807047DDF814900FA8C61C211D10221A
:101C9000D7F8088039F05CFE14AD314639F08FFC7E
:101CA00018AC41462A46204624F01CF89DF86050A6
:101CB000FF2D09D0099E611C3AF0FBFBFF20357116
:101CC00030701DB039F009BE099C5146B02204F1B4
:101CD000080054F01CFA0620C4F804902070F0E7C5
:101CE000C0FFFF7FF0B503AF2DE9000B94B00446B1
:101CF000F8680DF13C083AF0ACF99DF83C00FF287B
:101D000003D040F6032020801DE0A7F14E0008F12B
:101D10000401851C39F053FC02A82946861C39F0C1
:101D200088FA0BAD314639F04AFC3AF0B5FD20781F
:101D3000FF2808D039F0A9FE044830F081FD39F0C1
:101D4000AEFF30F0D5FE14B039F02ABEAB01000072
:101D5000F0B503AF2DE9000F9FB08246880701D48C
:101D600011206FE0D56B934605F108030FCB41EAD4
:101D7000030440EA0206344311BF8DE80F0000203F
:101D8000CDE90200CDE9000016AE6946304604F008
:101D9000E5FD9DF85840FF2C3DD111A8311D00F103
:101DA000030810223AF06FF80AAE414639F041FAC2
:101DB0000DF15809594632463AF03EFF9DF8584019
:101DC000FF2C30D12868C10741D06968000A0A0E8B
:101DD0008DF83E200A0A40EA0160ADF83C200E90E2
:101DE00016AE0EA9304604F0EDFD9DF85840FF2CCC
:101DF00011D1311D404639F05DFE1BAE414639F030
:101E000018FA05A85946324623F06CFF9DF8144095
:101E1000FF2CA5D00DE011AD711C132239F095FDFA
:101E200005A8294602E005A809F10101013039F0B1
:101E30006DFD05A90AF10500013139F067FDFF20AC
:101E40008AF804408AF800001FB039F046BD052426
:101E5000EFE7F0B503AF2DE9000F8BB0044602A801
:101E60000E460021924604F06DFC9DF80800FF2804
:101E70001ED09DF80B10E170BDF809109DF81B20D5
:101E8000DDE903C5A4F80110BDF81910059E9DF801
:101E90001830ADF81C108DF81E202374C4E901C55C
:101EA000E660A4F81110E27420700BB039F015BD93
:101EB0009DF818B0059DBDF81900ADF8040059460D
:101EC0009DF81B008DF806002846DDE9038921F006
:101ED0004CF802460B4606F1480011461A4638F007
:101EE000A8FFC0B202281CD1BDF804005146ADF8CD
:101EF00029009DF806008DF828B00995CDE90789DD
:101F00008DF82B0002AD07AA284623F0EBFE9DF8C2
:101F10000860FF2E10D0601C691C39F0F7FC267099
:101F2000C3E705204946207040460BB0BDE8000FCE
:101F3000BDE8F04038F05ABFFF20B5E7F0B503AF79
:101F40002DE9000F9FB00D46B968069314460B901B
:101F50001AA802F067FE1A9804F170061C9A05F0A0
:101F60007F0504F1900B1B991D9B0FC60892A5F1EC
:101F700040020A909BE8400E50460991594607934B
:101F800054F0C6F98046304649462A4654F0C0F916
:101F9000C5F1400281465046594654F0CFF904F14C
:101FA0002001402DCDE90241079901910899009146
:101FB00038BF49EA00082448002D08BFB0463AF06F
:101FC000CDFD0CA8DDE9093222F0F6FCDDE90E01B9
:101FD000DDE90C23CDE900011AAC204604F0DCFB5E
:101FE0009DF86850FF2D0BD0611C11AC39F09EFBA1
:101FF0000B9E21461322701C54F03DFB35701FE0F0
:10200000DDF82C8011A8C51C211D39F0D8FA16AEB8
:10201000294639F00EF91AAC06993246204623F0CB
:1020200061FE9DF86850FF2D07D008F10100611C8A
:1020300039F06CFC88F8005002E0FF2088F80000BE
:102040001FB039F04ABC00BFC0FFFF7FF0B503AF3F
:102050002DE9000FB5B016461D46CDE91210B04669
:10206000D6F83D000DF1A00C55F8702FCDF8A30067
:1020700058F83A0F289056F8410FD5F808906B6839
:10208000D5F80CA0D5F810E0D5F814B0AC69E96922
:102090002C90D6F8030014921593CDF86C90CDF8DF
:1020A00068A0CDF864E0CDF860B017941691CDF833
:1020B000B3002CA88DE800460DF18009CDE9051C80
:1020C000A5F1300107904846CDE903B422F0EAFCBF
:1020D0001CA899E81E0005F1300B1EC02498119031
:1020E0002598109026980F9027980E90F01D9BE849
:1020F000100AD5F83CA038F0F8FD20F07F40CDE97B
:102100000A08DDE91A10CDE908BA0C96CDE90001FC
:10211000199802901898039017980490169805A99A
:1021200081E8110228A81CA9DDE9142322F0E0FBB4
:10213000DDE928230DF18009DDE92A01CDE900015F
:10214000484604F0D8FB9DF88060FF2E0ED02CACE2
:1021500009F1010139F0EAFA139D21461322681DA5
:1021600054F089FAFF202E71287052E0DDF84C807F
:102170002CA8C61C09F1040139F05BF831AC3146DA
:10218000102239F0E8FB0DF18009129922463AF04D
:1021900053FD9DF88040FF2C0BD008F1050009F19C
:1021A000010139F0B3FBFF2088F8044088F80000F3
:1021B0002FE005F1200B464608F11804ED6A9BE874
:1021C000000D09F107001CA939F074FC0B204946E9
:1021D00006F8010B172239F0BBFB199804F12C010A
:1021E0002062189860621798A0621698E56381E8EB
:1021F000010D11982060109860600F98A0600E98F3
:10220000E06014982061159860611B98A0611A988D
:10221000E06135B039F061BBF0B503AF2DE9000FD7
:102220008BB004460220ADF80A0001208DF80800AA
:102230001E462B4888468DF80920039007A838F0E1
:1022400099FD079DDDB3DDE9089BFB20D7F808A0C9
:10225000CDE904B00020069004A803A9FFF795FA81
:10226000C0B202281AD104A802A9FFF78EFAC0B2A0
:10227000022813D1DDE90530191A02290CD3049A7A
:10228000811C019123F004FCCDE9070107A8314628
:10229000022223F0E1FBB8B1042004E0C0074FF0B4
:1022A000040018BF0D2001212070617028464946A6
:1022B0000BB0BDE8000FBDE8F04038F097BD162028
:1022C00020700BB039F009BB019851460A9007A85D
:1022D00080E8200A07AB2046424622F015F9F0E7D5
:1022E00006000500DCB504AF10CB5031009432F08D
:1022F000FFFADCBD91F8673301F51472012B12BFB0
:1023000091F8561202F58C720121A0B1D0B502AF3E
:102310009388B0F8154112686340D0F811416240CB
:102320001A4390F817315940C90718BF0020002AF6
:1023300018BF0020D0BD00207047D4D4F0B503AF43
:102340002DE9000792B06D4688468146284648210F
:1023500053F087FFD8F80C4048262946482C38BF50
:1023600026463046482223F0AAFC0546D8F8080045
:102370008A46214623F012F88E424BD80246284660
:1023800051463AF092FB022C09D22B4830F058FA11
:10239000304630F047FA30F0ABFB0A2019E09DF8E8
:1023A0000000441EE5B20E2D12D22046A6F1010A0D
:1023B00020F0D4FE80B2824519D109F101006946AE
:1023C000482254F058F9C9F84C6089F8004008E0F8
:1023D000072089F80500032089F80400FF2089F808
:1023E00000003AF029F812B0BDE80007F0BD0C4833
:1023F00030F026FA0B480C4CA0470C48A0470C487C
:102400000C4950F8250051F825102FF0ADF90020A7
:10241000A047C0E70B46002031463AF068F800BFFD
:10242000A101000012000000FD270300F3020000DC
:10243000A085050068850500A2010000F0B503AF86
:102440002DE9000F95B01C788046FF2C15D045482B
:102450001D4616468A4693F801B030F0F1F942481D
:1024600030F0CCF9284637F059FA032C18BF4FF05A
:10247000080B30F03DFB192C05D1FF2088F8000037
:1024800015B039F02ABAB6F858430FA838F072FCE4
:102490000F98002848D0A7F143000094C51C0FA94D
:1024A0000C2239F052FAA7F152002946C61C0C2220
:1024B00039F04EFA12AD31460C2239F046FA02A834
:1024C0002946042220F060FD9DF80800DDE9035450
:1024D0009DF81860FF28DDF8149026D14846314653
:1024E00020F043FDE1B380F800B0304620F036FD27
:1024F000CDE904904046CDE9025402AD009A514620
:102500002B4622F001F898F80000FF28B5D098E893
:102510005E0028465EC0154830F092F9284637F034
:10252000EFF930F0E5FAABE716209DF80B1088F8CC
:102530000310BDF809109DF81B20A8F80110BDF884
:102540001910ADF804108DF8062088F81060C8E95D
:102550000154C8F80C90A8F8111088F813208DE7E2
:1025600038F03FFE9A010000D60200009F010000F3
:10257000F0B503AF4DF8048D92B00DF104080D468F
:1025800006461146404644221C4653F0CFFFB86829
:102590002946009030464246234600F005F812B026
:1025A0005DF8048BF0BDD4D4F0B503AF2DE9000F76
:1025B000ADF29C6D189301F1780A1790DCAE91F89A
:1025C000C84006F1600B90460D46022C199132D19D
:1025D0000DF168092946C822484653F098FD152098
:1025E00028710E2028709DF8685098F800000C2D76
:1025F00000F2128306F17004DFE815F00D008C0183
:1026000042012801C9000A01DF010E037502C6025A
:102610000E03AB029700FF2804BF98F80C100029A6
:1026200000F01E87411E0329C0F0B882002840F048
:10263000EF8200F056BF0DF50C792946C8221AAE7C
:10264000484653F064FD15209DF830122871122081
:1026500028700F2998F8000000F2B48506F1600593
:10266000DFE811F01000C00302039D04CD04B005A3
:102670007A03DE032004B005A9053005B005B005D6
:10268000E6028703FF2804BF98F80C200A2A40F0CE
:102690009985D8F80800002802F08982199D0C223B
:1026A000D8F8041095F81901032808BF0822DDF8AE
:1026B00060A0DAF8383093F8700393F8713302446D
:1026C00085F81A210C7813B1012185F818110DF540
:1026D0009F6858B195F81C0195F81D1140F0030052
:1026E00085F81C0141F0030185F81D111AA8514617
:1026F00023F07BFC9DF891000DF55C79022807D052
:10270000600741F1BA829DF89000022801F0B5827D
:10271000DCAC39F079FE3AF0DEFA01F0128238F0E2
:10272000F3FF8DF8FC5401F0BDBAFF2804BF98F800
:102730000C10082940F02F82D8F80820002A02F057
:102740003682D8F804000478022C81F016800DF54A
:102750009F68062A42F22582199A50F8011FDDF877
:1027600060A0C2F811118188A2F8151192F8F91031
:1027700082F81741022900F0F7868188A2F8F41048
:102780000068C2F8F00082F8F64000F0EDBEFF28C5
:1027900004BF98F80C10022900F04D86042800F2BE
:1027A0003E82DFE810F0E406FB01FB010500E406D1
:1027B0000DF59F600DF59F6B00F190051998902223
:1027C00000F11801584653F0A2FCDCAE09F10101FA
:1027D000112239F0BDF80024D8F80400C5E900043E
:1027E000C5E904049DF87003C5E90244C007C5E9C2
:1027F000064401F05485DDF860A0721CB868002121
:10280000CDE900AB102302908CA8FFF7B5F9CBE11E
:10281000FF2804BF98F80C10022940F0BC811998D9
:102820000DF59F64B02200F10801204653F06FFCC3
:10283000D8E90123A046DDF860A0B8681B99CDE96E
:1028400000A402908CA8FFF797F9AFE1042800F2EA
:10285000E387DFE810F08C060500C207A3018C06B1
:102860009DF86900002801F06E81199909F118009E
:102870001022D031CDE9001009F1020100F03FBF74
:10288000FF2804BF98F80C10032940F08481199D9B
:102890004CA8702239F084FADAF8000005F19801AA
:1028A00016902022DAE901B9DAF80C60C6A853F0D4
:1028B000E2FE39F0F6FA40F09587D8F804000DF5FD
:1028C0009F6A169A5B461596D0F809101491D0F8B5
:1028D0000110139101781291C17B11911899D0F8D0
:1028E0000550B0F80D0010905046CDE900965E46B8
:1028F000FEF7C8FF9DF8F884B8F1FF0F01F066827B
:102900008CA80AF10101053039F000F88DF8348205
:1029100000F0A3BFFF2804BF98F80C100B2940F06B
:102920003A81D8E901120DF54678404638F0A7F90A
:10293000DDF860A02022DAF82C10BEAC39F00BF8DC
:10294000DAF830104CAE402239F002F80DF59F69EC
:10295000214642463346484638F0D4F89DF8F804FC
:10296000C00700F044879DF8FB0409F106018DF8CB
:1029700006021222BDF8F9049DF8FC449DF8FD649E
:10298000ADF804027CA853F076FE09F1180079A98D
:102990000DF59F6A0CC80CC1007808704CA9504610
:1029A00003F040FF9DF8F804FF2801F069820A2037
:1029B00003258DF8710301F08FBAFF2804BF98F842
:1029C0000C10032940F0E7803AF080F8DCA853F0BF
:1029D0009EFB39F066FA40F01387D8F804001B9D7F
:1029E000DBE90E98D0F801100278129505F07F050A
:1029F00042EA0122CBF820201692D0F80930D0F814
:102A000005201C0244EA1264120242EA1161CBF86A
:102A10002840CBF82410C5F140021591C17BB0F8D5
:102A20000D00149440EA01404146000240EA136A56
:102A30004846CBF82CA0DBE90C6453F07FFC1390E4
:102A4000304621462A4653F063FCA5F14002044675
:102A50004846414653F05CFC1399402D38BF44EA88
:102A60000100EE49002D08BF3046DCAA61F35F008B
:102A7000149B02F12001CDE9003ACDE90212049045
:102A8000BEA8DDE9153221F097FFDBE900ACDDE9F6
:102A9000BE648CEA0401DBE90289DDE9C03589EA1C
:102AA000050008438AEA060288EA03011143084345
:102AB00041F05D80DBE904230DF59F64DBE906014D
:102AC000CDE90001204603F08AFE9DF8F854DDF8B8
:102AD00060A0FF2D01F0F384611C4CAC38F026FEA1
:102AE0008CA821462EE0FF2804BF98F80C1003297B
:102AF00051D139F0EBFFDCA853F009FB39F0D1F9E3
:102B000040F08386D8F8040004F1100538F08AFFFD
:102B10000EC5B968E061204602F084F8DDF860A0D7
:102B2000D4E90201D4E900230DF59F64CDE9000149
:102B300051462046FEF7A6FE3AF0C9F801F0DE81C4
:102B40008CA8611C053038F0E1FE8DF8345200F09D
:102B500052BEFF2804BF98F80C1007291BD139F08A
:102B6000A0F940F07786199890F8F900022808D06B
:102B7000D8F804000AF1680438F054FF0EC4CAF80B
:102B800074000C2000F06ABEFF2804BF98F80C10F7
:102B90000C2900F0AC85411E032936D28CA81AA955
:102BA00039F072FFDDF860A00DF59F689DF83002E6
:102BB000FF2800F0E3840DF50C790DF59F60C82225
:102BC000494653F0A4FA9DF8F8040E2800F0E0847A
:102BD000199D0D2840F0FC8495F8F980B8F1020F9A
:102BE00000F0F68495F81A0100F00300012802BFF6
:102BF00095F8200100F00300012800F0268595F8E3
:102C0000F8C04FF0020800F04DBD002800F06784C6
:102C1000042804D100F0ABBCFF2840F0558498F89C
:102C20000C00042800F0ED830D28B7D000F09FBC05
:102C3000FF2804BF98F80C20072A40F0C38239F01F
:102C400030F940F09C86199D95F8F900022808D0CB
:102C5000D8F804000AF1680438F0E4FE0EC4CAF89B
:102C600074000F2000F090BEFF2804BF98F80C20DD
:102C70000B2A40F0A782BEAE09F10401202238F0F1
:102C800067FEDDF864B00DF5467940220BF1240AA9
:102C90004846514653F0EFFCD8E901124CAC2046AF
:102CA00037F0EDFF0DF55C78314622464B46404645
:102CB00037F028FF9DF87003C00700F068869DF884
:102CC000730308F106018DF8AA001222BDF8710302
:102CD000ADF8A800BDF874431AAE06F1450053F0F4
:102CE000CAFC06F1570008F1180139F0DEFC06F1C4
:102CF00020004CA938F080FD304638F005FB28460E
:102D00005021ADF8AB4053F05FFC9BF80801811EE9
:102D100038BF0221DDF860A0C9B2022901F02D827E
:102D20000DF55C79032941F047820F2039F05FFEF1
:102D3000DAF83820D6AEDCAC39F0F6FB9DF8585303
:102D4000FF2D41F0E283E01D1AA938F0A2FF09200F
:102D50000DF59F6801F0F3BC98F80C10FF2808BF30
:102D6000022900F04C84DDE918A5FF2800F030822C
:102D700075E2FF2804BF98F80C20082A40F0228250
:102D8000D8F80820002A01F01287D8F80400DDE9FD
:102D900018A50478022C80F039860DF59F68062A64
:102DA00041F2FF8650F8011F0DF55C79C5F811114D
:102DB0008188A5F8151195F8F91085F817410229B1
:102DC00007D08188A5F8F4100068C5F8F00085F8F0
:102DD000F64095F822110DF59F605246FEF7B8FFB8
:102DE00000F0A1BFDDE918A5FF2840F0F98298F8AE
:102DF0000C100A2900F0D885012940F0E981D8E9B2
:102E00000112DCA838F025F89DF87003022840F084
:102E1000CC860A2038F021FC01F089BAC0FFFF7F80
:102E2000FF2804BF98F80C20022A40F0CB81199D9E
:102E3000DCA8602238F0B4FF9AE8500805F1880158
:102E40003022DAF80C901AA853F015FC39F029F862
:102E500040F0F683D8F804000DF598782246334602
:102E60008D9D01681691416815918168149118999A
:102E7000C06813904046CDE900B9FEF733FF9DF8D6
:102E800030A1BAF1FF0F01F0B0800DF59F6208F19B
:102E90000101501D904638F039FDFF208DF8FCA44B
:102EA00001F0C7B8FF2804BF98F80C20032A40F0AF
:102EB0008981199DDCA8B02238F072FF38F0F1FF4B
:102EC00040F074858D98DBE90EA900F07F04DBF8F3
:102ED0003410A4F14002DBF83050159149461490AB
:102EE0005046D8F80460169553F012FA15998046AA
:102EF0002846224653F00CFAC4F140021590504681
:102F0000494653F01BFAB368F568D6F8009072682A
:102F1000DCA9039120310291402CCDE91253CDE977
:102F20000035159938BF41EA00081698002C08BFF3
:102F30008046E34839F012FE90461AA84A464346B6
:102F400021F03AFDDBE900C1DBE902231AAE1D984E
:102F500070CE69405840084386EA020184EA0C02B8
:102F60001143084340F02A861499DDF860A0CBE9AC
:102F700008980DF59F6813981329CBF8280012982C
:102F8000CBF82C0041F0D881DCAB199D0DF59F608A
:102F9000514605F1D002FFF759F800F043BDFF2874
:102FA00004BF98F80C20022A40F00C8139F08EFD05
:102FB0001AA853F0ACF838F074FF40F04183D8F809
:102FC000040038F02FFD85E80E00B968E86005F1CF
:102FD000100001F027FED5E90601D5E90423CDE96B
:102FE0000001DCAC39F016FA39F075FE40F08F863E
:102FF000E01D1AA938F04DFE042000F0E0BEFF28C5
:1030000004BF98F80C20032A40F0DC8019980DF1D9
:10301000680BB02200F10801584653F078F838F0F8
:1030200040FF40F00D83D8F804000BF120028168C6
:10303000D0F80CA0D0F80490D0F800800020CDE9A2
:10304000001ACDE915214B46CDE9022B42460490EA
:10305000C6A821F0B1FCD5E902E3DDE9C646DDE909
:10306000C802D5E900C15A40714080EA0E00114300
:103070008CEA04021043084340F0AD8505F11003CB
:10308000169CC5E908890FCBC5E90A4A159DCDF8FC
:1030900000B001AE86E82003CDE9044A21F0CAFC65
:1030A000199D044695F80801022841F05D81854884
:1030B0002FF0C6FB39F072FA2FF01AFD0DF59F6064
:1030C0001AAB37E3FF2804BF98F80C200C2A79D1FB
:1030D000DCA8199C00F11005DCA804F108015022BD
:1030E00053F015F8D8E9010105F1280B0E90286975
:1030F000139068691290A8691190E8691090286A85
:103100001490686A1590686B0F9004F58F709BE8B7
:10311000000B1691D5E90EA637F0E7FDD4F814217F
:1031200020F07F40D4F81111CDF833214C91D4F820
:103130000D21D4F80A11CDF86B201A91CDE908A61B
:103140000A904CA80B901AA80C9013980290129811
:103150000390119804901098CDE9050B0F98CDE9D4
:1031600000890790D6A8DCA9DDE9142321F0C0FB73
:103170001698102806D1D6A90E9824F025F9002813
:1031800000F032854FF00B090325DDF860A00DF546
:103190009F68BEA908F10600122253F06CFAFF20C6
:1031A0008DF8FD948DF8FC540DF55C798DF8F804DC
:1031B000199D00F0BABDFF2804BF98F80C20032A1F
:1031C00000F0A582FF280BD198F80C10DDE918A5B6
:1031D000042924D038F041FA0D2900F006810BE1D2
:1031E000DDE918A50539082900F2FA80DFE811F0B9
:1031F00009003700F800F8009000F800F800DC0043
:10320000F500012800F0DF8238F027FA022840F0AC
:10321000F38040F60340ADF8FC0400F089BDD8F817
:1032200008000DF55C79002801F0C184D8F804008D
:10323000047825482FF004FB601EC0B2102828BF78
:103240000824204636F00AFC2FF052FC03208DF8AB
:10325000FD448DF8FC040DF59F6800F069BD03285E
:1032600040F0BE80DCAE05F118019022304652F0ED
:103270004EFF0020D8F80410CBE90C103246CBE901
:1032800010100021CBE90E005346CBE91200B868BC
:103290009DF8315200901AAC2046FEF74FFE9DF883
:1032A0006860FF2E00F08B830DF59F68611C08F1AC
:1032B000050038F02BFB8DF8FC6400F02EBD00BF3C
:1032C000C0FFFF7F82000000390100007871050017
:1032D0006E0000003A010000A50100006D00000032
:1032E000A9010000AF010000A70100009801000043
:1032F000A00100006C000000B19C0300B1010000BF
:103300009B010000A40100000901000096010000DB
:10331000042865D105F108011AADB022284652F003
:10332000F6FED8F8010008F1210416902022D8F802
:103330000D002146D8F805B0D8F809A015904CAE7C
:1033400038F006FB5FF87C10204624F03DF840B9C9
:103350005FF8881006F1100024F036F8002800F01D
:10336000A68429460DF598792031002099E860035C
:103370003346CDE90089CDE902112A460490DCAC40
:10338000204621F019FB4CA800F11001204624F042
:103390001BF8002800F08F84FF208DF8F80440F21D
:1033A0000340ADF8FC044DE1D0B998F801000028C5
:1033B00000F086835FF8E8002FF04EFA95F82301BD
:1033C0000DF59F68800700F1398695F822110DF5FB
:1033D0009F605246FEF7BCFC24E3002800F0E78122
:1033E00038F03BF90138022806D20DF59F608CA910
:1033F00039F04AFB00F097BC15208DF8FC0400F072
:1034000097BCD8F80800002801F0D183D8F8040050
:1034100004785FF840012FF013FA601EC0B2102844
:1034200028BF0824204636F019FB2FF061FB8DF8E9
:10343000354203209CE038F034FD40F08781D8F815
:1034400004108CACA01C38F035FB19990DF59F6861
:1034500038F095FF38F09BFBDDF860A004207DE19B
:1034600018990DF59F60D8E901A922F0BEFD9DF8DD
:103470002105022819D00D200DF59F688DF8F8045C
:1034800018984346816A826BDCAC39F035F99DF8B7
:103490007003FF2809D038F0F8FA5FF8C4012FF064
:1034A000CFF938F0FCFB2FF023FB0DF59F60514660
:1034B0004A4637F0CEFC9DF8F844022C40F0528189
:1034C00038F0D4FA0A20B6E2072D08BF042800F02D
:1034D000C981411E0329FFF461AB002847D10A2DA1
:1034E00045D198F80100002800F027815FF8140208
:1034F0002FF0B2F9DDF860A00DF59F680DF55C794D
:103500003DBB0DF59F645146204622F01CFD9DF801
:103510002155FF2D00F0FC86DCAC0DF59F612922C2
:1035200038F019FADDF822052146199E29228890E3
:10353000BDF82605ADF8240206F1D00053F09BF843
:103540008898C6F8FA00BDF8240286F8F950A6F863
:10355000FE00199991F81D01800700F1A68291F8EB
:103560002201800700F13F850D2001F0DFB8152012
:103570008DF83402DDF860A00DF59F688CA808F185
:103580000401043090E87C000E207CC18DF8F80422
:103590000DF55C7908F1040109F1040028F02EF919
:1035A0000C2039F024FA4B46DAF838204CAC39F0CC
:1035B000A3F839F0ACF80AD039F0F6FA5FF8E00277
:1035C0002FF03EF9484636F09BF92FF091FA199DFD
:1035D0000DF59F61284639F057FA8CAC29462046F4
:1035E00036F0AFFBFF208DF870039DF83002DCAEA3
:1035F000FE2818BF2646179D96E81F00D5E3DDE993
:1036000018A538F04EFC40F0C980D8F804100DF52C
:103610009F6808F1020038F04DFA0DF55C7905F16C
:10362000180109F1060038F034FB012049468DF8F5
:10363000F90408F11200B62253F01DF8062033E316
:1036400038F077FA38F012FA6AE34CAE05F1D0049C
:1036500051463046224622F01CFC39F058F810D072
:103660000DF55C7A96E83E0050463EC05FF88C034C
:1036700039F000FA504605F1D00436F041F92FF048
:1036800037FA206805F1E00C1690AB46606815909B
:10369000D4E902AE4C469CE86F006FC4DDE915200A
:1036A0009BF8F8C0CDE9E0AE0DF55C7ECDE9DE0219
:1036B0000EF118018DF871C399E87D00F1467DC1C6
:1036C0000B2073468DF8700318988DF8A1838DF840
:1036D000A0C3816A826B4CAC39F00EF839F017F850
:1036E0003FF475AF39F060FA5FF8040468E7199B9E
:1036F00009F10800D8E90112D033CDE900308CA8D7
:10370000DDF860A05346FEF7F3F8FFF74DBA199DB8
:10371000DCA8B02238F044FB38F0C3FB40F04A810B
:10372000D8F8040038F07EF9FF90FCA80EC0DCAB9E
:103730000DF59F60DDF860A049E05FF850042FF0C0
:103740008BF839F0D4FA40F603702AE20520DDF850
:1037500060A08DF83402FF200DF59F688DF83002CF
:10376000FFF726BA9DF8FA540DF59F68DDF860A0C2
:10377000280700F15A8103205DE15FF88C042FF0E7
:103780005FF838F08DFC2FF0B3F9DDF860A005206C
:103790000DF59F688DF8340200F0C7BF05200DF5C8
:1037A0009F688DF8FC04FF200DF55C797CE298F8A9
:1037B0000100002800F091815FF8C8042FF04CF858
:1037C000112000F042BC09F108030DF59F6005F1DE
:1037D000D0025146FEF73AFC22E140F60340ADF834
:1037E0003402C7E640F60320ADF8340235E040F677
:1037F0000330ADF83402FF200DF59F6800F096BF4E
:1038000039F075FA40F60320CBE139F070FA052063
:103810008DF83402FFF7C6B99DF8690000287FF4DF
:10382000FEA998F80C000C287FF4F9A938F039FBB0
:1038300040F0BF86D8F804108CACA01C38F03AF9E0
:1038400019990DF59F6838F09AFD38F0A0F903201A
:1038500000F0B5BE05208DF83402FF208DF830024F
:10386000FFF7A0B9199C0DF59879B02204F1080171
:10387000484652F04CFC08F121060DF5467A20220C
:10388000504639F0ABF9D8F801001690D8F8090085
:103890005FF8C8151490D8F80D0015903046D8F888
:1038A000055094F81EB136F0FBF940B95FF8E41505
:1038B0000AF1100036F0F4F9002800F0FA84CDE99E
:1038C00012B5C6AB0DF53E780FCB119000BAC19082
:1038D00008BAC09010BA10914146BF9018BA0F9222
:1038E0000E93BE90DCAE30462DF0C6FD0DF59F6404
:1038F000002531464FF4B8722046CDF8DC54CDF89F
:10390000D854CDF8D454CDF8D054CDF86856CDF86D
:103910006C56CDF87056CDF8745652F007FEDCAEFA
:1039200021464FF4C07238F00CFE09F120045FF814
:1039300038963046202221468DF8F054C84730464C
:1039400021462022C8470DF59F64304601228DF89C
:10395000F8542146C847204631464FF4C27252F00F
:10396000E5FD9DF878A604F5B8711022504635F0B3
:10397000B7FE002965D000F8015B0139F9E70520A1
:10398000199D8DF8FC04FF208DF8F80414E040F632
:103990000330DDF860A0ADF8FC04FF208DF8F804DA
:1039A00037F05BFE5D46BEE101204EE3052038F0B6
:1039B0005DF807E138F0BDF8DDF860A030E00DF506
:1039C0009F68E80700F04F8109F1020038F02AF8FB
:1039D0008BE80E00CBF80C00DBE90601CDE9000115
:1039E0005146DBE904231AAC2046FEF77BF99DF82B
:1039F0006850FF2D40F08D8108F10800DCA938F0F7
:103A000079FB0020CDF8FC04082087E15FF814075B
:103A10002EF016FF38F044FB2FF06AF838F089F8E2
:103A20000DF59F680DF55C797DE19DF8FB64102E26
:103A300080F0718206208DF8350203208DF8340263
:103A40009CE5A7F13C060025204647F83C5C314642
:103A50008DF8785647E90E5547F8305C2CF0C8FFD2
:103A6000A7F12C093146484627F046FF04F5B07609
:103A7000102D09D06019013590F8601190F870216F
:103A8000514080F86011F3E7BAF1100F40F06D82F9
:103A900037F0ECFFDDE912B50020102800F07E823F
:103AA00019F8001038F02BF9F7E7DAF83C4004F188
:103AB000080339F044F800F0928382AD0FC593E318
:103AC0005FF8C4072EF0C8FE40F603700DF59F683E
:103AD000ADF8FC040DF55C792AE10DF55C7838F061
:103AE00078FB0DF168090D2043468DF870034846B8
:103AF00022F0A6F938F01CFC0BD099E86E00404685
:103B00006EC05FF8000838F0B5FF38F0C8F82EF046
:103B1000EFFFE00700F094825FF814082EF09CFE9F
:103B2000DCAC38F071FC9DF870530DF59F680DF515
:103B30005C79FF2D00F0498537F0E6FD8DF8FC54E7
:103B4000F6E00120AFE019990DF59F6808F1070034
:103B5000B022183152F08FFD092041468DF8300215
:103B60008CA838F01EFDDDF860A0FFF724B85FF8E0
:103B700064089B461695354666462EF061FE504613
:103B8000314642464B4635F03DFE169B28462146BF
:103B90005A4635F037FE2EF0ABFF39F0A8F840F268
:103BA0000340ADF83402FEF7FDBF9DF8721337F005
:103BB00054FD0A0700F1B5830320B8E337F056FF40
:103BC000199D032004218DF8FC04FF208DF8FD14BD
:103BD0008DF8F80426E7DDF860A037F03EFD40F6EA
:103BE0000340ADF8FC04E3E3DDF864B002260DF118
:103BF00068089BF81A119BF820419BF8080101F016
:103C0000030104F0030481F00101022884F001049F
:103C100008BF01262143DDF860A0B1FA81F1D5E9A2
:103C200000234909D5E90205039151468DE8610059
:103C3000404622F08BF89DF8685008F102019DF88B
:103C4000699012229DF89160C6AC37F084FE022E76
:103C500040F0B083BEA84ECCFF2D4EC0218801801D
:103C60007FF495AADEE308F10800DCA938F042FAF7
:103C70000020CDF8FC04072050E0DCAC5146204683
:103C800022F061F99DF89953FF2D40F0D0830DF596
:103C9000987C94E86E0060466EC008F104009CE8D1
:103CA0003E003EC0FF20199D8DF8F8043DE00DF563
:103CB000987999E860031AA800F17004199890F8AF
:103CC0001E01002804BF82468346169908BF01469C
:103CD000159A08BF0246C4E9081B04F13000B96810
:103CE000C4E90AA280E86003DCA800F09BFFDDE9DC
:103CF000DE01DDE9DC23C4E90023C4E90201CDE9EA
:103D00000001DCAC38F086FB38F0E5FF52D00DF551
:103D10009F6837F0F9FC8DF8FC54FF208DF8F8040B
:103D20000DF55C79199D9DF8F804FF2840F093810A
:103D300008F1040009F1040190E87C0012207CC124
:103D40004C46199D8DF8700308F10400211D27F0E1
:103D500055FD0C20DAF828108DF8F8044346DAF8FF
:103D600038204CAC38F0C8FC38F0D1FC09D037F022
:103D70008CFEDFF8680E38F07DFE37F090FF2EF0F5
:103D8000B7FE1AACDCA9284638F07EFE204629464C
:103D900035F0E8FFFF208DF8F8049DF86800FE2854
:103DA00018BFA046179D98E81F001FC50DF29C6D17
:103DB00037F093BDE01D1AA937F06BFF0A200DF50F
:103DC0009F6838F0D5FD52F056FCA9E7DDE91010E8
:103DD000702241EA00484CA9DCA852F098F9139AE5
:103DE00028022946149DDDF858B040EA126A12985C
:103DF000C4E900B640EA0222280240EA11614FEA13
:103E0000082040EA1568159D1392C4E90352202248
:103E10001291C4F80890C4E905A1C4F81C80DCAC78
:103E200004F19000C6A952F026FC04F12000129A79
:103E30008DE81108514643461398CDE9036905956D
:103E400020F0F8FD0446199890F80801022840F087
:103E50001083DFF8900D2EF0F3FC38F09FFB2EF06E
:103E600047FE0DF59F64DCA9E01D37F012FF092025
:103E700021468DF830028CA838F093FBFEF792BEF5
:103E80001694D6A800F102080AF10401102237F0B6
:103E9000FAFF82A84146841C102237F05CFD0DF524
:103EA00008782146102237F0EEFF0DF55C7918995D
:103EB000424638F0C1FE38F00EFF00F02C8399E83E
:103EC0005E0050465EC0DFF8200D2EF0B9FC504673
:103ED00035F016FD2EF00CFE8CA8DCA90530013162
:103EE00013220DF59F6852F0C6FBFF208DF8345267
:103EF0008DF83002DDF860A0FEF758BEE01DDCA9A9
:103F000037F0C7FE092021468DF830028CA838F022
:103F100048FBFEF749BEBDF8FC949DF8F9845FEAC2
:103F2000897041BF199991F81C0140F0020081F895
:103F30001C015FEA895040F13684DAF83C30D3E95D
:103F400002E1D3E9042341EA030C4EEA020050EAFD
:103F50000C0000F01184CDF8F8E4CDF8FC14CDF895
:103F60000025CDF8043500F010BC16F80A00A7F1C2
:103F70002C0180F0800006F80A00404627F0BCFCC7
:103F8000DDF860A00020DDE912B5102804D018F893
:103F9000001037F0B4FEF8E70DF59F680DF59F604F
:103FA00031462CF025FD0FCE00BAC19008BAC09062
:103FB00010BABF9018BABE90C6A800F11001BEA8F2
:103FC00035F06EFE0DF1380EDDF844C000289EE895
:103FD000104200F0768138F08AFE40F20340ADF8DE
:103FE0003402FEF7E3BD0B20A0E30DF59F6ADCA9C8
:103FF0000AF1080060220AF1680852F088F8169861
:1040000008F10C01C8F8000030221598C8F8040027
:104010001498C8F808001398C8F81C90D04681E896
:1040200051080AF188001AA952F025FBCDF8FC547A
:1040300008208DF8F804DDF860A071E60E2006E097
:10404000DFF8840B2EF008FC10200DF59F680DF5AD
:104050005C798DF8F8044C460DF59F69DCA8C82200
:10406000494652F054F89DF8700312283FF46CAEA4
:104070001AAC11287FF486AE95F8F980B8F1020FDA
:1040800004D1DFF8540B2EF0E7FB73E095F81A012A
:1040900000F00300012802BF95F8200100F00300A2
:1040A000012804D095F8F8C04FF0020831E04CAE7A
:1040B00005F1D00B514630465A4621F0EAFE38F061
:1040C00026FB0CD096E83E0048463EC0DFF8000BC9
:1040D00038F0D0FC484635F013FC2EF009FDDBF833
:1040E000000005F1E00C16900DF1680EDBF80400FD
:1040F00014907446DBF808001590DBF80CA0AB4672
:104100009CE86F006FC47446DDE9142116989BF893
:10411000F8C0CDF804252246CDF8000509F1180EA7
:104120008DF8F9C4CDF80815CDF80CA592E87B0000
:104130008EE87B000B204B468DF8F80418988DF81C
:1041400029858DF828C5816A826B4CAE38F069FDEF
:1041500038F0DDFA0CD096E83E0048463EC0DFF865
:10416000740A2EF06DFB484635F0CAFB2EF0C0FCF9
:104170001AAC199D0DF59F6804E637F06EFA002819
:1041800000F026820A2038F032FCDAF83820D6AE69
:10419000DCAC38F0C9F99DF85853FF2D40F0B781D9
:1041A000A01D1AA937F075FD06202146ADF8F804C8
:1041B00008F11200B622C4E208F107001AA9B022E1
:1041C0005D4652F058FA03200DF59F628DF8F80411
:1041D000501C41469046B72252F04DFAA3E500200C
:1041E000CDE98400CDE982000DF59F6682A93046B5
:1041F00002F0B4FB38F06BFD46D14CA8311D00F144
:104200000309102238F0ACF9D6AE494637F011F860
:104210000DF59F6851463246404621F063FD38F067
:1042200056FD40F06C812068C10700F0748261681F
:10423000000A0DF59F660A0E8DF8F6210A0A40EA7B
:1042400001607C90ADF8F4217CA9304602F0BAFB05
:104250009DF8F8540DF59F68FF2D15D1311D484686
:1042600037F028FCBEAE494636F0E3FF0DF59F64FB
:1042700051463246204621F035FD38F028FD40F009
:1042800014841999FFF76BB9711C4CAE132237F0E7
:104290005FFBC6A81ECE1EC038F031FB3EE28CA8E4
:1042A0000DF59F61083037F025FF8D940520FFF74D
:1042B000D5BADDE9C6CE0DF59F68DDE9C894DDF815
:1042C00060A04CA8149E90301BF0010104BF0E4664
:1042D0000D46169A08BF0A46159B08BF0B4600F10B
:1042E0000C0180E86400B022C0E9069408F10700E0
:1042F00081E808504CA952F0BEF9082041468DF8DB
:1043000030028CA80130B72252F0B5F9FEF74EBC4E
:1043100038F04AFC49468CA891E87C0004307CC007
:1043200003E29DF873230F2A00F2BB8106208DF86B
:10433000FD040320FFF761B8B8684C1C00901AAE6A
:10434000DCAA214630465346FDF7F8FD9DF868503B
:104350000DF55C79FF2D24D108F10800DCA937F0B8
:10436000C9FECDF8FC449AE1DFF84C082EF068FA5B
:1043700038F014F92EF0BCFBDDF860A009208DF8B0
:104380007003DD9437F025FF4CAEDCAC38F0CCF890
:104390009DF830510DF59F680DF55C79FF2D00F00B
:1043A000C98108F10500711C37F0B0FA8DF8FC5492
:1043B000FF20A4E208F1140C16960DF59878BCE8DD
:1043C0004F00C646AEE84F009CF800008EF8000093
:1043D000BDF89600ADF80C02DDF8920082901AA9A3
:1043E0004DCC8C46ACE84D0012222088ACF8000081
:1043F0000BF1D2008BF8D1908BF8D05052F03BF9F2
:10440000B8E83E000BF1E4003EC016998BF8F910B5
:1044100098F8001001708298CBF8FA00BDF80C02F1
:10442000ABF8FE000C200DF59F68FEF7BDBE4CA852
:10443000DCA9292252F01FF9DDF89A03022DC6905B
:10444000BDF89E03ADF81C0300F0AF834CA9199C86
:10445000292204F1D00052F00EF9C698C4F8FA00EF
:10446000BDF81C0384F8F9502546A4F8FE000D2081
:104470001AE4DFF86C072EF0E3F938F08FF82EF02D
:1044800037FBDDF860A00920CDF8FC440DF59F64F2
:1044900037F079FE2346DAF83820BEAE38F0C1FB9B
:1044A0009DF8F8520DF59F68FF2D00F04E818CA805
:1044B000711C053037F02AFA8DF8345235E14CA8DA
:1044C000211DC61C36F0B5FEC6AC3146102237F0B1
:1044D00042FA0DF59F6651462246304621F002FC15
:1044E0009DF8F8440DF59F68FF2C00F03A818CA8E8
:1044F000711C053037F00AFA8DF8344215E108F1E5
:104500000101C6A837F002FA06E10DF59F6808F12F
:104510000500711CEEE14CA9484637F06DF909F130
:104520002004C6A9202237F016FA169812228DF818
:10453000B303BDF80402ADF8B0039DF806028DF890
:10454000B20309F145008DF8B4637CA952F093F8E9
:1045500009F1570079A938F0A8F85846502152F0CF
:1045600033F819990DF59F6891F80801023838BFA2
:104570000220C0B2022800F0C681DDF860A0032846
:1045800040F0F8810F200DF59F6537F0FCFD2B46BC
:10459000DAF83820D6AE38F044FB9DF85843FF2CAB
:1045A00040F06882E81DDCA937F073FB072029463C
:1045B000A5E605200DF59F688DF83402FF208DF8E3
:1045C0003002DDF860A0FEF7F3BA199D012040E546
:1045D00006F190001690E54840F2FF18D7F808A0C1
:1045E0004FF0FF39834650462BF0AAFE0446504652
:1045F0000E462BF0A5FEDE4D0023A0FB0502E1FBDD
:104600000523A4FB0541A6FB056576184FF00001C4
:10461000454152F1000253F1000024EA080341F140
:104620000001BBEB030379EB060379EB050379EBA0
:104630000202D8D3169C0022DDF860A004F110031A
:1046400084E8070083E8070008218DF87013DA601A
:10465000E260DD9037F0BDFDD6ACDCAB38F04CF855
:104660009DF858530DF55C79FF2D40F03E81B868F8
:1046700000210090DCAC1AAA534620460026FDF724
:104680005DFC9DF870530DF59F68FF2D40F02F8164
:1046900008F108001AA937F02DFDCDF8FC640720B9
:1046A0002DE185F8201105F58F7185F81E0105F5BE
:1046B0008C70BDF874339DF87143A5F8223185F8EC
:1046C000212185F81F4136F01BFB85F80801DFF832
:1046D000F00485F809112EF0B3F837F056FE2EF0ED
:1046E00007FADAF82C104CA837F086F8DAF8301010
:1046F000DCAE402237F02CF90DF168083146404617
:1047000002F090F837F014FE00F07C810A200324B8
:104710008DF81903A2E105250DF59F688DF8345237
:104720008CA80530C6A937F0F1F8FF208DF83002CB
:10473000FEF73CBAE01D1AA937F0ABFA052038F0B5
:1047400017F951F098FFFFF7EDBAA01DDCA937F07B
:10475000A0FA03202146ADF830028CA81230B62210
:10476000D2E5129C132C40F08B81F01DDCA937F0B0
:1047700090FA09203146C2E50020CDF80405CDF8B5
:104780000005CDF8FC04CDF8F804DFF840140DF571
:104790009F6022F019FE30B1199991F81D0140F087
:1047A000020081F81D0119980C2180F8205105465E
:1047B00080F81F8105F58C78A0F8229180F821619E
:1047C00080F81E4190F81901032808BF0821DAF883
:1047D000380090F8702390F87133881885F81A0122
:1047E00005F58F7013B1012188F80010414636F0AD
:1047F00087FA85F80801DFF8FC0385F809112EF027
:104800001FF837F0C2FD2EF073F90DF59F600121FE
:1048100001F098FF38F05BFA3FD19DF80865DDF8AC
:104820000445BDF80905ADF8180331469DF80B05A0
:104830008DF81A032046DDF8FC94DDF800551EF0D3
:1048400094FB37F014FF40461A4636F0F2FAC0B235
:10485000022844D1CDF8F8940DF59F68BDF81803EF
:104860000DF55C79ADF8050551469DF81A034246F1
:104870008DF8070548468DF80465CDF80045CDF85C
:10488000FC5421F02FFA38F026FA5AD10DF59F6822
:1048900001208DF83002FEF78EB99DF808259DF8AD
:1048A000FB048DF88023DDF804258DF87303BDF833
:1048B000F904DF92DDF800259DF80B15ADF87103C2
:1048C000BDF80905DE92DDF8FC24ADF830018DF865
:1048D0003211DD928DF88313ADF881033CE0484638
:1048E000294636F083FA052536E00DF59F6808F174
:1048F0000500611C37F00AF8FF208DF8FC548DF894
:10490000F804FFF70FBADDF860A091F8090100285C
:1049100000F0D0800A200DF59F6537F034FC2B465F
:10492000DAF83820D6AE38F07CF99DF85843FF2CE1
:1049300040F0A080A81DDCA937F0ABF9042029467F
:1049400009E799E85E0040465EC0AB482DF078FF6D
:1049500037F0A5F92EF0CCF8DCA98CA80530013190
:1049600036F0D4FF8DF83452FEF706BEFFC5FCFFCB
:1049700040420F00B9680BF1100000F053F9DBE979
:1049800006010025DBE904238DE803020DF59F6095
:10499000CDE9034520F010F8DDF804150DF59F680A
:1049A000DDF8F824DDF8FC34DDF80005CBE9020180
:1049B000CDE900014046CBE9002301F0EDFE9DF872
:1049C000F844FF2C65D182A808F10401C61C36F01A
:1049D00030FC88AC3146102236F0BDFF0DF556791B
:1049E0005146224638F028F99DF85843FF2C40F0F4
:1049F000808008F10700DCA937F04BF9022041461E
:104A0000FFF782BABEA808F10401861C36F011FC3B
:104A1000D6A83146841C102236F09DFF0DF5027990
:104A20002146102237F09CFD51460DF5467A4A4644
:104A3000504621F057F99DF81843FF2C40D09AE8D2
:104A40006E0040466EC05F482DF0FAFE37F027F941
:104A50002EF04EF8DDF860A00DF55C79C6A90DF5D5
:104A60009F6808F10500013136F050FF8DF8FC44D5
:104A7000FFF75EB98CA8711C053036F047FF4BE09C
:104A80008CA8DCA9083037F035FB601C8D90052020
:104A90004CE682AD08F10101132236F056FFD6AE86
:104AA0002946701C36F032FF2FE0611CC6A836F094
:104AB0002DFF33E6DAF8000090B3DAF8041048E08E
:104AC00008F103004CA936F097FE0DF59F64DCA9B0
:104AD00004F1240037F0ECFD022041468DF8F80483
:104AE000601C2322A04651F0C6FDDDF860A0FEF751
:104AF00099BF99E86E0040466EC03D482DF0A0FE7B
:104B000037F0CDF82DF0F4FFD6AE8CA8711C05302F
:104B100036F0FCFE0DF59F68FF208DF8344205E667
:104B2000BE68264C314DD6F80001402807D33046E8
:104B300000211EF06FFED6F80001402839D2421C39
:104B400056F82000C6F80021A0FB0401A842104638
:104B5000EBD80BF1400000260BF13002CDF8FC142D
:104B6000C0E900160DF59F63C0E902660820C2E99E
:104B70000016C2E9026637F006FBDAF83820D6AD37
:104B8000284621F05DF99DF858438CA8FF2C05D1EB
:104B90000830DCA937F0AEFA8D9678E70530691C4D
:104BA0006BE7012007212DF0B6FB2DF03DFD36F01F
:104BB00018FB40212DF0B7FB8400000040420F009D
:104BC00085000000AD0100009C0100007871050027
:104BD000B0010000A6010000B2010000A801000021
:104BE0008300000081000000AE0100007F3DF1FF66
:104BF000AA01000086000000A3010000D0B502AFAA
:104C000092B0BC688DF81020FF228DF80420CDE909
:104C100002343A69FB68009201AAFDF7C5FC12B0A4
:104C2000D0BDD4D4F0B503AF2DE9FF0B00260D465F
:104C30008046E946CDE90266CDE900660F2E1DD813
:104C4000D5F80041402C07D3284600211EF0E2FD94
:104C5000D5F80041412C29D230464946102221F096
:104C6000EFF902460B4605EB8400C4F140012FF03A
:104C700088FA2044C5F800010E44DFE704A899E84B
:104C80001E001EC004AB36F046FF1FBFA8E80F0091
:104C900008B0BDE8000BF0BD07482DF0D1FD04A819
:104CA00034F052FF2DF024FF2DF080FE20464021ED
:104CB00040222DF030FB00BFB8010000F0B503AF7B
:104CC0002DE9F80F0646B0F80A9090F809802548BB
:104CD0000068C00540D125481FF07FFF0546007CD5
:104CE0008A46012804D105F1080101A81FF042FB02
:104CF000D5F8BC405CB3287C20B1B8F1FF0F26D0BA
:104D00002DF092FCD5F80CB03146CDF80090092278
:104D100005EB0B1909F1140051F0ADFC0098A9F84E
:104D20001E000BF10100B0F10801C9F8204089F81C
:104D30001D8018BF0146A868E960884204BF0120B1
:104D4000287436F026FA05F194002FF0C4FC36F0F2
:104D500024FC05B036F0C1BD03482DF07DFD2DF0DB
:104D600025FE00BF04ED00E063010000C8DC032065
:104D7000F0B503AF4DF804BD06461A480068C005FB
:104D800029D11A481FF029FF054690F870000C46FB
:104D9000012804BF05F168001FF078FB286EC0B140
:104DA00095F87010E1B9D5E91A12002A05EBC20393
:104DB000986783F8746018BF0132EA66914204BFB5
:104DC000012085F8700036F0E4F905F108001CF0C8
:104DD000BBFF36F087B904482DF03EFD2DF0E6FD0F
:104DE0002DF022FC04ED00E06301000010DF032041
:104DF000BFB506AF0168DFE801F0041F191B1725D6
:104E00002C1DD0E90101CDE9010101A8039028483A
:104E10002DF016FD27482DF0F1FC274903A82DF0B1
:104E200033FD2DF065FEBFBD1E4806E01E4804E0C0
:104E3000174802E0174800E01C4804B0BDE8B04045
:104E40002DF00ABD446816482DF0FAFC37F025F91C
:104E500019E0D0E9015410482DF0F2FC0F482DF074
:104E6000CDFCDFE805F0020D0406002009E0022079
:104E700007E003202DF0FEFC20462DF07DFD02E032
:104E800001202DF0F7FCBDE8BF402DF031BE00BF82
:104E9000810100007501000077010000CF020000D1
:104EA00067010000660100007D0100007E01000036
:104EB0006E01000010000000F0750500D0B502AFD3
:104EC0000F4AD269BFF35F8FA2B152680123014438
:104ED0001360002388420AD0D2F80041002CFBD096
:104EE000C2F80031D2F8084500F8014BF2E7012082
:104EF0005060D0BD03482DF0AFFC2DF057FD00BF32
:104F00004CE3032061010000D0B502AF04460A481B
:104F10002DF074FC2078FF2806D036F0C3FE204622
:104F2000BDE8D04034F0ECBC36F0B0FF6068BDE8BE
:104F3000D0402EF033BD00BFD3020000D0B502AF89
:104F400004460A482DF05AFC2078012806D136F094
:104F5000A9FE6068BDE8D0402EF020BD36F096FF77
:104F60006078BDE8D0402CF045BC00BFD601000001
:104F7000D0B502AF044604482DF040FC034920465A
:104F8000BDE8D0402DF080BC10000000E0750500A9
:104F9000D0B502AF044610482DF030FC206802382E
:104FA00038BF0020DFE800F00210090B36F06EFF7A
:104FB0002046BDE8D04030F0F7B9022000E00320E1
:104FC000BDE8D0402DF056BC36F06CFE2079BDE82F
:104FD000D04030F083B900BFAA020000D0B502AFC4
:104FE000044604482DF00AFC2046BDE8D04032F0CB
:104FF000C9BE00BF9D020000D0B502AF04460D48F7
:105000002DF0FCFB21780C48DFE801F00F030A0CBF
:10501000050E0D4809E004202DF02CFC601C04E076
:10502000084802E0064800E004480078BDE8D040A7
:105030002DF020BCA80200007A7F05007D840500C9
:10504000908205008F8205008E820500D0B502AFE8
:10505000044604482DF0D2FB2046BDE8D0402BF09A
:1050600097BA00BF12000000D0B502AF04460A484C
:105070002DF0C4FB2088012809D136F013FE074823
:105080002DF0BCFB6088BDE8D0402CF05FBB002059
:10509000BDE8D0402DF0EEBB0E000000D4010000B2
:1050A000D0B502AF044604482DF0A8FB2088BDE827
:1050B000D0402CF04BBB00BFD4010000D0B502AFF4
:1050C000044604482DF09AFB2046BDE8D04033F05A
:1050D00037B800BFC1020000D0B502AF0446044893
:1050E0002DF08CFB2078BDE8D0402DF0C3BB00BF75
:1050F00013000000B0B502AF0546044837F0FDF8D4
:1051000028462146BDE8B0402DF03EBC030000001B
:10511000F0B503AF4DF804BD856804686DB1426811
:10512000C66804F10800531B00EB4211B21A00EBF1
:105130004310520150F0D6FB00E0C668701B20609F
:1051400036F031BC80B56F4618B1BDE8804035F00F
:105150004DBE80BD80B56F46C24312061CBFBDE880
:10516000804001F05BB980BD0168426C8A429EBFFD
:1051700000210160704780B56F4610460A462DF049
:10518000CAF80168426B8A429EBF002101607047E5
:1051900080B56F4610460A462DF0BDF8D0B502AF77
:1051A000044602688068211D20F04AFF002020602C
:1051B000D0BDD4D4F0B503AF4DF804BD0A460646C1
:1051C000D0E900011FF0E4F9054606F576700C46BB
:1051D00033F0C2FC0E4695F85E13A1B1013985F893
:1051E0005E13090604BF95F85C13042903D036F05A
:1051F0004CFD35F077BF103041F20131A5F85C135A
:105200002DF0B6FFF3E702482DF026FB2DF0CEFB84
:10521000C0010000B0B502AF45684DB10289006819
:1052200037F0B1F920B10C4636F0A8FC36F0C5FBDA
:10523000B0BDF0B503AF4DF8048D044601790068A8
:10524000FFF7B8FF41F290102618215875688D427B
:1052500008D1307AC00705D100214FF0040804209E
:1052600000250FE041F29C1004EB000801EB8100E7
:105270008D4208EB800091BFC1F10101691A002540
:105280004FF0040801F003F94046294601F0FFF809
:10529000316A11B1706AC9688847B16A11B1F06AA0
:1052A000C968884704F108005DF8048BBDE8F04048
:1052B00000F0AAB8D0B502AF1FF071FA68B10C4681
:1052C00090F86F130022012980F86F2304BF00F5C6
:1052D0001E702DF04DFF36F070FBD0BD80B56F46CF
:1052E00000F5BD60BDE880401BF067BF80B56F462C
:1052F00000F5BA60BDE880401BF05FBF80B56F4627
:10530000D0E90012114306BF90F85410032980BD64
:105310005830BDE8804000F0AFBBD0B502AF0446C6
:1053200090F83B0003280FD0042805D005280ED1A3
:10533000D4E91101FFF706FF94F83A00012804BFF1
:10534000D4E9080135F052FD002084F83A00D0BDC0
:10535000D0B502AF044690F85005032804BF04F509
:105360009F60FFF7DAFF94F8A702033804281AD8E1
:10537000DFE800F003150D10080004F5307000F0B0
:10538000E3FF10E004F52A7000F0F8FC0BE004F5F0
:105390002A7006E004F5327000F028FC03E004F502
:1053A000307000F004FC94F82200042806D0032892
:1053B00018BFD0BD04F1280000F023FC07CCBDE8E5
:1053C000D04000F097B980B56F46C0B2BDE88040CC
:1053D0004DF0FEBED0B502AF0446006848B90020CB
:1053E000207337F094FC201D2DF0C2FE36F0E5FA54
:1053F000D0BD04482DF024FA33F09CFB2DF078FB4F
:105400002DF0D4FA4A010000D0B502AF04461030A6
:105410001EF04DFF41F27C00204432F000FC41F2CE
:1054200088002044BDE8D04032F0F9BB80B56F461B
:1054300090F87510042918BF80BDD0E90010C96824
:10544000BDE880400847D4D4F0B503AF2DE9000F84
:1054500089B0824623480068C0053ED136F0A3F8E3
:1054600036F074F936F098F931D3E9465946484692
:105470001EF056FF37F0FFF804D0411E68462BF0AF
:1054800063F840B105AC36F0EDF836F045FE10B1EA
:1054900036F033FDF9E700206C46D5E9021291425F
:1054A00002D12A7CD2070CD037F0B6FB09D12046B6
:1054B00059462FF08DF89DF8000002280BD00120EE
:1054C000EBE7C0071CBF05F160002FF004F935F0D1
:1054D000E8FD35F044BE2DF0A7F803482DF0BCF9E7
:1054E0002DF064FA04ED00E063010000F0B503AFB5
:1054F0002DE9000F89B0824628480068C00548D1D0
:1055000036F051F80546D0E90046D0F8840005F1A0
:10551000080B88460138C5F8840058461BF0F4FD96
:1055200036F03AF92FD3E946594648461EF00DFFAA
:1055300037F0A1F804D0411E68462BF005F840B1C1
:1055400005AC36F08FF836F0E7FD10B136F0D5FC3B
:10555000F9E700206C46D5E90212914202D12A7C7B
:10556000D2070AD037F058FB07D1204659462FF012
:105570006BF8009858B10120EDE7C0071CBF05F19A
:1055800078002FF007F935F08CFD35F0E8BD2DF0EF
:105590004BF803482DF060F92DF008FA04ED00E017
:1055A00063010000F0B503AF2DE9000F89B082461A
:1055B00026480068C00544D135F0F5FF0546D0E91E
:1055C000004B806B05F140080E460138A863404649
:1055D0001BF0A8FD35F0F5FD31D3E94641464846BC
:1055E0001EF0E3FE37F047F804D0411E68462AF06B
:1055F000BCFF48B135F058FF204620F025FB10B124
:1056000036F02FFCF8E756460021D5E91002801A43
:1056100018BF012095F848201043C00709D0E86C56
:1056200038B940461EF0DFFE01210028EDD12CF0F4
:10563000FBFFC8071CBF05F12C002FF0ABF835F0BD
:105640005EBD03482DF008F92DF0B0F904ED00E03F
:1056500063010000F0B503AF2DE9000F89B0824669
:1056600022480068C0053CD135F09DFF36F080F837
:1056700035F0A7FD31D3E946414648461EF0C5FE48
:1056800036F0F9FF04D0411E68462AF05DFF40B1B4
:1056900035F00AFF36F040FD10B136F02EFCF9E788
:1056A000564600206C46D5E91412891A18BF01210C
:1056B00095F858201143C90709D0296E39B92046F9
:1056C00041461EF0B7FE009848B10120EBE7C00745
:1056D0001CBF05F13C002FF05DF835F010BD2CF03B
:1056E000A3FF03482DF0B8F82DF060F904ED00E0B9
:1056F00063010000F0B503AF2DE9000F89B08246C9
:1057000025480068C00542D135F04DFF0546D0E977
:10571000004B006E05F168080E46013828664046C9
:105720001BF00EFD35F04DFD2FD3E94636F0AEFEF1
:1057300036F0A1FF04D0411E68462AF005FF40B1B3
:1057400035F0B2FE36F0E8FC10B136F0D6FBF9E7E2
:1057500056460020D5E91A12891A18BF012195F87A
:1057600070201143C9070AD0A96F41B940461EF005
:105770008DFEC1B201200229ECD12CF055FFC007EB
:105780001CBF05F154002FF005F835F0B8BC0348F4
:105790002DF062F82DF00AF904ED00E0630100003D
:1057A000F0B503AF2DE9000F89B0824621480068AB
:1057B000C0053AD135F0F7FE35F0DAFF35F001FDDE
:1057C0002FD3E94636F062FE36F055FF04D0411E75
:1057D00068462AF0B9FE40B135F066FE36F09CFC12
:1057E00010B136F08AFBF9E7564600206C46D5E941
:1057F0001412891A18BF012195F858201143C907BE
:1058000009D0296E39B9204641462EF095FF0098FF
:1058100048B10120EBE7C0071CBF05F134002EF0B2
:105820005AFF35F06CBC2CF0FFFE03482DF014F845
:105830002DF0BCF804ED00E063010000F0B503AF0B
:105840002DE9000F89B0824622480068C0053CD18E
:1058500035F0A9FE35F07AFF35F09EFF2FD3E946EB
:10586000594648461EF028FE36F005FF04D0411E7A
:1058700068462AF069FE40B105AC35F0F3FE36F01B
:105880004BFC10B136F039FBF9E700206C46D5E946
:105890000212914202D12A7CD2070AD037F0BCF919
:1058A00007D1204659461EF01CFE009858B1012031
:1058B000EDE7C0071CBF05F160002EF00CFF35F0CE
:1058C000F0FB35F04CBC2CF0AFFE03482CF0C4FFCD
:1058D0002DF06CF804ED00E06301000080B56F4628
:1058E00009490968C90509D11FF077F9D0F8E820FE
:1058F000013AC0F8E82036F04FF880BD03482CF09C
:10590000ABFF2DF053F800BF04ED00E06301000091
:1059100080B56F4609490968C90509D11FF05DF9CD
:10592000D0F8F020013AC0F8F02036F035F880BD0C
:1059300003482CF091FF2DF039F800BF04ED00E092
:105940006301000080B56F4690F88810032918BFE6
:1059500080BD2C30BDE8804000F038BD80B56F467A
:1059600090F8A610032918BF80BD1C30BDE8804008
:1059700000F063B880B56F4690F8EC10032918BFAB
:1059800080BD1830BDE8804000F00CB880B56F468F
:1059900090F8F810032918BF80BD2430BDE880407E
:1059A00000F000B880B56F4690F84410032908D085
:1059B000042918BF052909D14830BDE8804000F00E
:1059C00005BD4830BDE88040FFF7BCBF80BD80B555
:1059D0006F46817F0339012988BF80BD2430BDE82F
:1059E000804000F02AB8D4D480B56F4690F82310D8
:1059F0000339062988BF80BDDFE801F00B100604DB
:105A000015041A0028300FE02430BDE8804000F073
:105A10009DB92830BDE8804000F08DB92430BDE844
:105A2000804000F026BB2430BDE8804000F077B90C
:105A30002430BDE8804000F05AB9D0B502AF04462A
:105A400090F82700042818BFD0BD04F13C0000F0F6
:105A500044FCE06A228ED0E90001BDE8D040FFF7A7
:105A600029BC80B56F46417C042918BF80BD4068C1
:105A7000BDE88040FFF7AEBCD0B502AF044690F859
:105A80008C03032818BFD0BD04F53A7000F0ACFBBE
:105A90002046BDE8D04000F089BBD0B502AF044637
:105AA00090F83500032809D0042803D0052818BF32
:105AB000D0BD03E004F1380000F0C4FB002084F8FE
:105AC0003400D0BDD0B502AF044690F835000328AD
:105AD00004D0042807D0052818BFD0BD04F1380031
:105AE00000F00AF803E004F1380000F0ABFB0020FE
:105AF00084F83400D0BDD4D480B56F4690F85010EF
:105B0000063907290AD8DFE801F00A0F0904091449
:105B100009045430BDE8804000F0D3B880BD543053
:105B2000BDE88040FFF732BF5430BDE8804000F050
:105B3000B6B85430BDE8804000F0A5BB80B56F46D4
:105B400090F82210052918BF80BD2C30BDE8804098
:105B500000F01FBB80B56F4690F8FC10032918BFFA
:105B600080BD1030BDE8804000F00BB880B56F46B6
:105B700090F8E010032918BF80BDBDE8804000F018
:105B80000BB880B56F4690F8DE10032918BF80BDB2
:105B9000BDE8804000F032BC80B56F4690F8D6106A
:105BA000032918BF80BDBDE8804000F027BC80B548
:105BB0006F4690F82010032907D0042918BF80BD34
:105BC0002830BDE8804000F0CBBB3830BDE88040D5
:105BD000FFF7C0BF80B56F4690F8C010032918BF0B
:105BE00080BD1030BDE8804000F0FCBB80B56F4642
:105BF00090F8E210032918BF80BDBDE8804000F096
:105C000097BB80B56F4690F83410032918BF80BD4C
:105C10003830BDE88040FFF791BFD0B502AF0446F1
:105C2000007A032804D0042804D16068FFF756FEE8
:105C300000206072D0BDD0B502AF0446C07A032800
:105C400004D0042804D12068FFF762FE00202073EE
:105C5000D0BDD4D4D0B502AF04464FF48F50205CF1
:105C6000033803281AD8DFE800F00214090F41F2C4
:105C7000E8102044BDE8D04000F07DBB41F2E810C0
:105C80002044FFF7BEFF04E041F2E8102044FFF794
:105C90005FFB2046BDE8D040FFF7CBBAD0BD80B552
:105CA0006F46017C032907D0042918BF80BD183036
:105CB000BDE8804000F08ABB1430BDE8804000F0B1
:105CC00000B880B56F46017C042918BF80BD18302C
:105CD000BDE8804000F07ABB80B56F46017F0429A3
:105CE00018BF80BD2030BDE8804000F00CB880B502
:105CF0006F4690F85810032918BF80BD0430BDE8E6
:105D0000804000F057BB80B56F4690F85C100329C7
:105D100018BF80BD0830BDE8804000F04BBB80B5A7
:105D20006F4690F8EC11032918BF80BD2030BDE804
:105D30008040FFF7B2BE80B56F46017E032918BFD1
:105D400080BD1C30BDE8804000F0B0BA80B56F4621
:105D500090F8E011032918BF80BD1430BDE88040E1
:105D6000FFF79BBE80B56F4690F82410032938BF1B
:105D700080BD2830BDE88040FFF74FBFB0B502AF0F
:105D800090F8F020062A0ED8044608200421254663
:105D9000DFE802F0350909040E0A040004F1F800F6
:105DA00000F036F804E0B0BD04F1F800FFF7DAFFC8
:105DB00004F1E00207CAFFF79DFC04F1D00207CA14
:105DC000FFF794FB04F1C00207CAFFF743FC04F19C
:105DD000B00207CAFFF7E6FB04F1A00207CAFFF70B
:105DE00033FB04F1900207CAFFF7DAFC04F18002EA
:105DF00007CAFFF723FD04F140054820442122583B
:105E0000204443686058816A2868BDE8B04008476C
:105E100080B56F4690F8F410032918BF80BD0C3090
:105E2000BDE8804000F0BABA80B56F4690F82810FF
:105E3000032907D0042918BF80BD3030BDE8804059
:105E400000F0BEB83030BDE8804000F0E0B8D4D4F7
:105E500080B56F4690F849100339072988BF80BD87
:105E6000DFE801F00D0408120408060650300CE0CB
:105E7000503005E05030BDE88040FFF7D5BF6030BE
:105E8000BDE8804000F0C3B85830BDE8804000F065
:105E900097B880B56F4690F8251003290ED00429D5
:105EA00007D0052918BF80BD3030BDE8804000F024
:105EB0004BB87830BDE8804000F058B83030BDE8CD
:105EC000804000F071B880B56F46C17E03290BD0C9
:105ED000042904D0052918BF80BD203000E02830F7
:105EE000BDE8804000F042B82030BDE88040FFF7B8
:105EF000D0BFD4D4D0B502AF044690F80701033820
:105F0000082820D8DFE800F0050B050B100808056D
:105F10001A0004F58C7009E004F5887001E004F5BE
:105F20008C7000F04DF803E004F5887000F06FF815
:105F300004F16000BDE8D040FFF716B904F58C709D
:105F400000F04BF8F4E7D0BD80B56F46017C032923
:105F500007D0042918BF80BD1830BDE8804000F08C
:105F600005B81830BDE8804000F01EB880B56F4617
:105F700090F830100339042988BF80BDDFE801F0B4
:105F80000A03030F050040300AE04030BDE88040BE
:105F900000F03DB83830BDE88040FFF7ABBF383087
:105FA000BDE8804000F019B880B56F4690F85C10ED
:105FB000032918BF80BD6830BDE88040FFF7D6BF19
:105FC00080B56F46017C052918BF032904D118301C
:105FD000BDE8804000F01BB880BD80B56F4690F8EA
:105FE000231003290ED0042907D0052918BF80BD2E
:105FF0002830BDE88040FFF72BBF2830BDE8804047
:10600000FFF7DEBF3030BDE8804000F000B880B55B
:106010006F46017C032918BF80BD1830BDE8804061
:10602000FFF709BED0B502AF044690F8200004285F
:1060300006D1E0690078FFF7C6F9002084F8220055
:10604000D0BD80B56F4690F84010032918BF80BDC1
:106050000C30BDE88040FFF7E5BF80B56F4690F893
:106060004410032918BF80BD1030BDE88040FFF701
:10607000D9BF80B56F4690F8D811032918BF80BDED
:106080000C30BDE88040FFF708BD80B56F4690F842
:106090000012032918BF80BD1030BDE88040FFF713
:1060A00011BD80B56F4690F8E011032918BF80BD7F
:1060B0000430BDE88040FFF7DCBFD4D480B56F4624
:1060C00090F820100339C9B2032988BF80BD044A63
:1060D00052F821100844BDE88040FFF7D6BF00BF4A
:1060E0002871050080B56F4690F820100339C9B2B9
:1060F000042988BF80BD044A52F821100844BDE835
:106100008040FFF7C2BF00BFD885050080B56F464D
:1061100090F858110339042988BF80BDDFE801F0E9
:10612000031B0F15090000F5AE70BDE88040FFF7B6
:10613000B8BF00F5B070BDE88040FFF7BFBF00F505
:10614000B070BDE88040FFF7CDBF00F5AE70BDE890
:106150008040FFF79ABF00F5AE70BDE88040FFF7C2
:10616000C6BD80B56F46017B042918BF80BD80681D
:10617000BDE88040FFF72EB980B56F4690F8A810B3
:10618000032998BF80BDD0F89000BDE88040FFF79C
:1061900021B980B56F4690F8B210032918BF80BDB1
:1061A0000830BDE88040FFF7D9BBD4D480B56F4636
:1061B000817C0E390B2911D8DFE801F0061010118F
:1061C00010101010060B100B1830BDE88040FFF7C0
:1061D000D3BF1430BDE88040FFF7C3BF80BD14308B
:1061E000BDE88040FFF7F3BBD0B502AF044690F89E
:1061F0003100052809D006280ED104F1480000F02E
:106200006CF8A06BA28F35F083F8D4E9000134F06C
:10621000EDFD002084F83000D0BD80B56F4690F8C9
:106220002D1041B1032918BF80BDD0E90601BDE89A
:106230008040FEF787BFD0E90001BDE8804034F020
:10624000D5BDD4D480B56F4690F82C1003390529FC
:1062500018D8DFE801F00317170D08123030BDE839
:106260008040FFF739BD3030BDE88040FFF729BDE1
:106270003030BDE88040FFF746BD3030BDE880409B
:1062800000F001B880BD80B56F4690F86010052918
:1062900007D0062918BF80BD6430BDE88040FFF7F5
:1062A00032BD7430BDE88040FFF764BBD0B502AFAB
:1062B000044690F83D00092807D80121814011F4D7
:1062C0006E7F03D0002084F83C00D0BD0628FCD1AE
:1062D00004F14000FFF7B6FFF4E780B56F4690F891
:1062E0002510042918BF80BD2830BDE88040FEF786
:1062F00091BF80B56F4690F8441039B1032918BF9B
:1063000080BD1430BDE88040FFF787BFD0E90101B0
:10631000BDE8804034F06ABD80B56F4690F89810B3
:10632000032918BF80BD5030BDE88040FFF7E1BFB2
:1063300080B56F4690F8CE10032918BF80BD083095
:10634000BDE8804000F05AB880B56F4690F8B011B3
:10635000032918BF80BDE030BDE8804000F04EB892
:1063600080B56F4690F8F010032918BF80BDBDE8D6
:106370008040FFF7FBBBD0B502AF044690F8290080
:10638000032803D0042818BFD0BD03E004F12C007B
:10639000FFF7AFFF002084F82800D0BD80B56F461E
:1063A00090F8E410032918BF80BD2030BDE880407C
:1063B000FFF710BC80B56F4690F85010032918BF46
:1063C00080BD0C30BDE88040FFF73BBE80B56F4616
:1063D00090F85810032918BF80BD1030BDE88040E8
:1063E000FFF73BBE80B56F4690F8AC10032918BF8D
:1063F00080BD1030BDE88040FFF78EBF80B56F468E
:1064000090F82010032918BF80BD2430BDE88040DB
:10641000FFF782BF80B56F4680BDD4D480B56F468C
:10642000C0B2072801D1C80700D080BD0248BDE82E
:1064300080402CF011BA00BF97010000B0B502AF48
:10644000051D0C4634B155E90101FEF77BFE013C08
:106450001035F7E7B0BDB0B502AF051D0C4634B13D
:1064600055E9010134F0C2FC013C1035F7E7B0BD3D
:10647000B0B502AF00F13A050C463CB115F83A0C44
:1064800015F8401BFFF7CAFF013CF6E7B0BDB0B5F9
:1064900002AF051D0C462CB1F5E8050134F0A6FC51
:1064A000013CF8E7B0BD80B56F462BF059FCD0E950
:1064B00000218A4227D0B0B502AF134613F8011B62
:1064C00003604BB2B3F1FF3F24DC5478931C0360AC
:1064D00001F01F0304F03F04E02916D3D51C05602A
:1064E0009578F02905F03F0545EA841410D3111D75
:1064F0000160D07803F0070100F03F0040EA84100B
:1065000040EA814106E00020704744EA831101E03F
:1065100044EA03310120B0BDF0B503AF2DE9000F0F
:106520008DB093F813901C4693F814801546D3E968
:1065300002BA0E46069091F8870001281ED100216C
:10654000D6F8D8008DF82D104FF44071ADF8291011
:106550000B218DF8280030468DF82C9006238DF8FD
:106560002B800AAA2CF0C0FFD6E905100538884216
:1065700080F0C68031690A5C01320A54CDF814B04B
:10658000D6F8D8B0BBF1080F80F0BC800BF1010049
:10659000C6F8D80006EB4B004FF48071A0F8DC1071
:1065A0003068012840F0B88070687169884280F0D6
:1065B000A7803169B2698DF82C804FF003080B5C1D
:1065C0008DF82D9001330B54111D01208DF82B8077
:1065D0000723C6E9020100208DF82E000421ADF842
:1065E000290030468DF828B00AAA2CF07DFF222021
:1065F0008DF82DA08DF82C0021214F4807230A90FB
:106600004FEA1A20CDF80CA002908DF82E000AAAAD
:1066100030462CF069FF06F1F00094F812A00494C3
:10662000B4F810902CF0D6FC01287AD08DF8248094
:106630000DF11C08D6F8EC00079041F0800008F13D
:1066400004018DF822003046BC688DF823A0ADF817
:1066500020902CF07FFFE4B106F1F2002CF0BAFCA0
:10666000012861D003208DF82FA08DF830008246DC
:10667000D6F8EC00ADF82C908DF82E100A900AA8F0
:10668000011D30462CF066FFDDF82C900A98019031
:1066900001E04FF0FF0A06F1500206F1480307CA75
:1066A0002DF006F8029805F1200468772220E8769C
:1066B0004FF48070A5F819002048039AC5F815001A
:1066C0000498059BD0E900012A77C5E900321C4AED
:1066D000C5E9024030462961294685F814B01EF00C
:1066E000A5F8069D0198C5E90309284685F814A078
:1066F00098E80E000EC0AC610DB0BDE8000FF0BD13
:106700002BF011FE0A482CF09BF808202CF08AF898
:106710002CF0EEF92CF04AF906482CF09DF82CF0FC
:1067200045F918202BF08DFF19202BF08AFF00BFB0
:10673000550100005701000010010001092110015E
:10674000F86B0500F0B503AF4DF8048D8EB005462B
:1067500008A8884634F00EFB0898C0B1A7F13700AE
:1067600008A9C61C0C2235F0F3F8A7F14600314603
:10677000C41C0C2235F0EFF80BAE21460C2235F08C
:10678000E7F82846314642461CF0FEFB01E01620A1
:1067900028700EB035F070BAF0B503AF2DE9FE0FDA
:1067A000044602A8022199469046FFF7CBFF36F037
:1067B000BEF902D034F081FB0DE09DF818A0059ED3
:1067C00034F0C2FC35F034FB35F039FF02AA2DF06D
:1067D000C9FC36F072F884F800B034F01EBDF0B594
:1067E00003AF2DE9FE0F044602A803219946904607
:1067F000FFF7A8FF36F09BF902D034F05EFB0DE006
:106800009DF818A0059E34F09FFC35F011FB35F083
:1068100016FF02AA2DF0A6FC36F04FF884F800B05F
:1068200034F0FBBCF0B503AF2DE9000F97B001AE1B
:10683000044620220D4635F08BF805F1200109AD04
:10684000202235F082F830461BF0F4F828461BF081
:10685000F1F812A80B21FFF775FF9DF848B0BBF1C6
:10686000FF0F1BD09DF84B00E070BDF849009DF86C
:106870005B10DDE91365A4F80100BDF85900159A15
:106880009DF85830ADF844008DF846102374C4E9E3
:106890000165E260A4F81100E17427E09DF85880DA
:1068A000DDF85490BDF859009DF85B10DDE91352F6
:1068B000ADF84400A4F8110048468DF8461035F0B4
:1068C0007DFF82460E462020514632461FF0F7F9E2
:1068D00001AA36F01DF920204021524633461FF010
:1068E000D7F809AA36F014F935F0E0FF84F800B0C3
:1068F00017B034F0F2BFF0B503AF2DE9FE0F044638
:1069000002A80C211E469246FFF71CFF36F00FF935
:1069100002D034F0D2FA1DE09DF81880DDF8149012
:1069200034F012FC48468DF8061035F047FF024659
:10693000F8680B460590B8681146049010201A4676
:10694000CDE902A61FF0BBF902AA10232DF00AFC24
:1069500035F0ACFF84F800B034F05FBCF0B503AFA5
:106960002DE9FE0F044602A888460721FFF7EAFE3C
:106970009DF808A0BAF1FF0F02D034F09EFA1DE096
:106980009DF81860DDF81490BDF819009DF81B10F3
:10699000ADF80400A4F8110048468DF80610E17423
:1069A0003146DDE9035B1CF0E0FA424610232DF08E
:1069B000D9FB2674C4E9015BC4F80C9084F800A0EC
:1069C00034F02BBCF0B503AF2DE9FF07044603A854
:1069D0000D460821FFF7B6FE9DF80C00FF281ED0DB
:1069E0009DF80F10E170BDF80D109DF81F20DDE936
:1069F0000463A4F80110BDF81D10DDF818C09DF85F
:106A00001C50ADF808108DF80A202574C4E9016304
:106A1000C4F80CC0A4F81110E27420702EE09DF8A8
:106A20001C80069EBDF81D00ADF8040041469DF88F
:106A30001F008DF806003046DDE9049A1CF095FA37
:106A4000F9B10246A8790B46002818BF0120107042
:106A5000012007211FF01CF82A4606232DF082FB97
:106A6000FF2084F810802070BDF80400A4F8110005
:106A70009DF80600C4E9019AE660E07408B035F0BC
:106A8000C2B834F0AEFBF0B503AF4DF804BDD0E9A9
:106A900000344FF0000CD0E908564FF0020EEB1A0C
:106AA00076EB040338BF4FF0010C00F12003BCF17A
:106AB000000F0DD0714519D0D3E90025D3E9086442
:106AC000B21A74EB05021BD220330EF1010EF1E76E
:106AD00071450BD0D3E90056D3E90824521B74EB5F
