:10100000E069032001110000C76E0200AD35040045
:10101000C76E0200C76E0200C76E0200000000002B
:10102000000000000000000000000000C76E020089
:10103000C76E020000000000C76E0200C76E02000B
:1010400059110000C1110000C76E0200C11200005A
:10105000C76E0200C76E0200D57302004512000081
:10106000B5120000C76E0200C76E02003912000000
:10107000C76E0200CD110000C76E0200C76E0200ED
:10108000C76E0200AD740200C76E0200C76E020098
:10109000AD110000C76E0200C76E0200C76E0200ED
:1010A000C76E0200C76E0200C76E0200C76E020064
:1010B000C76E0200C76E02000000000000000000C2
:1010C000C76E0200C76E0200C76E020091120000D8
:1010D000C76E0200C76E0200C76E02000D1300004B
:1010E000C76E0200C76E0200C76E0200000000005B
:1010F00000000000C76E020000000000C76E020082
:1011000025F0E4FE0E480F490022814201D004C0C0
:10111000FBE70D480D490E4A814202D008CA08C0BB
:10112000FAE70C484FF47001026842EA01020260DB
:10113000BFF34F8FBFF36F8F22F02BFF00DE000055
:10114000208B032008F80320E06903201C8B032078
:10115000E0F2040088ED00E0B0B502AF3CF05AF9CF
:10116000104C206828B1002020600F48183026F06D
:101170002BFC606850B10C4D0020606005F1180038
:1011800026F022FC05F1300026F01EFCA06838B1E4
:101190000020A06004483030BDE8B04026F014BC08
:1011A000B0BD00BF1C01004098E6032080B56F462B
:1011B0000248BDE8804026F007BC00BFC8D9032024
:1011C00080B56F46BDE880403DF0B6BCF0B503AFDA
:1011D0004DF804BD154E0020306027F013FB144D70
:1011E0000446A86EF0B94FF0FF30A866686F78B17A
:1011F000A96F88420CD0D6F808140170D5E91D01FA
:1012000001306867884204BF05F16C0026F0B0FB2E
:10121000A86E0130A86620465DF804BBBDE8F0402A
:1012200027F026BB034825F0CDFC00BF00D10040CD
:1012300098E6032078C1040080B56F46BDE8804081
:101240003EF016BBD0B502AF0F4C206930B1102074
:10125000C4F808020D48283026F0B6FB606830B1AB
:101260000220C4F808020948283026F0ADFB2068A7
:1012700040B10120C4F8080204482830BDE8D0403D
:1012800026F0A2BBD0BD00BF0071004098E603204D
:10129000D0B502AF054C206830B10548383026F093
:1012A00093FB4020C4F8F001D0BD00BF18310240CC
:1012B00098E6032080B56F46BDE880403DF030BC25
:1012C000D0B502AF0F4C606C38B10F48403026F0FB
:1012D0007BFB4FF48020C4F80402206830B10A4838
:1012E000403026F071FB0220C4F80402206A38B1B5
:1012F0000548403026F068FB4FF40070C4F8040243
:10130000D0BD00BF0431004098E60320F0B503AF24
:101310002DE9800F394D286858B1394C0120C5F8A6
:10132000080204F1180026F04FFB04F1200026F01B
:101330004BFBE86D38B14FF40000C5F808023048A7
:10134000203026F041FBA86A38B14FF48060C5F820
:1013500008022B48203026F037FBA86D28B100206A
:10136000A8652748183026F02FFB286EE0B3002030
:101370002866D5F86CA32248C5F86CA3BFF35F8F2D
:1013800050E8041F41EA0A0140E80412002AF7D19C
:10139000DFF87C804FF0000BDFF86C900126BFF384
:1013A0005F8F5FEACB701FD13546072E1CD82E46C3
:1013B0002AFA05F418BF0136E00706D0681E08288F
:1013C00014D209EBC00026F0FFFAE81FB0FA80F053
:1013D0004FEA501BE003E4D5681E082808D208EB4A
:1013E000C00026F0F1FADCE72CF0E9BB054A00E08A
:1013F000064A4FF0FF30082124F08AFF00710240B6
:1014000098E60320F0A2040088D7032000A304007C
:10141000C8D70320F0B503AF2DE9000F9BB0D0E98A
:10142000014B814608460E46A4EB0B052BF068F9EC
:10143000854201D2002073E23046D9F800502BF0EB
:101440005FF9DFF808152A46009100EB0B015846BA
:10145000234629F023F83278FF2A1CD13279FF2A5B
:101460003BD12CF0F3FF3089012812A814BF1B21B7
:101470001D2129F053F8C0B2022840F0488271893A
:1014800012A829F06BF8C0B2022840F04082D6E9D9
:10149000031212A8C4E1B2F10A044FF0000398BF8E
:1014A0001C46002C33D0012C46D12CF0CFFF12A8C3
:1014B000522129F033F8C0B2022840F02882B189C5
:1014C00012A829F04BF8C0B2022840F02082D6E9D9
:1014D000011212A82AF018FA34E0CDE9090100201F
:1014E0000B90DFE812F009003601590016013100B7
:1014F0006B0193013301A00109A8032129F00EF823
:10150000C0B2022840F00382F18809A8F9E112ACC8
:101510000A2A0BC400F21482DFE812F00B008D01DE
:10152000A701AA01DA01BB01E301120212021202B1
:101530008A0112A8102180E12CF088FF12A81E2138
:1015400028F0ECFFC0B2E2E109A8092128F0E6FF8B
:10155000C0B2022840F0DB81746909A8214628F056
:10156000DDFFC0B2022840F0D2812CF0B7FA12A8F9
:1015700029462BF03FF89DF84800FF2840F0C6812F
:101580002CF001FBC0B2022840F0C1812CF0E2FD3A
:10159000C0B20228EBD0BAE109A8052128F0BEFFAD
:1015A000C0B2022840F0B381357D09A8294628F051
:1015B000B5FFC0B2022840F0AA81D6E90220CDE9E9
:1015C0000E2031698DF8445010910EAC401AE9B2EA
:1015D0004FF0100A012908BF4FF0020A0AF1020178
:1015E0008842C0F09381204629F046FE0546C00798
:1015F00040F09F8112A8214652462BF031F81298F4
:10160000002800F096811399022924D004291AD0C9
:10161000102928D1C2684FF0020881880792C27A47
:10162000ADF8681001680892827A02925FFA81FC34
:10163000427A0392027A199101210492C279807947
:101640000592069012E0D0F800C04FF00108CDF8E6
:1016500064C001210AE0B0F800C00121ADF864C007
:101660004FF0000802E0CDF866100021002900F0DC
:101670005A81079BA2460C93290C9DF860308DF887
:101680003430089B8DF85430029B8DF85330039B07
:101690008DF85230049B9DF868008DF85130059B01
:1016A0009DF869209DF865E09DF866509DF86740BB
:1016B0008DF85030069B8DF84D000C988DF84F300A
:1016C0008DF84E208DF84C408DF84B508DF84AE047
:1016D0008DF849C08DF84880CDF8550009AC2046FA
:1016E00028F03CFFC0B2022840F0118112A828F077
:1016F000E5FE2CF0DEFB20461A462AF005F9C0B2C2
:10170000022840F00481DDE90F0154469DF8445061
:101710005CE709A8012128F001FFC0B2022840F0CF
:10172000F680717909A828F0F9FEC0B2022840F0CD
:10173000EE80318909A828F011FFC0B2022840F0DC
:10174000E680B17909A828F089FEDCE009A80D211E
:101750005EE009A8072128F0E1FEC0B2022840F0AF
:10176000D68031690DF148080DF1240AD6E902202E
:101770001491CDE91220401A0428C0F0C7804046D9
:1017800029F07AFD0546C00740F0C080404629F0A8
:1017900073FD0446C00740F0B980290C2CF050FEC0
:1017A000C0B2022840F0B380210C2CF049FEC0B238
:1017B000022840F0AC80DDE91301DCE709A8112123
:1017C00028F0ACFEC0B2022840F0A180746909A8DC
:1017D000214628F0A3FEC0B2022840F098802CF0E9
:1017E0007DF912A829462AF005FF9DF84800FF2838
:1017F00040F08C802CF0C7F9C0B2022840F08780FE
:101800002CF0A8FCC0B20228EBD080E009A80B2184
:1018100028F084FEC0B2022879D1D6E9021209A8C4
:101820002AF072F86FE009A8132128F077FE6AE029
:1018300012A80C2157E012A8082128F06FFEC0B2B0
:10184000022864D1718A12A828F088FEC0B202284A
:101850005DD1B18A12A828F081FEC0B2022856D10B
:10186000711C12A82AF0A2FC4DE012A80A2131E056
:1018700012A8122128F052FEC0B2022847D1718866
:1018800012A828F06BFEC0B2022840D1D6E901129E
:10189000FFE512A8062128F041FEC0B2022836D189
:1018A000718812A828F05AFEC0B202282FD1B18840
:1018B00012A828F053FEC0B2022828D1F18812A83D
:1018C00028F04CFEC0B2022821D1D6E90212E0E590
:1018D00012A8022128F022FEC0B2022817D1718876
:1018E0000EE012A8042128F019FEC0B202280ED181
:1018F000718812A828F032FEC0B2022807D1B18840
:1019000012A828F02BFEC0B2022800D10220022823
:1019100006D130462AF0F4FE5844C9F808000220E7
:101920001BB02BF093BF0798CDF85D0008988DF899
:101930005C009DF860008DF8340017980C90E5E786
:1019400003480F21034A24F0DCFC00BFCCD1040083
:10195000BCD90400DCD90400F0B503AF4DF804BDD8
:1019600084B00446D0E901300D46191A04290CD37D
:101970002268061D08492BF0F0FECDE9020102A8FD
:10198000294604221EF042FC08B1002001E002209A
:10199000A66004B02BF00EBF5856040080B56F4609
:1019A0000021017301490131016080BD98E60320E7
:1019B00080B56F4641F2B03281501044002101726F
:1019C00080BDF0B503AF4DF8048D8CB091E87C007C
:1019D000EC4680460CF1140061467CC029222CF0B4
:1019E000E8F8002088F829000CB05DF8048BF0BD01
:1019F00080B56F46002180F8281080BD80B56F4605
:101A00000021017480BDD4D4E0B502AFDFF880C0FE
:101A10000446002544F2785040F2011285422FD04E
:101A20002B18654405F1180656E8001F21B946E851
:101A300000210029F8D103E0BFF32F8F1D46EDE709
:101A40001448686205F128002146FFF7B1FF2046DF
:101A5000294625F05FFC0025BFF35F8F54E8000F97
:101A600044E800510029F9D1BFF35F8F30B1C66956
:101A7000C5614576416A88473046F7E720BFEBE706
:101A800005487A1E00902B210448054B25F0E9F803
:101A9000A0900320FDC50100749104006AD30400E6
:101AA000349D0400F0B503AF2DE9000B94B004465B
:101AB000F8680DF13C082CF051F89DF83C00FF2827
:101AC00003D040F6032020801DE0A7F14E0008F16E
:101AD0000401851C2BF020FD02A82946861C2BF052
:101AE00062FC0BAD31462BF017FD2CF065FB207826
:101AF000FF2808D02CF007F9044825F00BFA2BF04A
:101B0000E8FE25F06FFB14B02BF0C2BEDF00000032
:101B1000F0B503AF2DE9000FCDB0FE68D7F808800F
:101B2000CDE91D2056F870AFD8F84400C346CDF873
:101B3000AB00C1465BF8410FD6F808E02A90D8F810
:101B40003D00129316917268F568D6F810C073695B
:101B5000B169F469CDF8CB0059F83A0F2192CDF86C
:101B600070E01B95CDF868C0199320911F943290B6
:101B700032A88DE8120454460DF1F80ACDE9032E7F
:101B8000624605952AA9CDE90610A6F13001504616
:101B90001CF024FD22A89AE82E002EC04298119035
:101BA0004398109044980F9045980E90306A189082
:101BB000706A179008F14E00D6E90AA52BF008FAD2
:101BC00020F07F40CDE90A0B209800901F98CDE9C6
:101BD0000104219803901C98CDE908A504900546BE
:101BE0001B98CDF854B00590834618980690179826
:101BF000CDF84C90CDF830901494079026A822A9E7
:101C00001A9A199B914698461CF00EFC1D981028B4
:101C100004D126A816991FF0E5F830B11E99FF20CF
:101C2000087040F6033088805EE0D6E90C40D7F8B3
:101C300008A01D90B06B18900AF14800F66B2BF0CD
:101C4000C7F920F07F400A9013980B9015980C90DC
:101C5000209804901F981899CDE905041D98CDE9A6
:101C60000816CDE9005BCDE9029807902AA822A9C1
:101C7000149A219B1CF0D8FBDDE92C01DDE92A2315
:101C8000CDE900013EAC204605F05AF89DF8F85029
:101C9000FF2D0AD0611C32AC2BF03AFC1E9E21466F
:101CA0002BF057FD3571FF201DE00DF1C809211DF6
:101CB00009F103052BF030FC2EAE29462BF073FB07
:101CC000129C0DF1F8083246404621461EF08FFB6B
:101CD0009DF8F850FF2D0AD01E9E08F101012BF04F
:101CE00038FDFF20357130704DB02BF0E3BC9AF811
:101CF000380002239AF84A100DF1F8089AF850209B
:101D0000022801F0030008BF012302F0030180F064
:101D1000010081F0010108430F990091B0FA80F0B1
:101D20000E994009CDE901132146DDE910320390F7
:101D300040461EF08FFB9DF82161022E09D198E8E4
:101D40006E0048466EC01E9E99E83E00301D3EC0A3
:101D5000A9E732AC3EA929222BF003FDBDF82601EC
:101D60002146ADF830012922DDF822014B903EAD2D
:101D70002BF0FEFC50462946292241F039FA4B98B7
:101D80001E99CAF82A00BDF83001AAF82E000A20D0
:101D90008AF829600870A7E7102B7DD1F0B503AF52
:101DA0002DE9000F9DB009908846F868137800F17E
:101DB0006006D2F80100D2F80540D2F8095043EA93
:101DC000002C39692B0243EA1463240244EA1060B0
:101DD000D47BB2F80D20C6E900C042EA04421202E8
:101DE00042EA1562C6E9023218A803F05BF806F170
:101DF000300A189806F11003F66B1A9A08F07F045F
:101E00001999DDF86CB0069283E80708A4F1400246
:101E10000791314608909AE82006504641F06EF846
:101E2000CDF81480804628464946224641F066F89F
:101E3000C4F14002814650463146D7F80CA041F02B
:101E400073F80AF1200103910699402CCDE901BAFB
:101E5000009138BF49EA00082948002C08BFA8466D
:101E60002CF0A8FA0AA8DDE907321CF041FBDDE9F5
:101E70000C01DDE90A23CDE9000118AC204604F08D
:101E80009BFE9DF86050FF2D0CD0611C0FAC2BF019
:101E90003FFB099E21461FE0FF21017040F6032110
:101EA00081807047DDF814900FA8C61C211D1022F8
:101EB000D7F808802BF020FC14AD31462BF02CFB1A
:101EC00018AC41462A4620461EF091FA9DF8605013
:101ED000FF2D09D0099E611C2BF03BFCFF203571C2
:101EE00030701DB02BF0E6BB099C5146B02204F1C6
:101EF000080040F0F3FA0620C4F804902070F0E7E0
:101F0000C0FFFF7FF0B503AF2DE9000B94B004468E
:101F1000F8680DF13C082BF021FE9DF83C00FF28ED
:101F200003D040F6032020801DE0A7F14E0008F109
:101F30000401851C2BF0F0FA02A82946861C2BF020
:101F400032FA0BAD31462BF0E7FA2CF035F9207858
:101F5000FF2808D02BF0D7FE044824F0DBFF2BF03D
:101F6000B8FC25F03FF914B02BF092BCDE00000065
:101F7000F0B503AF2DE9000F9FB08246880701D46A
:101F800011206FE0D56B934605F108030FCB41EAB2
:101F9000030440EA0206344311BF8DE80F0000201D
:101FA000CDE90200CDE9000016AE6946304604F0E6
:101FB000F7FE9DF85840FF2C3DD111A8311D00F1CE
:101FC000030810222BF0F5FD0AAE41462BF0EBF989
:101FD0000DF15809594632462CF0FEF99DF858404B
:101FE000FF2C30D12868C10741D06968000A0A0E69
:101FF0008DF83E200A0A40EA0160ADF83C200E90C0
:1020000016AE0EA9304604F015FF9DF85840FF2C7F
:1020100011D1311D40462BF0C7FB1BAE41462BF0C2
:10202000C2F905A8594632461EF0E1F99DF8144060
:10203000FF2CA5D00DE011AD711C13222BF098FBE5
:1020400005A8294602E005A809F1010101302BF09D
:1020500050FB05A90AF1050001312BF04AFBFF20D6
:102060008AF804408AF800001FB02BF023BB052437
:10207000EFE7F0B503AF2DE9000F8BB0044602A8DF
:102080000E460021924604F06DFD9DF80800FF28E1
:102090001DD09DF80B10E170BDF809109DF81B20B4
:1020A000DDE903C5A4F80110BDF81910059E9DF8DF
:1020B0001830ADF81C108DF81E202374C4E901C53A
:1020C000E660A4F81110E27420702BF07FBA9DF83E
:1020D00018B0059DBDF81900ADF8040059469DF8EB
:1020E0001B008DF806002846DDE903891AF0FEFB87
:1020F00002460B4606F1480011461A462BF020F81E
:10210000C0B202281CD1BDF804005146ADF8290028
:102110009DF806008DF828B00995CDE907898DF85E
:102120002B0002AD07AA28461EF061F99DF8086051
:10213000FF2E10D0601C691C2BF0DBFA2670C4E760
:1021400005204946207040460BB0BDE8000FBDE8B1
:10215000F0402AF0CBBFFF20B6E7D4D4F0B503AFF0
:102160002DE9000F9FB00D46B968069314460B90F9
:102170001AA802F097FE1A9804F170061C9A05F04E
:102180007F0504F1900B1B991D9B0FC60892A5F1CA
:1021900040020A909BE8400E504609915946079329
:1021A00040F0ACFE8046304649462A4640F0A6FE46
:1021B000C5F1400281465046594640F0B5FE04F153
:1021C0002001402DCDE90241079901910899009124
:1021D00038BF49EA00082448002D08BFB0462CF05B
:1021E000E9F80CA8DDE909321CF082F9DDE90E01FD
:1021F000DDE90C23CDE900011AAC204604F0DCFC3B
:102200009DF86850FF2D0BD0611C11AC2BF080F9AC
:102210000B9E21461322701C40F0EAFF35701FE030
:10222000DDF82C8011A8C51C211D2BF075F916AE08
:1022300029462BF0B8F81AAC0699324620461EF013
:10224000D6F89DF86850FF2D07D008F10100611CF9
:102250002BF04FFA88F8005002E0FF2088F80000C9
:102260001FB02BF027BA00BFC0FFFF7FF0B503AF50
:102270002DE9000FB5B016461D46CDE91210B04647
:10228000D6F83D000DF1A00C55F8702FCDF8A30045
:1022900058F83A0F289056F8410FD5F808906B6817
:1022A000D5F80CA0D5F810E0D5F814B0AC69E96900
:1022B0002C90D6F8030014921593CDF86C90CDF8BD
:1022C00068A0CDF864E0CDF860B017941691CDF811
:1022D000B3002CA88DE800460DF18009CDE9051C5E
:1022E000A5F1300107904846CDE903B41CF076F91A
:1022F0001CA899E81E0005F1300B1EC0249811900F
:102300002598109026980F9027980E90F01D9BE826
:10231000100AD5F83CA02AF05BFE20F07F40CDE902
:102320000A08DDE91A10CDE908BA0C96CDE90001DA
:10233000199802901898039017980490169805A978
:1023400081E8110228A81CA9DDE914231CF06CF80F
:10235000DDE928230DF18009DDE92A01CDE900013D
:10236000484604F0EDFC9DF88060FF2E0ED02CACAA
:1023700009F101012BF0CCF8139D21461322681DB1
:1023800040F036FFFF202E71287051E0DDF84C80C0
:102390002CA8C61C09F104012BF005F831AC31461C
:1023A0002BF018F90DF18009129922462CF014F83F
:1023B0009DF88040FF2C0BD008F1050009F10101C8
:1023C0002BF097F9FF2088F8044088F800002FE0F0
:1023D00005F1200B464608F11804ED6A9BE8000D54
:1023E00009F107001CA92BF0DFF90B20494606F87C
:1023F000010B17222BF080F9199804F12C012062AF
:10240000189860621798A0621698E56381E8010D3C
:1024100011982060109860600F98A0600E98E0609E
:1024200014982061159860611B98A0611A98E0616A
:1024300035B02BF03FB9D4D4F0B503AF2DE9000F80
:102440008BB004460220ADF80A0001208DF8080088
:102450001E462C4888468DF80920039007A82AF0CC
:10246000FBFD079DEDB3DDE9089BFB20D7F808A035
:10247000CDE904B00020069004A803A9FFF76CFA88
:10248000C0B202281CD104A802A9FFF765FAC0B2A5
:10249000022815D1DDE90530191A02290ED3049A54
:1024A00019490091811C019127F0F8FFCDE907013E
:1024B00007A8314602221DF0A9FEB0B1042004E0B5
:1024C000C0074FF0040018BF0D200121207061707B
:1024D000284649460BB0BDE8000FBDE8F0402AF0A1
:1024E00005BE162020702BF071B8019851460A9055
:1024F00007A880E8200A07AB204642461BF06DFD86
:10250000F1E700BF060005005856040091F8673354
:1025100001F51472012B12BF91F8561202F58C725C
:102520000121A0B1D0B502AF9388B0F8154112686F
:102530006340D0F8114162401A4390F81731594076
:10254000C90718BF0020002A18BF0020D0BD0020F6
:102550007047D4D4F0B503AF2DE9000794B002ADB5
:102560008846814648212BF09BFCD8F80C40482631
:10257000334B2946482C38BF26463046482229F09E
:10258000EFF90546D8F808008A4621461DF024FADE
:102590008E4251D803462B4800901A462846514691
:1025A000334626F051FA022C09D22D4824F0B2FC11
:1025B000304624F0A1FC24F015FE0A2019E09DF815
:1025C0000800441EE5B20E2D12D22046A6F1010AE3
:1025D0001AF0FEFB80B282451BD109F1010002A96D
:1025E000482240F005FEC9F84C6089F8004008E038
:1025F000072089F80500032089F80400FF2089F8E6
:102600000000D8E900012AF071FD14B0BDE8000710
:10261000F0BD0D4824F07EFC0C480D4CA0470D4841
:10262000A0470D480D4950F8250051F8251022F01B
:10263000D1FB0020A047BEE70A4B0A462BF0E3F986
:1026400088570400A8570400D400000014000000BC
:10265000D36E02003102000008DF0400D0DE040067
:10266000D500000098570400F0B503AF2DE9000F26
:1026700095B01C788046FF2C15D046481D4616465E
:102680008A4693F801B024F045FC434824F021FC2D
:10269000284628F05FFF032C18BF4FF0080B24F0EA
:1026A000A1FD192C05D1FF2088F8000015B02BF0F2
:1026B00001B8B6F858430FA82AF0CEFC0F980028AE
:1026C00048D0A7F143000094C51C0FA90C222BF0A1
:1026D0004FF8A7F152002946C61C0C222BF00CF82B
:1026E00012AD31460C222BF043F802A829460422F1
:1026F0001AF00EF99DF80800DDE903549DF8186002
:10270000FF28DDF8149026D1484631461AF0EEF83D
:10271000E1B380F800B030461AF0E0F8CDE904905B
:102720004046CDE9025402AD009A51462B461BF0BB
:1027300054FC98F80000FF28B5D098E85E002846C1
:102740005EC0164824F0E6FB284628F0F5FE24F08B
:1027500049FDABE716209DF80B1088F80310BDF873
:1027600009109DF81B20A8F80110BDF81910ADF84C
:1027700004108DF8062088F81060C8E90154C8F8E4
:102780000C90A8F8111088F813208DE7044A2AF05D
:102790000EFE00BFCD0000000B020000D2000000C2
:1027A000C8570400F0B503AF4DF8048D92B00DF199
:1027B00004080D4606461146404644221C4640F099
:1027C0003DFCB8682946009030464246234600F05A
:1027D00005F812B05DF8048BF0BDD4D4F0B503AFAA
:1027E0002DE9000FADF29C6D189301F1780A179056
:1027F000DCAE91F8C84006F1600B90460D46022C05
:10280000199132D10DF168092946C82248463FF096
:1028100065FE152028710E2028709DF8685098F8E4
:1028200000000C2D00F2128306F17004DFE815F0B1
:102830000D008C0142012801C9000A01DF010E03CD
:102840007502C6020E03AB029700FF2804BF98F87A
:102850000C10002900F02287411E0329C0F0B88225
:10286000002840F0EF8200F05ABF0DF50C792946A0
:10287000C8221AAE48463FF031FE15209DF83012AE
:102880002871122028700F2998F8000000F2B685F0
:1028900006F16005DFE811F01000C10302039F0498
:1028A000CF04B2057B03E0032204B205AB05320579
:1028B000B205B205E6028803FF2804BF98F80C2091
:1028C0000A2A40F09B85D8F80800002802F0988278
:1028D000199D0C22D8F8041095F81901032808BF97
:1028E0000822DDF860A0DAF8383093F8700393F826
:1028F0007133024485F81A210C7813B1012185F84F
:1029000018110DF59F6858B195F81C0195F81D1127
:1029100040F0030085F81C0141F0030185F81D110A
:102920001AA851461DF009FF9DF891000DF55C793C
:10293000022807D0600741F1C3829DF89000022869
:1029400001F0BE82DCAC2BF06EFA2BF0CEFD01F074
:102950001B822AF029FE8DF8FC5401F0C6BAFF282C
:1029600004BF98F80C10082940F02F82D8F80820EE
:10297000002A02F04382D8F804000478022C81F087
:102980001A800DF59F68062A42F22A82199A50F899
:10299000011FDDF860A0C2F811118188A2F815119D
:1029A00092F8F91082F81741022900F0FB8681881D
:1029B000A2F8F4100068C2F8F00082F8F64000F0C7
:1029C000F1BEFF2804BF98F80C10022900F05186D0
:1029D000042800F23E82DFE810F0E806FB01FB016C
:1029E0000500E8060DF59F600DF59F6B00F1900561
:1029F0001998902200F1180158463FF06FFDDCAEA7
:102A000009F1010111222AF077FE0024D8F8040010
:102A1000C5E90004C5E904049DF87003C5E9024452
:102A2000C007C5E9064401F05C85DDF860A0721CB2
:102A3000B8680021CDE900AB102302908CA8FFF705
:102A4000ABF9CBE1FF2804BF98F80C10022940F045
:102A5000BC8119980DF59F64B02200F10801204651
:102A60003FF03CFDD8E90123A046DDF860A0B8683E
:102A70001B99CDE900A402908CA8FFF78DF9AFE176
:102A8000042800F2E887DFE810F090060500C70789
:102A9000A30190069DF86900002801F0778119993B
:102AA00009F118001022D031CDE9001009F102011E
:102AB00000F043BFFF2804BF98F80C10032940F032
:102AC0008481199D4CA870222AF036FFDAF80000A4
:102AD00005F1980116902022DAE901B9DAF80C60C4
:102AE000C6A840F085FB2AF0A5FF40F09A87D8F8E9
:102AF00004000DF59F6A169A5B461596D0F80910EA
:102B00001491D0F80110139101781291C17B1191A9
:102B10001899D0F80550B0F80D0010905046CDE946
:102B200000965E46FEF7BEFF9DF8F884B8F1FF0FF1
:102B300001F06F828CA80AF1010105302AF0D9FD5D
:102B40008DF8348200F0A8BFFF2804BF98F80C105D
:102B50000B2940F03A81D8E901120DF5467840463C
:102B60002AF09EF9DDF860A02022DAF82C10BEAC25
:102B70002AF0F7FDDAF830104CAE40222AF0BCFD06
:102B80000DF59F6921464246334648462AF0B8F87B
:102B90009DF8F804C00700F049879DF8FB0409F18F
:102BA00006018DF806021222BDF8F9049DF8FC44D6
:102BB0009DF8FD64ADF804027CA840F019FB09F112
:102BC000180079A90DF59F6A0CC80CC1007808702F
:102BD0004CA9504604F03CF89DF8F804FF2801F099
:102BE00072820A2003258DF8710301F097BAFF283D
:102BF00004BF98F80C10032940F0E7802BF09CFBF1
:102C0000DCA83FF06BFC2AF015FF40F01887D8F8DD
:102C100004001B9DDBE90E98D0F801100278129594
:102C200005F07F0542EA0122CBF820201692D0F869
:102C30000930D0F805201C0244EA1264120242EA6C
:102C40001161CBF82840CBF82410C5F14002159152
:102C5000C17BB0F80D00149440EA014041460002E7
:102C600040EA136A4846CBF82CA0DBE90C6440F03C
:102C70005BF91390304621462A4640F03FF9A5F112
:102C8000400204464846414640F038F91399402D29
:102C900038BF44EA0100EF49002D08BF3046DCAAE6
:102CA00061F35F00149B02F12001CDE9003ACDE908
:102CB00002120490BEA8DDE915321BF019FCDBE915
:102CC00000ACDDE9BE648CEA0401DBE90289DDE9E0
:102CD000C03589EA050008438AEA060288EA03014A
:102CE0001143084341F06680DBE904230DF59F643E
:102CF000DBE90601CDE90001204603F083FF9DF8E2
:102D0000F854DDF860A0FF2D01F0FB84611C4CAC91
:102D10002AF0FEFB8CA821462EE0FF2804BF98F87D
:102D20000C10032951D12BF007FBDCA83FF0D6FB98
:102D30002AF080FE40F08886D8F8040004F11005DF
:102D40002AF02DFD0EC5B968E061204602F0AAF810
:102D5000DDF860A0D4E90201D4E900230DF59F64F9
:102D6000CDE9000151462046FEF79CFE2BF0B5FB55
:102D700001F0E6818CA8611C05302AF0BAFC8DF8C0
:102D8000345200F057BEFF2804BF98F80C100729F2
:102D90001BD12AF04FFE40F07C86199890F8F9007C
:102DA000022808D0D8F804000AF168042AF0F7FCD9
:102DB0000EC4CAF874000C2000F06FBEFF2804BFD8
:102DC00098F80C100C2900F0B085411E032936D26A
:102DD0008CA81AA92BF086FADDF860A00DF59F6883
:102DE0009DF83002FF2800F0E7840DF50C790DF511
:102DF0009F60C82249463FF071FB9DF8F8040E28F9
:102E000000F0E484199D0D2840F0008595F8F980C4
:102E1000B8F1020F00F0FA8495F81A0100F00300EF
:102E2000012802BF95F8200100F00300012800F0FE
:102E30002A8595F8F8C04FF0020800F051BD00282F
:102E400000F06B84042804D100F0AFBCFF2840F0F0
:102E5000598498F80C00042800F0F1830D28B7D0AD
:102E600000F0A3BCFF2804BF98F80C20072A40F00C
:102E7000C5822AF0DFFD40F0A486199D95F8F9007F
:102E8000022808D0D8F804000AF168042AF087FC68
:102E90000EC4CAF874000F2000F098BEFF2804BFCB
:102EA00098F80C200B2A40F0A982BEAE09F104016B
:102EB00020222AF021FCDDF864B00DF5467940228D
:102EC0000BF1240A4846514640F092F9D8E9011224
:102ED0004CAC204629F0E4FF0DF55C7831462246E3
:102EE0004B46404629F00CFF9DF87003C00700F0E8
:102EF00070869DF8730308F106018DF8AA0012226E
:102F0000BDF87103ADF8A800BDF874431AAE06F120
:102F1000450040F06DF906F1570008F118012BF05B
:102F2000C3F906F120004CA92AF003FD30465146B2
:102F30002AF0FFFC28465021ADF8AB4040F0CCF819
:102F40009BF80801811E38BF0221DDF860A0C9B2DC
:102F5000022901F034820DF55C79032941F04E829B
:102F60000F202BF09CF9DAF83820D6AEDCAC2AF032
:102F7000BEFF9DF85853FF2D41F0E883E01D1AA9CC
:102F80002AF0ADFC09200DF59F6801F0F9BC98F816
:102F90000C10FF2808BF022900F04F84DDE918A5B6
:102FA000FF2800F0318276E2FF2804BF98F80C2059
:102FB000082A40F02382D8F80820002A01F022874E
:102FC000D8F80400DDE918A50478022C80F04086CA
:102FD0000DF59F68062A41F2058750F8011F0DF58F
:102FE0005C79C5F811118188A5F8151195F8F910CB
:102FF00085F81741022907D08188A5F8F4100068E8
:10300000C5F8F00085F8F64095F822110DF59F609F
:103010005246FEF7ADFF00F0A9BFDDE918A5FF2875
:1030200040F0FC8298F80C100A2900F0DF85012995
:1030300040F0EA81D8E90112DCA82AF091F89DF865
:103040007003022840F0D4860A202AF089FA01F0A1
:1030500090BA00BFC0FFFF7FFF2804BF98F80C2084
:10306000022A40F0CB81199DDCA860222AF064FC82
:103070009AE8500805F188013022DAF80C901AA875
:1030800040F0B6F82AF0D6FC40F0F883D8F80400F7
:103090000DF59878224633468D9D0168169141685A
:1030A0001591816814911899C06813904046CDE934
:1030B00000B9FEF727FF9DF830A1BAF1FF0F01F02C
:1030C000B6800DF59F6208F10101501D90462AF06F
:1030D00010FBFF208DF8FCA401F0CDB8FF2804BF41
:1030E00098F80C20032A40F08981199DDCA8B022B1
:1030F0002AF022FC2AF09EFC40F07A858D98DBE9CC
:103100000EA900F07F04DBF83410A4F14002DBF8D4
:1031100030501591494614905046D8F804601695E1
:103120003FF0ECFE15998046284622463FF0E6FE29
:10313000C4F140021590504649463FF0F5FEB36891
:10314000F568D6F800907268DCA9039120310291ED
:10315000402CCDE91253CDE90035159938BF41EA2D
:1031600000081698002C08BF8046E3482BF022F98F
:1031700090461AA84A4643461BF0BAF9DBE900C15B
:10318000DBE902231AAE1D9870CE6940584008430F
:1031900086EA020184EA0C021143084340F03186BA
:1031A0001499DDF860A0CBE908980DF59F68139895
:1031B0001329CBF828001298CBF82C0041F0DE81BF
:1031C000DCAB199D0DF59F60514605F1D002FFF76C
:1031D0004DF800F04ABDFF2804BF98F80C20022AE1
:1031E00040F00C812BF0A8F81AA83FF077F92AF0EC
:1031F00021FC40F04383D8F804002AF0D0FA85E897
:103200000E00B968E86005F1100001F04BFED5E949
:103210000601D5E90423CDE90001DCAC2AF009FE62
:103220002BF063F940F09686E01D1AA92AF057FBAF
:10323000042000F0E7BEFF2804BF98F80C20032A02
:1032400040F0DC8019980DF1680BB02200F1080104
:1032500058463FF043F92AF0EDFB40F00F83D8F8D1
:1032600004000BF120028168D0F80CA0D0F8049083
:10327000D0F800800020CDE9001ACDE915214B4699
:10328000CDE9022B42460490C6A81BF031F9D5E9DE
:1032900002E3DDE9C646DDE9C802D5E900C15A40CE
:1032A000714080EA0E0011438CEA04021043084387
:1032B00040F0B48505F11003169CC5E908890FCBD1
:1032C000C5E90A4A159DCDF800B001AE86E8200395
:1032D000CDE9044A1BF04AF9199D044695F8080106
:1032E000022841F06381854823F014FE2AF00DFE88
:1032F00023F078FF0DF59F601AAB39E3FF2804BF78
:1033000098F80C200C2A79D1DCA8199C00F1100542
:10331000DCA804F1080150223FF0E0F8D8E90101EF
:1033200005F1280B0E902869139068691290A8691E
:103330001190E8691090286A1490686A1590686B7B
:103340000F9004F58F709BE8000B1691D5E90EA63F
:1033500029F03EFED4F8142120F07F40D4F811115A
:10336000CDF833214C91D4F80D21D4F80A11CDF8C1
:103370006B201A91CDE908A60A904CA80B901AA8C8
:103380000C90139802901298039011980490109842
:10339000CDE9050B0F98CDE900890790D6A8DCA9E7
:1033A000DDE914231BF040F81698102806D1D6A9A1
:1033B0000E981DF017FD002800F039854FF00B091D
:1033C0000325DDF860A00DF59F68BEA908F1060091
:1033D00012223FF00DFFFF208DF8FD948DF8FC5474
:1033E0000DF55C798DF8F804199D00F0C1BDFF283A
:1033F00004BF98F80C20032A00F0A782FF280BD105
:1034000098F80C10DDE918A5042924D02AF0A8F8B2
:103410000D2900F008810DE1DDE918A5053908291D
:1034200000F2FC80DFE811F009003700FA00FA0032
:103430009200FA00FA00DE00F700012800F0E282B4
:103440002AF08EF8022840F0F58040F60340ADF8EF
:10345000FC0400F090BDD8F808000DF55C79002858
:1034600001F0C884D8F804000478254823F052FD00
:10347000601EC0B2102828BF0824204628F00EF98C
:1034800023F0B0FE03208DF8FD448DF8FC040DF50B
:103490009F6800F070BD032840F0C080DCAE05F1ED
:1034A0001801902230463FF019F80020D8F8041097
:1034B000CBE90C103246CBE910100021CBE90E000D
:1034C0005346CBE91200B8689DF8315200901AAC0F
:1034D0002046FEF743FE9DF86860FF2E00F09183C2
:1034E0000DF59F68611C08F105002AF002F98DF8BE
:1034F000FC6400F035BD00BFC0FFFF7F340000005A
:103500009300000008A404002000000094000000C4
:10351000D80000001F000000DC000000E2000000F6
:10352000DA000000CB000000D30000001E00000005
:103530009DBC0200BCD50400E4000000CE000000E9
:10354000D700000064000000C9000000042865D115
:1035500005F108011AADB02228463EF0BFFFD8F8A9
:10356000010008F1210416902022D8F80D00214610
:10357000D8F805B0D8F809A015904CAE2AF0BCF8E0
:103580005FF8801020461DF02DFC40B95FF88C10CC
:1035900006F110001DF026FC002800F0AB8429463F
:1035A0000DF598792031002099E860033346CDE984
:1035B0000089CDE902112A460490DCAC20461AF0BD
:1035C00097FF4CA800F1100120461DF00BFC0028CD
:1035D00000F09484FF208DF8F80440F20340ADF829
:1035E000FC044DE1D0B998F80100002800F08B836D
:1035F0005FF8EC0023F09AFC95F823010DF59F6825
:10360000800700F13D8695F822110DF59F60524626
:10361000FEF7AEFC29E3002800F0E88129F0A0FFC6
:103620000138022806D20DF59F608CA92AF05AFEB7
:1036300000F09CBC15208DF8FC0400F09CBCD8F870
:103640000800002801F0D883D8F8040004785FF857
:10365000440123F05FFC601EC0B2102828BF08247C
:10366000204628F01BF823F0BDFD8DF835420320DD
:103670009CE02AF0DFF940F08781D8F804108CAC88
:10368000A01C2AF091F819990DF59F682AF0B2FB59
:103690002AF0E8F8DDF860A004207DE118990DF526
:1036A0009F60D8E901A91DF048F89DF8210502287E
:1036B00019D00D200DF59F688DF8F8041898434631
:1036C000816A826BDCAC2AF0D4FC9DF87003FF2881
:1036D00009D02AF018FB5FF8C80123F01BFC2AF080
:1036E000F8F823F07FFD0DF59F6051464A4629F01A
:1036F00037FD9DF8F844022C40F052812AF04AF838
:103700000A20BBE2072D08BF042800F0CA81411E31
:103710000329FFF45DAB002847D10A2D45D198F865
:103720000100002800F027815FF8180223F0FEFB5B
:10373000DDF860A00DF59F680DF55C793DBB0DF5DA
:103740009F64514620461CF0A6FF9DF82155FF2D91
:1037500000F00087DCAC0DF59F6129222AF001F80A
:10376000DDF822052146199E29228890BDF82605FC
:10377000ADF8240206F1D0003FF03AFD8898C6F873
:10378000FA00BDF8240286F8F950A6F8FE0019994F
:1037900091F81D01800700F1AB8291F822018007AA
:1037A00000F143850D2001F0E2B815208DF83402B8
:1037B000DDF860A00DF59F688CA808F104010430C5
:1037C00090E87C000E207CC18DF8F8040DF55C7942
:1037D00008F1040109F104001DF062FB0C202AF03D
:1037E0005EFD4B46DAF838204CAC2AF042FC2AF059
:1037F0004FFC0AD02AF082FA5FF8E40223F08AFB39
:10380000484627F099FE23F0EDFC199D0DF59F61C8
:1038100028462AF067FD8CAC2946204628F0B2FAEB
:10382000FF208DF870039DF83002DCAEFE2818BF33
:103830002646179D96E81F00DAE3DDE918A52AF071
:10384000F9F840F0CA80D8F804100DF59F6808F127
:10385000020029F0A9FF0DF55C7905F1180109F1C5
:1038600006002AF03CF8012049468DF8F90408F1D9
:103870001200B6223FF0BCFC062038E329F0D6FF48
:1038800029F088FF6FE34CAE05F1D0045146304675
:1038900022461CF082FE2AF0FBFB10D00DF55C7A6C
:1038A00096E83E0050463EC05FF890032AF010FDB7
:1038B000504605F1D00427F03FFE23F093FC20682A
:1038C00005F1E00C1690AB4660681590D4E902AEA5
:1038D0004C469CE86F006FC4DDE915209BF8F8C0EA
:1038E000CDE9E0AE0DF55C7ECDE9DE020EF118010A
:1038F0008DF871C399E87D00F1467DC10B207346B8
:103900008DF8700318988DF8A1838DF8A0C3816A93
:10391000826B4CAC2AF0ADFB2AF0BAFB3FF475AFDA
:103920002AF0ECF95FF8080468E7199B09F1080030
:10393000D8E90112D033CDE900308CA8DDF860A0C1
:103940005346FEF7E5F8FFF749BA199DDCA8B02207
:1039500029F0F2FF2AF06EF840F04E81D8F804000A
:1039600029F01DFFFF90FCA80EC0DCAB0DF59F6099
:10397000DDF860A04AE05FF8540423F0D7FA2AF09B
:10398000BCFD40F603702FE20520DDF860A08DF845
:103990003402FF200DF59F688DF83002FFF722BA40
:1039A0009DF8FA540DF59F68DDF860A0280700F136
:1039B0005F81032062E15FF8900423F0ABFA2046B8
:1039C00021F0C0FB23F00EFCDDF860A005200DF512
:1039D0009F688DF8340200F0C9BF05200DF59F687F
:1039E0008DF8FC04FF200DF55C7980E298F8010069
:1039F000002800F095815FF8CC0423F097FA11209D
:103A000000F045BC09F108030DF59F6005F1D002F7
:103A10005146FEF72BFC26E140F60340ADF8340298
:103A2000C6E640F60320ADF8340235E040F6033038
:103A3000ADF83402FF200DF59F6800F098BF2AF022
:103A40005CFD40F60320CFE12AF057FD05208DF8FC
:103A50003402FFF7C1B99DF8690000287FF4F9A985
:103A600098F80C000C287FF4F4A929F0E3FF40F04B
:103A7000C186D8F804108CACA01C29F095FE1999C9
:103A80000DF59F682AF0B6F929F0ECFE032000F04E
:103A9000B7BE05208DF83402FF208DF83002FFF705
:103AA0009BB9199C0DF59879B02204F1080148469C
:103AB0003EF014FD08F121060DF5467A202250460D
:103AC00031463FF095FBD8F801001690D8F8090070
:103AD0005FF8D0151490D8F80D0015903046D8F83E
:103AE000055094F81EB128F0D1F840B95FF8EC15F4
:103AF0000AF1100028F0CAF8002800F0FC84CDE993
:103B000012B5C6AB0DF53E780FCB119000BAC1903F
:103B100008BAC09010BA10914146BF9018BA0F92DF
:103B20000E93BE90DCAE304620F0AEFF0DF59F64E4
:103B3000002531464FF4B8722046CDF8DC54CDF85C
:103B4000D854CDF8D454CDF8D054CDF86856CDF82B
:103B50006C56CDF87056CDF874563FF06FFADCAE67
:103B600021464FF4C0722AF076FC09F120045FF878
:103B700040963046202221468DF8F054C847304602
:103B800021462022C8470DF59F64304601228DF85A
:103B9000F8542146C847204631464FF4C2723FF0E0
:103BA0004DFA9DF878A604F5B8715FF878361022C2
:103BB000504627F01AFB002966D000F8015B013956
:103BC000F9E70520199D8DF8FC04FF208DF8F80415
:103BD00014E040F60330DDF860A0ADF8FC04FF20EF
:103BE0008DF8F80429F0BCFC5D46BFE101204EE3EE
:103BF000052029F0CFFD08E129F018FEDDF860A0CE
:103C000031E00DF59F68E80700F0508109F10200EE
:103C100029F0C5FD8BE80E00CBF80C00DBE90601AE
:103C2000CDE900015146DBE904231AAC2046FEF73A
:103C300069F99DF86850FF2D40F08E8108F1080069
:103C4000DCA92AF011F80020CDF8FC04082088E156
:103C50005FF81C0723F05EF9204621F073FA23F089
:103C6000C1FA29F0E3FD0DF59F680DF55C797DE162
:103C70009DF8FB64102E80F0708206208DF83502CE
:103C800003208DF8340297E5A7F13C060025204675
:103C900047F83C5C31468DF8785647E90E5547F8B1
:103CA000305C28F05DF8A7F12C09314648461DF03C
:103CB00053F904F5B076102D09D06019013590F84C
:103CC000601190F87021514080F86011F3E7BAF16B
:103CD000100F40F06C8229F05DFDDDE912B5002087
:103CE000102800F07D8219F8001029F0FFFDF7E799
:103CF000DAF83C4004F108032AF03BFB00F0918322
:103D000082AD0FC592E35FF8CC0723F00FF940F6C0
:103D100003700DF59F68ADF8FC040DF55C792AE1A0
:103D20000DF55C7829F0C9FF0DF168090D204346B7
:103D30008DF8700348461CF007FC2AF0BEF80BD043
:103D400099E86E0040466EC05FF80C082AF0C0FA91
:103D500029F0BFFD23F046FAE00700F093825FF8F8
:103D60001C0823F0E3F8DCAC2AF05DF89DF87053F2
:103D70000DF59F680DF55C79FF2D00F0478529F062
:103D800013FC8DF8FC54F6E00120AFE019990DF515
:103D90009F6808F10700B02218313FF029FA092086
:103DA00041468DF830028CA82AF0B2F8DDF860A008
:103DB000FFF71BB85FF870089B46169535466646B8
:103DC00023F0A8F85046314642464B4627F0B2FA57
:103DD000169B284621465A4627F0ACFA23F002FAF1
:103DE0002AF08BFB40F20340ADF83402FEF7F4BF3B
:103DF0009DF8721329F0B4FB0A0700F1B483032085
:103E0000B7E329F0C7FC199D032004218DF8FC04B9
:103E1000FF208DF8FD148DF8F80426E7DDF860A08A
:103E200029F09EFB40F60340ADF8FC04E2E3DDF828
:103E300064B002260DF168089BF81A119BF8204126
:103E40009BF8080101F0030104F0030481F0010173
:103E5000022884F0010408BF01262143DDF860A098
:103E6000B1FA81F1D5E900234909D5E902050391A9
:103E700051468DE8610040461CF0ECFA9DF8685010
:103E800008F102019DF8699012229DF89160C6AC7C
:103E900029F067FC022E40F0AF83BEA84ECCFF2D68
:103EA0004EC0218801807FF48EAADDE308F108006E
:103EB000DCA929F0D9FE0020CDF8FC04072050E051
:103EC000DCAC514620461CF0E6FB9DF89953FF2DD3
:103ED00040F0CF830DF5987C94E86E0060466EC08C
:103EE00008F104009CE83E003EC0FF20199D8DF8BB
:103EF000F8043DE00DF5987999E860031AA800F1FF
:103F00007004199890F81E01002804BF8246834669
:103F1000169908BF0146159A08BF0246C4E9081B56
:103F200004F13000B968C4E90AA280E86003DCA8A3
:103F300000F0B8FFDDE9DE01DDE9DC23C4E90023A0
:103F4000C4E90201CDE90001DCAC29F072FF2AF0DE
:103F5000CCFA52D00DF59F6829F026FB8DF8FC5461
:103F6000FF208DF8F8040DF55C79199D9DF8F80493
:103F7000FF2840F0928108F1040009F1040190E863
:103F80007C0012207CC14C46199D8DF8700308F10D
:103F90000400211D1CF084FF0C20DAF828108DF895
:103FA000F8044346DAF838204CAC2AF062F82AF0DC
:103FB0006FF809D029F0A7FEDFF8900E2AF088F9F3
:103FC00029F087FC23F00EF91AACDCA928462AF068
:103FD00089F92046294627F0E6FEFF208DF8F804EF
:103FE0009DF86800FE2818BFA046179D98E81F009E
:103FF0001FC50DF29C6D29F05DBBE01D1AA929F0CB
:104000006EFC0A200DF59F682AF028F93FF0F0F8C1
:10401000A9E7DDE91010702241EA00484CA9DCA8AC
:104020003EF05CFA139A28022946149DDDF858B038
:1040300040EA126A1298C4E900B640EA0222280255
:1040400040EA11614FEA082040EA1568159D139275
:10405000C4E9035220221291C4F80890C4E905A1D2
:10406000C4F81C80DCAC04F19000C6A93FF0C0F895
:1040700004F12000129A8DE8110851464346139826
:10408000CDE9036905951AF071FA0446199890F87C
:104090000801022840F00F83DFF8C00D22F03AFF3C
:1040A00029F033FF23F09EF80DF59F64DCA9E01D95
:1040B00029F015FC092021468DF830028CA829F042
:1040C00027FFFEF789BE1694D6A800F102080AF170
:1040D0000401102229F06DFD82A84146841C29F0BC
:1040E00079FA0DF508782146102229F062FD0DF5C8
:1040F0005C79189942462AF06FF92AF0F6F900F037
:104100002B8399E85E0050465EC0DFF8540D22F024
:1041100001FF504627F010FA23F064F88CA8DCA9C0
:104120000530013113220DF59F683FF061F8FF2043
:104130008DF834528DF83002DDF860A0FEF750BEE5
:10414000E01DDCA929F0CBFB092021468DF83002C7
:104150008CA829F0DDFEFEF741BEBDF8FC949DF869
:10416000F9845FEA897041BF199991F81C0140F008
:10417000020081F81C015FEA895040F13584DAF8C9
:104180003C30D3E902E1D3E9042341EA030C4EEACF
:10419000020050EA0C0000F01084CDF8F8E4CDF8ED
:1041A000FC14CDF80025CDF8043500F00FBC16F84E
:1041B0000A00A7F12C0180F0800006F80A004046B2
:1041C0001CF0CAFEDDF860A00020DDE912B5102861
:1041D00004D018F8001029F089FBF8E70DF59F6866
:1041E0000DF59F60314627F0BBFD0FCE00BAC190A0
:1041F00008BAC09010BABF9018BABE90C6A800F115
:104200001001BEA827F042FD0DF1380EDDF844C0C4
:1042100000289EE8104200F076812AF06EF940F204
:104220000340ADF83402FEF7DBBD0B209FE30DF534
:104230009F6ADCA90AF1080060220AF168083EF0D2
:104240004DF9169808F10C01C8F8000030221598B5
:10425000C8F804001498C8F808001398C8F81C900F
:10426000D04681E851080AF188001AA93EF0C0FF43
:10427000CDF8FC5408208DF8F804DDF860A072E653
:104280000E2006E0DFF8AC0B22F050FE10200DF5FA
:104290009F680DF55C798DF8F8044C460DF59F6923
:1042A000DCA8C82249463EF019F99DF8700312288F
:1042B0003FF46DAE1AAC11287FF487AE95F8F98003
:1042C000B8F1020F04D1DFF87C0B22F02FFE73E06F
:1042D00095F81A0100F00300012802BF95F82001AB
:1042E00000F00300012804D095F8F8C04FF0020850
:1042F00031E04CAE05F1D00B514630465A461CF029
:104300004CF929F0C5FE0CD096E83E0048463EC068
:10431000DFF8280B29F0DCFF484627F00DF922F0E2
:1043200061FFDBF8000005F1E00C16900DF1680E5E
:10433000DBF8040014907446DBF808001590DBF8F5
:104340000CA0AB469CE86F006FC47446DDE91421F5
:1043500016989BF8F8C0CDF804252246CDF8000544
:1043600009F1180E8DF8F9C4CDF80815CDF80CA593
:1043700092E87B008EE87B000B204B468DF8F8041A
:1043800018988DF829858DF828C5816A826B4CAE06
:104390002AF064F829F07CFE0CD096E83E004846EE
:1043A0003EC0DFF89C0A22F0B5FD484627F0C4F86D
:1043B00022F018FF1AAC199D0DF59F6805E629F04B
:1043C000CFF8002800F025820A2029F068FFDAF8EB
:1043D0003820D6AEDCAC29F08AFD9DF85853FF2D6D
:1043E00040F0B681A01D1AA929F079FA06202146CD
:1043F000ADF8F80408F11200B622C3E208F1070094
:104400001AA9B0225D463EF0F3FE03200DF59F622F
:104410008DF8F804501C41469046B7223EF0E8FE65
:10442000A4E50020CDE98400CDE982000DF59F666A
:1044300082A9304602F0B4FC2AF04FF846D14CA8CD
:10444000311D00F10309102229F0C3FFD6AE494601
:1044500028F0A9FF0DF59F685146324640461BF0F3
:10446000C6FF2AF03AF840F06B812068C10700F0DF
:1044700073826168000A0DF59F660A0E8DF8F621B9
:104480000A0A40EA01607C90ADF8F4217CA930462C
:1044900002F0D0FC9DF8F8540DF59F68FF2D15D162
:1044A000311D484629F080F9BEAE494628F07BFF11
:1044B0000DF59F645146324620461BF098FF2AF0C6
:1044C0000CF840F010841999FFF767B9711C4CAED5
:1044D000132229F011F9C6A81ECE1EC029F082FEB3
:1044E0003DE28CA80DF59F61083029F0BDFB8D944D
:1044F0000520FFF7D2BADDE9C6CE0DF59F68DDE9EC
:10450000C894DDF860A04CA8149E90301BF0010107
:1045100004BF0E460D46169A08BF0A46159B08BFF3
:104520000B4600F10C0180E86400B022C0E906945B
:1045300008F1070081E808504CA93EF059FE082018
:1045400041468DF830028CA80130B7223EF050FE73
:10455000FEF746BC29F0D2FB49468CA891E87C00C6
:1045600004307CC002E29DF873230F2A00F2BA8166
:1045700006208DF8FD040320FFF75DB8B8684C1CD9
:1045800000901AAEDCAA214630465346FDF7E6FD00
:104590009DF868500DF55C79FF2D24D108F10800D5
:1045A000DCA929F061FBCDF8FC4499E1DFF86C0847
:1045B00022F0B0FC29F0A9FC22F014FEDDF860A086
:1045C00009208DF87003DD9429F077FB4CAEDCAC4C
:1045D00029F08DFC9DF830510DF59F680DF55C7943
:1045E000FF2D00F0C88108F10500711C29F081F849
:1045F0008DF8FC54FF20A2E208F1140C16960DF57C
:104600009878BCE84F00C646AEE84F009CF8000022
:104610008EF80000BDF89600ADF80C02DDF89200AF
:1046200082901AA94DCC8C46ACE84D00122220880D
:10463000ACF800000BF1D2008BF8D1908BF8D05081
:104640003EF0D6FDB8E83E000BF1E4003EC01699FE
:104650008BF8F91098F8001001708298CBF8FA00E6
:10466000BDF80C02ABF8FE000C200DF59F68FEF7BC
:10467000B7BE4CA8DCA929223EF0BAFDDDF89A03AA
:10468000022DC690BDF89E03ADF81C0300F0AF8369
:104690004CA9199C292204F1D0003EF0A9FDC6982E
:1046A000C4F8FA00BDF81C0384F8F9502546A4F8B4
:1046B000FE000D201BE4DFF8A00722F02BFC29F000
:1046C00024FC22F08FFDDDF860A00920CDF8FC4429
:1046D0000DF59F6429F0ECFA2346DAF83820BEAED7
:1046E00029F0BCFE9DF8F8520DF59F68FF2D00F0F3
:1046F0004D818CA8711C053028F0FBFF8DF83452D9
:1047000034E14CA8211DC61C28F04DFEC6AC314634
:1047100028F060FF0DF59F665146224630461BF09B
:1047200066FE9DF8F8440DF59F68FF2C00F03A8175
:104730008CA8711C053028F0DCFF8DF8344215E19F
:1047400008F10101C6A828F0D4FF06E10DF59F6825
:1047500008F10500711CEDE14CA9484629F0E9F883
:1047600009F12004C6A9202228F0FBFF1698122286
:104770008DF8B303BDF80402ADF8B0039DF806024E
:104780008DF8B20309F145008DF8B4637CA93EF0C1
:104790002FFD09F1570079A929F086FD58465021CF
:1047A0003EF09AFC19990DF59F6891F808010238BE
:1047B00038BF0220C0B2022800F0C581DDF860A039
:1047C000032840F0F7810F200DF59F6529F070FA5E
:1047D0002B46DAF83820D6AE29F040FE9DF8584333
:1047E000FF2C40F06582E81DDCA929F078F807204D
:1047F0002946A6E605200DF59F688DF83402FF20B6
:104800008DF83002DDF860A0FEF7ECBA199D0120AA
:1048100041E506F190001690E44840F2FF18D7F801
:1048200008A04FF0FF39834650461FF06BF904464D
:1048300050460E461FF066F9DD4D0023A0FB050231
:10484000E1FB0523A4FB0541A6FB056576184FF0A7
:104850000001454152F1000253F1000024EA08032F
:1048600041F10001BBEB030379EB060379EB050390
:1048700079EB0202D8D3169C0022DDF860A004F187
:10488000100384E8070083E8070008218DF87013FF
:10489000DA60E260DD9029F010FAD6ACDCAB29F0EA
:1048A000E8FB9DF858530DF55C79FF2D40F03D81F4
:1048B000B86800210090DCAC1AAA534620460026B6
:1048C000FDF74CFC9DF870530DF59F68FF2D40F0EF
:1048D0002E8108F108001AA929F0C6F9CDF8FC6468
:1048E00007202CE185F8201105F58F7185F81E0150
:1048F00005F58C70BDF874339DF87143A5F822312D
:1049000085F8212185F81F4128F06CFB85F8080106
:10491000DFF8100585F8091122F0FCFA29F070FA89
:1049200022F060FCDAF82C104CA829F002F8DAF832
:104930003010DCAE402228F0DFFE0DF16808314671
:10494000404602F085F929F0B8FA00F07A810A2091
:1049500003248DF819039FE105250DF59F688DF857
:1049600034528CA80530C6A928F0C3FEFF208DF86C
:104970003002FEF735BAE01D1AA928F0B0FF052075
:1049800029F06CFC3EF034FCFFF7EFBAA01DDCA967
:1049900028F0A5FF03202146ADF830028CA8123084
:1049A000B622D3E5129C132C40F08881F01DDCA9BF
:1049B00028F095FF09203146C3E50020CDF8040515
:1049C000CDF80005CDF8FC04CDF8F804DFF8681444
:1049D0000DF59F601CF006FA30B1199991F81D0190
:1049E00040F0020081F81D0119980C2180F8205137
:1049F000054680F81F8105F58C78A0F8229180F893
:104A0000216180F81E4190F81901032808BF082190
:104A1000DAF8380090F8702390F87133881885F828
:104A20001A0105F58F7013B1012188F80010414675
:104A300028F0D8FA85F80801DFF8340485F8091160
:104A400022F068FA29F0DCF922F0CCFB0DF59F602A
:104A5000012102F087F829F040FD3FD19DF808655B
:104A6000DDF80445BDF80905ADF8180331469DF899
:104A70000B058DF81A032046DDF8FC94DDF800558F
:104A800017F034FF29F015FA40461A4628F058FB73
:104A9000C0B2022844D1CDF8F8940DF59F68BDF856
:104AA00018030DF55C79ADF8050551469DF81A031C
:104AB00042468DF8070548468DF80465CDF8004557
:104AC000CDF8FC541BF093FC29F00FFD59D10DF5E6
:104AD0009F6801208DF83002FEF787B99DF8082500
:104AE0009DF8FB048DF88023DDF804258DF8730311
:104AF000BDF8F904DF92DDF800259DF80B15ADF83F
:104B00007103BDF80905DE92DDF8FC24ADF8300133
:104B10008DF83211DD928DF88313ADF881033BE0FF
:104B2000484629F0A0FA052536E00DF59F6808F102
:104B30000500611C28F0DDFDFF208DF8FC548DF888
:104B4000F804FFF712BADDF860A091F80901002817
:104B500000F0CE800A200DF59F6529F0A9F82B46BC
:104B6000DAF83820D6AE29F079FC9DF85843FF2CAE
:104B700040F09E80A81DDCA928F0B1FE0420294643
:104B80000AE799E85E0040465EC0BA4822F0C2F9E2
:104B900028F09FFE22F026FBDCA98CA8053001310D
:104BA00028F0A7FD8DF83452FEF704BEFFC5FCFFC8
:104BB00040420F00B9680BF1100000F073F9DBE917
:104BC00006010025DBE904238DE803020DF59F6053
:104BD000CDE9034519F08CFCDDF804150DF59F684F
:104BE000DDF8F824DDF8FC34DDF80005CBE902013E
:104BF000CDE900014046CBE9002301F0DDFF9DF83F
:104C0000F844FF2C63D182A808F10401C61C28F0E7
:104C1000CAFB88AC314628F0DDFC0DF556795146CB
:104C2000224629F0D9FB9DF85843FF2C40F08080A4
:104C300008F10700DCA928F052FE02204146FFF7E8
:104C400085BABEA808F10401861C28F0ACFBD6A8E2
:104C50003146841C28F0BEFC0DF502792146102255
:104C600029F0B7FB51460DF5467A4A4650461BF0EF
:104C7000BEFB9DF81843FF2C40D09AE86E004046DA
:104C80006EC0694822F046F928F023FE22F0AAFA05
:104C9000DDF860A00DF55C79C6A90DF59F6808F1F7
:104CA0000500013128F025FD8DF8FC44FFF763B9BC
:104CB0008CA8711C053028F01CFD4CE08CA8DCA9E8
:104CC000083028F0D1FF601C8D9005204FE682ADA2
:104CD00008F10101132228F04BFDD6AE2946701CC5
:104CE00028F007FD30E0611CC6A828F002FD36E67A
:104CF000DAF8000098B3DAF8041049E008F103008C
:104D00004CA928F016FE0DF59F64DCA904F12400DF
:104D100040223EF06DFA022041468DF8F804601CF6
:104D20002322A0463EF064FADDF860A0FEF79DBFA6
:104D300099E86E0040466EC04C4822F0EBF828F02F
:104D4000C8FD22F04FFAD6AE8CA8711C053028F0B1
:104D5000D0FC0DF59F68FF208DF8344207E6BE6851
:104D60002F4C414DD6F80001402807D33046002192
:104D700018F054FBD6F80001402846D2421C56F8E1
:104D80002000C6F80021A0FB0401A8421046EBD881
:104D90000BF1400000260BF13002CDF8FC14C0E905
:104DA00000160DF59F63C0E902660820C2E90016EF
:104DB000C2E9026628F07CFFDAF83820D6AD284632
:104DC0001BF0C2FB9DF858438CA8FF2C05D108307E
:104DD000DCA928F049FF8D9677E70530691C6AE762
:104DE0001B4B00E00B4B0120072121F04BFA0F4831
:104DF00021F0DEFE144A06E01F4A04E0154A02E0F4
:104E00000B4A00E0044A28F0D2FA164A402121F069
:104E10007FFA00BFD8560400C856040036000000D0
:104E200040420F0037000000E0000000B8560400C8
:104E3000A8560400CF00000008A40400E30000000E
:104E4000D9000000E500000098560400DB000000D7
:104E500028D4040018D404003500000033000000FA
:104E6000E10000004CA204007F3DF1FFDD000000E6
:104E700038000000D600000078560400D0B502AF1C
:104E800092B0BC688DF81020FF228DF80420CDE987
:104E900002343A69FB68009201AAFDF79FFC12B048
:104EA000D0BDD4D4F0B503AF2DE9FF07DFF894905F
:104EB00000260D468046EA46CDE90266CDE9006649
:104EC0000F2E1ED8D5F80041402C07D328460021CC
:104ED00018F0A4FAD5F80041412C2AD230465146A8
:104EE00010224B4626F081F902460B4605EB840062
:104EF000C4F1400123F0B8FD2044C5F800010E4480
:104F0000DEE704A89AE81E001EC004AB28F07EFC71
:104F10001FBFA8E80F0008B0BDE80007F0BD0848B3
:104F200021F0F8FF04A826F07DFC22F05BF922F0C6
:104F3000A7F8054B20464021402221F0A3F900BFED
:104F4000EB000000DCDA04003CA20400D0B502AFA4
:104F50000F4A5269BFF35F8FA2B152680123014427
:104F60001360002388420AD0D2F80041002CFBD005
:104F7000C2F80031D2F8084500F8014BF2E70120F1
:104F80005060D0BD034821F0D1FF22F079F800BF76
:104F900098E60320AD000000D0B502AF04460A48F1
:104FA00021F097FF2078FF2806D028F074FC2046D7
:104FB000BDE8D04026F0C0BA28F029FD6068BDE801
:104FC000D04023F0DFB800BF05020000D0B502AF2B
:104FD00004460A4821F07DFF2078012806D128F0F8
:104FE0005AFC6068BDE8D04023F0CCB828F00FFD33
:104FF0006078BDE8D0401FF025BF00BF1101000060
:10500000F0B503AF4DF804BD0446764821F061FFCA
:105010002578FF2D15D128F03EFC784821F059FF66
:105020002579FF2D26D128F036FC794821F051FF53
:10503000207A21F089FF608921F04BFFD4E9030138
:10504000B5E00020002621F07FFF674821F041FFF6
:10505000B5F10A0098BF3046E0B1012829D128F007
:105060001AFC634821F035FFA08921F032FFD4E912
:1050700001019CE028F0CBFC614821F02AFFDFE829
:1050800005F00543233221505B415F0028F0BFFC4F
:10509000E08811E028F0BBFC564821F01AFFDFE859
:1050A00005F0066A575C517A8C6096538E0000209A
:1050B00062E028F023FF4D485DF804BBBDE8F040F6
:1050C00021F007BF04202DE028F018FF4D4821F003
:1050D00000FF4D48257D21F0FCFE681E18BF012011
:1050E00021F032FF15E028F0B8FF607921F02CFFA5
:1050F000208921F0EEFEA0795DF804BBBDE8F04008
:1051000026F0BEBA072018E028F0C5FB3F4821F082
:10511000E0FE04F108005DF804BBBDE8F04026F0B5
:105120000FBB052021F010FF04F108005DF804BB5F
:10513000BDE8F04026F0F4BA062021F005FF34E087
:10514000082048E0042004E0092021F0FDFE8EE75D
:10515000022021F0F9FE6088AEE728F07EFF60882B
:1051600083E7072021F0F0FE608821F0B2FEA088DE
:1051700021F0AFFE19E0012021F0E6FE608A21F067
:10518000A8FEA08A21F0A5FE601C5DF804BBBDE866
:10519000F04026F0E7BA052021F0D6FE6088164DD3
:1051A000A847A088A847E088A847D4E902015DF88D
:1051B00004BBBDE8F04022F0C3BE062000E00A2098
:1051C00021F0C2FE608821F084FEA08874E70820E8
:1051D00021F0BAFE60785DF804BBBDE8F04021F034
:1051E000B3BE00BF02020000130200000302000071
:1051F0001A02000010020000D36E02001402000028
:10520000080200000A020000190200000902000062
:105210000E020000D0B502AF0446044821F059FE4A
:105220002046BDE8D0401EF02DBD00BF1400000098
:10523000D0B502AF04460A4821F04BFE2088012871
:1052400009D128F028FB074821F043FE6088BDE81B
:10525000D0401FF0B1BD0020BDE8D04021F074BEA9
:105260000E0000000F010000D0B502AF0446044854
:1052700021F02FFE2078BDE8D04021F065BE00BFB0
:1052800015000000B0B502AF0546044828F033FE13
:1052900028462146BDE8B04021F0E0BE02000000F3
:1052A000F0B503AF2DE9000FB1B0054688680024C2
:1052B000884600288C6053D0D8E9046B0A90B868FF
:1052C000D8F80C1000280895099153D0304659465B
:1052D0001AF082FB2BAC28F0ECFD20461A4627F092
:1052E00059FA2D980E3405900A222C9821460690E2
:1052F0009DF8AD00BDF8B8A0BDF8AE509DF8AC90DB
:10530000079017A83DF074FFB9F1FE0F00F09E81E1
:1053100017A920460A223DF06BFF0598B9F1FF0F4F
:105320002D9006982C900798ADF8B8A0ADF8AE5027
:105330008DF8AD008DF8AC9000F094810122002032
:10534000B9F10A0FA9F10B0188BF52FA81F00028C8
:1053500000F0BC80012800F0C6804FF0000AC2E0D7
:1053600098F80410D8F800001BF0BEFEAC6029715C
:1053700028601AE130465946CDE906231AF02CFB85
:105380002BAE28F0F2FB0DF15C0BB11C16229DF840
:10539000ACA058469DF8AD903DF02AFFBAF1FE0F43
:1053A00000F05981594611A87CC97CC01622098891
:1053B000018059468DF82D908DF82CA00BA8023055
:1053C0003DF016FFBAF1FF0F00F051818DF85D90AE
:1053D0000BF102008DF85CA011A9162216243DF0F5
:1053E00007FF2BA827F038FE2B9D002D69D0DDE9A3
:1053F0002CA1FB200DF1AC0B0422CDE91D100020E7
:105400001F90584603911DA94FF0040926F04AFA4F
:105410002B9E9DF8B040002E00F0B4800BF10501EA
:105420000DF1980B1322CDE9045A58463DF0E0FEE9
:10543000DDF89B100DF18C0922910BF107012698E4
:105440000C22CDF8850028F0C4FFD8F8005098F859
:1054500004A0D5E900018DF884405246209618F04A
:10546000B1FF1FFA80FB484626F084FA864B0246BD
:105470000E468B4528BF8B4611465846324626F0CD
:105480006FFACDE900012BA817AB0699079C42469D
:10549000A0479DF8AC00FF2800F08A80089E9DF888
:1054A000AF1006F10805F171BDF8AD10A6F80510B2
:1054B0002CAC30711ECC1EC5DDE9045A00203060D2
:1054C0006BE00899002008600C716AE0B9F10A0FDE
:1054D0003FF643AF0120AA4600FA09F040F20C4122
:1054E00008423FF43AAF304659461AF075FA00299F
:1054F00000F0C78098F80450D8F800600DF15C08FF
:105500000078ADF860A00DF12C0AF9682A468DF8F4
:105510005D0003208DF85E1031468DF85C0050462A
:10552000434600F0BDF89DF82C40FF2C0BD011AD88
:105530000AF10101132228F01BF9089E294628F0E0
:1055400008F900251BE011A80AF10401C41C28F089
:1055500041F80DF12C0A2146102250463DF048FE3C
:10556000304629461BF0C0FD054608F103000C46F5
:10557000514628F019F9089E414628F0EAF834719E
:1055800035600EE008990120487100200860E007AE
:1055900018BF4FF00D0981F804902846514627F0B6
:1055A000A5FDDDE9091027F0A1FD31B028F082B892
:1055B000089E2C98012809D1DDE924212D98521A42
:1055C00082420ED24FF48270B08075E72846514671
:1055D0001BF08AFD002231713060B260DDE9040108
:1055E000DDE70C1820A8D146AB46214624F0B6FFD3
:1055F000DDE9045AC0B2022816D120A804214FF0D8
:10560000040824F0ABFFC0B2022816D12298494604
:10561000044458461BF068FD039AC6E9025AC6E9DD
:10562000042431713060BCE70121C00771714FF073
:10563000040018BF0D20307140E701217171C007CF
:1056400018BF4FF00D0886F8048037E7134821F0A3
:1056500061FC079803E00E4821F05CFC484626F008
:105660003DF80AE00C4821F055FC2BA803E0074860
:1056700021F050FC0BA8FFF7C3FC21F0B3FD21F093
:10568000FFFC044A27F093FE2C580400F6000000AB
:10569000FB0000003C580400F8000000FC00000083
:1056A000F0B503AF2DE9000F9BB0044615A898464E
:1056B00091460E4627F0D0FC159D002D64D016981B
:1056C0000DF1540B0690FB2017990422CDE9071029
:1056D00000200594042409905846CDE903690191FE
:1056E00007A926F0DFF8DDF854A09DF85890BAF12C
:1056F000000F57D0029510AC0BF1050127F008FF01
:10570000DDF843100C2210980C91E11DCDF82D000E
:105710000DAE27F0F1FF8DF82C900BF10400CDF8C1
:1057200028A098E83E003EC05946FF208DF854005E
:105730003046FBF76FFEC0B2022828D10398049AC6
:10574000D0E9000118F03EFE0F9D80B2A84238BF9C
:1057500005460AA8294624F001FFC0B2022816D146
:105760000AA8042124F0FAFEC0B202280FD1059A3B
:10577000FF20029910700C9851600699284491609E
:105780000199C2E9031019E01620207016E00121EA
:10579000059AC0074FF00400517018BF0D20029DFC
:1057A000107007E00599012048705FEAC97018BFC2
:1057B0000D240C700699284627F098FC1BB027F0A2
:1057C00079BFD4D4F0B503AF4DF804BD06461B48ED
:1057D0000068C0052AD11B481B4918F06DFF05461B
:1057E00090F838000C46012804BF05F1300018F08D
:1057F0006FFBA86AC0B195F83810E1B9D5E90C1271
:10580000002A05EBC203186483F83C6018BF01321C
:105810006A63914204BF012085F8380027F0BBFD80
:1058200005F1080023F0D8FB27F0E8BE044821F07A
:105830007DFB21F025FC054821F0BAF904ED00E0DC
:10584000B100000090E20320C0C4040040C5040081
:10585000F0B503AF4DF804BD84B006461D4800689E
:10586000C0052ED11D481E4918F026FF054690F8A8
:1058700058000C46012804D105F1500101A818F088
:105880003DFBA86CC0B195F85810F9B9D5E91412D0
:10589000002A05EBC2031866A3F85C6018BF01324A
:1058A0006A65914204BF012085F8580027F073FD16
:1058B00005F1080023F086FB27F0E6FF04B027F08F
:1058C00076BF054821F032FB21F0DAFB054821F0D4
:1058D0006FF900BF04ED00E0B100000088E3032091
:1058E000C0C4040040C50400F0B503AF4DF804BDCA
:1058F00006461B480068C0052AD11B481B4918F002
:10590000DBFE054690F870000C46012804BF05F147
:10591000680018F0DDFA286EC0B195F87010E1B992
:10592000D5E91A12002A05EBC203986783F8746060
:1059300018BF0132EA66914204BF012085F8700069
:1059400027F029FD05F1080015F01CFD27F056BED3
:10595000044821F0EBFA21F093FB054821F028F9E7
:1059600004ED00E0B1000000F8E30320C0C404002F
:1059700040C50400BFB506AF0168DFE801F0041FB1
:10598000191B17252D1DD0E90101CDE9010101A841
:105990000390284821F0BEFA274821F09AFA2749B7
:1059A00003A821F0DBFA21F01DFCBFBD1E4806E074
:1059B0001E4804E0174802E0174800E01C4804B005
:1059C000BDE8B04021F0B2BA4468164821F0A2FA0E
:1059D000204621F091FA18E0D0E901540F4821F057
:1059E00099FA0F4821F075FADFE805F0020C040679
:1059F000002008E0022006E028F02FFB204621F0DE
:105A000025FB02E0012021F09FFABDE8BF4021F014
:105A1000E9BB00BFC3000000B9000000BB000000EC
:105A2000FF010000B5000000B4000000C10000004C
:105A3000C2000000B800000012000000A4A704008B
:105A400080B56F4618B1BDE8804027F04FBB80BDE0
:105A500080B56F46016819B1BDE8804000F0BEB85E
:105A600080BD80B56F46C24312061CBFBDE88040B2
:105A700000F034BD80BDD4D40168426B8A429EBF21
:105A800000210160704780B56F46024B10460A4600
:105A900020F0F8FBFCA7040080B56F4680BDD4D48D
:105AA000F0B503AF4DF804BD0A460646D0E9000143
:105AB00018F0B4FA0C461249054606F5767024F043
:105AC000CDFD0E4695F85E13A1B1013985F85E1340
:105AD000090604BF95F85C13042903D028F011FDD2
:105AE00027F08CBD103041F20131A5F85C1321F094
:105AF0003FFFF3E7034821F019FA21F0C1FA00BF94
:105B00009CA10400F300000080B56F460146406888
:105B10004A7A00F5B7601AB1BDE8804015F0D9B9EE
:105B2000097ABDE8804015F0B8B980B56F4680BDF0
:105B3000B0B502AF456865B10289006828F0C1F9C7
:105B400038B10C46D0F84013294428F0ACF927F0BE
:105B50009BFEB0BDB0B502AF88B00446D0E90620C8
:105B600043690020009002AD21462846FFF798FBCC
:105B70002846FFF76DFF204608B0BDE8B04000F0B2
:105B800071B8B0B502AF88B00446D0E906204369C9
:105B9000012194F82000CDE9001002AD21462846ED
:105BA000FFF77EFB2846FFF753FF204608B0BDE80D
:105BB000B04000F057B880B56F460178042907D08F
:105BC000082918BF80BD0430BDE8804000F058B8F7
:105BD00090F83A00BDE8804027F07CBAF0B503AFFA
:105BE0002DE900078AB0D0F800A00446866800209E
:105BF000A06036B304F10C000DF1140808F108019F
:105C000090E82C002CC194F80490DAE900014A468F
:105C100023F00CFD0A68B0F85803013A0A600AF54F
:105C20007E71ADF8140068464246069617F0CAFB2E
:105C3000019840B1029927F059FA094821F076F904
:105C400001E094F8049050464946FFF729FFE168C7
:105C500000200AB0BDE80007BDE8F040FFF7F0BE45
:105C600068000000D0B502AF0446D0E90201FFF79A
:105C7000E7FE21792068BDE8D040FFF711BFD4D4FA
:105C800080B56F4602C8DFE801F002020206BDE8F7
:105C90008040FFF75FBFBDE88040FFF772BFD0B51F
:105CA00002AF18F0D3FA68B10C4690F86F130022D7
:105CB000012980F86F2304BF00F51E7021F058FE03
:105CC00027F0E2FDD0BD80B56F4600F5B76000213A
:105CD000BDE8804015F0E1B880B56F4690F84410FB
:105CE00031B1032918BF80BDBDE88040FFF70CBF6C
:105CF0003830F9E7B0B502AF04460025902D08D042
:105D00006019017D032904BF043000F005FB18353C
:105D1000F4E7B0BDD0B502AF044600F0D4FB04F107
:105D20001800BDE8D04000F0CEBB80B56F4690F8BB
:105D30003010032918BF80BD1430BDE8804000F04A
:105D4000F6BAD4D480B56F4605480021012201601F
:105D50000449425001680029FCD00021016080BD47
:105D600014710040F4FEFFFF80B56F46C0B2BDE87D
:105D700080403AF047B8D4D4D0B502AF04460068AA
:105D800050B9002020734FF0FF302060201D21F01B
:105D9000EFFD27F079FDD0BD044821F0BBF824F0D9
:105DA0004BFC21F01FFA21F06BF900BFA2000000AC
:105DB000F0B503AF2DE9000F89B082463048006886
:105DC000C00557D189463049104618F075FC054684
:105DD000D0E90046D0F8E40005F1080B8846013808
:105DE000C5F8E400584614F0EDFF241A66F10000EF
:105DF000BAEB040179EB000035D3E9465946484631
:105E000018F01CF8BAEB0400049004D0411E684658
:105E10001DF008FF50B105AC99E84E0020464EC079
:105E200028F024F910B128F054FBF9E700206C4663
:105E3000D5E90212914202D12A7CD2070DD005EB9E
:105E4000C101896949B92046594618F005F89DF8FD
:105E5000000002280BD00120EAE7C0071CBF05F1B3
:105E6000B80023F0F0F827F03BFB27F0DBBA074837
:105E700020F09EFE034821F059F821F001F900BFFF
:105E800004ED00E0B1000000C8990400D09F0400B8
:105E900080B56F4609490968C9050AD1094918F052
:105EA0000BFCD0F8E820013AC0F8E82027F085FC88
:105EB00080BD034821F03AF821F0E2F804ED00E05B
:105EC000B1000000F899040080B56F4609490968DF
:105ED000C9050AD1094918F0EFFBD0F8C020013AF2
:105EE000C0F8C02027F069FC80BD034821F01EF8EF
:105EF00021F0C6F804ED00E0B1000000F8990400BC
:105F000080B56F4608490968C90508D1084918F0E5
:105F1000D3FB026C013A026427F04FFC80BD0348BA
:105F200021F004F821F0ACF804ED00E0B10000002D
:105F3000F899040080B56F4690F88810032918BFBF
:105F400080BD2C30BDE8804000F0B1BA80B56F460E
:105F500090F8EC10032918BF80BD1830BDE88040D0
:105F600000F00CB880B56F4690F8F810032918BF00
:105F700080BD2430BDE8804000F000B880B56F4699
:105F800090F84410032908D0042918BF052909D125
:105F90004830BDE8804000F08ABA4830BDE8804013
:105FA000FFF7C8BF80BD80B56F46817F03390129E7
:105FB00088BF80BD2430BDE8804000F000B8D0B577
:105FC00002AF044690F82700042818BFD0BD04F1A2
:105FD0003C0000F0FFF9E06A228ED0E90001BDE844
:105FE000D040FFF75CBE80B56F46417C042918BFE6
:105FF00080BD4068BDE88040FFF7BEBED0B502AFAF
:10600000044690F83500032809D0042803D0052859
:1060100018BFD0BD03E004F1380000F0A7F900205C
:1060200084F83400D0BDD0B502AF044690F83500F6
:10603000032804D0042807D0052818BFD0BD04F1D8
:10604000380000F009F803E004F1380000F08EF9A0
:10605000002084F83400D0BD80B56F4690F8501011
:10606000063907290AD8DFE801F00A0F09040914E4
:1060700009045430BDE8804000F076B880BD54304B
:10608000BDE88040FFF76EBF5430BDE8804000F0AF
:1060900059B85430BDE8804000F089B980B56F46EA
:1060A00090F82010042918BF80BD2430BDE880403E
:1060B00000F0B3B980B56F4690F87C10032918BF83
:1060C00080BDBDE88040FFF7E9BFD0B502AF044610
:1060D000007A032804D0042804D16068FFF7D8FEB2
:1060E00000206072D0BDD0B502AF0446807C03288A
:1060F00004D0042804D12068FFF7E6FE0020E074F5
:10610000D0BDD0B502AF0446C079032804D004281E
:1061100004D12068FFF7F4FE0020A071D0BD80B547
:106120006F4690F83410032907D0042918BF80BDAA
:106130005830BDE88040FFF7CFBD5830BDE8804003
:1061400000F040B880B56F46017C032907D00429D0
:1061500018BF80BD1830BDE8804000F0A8B91430E9
:10616000BDE8804000F000B880B56F46017C04298E
:1061700018BF80BD1830BDE8804000F098B980B5E8
:106180006F46017F042918BF80BD2030BDE88040E4
:1061900000F00CB880B56F4690F85810032918BF6E
:1061A00080BD0430BDE8804000F075B980B56F4611
:1061B00090F85C10032918BF80BD0830BDE880400E
:1061C00000F069B9D0B502AF044690F85C00011F39
:1061D000042906D3032818BFD0BD04F16000FFF7DF
:1061E00002FFE06B4068BDE8D040FFF76CBD80B5B2
:1061F0006F46C0B2032818BF80BDBDE88040FFF7DE
:10620000A1BDD0B502AF044690F82000042806D105
:10621000E0690078FFF7A8FD002084F82200D0BDD7
:1062200080B56F4690F84010032918BF80BD0C3030
:10623000BDE88040FFF7E5BF80B56F4690F8441099
:10624000032918BF80BD1030BDE88040FFF7D9BFDB
:1062500080B56F46017B042918BF80BD8068BDE80A
:106260008040FFF789BD80B56F4690F8A8100329DC
:1062700098BF80BDD0F89000BDE88040FFF77CBD9E
:1062800080B56F4690F8D811032918BF80BD0C3037
:10629000BDE88040FFF7B2BE80B56F4690F80012AF
:1062A000032918BF80BD1030BDE88040FFF7BBBE9A
:1062B00080B56F4690F8E011032918BF80BD043007
:1062C000BDE88040FFF7DCBF80B56F4690F8201036
:1062D0000339C9B2032988BF80BD044A52F821108E
:1062E0000844BDE88040FFF7D7BF00BFC8A3040043
:1062F00080B56F4690F820100339C9B2042988BFD1
:1063000080BD044A52F821100844BDE88040FFF7E0
:10631000C3BF00BF40DF040080B56F46017B032987
:1063200018BF80BD0430BDE8804000F05FB880B584
:106330006F46017E032918BF80BD0430BDE8804050
:1063400000F05FB880B56F4690F82D1041B1032979
:1063500018BF80BDD0E90601BDE88040FFF770BBE3
:10636000D0E90001BDE8804026F0C0BE80B56F4690
:1063700090F82C100339052918D8DFE801F003172D
:10638000170D08123030BDE88040FFF7F8BE3030FE
:10639000BDE88040FFF7E8BE3030BDE88040FFF741
:1063A00005BF3030BDE8804000F001B880BD80B549
:1063B0006F4690F86010052907D0062918BF80BDE8
:1063C0006430BDE88040FFF7F1BE7430BDE8804026
:1063D000FFF7BCBD80B56F4690F82510042918BFA3
:1063E00080BD2830BDE88040FFF7A2BB80B56F4676
:1063F0004179032918BF80BD0430BDE8804021F0F9
:10640000D5B980B56F46017A0339012988BF80BDAF
:106410000C30BDE88040FFF7E9BF80B56F4690F8CB
:10642000441039B1032918BF80BD1430BDE8804045
:10643000FFF788BFD0E90101BDE8804026F056BED5
:10644000D0B502AF044690F88800032801D028B1E7
:10645000D0BD04F14000FFF7E0FF18342046BDE84E
:10646000D040FFF7BBBB80B56F4690F8A41003295E
:1064700018BF80BD2430BDE88040FFF71BBE80B54B
:106480006F4690F89410032918BF80BD0430BDE812
:106490008040FFF72FBC80B56F4690F8501003295D
:1064A00018BF80BD0C30BDE88040FFF7B9BE80B595
:1064B0006F4690F85810032918BF80BD1030BDE812
:1064C0008040FFF7B9BE80B56F46017D032918BF34
:1064D00080BD0430BDE88040FFF71EBF80B56F4629
:1064E000C0B2072818BF80BD0846BDE8804026F02E
:1064F000F1BD80B56F4680BDB0B502AF051D0C463D
:1065000034B155E90101FFF79BFA013C1035F7E77B
:10651000B0BDB0B502AF051D0C4634B155E901015F
:1065200026F0E4FD013C1035F7E7B0BDB0B502AF91
:1065300000F13A050C463CB115F83A0C15F8401B31
:10654000FFF7CCFF013CF6E7B0BDE0B502AFCDE907
:10655000000101A968461EF091FFD4D4F0B503AF45
:106560002DE9000FD1B0CDE90F204FF0000C786974
:106570004FF000091291010E11913EA901F11C0288
:10658000243108920B9130A924310491010C000AA6
:106590000590D7E9030B0E90D0480D9107938046E4
:1065A00000200C900C98C00740F07E824B45C0F054
:1065B00077820F98A3EB090ABAF1070F484407D86E
:1065C0000025AA454AD0415D0A2935D00135F8E7B2
:1065D000C11CAAF1080E21F003010C1A01D10024FC
:1065E00008E00025415D0A2926D00135AC42F9D1E9
:1065F000744512D80559BA4A85F00A36961B3543B8
:106600000619766886F00A31511A31432940C94388
:1066100011F0803F01D10834EAE7A2451ED0191BD2
:106620002044A1EB09050022815C0A2903D0013234
:106630009542F9D112E0151909EB05024FF0000956
:10664000541CB3D0A1469C42B0D80F98A146805CA0
:106650000A28ABD10020A1460C9004E0012064463A
:106660000C9099461A460F98DBF81C50624560441E
:1066700001D1002106E0A2EB0C014A1E835C0D2B28
:1066800008BF1146DBF824206FF000439A4228BF70
:106690001A460E9BCDE909549B1A0D9A0693D2B265
:1066A000022A0FD1119A022A40F08D800144DBF8B2
:1066B0001840DBF8205018F04AF92919BA6801FB94
:1066C0000025B2E1119A022A40F00C81BA68CDE9A6
:1066D000000130A8594614F037FD4EA830A918F033
:1066E0004FF9509A501C00F09F8127F068FE38BF88
:1066F00008464E9D18B1012840F09781EDE7DDF87E
:106700003CA123A8594621F0F1FA279C002CE4D0A3
:10671000269E002EE1D024980028DED4259B002B55
:10672000DBD423998219D1F808C06245D5D8CA684C
:1067300003EB040E9645D0D80CF1070227F02EFE8D
:10674000ACEB060ECDF808E00CFB03003346CDE9B8
:10675000004013A816F030FA0D98CDE92064CDE979
:106760001E5A8DF86C003EAD13A91EAA284618F0DB
:1067700099F81BA84C902AAC204629461AF04FFCE9
:106780009DF8B0000028F7D00228A6D04C98DDE98B
:106790002A230478002AEED4002BECD42AA81299DC
:1067A00014F048FC2A980128E5D1DDE92B108F2947
:1067B00098BF4728DFD826F05FFD08BF43EA0205EF
:1067C0000D543EADD7E7BA68CDE9000130A859466F
:1067D00014F0BAFC4EA830A918F0D2F8509A501C08
:1067E00000F0228127F0EBFD38BF0846DDE94E5668
:1067F00070B1012840F01981DBF820000028E9D0B1
:1068000027F045F9CDE93E563EAA1DF065FBE1E7CC
:1068100023A8594621F06AFA279C002CDAD0DDF82B
:1068200098A0BAF1000FD5D024980028D2D4259B87
:10683000002BCFD4239900EB0A02D1F808C062459F
:10684000C8D8CA6803EB040E9645C3D80CF10702FA
:1068500027F0A4FDACEB0A0ECDF808E00CFB03001A
:106860005346CDE9004013A816F0A6F921941EA8BE
:1068700080E8600411988DF86C003EAD13A91EAA43
:10688000284618F00FF81BA84C902AAC2046294641
:106890001AF0C5FB9DF8B00010B102289AD0F5E7B8
:1068A0004C98DDE92A230478002AEED4002BECD49E
:1068B0002AA8129914F0BEFB2A980128E5D1DDE937
:1068C0002B108F2998BF4728DFD826F0D5FC08BFAA
:1068D00043EA02050D543EADD7E700BFFFFF1000AD
:1068E00000010101BA68CDE9000113A8594614F06E
:1068F0002BFC1BA813A918F043F81D9A501C00F09C
:10690000938027F05CFD38BF0846DDE91B5470B169
:10691000012840F08A80DBF820000028E9D027F029
:10692000B6F8CDE93E543EAA1DF0D6FAE1E71EA81E
:10693000594621F0DBF9229E002EDAD0DDF884A042
:10694000BAF1000FD5D01F980028D2D4209B002B7D
:10695000CFD41E9900EB0A02D1F808C06245C8D80E
:10696000CA6803EB060E9645C3D80CF1070227F060
:1069700015FDACEB0A0ECDF808E00CFB0300534606
:10698000CDE9006023A816F017F90D9807F8A20CBE
:10699000119807F8A10C0498CDE92CA6CDE92A544A
:1069A0002AA921F09DFA30AC23A91C2226F0D9FE99
:1069B000A7F1A2003890A7F1A10037903EA8214688
:1069C00038223CF015FC0020CDE94C004EA80B9974
:1069D0001AF043FB4E9801288BD1DDE94F653EA8A4
:1069E00019F088FCC0B202283FF483AF0899002E4A
:1069F00051F820000478E9D4002DE7D44EA812996C
:106A000032462B4614F016FB4E980128DED1DDE904
:106A10004F108F2998BF4728D8D826F02DFC08BFE3
:106A200043EA02050D54D1E7BD68DDE9090264219E
:106A3000079B94464843B0FBF1F00E990144B868B7
:106A40000E9185427FF7AEAD2C1A05980D9916462A
:106A500014F0BEFAC0B202280AD0B96800F00103EF
:106A60003E91DBE90A1227F0A5FA3EAA1DF034FA9E
:106A700078690D9914F0ACFA079BC0B2B4460228AD
:106A80003FF490ADB96800F001033E91DBE90C12D0
:106A900027F090FA3EAA1DF01FFA079BB44681E545
:106AA000012064460C90DDE551B026F003BED4D43D
:106AB000F0B503AF2DE9000F8BB0064638690C46E0
:106AC00099B280B2D7F808B0B1FBF0F04FF00108EE
:106AD0000390002002920193F96888422DD0039917
