:1010000030C1022001110000D99603009DEE0500B9
:10101000D9960300D9960300D9960300000000007A
:10102000000000000000000000000000D99603004E
:10103000D996030000000000D9960300D99603005A
:1010400059110000C1110000D9960300D996030080
:10105000D9960300D9960300C19B0300D9960300DB
:1010600039120000D9960300D99603002D12000012
:10107000D9960300CD110000D9960300D99603003C
:10108000D9960300859C0300D9960300D9960300E6
:10109000AD110000D9960300D9960300D99603003C
:1010A000D9960300D9960300D9960300D996030078
:1010B000D9960300D996030000000000000000004C
:1010C000D9960300D9960300D9960300D996030058
:1010D000D9960300D9960300D99603004512000063
:1010E000D9960300D9960300D996030000000000AA
:1010F00000000000D996030000000000D99603000C
:1011000038F0EDFA0E480F490022814201D004C0A8
:10111000FBE70D480D490E4A814202D008CA08C0BB
:10112000FAE70C484FF47001026842EA01020260DB
:10113000BFF34F8FBFF36F8F36F091FB00DE0000DF
:1011400018E3022008F8032030C1022014E3022033
:10115000101F060088ED00E0B0B502AF57F074FD37
:10116000104C206828B1002020600F48203038F053
:101170009FFF606850B10C4D0020606005F12000B9
:1011800038F096FF05F1300038F092FFA06838B1D2
:101190000020A06004483030BDE8B04038F088BF7F
:1011A000B0BD00BF1C010040FCE2032080B56F46CB
:1011B0000248BDE8804038F07BBF00BF68D2032002
:1011C00080B56F46BDE8804059F0D0B8F0B503AFA8
:1011D0004DF804BD134E0020306039F0A1FE124DD1
:1011E00004462868E0B94FF0FF302860E86870B125
:1011F000296988420BD0D6F808140170D5E903019B
:101200000130E860884204BF281D38F025FF42F015
:10121000C3F920465DF804BBBDE8F04039F0B6BE26
:1012200038F07BF900D10040E0E3032080B56F4641
:10123000BDE8804059F036BF80B56F46BDE88040BC
:1012400059F088B8F0B503AF4DF8048D84B0344C34
:10125000206858B1334D0120C4F8080205F1200080
:1012600038F026FF05F1280038F022FFE06D38B194
:101270004FF40000C4F808022A48283038F018FF5C
:10128000A06A38B14FF48060C4F8080225482830BD
:1012900038F00EFFA06D28B10020A0652148203055
:1012A00038F006FF206EB8B300202066D4F86C63D7
:1012B0001C48C4F86C63BFF35F8F50E8061F3143CE
:1012C00040E80612002AF8D10020BFF35F8F8DF8A6
:1012D0000C0007200DF10408029001200190404607
:1012E00031F024FC012817D101F01F040D4626FA25
:1012F00004F0C00704D028462BF0D8FE38F0D8FE02
:1013000084F0100026FA00F0C007E8D028462BF041
:1013100003FF38F0CDFEE2E704B042F03AB900BF77
:1013200000710240FCE20320F0B503AF2DE9000F8D
:1013300093B0D0E90149834608468A46A4EB0905E3
:1013400040F06CFD854201D2002006E25046DBF8F9
:10135000005040F063FD00EB090148462A46234651
:101360003EF0F0FB9AF80020FF2A1FD19AF80420E3
:10137000FF2A3ED143F023FBBAF80800012808A851
:1013800014BF1B211D213EF0C5FBC0B2022840F056
:10139000DB81BAF80A1008A83EF0FCFBC0B20228B4
:1013A00040F0D281DAE9031208A84CE1B2F10A0454
:1013B0004FF0000398BF1C46002C35D0012C48D1BB
:1013C00043F0FDFA08A852213EF0A4FBC0B2022867
:1013D00040F0BA81BAF80C1008A83EF0DBFBC0B2AE
:1013E000022840F0B181DAE9011208A83FF031FD8E
:1013F00035E0CDE9010100200390DFE812F009009B
:10140000C3005E00A2003200ED001901C0002701F8
:1014100001A803213EF07EFBC0B2022840F0948177
:10142000BAF8061001A889E108AC0A2A0BC400F238
:101430009781DFE812F00B001301300133016701DF
:1014400045017101950195019501100108A8102130
:1014500006E143F0B4FA08A81E213EF05BFBC0B2DF
:1014600072E101A809213EF055FBC0B2022840F00C
:101470006B81DAF8144001A821463EF04BFBC0B264
:10148000022840F061810AF10802119442F01DFC2B
:1014900008A8294640F06CFB9DF82000FF2840F08A
:1014A000528142F0A6FBC0B2022840F04D8143F0C9
:1014B0005EF8C0B20228EBD046E101A805213EF05B
:1014C00029FBC0B2022840F03F819AF8144001A8DD
:1014D00021463EF01FFBC0B2022840F035810AF1E0
:1014E00008028DF81C400DF1380807CA04AB07C389
:1014F00008A80430009001AC08A804A940F088FBBB
:10150000BDF82000002840F01E81009AA446BDF8D6
:101510002210404678CA78C064461278027060464D
:101520003EF038FBC0B2022840F00E8140463EF04B
:1015300015FB41F064FD3FF08CFCC0B20228DBD00B
:1015400002E101A801213EF0E5FAC0B2022840F014
:10155000FB809AF8051001A83EF0DCFAC0B2022820
:1015600040F0F280BAF8081001A83EF013FBC0B2B8
:10157000022840F0E9809AF8061001A868E001A866
:101580000D2157E001A807213EF0C4FAC0B202289D
:1015900040F0DA800AF108020DF1200842F095FBD4
:1015A0004046294640F07FF89DF82000FF2840F093
:1015B000CA80BDF822103046BDF824403EF0EAFA59
:1015C000C0B2022840F0C080304621463EF0E2FA28
:1015D000C0B20228E4D0B7E001A811213EF09AFA87
:1015E000C0B2022840F0B080DAF8144001A82146C9
:1015F0003EF090FAC0B2022840F0A6800AF108023C
:10160000119442F062FB08A8294640F0B1FA9DF817
:101610002000FF2840F0978042F0EBFAC0B2022889
:1016200040F0928042F0A3FFC0B20228EBD08BE0E2
:1016300001A80B213EF06EFAC0B2022840F084806F
:10164000DAE9021201A83FF004FC79E001A81321B5
:101650003EF060FA74E008A80C215FE008A80821B9
:101660003EF058FAC0B202286ED1BAF8121008A89B
:101670003EF090FAC0B2022866D1BAF8141008A859
:101680003EF088FAC0B202285ED10AF1010108A832
:1016900040F033F854E008A80A2135E008A81221E8
:1016A0003EF038FAC0B202284ED1BAF8021008A8AB
:1016B0003EF070FAC0B2022846D1DAE9011273E6B0
:1016C00008A806213EF026FAC0B202283CD1BAF89A
:1016D000021008A83EF05EFAC0B2022834D1BAF86F
:1016E000041008A83EF056FAC0B202282CD1BAF86D
:1016F000061008A83EF04EFAC0B2022824D1DAE95A
:10170000021251E608A802213EF004FAC0B20228F3
:101710001AD1BAF8021010E008A804213EF0FAF934
:10172000C0B2022810D1BAF8021008A83EF032FA6E
:10173000C0B2022808D1BAF8041008A83EF02AFA6C
:10174000C0B2022800D10220022806D1504640F043
:1017500065FB4844CBF80800022013B041F094BE6A
:101760000F2037F050FDF0B503AF4DF804BD82B047
:101770000446D0E901300D46191A04290BD3061D81
:10178000226842F0B7FACDE90001684629460422F2
:101790002BF09AFC08B1002001E00220A66041F085
:1017A000D3BB80B56F46082181704FF4C0610180C2
:1017B00080BDD4D480B56F46002101730149013149
:1017C000016080BDFCE2032080B56F4645F2C47223
:1017D000815010440021817180BDD4D480B56F4602
:1017E000DFF874C0044600254EF6684040F201124E
:1017F00085422FD02B18654405F1180656E8001FC6
:1018000021B946E800210029F8D103E0BFF32F8F6A
:101810001D46EDE71148686205F128002146FFF7F3
:10182000D3FF2046294638F069F90025BFF35F8FC2
:1018300054E8000F44E800510029F9D1BFF35F8F4D
:1018400030B1C669C5614576416A88473046F7E7D9
:1018500020BFEBE742F077FC80E30220798F0200A3
:10186000F0B503AF2DE9000B94B00446F8680DF114
:101870003C0842F0CCF99DF83C00FF2803D040F62C
:10188000032020801DE0A7F14E0008F10401851C13
:1018900041F0C7FB02A82946861C41F0C5F90BADF3
:1018A000314641F0BEFB42F0ADFE2078FF2808D063
:1018B00042F02BF8044837F037FF41F040FF38F092
:1018C0008BF814B041F047BEE5010000F0B503AF5E
:1018D0002DE9000FCDB0FE68D7F80880CDE91D20B6
:1018E00056F870AFD8F84400C346CDF8AB00C146F7
:1018F0005BF8410FD6F808E02A90D8F83D00129323
:1019000016917268F568D6F810C07369B169F46908
:10191000CDF8CB0059F83A0F2192CDF870E01B9525
:10192000CDF868C0199320911F94329032A88DE8A9
:10193000120454460DF1F80ACDE9032E62460595CE
:101940002AA9CDE90610A6F13001504629F046FB40
:1019500022A89AE82E002EC0429811904398109029
:1019600044980F9045980E90306A1890706A1790BE
:1019700008F14E00D6E90AA540F0F3FD20F07F40C3
:10198000CDE90A0B209800901F98CDE90104219819
:1019900003901C98CDE908A5049005461B98CDF846
:1019A00054B005908346189806901798CDF84C903F
:1019B000CDF830901494079026A822A91A9A199B62
:1019C0009146984629F030FA1D98102804D126A88F
:1019D00016992DF002F830B11E99FF20087040F6DC
:1019E000033088805EE0D6E90C40D7F808A01D904F
:1019F000B06B18900AF14800F66B40F0B2FD20F091
:101A00007F400A9013980B9015980C9020980490A2
:101A10001F981899CDE905041D98CDE90816CDE960
:101A2000005BCDE9029807902AA822A9149A219B6D
:101A300029F0FAF9DDE92C01DDE92A23CDE90001DD
:101A40003EAC204605F0BFFD9DF8F850FF2D0AD0B2
:101A5000611C32AC41F05AFA1E9E214641F0F5FC61
:101A60003571FF201DE00DF1C809211D09F10305A5
:101A700041F0D7FA2EAE294641F0D6F8129C0DF16E
:101A8000F8083246404621462BF045FC9DF8F850B8
:101A9000FF2D0AD01E9E08F1010141F0D6FCFF2067
:101AA000357130704DB041F001BC9AF83800022316
:101AB0009AF84A100DF1F8089AF85020022801F01F
:101AC000030008BF012302F0030180F0010081F050
:101AD000010108430F990091B0FA80F00E99400976
:101AE000CDE901132146DDE91032039040462BF089
:101AF00045FC9DF82161022E09D198E86E00484608
:101B00006EC01E9E99E83E00301D3EC0A9E732AC73
:101B10003EA9292241F051FCBDF826012146ADF82D
:101B200030012922DDF822014B903EAD41F06AFCE4
:101B30005046294629225CF0D2FF4B981E99CAF8DC
:101B40002A00BDF83001AAF82E000A208AF8296080
:101B50000870A7E7102B7DD1F0B503AF2DE9000F7A
:101B60009DB009908846F868137800F16006D2F8B5
:101B70000100D2F80540D2F8095043EA002C396937
:101B80002B0243EA1463240244EA1060D47BB2F8C7
:101B90000D20C6E900C042EA0442120242EA156280
:101BA000C6E9023218A803F01BF806F1300A1898AB
:101BB00006F11003F66B1A9A08F07F041999DDF804
:101BC0006CB0069283E80708A4F140020791314601
:101BD00008909AE8200650465CF0CEFDCDF81480BF
:101BE00080462846494622465CF0C6FDC4F14002C4
:101BF000814650463146D7F80CA05CF0D3FD0AF17F
:101C0000200103910699402CCDE901BA009138BF1B
:101C100049EA00082948002C08BFA84642F066FEA1
:101C20000AA8DDE9073229F063F9DDE90C01DDE9F5
:101C30000A23CDE9000118AC204605F015FC9DF8FB
:101C40006050FF2D0CD0611C0FAC41F05FF9099E74
:101C500021461FE0FF21017040F60321818070477B
:101C6000DDF814900FA8C61C211D1022D7F808809B
:101C700041F0A9FB14AD314641F0D3F918AC41460F
:101C80002A4620462BF047FB9DF86050FF2D09D0D7
:101C9000099E611C41F0D9FBFF20357130701DB0E9
:101CA00041F004BB099C5146B02204F108005CF0ED
:101CB00062FC0620C4F804902070F0E7C0FFFF7FAC
:101CC000F0B503AF2DE9000B94B00446F8680DF1B0
:101CD0003C0841F09CFF9DF83C00FF2803D040F6F3
:101CE000032020801DE0A7F14E0008F10401851CAF
:101CF00041F097F902A82946861C40F095FF0BADEC
:101D0000314641F08EF942F07DFC2078FF2808D062
:101D100041F0FBFD044837F007FD41F010FD37F0BE
:101D20005BFE14B041F017BCE4010000F0B503AF56
:101D30002DE9000F9FB08246880701D411206FE083
:101D4000D56B934605F108030FCB41EA030440EA43
:101D50000206344311BF8DE80F000020CDE90200D8
:101D6000CDE9000016AE6946304605F05FFC9DF8EF
:101D70005840FF2C3DD111A8311D00F1030810225D
:101D800041F017FE0AAE414640F04EFF0DF15809F2
:101D90005946324642F01BFE9DF85840FF2C30D188
:101DA0002868C10741D06968000A0A0E8DF83E20F4
:101DB0000A0A40EA0160ADF83C200E9016AE0EA96A
:101DC000304605F067FC9DF85840FF2C11D1311DBD
:101DD000404641F0D5FB1BAE414640F025FF05A82B
:101DE000594632462BF097FA9DF81440FF2CA5D0A7
:101DF0000DE011AD711C132241F004FB05A829462A
:101E000002E005A809F10101013041F0D9FA05A964
:101E10000AF10500013141F0D3FAFF208AF80440AD
:101E20008AF800001FB041F041BA0524EFE7F0B591
:101E300003AF2DE9000F8BB0044602A80E46002127
:101E4000924605F0E7FA9DF80800FF281ED09DF89D
:101E50000B10E170BDF809109DF81B20DDE903C5EA
:101E6000A4F80110BDF81910059E9DF81830ADF8C2
:101E70001C108DF81E202374C4E901C5E660A4F887
:101E80001110E27420700BB041F010BA9DF818B038
:101E9000059DBDF81900ADF8040059469DF81B00DA
:101EA0008DF806002846DDE9038927F0BCF80246D4
:101EB0000B4606F1480011461A4640F002FCC0B23B
:101EC00002281CD1BDF804005146ADF829009DF848
:101ED00006008DF828B00995CDE907898DF82B000B
:101EE00002AD07AA28462BF016FA9DF80860FF2ECF
:101EF00010D0601C691C41F063FA2670C3E705200E
:101F00004946207040460BB0BDE8000FBDE8F040E8
:101F100040F0B4BBFF20B5E7F0B503AF2DE9000FEB
:101F20009FB00D46B968069314460B901AA802F0AC
:101F300057FE1A9804F170061C9A05F07F0504F10B
:101F4000900B1B991D9B0FC60892A5F140020A90A9
:101F50009BE8400E50460991594607935CF00CFCF3
:101F60008046304649462A465CF006FCC5F14002F0
:101F70008146504659465CF015FC04F12001402D85
:101F8000CDE90241079901910899009138BF49EACA
:101F900000082448002D08BFB04642F0A7FC0CA85A
:101FA000DDE9093228F0A4FFDDE90E01DDE90C23AB
:101FB000CDE900011AAC204605F056FA9DF86850AC
:101FC000FF2D0BD0611C11AC40F0A0FF0B9E2146F1
:101FD0001322701C5CF083FD35701FE0DDF82C804F
:101FE00011A8C51C211D41F01CF816AE294640F071
:101FF0001BFE1AAC0699324620462BF08CF99DF850
:102000006850FF2D07D008F10100611C41F0D8F99C
:1020100088F8005002E0FF2088F800001FB041F06F
:1020200045B900BFC0FFFF7FF0B503AF2DE9000F3A
:10203000B5B016461D46CDE91210B046D6F83D00A3
:102040000DF1A00C55F8702FCDF8A30058F83A0FF9
:10205000289056F8410FD5F808906B68D5F80CA079
:10206000D5F810E0D5F814B0AC69E9692C90D6F831
:10207000030014921593CDF86C90CDF868A0CDF8BC
:1020800064E0CDF860B017941691CDF8B3002CA899
:102090008DE800460DF18009CDE9051CA5F1300160
:1020A00007904846CDE903B428F098FF1CA899E8AA
:1020B0001E0005F1300B1EC0249811902598109039
:1020C00026980F9027980E90F01D9BE8100AD5F8DF
:1020D0003CA040F046FA20F07F40CDE90A08DDE957
:1020E0001A10CDE908BA0C96CDE9000119980290B2
:1020F0001898039017980490169805A981E8110282
:1021000028A81CA9DDE9142328F08EFEDDE9282388
:102110000DF18009DDE92A01CDE90001484605F00D
:1021200052FA9DF88060FF2E0ED02CAC09F101010F
:1021300040F0ECFE139D21461322681D5CF0CFFC9D
:10214000FF202E71287051E0DDF84C802CA8C61CB1
:1021500009F1040140F068FD31AC314641F06DF801
:102160000DF180091299224642F031FC9DF8804021
:10217000FF2C0BD008F1050009F1010141F020F915
:10218000FF2088F8044088F800002FE005F1200BBC
:10219000464608F11804ED6A9BE8000D09F10700B6
:1021A0001CA941F0EDF90B20494606F8010B172256
:1021B00041F009F9199804F12C0120621898606225
:1021C0001798A0621698E56381E8010D11982060C8
:1021D000109860600F98A0600E98E06014982061DD
:1021E000159860611B98A0611A98E06135B041F0C4
:1021F0005DB8D4D4F0B503AF2DE9000F8BB0044621
:102200000220ADF80A0001208DF808001E462B4878
:1022100088468DF80920039007A840F0E7F9079D4C
:10222000DDB3DDE9089BFB20D7F808A0CDE904B0B9
:102230000020069004A803A9FFF795FAC0B202286F
:102240001AD104A802A9FFF78EFAC0B2022813D14E
:10225000DDE90530191A02290CD3049A811C019179
:102260003DF070FCCDE9070107A8314602222AF0B3
:102270002BFFB8B1042004E0C0074FF0040018BFE2
:102280000D20012120706170284649460BB0BDE841
:10229000000FBDE8F04040F0F1B9162020700BB0FF
:1022A00041F004B8019851460A9007A880E8200A36
:1022B00007AB2046424628F0A8FBF0E706000500E1
:1022C000DCB504AF10CB5031009439F09BFADCBD83
:1022D00091F8673301F51472012B12BF91F8561271
:1022E00002F58C720121A0B1D0B502AF9388B0F88D
:1022F000154112686340D0F8114162401A4390F8CA
:1023000017315940C90718BF0020002A18BF002004
:10231000D0BD00207047D4D4F0B503AF2DE900073D
:1023200092B06D4688468146284648215CF0CDF93A
:10233000D8F80C4048262946482C38BF2646304657
:1023400048223EF0A7FD0546D8F808008A462146F7
:102350002AF00EFB8E424BD802462846514641F0E9
:1023600095FE022C09D22B4837F0DEF9304637F0C3
:10237000CDF937F031FB0A2019E09DF80000441E2A
:10238000E5B20E2D12D22046A6F1010A27F038F848
:1023900080B2824519D109F10100694648225CF0FA
:1023A0009EFBC9F84C6089F8004008E0072089F8D6
:1023B0000500032089F80400FF2089F8000041F09F
:1023C0005DFE12B0BDE80007F0BD0C4837F0ACF977
:1023D0000B480C4CA0470C48A0470C480C4950F83F
:1023E000250051F8251036F0E3F80020A047C0E79B
:1023F0000B460020314641F080FC00BFDA010000AE
:1024000016000000E59603004B030000500A06008A
:10241000180A0600DB010000F0B503AF2DE9000F3C
:1024200095B01C788046FF2C15D045481D461646B1
:102430008A4693F801B037F077F9424837F052F9FD
:1024400028463EF00BFB032C18BF4FF0080B37F06B
:10245000C3FA192C05D1FF2088F8000015B040F010
:1024600025BFB6F858430FA840F0C0F80F980028D1
:1024700048D0A7F143000094C51C0FA90C2240F0DE
:10248000C1FFA7F152002946C61C0C2240F09BFF59
:1024900012AD31460C2240F0B5FF02A829460422B5
:1024A00026F0D0FD9DF80800DDE903549DF8186082
:1024B000FF28DDF8149026D14846314626F0B3FDBA
:1024C000E1B380F800B0304626F0A6FDCDE90490D7
:1024D0004046CDE9025402AD009A51462B4628F001
:1024E00094FA98F80000FF28B5D098E85E002846D6
:1024F0005EC0154837F018F928463EF0A1FA37F0CB
:102500006BFAABE716209DF80B1088F80310BDF8A6
:1025100009109DF81B20A8F80110BDF81910ADF89E
:1025200004108DF8062088F81060C8E90154C8F836
:102530000C90A8F8111088F813208DE740F0E2FA0B
:10254000D301000023030000D8010000F0B503AF61
:102550004DF8048D92B00DF104080D460646114663
:10256000404644221C465CF015FAB86829460090A3
:1025700030464246234600F005F812B05DF8048B61
:10258000F0BDD4D4F0B503AF2DE9000FADF29C6DD2
:10259000189301F1780A1790DCAE91F8C84006F163
:1025A000600B90460D46022C199131D10DF168094E
:1025B0002946C82242F008FA152028710E202870FA
:1025C0009DF8685098F800000C2D00F2118306F178
:1025D0007004DFE815F00D008B0141012701C800F0
:1025E0000901DE010D037402C5020D03AA02960063
:1025F000FF2804BF98F80C10002900F01B87411E2B
:102600000329C0F0B782002840F0EE8200F053BFEB
:102610000DF50C792946C8221AAE42F0D5F91520DD
:102620009DF830122871122028700F2998F80000A8
:1026300000F2B48506F16005DFE811F01000C00378
:1026400002039D04CD04B0057A03DE032004B00527
:10265000A9053005B005B005E6028703FF2804BFD1
:1026600098F80C200A2A40F09985D8F8080000282C
:1026700002F07A82199D0C22D8F8041095F81901FD
:10268000032808BF0822DDF860A0DAF8383093F894
:10269000700393F87133024485F81A210C7813B152
:1026A000012185F818110DF59F6858B195F81C01A6
:1026B00095F81D1140F0030085F81C0141F003015D
:1026C00085F81D111AA851462AF0A7FF9DF8910020
:1026D0000DF55C79022807D0600741F1B6829DF8BC
:1026E0009000022801F0B182DCAC41F0ABFC42F07A
:1026F000D4F901F00E8240F04AFD8DF8FC5401F04F
:10270000B9BAFF2804BF98F80C10082940F02F82AE
:10271000D8F80820002A02F02782D8F804000478AC
:10272000022C81F013800DF59F68062A42F2168272
:10273000199A50F8011FDDF860A0C2F811118188C4
:10274000A2F8151192F8F91082F81741022900F049
:10275000F5868188A2F8F4100068C2F8F00082F8CB
:10276000F64000F0EBBEFF2804BF98F80C100229D9
:1027700000F04B86042800F23E82DFE810F0E2060B
:10278000FB01FB010500E2060DF59F600DF59F6B57
:1027900000F190051998902200F1180158465BF05D
:1027A000EAFEDCAE09F10101112240F00CFE00242A
:1027B000D8F80400C5E90004C5E904049DF87003D5
:1027C000C5E90244C007C5E9064401F04885DDF8C3
:1027D00060A0721CB8680021CDE900AB1023029004
:1027E0008CA8FFF7B7F9CBE1FF2804BF98F80C10CD
:1027F000022940F0BC8119980DF59F64B02200F1C8
:10280000080120465BF0B7FED8E90123A046DDF8B9
:1028100060A0B8681B99CDE900A402908CA8FFF7CE
:1028200099F9AFE1042800F2E087DFE810F08A06AA
:102830000500BF07A3018A069DF86900002801F082
:102840006A81199909F118001022D031CDE90010E0
:1028500009F1020100F03CBFFF2804BF98F80C10FA
:10286000032940F08481199D4CA8702241F00DF895
:10287000DAF8000005F1980116902022DAE901B992
:10288000DAF80C60C6A85CF02AF941F09FF840F035
:102890009287D8F804000DF59F6A169A5B46159644
:1028A000D0F809101491D0F8011013910178129109
:1028B000C17B11911899D0F80550B0F80D00109017
:1028C0005046CDE900965E46FEF7CAFF9DF8F884B3
:1028D000B8F1FF0F01F062828CA80AF10101053006
:1028E00040F06EFD8DF8348200F0A0BFFF2804BFD9
:1028F00098F80C100B2940F03A81D8E901120DF537
:10290000467840463FF0A3FDDDF860A02022DAF8CB
:102910002C10BEAC40F051FDDAF830104CAE402225
:1029200040F051FD0DF59F69214642463346484629
:102930003FF0CEFC9DF8F804C00700F041879DF8F9
:10294000FB0409F106018DF806021222BDF8F90414
:102950009DF8FC449DF8FD64ADF804027CA85CF091
:10296000BEF809F1180079A90DF59F6A0CC80CC1D1
:10297000007808704CA9504604F0BCFD9DF8F8049E
:10298000FF2801F065820A2003258DF8710301F00C
:1029900089BAFF2804BF98F80C10032940F0E7809B
:1029A00041F057FFDCA85BF0E6FD41F00FF840F086
:1029B0001087D8F804001B9DDBE90E98D0F80110B1
:1029C0000278129505F07F0542EA0122CBF820201B
:1029D0001692D0F80930D0F805201C0244EA12649F
:1029E000120242EA1161CBF82840CBF82410C5F15D
:1029F00040021591C17BB0F80D00149440EA0140EB
:102A00004146000240EA136A4846CBF82CA0DBE9B5
:102A10000C645BF0C7FE1390304621462A465BF0FB
:102A2000ABFEA5F140020446484641465BF0A4FED9
:102A30001399402D38BF44EA0100EE49002D08BF2C
:102A40003046DCAA61F35F00149B02F12001CDE95E
:102A5000003ACDE902120490BEA8DDE9153228F053
:102A600047FADBE900ACDDE9BE648CEA0401DBE98E
:102A70000289DDE9C03589EA050008438AEA0602D1
:102A800088EA03011143084341F05980DBE904233C
:102A90000DF59F64DBE90601CDE90001204604F055
:102AA00006FD9DF8F854DDF860A0FF2D01F0E784E5
:102AB000611C4CAC40F02AFA8CA821462EE0FF287D
:102AC00004BF98F80C10032951D141F0C2FEDCA8D4
:102AD0005BF051FD40F07AFF40F08086D8F80400AA
:102AE00004F1100540F023FD0EC5B968E0612046F1
:102AF00002F076F8DDF860A0D4E90201D4E9002301
:102B00000DF59F64CDE9000151462046FEF7A8FE71
:102B100041F0BFFF01F0D8818CA8611C053040F066
:102B20004FFC8DF8345200F04FBEFF2804BF98F8D8
:102B30000C1007291BD140F049FF40F0748619980A
:102B400090F8F900022808D0D8F804000AF16804C7
:102B500040F0EDFC0EC4CAF874000C2000F067BE13
:102B6000FF2804BF98F80C100C2900F0A985411E1D
:102B7000032936D28CA81AA941F04CFEDDF860A0DA
:102B80000DF59F689DF83002FF2800F0E1840DF5F7
:102B90000C790DF59F60C82249465BF0ECFC9DF86E
:102BA000F8040E2800F0DE84199D0D2840F0F98409
:102BB00095F8F980B8F1020F00F0F38495F81A0146
:102BC00000F00300012802BF95F8200100F0030087
:102BD000012800F0238595F8F8C04FF0020800F0B6
:102BE0004ABD002800F06584042804D100F0A9BC87
:102BF000FF2840F0538498F80C00042800F0EB8381
:102C00000D28B7D000F09DBCFF2804BF98F80C2019
:102C1000072A40F0C38240F0D9FE40F09886199D03
:102C200095F8F900022808D0D8F804000AF16804E1
:102C300040F07DFC0EC4CAF874000F2000F08CBE7A
:102C4000FF2804BF98F80C200B2A40F0A782BEAEE4
:102C500009F10401202240F0B6FBDDF864B00DF567
:102C6000467940220BF1240A484651465BF037FF73
:102C7000D8E901124CAC20463FF0E9FB0DF55C7839
:102C8000314622464B4640463FF022FB9DF87003FA
:102C9000C00700F064869DF8730308F106018DF803
:102CA000AA001222BDF87103ADF8A800BDF8744364
:102CB0001AAE06F145005BF012FF06F1570008F16D
:102CC000180141F095F906F120004CA940F0EBFA0B
:102CD000304640F036F828465021ADF8AB405BF066
:102CE000A7FE9BF80801811E38BF0221DDF860A015
:102CF000C9B2022901F021820DF55C79032941F066
:102D00003B820F2041F04DFDDAF83820D6AEDCAC26
:102D100041F062FA9DF85853FF2D41F0D583E01D34
:102D20001AA940F048FD09200DF59F6801F0E6BCA6
:102D300098F80C10FF2808BF022900F04984DDE94B
:102D400018A5FF2800F0308275E2FF2804BF98F82C
:102D50000C20082A40F02282D8F80820002A01F02E
:102D60000387D8F80400DDE918A50478022C80F068
:102D700035860DF59F68062A41F2F08650F8011F4E
:102D80000DF55C79C5F811118188A5F8151195F834
:102D9000F91085F81741022907D08188A5F8F410A9
:102DA0000068C5F8F00085F8F64095F822110DF599
:102DB0009F605246FEF7BAFF00F09DBFDDE918A5FF
:102DC000FF2840F0F78298F80C100A2900F0D4850B
:102DD000012940F0E981D8E90112DCA83FF081FC2B
:102DE0009DF87003022840F0C8860A2040F077F969
:102DF00001F07DBAC0FFFF7FFF2804BF98F80C20C8
:102E0000022A40F0CB81199DDCA8602240F03DFDF4
:102E10009AE8500805F188013022DAF80C901AA8D7
:102E20005BF05DFE40F0D2FD40F0F383D8F8040083
:102E30000DF59878224633468D9D016816914168BC
:102E40001591816814911899C06813904046CDE996
:102E500000B9FEF735FF9DF830A1BAF1FF0F01F080
:102E6000AA800DF59F6208F10101501D904640F0C7
:102E7000A7FAFF208DF8FCA401F0C1B8FF2804BF19
:102E800098F80C20032A40F08981199DDCA8B02213
:102E900040F0FBFC40F09AFD40F070858D98DBE936
:102EA0000EA900F07F04DBF83410A4F14002DBF837
:102EB00030501591494614905046D8F80460169544
:102EC0005BF05AFC15998046284622465BF054FC7C
:102ED000C4F140021590504649465BF063FCB3686C
:102EE000F568D6F800907268DCA903912031029150
:102EF000402CCDE91253CDE90035159938BF41EA90
:102F000000081698002C08BF8046E24841F0EEFC0D
:102F100090461AA84A46434627F0EAFFDBE900C17B
:102F2000DBE902231AAE1D9870CE69405840084371
:102F300086EA020184EA0C021143084340F0268627
:102F40001499DDF860A0CBE908980DF59F681398F7
:102F50001329CBF828001298CBF82C0041F0CC8133
:102F6000DCAB199D0DF59F60514605F1D002FFF7CE
:102F70005BF800F03FBDFF2804BF98F80C20022A40
:102F800040F00C8141F065FC1AA85BF0F4FA40F0C7
:102F90001DFD40F03E83D8F8040040F0C8FA85E8F3
:102FA0000E00B968E86005F1100001F019FED5E9DE
:102FB0000601D5E90423CDE90001DCAC41F04CF871
:102FC00041F06BFD40F08B86E01D1AA940F0F3FB49
:102FD000042000F0DCBEFF2804BF98F80C20032A70
:102FE00040F0DC8019980DF1680BB02200F1080167
:102FF00058465BF0C0FA40F0E9FC40F00A83D8F88C
:1030000004000BF120028168D0F80CA0D0F80490E5
:10301000D0F800800020CDE9001ACDE915214B46FB
:10302000CDE9022B42460490C6A827F061FFD5E9FE
:1030300002E3DDE9C646DDE9C802D5E900C15A4030
:10304000714080EA0E0011438CEA040210430843E9
:1030500040F0A98505F11003169CC5E908890FCB3E
:10306000C5E90A4A159DCDF800B001AE86E82003F7
:10307000CDE9044A27F07AFF199D044695F8080126
:10308000022841F05181844836F04EFB41F0DEF8D1
:1030900036F0A2FC0DF59F601AAB34E3FF2804BFA5
:1030A00098F80C200C2A79D1DCA8199C00F11005A5
:1030B000DCA804F1080150225BF05DFAD8E90101B7
:1030C00005F1280B0E902869139068691290A86981
:1030D0001190E8691090286A1490686A1590686BDE
:1030E0000F9004F58F709BE8000B1691D5E90EA6A2
:1030F0003FF037FAD4F8142120F07F40D4F81111B2
:10310000CDF833214C91D4F80D21D4F80A11CDF823
:103110006B201A91CDE908A60A904CA80B901AA82A
:103120000C901398029012980390119804901098A4
:10313000CDE9050B0F98CDE900890790D6A8DCA949
:10314000DDE9142327F070FE1698102806D1D6A9C1
:103150000E982BF042FC002800F02E854FF00B0952
:103160000325DDF860A00DF59F68BEA908F10600F3
:1031700012225BF0B4FCFF208DF8FD948DF8FC5416
:103180000DF55C798DF8F804199D00F0B6BDFF28A7
:1031900004BF98F80C20032A00F0A282FF280BD16C
:1031A00098F80C10DDE918A5042924D03FF097FF0A
:1031B0000D2900F0048109E1DDE918A50539082988
:1031C00000F2F880DFE811F009003700F600F600A1
:1031D0008E00F600F600DA00F300012800F0DC8231
:1031E0003FF07DFF022840F0F18040F60340ADF84B
:1031F000FC0400F085BDD8F808000DF55C790028C6
:1032000001F0B284D8F804000478244836F08CFA2F
:10321000601EC0B2102828BF082420463DF0C2FC22
:1032200036F0DAFB03208DF8FD448DF8FC040DF533
:103230009F6800F065BD032840F0BC80DCAE05F15E
:103240001801902241F0C5F80020D8F80410CBE90D
:103250000C103246CBE910100021CBE90E0053468A
:10326000CBE91200B8689DF8315200901AAC2046A4
:10327000FEF752FE9DF86860FF2E00F088830DF582
:103280009F68611C08F1050040F09AF88DF8FC6415
:1032900000F02BBDC0FFFF7F8D0000006401000027
:1032A00010F605007900000065010000DE01000055
:1032B00078000000E2010000E8010000E0010000E9
:1032C000D1010000D901000077000000C112040004
:1032D000EA010000D4010000DD010000320100001D
:1032E000CF010000042865D105F108011AADB02214
:1032F00028465BF040F9D8F8010008F12104169047
:103300002022D8F80D002146D8F805B0D8F809A039
:1033100015904CAE40F057F85FF87C1020462BF02B
:103320005CFB40B95FF8881006F110002BF055FBEC
:10333000002800F0A48429460DF59879203100205A
:1033400099E860033346CDE90089CDE902112A46A8
:103350000490DCAC204627F0CBFD4CA800F1100116
:1033600020462BF03AFB002800F08D84FF208DF8DA
:10337000F80440F20340ADF8FC044CE1D0B998F8F1
:103380000100002800F084835FF8E80036F0D8F9E7
:1033900095F823010DF59F68800700F1358695F8B3
:1033A00022110DF59F605246FEF7C0FC22E3002873
:1033B00000F0E6813FF093FE0138022806D20DF5B9
:1033C0009F608CA941F026FA00F095BC15208DF87D
:1033D000FC0400F095BCD8F80800002801F0C48374
:1033E000D8F8040004785FF8400136F09DF9601EBB
:1033F000C0B2102828BF082420463DF0D3FB36F089
:10340000EBFA8DF8354203209CE040F0DFFA40F003
:103410008681D8F804108CACA01C40F0B1F8199942
:103420000DF59F6840F0C6FD40F042F9DDF860A060
:1034300004207CE118990DF59F60D8E901A92AF0D4
:10344000ECF89DF82105022819D00D200DF59F6894
:103450008DF8F80418984346816A826BDCAC40F022
:10346000D0FF9DF87003FF2809D040F04EFA5FF8B6
:10347000C40136F059F940F062F936F0ADFA0DF5B5
:103480009F6051464A463FF02CF99DF8F844022CC3
:1034900040F0518140F055F80A20B4E2072D08BFF2
:1034A000042800F0C881411E0329FFF463AB002803
:1034B00047D10A2D45D198F80100002800F0268157
:1034C0005FF8140236F03CF9DDF860A00DF59F6856
:1034D0000DF55C793DBB0DF59F64514620462AF001
:1034E0004AF89DF82155FF2D00F0F286DCAC0DF571
:1034F0009F6129223FF061FFDDF822052146199ED8
:1035000029228890BDF82605ADF8240206F1D000E6
:103510005BF0E5FA8898C6F8FA00BDF8240286F850
:10352000F950A6F8FE00199991F81D01800700F1E5
:10353000A48291F82201800700F13B850D2001F063
:10354000D4B815208DF83402DDF860A00DF59F6821
:103550008CA808F10401043090E87C000E207CC1A6
:103560008DF8F8040DF55C7908F1040109F1040007
:103570002FF02EF90C2041F014F94B46DAF83820E0
:103580004CAC40F03EFF40F04EFF09D041F0D7F97F
:103590005FF8E00236F0C8F841F01CFA36F01CFA89
:1035A000199D0DF59F61284641F034F98CAC2946F0
:1035B00020463DF0D0FEFF208DF870039DF83002CC
:1035C000DCAEFE2818BF2646179D96E81F00D4E300
:1035D000DDE918A540F0FAF940F0C980D8F80410E8
:1035E0000DF59F6808F102003FF0CAFF0DF55C7908
:1035F00005F1180109F1060040F0DDF80120494607
:103600008DF8F90408F11200B6225BF068FA062082
:1036100032E340F02DF83FF094FF69E34CAE05F142
:10362000D00451463046224629F04BFF40F0FBFEC5
:1036300010D00DF55C7A96E83E0050463EC05FF82B
:10364000880341F0E1F8504605F1D0043DF0F8F967
:1036500036F0C2F9206805F1E00C1690AB466068C0
:103660001590D4E902AE4C469CE86F006FC4DDE9CA
:1036700015209BF8F8C0CDE9E0AE0DF55C7ECDE9F4
:10368000DE020EF118018DF871C399E87D00F14654
:103690007DC10B2073468DF8700318988DF8A183B7
:1036A0008DF8A0C3816A826B4CAC40F0AAFE40F05A
:1036B000BAFE3FF475AF41F042F95FF8000469E7E4
:1036C000199B09F10800D8E90112D033CDE9003087
:1036D0008CA8DDF860A05346FEF7F8F8FFF750BA63
:1036E000199DDCA8B02240F0D0F840F06FF940F00E
:1036F0004981D8F804003FF01AFFFF90FCA80EC0E3
:10370000DCAB0DF59F60DDF860A049E05FF8500488
:1037100036F016F841F0CDF940F6037029E20520A5
:10372000DDF860A08DF83402FF200DF59F688DF85C
:103730003002FFF729BA9DF8FA540DF59F68DDF8BD
:1037400060A0280700F1598103205CE15FF88C0438
:1037500035F0EAFF40F07EFA36F03EF9DDF860A081
:1037600005200DF59F688DF8340200F0BDBF0520DF
:103770000DF59F688DF8FC04FF200DF55C797BE268
:1037800098F80100002800F090815FF8C40435F03B
:10379000D7FF112000F03FBC09F108030DF59F6031
:1037A00005F1D0025146FEF73FFC21E140F603400F
:1037B000ADF83402C8E640F60320ADF8340235E037
:1037C00040F60330ADF83402FF200DF59F6800F09D
:1037D0008CBF41F06EF940F60320CAE141F069F96F
:1037E00005208DF83402FFF7C9B99DF8690000285B
:1037F0007FF401AA98F80C000C287FF4FCA940F093
:10380000E5F840F0B586D8F804108CACA01C3FF069
:10381000B7FE19990DF59F6840F0CCFB3FF048FFCB
:10382000032000F0ABBE05208DF83402FF208DF898
:103830003002FFF7A3B9199C0DF59879B02204F175
:10384000080141F0C1F808F121060DF5467A202261
:10385000504641F086F8D8F801001690D8F80900D3
:103860005FF8C4151490D8F80D0015903046D8F8BC
:10387000055094F81EB13DF01BFD40B95FF8E0150E
:103880000AF110003DF014FD002800F0F284CDE9AB
:1038900012B5C6AB0DF53E780FCB119000BAC190B2
:1038A00008BAC09010BA10914146BF9018BA0F9252
:1038B0000E93BE90DCAE304634F002FD0DF59F64F1
:1038C000002531464FF4B8722046CDF8DC54CDF8CF
:1038D000D854CDF8D454CDF8D054CDF86856CDF89E
:1038E0006C56CDF87056CDF874565BF053F8DCAEDC
:1038F00021464FF4C07240F006FA09F120045FF847
:1039000034963046202221468DF8F054C847304680
:1039100021462022C8470DF59F64304601228DF8CC
:10392000F8542146C847204631464FF4C2725BF036
:1039300031F89DF878A604F5B871102250463CF095
:1039400065FF002965D000F8015B0139F9E7052022
:10395000199D8DF8FC04FF208DF8F80414E040F662
:103960000330DDF860A0ADF8FC04FF208DF8F8040A
:103970003FF0B5FB5D46BEE101204CE305203FF082
:10398000E0FD07E13FF074FEDDF860A030E00DF5EA
:103990009F68E80700F04F8109F102003FF0C7FD82
:1039A0008BE80E00CBF80C00DBE90601CDE9000145
:1039B0005146DBE904231AAC2046FEF781F99DF855
:1039C0006850FF2D40F08D8108F10800DCA940F01F
:1039D0008EF90020CDF8FC04082087E15FF810077D
:1039E00035F0A2FE40F036F935F0F6FF3FF040FE2C
:1039F0000DF59F680DF55C797DE19DF8FB64102E57
:103A000080F06F8206208DF8350203208DF8340295
:103A10009EE5A7F13C060025204647F83C5C314670
:103A20008DF8785647E90E5547F8305C3DF081FC3B
:103A3000A7F12C09314648462EF048FF04F5B07630
:103A4000102D09D06019013590F8601190F870219F
:103A5000514080F86011F3E7BAF1100F40F06B822B
:103A60003FF06FFDDDE912B50020102800F07C82E8
:103A700019F800103FF0D8FEF7E7DAF83C4004F1FF
:103A8000080340F024FF00F08A8382AD0FC58BE36A
:103A90005FF8C00735F054FE40F603700DF59F68DF
:103AA000ADF8FC040DF55C792AE10DF55C7840F089
:103AB000D5F90DF168090D2043468DF8700348468D
:103AC00029F0D6FC40F062FA0BD099E86E0040462F
:103AD0006EC05FF8FC0740F097FE3FF030FE35F017
:103AE0007BFFE00700F092825FF8100835F028FEB7
:103AF000DCAC40F0A7FA9DF870530DF59F680DF50A
:103B00005C79FF2D00F040853FF041FB8DF8FC54BF
:103B1000F6E00120AFE019990DF59F6808F1070064
:103B2000B02218315AF0DBFF092041468DF83002EF
:103B30008CA840F095FBDDF860A0FFF728B85FF88F
:103B400060089B4616953546664635F0EDFD5046B5
:103B5000314642464B463CF0F5FE169B2846214630
:103B60005A463CF0EFFE35F037FF40F0A2FF40F23E
:103B70000340ADF83402FFF701B89DF872133FF02F
:103B8000AEFA0A0700F1AD830320B0E33FF0D9FCA1
:103B9000199D032004218DF8FC04FF208DF8FD14ED
:103BA0008DF8F80426E7DDF860A03FF098FA40F6BB
:103BB0000340ADF8FC04DBE3DDF864B002260DF150
:103BC00068089BF81A119BF820419BF8080101F046
:103BD000030104F0030481F00101022884F00104D0
:103BE00008BF01262143DDF860A0B1FA81F1D5E9D3
:103BF00000234909D5E90205039151468DE861008A
:103C0000404629F0BBFB9DF8685008F102019DF881
:103C1000699012229DF89160C6AC3FF0CEFB022E57
:103C200040F0A883BEA84ECCFF2D4EC02188018055
:103C30007FF499AAD6E308F10800DCA940F057F810
:103C40000020CDF8FC04072050E0DCAC51462046B3
:103C500029F091FC9DF89953FF2D40F0C8830DF594
:103C6000987C94E86E0060466EC008F104009CE801
:103C70003E003EC0FF20199D8DF8F8043DE00DF593
:103C8000987999E860031AA800F17004199890F8DF
:103C90001E01002804BF82468346169908BF0146CC
:103CA000159A08BF0246C4E9081B04F13000B96840
:103CB000C4E90AA280E86003DCA800F091FFDDE916
:103CC000DE01DDE9DC23C4E90023C4E90201CDE91A
:103CD0000001DCAC40F0C0F940F0DFFE52D00DF541
:103CE0009F683FF054FA8DF8FC54FF208DF8F804DB
:103CF0000DF55C79199D9DF8F804FF2840F091813D
:103D000008F1040009F1040190E87C0012207CC154
:103D10004C46199D8DF8700308F10400211D2EF00A
:103D200057FD0C20DAF828108DF8F8044346DAF82D
:103D300038204CAC40F065FB40F075FB09D03FF0FB
:103D4000E4FDDFF8540E40F05FFD3FF0F8FC35F085
:103D500043FE1AACDCA9284640F05CFD204629460B
:103D60003DF00AFBFF208DF8F8049DF86800FE285E
:103D700018BFA046179D98E81F001FC50DF29C6D47
:103D80003FF094BAE01D1AA93FF015FD0A200DF589
:103D90009F6840F0DAFC5AF0A2FEA9E7DDE91010B6
:103DA000702241EA00484CA9DCA85AF0E4FB139ABF
:103DB00028022946149DDDF858B040EA126A12988C
:103DC000C4E900B640EA0222280240EA11614FEA43
:103DD000082040EA1568159D1392C4E90352202279
:103DE0001291C4F80890C4E905A1C4F81C80DCACA9
:103DF00004F19000C6A95AF072FE04F12000129A54
:103E00008DE81108514643461398CDE9036905959D
:103E100027F0ACF80446199890F80801022840F001
:103E20000883DFF87C0D35F07FFC40F00FFA35F0A9
:103E3000D3FD0DF59F64DCA9E01D3FF0BCFC09201B
:103E400021468DF830028CA840F00AFAFEF796BEA3
:103E50001694D6A800F102080AF1040110223FF0DE
:103E6000A8FD82A84146841C3FF0E7F90DF50878CB
:103E7000214610223FF09DFD0DF55C7918994246D0
:103E800040F0A5FD40F009FE00F0248399E85E00B3
:103E900050465EC0DFF80C0D35F046FC40F09DFD4D
:103EA00035F09AFD8CA8DCA90530013113220DF5FF
:103EB0009F685AF014FEFF208DF834528DF83002BE
:103EC000DDF860A0FEF75EBEE01DDCA93FF073FCEC
:103ED000092021468DF830028CA840F0C1F9FEF788
:103EE0004FBEBDF8FC949DF8F9845FEA897041BF2C
:103EF000199991F81C0140F0020081F81C015FEA59
:103F0000895040F12F84DAF83C30D3E902E1D3E95B
:103F1000042341EA030C4EEA020050EA0C0000F0D0
:103F20000A84CDF8F8E4CDF8FC14CDF80025CDF8DE
:103F3000043500F009BC16F80A00A7F12C0180F046
:103F4000800006F80A0040462EF0C0FCDDF860A0B4
:103F50000020DDE912B5102804D018F800103FF059
:103F600063FCF8E70DF59F680DF59F6031463DF065
:103F7000E0F90FCE00BAC19008BAC09010BABF9055
:103F800018BABE90C6A800F11001BEA83DF090F985
:103F90000DF1380EDDF844C000289EE8104200F014
:103FA000708140F086FD40F20340ADF83402FEF728
:103FB000E9BD0B2099E30DF59F6ADCA90AF1080021
:103FC00060220AF168085AF0D6FA169808F10C0136
:103FD000C8F8000030221598C8F804001498C8F8F2
:103FE00008001398C8F81C90D04681E851080AF1DF
:103FF00088001AA95AF073FDCDF8FC5408208DF8FA
:10400000F804DDF860A073E60E2006E0DFF8740B1C
:1040100035F096FB10200DF59F680DF55C798DF855
:10402000F8044C460DF59F69DCA8C82249465AF0B1
:10403000A2FA9DF8700312283FF46EAE1AAC112854
:104040007FF488AE95F8F980B8F1020F04D1DFF85B
:10405000440B35F075FB6DE095F81A0100F0030094
:10406000012802BF95F8200100F00300012804D0C8
:1040700095F8F8C04FF002082EE04CAE05F1D00BD9
:10408000514630465A4629F01CFA40F0CCF909D086
:1040900040F048FBDFF8F40A40F0B6FB40F09AFC31
:1040A00035F09AFCDBF8000005F1E00C16900DF1FC
:1040B000680EDBF8040014907446DBF808001590D5
:1040C000DBF80CA0AB469CE86F006FC47446DDE9DA
:1040D000142116989BF8F8C0CDF804252246CDF897
:1040E000000509F1180E8DF8F9C4CDF80815CDF8C2
:1040F0000CA592E87B008EE87B000B204B468DF8E8
:10410000F80418988DF829858DF828C5816A826B86
:104110004CAE40F04BFC40F086F909D040F002FB79
:10412000DFF86C0A35F000FB40F054FC35F054FC2D
:104130001AAC199D0DF59F680CE63EF0D0FF0028E3
:1041400000F025820A2040F02CFBDAF83820D6AEA9
:10415000DCAC40F041F89DF85853FF2D40F0B6819B
:10416000A01D1AA93FF027FB06202146ADF8F80450
:1041700008F11200B622C3E208F107001AA9B02222
:104180005D465AF0ACFC03200DF59F628DF8F804F3
:10419000501C41469046B7225AF0A1FCABE50020E6
:1041A000CDE98400CDE982000DF59F6682A93046F5
:1041B00003F03CFA40F06DFC46D14CA8311D00F1F3
:1041C000030910223FF0A5FDD6AE49463EF02CFD76
:1041D0000DF59F6851463246404629F09CF840F064
:1041E00058FC40F06B812068C10700F07382616861
:1041F000000A0DF59F660A0E8DF8F6210A0A40EABC
:1042000001607C90ADF8F4217CA9304603F042FABD
:104210009DF8F8540DF59F68FF2D15D1311D4846C6
:104220003FF0AEF9BEAE49463EF0FEFC0DF59F6490
:1042300051463246204629F06EF840F02AFC40F004
:1042400011841999FFF775B9711C4CAE13223FF018
:10425000BAF8C6A81ECE1EC040F00DFA3DE28CA8EA
:104260000DF59F6108303FF042FD8D940520FFF76A
:10427000DEBADDE9C6CE0DF59F68DDE9C894DDF84C
:1042800060A04CA8149E90301BF0010104BF0E46A4
:104290000D46169A08BF0A46159B08BF0B4600F14B
:1042A0000C0180E86400B022C0E9069408F1070020
:1042B00081E808504CA95AF012FC082041468DF8BC
:1042C00030028CA80130B7225AF009FCFEF75ABC24
:1042D00040F035FB49468CA891E87C0004307CC056
:1042E00002E29DF873230F2A00F2BA8106208DF8AE
:1042F000FD040320FFF76BB8B8684C1C00901AAEA1
:10430000DCAA214630465346FDF706FE9DF868506C
:104310000DF55C79FF2D24D108F10800DCA93FF0F0
:10432000E6FCCDF8FC4499E1DFF8480835F0FCF9EB
:104330003FF08CFF35F050FBDDF860A009208DF8D0
:104340007003DD943FF08AFD4CAEDCAC3FF044FFDF
:104350009DF830510DF59F680DF55C79FF2D00F04B
:10436000C88108F10500711C3FF02AF88DF8FC5453
:10437000FF20A3E208F1140C16960DF59878BCE81E
:104380004F00C646AEE84F009CF800008EF80000D3
:10439000BDF89600ADF80C02DDF8920082901AA9E3
:1043A0004DCC8C46ACE84D0012222088ACF80000C1
:1043B0000BF1D2008BF8D1908BF8D0505AF08FFBD4
:1043C000B8E83E000BF1E4003EC016998BF8F910F6
:1043D00098F8001001708298CBF8FA00BDF80C0232
:1043E000ABF8FE000C200DF59F68FEF7C9BE4CA887
:1043F000DCA929225AF073FBDDF89A03022DC6903E
:10440000BDF89E03ADF81C0300F0AC834CA9199CC9
:10441000292204F1D0005AF062FBC698C4F8FA00D1
:10442000BDF81C0384F8F9502546A4F8FE000D20C1
:1044300022E4DFF8680735F077F93FF007FF35F041
:10444000CBFADDF860A00920CDF8FC440DF59F649F
:104450003FF0FAFC2346DAF83820BEAE40F0A6FA68
:104460009DF8F8520DF59F68FF2D00F04D818CA846
:10447000711C05303EF0A4FF8DF8345234E14CA895
:10448000211DC61C3EF0D0FBC6AC31463EF0D5FE29
:104490000DF59F6651462246304628F03CFF9DF8B8
:1044A000F8440DF59F68FF2C00F03A818CA8711C30
:1044B00005303EF085FF8DF8344215E108F1010129
:1044C000C6A83EF07DFF06E10DF59F6808F10500E6
:1044D000711CEEE14CA948463EF0E5FE09F12004CE
:1044E000C6A920223EF069FF169812228DF8B30368
:1044F000BDF80402ADF8B0039DF806028DF8B203D2
:1045000009F145008DF8B4637CA95AF0E8FA09F185
:10451000570079A93FF06CFD584650215AF088FAAF
:1045200019990DF59F6891F80801023838BF0220EB
:10453000C0B2022800F0C681DDF860A0032840F078
:10454000F9810F200DF59F653FF07EFC2B46DAF8D0
:104550003820D6AE40F02AFA9DF85843FF2C40F0A0
:104560006682E81DDCA93FF026F907202946A6E669
:1045700005200DF59F688DF83402FF208DF830027C
:10458000DDF860A0FEF700BB199D012047E506F1AC
:1045900090001690E54840F2FF18D7F808A04FF0B9
:1045A000FF398346504632F051FE044650460E46CF
:1045B00032F04CFEDE4D0023A0FB0502E1FB05239B
:1045C000A4FB0541A6FB056576184FF000014541A7
:1045D00052F1000253F1000024EA080341F1000106
:1045E000BBEB030379EB060379EB050379EB0202DE
:1045F000D8D3169C0022DDF860A004F1100384E8F3
:10460000070083E8070008218DF87013DA60E26084
:10461000DD903FF023FCD6ACDCAB3FF0F2FE9DF822
:1046200058530DF55C79FF2D40F03E81B8680021AC
:104630000090DCAC1AAA534620460026FDF76CFC1D
:104640009DF870530DF59F68FF2D40F02F8108F104
:1046500008001AA93FF04BFBCDF8FC6407202DE1C0
:1046600085F8201105F58F7185F81E0105F58C7010
:10467000BDF874339DF87143A5F8223185F82121E6
:1046800085F81F413DF078FF85F80801DFF8EC045C
:1046900085F8091135F048F83FF096FC35F09CF9A3
:1046A000DAF82C104CA83EF0FEFDDAF83010DCAE43
:1046B00040223EF088FE0DF168083146404602F087
:1046C00019FF3FF063FC00F07B810A2003248DF882
:1046D0001903A0E105250DF59F688DF834528CA8CB
:1046E0000530C6A93EF06CFEFF208DF83002FEF7C3
:1046F00049BAE01D1AA93FF05EF8052040F025F800
:104700005AF0EDF9FFF7F6BAA01DDCA93FF053F817
:1047100003202146ADF830028CA81230B622D3E532
:10472000129C132C40F08981F01DDCA93FF043F866
:1047300009203146C3E50020CDF80405CDF8000579
:10474000CDF8FC04CDF8F804DFF83C140DF59F60BB
:104750002AF043F930B1199991F81D0140F0020097
:1047600081F81D0119980C2180F82051054680F828
:104770001F8105F58C78A0F8229180F8216180F8DE
:104780001E4190F81901032808BF0821DAF8380003
:1047900090F8702390F87133881885F81A0105F5A0
:1047A0008F7013B1012188F8001041463DF0E4FEFE
:1047B00085F80801DFF8F80385F8091134F0B4FF33
:1047C0003FF002FC35F008F90DF59F60012102F081
:1047D00021FE40F05EF93FD19DF80865DDF8044503
:1047E000BDF80905ADF8180331469DF80B058DF8A5
:1047F0001A032046DDF8FC94DDF8005524F013FC84
:104800003FF0A3F840461A463DF05BFFC0B20228D5
:1048100044D1CDF8F8940DF59F68BDF818030DF557
:104820005C79ADF8050551469DF81A0342468DF8AE
:10483000070548468DF80465CDF80045CDF8FC54D1
:1048400028F069FD40F029F95AD10DF59F68012043
:104850008DF83002FEF79BB99DF808259DF8FB0402
:104860008DF88023DDF804258DF87303BDF8F90475
:10487000DF92DDF800259DF80B15ADF87103BDF84A
:104880000905DE92DDF8FC24ADF830018DF8321117
:10489000DD928DF88313ADF881033CE0484629464C
:1048A0003DF0ECFE052536E00DF59F6808F10500AA
:1048B000611C3EF085FDFF208DF8FC548DF8F80456
:1048C000FFF718BADDF860A091F80901002800F0A0
:1048D000CE800A200DF59F653FF0B6FA2B46DAF838
:1048E0003820D6AE40F062F89DF85843FF2C40F0D7
:1048F0009E80A81DDCA93EF05EFF0420294609E742
:1049000099E85E0040465EC0AA4834F00DFF3EF0D4
:1049100016FF35F061F8DCA98CA8053001313EF0B6
:104920004FFD8DF83452FEF711BE00BFFFC5FCFFEE
:1049300040420F00B9680BF1100000F051F9DBE9BB
:1049400006010025DBE904238DE803020DF59F60D5
:10495000CDE9034526F0CCFADDF804150DF59F6886
:10496000DDF8F824DDF8FC34DDF80005CBE90201C0
:10497000CDE900014046CBE9002302F075FD9DF82A
:10498000F844FF2C62D182A808F10401C61C3EF055
:104990004BF988AC31463EF050FC0DF55679514646
:1049A000224640F014F89DF85843FF2C7ED108F1C0
:1049B0000700DCA93EF0FFFE02204146FFF78ABA5D
:1049C000BEA808F10401861C3EF02EF9D6A8314697
:1049D000841C3EF032FC0DF50279214610223FF096
:1049E00098F951460DF5467A4A46504628F093FC10
:1049F0009DF81843FF2C40D09AE86E0040466EC0E8
:104A00005F4834F091FE3EF09AFE34F0E5FFDDF8A9
:104A100060A00DF55C79C6A90DF59F6808F1050049
:104A200001313EF0CDFC8DF8FC44FFF769B98CA84C
:104A3000711C05303EF0C4FC4BE08CA8DCA90830AA
:104A40003FF055F9601C8D9005204EE682AD08F1CF
:104A5000010113223EF0D6FCD6AE2946701C3EF072
:104A6000AFFC2FE0611CC6A83EF0AAFC35E6DAF8E0
:104A7000000090B3DAF8041048E008F103004CA9F4
:104A80003EF011FC0DF59F64DCA904F124003FF019
:104A9000C9F8022041468DF8F804601C2322A04684
:104AA0005AF01DF8DDF860A0FEF7A4BF99E86E008B
:104AB00040466EC03D4834F037FE3EF040FE34F0D4
:104AC0008BFFD6AE8CA8711C05303EF079FC0DF53D
:104AD0009F68FF208DF8344207E6BE68264C324DB1
:104AE000D6F80001402807D33046002125F094F87D
:104AF000D6F80001402839D2421C56F82000C6F8EA
:104B00000021A0FB0401A8421046EBD80BF14000A5
:104B100000260BF13002CDF8FC14C0E900160DF5AB
:104B20009F63C0E902660820C2E90016C2E9026676
:104B30003FF08AF9DAF83820D6AD284628F098FCFC
:104B40009DF858438CA8FF2C05D10830DCA93FF014
:104B5000CEF88D9678E70530691C6BE701200721B8
:104B600034F04DFB34F0D4FC3DF0CCFF402134F068
:104B70004EFB00BF8F00000040420F00900000007D
:104B8000E6010000D501000010F60500E901000073
:104B9000DF010000EB010000E10100008E000000D9
:104BA0008C000000E70100007F3DF1FFE301000001
:104BB00091000000DC010000D0B502AF92B0BC68EB
:104BC0008DF81020FF228DF80420CDE902343A69D7
:104BD000FB68009201AAFDF7D5FC12B0D0BDD4D479
:104BE000F0B503AF2DE9FF0B00260D468046E946E0
:104BF000CDE90266CDE900660F2E1DD8D5F800413B
:104C0000402C07D32846002125F006F8D5F80041AE
:104C1000412C29D23046494610223BF0F7FD02468E
:104C20000B4605EB8400C4F1400136F02CFA204419
:104C3000C5F800010E44DFE704A899E81E001EC075
:104C400004AB3EF0F7FC1FBFA8E80F0008B0BDE8BA
:104C5000000BF0BD074834F067FD04A83CF08CF869
:104C600034F0BAFE34F016FE20464021402234F0E3
:104C7000C6FA00BFF1010000D0B502AF0F4AD269F9
:104C8000BFF35F8FA2B15268012301441360002378
:104C900088420AD0D2F80041002CFBD0C2F8003183
:104CA000D2F8084500F8014BF2E701205060D0BD72
:104CB000034834F045FD34F0EDFD00BFFCE2032075
:104CC0008C010000D0B502AF04460A4834F00AFD5A
:104CD0002078FF2806D03EF059FC2046BDE8D040A1
:104CE0003BF0AEBE3EF02EFD6068BDE8D04035F032
:104CF000D7BD00BF1D030000D0B502AF04460A486F
:104D000034F0F0FC2078012806D13EF03FFC6068CA
:104D1000BDE8D04035F0C4BD3EF014FD6078BDE87C
:104D2000D04033F0B7BC00BF1A020000D0B502AFCC
:104D30000446044834F0D6FC03492046BDE8D04080
:104D400034F016BD1400000078FA0500F0B503AF8A
:104D50004DF804BD0446764834F0C4FC2578FF2D98
:104D600015D13EF013FC784834F0BCFC2579FF2DBA
:104D700026D13EF00BFC794834F0B4FC207A34F0B4
:104D8000EDFC608934F0AEFCD4E90301B5E000200D
:104D9000002634F0E3FC674834F0A4FCB5F10A00C7
:104DA00098BF3046E0B1012829D13EF0EFFB6348BF
:104DB00034F098FCA08934F095FCD4E901019CE022
:104DC0003EF0C0FC614834F08DFCDFE805F005439F
:104DD000233221505B415F003EF0B4FCE08811E0DB
:104DE0003EF0B0FC564834F07DFCDFE805F0066A82
:104DF000575C517A8C6096538E00002062E03EF042
:104E000020FF4D485DF804BBBDE8F04034F06ABCBB
:104E100004202DE03EF015FF4D4834F063FC4D4872
:104E2000257D34F05FFC681E18BF012034F096FC2D
:104E300015E03FF0C5FA607934F090FC208934F039
:104E400051FCA0795DF804BBBDE8F0403BF09CBE8E
:104E5000072018E03EF09AFB3F4834F043FC04F191
:104E600008005DF804BBBDE8F0403BF001BF052041
:104E700034F074FC04F108005DF804BBBDE8F040B8
:104E80003BF0E6BE062034F069FC34E0082048E040
:104E9000042004E0092034F061FC8EE7022034F0A5
:104EA0005DFC6088AEE73FF08BFA608883E70720FF
:104EB00034F054FC608834F015FCA08834F012FC07
:104EC00019E0012034F04AFC608A34F00BFCA08A1F
:104ED00034F008FC601C5DF804BBBDE8F0403BF01A
:104EE000D9BE052034F03AFC6088164DA847A0884A
:104EF000A847E088A847D4E902015DF804BBBDE8F3
:104F0000F04035F0B1BC062000E00A2034F026FC69
:104F1000608834F0E7FBA08874E7082034F01EFCBA
:104F200060785DF804BBBDE8F04034F017BC00BF0A
:104F30001A0300002C0300001B03000033030000D1
:104F400029030000E59603002D0300002003000064
:104F500022030000320300002103000027030000A9
:104F6000D0B502AF0446104834F0BCFB20680238CC
:104F700038BF0020DFE800F00210090B3EF0E2FB32
:104F80002046BDE8D04037F05FB8022000E00320A3
:104F9000BDE8D04034F0E2BB3EF0F8FA2079BDE83D
:104FA000D04036F0F5BF00BFF2020000D0B502AF2E
:104FB0000446044834F096FB2046BDE8D04039F062
:104FC00045BF00BFE5020000D0B502AF04460D4862
:104FD00034F088FB21780C48DFE801F00F030A0C5D
:104FE000050E0D4809E0042034F0B8FB601C04E015
:104FF000084802E0064800E004480078BDE8D040D8
:1050000034F0ACBBF0020000120406002E090600CA
:1050100041070600400706003F070600D0B502AF73
:105020000446044834F05EFB2046BDE8D04032F030
:10503000AFBA00BF16000000D0B502AF04460A4860
:1050400034F050FB2088012809D13EF09FFA074830
:1050500034F048FB6088BDE8D04033F09BBA0020B4
:10506000BDE8D04034F07ABB100000001802000008
:10507000D0B502AF0446044834F034FB2088BDE8C4
:10508000D04033F087BA00BF18020000D0B502AF9D
:105090000446044834F026FB2046BDE8D0403AF0F0
:1050A000B3B800BF09030000D0B502AF04460448FE
:1050B00034F018FB2078BDE8D04034F04FBB00BF7F
:1050C00017000000B0B502AF054604483EF009FEE7
:1050D00028462146BDE8B04034F0CABB03000000BA
:1050E000F0B503AF2DE9000FB1B005468868002484
:1050F000884600288C6050D0D8E9046B0A90B868C4
:10510000D8F80C1000280895099150D0304659461F
:1051100027F02EFC2BAC3DF072FF3CF0C3FE2D9827
:105120000E3405900A222C98214606909DF8AD0079
:10513000BDF8B8A0BDF8AE509DF8AC90079017A888
:1051400059F0CDFCB9F1FE0F00F09E8117A9204661
:105150003FF05DF90598B9F1FF0F2D9006982C905E
:105160000798ADF8B8A0ADF8AE508DF8AD008DF849
:10517000AC9000F0958101220020B9F10A0FA9F14D
:105180000B0188BF52FA81F0002800F0BC80012892
:1051900000F0C6804FF0000AC2E098F80410D8F87A
:1051A00000002DF072FCAC602971286019E13046D6
:1051B0005946CDE9062327F0DBFB2BAE3EF049F93B
:1051C0003CF070FE0DF15C0BB11C16229DF8ACA0FA
:1051D00058469DF8AD9059F082FCBAF1FE0F00F0F0
:1051E0005881594611A87CC97CC0162209880180C3
:1051F00059468DF82D908DF82CA00BA8023059F04F
:105200006EFCBAF1FF0F00F050818DF85D900BF14C
:1052100002008DF85CA011A91622162459F05FFC3B
:105220002BA83DF0E3F92B9D002D67D0DDE92CA1E3
:10523000FB200DF1AC0B0422CDE91D1000201F90C6
:10524000584603911DA94FF004093BF0E8FD2B9E41
:105250009DF8B040002E00F0B1800BF105010DF17A
:10526000980B1322CDE9045A3FF0AEFADDF89B10FB
:105270000DF18C0922910BF1070126980C22CDF833
:1052800085003EF046FDD8F800A0209698F804600E
:10529000DAE900018DF88440324625F08EFD1FFAD0
:1052A00080FB48463BF000FE02460B468B4528BF7C
:1052B0008B46114658461A463BF0ECFDCDE90001FD
:1052C0002BA817AB0699079C4246A0479DF8AC0057
:1052D000FF2800F08980089E9DF8AF1006F10805B0
:1052E000F171BDF8AD10A6F805102CAC30711ECCD4
:1052F0001EC5DDE9045A002030606AE008990020EC
:1053000008600C7169E0B9F10A0F3FF643AF012064
:10531000AA4600FA09F040F20C4108423FF43AAFC5
:105320003046594627F024FB002900F0C88098F841
:105330000450D8F800600DF15C080078ADF860A06A
:105340000DF12C0AF9682A468DF85D0003208DF8CE
:105350005E1031468DF85C005046434600F0BAF8C6
:105360009DF82C40FF2C0BD011AD0AF10101132246
:105370003EF048F8089E29463EF067F800251AE0FE
:1053800011A80AF10401C41C3DF057FF0DF12C0ACD
:10539000214610223EF0C0FC304629462DF075FB18
:1053A000054608F103000C4651463EF0E9F8089E18
:1053B00041463EF04AF8347135600EE0089901200C
:1053C000487100200860E00718BF4FF00D0981F810
:1053D0000490284651463DF051F9DDE909103DF0B1
:1053E0004DF931B03DF062BF3446089E2C9801283B
:1053F0000CD1DDE92421D3462D98DDE9045A521A57
:1054000082420ED24FF48270B08074E7504621463B
:105410002DF03BFB002231713060B260DDE9040108
:10542000D9E701EB000920A849463AF0B3FBC0B226
:10543000022817D120A804214FF004083AF0AAFB53
:10544000C0B2022817D12298214609EB000858461D
:105450002DF01BFB039AC6E9025AC6E904283171F4
:105460003060BAE70121C00771714FF0040018BF26
:105470000D2030713FE701217171C00718BF4FF057
:105480000D0886F8048036E7114834F04DF9079886
:1054900003E00D4834F048F948463BF0A3FB0AE02E
:1054A0000A4834F041F92BA803E0064834F03CF9EF
:1054B0000BA8FFF74BFC34F08FFA34F0EBF93DF01A
:1054C00021FB00BFFE0100000302000000020000FB
:1054D00004020000F0B503AF2DE9000F9BB00446B5
:1054E00015A8984691460E463DF080F8159D002D72
:1054F00064D016980DF1540B0690FB2017990422E6
:10550000CDE9071000200594042409905846CDE900
:105510000369019107A93BF082FCDDF854A09DF8D6
:105520005890BAF1000F57D0029510AC0BF105015D
:105530003DF0ECFCDDF843100C2210980C91E11DBD
:10554000CDF82D000DAE3DF03EFF8DF82C900BF107
:105550000400CDF828A098E83E003EC05946FF2040
:105560008DF854003046FBF7DFFEC0B2022828D188
:105570000398049AD0E9000125F01FFC0F9D80B22A
:10558000A84238BF05460AA829463AF003FBC0B234
:10559000022816D10AA804213AF0FCFAC0B2022867
:1055A0000FD1059AFF20029910700C98516006994E
:1055B000284491600199C2E9031019E01620207077
:1055C00016E00121059AC0074FF00400517018BF82
:1055D0000D20029D107007E00599012048705FEAD8
:1055E000C97018BF0D240C70069928463DF046F886
:1055F0001BB03DF05BBED4D4F0B503AF2DE9F80F7E
:105600000646B0F80A9090F8098025480068C00561
:1056100040D1254825F07DFD0546007C8A460128BD
:1056200004D105F1080101A825F0F3F8D5F8BC4034
:105630005CB3287C20B1B8F1FF0F26D033F068FFAF
:10564000D5F80CB03146CDF80090092205EB0B19C6
:1056500009F1140059F043FA0098A9F81E000BF163
:105660000100B0F10801C9F8204089F81D8018BF79
:105670000146A868E960884204BF012028743DF013
:10568000D4F905F1940035F0A9FF3DF0B2FC05B066
:105690003DF00CBE034834F053F834F0FBF800BF83
:1056A00004ED00E08E01000008DC0320F0B503AF3C
:1056B0004DF804BD06461A480068C00529D11A48AD
:1056C00025F027FD054690F870000C46012804BF20
:1056D00005F1680025F047F9286EC0B195F8701003
:1056E000E1B9D5E91A12002A05EBC203986783F8DD
:1056F000746018BF0132EA66914204BF012085F848
:1057000070003DF092F905F1080022F08BF93DF0B0
:10571000CCB9044834F014F834F0BCF833F0F8FE97
:1057200004ED00E08E01000048DE0320F0B503AF79
:105730004DF804BD84B0064619480068C00528D15C
:10574000194825F0E6FC3FF0F5F804D105F1080111
:1057500001A825F033F9686FB0B1297CF1B9D5E91A
:10576000021205EBC2039861501C821E1E7518BF01
:105770000246EA60914204BF012028743DF055F9C9
:1057800005F1240035F0A6FE3DF077FE04B03DF0B3
:105790006EBE044833F0D4FF34F07CF833F0B8FE2A
:1057A00004ED00E08E01000040DF0320BFB506AF2E
:1057B0000168DFE801F0041F191B17252C1DD0E933
:1057C0000101CDE9010101A80390274833F0ACFFA6
:1057D000264833F087FF264903A833F0C9FF34F089
:1057E000FBF8BFBD1D4806E01D4804E0164802E076
:1057F000164800E01B4804B0BDE8B04033F0A0BF3D
:105800004468154833F090FF3EF0D6F818E0D0E930
:1058100001540F4833F088FF0E4833F063FFDFE890
:1058200005F0020C0406002008E0022006E03EF02D
:10583000C7FD204634F014F802E0012033F08EFF5B
:10584000BDE8BF4034F0C8B8B7010000AA010000AD
:10585000AC0100001703000093010000920100005A
:10586000B3010000B4010000A30100001400000017
:1058700088FA0500F0B503AF4DF804BD85680468EB
:105880006DB14268C66804F10800531B00EB421179
:10589000B21A00EB4310520158F058FA00E0C66803
:1058A000701B20603DF0E3BD80B56F4618B1BDE8C8
:1058B00080403CF0E3BE80BDF0B503AF2DE9000FA2
:1058C00089B0818A02294DD02B49D0E900A980688E
:1058D0000968C9054AD125F01CFC0546D0E9004BF2
:1058E000006D05F158080E4601382865404621F044
:1058F00082FA3DF092F833D3E9464146484625F016
:105900006FF83EF022FB04D0411E684631F0F8FDEE
:1059100040B13DF016F93EF003F910B13DF099FFAA
:10592000F9E7564600206C46D5E91612891A18BFC9
:10593000012195F860201143C9070BD0A96E49B920
:105940002046414635F098FE9DF80000FF280BD018
:105950000120E9E7C0071CBF05F1440035F048FE0F
:105960003DF0F3FE3DF0CAB833F0D2FD034833F00A
:10597000E7FE33F08FFF00BF04ED00E08E01000072
:10598000F0B503AF2DE9000F89B0016900294FD0B0
:105990002C49D0E900A980680968C9054CD125F0D7
:1059A000B8FB0546D0E90046C06C05F1080B8846F7
:1059B0000138E864584621F010FA3DF0FBF835D381
:1059C000E9465946484624F06CFF3EF0BEFA04D042
:1059D000411E684631F0C9FD50B105AC3DF0AFFA4B
:1059E000204627F074FC18B1816801398160F7E71F
:1059F00000206C463FF069F802D12A7CD2070FD014
:105A000001EB410105EB8101C96949B920465946BD
:105A100035F0C9FD9DF80400FF280BD00120E9E70F
:105A2000C0071CBF05F1400035F0E2FD3CF0C9FFA6
:105A30003DF064B833F06CFD034833F081FE33F081
:105A400029FF00BF04ED00E08E01000080B56F4625
:105A5000016819B1BDE8804000F00CB980BD80B587
:105A60006F46C24312061CBFBDE8804001F03FBB39
:105A700080BD0168426C8A429EBF00210160704770
:105A800080B56F4610460A4633F0B9FB0168426B99
:105A90008A429EBF00210160704780B56F46104664
:105AA0000A4633F0ACFBD0B502AF0446026880680A
:105AB000211D3AF0ABFE00202060D0BDF0B503AF51
:105AC0004DF804BD0A4606463EF06CFB054606F559
:105AD00076703EF09CFD0E4695F85E13A1B101393B
:105AE00085F85E13090604BF95F85C13042903D0FA
:105AF0003DF02BFE3CF0D9BF103041F20131A5F84A
:105B00005C1334F0A9FAF3E7024833F019FE33F0DE
:105B1000C1FE00BFFB01000080B56F460146406832
:105B20004A7A00F5B7601AB1BDE8804021F0BAB9F1
:105B3000097ABDE8804021F09AB980B56F4680BDF2
:105B4000B0B502AF45684DB1028900683EF02EFB4A
:105B500020B10C463DF093FD3DF08FFCB0BDF0B59B
:105B600003AF4DF8048D044601790068FFF7A6FFE6
:105B700041F290102618215875688D4208D1307A6C
:105B8000C00705D100214FF00408042000250FE0D4
:105B900041F29C1004EB000801EB81008D4208EB00
:105BA000800091BFC1F10101691A00254FF004087E
:105BB00001F0D4FA4046294601F0D0FA316A11B119
:105BC000706AC9688847B16A11B1F06AC9688847C4
:105BD00004F108005DF8048BBDE8F04000F0ECB97A
:105BE000B0B502AF88B00446D0E906204369002072
:105BF000009002AD21462846FFF772FA2846FFF7CB
:105C000025FF204608B0BDE8B04000F077B8F0B5F9
:105C100003AF4DF804BD066804460579D6E90001D6
:105C20002A4625F0F9F8D4E902010A69214690478D
:105C3000304629465DF804BBBDE8F040FFF73EBFA3
:105C4000B0B502AF88B00446D0E90620436901210F
:105C500094F82000CDE9001002AD21462846FFF758
:105C60003FFA2846FFF7F2FE204608B0BDE8B040F4
:105C700000F044B8F0B503AF2DE900078AB0D0F8C2
:105C800000A0044686680020A06036B304F10C0032
:105C90000DF1140808F1080190E82C002CC194F8CB
:105CA0000490DAE900014A4638F020F80A68B0F8B2
:105CB0005803013A0A600AF57E71ADF8140068468F
:105CC0004246069623F07CFF019840B102993CF0D1
:105CD000D5FC094833F034FD01E094F804905046B7
:105CE0004946FFF7EBFEE16800200AB0BDE8000777
:105CF000BDE8F040FFF7D8BD38010000D0B502AFD5
:105D00000446D0E90201FFF7CFFD21792068BDE804
:105D1000D040FFF7D3BED4D480B56F4602C8DFE8C9
:105D200001F002020206BDE88040FFF759BFBDE85E
:105D30008040FFF785BFD0B502AF24F08BFF68B17C
:105D40000C4690F86F130022012980F86F2304BFDE
:105D500000F51E7034F080F93DF08FFBD0BD80B5AA
:105D60006F4600F5B7600021BDE8804021F07FB8A4
:105D700080B56F4600F5BD600021BDE8804021F090
:105D800076B880B56F4600F5BA600021BDE8804066
:105D900021F06DB880B56F46017B052918BF032936
:105DA00004D11430BDE8804000F002BD80BD80B554
:105DB0006F4690F8441031B1032918BF80BDBDE88B
:105DC0008040FFF7A9BE3830F9E7D0B502AF0446EE
:105DD000D0E90001084304BF207B032808D0D4E9A0
:105DE0003201084304BF94F8D40003280AD0D0BD80
:105DF000207E06280ED00428F1D104F12000FFF700
:105E0000C9FFECE794F8E800062808D00428EED192
:105E1000282005E004F1200000F0CAFCDFE718208C
:105E200004F1D8010844BDE8D04000F0C1BCD0B5B1
:105E300002AF044690F84C0A032805D040B904F597
:105E40006A70FFF7C2FF03E004F5A56000F06FF889
:105E5000D4F8B80238B994F8CA02042804BF04F58B
:105E6000337001F001F9D4E90C01084306BF94F83E
:105E700044000328D0BD04F15000BDE8D04000F03C
:105E800089BBD0B502AF044690F83B0003280FD081
:105E9000042805D005280ED1D4E91101FFF704FD2F
:105EA00094F83A00012804BFD4E908013CF0E6FB6D
:105EB000002084F83A00D0BDD0B502AF044690F877
:105EC0005005032804BF04F59F60FFF7DAFF94F83C
:105ED000A702033804281AD8DFE800F003150D10D4
:105EE000080004F5307001F064F810E004F52A7041
:105EF00000F092FD0BE004F52A7006E004F5327024
:105F000000F0ADFC03E004F5307000F089FC94F87B
:105F10002200042806D0032818BFD0BD04F12800B1
:105F200000F0A8FC07CCBDE8D04000F0D3B9D0B554
:105F300002AF044690F8B602042805D005280DD11A
:105F400004F52E7001F00AF894F8B50218B104F5C2
:105F5000E070FFF7E1FE002084F8B50294F8BA0380
:105F6000042804BF04F5707000F084FC2046BDE8EE
:105F7000D040FFF72ABF80B56F46C0B2BDE8804071
:105F800055F05ABBD0B502AF0446006848B90020AE
:105F900020733EF0AEFD201D34F05EF83DF06DFA4A
:105FA000D0BD044833F0C0FB39F05AFE33F014FD85
:105FB00033F070FC75010000D0B502AF044610301C
:105FC00024F077FB41F27C00204438F092FE41F24D
:105FD00088002044BDE8D04038F08BBE80B56F46C5
:105FE00090F87510042918BF80BDD0E90010C96869
:105FF000BDE88040084780B56F460168012918BF99
:1060000080BDD0E90110C968BDE88040084780B56F
:106010006F4690F87510032918BF80BDD0E90010B5
:10602000C968BDE880400847F0B503AF2DE9000F0F
:1060300089B0824623480068C0053DD13CF0E5FFA9
:106040003DF0DBF83CF0B6FD30D3E9465946484612
:1060500024F068FB3DF079FF04D0411E684631F022
:106060004FFA40B105AC3CF06AFF3DF059FD10B16C
:106070003DF0EFFBF9E700206C463EF026FD02D133
:106080002A7CD2070CD03EF042FC09D1204659466A
:1060900035F00AFA9DF8000002280BD00120ECE749
:1060A000C0071CBF05F1600035F098FA3CF089FC90
:1060B0003CF024BD33F02CFA034833F041FB33F0BD
:1060C000E9FB00BF04ED00E08E010000F0B503AF76
:1060D0002DE9000F89B0824628480068C00547D1E5
:1060E0003CF093FF0546D0E90046D0F8840005F166
:1060F000080B88460138C5F88400584620F043FE56
:106100003CF058FD2ED3E9465946484624F04BFB57
:106110003DF01BFF04D0411E684631F0F1F940B15B
:1061200005AC3CF00CFF3DF0FBFC10B13DF091FBE9
:10613000F9E700206C463EF0C8FC02D12A7CD20769
:106140000AD03EF0E4FB07D12046594635F0E4F989
:10615000009858B10120EEE7C0071CBF05F1780098
:1061600035F046FA3CF02DFC3CF0C8BC33F0D0F9D9
:10617000034833F0E5FA33F08DFB00BF04ED00E097
:106180008E010000F0B503AF2DE9000F89B0824603
:1061900026480068C00544D13CF037FF0546D0E9E9
:1061A000004B806B05F140080E460138A86340465D
:1061B00020F005FE3CF031FC31D3E946414648462B
:1061C00024F042FB3DF0C1FE04D0411E684631F090
:1061D000BAF948B13CF0B5FC204627F061F810B19F
:1061E0003DF0AFFCF8E756460021D5E91002801AD1
:1061F00018BF012095F848201043C00709D0E86C6B
:1062000038B9404624F03BFB01210028EDD133F0A2
:106210007FF9C8071CBF05F12C0035F0E9F93CF007
:1062200051BC034833F08CFA33F034FB04ED00E04A
:106230008E010000F0B503AF2DE9000F89B0824652
:1062400022480068C0053CD13CF0DFFE3CF0E1FF95
:106250003CF0E3FB31D3E9464146484624F042FB9B
:106260003DF073FE04D0411E684631F049F940B15B
:106270003CF067FC3DF054FC10B13DF0EAFAF9E760
:10628000564600206C46D5E91412891A18BF012120
:1062900095F858201143C90709D0296E39B920460D
:1062A000414624F034FB009848B10120EBE7C007D9
:1062B0001CBF05F13C0035F09BF93CF003BC33F00A
:1062C00027F9034833F03CFA33F0E4FA04ED00E038
:1062D0008E010000F0B503AF2DE9000F89B08246B2
:1062E00025480068C00542D13CF08FFE0546D0E944
:1062F000004B006E05F168080E46013828664046DE
:1063000020F079FD3CF089FB2FD3E9463DF000FFFA
:106310003DF01BFE04D0411E684631F0F1F840B15B
:106320003CF00FFC3DF0FCFB10B13DF092FAF9E7B8
:1063300056460020D5E91A12891A18BF012195F88E
:1063400070201143C9070AD0A96F41B9404624F013
:106350000AFBC1B201200229ECD133F0D9F8C00701
:106360001CBF05F1540035F043F93CF0ABBB0348CA
:1063700033F0E6F933F08EFA04ED00E08E01000010
:10638000F0B503AF2DE9000F89B0824621480068BF
:10639000C0053AD13CF039FE3CF03BFF3CF03DFB00
:1063A0002FD3E9463DF0B4FE3DF0CFFD04D0411EB1
:1063B000684631F0A5F840B13CF0C3FB3DF0B0FBBE
:1063C00010B13DF046FAF9E7564600206C46D5E993
:1063D0001412891A18BF012195F858201143C907D2
:1063E00009D0296E39B92046414635F017F9009891
:1063F00048B10120EBE7C0071CBF05F1340035F0C0
:10640000EDF83CF05FBB33F083F8034833F098F9C4
:1064100033F040FA04ED00E08E010000F0B503AF68
:106420002DE9000F89B0824622480068C0053BD1A3
:106430003CF0EBFD3CF0E1FE3CF0BCFB2ED3E9462A
:106440005946484624F0A5FA3DF07FFD04D0411E90
:10645000684631F055F840B105AC3CF070FD3DF0B8
:106460005FFB10B13DF0F5F9F9E700206C463EF016
:106470002CFB02D12A7CD2070AD03EF048FA07D181
:106480002046594624F09AFA009858B10120EEE7C8
:10649000C0071CBF05F1600035F0A0F83CF091FA90
:1064A0003CF02CBB33F034F8034833F049F933F0B7
:1064B000F1F900BF04ED00E08E01000080B56F46E9
:1064C00009490968C90509D124F023FED0F8E8205C
:1064D000013AC0F8E8203CF098FF80BD034833F053
:1064E0002FF933F0D7F900BF04ED00E08E01000072
:1064F00080B56F4609490968C90509D124F009FE2C
:10650000D0F8F020013AC0F8F0203CF07EFF80BDCA
:10651000034833F015F933F0BDF900BF04ED00E096
:106520008E01000080B56F4690F88810032918BFCF
:1065300080BD2C30BDE8804000F089BD80B56F463D
:1065400090F8C810032918BF80BDBDE8804000F056
:106550002FB980B56F4690F8C510032918BF80BDCC
:10656000BDE8804000F024B980B56F4690F8C210B5
:10657000032918BF80BDBDE8804000F019B980B57F
:106580006F4690F8C110032918BF80BDBDE8804058
:1065900000F00EB980B56F4690F86412032918BF59
:1065A00080BD2030BDE8804000F0DEB880B56F4689
:1065B00090F8A610032918BF80BD1C30BDE88040AC
:1065C00000F063B880B56F4690F8EC10032918BF4F
:1065D00080BD1830BDE8804000F00CB880B56F4633
:1065E00090F8F810032918BF80BD2430BDE8804022
:1065F00000F000B880B56F4690F84410032908D029
:10660000042918BF052909D14830BDE8804000F0B1
:106610001EBD4830BDE88040FFF784BF80BD80B517
:106620006F46817F0339012988BF80BD2430BDE8D2
:10663000804000F02AB8D4D480B56F4690F823107B
:106640000339062988BF80BDDFE801F00B1006047E
:1066500015041A0028300FE02430BDE8804000F017
:10666000C2B92830BDE8804000F0B2B92430BDE89E
:10667000804000F07DBB2430BDE8804000F09CB934
:106680002430BDE8804000F06AB9D0B502AF0446BE
:1066900090F82700042818BFD0BD04F13C0000F09A
:1066A0003EFCE06A228ED0E90001BDE8D040FFF751
:1066B00042BB80B56F46417C042918BF80BD40684D
:1066C000BDE88040FFF75EBCD0B502AF044690F84D
:1066D0003500032809D0042803D0052818BFD0BDF1
:1066E00003E004F1380000F0CFFB002084F8340010
:1066F000D0BDD0B502AF044690F83500032804D0D1
:10670000042807D0052818BFD0BD04F1380000F0D8
:1067100009F803E004F1380000F0B6FB002084F82B
:106720003400D0BD80B56F4690F850100639072967
:106730000AD8DFE801F00A0F0904091409045430EB
:10674000BDE8804000F0F5B880BD5430BDE8804021
:10675000FFF744BF5430BDE8804000F0D8B8543053
:10676000BDE8804000F0B1BB80B56F4690F878106E
:10677000052918BF80BD7C30BDE8804000F0ABBC6F
:1067800080B56F4690F82210052918BF80BD2C30C7
:10679000BDE8804000F0E0BA80B56F4690F8201068
:1067A000042918BF80BD2430BDE8804000F0C3BB81
:1067B00080B56F4690F87C10032918BF80BDBDE8F6
:1067C0008040FFF7E9BF80B56F4690F8FC100329C1
:1067D00018BF80BD1030BDE8804000F00BB880B518
:1067E0006F4690F8E010032918BF80BDBDE88040D7
:1067F00000F00BB880B56F4690F8DE10032918BF83
:1068000080BDBDE8804000F05ABC80B56F4690F86E
:10681000D610032918BF80BDBDE8804000F04FBCF2
:1068200080B56F4690F82010032907D0042918BFBF
:1068300080BD2830BDE8804000F0C7BB3830BDE8DF
:106840008040FFF7C0BF80B56F4690F8C0100329A5
:1068500018BF80BD1030BDE8804000F024BC80B57A
:106860006F4690F8E210032918BF80BDBDE8804054
:1068700000F093BB80B56F4690F83410032918BF21
:1068800080BD3830BDE88040FFF77ABFD0B502AF99
:106890000446007A032804D0042804D16068FFF776
:1068A0000DFE00206072D0BDD0B502AF0446C07AA4
:1068B000032804D0042804D12068FFF719FE002023
:1068C0002073D0BDD0B502AF04464FF48F50205C8A
:1068D000033803281AD8DFE800F00214090F41F248
:1068E000E8102044BDE8D04000F07ABB41F2E81047
:1068F0002044FFF7BFFF04E041F2E8102044FFF717
:10690000DBFA2046BDE8D040FFF729B9D0BD80B5FD
:106910006F46017C032907D0042918BF80BD1830B9
:10692000BDE8804000F093BB1430BDE8804000F02B
:1069300000B880B56F46017C042918BF80BD1830AF
:10694000BDE8804000F083BB80B56F46017F04291D
:1069500018BF80BD2030BDE8804000F00CB880B585
:106960006F4690F85810032918BF80BD0430BDE869
:10697000804000F060BB80B56F4690F85C10032942
:1069800018BF80BD0830BDE8804000F054BBD0B5D2
:1069900002AF044690F85C00011F042906D30328C7
:1069A00018BFD0BD04F16000FFF783FEE06B4068C4
:1069B000BDE8D040FFF7D3B980B56F4690F8EC1131
:1069C000032918BF80BD2030BDE88040FFF77CBEA2
:1069D00080B56F46017E032918BF80BD1C30BDE81D
:1069E000804000F085BA80B56F4690F8E011032929
:1069F00018BF80BD1430BDE88040FFF765BE80B58C
:106A00006F4690F82410032938BF80BD2830BDE8B8
:106A10008040FFF73BBFD4D4B0B502AF90F8F02070
:106A2000062A0ED80446082004212546DFE802F095
:106A3000350909040E0A040004F1F80000F036F8E4
:106A400004E0B0BD04F1F800FFF7D9FF04F1E00263
:106A500007CAFFF73FFC04F1D00207CAFFF736FB75
:106A600004F1C00207CAFFF7E5FB04F1B00207CA50
:106A7000FFF788FB04F1A00207CAFFF7D5FA04F17B
:106A8000900207CAFFF77CFC04F1800207CAFFF7F7
:106A9000C5FC04F1400548204421225820444368A5
:106AA0006058816A2868BDE8B040084780B56F46E5
:106AB00090F8F410032918BF80BD0C30BDE8804069
:106AC00000F0A1BA80B56F4690F82810032907D0CE
:106AD000042918BF80BD3030BDE8804000F0BEB84A
