:10100000B8690320011100000B6E0200A533040033
:101010000B6E02000B6E02000B6E0200000000005F
:101020000000000000000000000000000B6E020045
:101030000B6E0200000000000B6E02000B6E02003F
:1010400059110000C11100000B6E0200BD1200001A
:101050000B6E02000B6E02001973020041120000B9
:10106000B11200000B6E02000B6E02003512000080
:101070000B6E0200CD1100000B6E02000B6E020021
:101080000B6E0200F17302000B6E02000B6E020089
:10109000AD1100000B6E02000B6E02000B6E020021
:1010A0000B6E02000B6E02000B6E02000B6E020054
:1010B0000B6E02000B6E020000000000000000003A
:1010C0000B6E02000B6E02000B6E02008D12000010
:1010D0000B6E02000B6E02000B6E02000913000083
:1010E0000B6E02000B6E02000B6E0200000000008F
:1010F000000000000B6E0200000000000B6E0200FA
:1011000025F086FE0E480F490022814201D004C01E
:10111000FBE70D480D490E4A814202D008CA08C0BB
:10112000FAE70C484FF47001026842EA01020260DB
:10113000BFF34F8FBFF36F8F22F0CDFE00DE0000B4
:10114000F88A032008F80320B8690320F48A0320F2
:10115000D8F1040088ED00E0B0B502AF3CF08AF8A9
:10116000104C206828B1002020600F48283026F05D
:10117000CDFB606850B10C4D0020606005F1280087
:1011800026F0C4FB05F1400026F0C0FBA06838B192
:101190000020A06004484030BDE8B04026F0B6BB57
:1011A000B0BD00BF1C010040F0E6032080B56F46D3
:1011B0000248BDE8804026F0A9BB00BF18DA032032
:1011C00080B56F46BDE880403DF0E6BBF0B503AFAB
:1011D0004DF804BD144E0020306027F0B5FA134DD1
:1011E00004462868E0B94FF0FF302860E86870B125
:1011F000296988420BD0D6F808140170D5E903019B
:101200000130E860884204BF281D26F053FB2CF013
:10121000B7FA20465DF804BBBDE8F04027F0CABA33
:10122000034825F071FC00BF00D1004068E70320AF
:101230006CC0040080B56F46BDE880403EF048BAFF
:10124000D0B502AF0F4C206930B11020C4F80802AD
:101250000D48383026F05AFB606830B10220C4F8DF
:1012600008020948383026F051FB206840B10120BF
:10127000C4F8080204483830BDE8D04026F046BB28
:10128000D0BD00BF00710040F0E60320D0B502AF32
:10129000054C206830B10548483026F037FB402027
:1012A000C4F8F001D0BD00BF18310240F0E60320C1
:1012B00080B56F46BDE880403DF062BBD0B502AF5F
:1012C0000F4C606C38B10F48503026F01FFB4FF4C4
:1012D0008020C4F80402206830B10A48503026F05B
:1012E00015FB0220C4F80402206A38B105485030CA
:1012F00026F00CFB4FF40070C4F80402D0BD00BF10
:1013000004310040F0E60320F0B503AF2DE9800F73
:10131000394D286858B1394C0120C5F8080204F14C
:10132000280026F0F3FA04F1300026F0EFFAE86D19
:1013300038B14FF40000C5F808023048303026F0CC
:10134000E5FAA86A38B14FF48060C5F808022B4866
:10135000303026F0DBFAA86D28B10020A8652748B8
:10136000283026F0D3FA286EE0B300202866D5F89E
:101370006CA32248C5F86CA3BFF35F8F50E8081F29
:1013800041EA0A0140E80812002AF7D1DFF87C8020
:101390004FF0000BDFF86C900126BFF35F8F5FEA20
:1013A000CB701FD13546072E1CD82E462AFA05F4DD
:1013B00018BF0136E00706D0681E082814D209EBD2
:1013C000C00026F0A3FAE81FB0FA80F04FEA501BE5
:1013D000E003E4D5681E082808D208EBC00026F018
:1013E00095FADCE72CF041BB054A00E0064A4FF0D5
:1013F000FF30082124F02EFF00710240F0E60320A8
:10140000E8A10400D8D70320F8A1040018D80320CD
:10141000F0B503AF2DE9000F9BB0D0E9014B814639
:1014200008460E46A4EB0B052BF0CEF8854201D200
:10143000002073E23046D9F800502BF0C5F8DFF8F1
:1014400008152A46009100EB0B015846234628F068
:1014500089FF3278FF2A1CD13279FF2A3BD12CF048
:1014600025FF3089012812A814BF1B211D2128F057
:10147000B9FFC0B2022840F04882718912A828F052
:10148000D1FFC0B2022840F04082D6E9031212A870
:10149000C4E1B2F10A044FF0000398BF1C46002CCF
:1014A00033D0012C46D12CF001FF12A8522128F094
:1014B00099FFC0B2022840F02882B18912A828F012
:1014C000B1FFC0B2022840F02082D6E9011212A872
:1014D0002AF07EF934E0CDE9090100200B90DFE825
:1014E00012F0090036015900160131006B01930119
:1014F0003301A00109A8032128F074FFC0B202281B
:1015000040F00382F18809A8F9E112AC0A2A0BC461
:1015100000F21482DFE812F00B008D01A701AA018E
:10152000DA01BB01E3011202120212028A0112A8BF
:10153000102180E12CF0BAFE12A81E2128F052FFE3
:10154000C0B2E2E109A8092128F04CFFC0B202288C
:1015500040F0DB81746909A8214628F043FFC0B23E
:10156000022840F0D2812CF012FA12A829462AF063
:10157000A5FF9DF84800FF2840F0C6812CF05CFADA
:10158000C0B2022840F0C1812CF020FDC0B2022878
:10159000EBD0BAE109A8052128F024FFC0B2022847
:1015A00040F0B381357D09A8294628F01BFFC0B261
:1015B000022840F0AA81D6E90220CDE90E20316947
:1015C0008DF8445010910EAC401AE9B24FF0100A59
:1015D000012908BF4FF0020A0AF102018842C0F057
:1015E0009381204629F0ACFD0546C00740F09F815D
:1015F00012A8214652462AF097FF1298002800F0C0
:1016000096811399022924D004291AD0102928D1AF
:10161000C2684FF0020881880792C27AADF868105C
:1016200001680892827A02925FFA81FC427A039200
:10163000027A199101210492C2798079059206906B
:1016400012E0D0F800C04FF00108CDF864C00121CD
:101650000AE0B0F800C00121ADF864C04FF0000806
:1016600002E0CDF866100021002900F05A81079BA6
:10167000A2460C93290C9DF860308DF83430089BFD
:101680008DF85430029B8DF85330039B8DF8523007
:10169000049B9DF868008DF85130059B9DF86920EA
:1016A0009DF865E09DF866509DF867408DF85030D4
:1016B000069B8DF84D000C988DF84F308DF84E201C
:1016C0008DF84C408DF84B508DF84AE08DF849C0AC
:1016D0008DF84880CDF8550009AC204628F0A2FED0
:1016E000C0B2022840F0118112A828F04BFE2CF065
:1016F00015FB20461A462AF06BF8C0B2022840F0CB
:101700000481DDE90F0154469DF844505CE709A8C7
:10171000012128F067FEC0B2022840F0F6807179FE
:1017200009A828F05FFEC0B2022840F0EE8031899F
:1017300009A828F077FEC0B2022840F0E680B1790F
:1017400009A828F0EFFDDCE009A80D215EE009A85A
:10175000072128F047FEC0B2022840F0D680316948
:101760000DF148080DF1240AD6E902201491CDE9C3
:101770001220401A0428C0F0C780404629F0E0FC3F
:101780000546C00740F0C080404629F0D9FC044619
:10179000C00740F0B980290C2CF082FDC0B20228AD
:1017A00040F0B380210C2CF07BFDC0B2022840F049
:1017B000AC80DDE91301DCE709A8112128F012FE55
:1017C000C0B2022840F0A180746909A8214628F01F
:1017D00009FEC0B2022840F098802CF0D8F812A878
:1017E00029462AF06BFE9DF84800FF2840F08C80C7
:1017F0002CF022F9C0B2022840F087802CF0E6FBE2
:10180000C0B20228EBD080E009A80B2128F0EAFD45
:10181000C0B2022879D1D6E9021209A829F0D8FF6E
:101820006FE009A8132128F0DDFD6AE012A80C2161
:1018300057E012A8082128F0D5FDC0B2022864D1D3
:10184000718A12A828F0EEFDC0B202285DD1B18ADB
:1018500012A828F0E7FDC0B2022856D1711C12A8C8
:101860002AF008FC4DE012A80A2131E012A812214A
:1018700028F0B8FDC0B2022847D1718812A828F01C
:10188000D1FDC0B2022840D1D6E90112FFE512A86D
:10189000062128F0A7FDC0B2022836D1718812A80F
:1018A00028F0C0FDC0B202282FD1B18812A828F0BC
:1018B000B9FDC0B2022828D1F18812A828F0B2FDE3
:1018C000C0B2022821D1D6E90212E0E512A8022115
:1018D00028F088FDC0B2022817D171880EE012A846
:1018E000042128F07FFDC0B202280ED1718812A811
:1018F00028F098FDC0B2022807D1B18812A828F0BC
:1019000091FDC0B2022800D10220022806D1304643
:101910002AF05AFE5844C9F8080002201BB02BF0E8
:10192000E4BE0798CDF85D0008988DF85C009DF83E
:1019300060008DF8340017980C90E5E703480F21FC
:10194000034A24F080FC00BFC0D00400B0D80400DB
:10195000D0D80400F0B503AF4DF804BD84B0044600
:10196000D0E901300D46191A04290CD32268061D4E
:1019700008492BF041FECDE9020102A829460422C4
:101980001EF0A6FC08B1002001E00220A66004B011
:101990002BF05FBE4C55040080B56F4600210173EB
:1019A00001490131016080BDF0E6032080B56F463A
:1019B00041F2B032815010440021017280BDF0B577
:1019C00003AF4DF8048D8CB091E87C00EC46804666
:1019D0000CF1140061467CC029222CF09EF80020F6
:1019E00088F829000CB05DF8048BF0BD80B56F4617
:1019F000002180F8281080BD80B56F460021017459
:101A000080BDD4D4E0B502AFDFF880C00446002525
:101A100044F2B05040F2011285422FD02B18654499
:101A200005F1180656E8001F21B946E800210029F3
:101A3000F8D103E0BFF32F8F1D46EDE7144868622D
:101A400005F128002146FFF7B1FF2046294625F081
:101A500003FC0025BFF35F8F54E8000F44E80051FA
:101A60000029F9D1BFF35F8F30B1C669C5614576F2
:101A7000416A88473046F7E720BFEBE705487A1E02
:101A800000902B210448054B25F08DF87890032019
:101A900085C601007C9004005ED204002C9C0400EA
:101AA000F0B503AF2DE9000B94B00446F8680DF1D2
:101AB0003C082BF0ACFF9DF83C00FF2803D040F61B
:101AC000032020801DE0A7F14E0008F10401851CD1
:101AD0002BF054FC02A82946861C2BF0A5FB0BAD6D
:101AE00031462BF04BFC2CF094FA2078FF2808D0DC
:101AF0002CF061F8044825F0AFF92BF03EFE25F0FC
:101B000013FB14B02BF013BEDF000000F0B503AFE1
:101B10002DE9000FCDB0FE68D7F80880CDE91D2073
:101B200056F870AFD8F84400C346CDF8AB00C146B4
:101B30005BF8410FD6F808E02A90D8F83D001293E0
:101B400016917268F568D6F810C07369B169F469C6
:101B5000CDF8CB0059F83A0F2192CDF870E01B95E3
:101B6000CDF868C0199320911F94329032A88DE867
:101B7000120454460DF1F80ACDE9032E624605958C
:101B80002AA9CDE90610A6F1300150461CF06AFDE5
:101B900022A89AE82E002EC04298119043981090E7
:101BA00044980F9045980E90306A1890706A17907C
:101BB00008F14E00D6E90AA52BF06EF920F07F401F
:101BC000CDE90A0B209800901F98CDE901042198D7
:101BD00003901C98CDE908A5049005461B98CDF804
:101BE00054B005908346189806901798CDF84C90FD
:101BF000CDF830901494079026A822A91A9A199B20
:101C0000914698461CF054FC1D98102804D126A833
:101C100016991FF049F930B11E99FF20087040F65F
:101C2000033088805EE0D6E90C40D7F808A01D900C
:101C3000B06B18900AF14800F66B2BF02DF920F0EC
:101C40007F400A9013980B9015980C902098049060
:101C50001F981899CDE905041D98CDE90816CDE91E
:101C6000005BCDE9029807902AA822A9149A219B2B
:101C70001CF01EFCDDE92C01DDE92A23CDE9000181
:101C80003EAC204605F06EF89DF8F850FF2D0AD0C6
:101C9000611C32AC2BF06EFB1E9E21462BF0A4FC87
:101CA0003571FF201DE00DF1C809211D09F1030563
:101CB0002BF064FB2EAE29462BF0B6FA129C0DF1E8
:101CC000F8083246404621461EF0F3FB9DF8F850D6
:101CD000FF2D0AD01E9E08F101012BF085FCFF208C
:101CE000357130704DB02BF034BC9AF838000223B7
:101CF0009AF84A100DF1F8089AF85020022801F0DD
:101D0000030008BF012302F0030180F0010081F00D
:101D1000010108430F990091B0FA80F00E99400933
:101D2000CDE901132146DDE91032039040461EF053
:101D3000F3FB9DF82161022E09D198E86E00484618
:101D40006EC01E9E99E83E00301D3EC0A9E732AC31
:101D50003EA929222BF054FCBDF826012146ADF8FE
:101D600030012922DDF822014B903EAD2BF04FFCD3
:101D700050462946292241F036F94B981E99CAF857
:101D80002A00BDF83001AAF82E000A208AF829603E
:101D90000870A7E7102B7DD1F0B503AF2DE9000F38
:101DA0009DB009908846F868137800F16006D2F873
:101DB0000100D2F80540D2F8095043EA002C3969F5
:101DC0002B0243EA1463240244EA1060D47BB2F885
:101DD0000D20C6E900C042EA0442120242EA15623E
:101DE000C6E9023218A803F05BF806F1300A189829
:101DF00006F11003F66B1A9A08F07F041999DDF8C2
:101E00006CB0069283E80708A4F1400207913146BE
:101E100008909AE82006504640F0A0FFCDF81480C4
:101E2000804628464946224640F098FFC4F14002C9
:101E3000814650463146D7F80CA040F0A5FF0AF184
:101E4000200103910699402CCDE901BA009138BFD9
:101E500049EA00082948002C08BFA8462CF0CBF915
:101E60000AA8DDE907321CF087FBDDE90C01DDE99A
:101E70000A23CDE9000118AC204604F0AFFE9DF81E
:101E80006050FF2D0CD0611C0FAC2BF073FA099E33
:101E900021461FE0FF21017040F603218180704739
:101EA000DDF814900FA8C61C211D1022D7F8088059
:101EB0002BF071FB14AD31462BF060FA18AC4146A3
:101EC0002A4620461EF0F5FA9DF86050FF2D09D0F5
:101ED000099E611C2BF088FBFF20357130701DB00E
:101EE0002BF037BB099C5146B02204F1080040F0AA
:101EF00025FA0620C4F804902070F0E7C0FFFF7FA9
:101F0000F0B503AF2DE9000B94B00446F8680DF16D
:101F10003C082BF07CFD9DF83C00FF2803D040F6E8
:101F2000032020801DE0A7F14E0008F10401851C6C
:101F30002BF024FA02A82946861C2BF075F90BAD6C
:101F400031462BF01BFA2CF064F82078FF2808D0DB
:101F50002BF031FE044824F07FFF2BF00EFC25F01F
:101F6000E3F814B02BF0E3BBDE000000F0B503AFE4
:101F70002DE9000F9FB08246880701D411206FE041
:101F8000D56B934605F108030FCB41EA030440EA01
:101F90000206344311BF8DE80F000020CDE9020096
:101FA000CDE9000016AE6946304604F00BFF9DF8FF
:101FB0005840FF2C3DD111A8311D00F1030810221B
:101FC0002BF0ABFD0AAE41462BF02EF90DF158096E
:101FD000594632462CF014F99DF85840FF2C30D168
:101FE0002868C10741D06968000A0A0E8DF83E20B2
:101FF0000A0A40EA0160ADF83C200E9016AE0EA928
:10200000304604F029FF9DF85840FF2C11D1311DB6
:1020100040462BF018FB1BAE41462BF005F905A8F6
:10202000594632461EF045FA9DF81440FF2CA5D0C3
:102030000DE011AD711C13222BF0E9FA05A8294619
:1020400002E005A809F1010101302BF0A1FA05A970
:102050000AF1050001312BF09BFAFF208AF80440B9
:102060008AF800001FB02BF074BA0524EFE7F0B532
:1020700003AF2DE9000F8BB0044602A80E460021E5
:10208000924604F081FD9DF80800FF281DD09DF8C0
:102090000B10E170BDF809109DF81B20DDE903C5A8
:1020A000A4F80110BDF81910059E9DF81830ADF880
:1020B0001C108DF81E202374C4E901C5E660A4F845
:1020C0001110E27420702BF0B1B99DF818B0059D85
:1020D000BDF81900ADF8040059469DF81B008DF8B5
:1020E00006002846DDE903891AF044FC02460B4647
:1020F00006F1480011461A462AF086FFC0B20228AF
:102100001CD1BDF804005146ADF829009DF8060029
:102110008DF828B00995CDE907898DF82B0002AD1F
:1021200007AA28461EF0C5F99DF80860FF2E10D0BA
:10213000601C691C2BF02CFA2670C4E70520494668
:10214000207040460BB0BDE8000FBDE8F0402AF01B
:1021500031BFFF20B6E7D4D4F0B503AF2DE9000FAF
:102160009FB00D46B968069314460B901AA802F06A
:1021700097FE1A9804F170061C9A05F07F0504F189
:10218000900B1B991D9B0FC60892A5F140020A9067
:102190009BE8400E504609915946079340F0DEFDFA
:1021A0008046304649462A4640F0D8FDC5F14002F7
:1021B00081465046594640F0E7FD04F12001402D8C
:1021C000CDE90241079901910899009138BF49EA88
:1021D00000082448002D08BFB0462CF00CF80CA8CD
:1021E000DDE909321CF0C8F9DDE90E01DDE90C2357
:1021F000CDE900011AAC204604F0F0FC9DF86850CF
:10220000FF2D0BD0611C11AC2BF0B4F80B9E2146B6
:102210001322701C40F0E7FE35701FE0DDF82C80C3
:1022200011A8C51C211D2BF0A9F816AE29462AF0CD
:10223000FBFF1AAC0699324620461EF03AF99DF88B
:102240006850FF2D07D008F10100611C2BF0A0F9A8
:1022500088F8005002E0FF2088F800001FB02BF043
:1022600078B900BFC0FFFF7FF0B503AF2DE9000FC5
:10227000B5B016461D46CDE91210B046D6F83D0061
:102280000DF1A00C55F8702FCDF8A30058F83A0FB7
:10229000289056F8410FD5F808906B68D5F80CA037
:1022A000D5F810E0D5F814B0AC69E9692C90D6F8EF
:1022B000030014921593CDF86C90CDF868A0CDF87A
:1022C00064E0CDF860B017941691CDF8B3002CA857
:1022D0008DE800460DF18009CDE9051CA5F130011E
:1022E00007904846CDE903B41CF0BCF91CA899E856
:1022F0001E0005F1300B1EC02498119025981090F7
:1023000026980F9027980E90F01D9BE8100AD5F89C
:102310003CA02AF0C1FD20F07F40CDE90A08DDE9AC
:102320001A10CDE908BA0C96CDE90001199802906F
:102330001898039017980490169805A981E811023F
:1023400028A81CA9DDE914231CF0B2F8DDE9282334
:102350000DF18009DDE92A01CDE90001484604F0CC
:1023600001FD9DF88060FF2E0ED02CAC09F101011B
:102370002BF000F8139D21461322681D40F033FE18
:10238000FF202E71287051E0DDF84C802CA8C61C6F
:1023900009F104012AF048FF31AC31462BF056F820
:1023A0000DF18009129922462BF02AFF9DF88040FA
:1023B000FF2C0BD008F1050009F101012BF0E8F822
:1023C000FF2088F8044088F800002FE005F1200B7A
:1023D000464608F11804ED6A9BE8000D09F1070074
:1023E0001CA92BF030F90B20494606F8010B1722E7
:1023F0002BF0D1F8199804F12C0120621898606232
:102400001798A0621698E56381E8010D1198206085
:10241000109860600F98A0600E98E060149820619A
:10242000159860611B98A0611A98E06135B02BF097
:1024300090B8D4D4F0B503AF2DE9000F8BB00446AB
:102440000220ADF80A0001208DF808001E462C4835
:1024500088468DF80920039007A82AF061FD079DA2
:10246000EDB3DDE9089BFB20D7F808A0CDE904B067
:102470000020069004A803A9FFF76CFAC0B2022856
:102480001CD104A802A9FFF765FAC0B2022815D131
:10249000DDE90530191A02290ED3049A1949009171
:1024A000811C019127F05EFFCDE9070107A83146A5
:1024B00002221DF00DFFB0B1042004E0C0074FF070
:1024C000040018BF0D200121207061702846494684
:1024D0000BB0BDE8000FBDE8F0402AF06BBD162040
:1024E00020702AF0A3BF019851460A9007A880E8FF
:1024F000200A07AB204642461BF0B3FDF1E700BFC0
:10250000060005004C55040091F8673301F514727C
:10251000012B12BF91F8561202F58C720121A0B165
:10252000D0B502AF9388B0F8154112686340D0F877
:10253000114162401A4390F817315940C90718BF3A
:102540000020002A18BF0020D0BD00207047D4D43E
:10255000F0B503AF2DE9000794B002AD884681467F
:1025600048212BF0D5FBD8F80C404826334B2946A0
:10257000482C38BF26463046482229F055F90546F2
:10258000D8F808008A4621461DF088FA8E4251D8B4
:1025900003462B4800901A4628465146334626F0FB
:1025A000F5F9022C09D22D4824F056FC304624F0CF
:1025B00045FC24F0B9FD0A2019E09DF80800441EEE
:1025C000E5B20E2D12D22046A6F1010A1AF044FC03
:1025D00080B282451BD109F1010002A9482240F0D6
:1025E00002FDC9F84C6089F8004008E0072089F82E
:1025F0000500032089F80400FF2089F80000D8E9CD
:1026000000012AF0D7FC14B0BDE80007F0BD0D486A
:1026100024F022FC0C480D4CA0470D48A0470D4863
:102620000D4950F8250051F8251022F075FB0020C7
:10263000A047BEE70A4B0A462BF03EF97C56040041
:102640009C560400D400000014000000176E020025
:1026500031020000FCDD0400C4DD0400D5000000F0
:102660008C560400F0B503AF2DE9000F95B01C782F
:102670008046FF2C15D046481D4616468A4693F8DC
:1026800001B024F0E9FB434824F0C5FB284628F0BC
:10269000C5FE032C18BF4FF0080B24F045FD192C84
:1026A00005D1FF2088F8000015B02AF052BFB6F817
:1026B00058430FA82AF034FC0F98002848D0A7F1FF
:1026C00043000094C51C0FA90C222AF0A0FFA7F11B
:1026D00052002946C61C0C222AF05DFF12AD31467D
:1026E0000C222AF094FF02A8294604221AF054F979
:1026F0009DF80800DDE903549DF81860FF28DDF817
:10270000149026D1484631461AF034F9E1B380F8E6
:1027100000B030461AF026F9CDE904904046CDE9E4
:10272000025402AD009A51462B461BF09AFC98F8D1
:102730000000FF28B5D098E85E0028465EC0164825
:1027400024F08AFB284628F05BFE24F0EDFCABE782
:1027500016209DF80B1088F80310BDF809109DF89D
:102760001B20A8F80110BDF81910ADF804108DF861
:10277000062088F81060C8E90154C8F80C90A8F841
:10278000111088F813208DE7044A2AF051FD00BF8C
:10279000CD0000000B020000D2000000BC56040077
:1027A000F0B503AF4DF8048D92B00DF104080D465D
:1027B00006461146404644221C4640F06FFBB8686E
:1027C0002946009030464246234600F005F812B0F4
:1027D0005DF8048BF0BDD4D4F0B503AF2DE9000F44
:1027E000ADF29C6D189301F1780A1790DCAE91F868
:1027F000C84006F1600B90460D46022C199132D16B
:102800000DF168092946C82248463FF097FD15207A
:1028100028710E2028709DF8685098F800000C2D43
:1028200000F2128306F17004DFE815F00D008C0150
:1028300042012801C9000A01DF010E037502C60228
:102840000E03AB029700FF2804BF98F80C10002974
:1028500000F02287411E0329C0F0B882002840F012
:10286000EF8200F05ABF0DF50C792946C8221AAE46
:1028700048463FF063FD15209DF830122871122064
:1028800028700F2998F8000000F2B68506F160055F
:10289000DFE811F01000C10302039F04CF04B2056A
:1028A0007B03E0032204B205AB053205B205B20595
:1028B000E6028803FF2804BF98F80C200A2A40F09B
:1028C0009B85D8F80800002802F09882199D0C22F8
:1028D000D8F8041095F81901032808BF0822DDF87C
:1028E00060A0DAF8383093F8700393F8713302443B
:1028F00085F81A210C7813B1012185F818110DF50E
:102900009F6858B195F81C0195F81D1140F003001F
:1029100085F81C0141F0030185F81D111AA85146E4
:102920001DF06DFF9DF891000DF55C79022807D030
:10293000600741F1C3829DF89000022801F0BE8239
:10294000DCAC2BF0A5F92BF0FDFC01F01B822AF08A
:1029500067FD8DF8FC5401F0C6BAFF2804BF98F853
:102960000C10082940F02F82D8F80820002A02F025
:102970004382D8F804000478022C81F01A800DF507
:102980009F68062A42F22A82199A50F8011FDDF840
:1029900060A0C2F811118188A2F8151192F8F910FF
:1029A00082F81741022900F0FB868188A2F8F41012
:1029B0000068C2F8F00082F8F64000F0F1BEFF288F
:1029C00004BF98F80C10022900F05186042800F288
:1029D0003E82DFE810F0E806FB01FB010500E80697
:1029E0000DF59F600DF59F6B00F1900519989022F1
:1029F00000F1180158463FF0A1FCDCAE09F10101DD
:102A000011222AF0C8FD0024D8F80400C5E900040A
:102A1000C5E904049DF87003C5E90244C007C5E98F
:102A2000064401F05C85DDF860A0721CB8680021E6
:102A3000CDE900AB102302908CA8FFF7ABF9CBE1F6
:102A4000FF2804BF98F80C10022940F0BC811998A7
:102A50000DF59F64B02200F1080120463FF06EFCA6
:102A6000D8E90123A046DDF860A0B8681B99CDE93C
:102A700000A402908CA8FFF78DF9AFE1042800F2C2
:102A8000E887DFE810F090060500C707A30190066D
:102A90009DF86900002801F07781199909F1180063
:102AA0001022D031CDE9001009F1020100F043BF3E
:102AB000FF2804BF98F80C10032940F08481199D69
:102AC0004CA870222AF091FEDAF8000005F1980176
:102AD00016902022DAE901B9DAF80C60C6A840F0B5
:102AE00082FA2AF003FF40F09A87D8F804000DF527
:102AF0009F6A169A5B461596D0F809101491D0F883
:102B00000110139101781291C17B11911899D0F89D
:102B10000550B0F80D0010905046CDE900965E4685
:102B2000FEF7BEFF9DF8F884B8F1FF0F01F06F8249
:102B30008CA80AF1010105302AF02AFD8DF83482B3
:102B400000F0A8BFFF2804BF98F80C100B2940F034
:102B50003A81D8E901120DF5467840462AF004F989
:102B6000DDF860A02022DAF82C10BEAC2AF048FD77
:102B7000DAF830104CAE40222AF00DFD0DF59F69B9
:102B800021464246334648462AF01EF89DF8F8048E
:102B9000C00700F049879DF8FB0409F106018DF894
:102BA00006021222BDF8F9049DF8FC449DF8FD646C
:102BB000ADF804027CA840F016FA09F1180079A9D2
:102BC0000DF59F6A0CC80CC1007808704CA95046DE
:102BD00004F050F89DF8F804FF2801F072820A20F2
:102BE00003258DF8710301F097BAFF2804BF98F808
:102BF0000C10032940F0E7802BF0CBFADCA83FF063
:102C00009DFB2AF073FE40F01887D8F804001B9D46
:102C1000DBE90E98D0F801100278129505F07F05D7
:102C200042EA0122CBF820201692D0F80930D0F8E1
:102C300005201C0244EA1264120242EA1161CBF838
:102C40002840CBF82410C5F140021591C17BB0F8A3
:102C50000D00149440EA01404146000240EA136A24
:102C60004846CBF82CA0DBE90C6440F08DF81390BB
:102C7000304621462A4640F071F8A5F1400204464C
:102C80004846414640F06AF81399402D38BF44EA5F
:102C90000100EF49002D08BF3046DCAA61F35F0058
:102CA000149B02F12001CDE9003ACDE90212049013
:102CB000BEA8DDE915321BF05FFCDBE900ACDDE905
:102CC000BE648CEA0401DBE90289DDE9C03589EAEA
:102CD000050008438AEA060288EA03011143084313
:102CE00041F06680DBE904230DF59F64DBE9060112
:102CF000CDE90001204603F097FF9DF8F854DDF878
:102D000060A0FF2D01F0FB84611C4CAC2AF032FB6B
:102D10008CA821462EE0FF2804BF98F80C10032948
:102D200051D12BF036FADCA83FF008FB2AF0DEFD8B
:102D300040F08886D8F8040004F110052AF07EFCE3
:102D40000EC5B968E061204602F0AAF8DDF860A07F
:102D5000D4E90201D4E900230DF59F64CDE9000117
:102D600051462046FEF79CFE2BF0E4FA01F0E68186
:102D70008CA8611C05302AF00BFC8DF8345200F051
:102D800057BEFF2804BF98F80C1007291BD12AF062
:102D9000ADFD40F07C86199890F8F900022808D023
:102DA000D8F804000AF168042AF048FC0EC4CAF8F6
:102DB00074000C2000F06FBEFF2804BF98F80C10C0
:102DC0000C2900F0B085411E032936D28CA81AA91F
:102DD0002BF0AEF9DDF860A00DF59F689DF830028C
:102DE000FF2800F0E7840DF50C790DF59F60C822EF
:102DF00049463FF0A3FA9DF8F8040E2800F0E48459
:102E0000199D0D2840F0008595F8F980B8F1020F62
:102E100000F0FA8495F81A0100F00300012802BFBF
:102E200095F8200100F00300012800F02A8595F8AC
:102E3000F8C04FF0020800F051BD002800F06B848C
:102E4000042804D100F0AFBCFF2840F0598498F862
:102E50000C00042800F0F1830D28B7D000F0A3BCCB
:102E6000FF2804BF98F80C20072A40F0C5822AF0FA
:102E70003DFD40F0A486199D95F8F900022808D080
:102E8000D8F804000AF168042AF0D8FB0EC4CAF886
:102E900074000F2000F098BEFF2804BF98F80C20A3
:102EA0000B2A40F0A982BEAE09F1040120222AF0CB
:102EB00072FBDDF864B00DF5467940220BF1240A6F
:102EC0004846514640F08FF8D8E901124CAC2046F4
:102ED00029F04AFF0DF55C78314622464B464046C4
:102EE00029F072FE9DF87003C00700F070869DF80F
:102EF000730308F106018DF8AA001222BDF87103D0
:102F0000ADF8A800BDF874431AAE06F1450040F0D4
:102F10006AF806F1570008F118012BF0EBF806F1FA
:102F200020004CA92AF030FC304651462AF02CFCF7
:102F300028465021ADF8AB403FF0FEFF9BF808015A
:102F4000811E38BF0221DDF860A0C9B2022901F05C
:102F500034820DF55C79032941F04E820F202BF06D
:102F6000C4F8DAF83820D6AEDCAC2AF0F1FE9DF8D1
:102F70005853FF2D41F0E883E01D1AA92AF00AFCFE
:102F800009200DF59F6801F0F9BC98F80C10FF2896
:102F900008BF022900F04F84DDE918A5FF2800F0E2
:102FA000318276E2FF2804BF98F80C20082A40F00E
:102FB0002382D8F80820002A01F02287D8F80400DC
:102FC000DDE918A50478022C80F040860DF59F6895
:102FD000062A41F2058750F8011F0DF55C79C5F806
:102FE00011118188A5F8151195F8F91085F8174188
:102FF000022907D08188A5F8F4100068C5F8F00010
:1030000085F8F64095F822110DF59F605246FEF7BF
:10301000ADFF00F0A9BFDDE918A5FF2840F0FC8254
:1030200098F80C100A2900F0DF85012940F0EA81A8
:10303000D8E90112DCA829F0F7FF9DF870030228F7
:1030400040F0D4860A202AF0B0F901F090BA00BF0F
:10305000C0FFFF7FFF2804BF98F80C20022A40F031
:10306000CB81199DDCA860222AF0BFFB9AE85008AA
:1030700005F188013022DAF80C901AA83FF0B3FF6E
:103080002AF034FC40F0F883D8F804000DF5987865
:10309000224633468D9D01681691416815918168DD
:1030A00014911899C06813904046CDE900B9FEF715
:1030B00027FF9DF830A1BAF1FF0F01F0B6800DF5A2
:1030C0009F6208F10101501D90462AF061FAFF202D
:1030D0008DF8FCA401F0CDB8FF2804BF98F80C20AF
:1030E000032A40F08981199DDCA8B0222AF07DFBDB
:1030F0002AF0FCFB40F07A858D98DBE90EA900F000
:103100007F04DBF83410A4F14002DBF83050159155
:10311000494614905046D8F8046016953FF01EFEBC
:1031200015998046284622463FF018FEC4F1400219
:103130001590504649463FF027FEB368F568D6F82B
:1031400000907268DCA9039120310291402CCDE9F6
:103150001253CDE90035159938BF41EA0008169899
:10316000002C08BF8046E3482BF045F890461AA88B
:103170004A4643461BF000FADBE900C1DBE90223C3
:103180001AAE1D9870CE69405840084386EA020185
:1031900084EA0C021143084340F031861499DDF8AB
:1031A00060A0CBE908980DF59F6813981329CBF818
:1031B00028001298CBF82C0041F0DE81DCAB199D81
:1031C0000DF59F60514605F1D002FFF74DF800F074
:1031D0004ABDFF2804BF98F80C20022A40F00C8159
:1031E0002AF0D7FF1AA83FF0A9F82AF07FFB40F099
:1031F0004383D8F804002AF021FA85E80E00B96864
:10320000E86005F1100001F04BFED5E90601D5E9B3
:103210000423CDE90001DCAC2AF040FD2BF092F84C
:1032200040F09686E01D1AA92AF0B4FA042000F0B6
:10323000E7BEFF2804BF98F80C20032A40F0DC808A
:1032400019980DF1680BB02200F1080158463FF0C3
:1032500075F82AF04BFB40F00F83D8F804000BF10F
:1032600020028168D0F80CA0D0F80490D0F800803B
:103270000020CDE9001ACDE915214B46CDE9022BFE
:1032800042460490C6A81BF077F9D5E902E3DDE9D0
:10329000C646DDE9C802D5E900C15A40714080EA5E
:1032A0000E0011438CEA04021043084340F0B48539
:1032B00005F11003169CC5E908890FCBC5E90A4A38
:1032C000159DCDF800B001AE86E82003CDE9044A93
:1032D0001BF090F9199D044695F80801022841F069
:1032E0006381854823F0B8FD2AF044FD23F01CFFDC
:1032F0000DF59F601AAB39E3FF2804BF98F80C2046
:103300000C2A79D1DCA8199C00F11005DCA804F185
:10331000080150223FF012F8D8E9010105F1280B0D
:103320000E902869139068691290A8691190E86955
:103330001090286A1490686A1590686B0F9004F5D5
:103340008F709BE8000B1691D5E90EA629F0A4FD1D
:10335000D4F8142120F07F40D4F81111CDF8332196
:103360004C91D4F80D21D4F80A11CDF86B201A91A4
:10337000CDE908A60A904CA80B901AA80C901398B7
:10338000029012980390119804901098CDE9050BC3
:103390000F98CDE900890790D6A8DCA9DDE91423B0
:1033A0001BF086F81698102806D1D6A90E981DF0A5
:1033B0007BFD002800F039854FF00B090325DDF86F
:1033C00060A00DF59F68BEA908F1060012223FF02B
:1033D0000AFEFF208DF8FD948DF8FC540DF55C7904
:1033E0008DF8F804199D00F0C1BDFF2804BF98F8BE
:1033F0000C20032A00F0A782FF280BD198F80C10AC
:10340000DDE918A5042924D029F0CFFF0D2900F00B
:1034100008810DE1DDE918A50539082900F2FC80D5
:10342000DFE811F009003700FA00FA009200FA0014
:10343000FA00DE00F700012800F0E28229F0B5FF73
:10344000022840F0F58040F60340ADF8FC0400F09F
:1034500090BDD8F808000DF55C79002801F0C8840B
:10346000D8F804000478254823F0F6FC601EC0B2AA
:10347000102828BF0824204628F074F823F054FEB2
:1034800003208DF8FD448DF8FC040DF59F6800F0D5
:1034900070BD032840F0C080DCAE05F11801902219
:1034A00030463EF04BFF0020D8F80410CBE90C105A
:1034B0003246CBE910100021CBE90E005346CBE990
:1034C0001200B8689DF8315200901AAC2046FEF701
:1034D00043FE9DF86860FF2E00F091830DF59F6814
:1034E000611C08F105002AF053F88DF8FC6400F027
:1034F00035BD00BFC0FFFF7F340000009300000017
:1035000008A304002000000094000000D800000080
:103510001F000000DC000000E2000000DA000000F4
:10352000CB000000D30000001E00000065BB0200BD
:10353000B0D40400E4000000CE000000D70000007A
:1035400064000000C9000000042865D105F10801ED
:103550001AADB02228463EF0F1FED8F8010008F17D
:10356000210416902022D8F80D002146D8F805B085
:10357000D8F809A015904CAE2AF00DF85FF880102D
:1035800020461DF091FC40B95FF88C1006F1100048
:103590001DF08AFC002800F0AB8429460DF59879CF
:1035A0002031002099E860033346CDE90089CDE958
:1035B00002112A460490DCAC20461AF0DDFF4CA82C
:1035C00000F1100120461DF06FFC002800F09484EB
:1035D000FF208DF8F80440F20340ADF8FC044DE103
:1035E000D0B998F80100002800F08B835FF8EC0058
:1035F00023F03EFC95F823010DF59F68800700F14C
:103600003D8695F822110DF59F605246FEF7AEFCFF
:1036100029E3002800F0E88129F0C7FE01380228DC
:1036200006D20DF59F608CA92AF082FD00F09CBCAB
:1036300015208DF8FC0400F09CBCD8F80800002888
:1036400001F0D883D8F8040004785FF8440123F02F
:1036500003FC601EC0B2102828BF0824204627F0B3
:1036600081FF23F061FD8DF8354203209CE02AF0B4
:103670003DF940F08781D8F804108CACA01C29F0EB
:10368000E2FF19990DF59F682AF0E9FA2AF030F85F
:10369000DDF860A004207DE118990DF59F60D8E960
:1036A00001A91DF0ACF89DF82105022819D00D20C4
:1036B0000DF59F688DF8F80418984346816A826B6F
:1036C000DCAC2AF0FBFB9DF87003FF2809D02AF040
:1036D00072FA5FF8C80123F0BFFB2AF04EF823F01E
:1036E00023FD0DF59F6051464A4629F09DFC9DF84B
:1036F000F844022C40F0528129F09BFF0A20BBE2E3
:10370000072D08BF042800F0CA81411E0329FFF4D9
:103710005DAB002847D10A2D45D198F8010000285B
:1037200000F027815FF8180223F0A2FBDDF860A00B
:103730000DF59F680DF55C793DBB0DF59F64514615
:1037400020461DF00AF89DF82155FF2D00F0008756
:10375000DCAC0DF59F61292229F052FFDDF822052E
:103760002146199E29228890BDF82605ADF824022D
:1037700006F1D0003FF037FC8898C6F8FA00BDF893
:10378000240286F8F950A6F8FE00199991F81D0157
:10379000800700F1AB8291F82201800700F1438598
:1037A0000D2001F0E2B815208DF83402DDF860A09C
:1037B0000DF59F688CA808F10401043090E87C00A6
:1037C0000E207CC18DF8F8040DF55C7908F1040138
:1037D00009F104001DF0C6FB0C202AF086FC4B46C4
:1037E000DAF838204CAC2AF069FB2AF074FB0AD0D6
:1037F0002AF009FD5FF8E40223F02EFB484627F08B
:10380000FFFD23F091FC199D0DF59F6128462AF0DC
:103810008FFC8CAC2946204628F018FAFF208DF842
:1038200070039DF83002DCAEFE2818BF2646179DB7
:1038300096E81F00DAE3DDE918A52AF057F840F012
:10384000CA80D8F804100DF59F6808F1020029F02D
:10385000FAFE0DF55C7905F1180109F1060029F071
:1038600099FF012049468DF8F90408F11200B622AB
:103870003FF0B9FB062038E329F027FF29F0D9FEF5
:103880006FE34CAE05F1D0045146304622461CF0A1
:10389000E6FE2AF020FB10D00DF55C7A96E83E009B
:1038A00050463EC05FF890032AF038FC504605F1C0
:1038B000D00427F0A5FD23F037FC206805F1E00CCB
:1038C0001690AB4660681590D4E902AE4C469CE871
:1038D0006F006FC4DDE915209BF8F8C0CDE9E0AEBC
:1038E0000DF55C7ECDE9DE020EF118018DF871C395
:1038F00099E87D00F1467DC10B2073468DF8700379
:1039000018988DF8A1838DF8A0C3816A826B4CACA6
:103910002AF0D4FA2AF0DFFA3FF475AF2AF073FCEC
:103920005FF8080468E7199B09F10800D8E901125B
:10393000D033CDE900308CA8DDF860A05346FEF707
:10394000E5F8FFF749BA199DDCA8B02229F04DFF30
:1039500029F0CCFF40F04E81D8F8040029F06EFE2B
:10396000FF90FCA80EC0DCAB0DF59F60DDF860A0F9
:103970004AE05FF8540423F07BFA2AF0EBFC40F6AF
:1039800003702FE20520DDF860A08DF83402FF20DF
:103990000DF59F688DF83002FFF722BA9DF8FA54B2
:1039A0000DF59F68DDF860A0280700F15F81032016
:1039B00062E15FF8900423F04FFA204621F064FBA7
:1039C00023F0B2FBDDF860A005200DF59F688DF8AF
:1039D000340200F0C9BF05200DF59F688DF8FC0486
:1039E000FF200DF55C7980E298F80100002800F0D6
:1039F00095815FF8CC0423F03BFA112000F045BC20
:103A000009F108030DF59F6005F1D0025146FEF75C
:103A10002BFC26E140F60340ADF83402C6E640F642
:103A20000320ADF8340235E040F60330ADF834023F
:103A3000FF200DF59F6800F098BF2AF08BFC40F640
:103A40000320CFE12AF086FC05208DF83402FFF731
:103A5000C1B99DF8690000287FF4F9A998F80C0015
:103A60000C287FF4F4A929F041FF40F0C186D8F872
:103A700004108CACA01C29F0E6FD19990DF59F6887
:103A80002AF0EDF829F034FE032000F0B7BE05203F
:103A90008DF83402FF208DF83002FFF79BB9199C96
:103AA0000DF59879B02204F1080148463EF046FC35
:103AB00008F121060DF5467A2022504631463FF0A6
:103AC00092FAD8F801001690D8F809005FF8D015DE
:103AD0001490D8F80D0015903046D8F8055094F899
:103AE0001EB128F037F840B95FF8EC150AF1100064
:103AF00028F030F8002800F0FC84CDE912B5C6AB00
:103B00000DF53E780FCB119000BAC19008BAC09065
:103B100010BA10914146BF9018BA0F920E93BE9002
:103B2000DCAE304620F052FF0DF59F640025314693
:103B30004FF4B8722046CDF8DC54CDF8D854CDF807
:103B4000D454CDF8D054CDF86856CDF86C56CDF895
:103B50007056CDF874563FF0A1F9DCAE21464FF413
:103B6000C0722AF0ABFB09F120045FF840963046A2
:103B7000202221468DF8F054C847304621462022A5
:103B8000C8470DF59F64304601228DF8F854214650
:103B9000C847204631464FF4C2723FF07FF99DF886
:103BA00078A604F5B8715FF878361022504627F0F1
:103BB00081FA002966D000F8015B0139F9E7052098
:103BC000199D8DF8FC04FF208DF8F80414E040F6F0
:103BD0000330DDF860A0ADF8FC04FF208DF8F80498
:103BE00029F0E3FB5D46BFE101204EE3052029F00B
:103BF00020FD08E129F069FDDDF860A031E00DF558
:103C00009F68E80700F0508109F1020029F016FDD5
:103C10008BE80E00CBF80C00DBE90601CDE90001D2
:103C20005146DBE904231AAC2046FEF769F99DF8FA
:103C30006850FF2D40F08E8108F10800DCA929F0C2
:103C400069FF0020CDF8FC04082088E15FF81C071C
:103C500023F002F9204621F017FA23F065FA29F043
:103C600034FD0DF59F680DF55C797DE19DF8FB64F1
:103C7000102E80F0708206208DF8350203208DF81A
:103C8000340297E5A7F13C060025204647F83C5C46
:103C900031468DF8785647E90E5547F8305C27F0E5
:103CA000C3FFA7F12C09314648461DF0B7F904F5CA
:103CB000B076102D09D06019013590F8601190F898
:103CC0007021514080F86011F3E7BAF1100F40F015
:103CD0006C8229F0AEFCDDE912B50020102800F05E
:103CE0007D8219F8001029F05DFDF7E7DAF83C4015
:103CF00004F108032AF06AFA00F0918382AD0FC53F
:103D000092E35FF8CC0723F0B3F840F603700DF5AB
:103D10009F68ADF8FC040DF55C792AE10DF55C783F
:103D200029F016FF0DF168090D2043468DF8700348
:103D300048461CF06BFC29F0F5FF0BD099E86E00AB
:103D400040466EC05FF80C082AF0E8F929F015FD2E
:103D500023F0EAF9E00700F093825FF81C0823F0F3
:103D600087F8DCAC29F094FF9DF870530DF59F683F
:103D70000DF55C79FF2D00F0478529F051FB8DF89A
:103D8000FC54F6E00120AFE019990DF59F6808F1A9
:103D90000700B02218313FF026F9092041468DF87E
:103DA00030028CA829F0E9FFDDF860A0FFF71BB80E
:103DB0005FF870089B4616953546664623F04CF82A
:103DC0005046314642464B4627F018FA169B284685
:103DD00021465A4627F012FA23F0A6F92AF0BAFA39
:103DE00040F20340ADF83402FEF7F4BF9DF87213C1
:103DF00029F0DBFA0A0700F1B4830320B7E329F0C6
:103E000018FC199D032004218DF8FC04FF208DF877
:103E1000FD148DF8F80426E7DDF860A029F0C5FA56
:103E200040F60340ADF8FC04E2E3DDF864B002269E
:103E30000DF168089BF81A119BF820419BF80801C6
:103E400001F0030104F0030481F00101022884F071
:103E5000010408BF01262143DDF860A0B1FA81F119
:103E6000D5E900234909D5E90205039151468DE8BA
:103E7000610040461CF050FB9DF8685008F10201BB
:103E80009DF8699012229DF89160C6AC29F0B8FBAC
:103E9000022E40F0AF83BEA84ECCFF2D4EC021882D
:103EA00001807FF48EAADDE308F10800DCA929F087
:103EB00031FE0020CDF8FC04072050E0DCAC514678
:103EC00020461CF04AFC9DF89953FF2D40F0CF830B
:103ED0000DF5987C94E86E0060466EC008F1040011
:103EE0009CE83E003EC0FF20199D8DF8F8043DE09F
:103EF0000DF5987999E860031AA800F170041998F3
:103F000090F81E01002804BF82468346169908BF18
:103F10000146159A08BF0246C4E9081B04F13000A7
:103F2000B968C4E90AA280E86003DCA800F0B8FF21
:103F3000DDE9DE01DDE9DC23C4E90023C4E9020197
:103F4000CDE90001DCAC29F0A9FE2AF0FBF952D042
:103F50000DF59F6829F064FA8DF8FC54FF208DF868
:103F6000F8040DF55C79199D9DF8F804FF2840F0E0
:103F7000928108F1040009F1040190E87C0012200C
:103F80007CC14C46199D8DF8700308F10400211D79
:103F90001CF0E8FF0C20DAF828108DF8F8044346EE
:103FA000DAF838204CAC29F089FF29F094FF09D0C9
:103FB00029F001FEDFF8900E2AF0B0F829F0DDFBC1
:103FC00023F0B2F81AACDCA928462AF0B1F8204652
:103FD000294627F04CFEFF208DF8F8049DF8680074
:103FE000FE2818BFA046179D98E81F001FC50DF2B8
:103FF0009C6D29F0AEBAE01D1AA929F0CBFB0A206E
:104000000DF59F682AF057F83EF0EDFFA9E7DDE9CE
:104010001010702241EA00484CA9DCA83EF08EF94D
:10402000139A28022946149DDDF858B040EA126A16
:104030001298C4E900B640EA0222280240EA11615F
:104040004FEA082040EA1568159D1392C4E903520F
:1040500020221291C4F80890C4E905A1C4F81C807C
:10406000DCAC04F19000C6A93EF0BDFF04F12000D5
:10407000129A8DE81108514643461398CDE9036919
:1040800005951AF0B7FA0446199890F80801022825
:1040900040F00F83DFF8C00D22F0DEFE29F06AFE4B
:1040A00023F042F80DF59F64DCA9E01D29F072FBB6
:1040B000092021468DF830028CA829F05EFEFEF71B
:1040C00089BE1694D6A800F102080AF10401102254
:1040D00029F023FD82A84146841C29F0B7F90DF58B
:1040E00008782146102229F018FD0DF55C79189901
:1040F00042462AF085F82AF025F900F02B8399E84A
:104100005E0050465EC0DFF8540D22F0A5FE50461A
:1041100027F076F923F008F88CA8DCA905300131E6
:1041200013220DF59F683EF05EFFFF208DF834529C
:104130008DF83002DDF860A0FEF750BEE01DDCA96E
:1041400029F028FB092021468DF830028CA829F09F
:1041500014FEFEF741BEBDF8FC949DF8F9845FEAB9
:10416000897041BF199991F81C0140F0020081F853
:104170001C015FEA895040F13584DAF83C30D3E91C
:1041800002E1D3E9042341EA030C4EEA020050EABB
:104190000C0000F01084CDF8F8E4CDF8FC14CDF854
:1041A0000025CDF8043500F00FBC16F80A00A7F181
:1041B0002C0180F0800006F80A0040461CF02EFF1B
:1041C000DDF860A00020DDE912B5102804D018F851
:1041D000001029F0E7FAF8E70DF59F680DF59F60EC
:1041E000314627F021FD0FCE00BAC19008BAC09029
:1041F00010BABF9018BABE90C6A800F11001BEA8B0
:1042000027F0A8FC0DF1380EDDF844C000289EE828
:10421000104200F076812AF09DF840F20340ADF89C
:104220003402FEF7DBBD0B209FE30DF59F6ADCA98E
:104230000AF1080060220AF168083EF07FF816983B
:1042400008F10C01C8F8000030221598C8F80400E5
:104250001498C8F808001398C8F81C90D04681E854
:1042600051080AF188001AA93EF0BDFECDF8FC54B1
:1042700008208DF8F804DDF860A072E60E2006E054
:10428000DFF8AC0B22F0F4FD10200DF59F680DF562
:104290005C798DF8F8044C460DF59F69DCA8C822BE
:1042A00049463EF04BF89DF8700312283FF46DAE7E
:1042B0001AAC11287FF487AE95F8F980B8F1020F97
:1042C00004D1DFF87C0B22F0D3FD73E095F81A01DE
:1042D00000F00300012802BF95F8200100F0030060
:1042E000012804D095F8F8C04FF0020831E04CAE38
:1042F00005F1D00B514630465A461CF0B0F929F072
:10430000EAFD0CD096E83E0048463EC0DFF8280B98
:1043100029F004FF484627F073F822F005FFDBF888
:10432000000005F1E00C16900DF1680EDBF80400BA
:1043300014907446DBF808001590DBF80CA0AB462F
:104340009CE86F006FC47446DDE9142116989BF851
:10435000F8C0CDF804252246CDF8000509F1180E65
:104360008DF8F9C4CDF80815CDF80CA592E87B00BE
:104370008EE87B000B204B468DF8F80418988DF8DA
:1043800029858DF828C5816A826B4CAE29F093FF90
:1043900029F0A1FD0CD096E83E0048463EC0DFF86B
:1043A0009C0A22F059FD484627F02AF822F0BCFE6C
:1043B0001AAC199D0DF59F6805E628F0F6FF002858
:1043C00000F025820A2029F090FEDAF83820D6AED7
:1043D000DCAC29F0BDFC9DF85853FF2D40F0B681B0
:1043E000A01D1AA929F0D6F906202146ADF8F80437
:1043F00008F11200B622C3E208F107001AA9B022A0
:104400005D463EF0F0FD03200DF59F628DF8F80447
:10441000501C41469046B7223EF0E5FDA4E5002041
:10442000CDE98400CDE982000DF59F6682A9304672
:1044300002F0C8FC29F07EFF46D14CA8311D00F1E6
:104440000309102229F031FDD6AE494628F0ECFED2
:104450000DF59F685146324640461CF02AF829F077
:1044600069FF40F06B812068C10700F073826168CA
:10447000000A0DF59F660A0E8DF8F6210A0A40EA39
:1044800001607C90ADF8F4217CA9304602F0E4FC98
:104490009DF8F8540DF59F68FF2D15D1311D484644
:1044A00029F0D1F8BEAE494628F0BEFE0DF59F6456
:1044B0005146324620461BF0FCFF29F03BFF40F0FE
:1044C00010841999FFF767B9711C4CAE132229F0BB
:1044D00062F8C6A81ECE1EC029F0C0FD3DE28CA821
:1044E0000DF59F61083029F015FB8D940520FFF72D
:1044F000D2BADDE9C6CE0DF59F68DDE9C894DDF8D6
:1045000060A04CA8149E90301BF0010104BF0E4621
:104510000D46169A08BF0A46159B08BF0B4600F1C8
:104520000C0180E86400B022C0E9069408F107009D
:1045300081E808504CA93EF056FD082041468DF810
:1045400030028CA80130B7223EF04DFDFEF746BC8C
:1045500029F059FE49468CA891E87C0004307CC0C3
:1045600002E29DF873230F2A00F2BA8106208DF82B
:10457000FD040320FFF75DB8B8684C1C00901AAE2C
:10458000DCAA214630465346FDF7E6FD9DF868500B
:104590000DF55C79FF2D24D108F10800DCA929F084
:1045A000B9FACDF8FC4499E1DFF86C0822F054FC2C
:1045B00029F0E0FB22F0B8FDDDF860A009208DF8BD
:1045C0007003DD9429F0C4FA4CAEDCAC29F0C0FBDA
:1045D0009DF830510DF59F680DF55C79FF2D00F0C9
:1045E000C88108F10500711C28F0D2FF8DF8FC5439
:1045F000FF20A2E208F1140C16960DF59878BCE89D
:104600004F00C646AEE84F009CF800008EF8000050
:10461000BDF89600ADF80C02DDF8920082901AA960
:104620004DCC8C46ACE84D0012222088ACF800003E
:104630000BF1D2008BF8D1908BF8D0503EF0D3FC28
:10464000B8E83E000BF1E4003EC016998BF8F91073
:1046500098F8001001708298CBF8FA00BDF80C02AF
:10466000ABF8FE000C200DF59F68FEF7B7BE4CA816
:10467000DCA929223EF0B7FCDDF89A03022DC69092
:10468000BDF89E03ADF81C0300F0AF834CA9199C44
:10469000292204F1D0003EF0A6FCC698C4F8FA0026
:1046A000BDF81C0384F8F9502546A4F8FE000D203F
:1046B0001BE4DFF8A00722F0CFFB29F05BFB22F020
:1046C00033FDDDF860A00920CDF8FC440DF59F64B2
:1046D00029F039FA2346DAF83820BEAE29F0EBFD8E
:1046E0009DF8F8520DF59F68FF2D00F04D818CA8C4
:1046F000711C053028F04CFF8DF8345234E14CA881
:10470000211DC61C28F090FDC6AC314628F09EFE47
:104710000DF59F665146224630461BF0CAFE9DF8B5
:10472000F8440DF59F68FF2C00F03A818CA8711CAD
:10473000053028F02DFF8DF8344215E108F1010114
:10474000C6A828F025FF06E10DF59F6808F10500D1
:10475000711CEDE14CA9484629F016F809F1200436
:10476000C6A9202228F04CFF169812228DF8B30318
:10477000BDF80402ADF8B0039DF806028DF8B2034F
:1047800009F145008DF8B4637CA93EF02CFC09F1D9
:10479000570079A929F0AEFC584650213EF0CCFBD9
:1047A00019990DF59F6891F80801023838BF022069
:1047B000C0B2022800F0C581DDF860A0032840F0F7
:1047C000F7810F200DF59F6529F0BDF92B46DAF82A
:1047D0003820D6AE29F06FFD9DF85843FF2C40F0ED
:1047E0006582E81DDCA928F0D5FF07202946A6E64A
:1047F00005200DF59F688DF83402FF208DF83002FA
:10480000DDF860A0FEF7ECBA199D012041E506F144
:1048100090001690E44840F2FF18D7F808A04FF037
:10482000FF39834650461FF00FF9044650460E46A6
:104830001FF00AF9DD4D0023A0FB0502E1FB052373
:10484000A4FB0541A6FB056576184FF00001454124
:1048500052F1000253F1000024EA080341F1000183
:10486000BBEB030379EB060379EB050379EB02025B
:10487000D8D3169C0022DDF860A004F1100384E870
:10488000070083E8070008218DF87013DA60E26002
:10489000DD9029F05DF9D6ACDCAB29F00FFB9DF87B
:1048A00058530DF55C79FF2D40F03D81B86800212B
:1048B0000090DCAC1AAA534620460026FDF74CFCBB
:1048C0009DF870530DF59F68FF2D40F02E8108F183
:1048D00008001AA929F01EF9CDF8FC6407202CE184
:1048E00085F8201105F58F7185F81E0105F58C708E
:1048F000BDF874339DF87143A5F8223185F8212164
:1049000085F81F4128F0D2FA85F80801DFF8100574
:1049100085F8091122F0A0FA29F0ADF922F004FC83
:10492000DAF82C104CA828F02FFFDAF83010DCAEA3
:10493000402228F030FE0DF168083146404602F072
:1049400099F929F0EFF900F07A810A2003248DF813
:1049500019039FE105250DF59F688DF834528CA849
:104960000530C6A928F014FEFF208DF83002FEF7AE
:1049700035BAE01D1AA928F00DFF052029F09BFB90
:104980003EF031FBFFF7EFBAA01DDCA928F002FFD3
:1049900003202146ADF830028CA81230B622D3E5B0
:1049A000129C132C40F08881F01DDCA928F0F2FE47
:1049B00009203146C3E50020CDF80405CDF80005F7
:1049C000CDF8FC04CDF8F804DFF868140DF59F600D
:1049D0001CF06AFA30B1199991F81D0140F00200FB
:1049E00081F81D0119980C2180F82051054680F8A6
:1049F0001F8105F58C78A0F8229180F8216180F85C
:104A00001E4190F81901032808BF0821DAF8380080
:104A100090F8702390F87133881885F81A0105F51D
:104A20008F7013B1012188F80010414628F03EFA3A
:104A300085F80801DFF8340485F8091122F00CFA32
:104A400029F019F922F070FB0DF59F60012102F0A9
:104A50009BF829F06FFC3FD19DF80865DDF804450F
:104A6000BDF80905ADF8180331469DF80B058DF822
:104A70001A032046DDF8FC94DDF8005517F07AFFA4
:104A800029F04CF940461A4628F0BEFAC0B2022876
:104A900044D1CDF8F8940DF59F68BDF818030DF5D5
:104AA0005C79ADF8050551469DF81A0342468DF82C
:104AB000070548468DF80465CDF80045CDF8FC544F
:104AC0001BF0F7FC29F03EFC59D10DF59F68012041
:104AD0008DF83002FEF787B99DF808259DF8FB0494
:104AE0008DF88023DDF804258DF87303BDF8F904F3
:104AF000DF92DDF800259DF80B15ADF87103BDF8C8
:104B00000905DE92DDF8FC24ADF830018DF8321194
:104B1000DD928DF88313ADF881033BE0484629F020
:104B2000CAF9052536E00DF59F6808F10500611CFE
:104B300028F02EFDFF208DF8FC548DF8F804FFF7C7
:104B400012BADDF860A091F80901002800F0CE80CB
:104B50000A200DF59F6528F0F6FF2B46DAF838207D
:104B6000D6AE29F0A8FB9DF85843FF2C40F09E805C
:104B7000A81DDCA928F00EFE042029460AE799E8C2
:104B80005E0040465EC0BA4822F066F928F0F5FDA6
:104B900022F0CAFADCA98CA80530013128F0F8FC13
:104BA0008DF83452FEF704BEFFC5FCFF40420F00F3
:104BB000B9680BF1100000F073F9DBE9060100257C
:104BC000DBE904238DE803020DF59F60CDE9034581
:104BD00019F0D2FCDDF804150DF59F68DDF8F82416
:104BE000DDF8FC34DDF80005CBE90201CDE9000178
:104BF0004046CBE9002301F0F1FF9DF8F844FF2C7B
:104C000063D182A808F10401C61C28F00DFB88AC12
:104C1000314628F01BFC0DF556795146224629F005
:104C2000EFFA9DF85843FF2C40F0808008F1070010
:104C3000DCA928F0AFFD02204146FFF785BABEA8E7
:104C400008F10401861C28F0EFFAD6A83146841C2E
:104C500028F0FCFB0DF502792146102229F025F9F8
:104C600051460DF5467A4A4650461BF022FC9DF807
:104C70001843FF2C40D09AE86E0040466EC0694849
:104C800022F0EAF828F079FD22F04EFADDF860A073
:104C90000DF55C79C6A90DF59F6808F10500013195
:104CA00028F076FC8DF8FC44FFF763B98CA8711CE2
:104CB000053028F06DFC4CE08CA8DCA9083028F009
:104CC00029FF601C8D9005204FE682AD08F101019F
:104CD000132228F09CFCD6AE2946701C28F058FC04
:104CE00030E0611CC6A828F053FC36E6DAF8000074
:104CF00098B3DAF8041049E008F103004CA928F051
:104D000043FD0DF59F64DCA904F1240040223EF030
:104D10006AF9022041468DF8F804601C2322A0465F
:104D20003EF061F9DDF860A0FEF79DBF99E86E00E6
:104D300040466EC04C4822F08FF828F01EFD22F04D
:104D4000F3F9D6AE8CA8711C053028F021FC0DF5C6
:104D50009F68FF208DF8344207E6BE682F4C414D16
:104D6000D6F80001402807D33046002118F09AFBFE
:104D7000D6F80001402846D2421C56F82000C6F85A
:104D80000021A0FB0401A8421046EBD80BF1400023
:104D900000260BF13002CDF8FC14C0E900160DF529
:104DA0009F63C0E902660820C2E90016C2E90266F4
:104DB00028F0C9FEDAF83820D6AD28461BF026FCCC
:104DC0009DF858438CA8FF2C05D10830DCA928F0A9
:104DD000A1FE8D9677E70530691C6AE71B4B00E062
:104DE0000B4B0120072121F0EFF90F4821F082FE43
:104DF000144A06E01F4A04E0154A02E00B4A00E0AC
:104E0000044A28F015FA164A402121F023FA00BF7F
:104E1000CC550400BC5504003600000040420F0091
:104E200037000000E0000000AC5504009C55040071
:104E3000CF00000008A30400E3000000D900000038
:104E4000E50000008C550400DB0000001CD30400CA
:104E50000CD304003500000033000000E100000026
:104E600044A104007F3DF1FFDD0000003800000098
:104E7000D60000006C550400D0B502AF92B0BC68FB
:104E80008DF81020FF228DF80420CDE902343A6914
:104E9000FB68009201AAFDF79FFC12B0D0BDD4D4EC
:104EA000F0B503AF2DE9FF07DFF8949000260D461B
:104EB0008046EA46CDE90266CDE900660F2E1ED88F
:104EC000D5F80041402C07D32846002118F0EAFA13
:104ED000D5F80041412C2AD23046514610224B468B
:104EE00026F0E8F802460B4605EB8400C4F14001C9
:104EF00023F05CFD2044C5F800010E44DEE704A861
:104F00009AE81E001EC004AB28F0CFFB1FBFA8E824
:104F10000F0008B0BDE80007F0BD084821F09CFF75
:104F200004A826F0E3FB22F0FFF822F04BF8054B33
:104F300020464021402221F047F900BFEB0000004D
:104F4000D0D9040034A10400D0B502AF0F4A526A90
:104F5000BFF35F8FA2B152680123014413600023A5
:104F600088420AD0D2F80041002CFBD0C2F80031B0
:104F7000D2F8084500F8014BF2E701205060D0BD9F
:104F8000034821F075FF22F01DF800BFF0E6032072
:104F9000AD000000D0B502AF04460A4821F03BFF47
:104FA0002078FF2806D028F0C5FB2046BDE8D04079
:104FB00026F026BA28F084FC6068BDE8D04023F0D3
:104FC00083B800BF05020000D0B502AF04460A480E
:104FD00021F021FF2078012806D128F0ABFB606882
:104FE000BDE8D04023F070B828F06AFC6078BDE8D6
:104FF000D0401FF0C9BE00BF11010000F0B503AFE3
:105000004DF804BD0446764821F005FF2578FF2DB4
:1050100015D128F08FFB784821F0FDFE2579FF2D72
:1050200026D128F087FB794821F0F5FE207A21F07F
:105030002DFF608921F0EFFED4E90301B5E00020E7
:10504000002621F023FF674821F0E5FEB5F10A00B4
:1050500098BF3046E0B1012829D128F06BFB6348A6
:1050600021F0D9FEA08921F0D6FED4E901019CE00F
:1050700028F026FC614821F0CEFEDFE805F005436C
:10508000233221505B415F0028F01AFCE08811E0D8
:1050900028F016FC564821F0BEFEDFE805F0066A4F
:1050A000575C517A8C6096538E00002062E028F0A5
:1050B0005AFE4D485DF804BBBDE8F04021F0ABBEA0
:1050C00004202DE028F04FFE4D4821F0A4FE4D486D
:1050D000257D21F0A0FE681E18BF012021F0D6FE1C
:1050E00015E028F0DFFE607921F0D0FE208921F064
:1050F00092FEA0795DF804BBBDE8F04026F024BA2A
:10510000072018E028F016FB3F4821F084FE04F148
:1051100008005DF804BBBDE8F04026F075BA052034
:1051200021F0B4FE04F108005DF804BBBDE8F040D6
:1051300026F05ABA062021F0A9FE34E0082048E003
:10514000042004E0092021F0A1FE8EE7022021F0D6
:105150009DFE6088AEE728F0A5FE608883E7072003
:1051600021F094FE608821F056FEA08821F053FEC5
:1051700019E0012021F08AFE608A21F04CFEA08A0D
:1051800021F049FE601C5DF804BBBDE8F04026F04C
:105190004DBA052021F07AFE6088164DA847A088F8
:1051A000A847E088A847D4E902015DF804BBBDE840
:1051B000F04022F067BE062000E00A2021F066FEE3
:1051C000608821F028FEA08874E7082021F05EFEA8
:1051D00060785DF804BBBDE8F04021F057BE00BF29
:1051E0000202000013020000030200001A02000085
:1051F00010020000176E02001402000008020000F6
:105200000A02000019020000090200000E0200005C
:10521000D0B502AF0446044821F0FDFD2046BDE8AC
:10522000D0401EF0D1BC00BF14000000D0B502AFCA
:1052300004460A4821F0EFFD2088012809D128F012
:1052400079FA074821F0E7FD6088BDE8D0401FF0FB
:1052500055BD0020BDE8D04021F018BE0E00000072
:105260000F010000D0B502AF0446044821F0D3FD81
:105270002078BDE8D04021F009BE00BF1500000035
:10528000B0B502AF0546044828F06AFD284621461D
:10529000BDE8B04021F084BE02000000F0B503AFCD
:1052A0002DE9000FB1B00546886800248846002823
:1052B0008C6053D0D8E9046B0A90B868D8F80C1009
:1052C00000280895099153D0304659461AF0E6FB5C
:1052D0002BAC28F023FD20461A4627F0BFF92D9865
:1052E0000E3405900A222C98214606909DF8AD00B8
:1052F000BDF8B8A0BDF8AE509DF8AC90079017A8C7
:105300003DF071FEB9F1FE0F00F09E8117A9204615
:105310000A223DF068FE0598B9F1FF0F2D9006981E
:105320002C900798ADF8B8A0ADF8AE508DF8AD0050
:105330008DF8AC9000F0948101220020B9F10A0FA1
:10534000A9F10B0188BF52FA81F0002800F0BC805F
:10535000012800F0C6804FF0000AC2E098F804105F
:10536000D8F800001BF022FFAC60297128601AE118
:1053700030465946CDE906231AF090FB2BAE28F0B3
:1053800054FB0DF15C0BB11C16229DF8ACA05846E5
:105390009DF8AD903DF027FEBAF1FE0F00F0598167
:1053A000594611A87CC97CC016220988018059463B
:1053B0008DF82D908DF82CA00BA802303DF013FE37
:1053C000BAF1FF0F00F051818DF85D900BF10200F2
:1053D0008DF85CA011A9162216243DF004FE2BA81E
:1053E00027F09EFD2B9D002D69D0DDE92CA1FB202F
:1053F0000DF1AC0B0422CDE91D1000201F90584682
:1054000003911DA94FF0040926F0B0F92B9E9DF8D9
:10541000B040002E00F0B4800BF105010DF1980BA7
:105420001322CDE9045A58463DF0DDFDDDF89B100E
:105430000DF18C0922910BF1070126980C22CDF871
:10544000850028F032FDD8F8005098F804A0D5E97E
:1054500000018DF884405246209618F0F7FF1FFA9D
:1054600080FB484626F0EAF9864B02460E468B45FD
:1054700028BF8B4611465846324626F0D5F9CDE96D
:1054800000012BA817AB0699079C4246A0479DF840
:10549000AC00FF2800F08A80089E9DF8AF1006F14E
:1054A0000805F171BDF8AD10A6F805102CAC3071EF
:1054B0001ECC1EC5DDE9045A002030606BE008995F
:1054C000002008600C716AE0B9F10A0F3FF643AFA3
:1054D0000120AA4600FA09F040F20C4108423FF4CC
:1054E0003AAF304659461AF0D9FA002900F0C78081
:1054F00098F80450D8F800600DF15C080078ADF819
:1055000060A00DF12C0AF9682A468DF85D00032091
:105510008DF85E1031468DF85C005046434600F031
:10552000BDF89DF82C40FF2C0BD011AD0AF1010104
:10553000132228F06CF8089E294628F055F800251B
:105540001BE011A80AF10401C41C27F07FFF0DF134
:105550002C0A2146102250463DF045FD3046294692
:105560001BF024FE054608F103000C46514628F0C6
:105570006AF8089E414628F037F8347135600EE02D
:1055800008990120487100200860E00718BF4FF01B
:105590000D0981F804902846514627F00BFDDDE9FE
:1055A000091027F007FD31B027F0D3BF089E2C98D3
:1055B000012809D1DDE924212D98521A82420ED208
:1055C0004FF48270B08075E7284651461BF0EEFD1F
:1055D000002231713060B260DDE90401DDE70C18B2
:1055E00020A8D146AB46214624F01CFFDDE9045A31
:1055F000C0B2022816D120A804214FF0040824F0DC
:1056000011FFC0B2022816D12298494604445846D8
:105610001BF0CCFD039AC6E9025AC6E90424317195
:105620003060BCE70121C00771714FF0040018BF62
:105630000D20307140E701217171C00718BF4FF094
:105640000D0886F8048037E7134821F005FC079819
:1056500003E00E4821F000FC484625F0A3FF0AE0D5
:105660000C4821F0F9FB2BA803E0074821F0F4FBDC
:105670000BA8FFF7C3FC21F057FD21F0A3FC044A5F
:1056800027F0D6FD20570400F6000000FB000000C4
:1056900030570400F8000000FC000000F0B503AF34
:1056A0002DE9000F9BB0044615A8984691460E467A
:1056B00027F036FC159D002D64D016980DF1540B83
:1056C0000690FB2017990422CDE9071000200594CD
:1056D000042409905846CDE90369019107A926F0F1
:1056E00045F8DDF854A09DF85890BAF1000F57D056
:1056F000029510AC0BF1050127F03CFEDDF84310DC
:105700000C2210980C91E11DCDF82D000DAE27F064
:1057100042FF8DF82C900BF10400CDF828A098E8FA
:105720003E003EC05946FF208DF854003046FBF73E
:105730006FFEC0B2022828D10398049AD0E9000174
:1057400018F084FE0F9D80B2A84238BF05460AA813
:10575000294624F067FEC0B2022816D10AA8042107
:1057600024F060FEC0B202280FD1059AFF200299F2
:1057700010700C9851600699284491600199C2E913
:10578000031019E01620207016E00121059AC007C9
:105790004FF00400517018BF0D20029D107007E0FB
:1057A0000599012048705FEAC97018BF0D240C707C
:1057B0000699284627F0FEFB1BB027F0CABED4D4BA
:1057C000F0B503AF2DE9000FD1B0CDE90F204FF0B8
:1057D000000C78694FF000091291010E11913EA959
:1057E00001F11C02243108920B9130A9243104915B
:1057F000010C000A0590D7E9030B0E90D0480D91DB
:105800000793804600200C900C98C00740F07E82E1
:105810004B45C0F077820F98A3EB090ABAF1070F46
:10582000484407D80025AA454AD0415D0A2935D009
:105830000135F8E7C11CAAF1080E21F003010C1A8A
:1058400001D1002408E00025415D0A2926D0013558
:10585000AC42F9D1744512D80559BA4A85F00A36D6
:10586000961B35430619766886F00A31511A314382
:105870002940C94311F0803F01D10834EAE7A2452D
:105880001ED0191B2044A1EB09050022815C0A29C6
:1058900003D001329542F9D112E0151909EB050246
:1058A0004FF00009541CB3D0A1469C42B0D80F98C9
:1058B000A146805C0A28ABD10020A1460C9004E0F0
:1058C000012064460C9099461A460F98DBF81C504C
:1058D0006245604401D1002106E0A2EB0C014A1EA2
:1058E000835C0D2B08BF1146DBF824206FF00043CA
:1058F0009A4228BF1A460E9BCDE909549B1A0D9A6D
:105900000693D2B2022A0FD1119A022A40F08D805A
:105910000144DBF81840DBF8205019F07AF8291917
:10592000BA6801FB0025B2E1119A022A40F00C810D
:10593000BA68CDE9000130A8594615F049FC4EA8D7
:1059400030A919F07FF8509A501C00F09F8128F080
:1059500082FC38BF08464E9D18B1012840F097815F
:10596000EDE7DDF83CA123A8594622F061F9279C18
:10597000002CE4D0269E002EE1D024980028DED40E
:10598000259B002BDBD423998219D1F808C06245EE
:10599000D5D8CA6803EB040E9645D0D80CF107029F
:1059A00028F04DFCACEB060ECDF808E00CFB030034
:1059B0003346CDE9004013A817F042F90D98CDE920
:1059C0002064CDE91E5A8DF86C003EAD13A91EAAC5
:1059D000284618F0C9FF1BA84C902AAC204629463F
:1059E0001BF07FFB9DF8B0000028F7D00228A6D05E
:1059F0004C98DDE92A230478002AEED4002BECD45D
:105A00002AA8129915F0DAFA2A980128E5D1DDE9D9
:105A10002B108F2998BF4728DFD827F08EFB08BFAF
:105A200043EA02050D543EADD7E7BA68CDE900015F
:105A300030A8594615F0CCFB4EA830A919F002F851
:105A4000509A501C00F0228128F005FC38BF08460F
:105A5000DDE94E5670B1012840F01981DBF82000D5
:105A60000028E9D027F083FFCDE93E563EAA1EF07C
:105A700003F9E1E723A8594622F0DAF8279C002C25
:105A8000DAD0DDF898A0BAF1000FD5D0249800281C
:105A9000D2D4259B002BCFD4239900EB0A02D1F856
:105AA00008C06245C8D8CA6803EB040E9645C3D83F
:105AB0000CF1070228F0C3FBACEB0A0ECDF808E0AE
:105AC0000CFB03005346CDE9004013A817F0B8F8CB
:105AD00021941EA880E8600411988DF86C003EADFA
:105AE00013A91EAA284618F03FFF1BA84C902AAC09
:105AF000204629461BF0F5FA9DF8B00010B10228A7
:105B00009AD0F5E74C98DDE92A230478002AEED4F0
:105B1000002BECD42AA8129915F050FA2A980128E3
:105B2000E5D1DDE92B108F2998BF4728DFD827F072
:105B300004FB08BF43EA02050D543EADD7E700BFA2
:105B4000FFFF100000010101BA68CDE9000113A8B0
:105B5000594615F03DFB1BA813A918F073FF1D9AB9
:105B6000501C00F0938028F076FB38BF0846DDE932
:105B70001B5470B1012840F08A80DBF82000002817
:105B8000E9D027F0F4FECDE93E543EAA1EF074F8A9
:105B9000E1E71EA8594622F04BF8229E002EDAD0EB
:105BA000DDF884A0BAF1000FD5D01F980028D2D418
:105BB000209B002BCFD41E9900EB0A02D1F808C01D
:105BC0006245C8D8CA6803EB060E9645C3D80CF1E7
:105BD000070228F034FBACEB0A0ECDF808E00CFB12
:105BE00003005346CDE9006023A817F029F80D986B
:105BF00007F8A20C119807F8A10C0498CDE92CA67F
:105C0000CDE92A542AA922F00DF930AC23A91C228F
:105C100027F0F6FCA7F1A2003890A7F1A100379079
:105C20003EA8214638223DF0DEF90020CDE94C00A7
:105C30004EA80B991BF073FA4E9801288BD1DDE921
:105C40004F653EA81AF0B8FBC0B202283FF483AFFC
:105C50000899002E51F820000478E9D4002DE7D4EB
:105C60004EA8129932462B4615F0A8F94E980128F5
:105C7000DED1DDE94F108F2998BF4728D8D827F00B
:105C80005CFA08BF43EA02050D54D1E7BD68DDE9BF
:105C900009026421079B94464843B0FBF1F00E993A
:105CA0000144B8680E9185427FF7AEAD2C1A059875
:105CB0000D99164615F01EFAC0B202280AD0B9682E
:105CC00000F001033E91DBE90A1228F0B0F83EAA89
:105CD0001DF0D2FF78690D9915F00CFA079BC0B240
:105CE000B44602283FF490ADB96800F001033E913C
:105CF000DBE90C1228F09BF83EAA1DF0BDFF079BC4
:105D0000B44681E5012064460C90DDE551B027F0F2
:105D100020BCD4D4F0B503AF2DE9000F8BB00646FC
:105D200038690C4699B280B2D7F808B0B1FBF0F0F0
:105D30004FF001080390002002920193F968884215
:105D40002DD0039988422CD0411C0491396900253B
:105D5000029A00FB0129B96900EB010AAB451CD08E
:105D60003969E808B1EBD50F25D919F8000005F01D
:105D70000701884000060ED5114831460A900020E0
:105D8000CDE9088022467869CDE906A82844059027
:105D900005A801F06EFA0135E0E70498CEE727F098
:105DA00045BB3A690399074B02FB01F001315143AE
:105DB000019A20F009FA014A20F04CFA50570400E9
:105DC000010201004057040080B56F4618B1BDE8DC
:105DD000804027F0EFB880BD80B56F46016819B1EB
:105DE000BDE8804000F0BEB880BD80B56F46C243BC
:105DF00012061CBFBDE8804000F048BD80BDD4D471
:105E00000168426B8A429EBF00210160704780B5E5
:105E10006F46024B10460A4620F0D6F9F0A6040061
:105E200080B56F4680BDD4D4F0B503AF4DF804BD46
:105E30000A460646D0E9000118F034F90C4612492A
:105E4000054606F5767024F06DFB0E4695F85E1358
:105E5000A1B1013985F85E13090604BF95F85C13FA
:105E6000042903D028F07AFA27F00CBB103041F255
:105E70000131A5F85C1321F01DFDF3E7034820F084
:105E8000F7FF21F09FF800BF94A00400F30000008A
:105E900080B56F46014640684A7A00F5B7601AB18E
:105EA000BDE8804015F059B8097ABDE8804015F08A
:105EB00038B880B56F4680BDB0B502AF456865B1F2
:105EC0000289006827F032FF38B10C46D0F8401341
:105ED000294427F011FF27F026FCB0BDB0B502AF72
:105EE00088B00446D0E9062043690020009002AD46
:105EF00021462846FFF7D2F92846FFF76DFF2046D6
:105F000008B0BDE8B04000F071B8B0B502AF88B0DD
:105F10000446D0E906204369012194F82000CDE928
:105F2000001002AD21462846FFF7B8F92846FFF7D2
:105F300053FF204608B0BDE8B04000F057B880B528
:105F40006F460178042907D0082918BF80BD0430A6
:105F5000BDE8804000F058B890F83A00BDE88040B5
:105F600027F01CB8F0B503AF2DE900078AB0D0F8D0
:105F700000A0044686680020A06036B304F10C003F
:105F80000DF1140808F1080190E82C002CC194F8D8
:105F90000490DAE900014A4623F0ACFA0A68B0F846
:105FA0005803013A0A600AF57E71ADF8140068469C
:105FB0004246069617F04AFA019840B1029926F037
:105FC000F9FF094820F054FF01E094F8049050468E
:105FD0004946FFF729FFE16800200AB0BDE8000745
:105FE000BDE8F040FFF7F0BE68000000D0B502AF9A
:105FF0000446D0E90201FFF7E7FE21792068BDE8F9
:10600000D040FFF711BFD4D480B56F4602C8DFE897
:1060100001F002020206BDE88040FFF75FBFBDE865
:106020008040FFF772BFD0B502AF18F053F968B1E6
:106030000C4690F86F130022012980F86F2304BFEB
:1060400000F51E7021F036FC27F06DFBD0BD80B549
:106050006F4600F5B7600021BDE8804014F061BFD5
:1060600080B56F4690F8441031B1032918BF80BD48
:10607000BDE88040FFF70CBF3830F9E7B0B502AF9C
:1060800004460025902D08D06019017D032904BF26
:10609000043000F030FB1835F4E7B0BDD0B502AFE6
:1060A000044600F0E8FB04F11800BDE8D04000F021
:1060B000E2BBD4D480B56F460548002101220160BF
:1060C0000449425001680029FCD00021016080BDD4
:1060D00014710040F4FEFFFF80B56F46C0B2BDE80A
:1060E000804039F0BFBDD4D4D0B502AF04460068BB
:1060F00050B9002020734FF0FF302060201D21F0A8
:10610000D9FB27F010FBD0BD044820F0A5FE24F0F9
:10611000F7F921F009F820F055FF00BFA2000000B8
:10612000F0B503AF2DE9000F89B082463048006812
:10613000C00557D189463049104618F001FB054685
:10614000D0E90046D0F8E40005F1080B8846013894
:10615000C5F8E400584614F079FE241A66F10000F0
:10616000BAEB040179EB000035D3E94659464846BD
:1061700017F0A8FEBAEB0400049004D0411E684654
:106180001DF0F2FC50B105AC99E84E0020464EC01F
:1061900027F097FE10B128F0C9F8F9E700206C4607
:1061A000D5E90212914202D12A7CD2070DD005EB2B
:1061B000C101896949B92046594617F091FE9DF8F9
:1061C000000002280BD00120EAE7C0071CBF05F140
:1061D000B80022F0B2FE27F0C7F827F065B80748EC
:1061E00020F088FC034820F043FE20F0EBFE00BFC7
:1061F00004ED00E0B1000000E0980400C89E040037
:1062000080B56F4609490968C9050AD1094918F0DE
:1062100097FAD0F8E820013AC0F8E82027F01CFAF5
:1062200080BD034820F024FE20F0CCFE04ED00E009
:10623000B10000001099040080B56F460949096853
:10624000C9050AD1094918F07BFAD0F8C020013AF3
:10625000C0F8C02027F000FA80BD034820F008FEF7
:1062600020F0B0FE04ED00E0B10000001099040041
:1062700080B56F4608490968C90508D1084918F072
:106280005FFA026C013A026427F0E6F980BD034828
:1062900020F0EEFD20F096FE04ED00E0B1000000DD
:1062A0001099040080B56F4690F88810032918BF34
:1062B00080BD2C30BDE8804000F0D1BA80B56F467B
:1062C00090F8EC10032918BF80BD1830BDE880405D
:1062D00000F00CB880B56F4690F8F810032918BF8D
:1062E00080BD2430BDE8804000F000B880B56F4626
:1062F00090F84410032908D0042918BF052909D1B2
:106300004830BDE8804000F0AABA4830BDE880407F
:10631000FFF7C8BF80BD80B56F46817F0339012973
:1063200088BF80BD2430BDE8804000F000B8D0B503
:1063300002AF044690F82700042818BFD0BD04F12E
:106340003C0000F02BFAE06A228ED0E90001BDE8A3
:10635000D040FFF768BE80B56F46417C042918BF66
:1063600080BD4068BDE88040FFF7BEBED0B502AF3B
:10637000044690F83500032809D0042803D00528E6
:1063800018BFD0BD03E004F1380000F0D3F90020BD
:1063900084F83400D0BDD0B502AF044690F8350083
:1063A000032804D0042807D0052818BFD0BD04F165
:1063B000380000F009F803E004F1380000F0BAF901
:1063C000002084F83400D0BD80B56F4690F850109E
:1063D000063907290AD8DFE801F00A0F0904091471
:1063E00009045430BDE8804000F076B880BD5430D8
:1063F000BDE88040FFF76EBF5430BDE8804000F03C
:1064000059B85430BDE8804000F0B5B980B56F464A
:1064100090F82010042918BF80BD2430BDE88040CA
:1064200000F0D3B980B56F4690F87C10032918BFEF
:1064300080BDBDE88040FFF7E9BFD0B502AF04469C
:10644000007A032804D0042804D16068FFF7D8FE3E
:1064500000206072D0BDD0B502AF0446807C032816
:1064600004D0042804D12068FFF7E6FE0020E07481
:10647000D0BDD0B502AF0446C079032804D00428AB
:1064800004D12068FFF7F4FE0020A071D0BD80B5D4
:106490006F4690F83410032907D0042918BF80BD37
:1064A0005830BDE88040FFF7DBBD5830BDE8804084
:1064B00000F040B880B56F46017C032907D004295D
:1064C00018BF80BD1830BDE8804000F0C8B9143056
:1064D000BDE8804000F000B880B56F46017C04291B
:1064E00018BF80BD1830BDE8804000F0B8B980B555
:1064F0006F46017F042918BF80BD2030BDE8804071
:1065000000F00CB880B56F4690F85810032918BFFA
:1065100080BD0430BDE8804000F095B980B56F467D
:1065200090F85C10032918BF80BD0830BDE880409A
:1065300000F089B9D0B502AF044690F85C00011FA5
:10654000042906D3032818BFD0BD04F16000FFF76B
:1065500002FFE06B4068BDE8D040FFF778BD80B532
:106560006F46C0B2032818BF80BDBDE88040FFF76A
:10657000A1BDD0B502AF044690F82000042806D192
:10658000E0690078FFF7A8FD002084F82200D0BD64
:1065900080B56F4690F84010032918BF80BD0C30BD
:1065A000BDE88040FFF7E5BF80B56F4690F8441026
:1065B000032918BF80BD1030BDE88040FFF7D9BF68
:1065C00080B56F46017B042918BF80BD8068BDE897
:1065D0008040FFF789BD80B56F4690F8A810032969
:1065E00098BF80BDD0F89000BDE88040FFF77CBD2B
:1065F00080B56F4690F8D811032918BF80BD0C30C4
:10660000BDE88040FFF7B2BE80B56F4690F800123B
:10661000032918BF80BD1030BDE88040FFF7BBBE26
:1066200080B56F4690F8E011032918BF80BD043093
:10663000BDE88040FFF7DCBF80B56F4690F82010C2
:106640000339C9B2032988BF80BD044A52F821101A
:106650000844BDE88040FFF7D7BF00BFC8A20400D0
:1066600080B56F4690F820100339C9B2042988BF5D
:1066700080BD044A52F821100844BDE88040FFF76D
:10668000C3BF00BF34DE040080B56F46817C0E3985
:106690000B2911D8DFE801F00610101110101010AE
:1066A000060B100B1830BDE88040FFF794BF143084
:1066B000BDE88040FFF784BF80BD1430BDE8804056
:1066C000FFF729BED0B502AF044690F83100052887
:1066D00009D006280ED104F1480000F05FF8A06B45
:1066E000A28F26F04FFED4E9000126F063FC0020C3
:1066F00084F83000D0BD80B56F46017B032918BFF8
:1067000080BD0430BDE8804000F054B880B56F46CD
:1067100090F82D1041B1032918BF80BDD0E90601C2
:10672000BDE88040FFF750BBD0E90001BDE88040E4
:1067300026F040BC80B56F4690F82C10033905292F
:1067400018D8DFE801F00317170D08123030BDE844
:106750008040FFF7CCBE3030BDE88040FFF7BCBEC4
:106760003030BDE88040FFF7D9BE3030BDE8804012
:1067700000F001B880BD80B56F4690F86010052923
:1067800007D0062918BF80BD6430BDE88040FFF700
:10679000C5BE7430BDE88040FFF790BD80B56F4640
:1067A00090F82510042918BF80BD2830BDE880402E
:1067B000FFF782BB80B56F464179032918BF80BDC2
:1067C0000430BDE8804020F093BF80B56F4690F85C
:1067D000441039B1032918BF80BD1430BDE8804092
:1067E000FFF794BFD0E90101BDE8804026F0E2BB8D
:1067F000D0B502AF044690F88800032801D028B134
:10680000D0BD04F14000FFF7E0FF18342046BDE89A
:10681000D040FFF7A7BB80B56F4690F8A4100329BE
:1068200018BF80BD2430BDE88040FFF7FBBD80B5B8
:106830006F4690F89410032918BF80BD0430BDE85E
:106840008040FFF71BBC80B56F4690F850100329BD
:1068500018BF80BD0C30BDE88040FFF799BE80B501
:106860006F4690F85810032918BF80BD1030BDE85E
:106870008040FFF799BE80B56F46017D032918BFA0
:1068800080BD0430BDE88040FFF735BF80B56F465E
:10689000C0B2072818BF80BD0846BDE8804026F07A
:1068A0007DBB80B56F4680BDB0B502AF051D0C46FF
:1068B00034B155E90101FFF787FA013C1035F7E7DC
:1068C000B0BDB0B502AF051D0C4634B155E90101AC
:1068D00026F070FB013C1035F7E7B0BDB0B502AF54
:1068E00000F13A050C463CB115F83A0C15F8401B7E
:1068F000FFF7CCFF013CF6E7B0BDE0B502AFCDE954
:10690000000101A968461EF05BFDD4D4F0B503AFC9
:106910004DF804BD06461B480068C0052AD11B4837
:106920001B4917F00DFF054690F838000C4601286A
:1069300004BF05F1300017F00FFBA86AC0B195F84D
:106940003810E1B9D5E90C12002A05EBC20318642E
:1069500083F83C6018BF01326A63914204BF012092
:1069600085F8380026F058FC05F1080022F0B8FA46
:1069700026F088BD044820F07BFA20F023FB054870
:1069800020F0B8F804ED00E0B1000000E0E20320E0
:10699000B4C3040034C40400F0B503AF4DF804BD23
:1069A00084B006461D480068C0052ED11D481E490A
:1069B00017F0C6FE054690F858000C46012804D191
:1069C00005F1500101A817F0DDFAA86CC0B195F8E7
:1069D0005810F9B9D5E91412002A05EBC20318665C
:1069E000A3F85C6018BF01326A65914204BF0120C0
:1069F00085F8580026F010FC05F1080022F066FA30
:106A000026F091FE04B026F021BE054820F030FAB1
:106A100020F0D8FA054820F06DF800BF04ED00E042
:106A2000B1000000E0E30320B4C3040034C4040058
:106A3000F0B503AF4DF804BD06461B480068C0051D
:106A40002AD11B481B4917F07BFE054690F87000C1
:106A50000C46012804BF05F1680017F07DFA286E86
:106A6000C0B195F87010E1B9D5E91A12002A05EB0A
:106A7000C203986783F8746018BF0132EA669142D6
:106A800004BF012085F8700026F0C6FB05F1080060
:106A900014F0BCFC26F0F6BC044820F0E9F920F024
:106AA00091FA054820F026F804ED00E0B10000005E
:106AB00050E40320B4C3040034C40400BFB506AFDF
:106AC0000168DFE801F0041F191B17252D1DD0E90F
:106AD0000101CDE9010101A80390284820F0BCF98B
