:020000021000EC
:1000000040C70220010101000397040031F90600F6
:100010000397040003970400039704000000000006
:100020000000000000000000000000000397040032
:1000300003970400000000000397040003970400E6
:1000400059010100C1010100039704000397040056
:100050000397040003970400019C04000397040025
:1000600041020100039704000397040035020100D8
:1000700003970400CD0101000397040003970400D7
:1000800003970400D99C040003970400039704001D
:10009000AD010100039704000397040003970400D7
:1000A00003970400039704000397040003970400D8
:1000B0000397040003970400000000000000000004
:1000C00003970400039704000397040003970400B8
:1000D0000397040003970400039704004D020100F6
:1000E0000397040003970400039704000000000036
:1000F00000000000039704000000000003970400C4
:1001000039F002FB0E480F490022814201D004C0A1
:10011000FBE70D480D490E4A814202D008CA08C0CB
:10012000FAE70C484FF47001026842EA01020260EB
:10013000BFF34F8FBFF36F8F36F0F7FA00DE00008A
:1001400028E9022008F8032040C7022024E9022001
:1001500090A3070088ED00E0B0B502AF59F0BEFAF9
:10016000104C206828B1002020600F481C3039F066
:10017000E5FF606850B10C4D0020606005F11C0087
:1001800039F0DCFF05F12C0039F0D8FFA06838B158
:100190000020A06004482C30BDE8B04039F0CEBF4C
:1001A000B0BD00BF1C010040FCE2032080B56F46DB
:1001B0000248BDE8804039F0C1BF00BF00D4032031
:1001C00080B56F46BDE880405AF01ABEF0B503AF67
:1001D0004DF804BD144E002030603BF061F8134D23
:1001E00004462868E0B94FF0FF302860E86870B135
:1001F000296988420BD0D6F808140170D5E90301AB
:100200000130E860884204BF281D39F06BFF43F0DD
:10021000DFFF20465DF804BBBDE8F0403BF076B858
:10022000034839F0F1F800BF00D10040DCE30320BF
:10023000886B070080B56F46BDE880405BF07CBCF2
:1002400080B56F46BDE880405AF0CEBDF0B503AF33
:100250004DF8048D84B0344C206858B1334D0120E2
:10026000C4F8080205F11C0039F068FF05F124000C
:1002700039F064FFE06D38B14FF40000C4F80802B3
:100280002A48243039F05AFFA06A38B14FF4806010
:10029000C4F808022548243039F050FFA06D28B179
:1002A0000020A06521481C3039F048FF206EB8B30B
:1002B00000202066D4F86C631C48C4F86C63BFF35C
:1002C0005F8F50E8051F314340E80512002AF8D13E
:1002D0000020BFF35F8F8DF80C0007200DF104089C
:1002E000029001200190404631F0ACFA012817D16C
:1002F00001F01F040D4626FA04F0C00704D028467A
:100300002BF016FD39F01AFF84F0100026FA00F0E9
:10031000C007E8D028462BF053FD39F00FFFE2E785
:1003200004B043F05CBF00BF00710240FCE2032058
:10033000F0B503AF2DE9000F95B0D0E90149834630
:1003400008468A46A4EB090542F0FAFB854201D231
:1003500000200BE25046DBF8005042F0F1FBDFF8E2
:100360001C142A46009100EB09014846234640F040
:100370006BF89AF80020FF2A1FD19AF80420FF2A70
:100380003ED145F06EF8BAF8080001280AA814BF5B
:100390001B211D2140F094F8C0B2022840F0DD81FD
:1003A000BAF80A100AA840F0ABF8C0B2022840F030
:1003B000D481DAE903120AA84EE1B2F10A044FF03F
:1003C000000398BF1C46002C35D0012C48D145F0C5
:1003D00048F80AA8522140F073F8C0B2022840F051
:1003E000BC81BAF80C100AA840F08AF8C0B2022802
:1003F00040F0B381DAE901120AA841F089FA35E048
:10040000CDE9030100200590DFE812F00900C500E6
:100410005E00A2003200EF001B01C200290103A808
:10042000032140F04DF8C0B2022840F09681BAF89E
:10043000061003A88BE10AAC0A2A0BC400F29981CA
:10044000DFE812F00B0015013201350169014701A7
:10045000730197019701970112010AA8102108E181
:1004600044F0FFFF0AA81E2140F02AF8C0B274E150
:1004700003A8092140F024F8C0B2022840F06D81A1
:10048000DAF8144003A8214640F01AF8C0B2022856
:1004900040F063810AF10802139444F0FAF90AA8C3
:1004A000294642F0E7F99DF82800FF2840F05481E2
:1004B00044F07DF9C0B2022840F04F8144F0BCFD09
:1004C000C0B20228EBD048E103A805213FF0F8FFB5
:1004D000C0B2022840F041819AF8144003A8214696
:1004E0003FF0EEFFC0B2022840F037810AF1080267
:1004F0008DF824400DF1400807CA06AB07C30AA8CF
:100500000430029003AC0AA806A942F009FABDF82B
:100510002800002840F02081029AA446BDF82A1045
:10052000404678CA78C064461278027060463FF050
:10053000E7FFC0B2022840F0108140463FF090FF34
:1005400043F0C3FB41F0E4F9C0B20228DBD004E180
:1005500003A801213FF0B4FFC0B2022840F0FD80A3
:100560009AF8051003A83FF0ABFFC0B2022840F094
:10057000F480BAF8081003A83FF0C2FFC0B2022806
:1005800040F0EB809AF8061003A83FF03DFFE0E052
:1005900003A80D2157E003A807213FF091FFC0B247
:1005A000022840F0DA800AF108020DF1280844F030
:1005B00070F94046294641F0B1FE9DF82800FF2819
:1005C00040F0CA80BDF82A103046BDF82C403FF0FC
:1005D00097FFC0B2022840F0C080304621463FF06D
:1005E0008FFFC0B20228E4D0B7E003A811213FF08A
:1005F00067FFC0B2022840F0B080DAF8144003A8C8
:1006000021463FF05DFFC0B2022840F0A6800AF10B
:100610000802139444F03DF90AA8294642F02AF949
:100620009DF82800FF2840F0978044F0C0F8C0B241
:10063000022840F0928044F0FFFCC0B20228EBD0C8
:100640008BE003A80B213FF03BFFC0B2022840F033
:100650008480DAE9021203A841F05AF979E003A88C
:1006600013213FF02DFF74E00AA80C215FE00AA8D7
:1006700008213FF025FFC0B202286ED1BAF812104F
:100680000AA83FF03DFFC0B2022866D1BAF81410A4
:100690000AA83FF035FFC0B202285ED10AF101017D
:1006A0000AA841F065FE54E00AA80A2135E00AA82C
:1006B00012213FF005FFC0B202284ED1BAF8021055
:1006C0000AA83FF01DFFC0B2022846D1DAE90112A4
:1006D00071E60AA806213FF0F3FEC0B202283CD121
:1006E000BAF802100AA83FF00BFFC0B2022834D1BA
:1006F000BAF804100AA83FF003FFC0B202282CD1B8
:10070000BAF806100AA83FF0FBFEC0B2022824D1B6
:10071000DAE902124FE60AA802213FF0D1FEC0B288
:1007200002281AD1BAF8021010E00AA804213FF0FA
:10073000C7FEC0B2022810D1BAF802100AA83FF0D2
:10074000DFFEC0B2022808D1BAF804100AA83FF0B0
:10075000D7FEC0B2022800D10220022806D150469E
:1007600042F0EEF94844CBF80800022015B043F0FF
:10077000C8BC03480F21034A38F0E5F98880070018
:100780007889070098890700F0B503AF4DF804BDDC
:1007900084B00446D0E901300D46191A04290CD35F
:1007A0002268061D084943F0B6FACDE9020102A805
:1007B000294604222BF0CEFA08B1002001E00220E5
:1007C000A66043F0ACBA00BFD41F070080B56F46E7
:1007D0000021017301490131016080BDFCE2032069
:1007E00080B56F4645F27C728150104400218171C2
:1007F00080BDD4D4E0B502AFDFF880C00446002548
:100800004EF6300040F2011285422FD02B1865447D
:1008100005F1180656E8001F21B946E80021002915
:10082000F8D103E0BFF32F8F1D46EDE7144868624F
:1008300005F128002146FFF7D3FF2046294639F06D
:1008400087F90025BFF35F8F54E8000F44E800519B
:100850000029F9D1BFF35F8F30B1C669C561457614
:10086000416A88473046F7E720BFEBE705487A1E24
:1008700000902B210448054B38F015FE90E902202A
:100880007D7B0300542B0700268207009444070059
:10089000F0B503AF2DE9000B94B00446F8680DF1F4
:1008A0003C0843F08BFF9DF83C00FF2803D040F646
:1008B000032020801DE0A7F14E0008F10401851CF3
:1008C00043F01DFA02A82946861C43F0CEF80BAD72
:1008D000314643F014FA44F0D7FB2078FF2808D0C3
:1008E00043F038FE044838F033FF43F0FCFC39F0A5
:1008F00097F814B043F069BCE4010000F0B503AF11
:100900002DE9000FCDB0FE68D7F80880CDE91D2095
:1009100056F870AFD8F84400C346CDF8AB00C146D6
:100920005BF8410FD6F808E02A90D8F83D00129302
:1009300016917268F568D6F810C07369B169F469E8
:10094000CDF8CB0059F83A0F2192CDF870E01B9505
:10095000CDF868C0199320911F94329032A88DE889
:10096000120454460DF1F80ACDE9032E62460595AE
:100970002AA9CDE90610A6F13001504629F01CF94C
:1009800022A89AE82E002EC0429811904398109009
:1009900044980F9045980E90306A1890706A17909E
:1009A00008F14E00D6E90AA542F02EFD20F07F4066
:1009B000CDE90A0B209800901F98CDE901042198F9
:1009C00003901C98CDE908A5049005461B98CDF826
:1009D00054B005908346189806901798CDF84C901F
:1009E000CDF830901494079026A822A91A9A199B42
:1009F0009146984629F006F81D98102804D126A89B
:100A000016992CF075FE30B11E99FF20087040F643
:100A1000033088805EE0D6E90C40D7F808A01D902E
:100A2000B06B18900AF14800F66B42F0EDFC20F034
:100A30007F400A9013980B9015980C902098049082
:100A40001F981899CDE905041D98CDE90816CDE940
:100A5000005BCDE9029807902AA822A9149A219B4D
:100A600028F0D0FFDDE92C01DDE92A23CDE90001E2
:100A70003EAC204605F076FD9DF8F850FF2D0AD0DB
:100A8000611C32AC43F0CCF81E9E214643F019FBAA
:100A90003571FF201DE00DF1C809211D09F1030585
:100AA00043F02DF92EAE294642F0DFFF129C0DF1E6
:100AB000F8083246404621462BF06CFA9DF8F85073
:100AC000FF2D0AD01E9E08F1010143F0FAFAFF2023
:100AD000357130704DB043F091BA9AF83800022366
:100AE0009AF84A100DF1F8089AF85020022801F0FF
:100AF000030008BF012302F0030180F0010081F030
:100B0000010108430F990091B0FA80F00E99400955
:100B1000CDE901132146DDE91032039040462BF068
:100B20006DFA9DF82161022E09D198E86E004846C1
:100B30006EC01E9E99E83E00301D3EC0A9E732AC53
:100B40003EA9292243F063FABDF826012146ADF8FB
:100B500030012922DDF822014B903EAD43F076FAB8
:100B60005046294629225EF004FD4B981E99CAF88A
:100B70002A00BDF83001AAF82E000A208AF8296060
:100B80000870A7E7102B7DD1F0B503AF2DE9000F5A
:100B90009DB009908846F868137800F16006D2F895
:100BA0000100D2F80540D2F8095043EA002C396917
:100BB0002B0243EA1463240244EA1060D47BB2F8A7
:100BC0000D20C6E900C042EA0442120242EA156260
:100BD000C6E9023218A803F057F806F1300A18984F
:100BE00006F11003F66B1A9A08F07F041999DDF8E4
:100BF0006CB0069283E80708A4F1400207913146E1
:100C000008909AE8200650465EF000FBCDF814806C
:100C100080462846494622465EF0F8FAC4F1400272
:100C2000814650463146D7F80CA05EF005FB0AF12C
:100C3000200103910699402CCDE901BA009138BFFB
:100C400049EA00082948002C08BFA84644F070FB78
:100C50000AA8DDE9073228F039FFDDE90C01DDE9FA
:100C60000A23CDE9000118AC204605F0B7FB9DF83A
:100C70006050FF2D0CD0611C0FAC42F0D1FF099EDB
:100C800021461FE0FF21017040F60321818070475B
:100C9000DDF814900FA8C61C211D1022D7F808807B
:100CA00043F0AFF914AD314643F029F818AC414692
:100CB0002A4620462BF06EF99DF86050FF2D09D092
:100CC000099E611C43F0FDF9FF20357130701DB0A5
:100CD00043F094B9099C5146B02204F108005EF03B
:100CE00094F90620C4F804902070F0E7C0FFFF7F5D
:100CF000F0B503AF2DE9000B94B00446F8680DF190
:100D00003C0843F05BFD9DF83C00FF2803D040F613
:100D1000032020801DE0A7F14E0008F10401851C8E
:100D200042F0EDFF02A82946861C42F09EFE0BAD64
:100D3000314642F0E4FF44F0A7F92078FF2808D0BC
:100D400043F008FC044838F003FD43F0CCFA38F0D7
:100D500067FE14B043F039BAE3010000F0B503AF09
:100D60002DE9000F9FB08246880701D411206FE063
:100D7000D56B934605F108030FCB41EA030440EA23
:100D80000206344311BF8DE80F000020CDE90200B8
:100D9000CDE9000016AE6946304605F013FC9DF81B
:100DA0005840FF2C3DD111A8311D00F1030810223D
:100DB00043F02EFD0AAE414642F057FE0DF15809B0
:100DC0005946324644F052FB9DF85840FF2C30D132
:100DD0002868C10741D06968000A0A0E8DF83E20D4
:100DE0000A0A40EA0160ADF83C200E9016AE0EA94A
:100DF000304605F031FC9DF85840FF2C11D1311DD3
:100E0000404643F0DCF91BAE414642F02EFE05A8F9
:100E1000594632462BF0BEF89DF81440FF2CA5D061
:100E20000DE011AD711C132243F010F905A82946FD
:100E300002E005A809F10101013043F0E5F805A938
:100E40000AF10500013143F0DFF8FF208AF8044081
:100E50008AF800001FB043F0D1B80524EFE7F0B5E1
:100E600003AF2DE9000F8BB0044602A80E46002107
:100E7000924605F089FA9DF80800FF281ED09DF8DB
:100E80000B10E170BDF809109DF81B20DDE903C5CA
:100E9000A4F80110BDF81910059E9DF81830ADF8A2
:100EA0001C108DF81E202374C4E901C5E660A4F867
:100EB0001110E27420700BB043F0A0B89DF818B088
:100EC000059DBDF81900ADF8040059469DF81B00BA
:100ED0008DF806002846DDE9038926F0A7FE0246C4
:100EE0000B4606F1480011461A4642F045FBC0B2D7
:100EF00002281CD1BDF804005146ADF829009DF828
:100F000006008DF828B00995CDE907898DF82B00EA
:100F100002AD07AA28462BF03DF89DF80860FF2E89
:100F200010D0601C691C43F06FF82670C3E70520E1
:100F30004946207040460BB0BDE8000FBDE8F040C8
:100F400042F0F0BAFF20B5E7F0B503AF2DE9000F8E
:100F50009FB00D46B968069314460B901AA802F08C
:100F600093FE1A9804F170061C9A05F07F0504F1AF
:100F7000900B1B991D9B0FC60892A5F140020A9089
:100F80009BE8400E50460991594607935EF03EF9A2
:100F90008046304649462A465EF038F9C5F140029F
:100FA0008146504659465EF047F904F12001402D34
:100FB000CDE90241079901910899009138BF49EAAA
:100FC00000082448002D08BFB04644F0B1F90CA831
:100FD000DDE9093228F07AFDDDE90E01DDE90C23B7
:100FE000CDE900011AAC204605F0F8F99DF86850EB
:100FF000FF2D0BD0611C11AC42F012FE0B9E21465E
:101000001322701C5EF0B5FA35701FE0DDF82C80FD
:1010100011A8C51C211D42F072FE16AE294642F0F1
:1010200024FD1AAC0699324620462AF0B3FF9DF8FB
:101030006850FF2D07D008F10100611C42F0E4FF69
:1010400088F8005002E0FF2088F800001FB042F04E
:10105000D5BF00BFC0FFFF7FF0B503AF2DE9000F84
:10106000B5B016461D46CDE91210B046D6F83D0083
:101070000DF1A00C55F8702FCDF8A30058F83A0FD9
:10108000289056F8410FD5F808906B68D5F80CA059
:10109000D5F810E0D5F814B0AC69E9692C90D6F811
:1010A000030014921593CDF86C90CDF868A0CDF89C
:1010B00064E0CDF860B017941691CDF8B3002CA879
:1010C0008DE800460DF18009CDE9051CA5F1300140
:1010D00007904846CDE903B428F06EFD1CA899E8B6
:1010E0001E0005F1300B1EC0249811902598109019
:1010F00026980F9027980E90F01D9BE8100AD5F8BF
:101100003CA042F081F920F07F40CDE90A08DDE9FA
:101110001A10CDE908BA0C96CDE900011998029091
:101120001898039017980490169805A981E8110261
:1011300028A81CA9DDE9142328F064FCDDE9282394
:101140000DF18009DDE92A01CDE90001484605F0ED
:1011500009FA9DF88060FF2E0ED02CAC09F1010138
:1011600042F05EFD139D21461322681D5EF001FAD8
:10117000FF202E71287051E0DDF84C802CA8C61C91
:1011800009F1040142F071FC31AC314642F0C2FE7B
:101190000DF180091299224644F068F99DF88040CB
:1011A000FF2C0BD008F1050009F1010142F02CFFE2
:1011B000FF2088F8044088F800002FE005F1200B9C
:1011C000464608F11804ED6A9BE8000D09F1070096
:1011D0001CA942F0F4FF0B20494606F8010B172228
:1011E00042F00FFF199804F12C01206218986062F8
:1011F0001798A0621698E56381E8010D11982060A8
:10120000109860600F98A0600E98E06014982061BC
:10121000159860611B98A0611A98E06135B042F0A2
:10122000EDBED4D4F0B503AF2DE9000F8BB004466A
:101230000220ADF80A0001208DF808001E462C4857
:1012400088468DF80920039007A842F021F9079DF0
:10125000EDB3DDE9089BFB20D7F808A0CDE904B089
:101260000020069004A803A9FFF78EFAC0B2022856
:101270001CD104A802A9FFF787FAC0B2022815D131
:10128000DDE90530191A02290ED3049A1949009193
:10129000811C01913FF0D8F8CDE9070107A831463C
:1012A00002222AF057FDB8B1042004E0C0074FF035
:1012B000040018BF0D2001212070617028464946A6
:1012C0000BB0BDE8000FBDE8F04042F02BB916208E
:1012D00020700BB042F092BE019851460A9007A8C8
:1012E00080E8200A07AB2046424628F05DF9F0E787
:1012F00006000500D41F0700DCB504AF10CB503149
:1013000000943AF0E5FCDCBD91F8673301F5147206
:10131000012B12BF91F8561202F58C720121A0B177
:10132000D0B502AF9388B0F8154112686340D0F889
:10133000114162401A4390F817315940C90718BF4C
:101340000020002A18BF0020D0BD00207047D4D450
:10135000F0B503AF2DE9000794B002AD8846814691
:10136000482143F052FAD8F80C404826324B29461F
:10137000482C38BF26463046482240F0F5FA05464C
:10138000D8F808008A4621462AF026F98E424FD81E
:1013900003462A4800901A462846514633463AF0FA
:1013A000A1F8022C09D22C4838F0D2F9304638F096
:1013B000C1F938F035FB0A2019E09DF80800441EF9
:1013C000E5B20E2D12D22046A6F1010A26F04CFEFF
:1013D00080B2824519D109F1010002A948225EF0CC
:1013E000C8F8C9F84C6089F8004008E0072089F87F
:1013F0000500032089F80400FF2089F8000043F06D
:10140000CDFB14B0BDE80007F0BD0D4838F0A0F9E1
:101410000C480D4CA0470D48A0470D480D4950F809
:10142000250051F8251036F0A1F80020A047C0E7AC
:101430000A4B0A4642F05BFE2421070044210700C4
:10144000D9010000170000000F97040046030000B8
:10145000C48E07008C8E0700DA01000034210700DB
:10146000F0B503AF2DE9000F95B01C788046FF2C36
:1014700015D046481D4616468A4693F801B038F006
:1014800067F9434838F043F9284640F02DF8032C1B
:1014900018BF4FF0080B38F0C3FA192C05D1FF2004
:1014A00088F8000015B042F0A9BDB6F858430FA85F
:1014B00041F0EEFF0F98002848D0A7F143000094B8
:1014C000C51C0FA90C2242F0C1FDA7F1520029460C
:1014D000C61C0C2242F095FD12AD31460C2242F0A2
:1014E000B5FD02A82946042226F0B2FB9DF80800AB
:1014F000DDE903549DF81860FF28DDF8149026D12B
:101500004846314626F092FBE1B380F800B0304601
:1015100026F084FBCDE904904046CDE9025402ADAB
:10152000009A51462B4628F03FF898F80000FF2813
:10153000B5D098E85E0028465EC0164838F008F935
:1015400028463FF0C3FF38F06BFAABE716209DF852
:101550000B1088F80310BDF809109DF81B20A8F89F
:101560000110BDF81910ADF804108DF8062088F8A8
:101570001060C8E90154C8F80C90A8F8111088F858
:1015800013208DE7044A42F001FA00BFD2010000A7
:101590001E030000D701000064210700F0B503AF6F
:1015A0004DF8048D92B00DF104080D460646114623
:1015B000404644221C465DF037FFB868294600903B
:1015C00030464246234600F005F812B05DF8048B21
:1015D000F0BDD4D4F0B503AF2DE9000FADF29C6D92
:1015E000189301F1780A1790DCAE91F8C84006F123
:1015F000600B90460D46022C199131D10DF168090E
:101600002946C82243F054FC152028710E2028706A
:101610009DF8685098F800000C2D00F2118306F137
:101620007004DFE815F00D008B0141012701C800AF
:101630000901DE010D037402C5020D03AA02960022
:10164000FF2804BF98F80C10002900F01F87411EE6
:101650000329C0F0B782002840F0EE8200F057BFA7
:101660000DF50C792946C8221AAE43F021FC15204D
:101670009DF830122871122028700F2998F8000068
:1016800000F2B68506F16005DFE811F01000C10335
:1016900002039F04CF04B2057B03E0032204B205DA
:1016A000AB053205B205B205E6028803FF2804BF88
:1016B00098F80C200A2A40F09B85D8F808000028EA
:1016C00002F09082199D0C22D8F8041095F81901A7
:1016D000032808BF0822DDF860A0DAF8383093F854
:1016E000700393F87133024485F81A210C7813B112
:1016F000012185F818110DF59F6858B195F81C0166
:1017000095F81D1140F0030085F81C0141F003011C
:1017100085F81D111AA851462AF0BFFD9DF89100C9
:101720000DF55C79022807D0600741F1BD829DF874
:101730009000022801F0B882DCAC43F023FA43F0B9
:1017400007FF01F0158242F0AFFB8DF8FC5401F069
:10175000C0BAFF2804BF98F80C10082940F02F8267
:10176000D8F80820002A02F03B82D8F80400047858
:10177000022C81F018800DF59F68062A42F2228221
:10178000199A50F8011FDDF860A0C2F81111818884
:10179000A2F8151192F8F91082F81741022900F009
:1017A000F9868188A2F8F4100068C2F8F00082F887
:1017B000F64000F0EFBEFF2804BF98F80C10022995
:1017C00000F04F86042800F23E82DFE810F0E606C3
:1017D000FB01FB010500E6060DF59F600DF59F6B13
:1017E00000F190051998902200F1180158465DF01B
:1017F0000CFCDCAE09F10101112242F002FC0024D4
:10180000D8F80400C5E90004C5E904049DF8700394
:10181000C5E90244C007C5E9064401F05585DDF875
:1018200060A0721CB8680021CDE900AB10230290C3
:101830008CA8FFF7A7F9CBE1FF2804BF98F80C109C
:10184000022940F0BC8119980DF59F64B02200F187
:10185000080120465DF0D9FBD8E90123A046DDF858
:1018600060A0B8681B99CDE900A402908CA8FFF78E
:1018700089F9AFE1042800F2E587DFE810F08E0671
:101880000500C407A3018E069DF86900002801F039
:101890007181199909F118001022D031CDE9001099
:1018A00009F1020100F041BFFF2804BF98F80C10B5
:1018B000032940F08481199D4CA8702242F0FCFD60
:1018C000DAF8000005F1980116902022DAE901B952
:1018D000DAF80C60C6A85DF04CFE42F079FE40F0EC
:1018E0009787D8F804000DF59F6A169A5B461596FF
:1018F000D0F809101491D0F80110139101781291C9
:10190000C17B11911899D0F80550B0F80D001090D6
:101910005046CDE900965E46FEF7BAFF9DF8F88482
:10192000B8F1FF0F01F069828CA80AF101010530BE
:1019300042F06AFB8DF8348200F0A5BFFF2804BF97
:1019400098F80C100B2940F03A81D8E901120DF5F6
:101950004678404641F0C2FCDDF860A02022DAF86B
:101960002C10BEAC42F053FBDAF830104CAE4022E3
:1019700042F047FB0DF59F692146424633464846F3
:1019800041F0DEFB9DF8F804C00700F046879DF8A3
:10199000FB0409F106018DF806021222BDF8F904D4
:1019A0009DF8FC449DF8FD64ADF804027CA85DF050
:1019B000E0FD09F1180079A90DF59F6A0CC80CC16A
:1019C000007808704CA9504604F054FD9DF8F804C6
:1019D000FF2801F06C820A2003258DF8710301F0C5
:1019E00090BAFF2804BF98F80C10032940F0E78054
:1019F00043F05FFCDCA85DF008FB42F0E9FD40F03D
:101A00001587D8F804001B9DDBE90E98D0F801106B
:101A10000278129505F07F0542EA0122CBF82020DA
:101A20001692D0F80930D0F805201C0244EA12645E
:101A3000120242EA1161CBF82840CBF82410C5F11C
:101A400040021591C17BB0F80D00149440EA0140AA
:101A50004146000240EA136A4846CBF82CA0DBE975
:101A60000C645DF0E9FB1390304621462A465DF098
:101A7000CDFBA5F140020446484641465DF0C6FB59
:101A80001399402D38BF44EA0100EF49002D08BFEB
:101A90003046DCAA61F35F00149B02F12001CDE91E
:101AA000003ACDE902120490BEA8DDE9153228F013
:101AB0000DF8DBE900ACDDE9BE648CEA0401DBE98A
:101AC0000289DDE9C03589EA050008438AEA060291
:101AD00088EA03011143084341F06080DBE90423F5
:101AE0000DF59F64DBE90601CDE90001204604F015
:101AF0009BFC9DF8F854DDF860A0FF2D01F0F48404
:101B0000611C4CAC42F08CF88CA821462EE0FF28DA
:101B100004BF98F80C10032951D143F0CAFBDCA88C
:101B20005DF073FA42F054FD40F08586D8F8040069
:101B300004F1100542F0FAFA0EC5B968E0612046DA
:101B400002F0A2F8DDF860A0D4E90201D4E9002394
:101B50000DF59F64CDE9000151462046FEF798FE41
:101B600043F0F2FC01F0DF818CA8611C053042F0EB
:101B70004BFA8DF8345200F054BEFF2804BF98F899
:101B80000C1007291BD142F023FD40F079861998EB
:101B900090F8F900022808D0D8F804000AF1680487
:101BA00042F0C4FA0EC4CAF874000C2000F06CBEF7
:101BB000FF2804BF98F80C100C2900F0AE85411ED8
:101BC000032936D28CA81AA943F02FFBDDF860A0B8
:101BD0000DF59F689DF83002FF2800F0E5840DF5B3
:101BE0000C790DF59F60C82249465DF00EFA9DF80C
:101BF000F8040E2800F0E284199D0D2840F0FE84C0
:101C000095F8F980B8F1020F00F0F88495F81A0100
:101C100000F00300012802BF95F8200100F0030046
:101C2000012800F0288595F8F8C04FF0020800F070
:101C30004FBD002800F06984042804D100F0ADBC39
:101C4000FF2840F0578498F80C00042800F0EF8338
:101C50000D28B7D000F0A1BCFF2804BF98F80C20D5
:101C6000072A40F0C58242F0B3FC40F09F86199DE0
:101C700095F8F900022808D0D8F804000AF16804A1
:101C800042F054FA0EC4CAF874000F2000F093BE5C
:101C9000FF2804BF98F80C200B2A40F0A982BEAEA2
:101CA00009F10401202242F0ACF9DDF864B00DF531
:101CB000467940220BF1240A484651465DF059FC12
:101CC000D8E901124CAC204641F008FB0DF55C78D8
:101CD000314622464B46404641F032FA9DF87003A9
:101CE000C00700F06B869DF8730308F106018DF8BC
:101CF000AA001222BDF87103ADF8A800BDF8744324
:101D00001AAE06F145005DF034FC06F1570008F10B
:101D1000180142F010FF06F120004CA942F020F912
:101D20003046514642F01CF928465021ADF8AB40F0
:101D30005DF0C8FB9BF80801811E38BF0221DDF869
:101D400060A0C9B2022901F02D820DF55C7903294A
:101D500041F047820F2043F051FADAF83820D6AE2E
:101D6000DCAC42F0BEFF9DF85853FF2D41F0E183FB
:101D7000E01D1AA942F03EFB09200DF59F6801F015
:101D8000F2BC98F80C10FF2808BF022900F04D841F
:101D9000DDE918A5FF2800F0318276E2FF2804BFB4
:101DA00098F80C20082A40F02382D8F80820002A4E
:101DB00001F01A87D8F80400DDE918A50478022C90
:101DC00080F03B860DF59F68062A41F2FD8650F8AB
:101DD000011F0DF55C79C5F811118188A5F8151161
:101DE00095F8F91085F81741022907D08188A5F8E0
:101DF000F4100068C5F8F00085F8F64095F8221157
:101E00000DF59F605246FEF7A9FF00F0A3BFDDE984
:101E100018A5FF2840F0FA8298F80C100A2900F063
:101E2000DA85012940F0EA81D8E90112DCA841F005
:101E3000B3FB9DF87003022840F0CE860A2041F0E3
:101E4000D5FF01F089BA00BFC0FFFF7FFF2804BFA4
:101E500098F80C20022A40F0CB81199DDCA8602262
:101E600042F02AFB9AE8500805F188013022DAF89E
:101E70000C901AA85DF07DFB42F0AAFB40F0F683BF
:101E8000D8F804000DF59878224633468D9D0168F8
:101E9000169141681591816814911899C068139042
:101EA0004046CDE900B9FEF723FF9DF830A1BAF115
:101EB000FF0F01F0AF800DF59F6208F10101501D89
:101EC000904642F0A1F8FF208DF8FCA401F0C6B8BE
:101ED000FF2804BF98F80C20032A40F08981199D3F
:101EE000DCA8B02242F0E8FA42F072FB40F07585BF
:101EF0008D98DBE90EA900F07F04DBF83410A4F123
:101F00004002DBF830501591494614905046D8F8FD
:101F1000046016955DF07AF91599804628462246A8
:101F20005DF074F9C4F140021590504649465DF0E9
:101F300083F9B368F568D6F800907268DCA903915C
:101F400020310291402CCDE91253CDE9003515998D
:101F500038BF41EA00081698002C08BF8046E248C6
:101F600043F0E6F990461AA84A46434627F0AEFDEC
:101F7000DBE900C1DBE902231AAE1D9870CE69408F
:101F80005840084386EA020184EA0C0211430843E0
:101F900040F02B861499DDF860A0CBE908980DF588
:101FA0009F6813981329CBF828001298CBF82C00BF
:101FB00041F0D781DCAB199D0DF59F60514605F1CD
:101FC000D002FFF749F800F044BDFF2804BF98F89D
:101FD0000C20022A40F00C8143F06BF91AA85DF046
:101FE00014F842F0F5FA40F04183D8F8040042F0CA
:101FF0009DF885E80E00B968E86005F1100001F071
:1020000043FED5E90601D5E90423CDE90001DCACA6
:1020100042F0BEFD43F09CFA40F09086E01D1AA904
:1020200042F0E8F9042000F0E1BEFF2804BF98F870
:102030000C20032A40F0DC8019980DF1680BB022C7
:1020400000F1080158465CF0E0FF42F0C1FA40F0B0
:102050000D83D8F804000BF120028168D0F80CA0A1
:10206000D0F80490D0F800800020CDE9001ACDE926
:1020700015214B46CDE9022B42460490C6A827F015
:1020800025FDD5E902E3DDE9C646DDE9C802D5E96B
:1020900000C15A40714080EA0E0011438CEA0402EC
:1020A0001043084340F0AE8505F11003169CC5E9C6
:1020B00008890FCBC5E90A4A159DCDF800B001AEDD
:1020C00086E82003CDE9044A27F03EFD199D044629
:1020D00095F80801022841F05C81844837F038FB0C
:1020E00042F033FE37F09CFC0DF59F601AAB37E3EE
:1020F000FF2804BF98F80C200C2A79D1DCA8199C81
:1021000000F11005DCA804F1080150225CF07DFF0D
:10211000D8E9010105F1280B0E9028691390686930
:102120001290A8691190E8691090286A1490686A62
:102130001590686B0F9004F58F709BE8000B16915B
:10214000D5E90EA641F060F9D4F8142120F07F40C3
:10215000D4F81111CDF833214C91D4F80D21D4F8D5
:102160000A11CDF86B201A91CDE908A60A904CA867
:102170000B901AA80C901398029012980390119843
:1021800004901098CDE9050B0F98CDE900890790D0
:10219000D6A8DCA9DDE9142327F034FC1698102812
:1021A00006D1D6A90E982BF0A3FA002800F03385AB
:1021B0004FF00B090325DDF860A00DF59F68BEA95F
:1021C00008F1060012225DF0D4F9FF208DF8FD948D
:1021D0008DF8FC540DF55C798DF8F804199D00F02C
:1021E000BBBDFF2804BF98F80C20032A00F0A5828D
:1021F000FF280BD198F80C10DDE918A5042924D08C
:1022000041F0F4FD0D2900F006810BE1DDE918A590
:102210000539082900F2FA80DFE811F009003700DB
:10222000F800F8009000F800F800DC00F500012844
:1022300000F0DF8241F0DAFD022840F0F38040F642
:102240000340ADF8FC0400F08ABDD8F808000DF595
:102250005C79002801F0C084D8F804000478244890
:1022600037F076FA601EC0B2102828BF0824204636
:102270003FF0DEF937F0D4FB03208DF8FD448DF8F4
:10228000FC040DF59F6800F06ABD032840F0BE8095
:10229000DCAE05F11801902242F015FB0020D8F8C1
:1022A0000410CBE90C103246CBE910100021CBE929
:1022B0000E005346CBE91200B8689DF831520090E9
:1022C0001AAC2046FEF740FE9DF86860FF2E00F035
:1022D0008D830DF59F68611C08F1050041F094FEA7
:1022E0008DF8FC6400F030BDC0FFFF7F8D00000062
:1022F00062010000E04D070079000000630100006A
:10230000DD01000078000000E1010000E7010000AD
:10231000DF010000D0010000D801000077000000BC
:10232000111E050038850700E9010000D3010000F7
:10233000DC0100002F010000CE010000042865D15F
:1023400005F108011AADB02228465CF05EFED8F80F
:10235000010008F1210416902022D8F80D00214632
:10236000D8F805B0D8F809A015904CAE41F049FE58
:102370005FF8801020462BF0BBF940B95FF88C1055
:1023800006F110002BF0B4F9002800F0A7842946CC
:102390000DF598792031002099E860033346CDE9A6
:1023A0000089CDE902112A460490DCAC204627F0D2
:1023B0008DFB4CA800F1100120462BF099F9002864
:1023C00000F09084FF208DF8F80440F20340ADF84F
:1023D000FC044DE1D0B998F80100002800F0878393
:1023E0005FF8EC0037F0C0F995F823010DF59F6810
:1023F000800700F1388695F822110DF59F6052464E
:10240000FEF7ACFC25E3002800F0E78141F0EEFC8C
:102410000138022806D20DF59F608CA942F005FF15
:1024200000F098BC15208DF8FC0400F098BCD8F89A
:102430000800002801F0D283D8F8040004785FF87F
:10244000440137F085F9601EC0B2102828BF082467
:1024500020463FF0EDF837F0E3FA8DF835420320DF
:102460009CE042F0B5F840F08781D8F804108CACBD
:10247000A01C41F0A4FE19990DF59F6842F047FB9E
:1024800041F034FFDDF860A004207DE118990DF5DE
:102490009F60D8E901A929F000FF9DF821050228D5
:1024A00019D00D200DF59F688DF8F8041898434653
:1024B000816A826BDCAC42F007FD9DF87003FF2857
:1024C00009D042F047F85FF8C80137F041F941F010
:1024D0000AFF37F0A5FA0DF59F6051464A4641F0D4
:1024E0005BF89DF8F844022C40F0528141F02DFE3B
:1024F0000A20B7E2072D08BF042800F0C981411E59
:102500000329FFF45FAB002847D10A2D45D198F885
:102510000100002800F027815FF8180237F024F945
:10252000DDF860A00DF59F680DF55C793DBB0DF5FC
:102530009F645146204629F05EFE9DF82155FF2DEF
:1025400000F0FB86DCAC0DF59F61292241F05FFDB8
:10255000DDF822052146199E29228890BDF826051E
:10256000ADF8240206F1D0005DF003F88898C6F8B3
:10257000FA00BDF8240286F8F950A6F8FE00199971
:1025800091F81D01800700F1A78291F822018007D0
:1025900000F13E850D2001F0DDB815208DF83402E4
:1025A000DDF860A00DF59F688CA808F104010430E7
:1025B00090E87C000E207CC18DF8F8040DF55C7964
:1025C00008F1040109F104002EF07AFF0C2042F01A
:1025D00015FE4B46DAF838204CAC42F075FC42F060
:1025E00091FC0AD042F0E8FE5FF8E40237F0B0F860
:1025F00048463EF06BFF37F013FA199D0DF59F61C9
:10260000284642F012FE8CAC294620463FF072FC70
:10261000FF208DF870039DF83002DCAEFE2818BF55
:102620002646179D96E81F00D6E3DDE918A541F080
:10263000CFFF40F0C980D8F804100DF59F6808F16D
:10264000020041F0BCFD0DF55C7905F1180109F1BE
:10265000060041F0CFFE012049468DF8F90408F14B
:102660001200B6225CF085FF062034E341F01BFE29
:1026700041F06BFD6BE34CAE05F1D00451463046A2
:10268000224629F05EFD42F03DFC10D00DF55C7A4B
:1026900096E83E0050463EC05FF8900342F0BDFD14
:1026A000504605F1D0043EF011FF37F0B9F920682B
:1026B00005F1E00C1690AB4660681590D4E902AEC7
:1026C0004C469CE86F006FC4DDE915209BF8F8C00C
:1026D000CDE9E0AE0DF55C7ECDE9DE020EF118012C
:1026E0008DF871C399E87D00F1467DC10B207346DA
:1026F0008DF8700318988DF8A1838DF8A0C3816AB6
:10270000826B4CAC42F0E0FB42F0FCFB3FF475AF57
:1027100042F052FE5FF8080468E7199B09F10800CF
:10272000D8E90112D033CDE900308CA8DDF860A0E3
:102730005346FEF7E3F8FFF74BBA199DDCA8B02229
:1027400041F0BAFE41F044FF40F04B81D8F804005C
:1027500041F0ECFCFF90FCA80EC0DCAB0DF59F60D7
:10276000DDF860A049E05FF8540436F0FDFF42F068
:10277000FBFE40F603702BE20520DDF860A08DF82B
:102780003402FF200DF59F688DF83002FFF724BA60
:102790009DF8FA540DF59F68DDF860A0280700F158
:1027A0005B8103205EE15FF8900436F0D1FF41F0D9
:1027B00096FF37F035F9DDF860A005200DF59F682C
:1027C0008DF8340200F0C5BF05200DF59F688DF827
:1027D000FC04FF200DF55C797DE298F801000028EB
:1027E00000F092815FF8CC0436F0BEFF112000F0BB
:1027F00041BC09F108030DF59F6005F1D002514677
:10280000FEF72AFC23E140F60340ADF83402C7E6A8
:1028100040F60320ADF8340235E040F60330ADF861
:102820003402FF200DF59F6800F094BF42F09CFE3B
:1028300040F60320CCE142F097FE05208DF83402EB
:10284000FFF7C4B99DF8690000287FF4FCA998F847
:102850000C000C287FF4F7A941F0BAFE40F0BD86C9
:10286000D8F804108CACA01C41F0A9FC19990DF506
:102870009F6842F04CF941F039FD032000F0B3BEEF
:1028800005208DF83402FF208DF83002FFF79EB945
:10289000199C0DF59879B02204F1080142F008FB6B
:1028A00008F121060DF5467A2022504642F0E8F95B
:1028B000D8F801001690D8F809005FF8C8151490F0
:1028C000D8F80D0015903046D8F8055094F81EB190
:1028D0003FF096FA40B95FF8E4150AF110003FF0B6
:1028E0008FFA002800F0FA84CDE912B5C6AB0DF5D9
:1028F0003E780FCB119000BAC19008BAC09010BAC0
:1029000010914146BF9018BA0F920E93BE90DCAE64
:10291000304634F085FC0DF59F64002531464FF4B8
:10292000B8722046CDF8DC54CDF8D854CDF8D45444
:10293000CDF8D054CDF86856CDF86C56CDF8705619
:10294000CDF874565CF070FDDCAE21464FF4C072D9
:1029500042F0A5FA09F120045FF83C9630462022A7
:1029600021468DF8F054C847304621462022C847FA
:102970000DF59F64304601228DF8F8542146C84772
:10298000204631464FF4C2725CF04EFD9DF878A6A9
:1029900004F5B8715FF87436102250463EF0F5FB2E
:1029A000002965D000F8015B0139F9E70520199D80
:1029B0008DF8FC04FF208DF8F80414E040F6033095
:1029C000DDF860A0ADF8FC04FF208DF8F80441F0BC
:1029D0000DFA5D46BEE101204CE3052041F0B5FB58
:1029E00007E141F060FCDDF860A030E00DF59F6884
:1029F000E80700F04F8109F1020041F097FB8BE8F6
:102A00000E00CBF80C00DBE90601CDE900015146D0
:102A1000DBE904231AAC2046FEF76AF99DF86850FA
:102A2000FF2D40F08D8108F10800DCA941F048FF3E
:102A30000020CDF8FC04082087E15FF8140736F089
:102A400087FE41F04CFE36F0EBFF41F02CFC0DF51B
:102A50009F680DF55C797DE19DF8FB64102E80F098
:102A60006F8206208DF8350203208DF834029BE535
:102A7000A7F13C060025204647F83C5C31468DF81E
:102A8000785647E90E5547F8305C3FF021FAA7F138
:102A90002C09314648462EF09FFD04F5B076102DE6
:102AA00009D06019013590F8601190F870215140FB
:102AB00080F86011F3E7BAF1100F40F06B8241F03B
:102AC00044FBDDE912B50020102800F07C8219F8E3
:102AD000001041F0B8FCF7E7DAF83C4004F10803D5
:102AE00042F017FC00F0908382AD0FC591E35FF8D0
:102AF000C40736F039FE40F603700DF59F68ADF857
:102B0000FC040DF55C792AE10DF55C7841F035FFA8
:102B10000DF168090D2043468DF87003484629F0F1
:102B2000E7FA41F0E6FF0BD099E86E0040466EC030
:102B30005FF8040842F071FB41F0D5FB36F070FFFE
:102B4000E00700F092825FF8140836F00DFEDCAC6E
:102B500042F018F89DF870530DF59F680DF55C79FB
:102B6000FF2D00F0468541F09FF98DF8FC54F6E00A
:102B70000120AFE019990DF59F6808F10700B02218
:102B800018315CF0F6FC092041468DF830028CA823
:102B900042F0E8F8DDF860A0FFF721B85FF86808B8
:102BA0009B4616953546664636F0D2FD5046314670
:102BB00042464B463EF08AFB169B284621465A4623
:102BC0003EF084FB36F02CFF42F0CEFC40F2034096
:102BD000ADF83402FEF7FABF9DF8721341F006F922
:102BE0000A0700F1B3830320B6E341F0AEFA199D62
:102BF000032004218DF8FC04FF208DF8FD148DF8CE
:102C0000F80426E7DDF860A041F0F0F840F6034054
:102C1000ADF8FC04E1E3DDF864B002260DF16808CC
:102C20009BF81A119BF820419BF8080101F0030161
:102C300004F0030481F00101022884F0010408BFBC
:102C400001262143DDF860A0B1FA81F1D5E9002326
:102C50004909D5E90205039151468DE861004046D6
:102C600029F0CCF99DF8685008F102019DF86990AF
:102C700012229DF89160C6AC41F0C9F9022E40F0D5
:102C8000AE83BEA84ECCFF2D4EC0218801807FF4BC
:102C900094AADCE308F10800DCA941F011FE002051
:102CA000CDF8FC04072050E0DCAC5146204629F06A
:102CB000A2FA9DF89953FF2D40F0CE830DF5987C34
:102CC00094E86E0060466EC008F104009CE83E0087
:102CD0003EC0FF20199D8DF8F8043DE00DF5987970
:102CE00099E860031AA800F17004199890F81E0181
:102CF000002804BF82468346169908BF0146159AEC
:102D000008BF0246C4E9081B04F13000B968C4E9F1
:102D10000AA280E86003DCA800F0B6FFDDE9DE016E
:102D2000DDE9DC23C4E90023C4E90201CDE90001A7
:102D3000DCAC41F02DFF42F00BFC52D00DF59F684A
:102D400041F0B2F88DF8FC54FF208DF8F8040DF531
:102D50005C79199D9DF8F804FF2840F0918108F1F5
:102D6000040009F1040190E87C0012207CC14C466B
:102D7000199D8DF8700308F10400211D2EF0A0FBB1
:102D80000C20DAF828108DF8F8044346DAF83820D9
:102D90004CAC42F099F842F0B5F809D041F0DAFBBA
:102DA000DFF88C0E42F039FA41F09DFA36F038FE29
:102DB0001AACDCA9284642F038FA204629463FF0F2
:102DC000AAF8FF208DF8F8049DF86800FE2818BFC7
:102DD000A046179D98E81F001FC50DF29C6D41F09D
:102DE0000DB9E01D1AA941F005FB0A200DF59F68F9
:102DF00042F0E7F95CF0BDFBA9E7DDE910107022B5
:102E000041EA00484CA9DCA85CF0FFF8139A2802BC
:102E10002946149DDDF858B040EA126A1298C4E9B8
:102E200000B640EA0222280240EA11614FEA082077
:102E300040EA1568159D1392C4E9035220221291AD
:102E4000C4F80890C4E905A1C4F81C80DCAC04F106
:102E50009000C6A95CF08DFB04F12000129A8DE869
:102E60001108514643461398CDE90369059526F0AC
:102E70006BFE0446199890F80801022840F00E8372
:102E8000DFF8BC0D36F064FC41F05FFF36F0C8FDA2
:102E90000DF59F64DCA9E01D41F0ACFA0920214644
:102EA0008DF830028CA841F05DFFFEF78FBE1694BE
:102EB000D6A800F102080AF10401102241F0A8FC92
:102EC00082A84146841C41F025F80DF5087821467A
:102ED000102241F09DFC0DF55C791899424642F0B4
:102EE000C5FA42F035FB00F02A8399E85E005046AF
:102EF0005EC0DFF8500D36F02BFC41F0DCFF36F001
:102F00008FFD8CA8DCA90530013113220DF59F68D7
:102F10005CF02FFBFF208DF834528DF83002DDF885
:102F200060A0FEF757BEE01DDCA941F063FA09205E
:102F300021468DF830028CA841F014FFFEF748BE00
:102F4000BDF8FC949DF8F9845FEA897041BF199936
:102F500091F81C0140F0020081F81C015FEA8950E1
:102F600040F13584DAF83C30D3E902E1D3E90423B7
:102F700041EA030C4EEA020050EA0C0000F0108413
:102F8000CDF8F8E4CDF8FC14CDF80025CDF80435E3
:102F900000F00FBC16F80A00A7F12C0180F08000A9
:102FA00006F80A0040462EF017FBDDF860A000206E
:102FB000DDE912B5102804D018F8001041F043FAEA
:102FC000F8E70DF59F680DF59F6031463EF080FFF4
:102FD0000FCE00BAC19008BAC09010BABF9018BA0C
:102FE000BE90C6A800F11001BEA83EF009FF0DF189
:102FF000380EDDF844C000289EE8104200F07681CB
:1030000042F0B2FA40F20340ADF83402FEF7E2BDFE
:103010000B209FE30DF59F6ADCA90AF108006022EE
:103020000AF168085BF0F1FF169808F10C01C8F886
:10303000000030221598C8F804001498C8F8080059
:103040001398C8F81C90D04681E851080AF188000E
:103050001AA95CF08EFACDF8FC5408208DF8F8041B
:10306000DDF860A073E60E2006E0DFF8AC0B36F06A
:103070007BFB10200DF59F680DF55C798DF8F80449
:103080004C460DF59F69DCA8C82249465BF0BDFFA0
:103090009DF8700312283FF46EAE1AAC11287FF42D
:1030A00088AE95F8F980B8F1020F04D1DFF8780BFB
:1030B00036F05AFB73E095F81A0100F0030001287E
:1030C00002BF95F8200100F00300012804D095F814
:1030D000F8C04FF0020831E04CAE05F1D00B51467C
:1030E00030465A4629F02DF841F00CFF0CD096E8F6
:1030F0003E0048463EC0DFF8280B42F08EF84846B6
:103100003EF0E4F936F08CFCDBF8000005F1E00C51
:1031100016900DF1680EDBF8040014907446DBF88D
:1031200008001590DBF80CA0AB469CE86F006FC45C
:103130007446DDE9142116989BF8F8C0CDF80425F3
:103140002246CDF8000509F1180E8DF8F9C4CDF826
:103150000815CDF80CA592E87B008EE87B000B20CB
:103160004B468DF8F80418988DF829858DF828C5F8
:10317000816A826B4CAE42F064F941F0C3FE0CD020
:1031800096E83E0048463EC0DFF8980A36F0E0FA7E
:1031900048463EF09BF936F043FC1AAC199D0DF5FC
:1031A0009F6806E640F022FE002800F025820A20F3
:1031B00042F024F8DAF83820D6AEDCAC41F091FDCC
:1031C0009DF85853FF2D40F0B681A01D1AA941F07B
:1031D00011F906202146ADF8F80408F11200B622D4
:1031E000C3E208F107001AA9B0225D465CF0C1F9FC
:1031F00003200DF59F628DF8F804501C414690465F
:10320000B7225CF0B6F9A5E50020CDE98400CDE950
:1032100082000DF59F6682A9304603F0D3F942F093
:1032200093F946D14CA8311D00F10309102241F059
:10323000BCF9D6AE494640F018FC0DF59F685146E2
:103240003246404628F0A6FE42F07EF940F06B81FF
:103250002068C10700F073826168000A0DF59F665F
:103260000A0E8DF8F6210A0A40EA01607C90ADF85A
:10327000F4217CA9304603F0EFF99DF8F8540DF5E0
:103280009F68FF2D15D1311D484640F098FFBEAE16
:10329000494640F0EAFB0DF59F6451463246204610
:1032A00028F078FE42F050F940F010841999FFF7A9
:1032B0006CB9711C4CAE132240F0A3FEC6A81ECE02
:1032C0001EC041F012FF3DE28CA80DF59F61083051
:1032D00041F0F6FA8D940520FFF7D6BADDE9C6CEA7
:1032E0000DF59F68DDE9C894DDF860A04CA8149E38
:1032F00090301BF0010104BF0E460D46169A08BF20
:103300000A46159B08BF0B4600F10C0180E86400DB
:10331000B022C0E9069408F1070081E808504CA9E2
:103320005CF027F9082041468DF830028CA8013066
:10333000B7225CF01EF9FEF74DBC42F03DF849465D
:103340008CA891E87C0004307CC002E29DF87323D5
:103350000F2A00F2BA8106208DF8FD040320FFF742
:1033600062B8B8684C1C00901AAEDCAA2146304600
:103370005346FDF7E9FD9DF868500DF55C79FF2D8A
:1033800024D108F10800DCA941F09AFACDF8FC44F8
:1033900099E1DFF86C0836F0DBF941F0D6FC36F045
:1033A0003FFBDDF860A009208DF87003DD9441F04B
:1033B000E4FA4CAEDCAC41F094FC9DF830510DF5D4
:1033C0009F680DF55C79FF2D00F0C88108F10500BC
:1033D000711C40F019FE8DF8FC54FF20A2E208F1A8
:1033E000140C16960DF59878BCE84F00C646AEE86A
:1033F0004F009CF800008EF80000BDF89600ADF874
:103400000C02DDF8920082901AA94DCC8C46ACE8F3
:103410004D0012222088ACF800000BF1D2008BF88E
:10342000D1908BF8D0505CF0A4F8B8E83E000BF1D6
:10343000E4003EC016998BF8F91098F8001001705E
:103440008298CBF8FA00BDF80C02ABF8FE000C2015
:103450000DF59F68FEF7BEBE4CA8DCA929225CF0E2
:1034600088F8DDF89A03022DC690BDF89E03ADF8EA
:103470001C0300F0AE834CA9199C292204F1D00052
:103480005CF077F8C698C4F8FA00BDF81C0384F81D
:10349000F9502546A4F8FE000D201CE4DFF89C0737
:1034A00036F056F941F051FC36F0BAFADDF860A07A
:1034B0000920CDF8FC440DF59F6441F042FA234603
:1034C000DAF83820BEAE41F0BCFF9DF8F8520DF599
:1034D0009F68FF2D00F04D818CA8711C053040F0D5
:1034E00093FD8DF8345234E14CA8211DC61C40F0E8
:1034F000BCFAC6AC314640F00DFD0DF59F66514655
:103500002246304628F046FD9DF8F8440DF59F68A8
:10351000FF2C00F03A818CA8711C053040F074FD3E
:103520008DF8344215E108F10101C6A840F06CFDA8
:1035300006E10DF59F6808F10500711CEDE14CA94D
:10354000484640F00DFD09F12004C6A9202240F0B4
:103550005EFD169812228DF8B303BDF80402ADF893
:10356000B0039DF806028DF8B20309F145008DF80D
:10357000B4637CA95BF0FDFF09F1570079A941F024
:10358000DAFA584650215BF09DFF19990DF59F68B6
:1035900091F80801023838BF0220C0B2022800F0BA
:1035A000C581DDF860A0032840F0F8810F200DF5FB
:1035B0009F6541F0C6F92B46DAF83820D6AE41F0C7
:1035C00040FF9DF85843FF2C40F06582E81DDCA9C0
:1035D00040F010FF07202946A6E605200DF59F685C
:1035E0008DF83402FF208DF83002DDF860A0FEF780
:1035F000F3BA199D012041E506F190001690E548C7
:1036000040F2FF18D7F808A04FF0FF398346504624
:1036100032F055FE044650460E4632F050FEDE4D66
:103620000023A0FB0502E1FB0523A4FB0541A6FB4B
:10363000056576184FF00001454152F1000253F143
:10364000000024EA080341F10001BBEB030379EB1E
:10365000060379EB050379EB0202D8D3169C00220E
:10366000DDF860A004F1100384E8070083E8070098
:1036700008218DF87013DA60E260DD9041F07DF989
:10368000D6ACDCAB41F020FC9DF858530DF55C79CD
:10369000FF2D40F03D81B86800210090DCAC1AAAF3
:1036A000534620460026FDF74FFC9DF870530DF55C
:1036B0009F68FF2D40F02E8108F108001AA941F003
:1036C000FFF8CDF8FC6407202CE185F8201105F502
:1036D0008F7185F81E0105F58C70BDF874339DF867
:1036E0007143A5F8223185F8212185F81F413FF06B
:1036F00095FE85F80801DFF8100585F8091136F008
:1037000027F841F00AFA36F08BF9DAF82C104CA8B9
:1037100040F026FCDAF83010DCAE402240F071FCBC
:103720000DF168083146404602F0A4FE41F0E1F98F
:1037300000F07A810A2003248DF819039FE1052502
:103740000DF59F688DF834528CA80530C6A940F05D
:103750005BFCFF208DF83002FEF73CBAE01D1AA991
:1037600040F048FE052041F02CFD5BF002FFFFF722
:10377000F0BAA01DDCA940F03DFE03202146ADF8C3
:1037800030028CA81230B622D3E5129C132C40F0E4
:103790008881F01DDCA940F02DFE09203146C3E5EB
:1037A0000020CDF80405CDF80005CDF8FC04CDF8D7
:1037B000F804DFF868140DF59F6029F099FF30B127
:1037C000199991F81D0140F0020081F81D01199826
:1037D0000C2180F82051054680F81F8105F58C7872
:1037E000A0F8229180F8216180F81E4190F819011B
:1037F000032808BF0821DAF8380090F8702390F801
:103800007133881885F81A0105F58F7013B10121FD
:1038100088F8001041463FF001FE85F80801DFF806
:10382000340485F8091135F093FF41F076F936F04C
:10383000F7F80DF59F60012102F0A6FD41F084FE2E
:103840003FD19DF80865DDF80445BDF80905ADF8E0
:10385000180331469DF80B058DF81A032046DDF854
:10386000FC94DDF8005524F0E1F940F021FF4046DA
:103870001A463FF081FEC0B2022844D1CDF8F89438
:103880000DF59F68BDF818030DF55C79ADF80505D9
:1038900051469DF81A0342468DF8070548468DF8B3
:1038A0000465CDF80045CDF8FC5428F073FB41F0D9
:1038B0004FFE59D10DF59F6801208DF83002FEF7BB
:1038C0008EB99DF808259DF8FB048DF88023DDF85E
:1038D00004258DF87303BDF8F904DF92DDF80025A7
:1038E0009DF80B15ADF87103BDF80905DE92DDF802
:1038F000FC24ADF830018DF83211DD928DF8831380
:10390000ADF881033BE0484641F0CFFA052536E0AB
:103910000DF59F6808F10500611C40F075FBFF2064
:103920008DF8FC548DF8F804FFF713BADDF860A0A9
:1039300091F80901002800F0CE800A200DF59F655E
:1039400040F0FFFF2B46DAF83820D6AE41F079FD83
:103950009DF85843FF2C40F09E80A81DDCA940F044
:1039600049FD042029460AE799E85E0040465EC00A
:10397000B94835F0EDFE40F0B6FC36F051F8DCA960
:103980008CA80530013140F03FFB8DF83452FEF732
:1039900009BE00BFFFC5FCFF40420F00B9680BF134
:1039A000100000F071F9DBE906010025DBE90423D2
:1039B0008DE803020DF59F60CDE9034526F086F8FA
:1039C000DDF804150DF59F68DDF8F824DDF8FC340A
:1039D000DDF80005CBE90201CDE900014046CBE965
:1039E000002302F0FBFC9DF8F844FF2C62D182A872
:1039F00008F10401C61C40F038F888AC314640F0AC
:103A000089FA0DF556795146224641F02FFD9DF871
:103A10005843FF2C7ED108F10700DCA940F0EAFCF6
:103A200002204146FFF785BABEA808F10401861CB2
:103A300040F01BF8D6A83146841C40F06BFA0DF517
:103A400002792146102240F0B0FD51460DF5467A2C
:103A50004A46504628F09EFA9DF81843FF2C40D065
:103A60009AE86E0040466EC0684835F071FE40F03E
:103A70003AFC35F0D5FFDDF860A00DF55C79C6A9FC
:103A80000DF59F6808F10500013140F0BDFA8DF891
:103A9000FC44FFF764B98CA8711C053040F0B4FAFF
:103AA0004BE08CA8DCA9083040F00AFF601C8D9028
:103AB00005204FE682AD08F10101132240F0C6FA5D
:103AC000D6AE2946701C40F09FFA2FE0611CC6A8B4
:103AD00040F09AFA36E6DAF8000090B3DAF804100B
:103AE00048E008F103004CA940F03AFA0DF59F6454
:103AF000DCA904F1240040F0A2FD022041468DF82B
:103B0000F804601C2322A0465BF033FDDDF860A0C2
:103B1000FEF79FBF99E86E0040466EC04C4835F0F6
:103B200017FE40F0E0FB35F07BFFD6AE8CA8711C91
:103B3000053040F069FA0DF59F68FF208DF834429A
:103B400008E6BE682F4C414DD6F80001402807D347
:103B50003046002124F084FED6F80001402846D2E9
:103B6000421C56F82000C6F80021A0FB0401A84220
:103B70001046EBD80BF1400000260BF13002CDF8D7
:103B8000FC14C0E900160DF59F63C0E90266082029
:103B9000C2E90016C2E9026640F0D3FEDAF8382026
:103BA000D6AD284628F0A4FA9DF858438CA8FF2CDF
:103BB00005D10830DCA940F083FE8D9678E705300A
:103BC000691C6BE71B4B00E00B4B0120072134F015
:103BD0007BFF0F4835F00EFC144A06E01F4A04E054
:103BE000154A02E00B4A00E0044A3FF0CFFE164AB5
:103BF000402134F0AFFF00BF5420070044200700ED
:103C00008F00000040420F0090000000E50100001E
:103C10003420070024200700D4010000E04D0700F5
:103C2000E8010000DE010000EA01000014200700A6
:103C3000E001000054830700448307008E00000069
:103C40008C000000E6010000DC4B07007F3DF1FF27
:103C5000E201000091000000DB010000F41F0700FA
:103C6000D0B502AF92B0BC688DF81020FF228DF85D
:103C70000420CDE902343A69FB68009201AAFDF7FD
:103C8000A9FC12B0D0BDD4D4F0B503AF2DE9FF0725
:103C9000DFF8949000260D468046EA46CDE902669C
:103CA000CDE900660F2E1ED8D5F80041402C07D371
:103CB0002846002124F0D4FDD5F80041412C2AD219
:103CC0003046514610224B463DF05FFA02460B4605
:103CD00005EB8400C4F1400137F012FC2044C5F824
:103CE00000010E44DEE704A89AE81E001EC004ABE3
:103CF00040F0D2FA1FBFA8E80F0008B0BDE80007E7
:103D0000F0BD084835F024FD04A83DF07BFD35F0FA
:103D100087FE35F0D3FD054B20464021402234F08C
:103D2000D3FE00BFF0010000988A0700CC4B0700CB
:103D3000D0B502AF04460A4835F0E9FC2078FF28E8
:103D400006D040F049FA2046BDE8D0403DF0BEBB69
:103D500040F01AFB6068BDE8D04036F063BF00BF9A
:103D600018030000D0B502AF04460A4835F0CFFC76
:103D70002078012806D140F02FFA6068BDE8D040D5
:103D800036F050BF40F000FB6078BDE8D04033F023
:103D90005FBC00BF19020000D0B502AF0446044862
:103DA00035F0B5FC03492046BDE8D04035F0F4BC01
:103DB0001500000014510700F0B503AF4DF804BD25
:103DC0000446764835F0A3FC2578FF2D15D140F048
:103DD00003FA784835F09BFC2579FF2D26D140F079
:103DE000FBF9794835F093FC207A35F0CBFC6089FB
:103DF00035F08DFCD4E90301B5E00020002635F054
:103E0000C1FC674835F083FCB5F10A0098BF304625
:103E1000E0B1012829D140F0DFF9634835F077FCA3
:103E2000A08935F074FCD4E901019CE040F0ACFAC3
:103E3000614835F06CFCDFE805F005432332215082
:103E40005B415F0040F0A0FAE08811E040F09CFA8E
:103E5000564835F05CFCDFE805F0066A575C517A9D
:103E60008C6096538E00002062E040F0C8FC4D4804
:103E70005DF804BBBDE8F04035F049BC04202DE0FE
:103E800040F0BDFC4D4835F042FC4D48257D35F0F5
:103E90003EFC681E18BF012035F074FC15E040F0B0
:103EA000EFFF607935F06EFC208935F030FCA079A9
:103EB0005DF804BBBDE8F0403DF0ACBB072018E066
:103EC00040F08AF93F4835F022FC04F108005DF823
:103ED00004BBBDE8F0403DF011BC052035F052FCBC
:103EE00004F108005DF804BBBDE8F0403DF0F6BB0E
:103EF000062035F047FC34E0082048E0042004E0C8
:103F0000092035F03FFC8EE7022035F03BFC60884D
:103F1000AEE740F0B5FF608883E7072035F032FC5C
:103F2000608835F0F4FBA08835F0F1FB19E0012042
:103F300035F028FC608A35F0EAFBA08A35F0E7FB13
:103F4000601C5DF804BBBDE8F0403DF0E9BB052016
:103F500035F018FC6088164DA847A088A847E0886F
:103F6000A847D4E902015DF804BBBDE8F04036F093
:103F700021BD062000E00A2035F004FC608835F001
:103F8000C6FBA08874E7082035F0FCFB60785DF87C
:103F900004BBBDE8F04035F0F5BB00BF15030000E1
:103FA00027030000160300002E0300002403000076
:103FB0000F970400280300001B0300001D030000EE
:103FC0002D0300001C03000022030000D0B502AF47
:103FD0000446104835F09BFB2068023838BF0020AB
:103FE000DFE800F00210090B40F0CEF92046BDE8F2
:103FF000D04038F087BA022000E00320BDE8D0406E
:1040000035F0C0BB40F0E8F82079BDE8D04038F08A
:104010001DBA00BFED020000D0B502AF044604484F
:1040200035F075FB2046BDE8D0403BF013BB00BF28
:10403000E2020000D0B502AF04460D4835F067FB40
:1040400021780C48DFE801F00F030A0C050E0D483B
:1040500009E0042035F096FB601C04E0084802E00B
:10406000064800E004480078BDE8D04035F08ABB3F
:10407000EC02000031040700E58C070064830700B0
:104080001C820700A8800700D0B502AF0446044890
:1040900035F03DFB2046BDE8D04032F0B1BA00BF5C
:1040A00017000000D0B502AF04460A4835F02FFBD8
:1040B0002088012809D140F08FF8074835F027FB08
:1040C0006088BDE8D04033F043BA0020BDE8D0405E
:1040D00035F058BB1100000017020000D0B502AF48
:1040E0000446044835F013FB2088BDE8D04033F087
:1040F0002FBA00BF17020000D0B502AF0446044833
:1041000035F005FB2046BDE8D0403BF0AFBC00BF1A
:1041100004030000D0B502AF0446044835F0F7FAB6
:104120002078BDE8D04035F02DBB00BF180000005E
:10413000B0B502AF0546044840F0BFFB2846214613
:10414000BDE8B04035F0A8BB03000000D0B502AF19
:104150000F4A9269BFF35F8FA2B1526801230144F5
:104160001360002388420AD0D2F80041002CFBD013
:10417000C2F80031D2F8084500F8014BF2E70120FF
:104180005060D0BD034835F0EFFA35F097FB00BF23
:10419000FCE203208A010000F0B503AF2DE9000F17
:1041A000B1B0054688680024884600288C6050D04D
:1041B000D8E9046B0A90B868D8F80C100028089564
:1041C000099150D03046594627F006FA2BAC3FF003
:1041D0007CFD3EF0FFFC2D980E3405900A222C98B1
:1041E000214606909DF8AD00BDF8B8A0BDF8AE50D0
:1041F0009DF8AC90079017A85BF0BBF9B9F1FE0FE2
:1042000000F0A08117A9204640F070FE0598B9F192
:10421000FF0F2D9006982C900798ADF8B8A0ADF838
:10422000AE508DF8AD008DF8AC9000F09781012272
:104230000020B9F10A0FA9F10B0188BF52FA81F0F1
:10424000002800F0C080012800F0CA804FF0000A6A
:10425000C6E098F80410D8F800002DF0B2FAAC606F
:10426000297128601DE130465946CDE9062327F023
:10427000B3F92BAE40F01CFA30461A463EF0AAFCC9
:104280000DF15C0BB11C16229DF8ACA058469DF8B0
:10429000AD905BF06EF9BAF1FE0F00F0588159460F
:1042A00011A87CC97CC016220988018059468DF866
:1042B0002D908DF82CA00BA802305BF05AF9BAF1C2
:1042C000FF0F00F050818DF85D900BF102008DF82A
:1042D0005CA011A9162216245BF04BF92BA83FF025
:1042E000D7F82B9D002D69D0DDE92CA1FB200DF125
:1042F000AC0B0422CDE91D1000201F9058460391FD
:104300001DA94FF004093DF0D1FA2B9E9DF8B04055
:10431000002E00F0B3800BF105010DF1980B132274
:10432000CDE9045A58465BF024F9DDF89B100DF1F5
:104330008C0922910BF1070126980C22CDF88500FB
:1043400040F033F9D8F8005098F804A0D5E90001FE
:104350008DF884405246209625F01CFB1FFA80FB06
:1043600048463DF00BFB864B02460E468B4528BF68
:104370008B461146584632463DF0F6FACDE900012B
:104380002BA817AB0699079C4246A0479DF8AC00A6
:10439000FF2800F08980089E9DF8AF1006F10805FF
:1043A000F171BDF8AD10A6F805102CAC30711ECC23
:1043B0001EC5DDE9045A002030606AE0089900203B
:1043C00008600C7169E0B9F10A0F3FF63FAF0120B8
:1043D000AA4600FA09F040F20C4108423FF436AF19
:1043E0003046594627F0F8F8002900F0C68098F8C2
:1043F0000450D8F800600DF15C080078ADF860A0BA
:104400000DF12C0AF9682A468DF85D0003208DF81D
:104410005E1031468DF85C005046434600F0BCF813
:104420009DF82C40FF2C0BD011AD0AF10101132295
:104430003FF00CFE089E29463FF043FE00251AE09F
:1044400011A80AF10401C41C3FF064FD0DF12C0A0F
:104450002146102240F053FC304629462DF0B1F998
:10446000054608F103000C4651463FF0A8FE089EA1
:1044700041463FF026FE347135600EE00899012078
:10448000487100200860E00718BF4FF00D0981F85F
:104490000490284651463FF045F8DDE909103FF009
:1044A00041F831B03FF0AABD089E2C98012809D1EF
:1044B000DDE924212D98521A82420ED24FF48270E7
:1044C000B08076E7284651462DF07BF90022317105
:1044D0003060B260DDE90401DDE70C1820A8D146A8
:1044E000AB4621463CF00CF8DDE9045AC0B2022884
:1044F00016D120A804214FF004083CF001F8C0B206
:10450000022816D122984946044458462DF059F9FC
:10451000039AC6E9025AC6E9042431713060BCE747
:104520000121C00771714FF0040018BF0D203071D8
:1045300041E701217171C00718BF4FF00D0886F8DF
:10454000048038E7134835F003F9079803E00E4874
:1045500035F0FEF848463DF08BF80AE00C4835F09F
:10456000F7F82BA803E0074835F0F2F80BA8FFF79F
:1045700023FC35F055FA35F0A1F9044A3FF006FA6C
:10458000C8210700FD01000002020000D821070039
:10459000FF01000003020000F0B503AF2DE9000F9A
:1045A0009BB0044615A8984691460E463EF070FF13
:1045B000159D002D64D016980DF1540B0690FB202C
:1045C00017990422CDE907100020059404240990CE
:1045D0005846CDE90369019107A93DF067F9DDF877
:1045E00054A09DF85890BAF1000F57D0029510AC26
:1045F0000BF105013FF014FBDDF843100C2210987D
:104600000C91E11DCDF82D000DAE3FF0FAFC8DF8B8
:104610002C900BF10400CDF828A098E83E003EC095
:104620005946FF208DF854003046FBF781FEC0B29A
:10463000022828D10398049AD0E9000125F0AAF9AC
:104640000F9D80B2A84238BF05460AA829463BF014
:1046500057FFC0B2022816D10AA804213BF050FF30
:10466000C0B202280FD1059AFF20029910700C9851
:1046700051600699284491600199C2E9031019E03C
:104680001620207016E00121059AC0074FF00400A3
:10469000517018BF0D20029D107007E00599012090
:1046A00048705FEAC97018BF0D240C70069928463F
:1046B0003EF038FF1BB03FF0A1BCD4D4F0B503AF3F
:1046C0004DF804BD06461B480068C0052AD11B48AA
:1046D0001B4925F00AFB054690F840000C460128CE
:1046E00004BF05F1380024F006FF286BC0B195F82F
:1046F0004010E1B9D5E90E12002A05EBC203986417
:1047000083F8446018BF0132EA63914204BF01207C
:1047100085F840003FF081F905F1080037F07AF99B
:104720003FF023B9044835F01FF835F0C7F80548C5
:1047300034F060FE04ED00E08E010000C8DE0320CE
:104740005872070080740700F0B503AF4DF804BD40
:1047500084B006461A480068C00529D11A481B498A
:1047600025F0C3FA40F017FE04D105F1080101A8B5
:1047700024F0ECFE686EB0B1297CF1B9D5E90212E3
:1047800005EBC2039861501C821E1E7518BF0246BD
:10479000EA60914204BF012028743FF03EF905F120
:1047A000240021F007FF3FF003FD04B03FF0A3BC5D
:1047B000044834F0D9FF35F081F8054834F01AFE8A
:1047C00004ED00E08E01000078DF0320587207003E
:1047D00080740700BFB506AF0168DFE801F0041F71
:1047E000191B17252C1DD0E90101CDE9010101A8F4
:1047F0000390274834F0ACFF264834F088FF264960
:1048000003A834F0C9FF35F00BF9BFBD1D4806E021
:104810001D4804E0164802E0164800E01B4804B0BA
:10482000BDE8B04034F0A0BF4468154834F090FFB4
:104830003FF0B5FE18E0D0E901540F4834F088FF8E
:104840000E4834F064FFDFE805F0020C0406002097
:1048500008E0022006E040F013FB204635F014F893
:1048600002E0012034F08EFFBDE8BF4035F0D8B83B
:10487000B6010000AA010000AC0100001203000014
:104880009301000092010000B2010000B30100009A
:10489000A30100001500000024510700F0B503AF8C
:1048A0004DF804BD856804686DB14268C66804F1BE
:1048B0000800531B00EB4211B21A00EB43105201E7
:1048C00059F08EFF00E0C668701B20603FF013BCFB
:1048D00080B56F4618B1BDE880403EF023BE80BD74
:1048E000F0B503AF2DE9000F89B0818A022942D0CB
:1048F0002649D0E900A980680968C90540D1254941
:1049000025F0F3F93EF0B3FF3FF07FF831D3E946ED
:104910004146484624F033FE40F086FA04D0411E5A
:10492000684631F025FE40B13FF085F93FF0D7FFF2
:1049300010B13FF051FFF9E7564600206C46D5E92B
:104940000E12891A18BF012140F04BFD0BD0A96C43
:1049500049B92046414637F0F6F89DF80000FF2897
:104960000BD00120EBE7C0071CBF05F1240037F096
:10497000B9F83FF08FFE3FF00DB8074834F03AFD2C
:10498000034834F0F1FE34F099FF00BF04ED00E07D
:104990008E010000803F070064480700F0B503AFB8
:1049A0002DE9000F89B0016900294FD02C49D0E9C9
:1049B00000A980680968C9054DD12B4925F095F9F2
:1049C0000546D0E90046C06C40F001FDE864584659
:1049D00021F066FB3FF0A2FA36D3E9465946484635
:1049E00024F053FD40F020FA04D0411E684631F017
:1049F000F4FD50B105AC3FF008FA204627F0A6FAC6
:104A000018B1816801398160F7E700206C46D5E96B
:104A10000212914202D12A7CD2070FD001EB410150
:104A200005EB8101C96949B92046594637F03FF87D
:104A30009DF80400FF280BD00120E8E7C0071CBF49
:104A400005F1400037F04EF83EF027FF3EF0A2BFE0
:104A5000064834F0CFFC034834F086FE34F02EFFD5
:104A600004ED00E08E010000803F0700644807006D
:104A700080B56F46016819B1BDE8804000F018B9F3
:104A800080BD80B56F46C24312061CBFBDE88040A2
:104A900001F0C7BA80BDD4D40168426C8A429EBF7F
:104AA00000210160704780B56F46024B10460A46F0
:104AB00034F00AF8645107000168426B8A429EBFD5
:104AC00000210160704780B56F46024B10460A46D0
:104AD00033F0FAFF6451070080B56F46C0B2BDE8FD
:104AE000804057F0F3BAD4D4F0B503AF4DF804BD0D
:104AF0000A46064640F0DDF80C461249054606F522
:104B000076703BF07BFD0E4695F85E13A1B101393E
:104B100085F85E13090604BF95F85C13042903D0D9
:104B20003FF0B8FD3EF021BF103041F20131A5F851
:104B30005C1335F0D7FAF3E7034834F015FE34F090
:104B4000BDFE00BFC44A0700FA01000080B56F46F1
:104B5000014640684A7A00F5B7601AB1BDE8804066
:104B600021F005BB097ABDE8804021F0E4BA80B5A8
:104B70006F4680BDB0B502AF456865B10289006877
:104B800040F09BF838B10C46D0F84013294440F06F
:104B900057F83FF00DFBB0BDF0B503AF4DF8048DF5
:104BA000044601790068FFF79FFF41F29010261834
:104BB000215875688D4208D1307AC00705D100218F
:104BC0004FF00408042000250FE041F29C1004EB94
:104BD000000801EB81008D4208EB800091BFC1F11C
:104BE0000101691A00254FF0040801F051FA40460E
:104BF000294601F04DFA316A11B1706AC9688847D7
:104C0000B16A11B1F06AC968884704F108005DF81B
:104C1000048BBDE8F04000F0E7B9B0B502AF88B052
:104C20000446D0E9062043690020009002AD2146E9
:104C30002846FFF7B1FA2846FFF71AFF204608B0CA
:104C4000BDE8B04000F078B8F0B503AF4DF804BD52
:104C5000066804460579D6E900012A4624F0C9FE13
:104C6000D4E902010A6921469047304629465DF899
:104C700004BBBDE8F040FFF737BFB0B502AF88B066
:104C80000446D0E906204369012194F82000CDE9CB
:104C9000001002AD21462846FFF77EFA2846FFF7AE
:104CA000E7FE204608B0BDE8B04000F045B8D4D4D7
:104CB000F0B503AF2DE900078AB0D0F800A0044694
:104CC00086680020A06036B304F10C000DF11408D2
:104CD00008F1080190E82C002CC194F80490DAE95E
:104CE00000014A4639F000FD0A68B0F85803013A5D
:104CF0000A600AF57E71ADF81400684642460696D1
:104D000023F082FD019840B102993EF00BFC094866
:104D100034F02AFD01E094F8049050464946FFF72C
:104D2000E3FEE16800200AB0BDE80007BDE8F040FE
:104D3000FFF7CEBD35010000D0B502AF0446D0E983
:104D40000201FFF7C5FD21792068BDE8D040FFF7DB
:104D5000CBBED4D480B56F4602C8DFE801F00202B2
:104D60000206BDE88040FFF758BFBDE88040FFF76E
:104D700084BFD0B502AF24F04DFD68B10C4690F869
:104D80006F130022012980F86F2304BF00F51E7005
:104D900035F0A8F93FF00CFAD0BD80B56F4600F5AC
:104DA000B7600021BDE8804021F0C5B980B56F46ED
:104DB00000F5BD600021BDE8804021F0BCB980B5A0
:104DC0006F4600F5BA600021BDE8804021F0B3B91C
:104DD00080B56F46017B052918BF032904D1143023
:104DE000BDE8804000F088BC80BD80B56F4690F87B
:104DF000441031B1032918BF80BDBDE88040FFF7E2
:104E0000A5BE3830F9E7D0B502AF0446D0E90001BD
:104E1000084304BF207B032808D0D4E932010843AB
:104E200004BF94F8D40003280AD0D0BD207E062801
:104E30000ED00428F1D104F12000FFF7C9FFECE700
:104E400094F8E800062808D00428EED1282005E0D0
:104E500004F1200000F050FCDFE7182004F1D80135
:104E60000844BDE8D04000F047BCD0B502AF0446CE
:104E700090F84C0A032805D040B904F56A70FFF792
:104E8000C2FF03E004F5A56000F06FF8D4F8B802A3
:104E900038B994F8CA02042804BF04F5337001F04D
:104EA0007DF8D4E90C01084306BF94F844000328B8
:104EB000D0BD04F15000BDE8D04000F00FBBD0B52C
:104EC00002AF044690F83B0003280FD0042805D019
:104ED00005280ED1D4E91101FFF7FAFC94F83A0045
:104EE000012804BFD4E908013EF01CFB002084F82F
:104EF0003A00D0BDD0B502AF044690F8280503288B
:104F000004BF04F59A60FFF7DAFF94F8A7020338AC
:104F100004281AD8DFE800F003150D10080004F586
:104F2000307000F0E0FF10E004F52A7000F018FD8A
:104F30000BE004F52A7006E004F5327000F033FC53
:104F400003E004F5307000F00FFC94F82200042810
:104F500006D0032818BFD0BD04F1280000F02EFCB5
:104F600007CCBDE8D04000F03BB9D0B502AF044655
:104F700090F8B602042805D005280DD104F52E704E
:104F800000F086FF94F8B50218B104F5E070FFF761
:104F9000E1FE002084F8B50294F8BA03042804BFA7
:104FA00004F5707000F00AFC2046BDE8D040FFF721
:104FB0002ABFD4D4D0B502AF0446006848B9002057
:104FC000207340F0DDFA201D35F08CF83FF0F0F84A
:104FD000D0BD044834F0BCFB3BF0FEFA34F020FDB9
:104FE00034F06CFC73010000D0B502AF0446103001
:104FF00024F083F941F27C0020443AF07EFA41F239
:1050000088002044BDE8D0403AF077BA80B56F46BA
:1050100090F87510042918BF80BDD0E90010C96848
:10502000BDE88040084780B56F460168012918BF78
:1050300080BDD0E90110C968BDE88040084780B54F
:105040006F4690F87510032918BF80BDD0E9001095
:10505000C968BDE880400847F0B503AF2DE9000FEF
:1050600089B0824629480068C0054AD18946294945
:105070003FF01DFD0546D0E90046406D40F0A7F920
:105080006865584620F0D4FF3EF048FF32D3E94629
:105090005946484624F06AF93FF0C6FE04D0411E46
:1050A000684631F065FA40B105AC3EF0AEFE3FF027
:1050B00016FC10B13FF090FBF9E700206C46D5E9F3
:1050C0000212914202D12A7CD2070DD005EBC10118
:1050D000896949B92046594636F086FC9DF800009A
:1050E00002280BD00120EAE7C0071CBF05F14000F1
:1050F00036F0A8FC3EF0D1FB3EF04CBC064834F044
:1051000079F9034834F030FB34F0D8FB04ED00E0CB
:105110008E010000803F070064480700F0B503AF30
:105120002DE9000F89B0824629480068C00549D1A1
:10513000894629493FF0BBFC0546D0E9004B806B0E
:1051400005F140080E460138A863404620F09AFF5A
:105150003EF05BFC32D3E9464146484624F068F90C
:105160003FF062FE04D0411E684631F024FA48B197
:105170003EF061FD204626F0D2FE10B13FF058FA15
:10518000F8E756460021D5E91002801A18BF012021
:1051900095F848201043C0070AD0E86C40B9404653
:1051A00024F061F901210028EDD10C4834F022F9F6
:1051B000C8071CBF05F12C0036F094FC3FF06AFADA
:1051C0003EF0E8BB034834F0CFFA34F077FB00BF81
:1051D00004ED00E08E010000803F070064480700F6
:1051E000F0B503AF2DE9000F89B08246234800686F
:1051F000C0053DD1894623493FF059FC3EF037FBBD
:105200003EF003FC30D3E9464146484624F05EF9BF
:105210003FF00AFE04D0411E684631F0A9F940B1C2
:105220003EF009FD3FF05BFB10B13FF0D5FAF9E726
:1052300056460020D5E90E12891A18BF012140F008
:10524000D0F80BD0A96C49B9404624F054F9C1B24A
:1052500001200229EED10C4834F0CCF8C0071CBF65
:1052600005F1240036F03EFC3FF014FA3EF092BB0C
:10527000034834F079FA34F021FB00BF04ED00E07C
:105280008E010000803F070064480700F0B503AFBF
:105290002DE9000F89B0824624480068C0053FD13F
:1052A000894624493FF003FC3EF0E1FA3EF0ADFBB5
:1052B0002FD3E9464146484624F008F93FF0B4FDB3
:1052C00004D0411E684631F053F940B13EF0B3FCC2
:1052D0003FF005FB10B13FF07FFAF9E7564600209A
:1052E0006C46D5E90E12891A18BF012140F079F8F1
:1052F00009D0A96C39B92046414636F00BFC00981C
:1053000058B10120EDE7C0071CBF05F11C0036F0C5
:1053100099FB3FF0BFF93EF03DBB074834F06AF817
:10532000034834F021FA34F0C9FA00BF04ED00E07C
:105330008E010000803F070064480700F0B503AF0E
:105340002DE9000F89B0824628480068C00548D181
:10535000894628493FF0ABFB0546D0E90046406E40
:1053600040F035F86866584620F062FE3EF0D6FD03
:1053700030D3E9465946484624F0D3F83FF054FD6F
:1053800004D0411E684631F0F3F840B105AC3EF060
:105390003CFD3FF0A4FA10B13FF01EFAF9E70020FF
:1053A0006C46D5E90212914202D12A7CD2070BD079
:1053B00005EBC101896939B92046594624F0C6F880
:1053C000009858B10120ECE7C0071CBF05F1500060
:1053D00036F038FB3EF061FA3EF0DCBA064834F0B5
:1053E00009F8034834F0C0F934F068FA04ED00E03D
:1053F0008E010000803F07006448070080B56F46BB
:1054000009490968C9050AD1094924F06EFCD0F898
:10541000B020013AC0F8B0203EF029FE80BD03481C
:1054200034F0A2F934F04AFA04ED00E08E010000F5
:10543000703F070080B56F4609490968C9050AD160
:10544000094924F052FCD0F8E820013AC0F8E820DD
:105450003EF00DFE80BD034834F086F934F02EFA9C
:1054600004ED00E08E010000703F070080B56F463C
:1054700090F88810032918BF80BD2C30BDE880400B
:1054800000F07FBD80B56F4690F8C810032918BFA3
:1054900080BDBDE8804000F02FB980B56F4690F820
:1054A000C510032918BF80BDBDE8804000F024B9B5
:1054B00080B56F4690F8C210032918BF80BDBDE8C3
:1054C000804000F019B980B56F4690F8C1100329EB
:1054D00018BF80BDBDE8804000F00EB980B56F46B2
:1054E00090F86412032918BF80BD2030BDE88040C9
:1054F00000F0DEB880B56F4690F8A610032918BFFB
:1055000080BD1C30BDE8804000F063B880B56F46B8
:1055100090F8EC10032918BF80BD1830BDE880401A
:1055200000F00CB880B56F4690F8F810032918BF4A
:1055300080BD2430BDE8804000F000B880B56F46E3
:1055400090F84410032908D0042918BF052909D16F
:105550004830BDE8804000F014BD4830BDE88040D0
:10556000FFF784BF80BD80B56F46817F0339012975
:1055700088BF80BD2430BDE8804000F02AB8D4D474
:1055800080B56F4690F823100339062988BF80BD87
:10559000DFE801F00B10060415041A0028300FE0B4
:1055A0002430BDE8804000F0C2B92830BDE880401A
:1055B00000F0B2B92430BDE8804000F073BB243065
:1055C000BDE8804000F09CB92430BDE8804000F088
:1055D0006AB9D0B502AF044690F82700042818BF76
:1055E000D0BD04F13C0000F034FCE06A228ED0E92A
:1055F0000001BDE8D040FFF7BCBB80B56F46417CE1
:10560000042918BF80BD4068BDE88040FFF7D2BCC8
:10561000D0B502AF044690F83500032809D004281D
:1056200003D0052818BFD0BD03E004F1380000F016
:10563000C5FB002084F83400D0BDD0B502AF0446CD
:1056400090F83500032804D0042807D0052818BF97
:10565000D0BD04F1380000F009F803E004F138008F
:1056600000F0ACFB002084F83400D0BD80B56F465C
:1056700090F85010063907290AD8DFE801F00A0F20
:105680000904091409045430BDE8804000F0F5B85D
:1056900080BD5430BDE88040FFF744BF5430BDE8C2
:1056A000804000F0D8B85430BDE8804000F0A7BB7F
:1056B00080B56F4690F87810052918BF80BD7C3002
:1056C000BDE8804000F0A1BC80B56F4690F8221084
:1056D000052918BF80BD2C30BDE8804000F0D6BA47
:1056E00080B56F4690F82010042918BF80BD243083
:1056F000BDE8804000F0B9BB80B56F4690F87C10E3
:10570000032918BF80BDBDE88040FFF7E9BF80B521
:105710006F4690F8FC10032918BF80BD1030BDE81B
:10572000804000F00BB880B56F4690F8E010032978
:1057300018BF80BDBDE8804000F00BB880B56F4653
:1057400090F8DE10032918BF80BDBDE8804000F04E
:1057500050BC80B56F4690F8D610032918BF80BDA5
:10576000BDE8804000F045BC80B56F4690F8201041
:10577000032907D0042918BF80BD2830BDE8804028
:1057800000F0BDBB3830BDE88040FFF7C0BF80B53A
:105790006F4690F8C010032918BF80BD1030BDE8D7
:1057A000804000F01ABC80B56F4690F8E2100329E3
:1057B00018BF80BDBDE8804000F089BB80B56F4652
:1057C00090F83410032918BF80BD3830BDE8804000
:1057D000FFF77ABFD0B502AF0446007A032804D0A1
:1057E000042804D16068FFF709FE00206072D0BD74
:1057F000D0B502AF0446C07A032804D0042804D1EF
:105800002068FFF717FE00202073D0BDD0B502AF8F
:1058100004464FF48F50205C033803281AD8DFE881
:1058200000F00214090F41F2E8102044BDE8D04016
:1058300000F070BB41F2E8102044FFF7BFFF04E026
:1058400041F2E8102044FFF755FB2046BDE8D04068
:10585000FFF7A2B9D0BD80B56F46017C032907D000
:10586000042918BF80BD1830BDE8804000F089BB16
:105870001430BDE8804000F000B880B56F46017C70
:10588000042918BF80BD1830BDE8804000F079BB06
:1058900080B56F46017F042918BF80BD2030BDE868
:1058A000804000F00CB880B56F4690F8581003297E
:1058B00018BF80BD0430BDE8804000F056BB80B505
:1058C0006F4690F85C10032918BF80BD0830BDE812
:1058D000804000F04ABBD0B502AF044690F85C00AF
:1058E000011F042906D3032818BFD0BD04F16000AE
:1058F000FFF783FEE06B4068BDE8D040FFF74DBA8C
:1059000080B56F4690F8EC11032918BF80BD203098
:10591000BDE88040FFF77CBE80B56F46017E03295D
:1059200018BF80BD1C30BDE8804000F07BBA80B558
:105930006F4690F8E011032918BF80BD1430BDE810
:105940008040FFF765BE80B56F4690F824100329AC
:1059500038BF80BD2830BDE88040FFF73BBFD4D4BE
:10596000B0B502AF90F8D020062A0ED80446082021
:1059700004212546DFE802F02B0909040E0A040081
:1059800004F1D80000F02CF804E0B0BD04F1D80018
:10599000FFF7D9FF04F1C00207CAFFF721FC04F1A9
:1059A000B00207CAFFF7BAFB04F1A00207CAFFF76B
:1059B00053FB04F1900207CAFFF768FC04F1800270
:1059C00007CAFFF7BBFC04F14005482044212258D8
:1059D000204443686058816A2868BDE8B0400847A1
:1059E00080B56F4690F8F410032918BF80BD0C30C5
:1059F000BDE8804000F0A1BA80B56F4690F828104D
:105A0000032907D0042918BF80BD3030BDE880408D
:105A100000F0BEB83030BDE8804000F0E0B8D4D42B
:105A200080B56F4690F849100339072988BF80BDBB
:105A3000DFE801F00D0408120408060650300CE0FF
:105A4000503005E05030BDE88040FFF7D5BF6030F2
:105A5000BDE8804000F0C3B85830BDE8804000F099
:105A600097B880B56F4690F8251003290ED0042909
:105A700007D0052918BF80BD3030BDE8804000F058
:105A80004BB87830BDE8804000F058B83030BDE801
:105A9000804000F071B880B56F46C17E03290BD0FD
:105AA000042904D0052918BF80BD203000E028302B
:105AB000BDE8804000F042B82030BDE88040FFF7EC
:105AC000D0BFD4D4D0B502AF044690F80701033854
:105AD000082820D8DFE800F0050B050B10080805A2
