:101000000879032001110000E92102008DDD0300B1
:10101000E9210200E9210200E921020000000000AC
:10102000000000000000000000000000E9210200B4
:10103000E921020000000000E9210200E92102008C
:1010400059110000C1110000E9210200E92102004C
:10105000E9210200E9210200CD260200451200002C
:1010600091120000E9210200E9210200391200007A
:10107000E9210200CD110000E9210200E92102006E
:10108000E9210200A5270200E9210200E92102006E
:10109000AD110000E9210200E9210200E92102006E
:1010A000E9210200E9210200E9210200E921020010
:1010B000E9210200E9210200000000000000000018
:1010C000E9210200E9210200E9210200E9210200F0
:1010D000E9210200E9210200E92102009D1200003D
:1010E000E9210200E9210200E921020000000000DC
:1010F00000000000E921020000000000E9210200D8
:1011000021F075F80E480F490022814201D004C039
:10111000FBE70D480D490E4A814202D008CA08C0BB
:10112000FAE70C484FF47001026842EA01020260DB
:10113000BFF34F8FBFF36F8F1EF0B9F800DE0000D2
:10114000489A032008F8032008790320449A0320D2
:10115000385B040088ED00E0B0B502AF38F0B2F9BA
:10116000104C206828B1002020600F48103021F07A
:1011700015FD606850B10C4D0020606005F1100055
:1011800021F00CFD05F1280021F008FDA06838B120
:101190000020A06004482830BDE8B04021F0FEBC2B
:1011A000B0BD00BF1C010040F8E6032080B56F46CB
:1011B0000248BDE8804021F0F1BC00BF70DC032094
:1011C00080B56F46BDE8804039F00EBDF0B503AF85
:1011D0004DF804BD154E0020306022F0EFFA144D9A
:1011E0000446286DF0B94FF0FF302865E86D78B1FE
:1011F000296E88420CD0D6F808140170D5E9170181
:101200000130E865884204BF05F1540021F09AFCE2
:10121000286D0130286520465DF804BBBDE8F0402C
:1012200022F002BB034820F05BFE00BF00D100406B
:10123000F8E603200831040080B56F46BDE8804021
:101240003AF06EBBD0B502AF0F4C206930B1102020
:10125000C4F808020D48203021F0A0FC606830B1CD
:101260000220C4F808020948203021F097FC2068C9
:1012700040B10120C4F8080204482030BDE8D04045
:1012800021F08CBCD0BD00BF00710040F8E6032007
:1012900080B56F46BDE8804039F09ABCF0B503AF29
:1012A0002DE9800F3A4D286858B13A4C0120C5F815
:1012B000080204F1100021F071FC04F1180021F083
:1012C0006DFCE86D38B14FF40000C5F808023148F4
:1012D000183021F063FCA86A38B14FF48060C5F87B
:1012E00008022C48183021F059FCA86D28B10020C4
:1012F000A8652848103021F051FC286EE8B3002082
:101300002866D5F86CA32348C5F86CA3BFF35F8F9C
:1013100050E8021F41EA0A0140E80212002AF7D110
:10132000DFF880804FF0000BDFF870900126BFF3EC
:101330005F8F5FEACB7020D13546072E1DD82E4631
:101340002AFA05F418BF0136E00707D0681E0828FE
:1013500015D209EBC000383021F020FCE81FB0FAAC
:1013600080F04FEA501BE003E3D5681E082808D23E
:1013700008EBC00021F012FCDBE727F02EB9064A8B
:1013800000E0074A4FF0FF30082120F04FF900BF7E
:1013900000710240F8E60320AC12040060E703206D
:1013A000BC12040070DA0320F0B503AF2DE9000F82
:1013B0009BB0D0E9014B814608460E46A4EB0B05D5
:1013C00025F0B2FF854201D2002073E23046D9F801
:1013D000005025F0A9FFDFF808152A46009100EB20
:1013E0000B015846234623F06DFE3278FF2A1CD1AC
:1013F0003279FF2A3BD127F05CFC3089012812A802
:1014000014BF1B211D2123F09DFEC0B2022840F015
:101410004882718912A823F0B5FEC0B2022840F0BC
:101420004082D6E9031212A8C4E1B2F10A044FF0D7
:10143000000398BF1C46002C33D0012C46D127F066
:1014400038FC12A8522123F07DFEC0B2022840F0E1
:101450002882B18912A823F095FEC0B2022840F07C
:101460002082D6E9011212A825F062F834E0CDE915
:10147000090100200B90DFE812F009003601590045
:10148000160131006B0193013301A00109A803216A
:1014900023F058FEC0B2022840F00382F18809A868
:1014A000F9E112AC0A2A0BC400F21482DFE812F050
:1014B0000B008D01A701AA01DA01BB01E3011202B1
:1014C000120212028A0112A8102180E127F0F1FB1A
:1014D00012A81E2123F036FEC0B2E2E109A80921BC
:1014E00023F030FEC0B2022840F0DB81746909A805
:1014F000214623F027FEC0B2022840F0D28127F017
:1015000008F812A8294625F089FE9DF84800FF2812
:1015100040F0C68127F04FF8C0B2022840F0C181E8
:1015200027F05DFAC0B20228EBD0BAE109A8052184
:1015300023F008FEC0B2022840F0B381357D09A82F
:10154000294623F0FFFDC0B2022840F0AA81D6E967
:101550000220CDE90E2031698DF8445010910EAC77
:10156000401AE9B24FF0100A012908BF4FF0020AF1
:101570000AF102018842C0F09381204624F090FCD9
:101580000546C00740F09F8112A82146524625F02B
:101590007BFE1298002800F096811399022924D02E
:1015A00004291AD0102928D1C2684FF00208818876
:1015B0000792C27AADF8681001680892827A0292A6
:1015C0005FFA81FC427A0392027A19910121049216
:1015D000C27980790592069012E0D0F800C04FF0F1
:1015E0000108CDF864C001210AE0B0F800C0012173
:1015F000ADF864C04FF0000802E0CDF8661000219D
:10160000002900F05A81079BA2460C93290C9DF8F3
:1016100060308DF83430089B8DF85430029B8DF883
:101620005330039B8DF85230049B9DF868008DF871
:101630005130059B9DF869209DF865E09DF8665046
:101640009DF867408DF85030069B8DF84D000C9842
:101650008DF84F308DF84E208DF84C408DF84B5062
:101660008DF84AE08DF849C08DF84880CDF85500D6
:1016700009AC204623F086FDC0B2022840F011815B
:1016800012A823F02FFD27F0B5F820461A4624F0C3
:101690004FFFC0B2022840F00481DDE90F0154463B
:1016A0009DF844505CE709A8012123F04BFDC0B22E
:1016B000022840F0F680717909A823F043FDC0B2FA
:1016C000022840F0EE80318909A823F05BFDC0B20A
:1016D000022840F0E680B17909A823F0D3FCDCE0D1
:1016E00009A80D215EE009A8072123F02BFDC0B257
:1016F000022840F0D68031690DF148080DF1240A26
:10170000D6E902201491CDE91220401A0428C0F035
:10171000C780404624F0C4FB0546C00740F0C080A7
:10172000404624F0BDFB0446C00740F0B980290CB8
:1017300027F0B1FAC0B2022840F0B380210C27F0A4
:10174000AAFAC0B2022840F0AC80DDE91301DCE760
:1017500009A8112123F0F6FCC0B2022840F0A180B4
:10176000746909A8214623F0EDFCC0B2022840F0BC
:10177000988026F0CEFE12A8294625F04FFD9DF850
:101780004800FF2840F08C8026F015FFC0B20228E8
:1017900040F0878027F023F9C0B20228EBD080E028
:1017A00009A80B2123F0CEFCC0B2022879D1D6E9DA
:1017B000021209A824F0BCFE6FE009A8132123F04F
:1017C000C1FC6AE012A80C2157E012A8082123F0FE
:1017D000B9FCC0B2022864D1718A12A823F0D2FCED
:1017E000C0B202285DD1B18A12A823F0CBFCC0B2EE
:1017F000022856D1711C12A825F0ECFA4DE012A86F
:101800000A2131E012A8122123F09CFCC0B2022868
:1018100047D1718812A823F0B5FCC0B2022840D18C
:10182000D6E90112FFE512A8062123F08BFCC0B215
:10183000022836D1718812A823F0A4FCC0B2022875
:101840002FD1B18812A823F09DFCC0B2022828D164
:10185000F18812A823F096FCC0B2022821D1D6E963
:101860000212E0E512A8022123F06CFCC0B20228AB
:1018700017D171880EE012A8042123F063FCC0B2D6
:1018800002280ED1718812A823F07CFCC0B2022875
:1018900007D1B18812A823F075FCC0B2022800D18C
:1018A0000220022806D1304625F03EFD5844C9F8F2
:1018B000080002201BB026F0D9BD0798CDF85D00C6
:1018C00008988DF85C009DF860008DF8340017983A
:1018D0000C90E5E703480F21034A1FF0A0FE00BF6C
:1018E0002C3A04001C4204003C420400F0B503AF53
:1018F0004DF804BD84B00446D0E901300D46191AF4
:1019000004290CD32268061D084926F06AFCCDE99B
:10191000020102A82946042219F0CEFC08B10020D9
:1019200001E00220A66004B026F0DEBC2CFC03001F
:1019300080B56F460021017301490131016080BD0E
:10194000F8E6032080B56F4641F2683281501044BA
:101950000021017280BDD4D4E0B502AF1F49044616
:10196000002040F20112B0F57F5F2FD00D1800F576
:101970007F5005F1180353E8006F26B943E80026AD
:10198000002EF8D102E0BFF32F8FECE71448686215
:1019900005F128002146FFF7D5FF2046294620F013
:1019A0004BFE0025BFF35F8F54E8000F44E8005161
:1019B0000029F9D1BFF35F8F30B1C669C5614576A3
:1019C000416A88473046F7E720BFEBE705487A1EB3
:1019D00000902B210448054B20F0D1FAB09A032047
:1019E000D969010000040400CA3B0400F00C0400A3
:1019F000F0B503AF2DE9000B94B00446F8680DF183
:101A00003C0826F0C3FD9DF83C00FF2803D040F6BB
:101A1000032020801DE0A7F14E0008F10401851C81
:101A200026F0EAFA02A82946861C26F06CFA0BADCD
:101A3000314626F0E1FA26F0FFFF2078FF2808D093
:101A400026F044FE044820F0F7FB26F06BFC20F063
:101A50005BFD14B026F0F2BCDB000000F0B503AF74
:101A60002DE9000FCDB0FE68D7F80880CDE91D2024
:101A700056F870AFD8F84400C346CDF8AB00C14665
:101A80005BF8410FD6F808E02A90D8F83D00129391
:101A900016917268F568D6F810C07369B169F46977
:101AA000CDF8CB0059F83A0F2192CDF870E01B9594
:101AB000CDF868C0199320911F94329032A88DE818
:101AC000120454460DF1F80ACDE9032E624605953D
:101AD0002AA9CDE90610A6F13001504617F0CCFE38
:101AE00022A89AE82E002EC0429811904398109098
:101AF00044980F9045980E90306A1890706A17902D
:101B000008F14E00D6E90AA526F078F820F07F40CB
:101B1000CDE90A0B209800901F98CDE90104219887
:101B200003901C98CDE908A5049005461B98CDF8B4
:101B300054B005908346189806901798CDF84C90AD
:101B4000CDF830901494079026A822A91A9A199BD0
:101B50009146984617F0B4FD1D98102804D126A888
:101B600016991DF0B9F830B11E99FF20087040F6A3
:101B7000033088805EE0D6E90C40D7F808A01D90BD
:101B8000B06B18900AF14800F66B26F037F820F099
:101B90007F400A9013980B9015980C902098049011
:101BA0001F981899CDE905041D98CDE90816CDE9CF
:101BB000005BCDE9029807902AA822A9149A219BDC
:101BC00017F07EFDDDE92C01DDE92A23CDE90001D6
:101BD0003EAC204604F0E0FC9DF8F850FF2D0AD002
:101BE000611C32AC26F062FA1E9E214626F0EEFA07
:101BF0003571FF201DE00DF1C809211D09F1030514
:101C000026F0FAF92EAE294626F07DF9129C0DF148
:101C1000F8083246404621461CF063FB9DF8F85018
:101C2000FF2D0AD01E9E08F1010126F0CFFAFF20F9
:101C3000357130704DB026F08EBA9AF83800022314
:101C40009AF84A100DF1F8089AF85020022801F08D
:101C5000030008BF012302F0030180F0010081F0BE
:101C6000010108430F990091B0FA80F00E994009E4
:101C7000CDE901132146DDE91032039040461CF006
:101C800063FB9DF82161022E09D198E86E00484659
:101C90006EC01E9E99E83E00301D3EC0A9E732ACE2
:101CA0003EA9292226F0BDFABDF826012146ADF84D
:101CB00030012922DDF822014B903EAD26F08AFA50
:101CC0005046294629223BF082FE4B981E99CAF8BD
:101CD0002A00BDF83001AAF82E000A208AF82960EF
:101CE0000870A7E7102B7DD1F0B503AF2DE9000FE9
:101CF0009DB009908846F868137800F16006D2F824
:101D00000100D2F80540D2F8095043EA002C3969A5
:101D10002B0243EA1463240244EA1060D47BB2F835
:101D20000D20C6E900C042EA0442120242EA1562EE
:101D3000C6E9023218A803F05BF806F1300A1898D9
:101D400006F11003F66B1A9A08F07F041999DDF872
:101D50006CB0069283E80708A4F14002079131466F
:101D600008909AE8200650463BF0ECFCCDF8148031
:101D700080462846494622463BF0E4FCC4F1400236
:101D8000814650463146D7F80CA03BF0F1FC0AF1F1
:101D9000200103910699402CCDE901BA009138BF8A
:101DA00049EA00082948002C08BFA84626F039FF58
:101DB0000AA8DDE9073217F0E7FCDDE90C01DDE9EF
:101DC0000A23CDE9000118AC204604F025FB9DF85C
:101DD0006050FF2D0CD0611C0FAC26F067F9099EF6
:101DE00021461FE0FF21017040F6032181807047EA
:101DF000DDF814900FA8C61C211D1022D7F808800A
:101E000026F0BDF914AD314626F0F6F818AC41467F
:101E10002A4620461CF065FA9DF86050FF2D09D037
:101E2000099E611C26F0D2F9FF20357130701DB07B
:101E300026F091B9099C5146B02204F108003AF00D
:101E400071FF0620C4F804902070F0E7C0FFFF7F08
:101E5000F0B503AF2DE9000B94B00446F8680DF11E
:101E60003C0826F093FB9DF83C00FF2803D040F689
:101E7000032020801DE0A7F14E0008F10401851C1D
:101E800026F0BAF802A82946861C26F03CF80BADCD
:101E9000314626F0B1F826F0CFFD2078FF2808D093
:101EA00026F014FC044820F0C7F926F03BFA20F095
:101EB0002BFB14B026F0C2BADA000000F0B503AF75
:101EC0002DE9000F9FB08246880701D411206EE0F3
:101ED000D56B934605F108030FCB41EA030440EAB2
:101EE0000206344311BF8DE80F000020CDE9020047
:101EF000CDE9000016AE6946304604F07BFB9DF844
:101F00005840FF2C3CD111A8311D00F1030826F0E8
:101F100067FC0AAE414625F0F6FF0DF15809594617
:101F2000324626F08BFE9DF85840FF2C30D12868B1
:101F3000C10741D06968000A0A0E8DF83E200A0ADE
:101F400040EA0160ADF83C200E9016AE0EA9304676
:101F500004F09CFB9DF85840FF2C11D1311D4046E8
:101F600026F062F91BAE414625F0CDFF05A8594683
:101F700032461CF0B6F99DF81440FF2CA6D00DE0B7
:101F800011AD711C132226F025F905A8294602E09F
:101F900005A809F10101013026F0EEF805A90AF1C2
:101FA0000500013126F0E8F8FF208AF804408AF89D
:101FB00000001FB026F0CFB80524EFE7F0B503AF5F
:101FC0002DE9000F8BB0044602A80E460021924670
:101FD00004F0F7F99DF80800FF281ED09DF80B10BB
:101FE000E170BDF809109DF81B20DDE903C5A4F8D8
:101FF0000110BDF81910059E9DF81830ADF81C10A1
:102000008DF81E202374C4E901C5E660A4F8111000
:10201000E27420700BB026F09EB89DF818B0059DB4
:10202000BDF81900ADF8040059469DF81B008DF865
:1020300006002846DDE9038915F004FE02460B463A
:1020400006F1480011461A4625F090FEC0B202285B
:102050001CD1BDF804005146ADF829009DF80600DA
:102060008DF828B00995CDE907898DF82B0002ADD0
:1020700007AA28461CF035F99DF80860FF2E10D0FD
:10208000601C691C26F078F82670C3E705204946D5
:10209000207040460BB0BDE8000FBDE8F04025F0D1
:1020A0003BBEFF20B5E7D4D4F0B503AF2DE9000F58
:1020B0009FB00D46B968069314460B901AA802F01B
:1020C00097FE1A9804F170061C9A05F07F0504F13A
:1020D000900B1B991D9B0FC60892A5F140020A9018
:1020E0009BE8400E50460991594607933BF02AFB66
:1020F0008046304649462A463BF024FBC5F1400263
:102100008146504659463BF033FB04F12001402DF7
:10211000CDE90241079901910899009138BF49EA38
:1021200000082448002D08BFB04626F07AFD0CA810
:10213000DDE9093217F028FBDDE90E01DDE90C23AA
:10214000CDE900011AAC204604F066F99DF868500C
:10215000FF2D0BD0611C11AC25F0A8FF0B9E214672
:102160001322701C3BF033FC35701FE0DDF82C802F
:1021700011A8C51C211D25F03FFF16AE294625F0EC
:10218000C2FE1AAC0699324620461CF0AAF89DF809
:102190006850FF2D07D008F10100611C25F0ECFF0D
:1021A00088F8005002E0FF2088F800001FB025F0FA
:1021B000D2BF00BFC0FFFF7FF0B503AF2DE9000F16
:1021C000B5B016461D46CDE91210B046D6F83D0012
:1021D0000DF1A00C55F8702FCDF8A30058F83A0F68
:1021E000289056F8410FD5F808906B68D5F80CA0E8
:1021F000D5F810E0D5F814B0AC69E9692C90D6F8A0
:10220000030014921593CDF86C90CDF868A0CDF82A
:1022100064E0CDF860B017941691CDF8B3002CA807
:102220008DE800460DF18009CDE9051CA5F13001CE
:1022300007904846CDE903B417F01EFB1CA899E8A7
:102240001E0005F1300B1EC02498119025981090A7
:1022500026980F9027980E90F01D9BE8100AD5F84D
:102260003CA025F0CBFC20F07F40CDE90A08DDE959
:102270001A10CDE908BA0C96CDE900011998029020
:102280001898039017980490169805A981E81102F0
:1022900028A81CA9DDE9142317F012FADDE9282388
:1022A0000DF18009DDE92A01CDE90001484604F07D
:1022B00073F99DF88060FF2E0ED02CAC09F101015E
:1022C00025F0F4FE139D21461322681D3BF07FFB91
:1022D000FF202E71287051E0DDF84C802CA8C61C20
:1022E00009F1040125F00FFE31AC314625F0E6FE80
:1022F0000DF180091299224626F0A0FC9DF880403D
:10230000FF2C0BD008F1050009F1010125F034FF85
:10231000FF2088F8044088F800002FE005F1200B2A
:10232000464608F11804ED6A9BE8000D09F1070024
:102330001CA925F079FF0B20494606F8010B17224E
:1023400025F01DFF199804F12C0120621898606295
:102350001798A0621698E56381E8010D1198206036
:10236000109860600F98A0600E98E060149820614B
:10237000159860611B98A0611A98E06135B025F04E
:10238000EABED4D4F0B503AF2DE9000F8BB00446FC
:102390000220ADF80A0001208DF808001E462C48E6
:1023A00088468DF80920039007A825F06BFC079D4F
:1023B000EDB3DDE9089BFB20D7F808A0CDE904B018
:1023C0000020069004A803A9FFF790FAC0B20228E3
:1023D0001CD104A802A9FFF789FAC0B2022815D1BE
:1023E000DDE90530191A02290ED3049A1949009122
:1023F000811C019122F066FECDE9070107A8314654
:10240000022218F059FFB8B1042004E0C0074FF0D1
:10241000040018BF0D200121207061702846494634
:102420000BB0BDE8000FBDE8F04025F075BC1620EC
:1024300020700BB025F08FBE019851460A9007A876
:1024400080E8200A07AB2046424616F013FFF0E76B
:10245000060005002CFC030091F8673301F51472A7
:10246000012B12BF91F8561202F58C720121A0B116
:10247000D0B502AF9388B0F8154112686340D0F828
:10248000114162401A4390F817315940C90718BFEB
:102490000020002A18BF0020D0BD00207047D4D4EF
:1024A000F0B503AF2DE9000794B002AD8846814630
:1024B000482126F030FAD8F80C404826334B2946FC
:1024C000482C38BF26463046482224F05DF80546A1
:1024D000D8F808008A46214618F0D4FA8E4251D81E
:1024E00003462B4800901A4628465146334621F0B1
:1024F00087FA022C09D22D481FF09EFE30461FF0AD
:102500008DFE20F001F80A2019E09DF80800441E15
:10251000E5B20E2D12D22046A6F1010A15F0E4FD17
:1025200080B282451BD109F1010002A948223BF08B
:102530004EFAC9F84C6089F8004008E0072089F895
:102540000500032089F80400FF2089F80000D8E97D
:10255000000125F0E1FB14B0BDE80007F0BD0D4817
:102560001FF06AFE0C480D4CA0470D48A0470D48CF
:102570000D4950F8250051F825101DF0B9FD002037
:10258000A047BEE70A4B0A4625F06CFF5CFD03003E
:102590007CFD0300D000000014000000F5210200C3
:1025A000290200006847040030470400D100000001
:1025B0006CFD0300F0B503AF2DE9000F95B01C785A
:1025C0008046FF2C15D046481D4616468A4693F88D
:1025D00001B01FF031FE43481FF00CFE284623F0E7
:1025E000CDFD032C18BF4FF0080B1FF08DFF192CE9
:1025F00005D1FF2088F8000015B025F0ACBDB6F875
:1026000058430FA825F03EFB0F98002848D0A7F1AB
:1026100043000094C51C0FA90C2225F0DBFDA7F197
:1026200052002946C61C0C2225F0A9FD12AD3146E8
:102630000C2225F0CFFD02A82946042215F014FB38
:102640009DF80800DDE903549DF81860FF28DDF8C7
:10265000149026D14846314615F0F4FAE1B380F8DB
:1026600000B0304615F0E6FACDE904904046CDE9D9
:10267000025402AD009A51462B4616F0FBFD98F825
:102680000000FF28B5D098E85E0028465EC01648D6
:102690001FF0D2FD284623F063FD1FF035FFABE7A6
:1026A00016209DF80B1088F80310BDF809109DF84E
:1026B0001B20A8F80110BDF81910ADF804108DF812
:1026C000062088F81060C8E90154C8F80C90A8F8F2
:1026D000111088F813208DE7044A25F018FC00BF7C
:1026E000C900000003020000CE0000009CFD0300B2
:1026F000F0B503AF4DF8048D92B00DF104080D460E
:1027000006461146404644221C463BF0BBF8B868DA
:102710002946009030464246234600F005F812B0A4
:102720005DF8048BF0BDD4D4F0B503AF2DE9000FF4
:10273000ADF29C6D189301F1780A1790DCAE91F818
:10274000C84006F1600B90460D46022C199132D11B
:102750000DF168092946C82248463AF0E3FA1520E7
:1027600028710E2028709DF8685098F800000C2DF4
:1027700000F2128306F17004DFE815F00D008C0101
:1027800042012801C9000A01DF010E037502C602D9
:102790000E03AB029700FF2804BF98F80C10002925
:1027A00000F02287411E0329C0F0B882002840F0C3
:1027B000EF8200F05ABF0DF50C792946C8221AAEF7
:1027C00048463AF0AFFA15209DF8301228711220D1
:1027D00028700F2998F8000000F2B68506F1600510
:1027E000DFE811F01000C20302039F04CF04B2051A
:1027F0007C03E0032204B205AB053205B205B20545
:10280000E6028903FF2804BF98F80C200A2A40F04A
:102810009B85D8F80800002802F09882199D0C22A8
:10282000D8F8041095F81901032808BF0822DDF82C
:1028300060A0DAF8383093F8700393F871330244EB
:1028400085F81A210C7813B1012185F818110DF5BE
:102850009F6858B195F81C0195F81D1140F00300D0
:1028600085F81C0141F0030185F81D111AA8514695
:102870001BF0DDFE9DF891000DF55C79022807D074
:10288000600741F1C4829DF89000022801F0BF82E8
:10289000DCAC25F074FF26F048FA01F01C8225F02C
:1028A000F9FB8DF8FC5401F0C7BAFF2804BF98F873
:1028B0000C10082940F02F82D8F80820002A02F0D6
:1028C0004382D8F804000478022C81F01A800DF5B8
:1028D0009F68062A42F22A82199A50F8011FDDF8F1
:1028E00060A0C2F811118188A2F8151192F8F910B0
:1028F00082F81741022900F0FB868188A2F8F410C3
:102900000068C2F8F00082F8F64000F0F1BEFF283F
:1029100004BF98F80C10022900F05186042800F238
:102920003E82DFE810F0E806FB01FB010500E80647
:102930000DF59F600DF59F6B00F1900519989022A1
:1029400000F1180158463AF0EDF9DCAE09F1010149
:10295000112225F014FC0024D8F80400C5E9000475
:10296000C5E904049DF87003C5E90244C007C5E940
:10297000064401F05B85DDF860A0721CB868002198
:10298000CDE900AB102302908CA8FFF7ABF9CBE1A7
:10299000FF2804BF98F80C10022940F0BC81199858
:1029A0000DF59F64B02200F1080120463AF0BAF913
:1029B000D8E90123A046DDF860A0B8681B99CDE9ED
:1029C00000A402908CA8FFF78DF9AFE1042800F273
:1029D000E887DFE810F090060500C707A30190061E
:1029E0009DF86900002801F07881199909F1180013
:1029F0001022D031CDE9001009F1020100F043BFEF
:102A0000FF2804BF98F80C10032940F08481199D19
:102A10004CA8702225F0D7FCDAF8000005F19801E7
:102A200016902022DAE901B9DAF80C60C6A83AF06B
:102A3000CEFF25F031FD40F09A87D8F804000DF55F
:102A40009F6A169A5B461596D0F809101491D0F833
:102A50000110139101781291C17B11911899D0F84E
:102A60000550B0F80D0010905046CDE900965E4636
:102A7000FEF7BEFF9DF8F884B8F1FF0F01F07082F9
:102A80008CA80AF10101053025F076FB8DF834821F
:102A900000F0A8BFFF2804BF98F80C100B2940F0E5
:102AA0003A81D8E901120DF54678404625F00CF838
:102AB000DDF860A02022DAF82C10BEAC25F0B1FBC6
:102AC000DAF830104CAE402225F059FB0DF59F6925
:102AD000214642463346484624F026FF9DF8F80436
:102AE000C00700F049879DF8FB0409F106018DF845
:102AF00006021222BDF8F9049DF8FC449DF8FD641D
:102B0000ADF804027CA83AF062FF09F1180079A937
:102B10000DF59F6A0CC80CC1007808704CA950468E
:102B200003F0C2FC9DF8F804FF2801F073820A202C
:102B300003258DF8710301F096BAFF2804BF98F8B9
:102B40000C10032940F0E78026F030F8DCA83AF0BA
:102B5000E9F825F0A1FC40F01887D8F804001B9D87
:102B6000DBE90E98D0F801100278129505F07F0588
:102B700042EA0122CBF820201692D0F80930D0F892
:102B800005201C0244EA1264120242EA1161CBF8E9
:102B90002840CBF82410C5F140021591C17BB0F854
:102BA0000D00149440EA01404146000240EA136AD5
:102BB0004846CBF82CA0DBE90C643AF0D9FD139021
:102BC000304621462A463AF0BDFDA5F140020446B2
:102BD000484641463AF0B6FD1399402D38BF44EAC5
:102BE0000100EF49002D08BF3046DCAA61F35F0009
:102BF000149B02F12001CDE9003ACDE902120490C4
:102C0000BEA8DDE9153216F0BFFDDBE900ACDDE959
:102C1000BE648CEA0401DBE90289DDE9C03589EA9A
:102C2000050008438AEA060288EA030111430843C3
:102C300041F06780DBE904230DF59F64DBE90601C1
:102C4000CDE90001204603F00BFC9DF8F854DDF8B7
:102C500060A0FF2D01F0FA84611C4CAC25F026FA2F
:102C60008CA821462EE0FF2804BF98F80C100329F9
:102C700051D125F09BFFDCA83AF054F825F00CFC6C
:102C800040F08886D8F8040004F1100525F0C4FA55
:102C90000EC5B968E061204602F0AAF8DDF860A030
:102CA000D4E90201D4E900230DF59F64CDE90001C8
:102CB00051462046FEF79CFE26F033F801F0E581F0
:102CC0008CA8611C053025F057FA8DF8345200F0BD
:102CD00057BEFF2804BF98F80C1007291BD125F018
:102CE000DBFB40F07C86199890F8F900022808D0A8
:102CF000D8F804000AF1680425F08EFA0EC4CAF868
:102D000074000C2000F06FBEFF2804BF98F80C1070
:102D10000C2900F0B085411E032936D28CA81AA9CF
:102D200025F035FFDDF860A00DF59F689DF83002B5
:102D3000FF2800F0E7840DF50C790DF59F60C8229F
:102D4000494639F0EFFF9DF8F8040E2800F0E484BE
:102D5000199D0D2840F0008595F8F980B8F1020F13
:102D600000F0FA8495F81A0100F00300012802BF70
:102D700095F8200100F00300012800F02A8595F85D
:102D8000F8C04FF0020800F051BD002800F06B843D
:102D9000042804D100F0AFBCFF2840F0598498F813
:102DA0000C00042800F0F1830D28B7D000F0A3BC7C
:102DB000FF2804BF98F80C20072A40F0C58225F0B0
:102DC0006BFB40F0A586199D95F8F900022808D004
:102DD000D8F804000AF1680425F01EFA0EC4CAF8F7
:102DE00074000F2000F099BEFF2804BF98F80C2053
:102DF0000B2A40F0A982BEAE09F10401202225F081
:102E0000BEF9DDF864B00DF5467940220BF1240AD5
:102E1000484651463AF0DBFDD8E901124CAC204659
:102E200024F052FE0DF55C78314622464B46404672
:102E300024F07AFD9DF87003C00700F071869DF8BC
:102E4000730308F106018DF8AA001222BDF8710380
:102E5000ADF8A800BDF874431AAE06F145003AF08B
:102E6000B6FD06F1570008F1180109223AF0AFFD4E
:102E700006F120004CA925F0A3FA3046514625F072
:102E80009FFA28465021ADF8AB403AF049FD9BF837
:102E90000801811E38BF0221DDF860A0C9B20229F5
:102EA00001F032820DF55C79032941F04C820F204C
:102EB00025F033FEDAF83820D6AEDCAC25F0B4FCD1
:102EC0009DF85853FF2D41F0E683E01D1AA925F027
:102ED0002CFA09200DF59F6801F0F8BC98F80C1049
:102EE000FF2808BF022900F04E84DDE918A5FF285D
:102EF00000F0308275E2FF2804BF98F80C20082A01
:102F000040F02282D8F80820002A01F02187D8F862
:102F10000400DDE918A50478022C80F040860DF548
:102F20009F68062A41F2048750F8011F0DF55C796D
:102F3000C5F811118188A5F8151195F8F91085F8D3
:102F40001741022907D08188A5F8F4100068C5F858
:102F5000F00085F8F64095F822110DF59F60524675
:102F6000FEF7ACFF00F0A9BFDDE918A5FF2840F08F
:102F7000FB8298F80C100A2900F0DF85012940F047
:102F8000E981D8E90112DCA824F000FF9DF8700364
:102F9000022840F0D4860A2025F069F801F08EBAA4
:102FA000C0FFFF7FFF2804BF98F80C20022A40F0E2
:102FB000CB81199DDCA8602225F005FA9AE850081B
:102FC00005F188013022DAF80C901AA83AF0FFFCDB
:102FD00025F062FA40F0F883D8F804000DF59878EF
:102FE000224633468D9D016816914168159181688E
:102FF00014911899C06813904046CDE900B9FEF7C6
:1030000027FF9DF830A1BAF1FF0F01F0B5800DF553
:103010009F6208F10101501D904625F0ADF8FF2098
:103020008DF8FCA401F0CCB8FF2804BF98F80C2060
:10303000032A40F08981199DDCA8B02225F0C3F94C
:1030400025F02AFA40F07B858D98DBE90EA900F087
:103050007F04DBF83410A4F14002DBF83050159106
:10306000494614905046D8F8046016953AF06AFB29
:1030700015998046284622463AF064FBC4F1400286
:103080001590504649463AF073FBB368F568D6F898
:1030900000907268DCA9039120310291402CCDE9A7
:1030A0001253CDE90035159938BF41EA000816984A
:1030B000002C08BF8046E34825F0B3FD90461AA8CF
:1030C0004A46434616F060FBDBE900C1DBE9022318
:1030D0001AAE1D9870CE69405840084386EA020136
:1030E00084EA0C021143084340F032861499DDF85B
:1030F00060A0CBE908980DF59F6813981329CBF8C9
:1031000028001298CBF82C0041F0DD81DCAB199D32
:103110000DF59F60514605F1D002FFF74DF800F024
:103120004BBDFF2804BF98F80C20022A40F00C8108
:1031300025F03CFD1AA839F0F5FD25F0ADF940F079
:103140004383D8F8040025F067F885E80E00B968D5
:10315000E86005F1100001F04BFED5E90601D5E964
:103160000423CDE90001DCAC25F00FFB25F0DDFDEB
:1031700040F09786E01D1AA925F0D7F8042000F04A
:10318000E8BEFF2804BF98F80C20032A40F0DC803A
:1031900019980DF1680BB02200F10801584639F07A
:1031A000C1FD25F079F940F00F83D8F804000BF148
:1031B00020028168D0F80CA0D0F80490D0F80080EC
:1031C0000020CDE9001ACDE915214B46CDE9022BAF
:1031D00042460490C6A816F0D7FAD5E902E3DDE925
:1031E000C646DDE9C802D5E900C15A40714080EA0F
:1031F0000E0011438CEA04021043084340F0B585E9
:1032000005F11003169CC5E908890FCBC5E90A4AE8
:10321000159DCDF800B001AE86E82003CDE9044A43
:1032200016F0F2FA199D044695F80801022841F0BB
:10323000628185481FF000F825F008FB1FF064F953
:103240000DF59F601AAB39E3FF2804BF98F80C20F6
:103250000C2A79D1DCA8199C00F11005DCA804F136
:103260000801502239F05EFDD8E9010105F1280B73
:103270000E902869139068691290A8691190E86906
:103280001090286A1490686A1590686B0F9004F586
:103290008F709BE8000B1691D5E90EA624F0AEFCCA
:1032A000D4F8142120F07F40D4F81111CDF8332147
:1032B0004C91D4F80D21D4F80A11CDF86B201A9155
:1032C000CDE908A60A904CA80B901AA80C90139868
:1032D000029012980390119804901098CDE9050B74
:1032E0000F98CDE900890790D6A8DCA9DDE9142361
:1032F00016F0E6F91698102806D1D6A90E981BF0FC
:10330000EBFC002800F03A854FF00B090325DDF8AF
:1033100060A00DF59F68BEA908F1060012223AF0E0
:1033200056FBFF208DF8FD948DF8FC540DF55C796B
:103330008DF8F804199D00F0C2BDFF2804BF98F86D
:103340000C20032A00F0A782FF280BD198F80C105C
:10335000DDE918A5042924D024F089FE0D2900F008
:1033600008810DE1DDE918A50539082900F2FC8086
:10337000DFE811F009003700FA00FA009200FA00C5
:10338000FA00DE00F700012800F0E28224F06FFE70
:10339000022840F0F58040F60340ADF8FC0400F050
:1033A00091BDD8F808000DF55C79002801F0C884BB
:1033B000D8F80400047825481EF03EFF601EC0B215
:1033C000102828BF0824204622F07CFF1FF09CF81C
:1033D00003208DF8FD448DF8FC040DF59F6800F086
:1033E00071BD032840F0C080DCAE05F118019022C9
:1033F000304639F097FC0020D8F80410CBE90C10C7
:103400003246CBE910100021CBE90E005346CBE940
:103410001200B8689DF8315200901AAC2046FEF7B1
:1034200043FE9DF86860FF2E00F092830DF59F68C3
:10343000611C08F1050024F09FFE8DF8FC6400F08B
:1034400036BD00BFC0FFFF7F3400000093000000C6
:10345000C81304002000000094000000D400000005
:103460001F000000D8000000DE000000D6000000B1
:10347000C7000000CF0000001E000000C568020069
:103480001C3E0400E0000000CA000000D300000061
:1034900064000000C5000000042865D105F10801A2
:1034A0001AADB022284639F03DFCD8F8010008F1E9
:1034B000210416902022D8F80D002146D8F805B036
:1034C000D8F809A015904CAE24F059FE5FF8801092
:1034D00020461BF001FC40B95FF88C1006F110008B
:1034E0001BF0FAFB002800F0AC8429460DF5987912
:1034F0002031002099E860033346CDE90089CDE909
:1035000002112A460490DCAC204616F03DF94CA886
:1035100000F1100120461BF0DFFB002800F095842D
:10352000FF208DF8F80440F20340ADF8FC044DE1B3
:10353000D0B998F80100002800F08C835FF8EC0007
:103540001EF086FE95F823010DF59F68800700F1B7
:103550003C8695F822110DF59F605246FEF7AEFCB1
:103560002AE3002800F0E88124F081FD01380228D8
:1035700006D20DF59F608CA925F009FB00F09DBCDB
:1035800015208DF8FC0400F09DBCD8F80800002838
:1035900001F0D883D8F8040004785FF844011EF0E5
:1035A0004BFE601EC0B2102828BF0824204622F01F
:1035B00089FE1EF0A9FF8DF8354203209CE024F01F
:1035C0006BFF40F08781D8F804108CACA01C24F06D
:1035D0002BFE19990DF59F6825F0AFF824F07BFEBE
:1035E000DDF860A004207DE118990DF59F60D8E911
:1035F00001A91BF01CF89DF82105022819D00D2007
:103600000DF59F688DF8F80418984346816A826B1F
:10361000DCAC25F089F99DF87003FF2809D025F06E
:1036200055F85FF8C8011EF007FE24F07BFE1EF07F
:103630006BFF0DF59F6051464A4624F0A7FB9DF8AD
:10364000F844022C40F0528124F0E1FD0A20BCE253
:10365000072D08BF042800F0CA81411E0329FFF48A
:103660005DAB002847D10A2D45D198F8010000280C
:1036700000F027815FF818021EF0EAFDDDF860A077
:103680000DF59F680DF55C793DBB0DF59F645146C6
:1036900020461AF07AFF9DF82155FF2D00F0FF8695
:1036A000DCAC0DF59F61292224F0BBFDDDF822057D
:1036B0002146199E29228890BDF82605ADF82402DE
:1036C00006F1D0003AF083F98898C6F8FA00BDF800
:1036D000240286F8F950A6F8FE00199991F81D0108
:1036E000800700F1AC8291F82201800700F1428549
:1036F0000D2001F0E2B815208DF83402DDF860A04D
:103700000DF59F688CA808F10401043090E87C0056
:103710000E207CC18DF8F8040DF55C7908F10401E8
:1037200009F104001BF036FB0C2025F0F6F94B469E
:10373000DAF838204CAC25F0F7F825F000F90AD07B
:1037400025F08DFA5FF8E4021EF076FD484622F07F
:1037500007FD1EF0D9FE199D0DF59F61284625F045
:1037600016FA8CAC2946204623F020F9FF208DF86C
:1037700070039DF83002DCAEFE2818BF2646179D68
:1037800096E81F00DBE3DDE918A524F085FE40F094
:10379000CA80D8F804100DF59F6808F1020024F0E3
:1037A00043FD0DF55C7905F1180109F1060024F0DF
:1037B000BCFD012049468DF8F90408F11200B6223B
:1037C0003AF005F9062039E324F06CFD24F01FFDE2
:1037D00070E34CAE05F1D0045146304622461AF053
:1037E00056FE25F0ACF810D00DF55C7A96E83E0058
:1037F00050463EC05FF8900325F0C6F9504605F1EB
:10380000D00422F0ADFC1EF07FFE206805F1E00C34
:103810001690AB4660681590D4E902AE4C469CE821
:103820006F006FC4DDE915209BF8F8C0CDE9E0AE6C
:103830000DF55C7ECDE9DE020EF118018DF871C345
:1038400099E87D00F1467DC10B2073468DF8700329
:1038500018988DF8A1838DF8A0C3816A826B4CAC57
:1038600025F062F825F06BF83FF475AF25F0F7F915
:103870005FF8080468E7199B09F10800D8E901120C
:10388000D033CDE900308CA8DDF860A05346FEF7B8
:10389000E5F8FFF749BA199DDCA8B02224F093FDA2
:1038A00024F0FAFD40F04F81D8F8040024F0B4FC75
:1038B000FF90FCA80EC0DCAB0DF59F60DDF860A0AA
:1038C0004AE05FF854041EF0C3FC25F036FA40F6D7
:1038D000037030E20520DDF860A08DF83402FF208F
:1038E0000DF59F688DF83002FFF722BA9DF8FA5463
:1038F0000DF59F68DDF860A0280700F160810320C6
:1039000063E15FF890041EF097FC20461CF0A8FDD0
:103910001EF0FAFDDDF860A005200DF59F688DF81A
:10392000340200F0C9BF05200DF59F688DF8FC0436
:10393000FF200DF55C7981E298F80100002800F085
:1039400096815FF8CC041EF083FC112000F044BC8B
:1039500009F108030DF59F6005F1D0025146FEF70D
:103960002BFC27E140F60340ADF83402C6E640F6F2
:103970000320ADF8340235E040F60330ADF83402F0
:10398000FF200DF59F6800F098BF25F0D6F940F6AE
:103990000320D0E125F0D1F905208DF83402FFF79E
:1039A000C1B99DF8690000287FF4F9A998F80C00C6
:1039B0000C287FF4F4A924F06FFD40F0C186D8F8FC
:1039C00004108CACA01C24F02FFC19990DF59F68F5
:1039D00024F0B3FE24F07FFC032000F0B7BE0520E6
:1039E0008DF83402FF208DF83002FFF79BB9199C47
:1039F0000DF59879B02204F10801484639F092F9A2
:103A000008F121060DF5467A20225046314639F05C
:103A1000DEFFD8F801001690D8F809005FF8D0153D
:103A20001490D8F80D0015903046D8F8055094F849
:103A30001EB122F03FFF40B95FF8EC150AF110000B
:103A400022F038FF002800F0FB84CDE912B5C6ABA8
:103A50000DF53E780FCB119000BAC19008BAC09016
:103A600010BA10914146BF9018BA0F920E93BE90B3
:103A7000DCAE30461CF096F90DF59F64002531460A
:103A80004FF4B8722046CDF8DC54CDF8D854CDF8B8
:103A9000D454CDF8D054CDF86856CDF86C56CDF846
:103AA0007056CDF8745639F0EDFEDCAE21464FF479
:103AB000C072304639F0E6FE09F120045FF8449602
:103AC0003046202221468DF8F054C8473046214622
:103AD0002022C8470DF59F64304601228DF8F85426
:103AE0002146C847204631464FF4C27239F0CAFE1B
:103AF0009DF878A604F5B8715FF87C361022504620
:103B000022F088F9002966D000F8015B0139F9E755
:103B10000520199D8DF8FC04FF208DF8F80414E0B1
:103B200040F60330DDF860A0ADF8FC04FF208DF80E
:103B3000F80424F09CFA5D46BFE101204CE3052027
:103B400024F065FB08E124F0ADFBDDF860A031E076
:103B50000DF59F68E80700F0508109F1020024F09C
:103B60005BFB8BE80E00CBF80C00DBE90601CDE92E
:103B700000015146DBE904231AAC2046FEF768F940
:103B80009DF86850FF2D40F08E8108F10800DCA9F7
:103B900024F056FD0020CDF8FC04082088E15FF8F1
:103BA0001C071EF049FB20461CF05AFC1EF0ACFC22
:103BB00024F078FB0DF59F680DF55C797DE19DF8AB
:103BC000FB64102E80F06E8206208DF835020320F3
:103BD0008DF8340296E5A7F13C060025204647F80B
:103BE0003C5C31468DF8785647E90E5547F8305C15
:103BF00022F0CAFEA7F12C09314648461BF026F9EF
:103C000004F5B076102D09D06019013590F86011D7
:103C100090F87021514080F86011F3E7BAF1100F6D
:103C200040F06A8224F0F3FADDE912B50020102892
:103C300000F07B8219F8001024F0B9FBF7E7DAF8FE
:103C40003C4004F1080324F0E2FF00F08F8382ADD2
:103C50000FC590E35FF8D0071EF0FAFA40F6037044
:103C60000DF59F68ADF8FC040DF55C792AE10DF5C2
:103C70005C7824F009FD0DF168090D2043468DF8AC
:103C8000700348461AF0DAFB24F0B8FD0BD099E82F
:103C90006E0040466EC05FF80C0824F075FF24F0FB
:103CA00041FB1EF031FCE00700F091825FF8200834
:103CB0001EF0CEFADCAC24F062FD9DF870530DF5D9
:103CC0009F680DF55C79FF2D00F0468524F0E2F940
:103CD0008DF8FC54F6E00120AFE019990DF59F68CE
:103CE00008F10700B022183139F071FE0920414671
:103CF0008DF830028CA824F0ACFDDDF860A0FFF751
:103D00001AB85FF870089B461695354666461EF051
:103D100093FA5046314642464B4622F01FF9169B15
:103D2000284621465A4622F019F91EF0EDFB25F0EF
:103D300004F840F20340ADF83402FEF7F3BF9DF8FB
:103D4000721324F094F90A0700F1B2830320B5E35B
:103D500024F05DFA199D032004218DF8FC04FF2056
:103D60008DF8FD148DF8F80426E7DDF860A024F046
:103D70007EF940F60340ADF8FC04E0E3DDF864B002
:103D800002260DF168089BF81A119BF820419BF858
:103D9000080101F0030104F0030481F0010102288D
:103DA00084F0010408BF01262143DDF860A0B1FAC8
:103DB00081F1D5E900234909D5E90205039151466E
:103DC0008DE8610040461AF0BFFA9DF8685008F18E
:103DD00002019DF8699012229DF89160C6AC24F012
:103DE00020FA022E40F0AD83BEA84ECCFF2D4EC06F
:103DF000218801807FF48DAADBE308F10800DCA9AB
:103E000024F01EFC0020CDF8FC04072050E0DCACC0
:103E1000514620461AF0B9FB9DF89953FF2D40F00A
:103E2000CD830DF5987C94E86E0060466EC008F175
:103E300004009CE83E003EC0FF20199D8DF8F80468
:103E40003DE00DF5987999E860031AA800F1700437
:103E5000199890F81E01002804BF824683461699DF
:103E600008BF0146159A08BF0246C4E9081B04F1C1
:103E70003000B968C4E90AA280E86003DCA800F059
:103E8000B7FFDDE9DE01DDE9DC23C4E90023C4E995
:103E90000201CDE90001DCAC24F077FC24F045FF01
:103EA00052D00DF59F6824F0F5F88DF8FC54FF20F2
:103EB0008DF8F8040DF55C79199D9DF8F804FF283C
:103EC00040F0908108F1040009F1040190E87C00C1
:103ED00012207CC14C46199D8DF8700308F1040036
:103EE000211D1AF057FF0C20DAF828108DF8F8047D
:103EF0004346DAF838204CAC24F016FD24F01FFDC0
:103F000009D024F0E3FBDFF8900E24F03DFE24F00E
:103F100009FA1EF0F9FA1AACDCA9284624F037FE9B
:103F20002046294622F053FDFF208DF8F8049DF825
:103F30006800FE2818BFA046179D98E81F001FC5FF
:103F40000DF29C6D24F007B9E01D1AA924F0EDF9DB
:103F50000A200DF59F6824F0C1FD39F038FDA9E76E
:103F6000DDE91010702241EA00484CA9DCA838F0C5
:103F7000D9FE139A28022946149DDDF858B040EA6C
:103F8000126A1298C4E900B640EA0222280240EA06
:103F900011614FEA082040EA1568159D1392C4E9A3
:103FA000035220221291C4F80890C4E905A1C4F874
:103FB0001C80DCAC04F19000C6A939F008FD04F1C6
:103FC0002000129A8DE81108514643461398CDE916
:103FD0000369059515F018FC0446199890F8080136
:103FE000022840F00D83DFF8C00D1EF025F924F003
:103FF0002DFC1EF089FA0DF59F64DCA9E01D24F06C
:1040000094F9092021468DF830028CA824F021FC77
:10401000FEF788BE1694D6A800F102080AF1040142
:1040200024F0DEFB82A84146841C24F047F80DF5FD
:104030000878214624F0D4FB0DF55C7918994246A6
:1040400024F0FCFD24F071FE00F02B8399E85E0063
:1040500050465EC0DFF8540D1EF0EEF8504622F0D8
:104060007FF81EF051FA8CA8DCA90530013113222B
:104070000DF59F6839F0ABFCFF208DF834528DF8B8
:104080003002DDF860A0FEF751BEE01DDCA924F08F
:104090004CF9092021468DF830028CA824F0D9FB78
:1040A000FEF742BEBDF8FC949DF8F9845FEA897082
:1040B00041BF199991F81C0140F0020081F81C01E0
:1040C0005FEA895040F13684DAF83C30D3E902E106
:1040D000D3E9042341EA030C4EEA020050EA0C0043
:1040E00000F01184CDF8F8E4CDF8FC14CDF80025EB
:1040F000CDF8043500F010BC16F80A00A7F12C0129
:1041000080F0800006F80A0040461AF09FFEDDF8B5
:1041100060A00020DDE912B5102804D018F80010C6
:1041200024F045F9F8E70DF59F680DF59F603146DD
:1041300022F02AFC0FCE00BAC19008BAC09010BA83
:10414000BF9018BABE90C6A800F11001BEA822F018
:10415000B1FB0DF1380EDDF844C000289EE8104296
:1041600000F0768124F0E9FD40F20340ADF834021E
:10417000FEF7DCBD0B20A0E30DF59F6ADCA90AF178
:10418000080060220AF1680838F0CCFD169808F1A2
:104190000C01C8F8000030221598C8F804001498E3
:1041A000C8F808001398C8F81C90D04681E8510858
:1041B0000AF188001AA939F00AFCCDF8FC5408204D
:1041C0008DF8F804DDF860A074E60E2006E0DFF854
:1041D000B00B1EF03DF810200DF59F680DF55C79D1
:1041E0008DF8F8044C460DF59F69DCA8C8224946B5
:1041F00038F098FD9DF8700312283FF46FAE1AACAA
:1042000011287FF489AE95F8F980B8F1020F04D136
:10421000DFF87C0B1EF01CF873E095F81A0100F033
:104220000300012802BF95F8200100F003000128D7
:1042300004D095F8F8C04FF0020831E04CAE05F11B
:10424000D00B514630465A461AF021F924F077FB3C
:104250000CD096E83E0048463EC0DFF82C0B24F018
:1042600093FC484621F07CFF1EF04EF9DBF800007D
:1042700005F1E00C16900DF1680EDBF804001490C7
:104280007446DBF808001590DBF80CA0AB469CE800
:104290006F006FC47446DDE9142116989BF8F8C0CE
:1042A000CDF804252246CDF8000509F1180E8DF849
:1042B000F9C4CDF80815CDF80CA592E87B008EE87E
:1042C0007B000B204B468DF8F80418988DF8298553
:1042D0008DF828C5816A826B4CAE24F0EFFC24F087
:1042E0002EFB0CD096E83E0048463EC0DFF89C0A04
:1042F0001DF0A2FF484621F033FF1EF005F91AAC6D
:10430000199D0DF59F6807E623F0B1FE002800F027
:1043100026820A2024F001FCDAF83820D6AEDCAC84
:1043200024F082FA9DF85853FF2D40F0B681A01D6D
:104330001AA923F0FAFF06202146ADF8F80408F187
:104340001200B622C4E208F107001AA9B0225D46A5
:1043500039F03DFB03200DF59F628DF8F804501CE9
:1043600041469046B72239F032FBA6E50020CDE960
:104370008400CDE982000DF59F6682A9304602F0E7
:1043800039F924F0CEFC46D14CA8311D00F10309C7
:10439000102224F050FCD6AE494623F0B4FD0DF5B2
:1043A0009F6851463246404619F09BFF24F0B9FC05
:1043B00040F06B812068C10700F074826168000AD8
:1043C0000DF59F660A0E8DF8F6210A0A40EA016093
:1043D0007C90ADF8F4217CA9304602F057F99DF8A5
:1043E000F8540DF59F68FF2D15D1311D484623F077
:1043F0001BFFBEAE494623F086FD0DF59F64514676
:104400003246204619F06DFF24F08BFC40F01184F9
:104410001999FFF768B9711C4CAE132223F0AFFE57
:10442000C6A81ECE1EC024F029FB3EE28CA80DF5C6
:104430009F61083024F004F98D940520FFF7D3BA6A
:10444000DDE9C6CE0DF59F68DDE9C894DDF860A012
:104450004CA8149E90301BF0010104BF0E460D467F
:10446000169A08BF0A46159B08BF0B4600F10C01BF
:1044700080E86400B022C0E9069408F1070081E8F2
:1044800008504CA939F0A3FA082041468DF83002B3
:104490008CA80130B72239F09AFAFEF747BC24F015
:1044A000DEFB49468CA891E87C0004307CC003E226
:1044B0009DF873230F2A00F2BB8106208DF8FD04BE
:1044C0000320FFF75EB8B8684C1C00901AAEDCAA57
:1044D000214630465346FDF7E7FD9DF868500DF53F
:1044E0005C79FF2D24D108F10800DCA924F0A8F89C
:1044F000CDF8FC449AE1DFF870081DF09DFE24F031
:10450000A5F91EF001F8DDF860A009208DF8700310
:10451000DD9424F0B9F84CAEDCAC24F085F99DF8BC
:1045200030510DF59F680DF55C79FF2D00F0C981C4
:1045300008F10500711C23F01FFE8DF8FC54FF20CC
:10454000A3E208F1140C16960DF59878BCE84F001C
:10455000C646AEE84F009CF800008EF80000BDF89B
:104560009600ADF80C02DDF8920082901AA94DCCAD
:104570008C46ACE84D0012222088ACF800000BF10C
:10458000D2008BF8D1908BF8D05039F020FAB8E8EF
:104590003E000BF1E4003EC016998BF8F91098F834
:1045A000001001708298CBF8FA00BDF80C02ABF84D
:1045B000FE000C200DF59F68FEF7B8BE4CA8DCA9E4
:1045C000292239F004FADDF89A03022DC690BDF8CD
:1045D0009E03ADF81C0300F0B0834CA9199C29225E
:1045E00004F1D00039F0F3F9C698C4F8FA00BDF828
:1045F0001C0384F8F9502546A4F8FE000D201DE4A4
:10460000DFF8A0071DF018FE24F020F91DF07CFF54
:10461000DDF860A00920CDF8FC440DF59F6424F07E
:1046200029F82346DAF83820BEAE24F047FB9DF87F
:10463000F8520DF59F68FF2D00F04E818CA8711C7B
:10464000053023F099FD8DF8345235E14CA8211D39
:10465000C61C23F058FCC6AC314623F02FFD0DF5E7
:104660009F6651462246304619F03BFE9DF8F844BD
:104670000DF59F68FF2C00F03B818CA8711C053064
:1046800023F07AFD8DF8344216E108F10101C6A845
:1046900023F072FD07E10DF59F6808F10500711C1C
:1046A000EEE14CA9484623F08BFE09F12004C6A98F
:1046B000202223F0B6FD169812228DF8B303BDF820
:1046C0000402ADF8B0039DF806028DF8B20309F1BB
:1046D00045008DF8B4637CA939F079F909F15700E8
:1046E00079A9092239F073F95846502139F018F99F
:1046F00019990DF59F6891F80801023838BF02201A
:10470000C0B2022800F0C581DDF860A0032840F0A7
:10471000F7810F200DF59F6523F0ACFF2B46DAF8EB
:104720003820D6AE24F0CAFA9DF85843FF2C40F04A
:104730006582E81DDCA923F0F8FD07202946A5E6DF
:1047400005200DF59F688DF83402FF208DF83002AA
:10475000DDF860A0FEF7ECBA199D012040E506F1F6
:1047600090001690E44840F2FF18D7F808A04FF0E8
:10477000FF39834650461AF079FC044650460E46EF
:104780001AF074FCDD4D0023A0FB0502E1FB0523BC
:10479000A4FB0541A6FB056576184FF000014541D5
:1047A00052F1000253F1000024EA080341F1000134
:1047B000BBEB030379EB060379EB050379EB02020C
:1047C000D8D3169C0022DDF860A004F1100384E821
:1047D000070083E8070008218DF87013DA60E260B3
:1047E000DD9023F051FFD6ACDCAB24F09DF89DF8B2
:1047F00058530DF55C79FF2D40F03D81B8680021DC
:104800000090DCAC1AAA534620460026FDF74CFC6B
:104810009DF870530DF59F68FF2D40F02E8108F133
:1048200008001AA923F00CFFCDF8FC6407202CE146
:1048300085F8201105F58F7185F81E0105F58C703E
:10484000BDF874339DF87143A5F8223185F8212114
:1048500085F81F4123F0DCF985F80801DFF8100521
:1048600085F809111DF0E8FC23F073FF1DF04CFEE4
:10487000DAF82C104CA823F0A3FDDAF83010DCAEE7
:10488000402223F07CFC0DF168083146404601F0DF
:104890000BFE23F0B3FF00F07A810A2003248DF889
:1048A00019039FE105250DF59F688DF834528CA8FA
:1048B0000530C6A923F060FCFF208DF83002FEF71A
:1048C00035BAE01D1AA923F030FD052024F006F9C1
:1048D00039F07DF8FFF7F0BAA01DDCA923F025FD23
:1048E00003202146ADF830028CA81230B622D2E562
:1048F000129C132C40F08881F01DDCA923F015FDDB
:1049000009203146C2E50020CDF80405CDF80005A8
:10491000CDF8FC04CDF8F804DFF868140DF59F60BD
:104920001AF0DAF930B1199991F81D0140F002003E
:1049300081F81D0119980C2180F82051054680F856
:104940001F8105F58C78A0F8229180F8216180F80C
:104950001E4190F81901032808BF0821DAF8380031
:1049600090F8702390F87133881885F81A0105F5CE
:104970008F7013B1012188F80010414623F048F9E7
:1049800085F80801DFF8340485F809111DF054FC9E
:1049900023F0DFFE1DF0B8FD0DF59F60012101F051
:1049A00010FD24F0BEF93FD19DF80865DDF80445FF
:1049B000BDF80905ADF8180331469DF80B058DF8D3
:1049C0001A032046DDF8FC94DDF8005513F03AF99F
:1049D00023F010FF40461A4623F0C8F9C0B202285F
:1049E00044D1CDF8F8940DF59F68BDF818030DF586
:1049F0005C79ADF8050551469DF81A0342468DF8DD
:104A0000070548468DF80465CDF80045CDF8FC54FF
:104A100019F067FC24F089F959D10DF59F68012040
:104A20008DF83002FEF787B99DF808259DF8FB0444
:104A30008DF88023DDF804258DF87303BDF8F904A3
:104A4000DF92DDF800259DF80B15ADF87103BDF878
:104A50000905DE92DDF8FC24ADF830018DF8321145
:104A6000DD928DF88313ADF881033BE0484623F0D7
:104A700058FF052536E00DF59F6808F10500611C1B
:104A800023F07AFBFF208DF8FC548DF8F804FFF733
:104A900013BADDF860A091F80901002800F0CE807B
:104AA0000A200DF59F6523F0E5FD2B46DAF8382046
:104AB000D6AE24F003F99DF85843FF2C40F09E80B9
:104AC000A81DDCA923F031FC042029460AE799E857
:104AD0005E0040465EC0BA481DF0AEFB23F022FCEB
:104AE0001DF012FDDCA98CA80530013123F044FB38
:104AF0008DF83452FEF704BEFFC5FCFF40420F00A4
:104B0000B9680BF1100000F073F9DBE9060100252C
:104B1000DBE904238DE803020DF59F60CDE9034531
:104B200014F032FEDDF804150DF59F68DDF8F82469
:104B3000DDF8FC34DDF80005CBE90201CDE9000128
:104B40004046CBE9002301F067FC9DF8F844FF2CB8
:104B500063D182A808F10401C61C23F0D4F988AC03
:104B6000314623F0ABFA0DF556795146224624F032
:104B700065F89DF85843FF2C40F0808008F107004D
:104B8000DCA923F0D2FB02204146FFF784BABEA87D
:104B900008F10401861C23F0B6F9D6A83146841C1E
:104BA00023F08CFA0DF502792146102224F043F807
:104BB00051460DF5467A4A46504619F092FB9DF84B
:104BC0001843FF2C40D09AE86E0040466EC06948FA
:104BD0001DF032FB23F0A6FB1DF096FCDDF860A073
:104BE0000DF55C79C6A90DF59F6808F10500013146
:104BF00023F0C2FA8DF8FC44FFF764B98CA8711C4D
:104C0000053023F0B9FA4CE08CA8DCA9083023F079
:104C100017FD601C8D9005204FE682AD08F1010163
:104C2000132223F0D7FAD6AE2946701C23F0A4FA3B
:104C300030E0611CC6A823F09FFA36E6DAF80000DF
:104C400098B3DAF8041049E008F103004CA923F006
:104C5000B7FB0DF59F64DCA904F12400402238F075
:104C6000B6FE022041468DF8F804601C2322A046BF
:104C700038F0ADFEDDF860A0FEF79EBF99E86E004B
:104C800040466EC04C481DF0D7FA23F04BFB1DF098
:104C90003BFCD6AE8CA8711C053023F06DFA0DF5E7
:104CA0009F68FF208DF8344207E6BE682F4C414DC7
:104CB000D6F80001402807D33046002113F03AFD12
:104CC000D6F80001402846D2421C56F82000C6F80B
:104CD0000021A0FB0401A8421046EBD80BF14000D4
:104CE00000260BF13002CDF8FC14C0E900160DF5DA
:104CF0009F63C0E902660820C2E90016C2E90266A5
:104D000023F0B8FCDAF83820D6AD284619F096FB27
:104D10009DF858438CA8FF2C05D10830DCA923F05E
:104D20008FFC8D9677E70530691C6AE71B4B00E026
:104D30000B4B012007211CF033FC0F481DF0C6F877
:104D4000144A06E01F4A04E0154A02E00B4A00E05C
:104D5000044A23F0DCF8164A40211CF067FC00BF2F
:104D6000ACFC03009CFC03003600000040420F0036
:104D700037000000DC0000008CFC03007CFC03001A
:104D8000CB000000C8130400DF000000D5000000C5
:104D9000E10000006CFC0300D7000000883C040028
:104DA000783C04003500000033000000DD00000006
:104DB000081204007F3DF1FFD90000003800000018
:104DC000D20000004CFC0300D0B502AF92B0BC682A
:104DD0008DF81020FF228DF80420CDE902343A69C5
:104DE000FB68009201AAFDF79FFC12B0D0BDD4D49D
:104DF000F0B503AF2DE9FF07DFF8949000260D46CC
:104E00008046EA46CDE90266CDE900660F2E1ED83F
:104E1000D5F80041402C07D32846002113F08AFC26
:104E2000D5F80041412C2AD23046514610224B463B
:104E300020F0F0FF02460B4605EB8400C4F1400170
:104E40001EF0EEFD2044C5F800010E44DEE704A884
:104E50009AE81E001EC004AB23F016FA1FBFA8E894
:104E60000F0008B0BDE80007F0BD08481DF0E4F9E8
:104E700004A821F0EBFA1DF047FB1DF093FA054B57
:104E80002046402140221CF08BFB00BFE7000000C1
:104E90003C430400F8110400D0B502AF04460A48B0
:104EA0001DF0A8F92078FF2806D023F024FA204628
:104EB000BDE8D04021F054B923F0DEFA6068BDE8C7
:104EC000D0401EF03BB900BFFD010000D0B502AFDD
:104ED00004460A481DF08EF92078012806D123F0F7
:104EE0000AFA6068BDE8D0401EF028B923F0C4FA81
:104EF0006078BDE8D0401BF033B900BF0D01000061
:104F0000F0B503AF4DF804BD044676481DF072F9C4
:104F10002578FF2D15D123F0EEF978481DF06AF9B8
:104F20002579FF2D26D123F0E6F979481DF062F9A5
:104F3000207A1DF09BF960891DF05CF9D4E903012A
:104F4000B5E0002000261DF091F967481DF052F9E8
:104F5000B5F10A0098BF3046E0B1012829D123F00D
:104F6000CAF963481DF046F9A0891DF043F9D4E958
:104F700001019CE023F080FA61481DF03BF9DFE875
:104F800005F00543233221505B415F0023F074FAA2
:104F9000E08811E023F070FA56481DF02BF9DFE8A5
:104FA00005F0066A575C517A8C6096538E0000209B
:104FB00062E023F048FC4D485DF804BBBDE8F040DA
:104FC0001DF018B904202DE023F03DFC4D481DF0E4
:104FD00011F94D48257D1DF00DF9681E18BF0120FF
:104FE0001DF044F915E023F08DFC60791DF03EF9C9
:104FF00020891DF0FFF8A0795DF804BBBDE8F04002
:1050000021F052B9072018E023F075F93F481DF050
:10501000F1F804F108005DF804BBBDE8F04021F0B0
:10502000A3B905201DF022F904F108005DF804BBC6
:10503000BDE8F04021F088B906201DF017F934E0F2
:10504000082048E0042004E009201DF00FF98EE755
:1050500002201DF00BF96088AEE723F053FC608856
:1050600083E707201DF002F960881DF0C3F8A088CF
:105070001DF0C0F819E001201DF0F8F8608A1DF05D
:10508000B9F8A08A1DF0B6F8601C5DF804BBBDE855
:10509000F04021F07BB905201DF0E8F86088164D3E
:1050A000A847A088A847E088A847D4E902015DF88E
:1050B00004BBBDE8F0401DF009BF062000E00A2057
:1050C0001DF0D4F860881DF095F8A08874E70820DA
:1050D0001DF0CCF860785DF804BBBDE8F0401DF031
:1050E000C5B800BFFA0100000B020000FB01000080
:1050F0001202000008020000F52102000C0200006C
:105100000002000002020000110200000102000083
:1051100006020000D0B502AF044604481DF06AF84C
:105120002046BDE8D0401AF055B800BF140000007A
:10513000D0B502AF04460A481DF05CF8208801286B
:1051400009D123F0D8F807481DF054F86088BDE86D
:10515000D0401AF0BFBF0020BDE8D0401DF086B897
:105160000E0000000B010000D0B502AF0446044859
:105170001DF040F82078BDE8D0401DF077B800BFA2
:1051800015000000B0B502AF0546044823F054FBFB
:1051900028462146BDE8B0401DF0F2B802000000EC
:1051A000D0B502AF0F4AD268BFF35F8FA2B1526889
:1051B000012301441360002388420AD0D2F8004141
:1051C000002CFBD0C2F80031D2F8084500F8014BA2
:1051D000F2E701205060D0BD03481DF039F81DF002
:1051E000E1F800BFF8E60320AA000000F0B503AF25
:1051F0002DE9000FB1B005468868002488460028D4
:105200008C6053D0D8E9046B0A90B868D8F80C10B9
:1052100000280895099153D03046594615F032FCC4
:105220002BAC23F0E7FA20461A4622F0C7F82D9857
:105230000E3405900A222C98214606909DF8AD0068
:10524000BDF8B8A0BDF8AE509DF8AC90079017A877
:1052500038F0BDFBB9F1FE0F00F09E8117A9204682
:105260000A2238F0B4FB0598B9F1FF0F2D9006988B
:105270002C900798ADF8B8A0ADF8AE508DF8AD0001
:105280008DF8AC9000F0948101220020B9F10A0F52
:10529000A9F10B0188BF52FA81F0002800F0BC8010
:1052A000012800F0C6804FF0000AC2E098F8041010
:1052B000D8F8000019F054FEAC60297128601AE19A
:1052C00030465946CDE9062315F0DCFB2BAE23F022
:1052D00064F90DF15C0BB11C16229DF8ACA0584688
:1052E0009DF8AD9038F073FBBAF1FE0F00F05981D4
:1052F000594611A87CC97CC01622098801805946EC
:105300008DF82D908DF82CA00BA8023038F05FFBA3
:10531000BAF1FF0F00F051818DF85D900BF10200A2
:105320008DF85CA011A91622162438F050FB2BA88A
:1053300022F0A8FC2B9D002D69D0DDE92CA1FB20DB
:105340000DF1AC0B0422CDE91D1000201F90584632
:1053500003911DA94FF0040921F0B8F82B9E9DF888
:10536000B040002E00F0B4800BF105010DF1980B58
:105370001322CDE9045A584638F029FBDDF89B107A
:105380000DF18C0922910BF1070126980C22CDF822
:10539000850023F050FCD8F8005098F804A0D5E917
:1053A00000018DF884405246209614F057F91FFAF8
:1053B00080FB484621F0F2F8864B02460E468B45AC
:1053C00028BF8B4611465846324621F0DDF8CDE91C
:1053D00000012BA817AB0699079C4246A0479DF8F1
:1053E000AC00FF2800F08A80089E9DF8AF1006F1FF
:1053F0000805F171BDF8AD10A6F805102CAC3071A0
:105400001ECC1EC5DDE9045A002030606BE008990F
:10541000002008600C716AE0B9F10A0F3FF643AF53
:105420000120AA4600FA09F040F20C4108423FF47C
:105430003AAF3046594615F025FB002900F0C780E9
:1054400098F80450D8F800600DF15C080078ADF8C9
:1054500060A00DF12C0AF9682A468DF85D00032042
:105460008DF85E1031468DF85C005046434600F0E2
:10547000BDF89DF82C40FF2C0BD011AD0AF10101B5
:10548000132222F0A7FE089E294622F09FFE002547
:105490001BE011A80AF10401C41C22F00FFE0DF15B
:1054A0002C0A21461022504638F091FA30462946FF
:1054B00019F056FD054608F103000C46514622F04E
:1054C000B3FE089E414622F081FE347135600EE045
:1054D00008990120487100200860E00718BF4FF0CC
:1054E0000D0981F804902846514622F015FCDDE9AB
:1054F000091022F011FC31B022F02DBE089E2C982C
:10550000012809D1DDE924212D98521A82420ED2B8
:105510004FF48270B08075E72846514619F020FD9F
:10552000002231713060B260DDE90401DDE70C1862
:1055300020A8D146AB4621461FF024FEDDE9045ADF
:10554000C0B2022816D120A804214FF004081FF091
:1055500019FEC0B2022816D1229849460444584682
:1055600019F0FEFC039AC6E9025AC6E90424317117
:105570003060BCE70121C00771714FF0040018BF13
:105580000D20307140E701217171C00718BF4FF045
:105590000D0886F8048037E713481CF04DFE079885
:1055A00003E00E481CF048FE484620F0ABFE0AE03F
:1055B0000C481CF041FE2BA803E007481CF03CFE01
:1055C0000BA8FFF79DFC1CF09FFF1CF0EBFE044AAC
:1055D00022F09DFC00FE0300F2000000F700000036
:1055E00010FE0300F4000000F8000000F0B503AF67
:1055F0002DE9000F9BB0044615A8984691460E462B
:1056000022F040FB159D002D64D016980DF1540B2F
:105610000690FB2017990422CDE90710002005947D
:10562000042409905846CDE90369019107A920F0A7
:105630004DFFDDF854A09DF85890BAF1000F57D0F7
:10564000029510AC0BF1050122F030FDDDF843109E
:105650000C2210980C91E11DCDF82D000DAE22F01A
:105660008EFD8DF82C900BF10400CDF828A098E861
:105670003E003EC05946FF208DF854003046FBF7EF
:1056800093FEC0B2022828D10398049AD0E9000101
:1056900013F0E4FF0F9D80B2A84238BF05460AA868
:1056A00029461FF06FFDC0B2022816D10AA80421B6
:1056B0001FF068FDC0B202280FD1059AFF200299A1
:1056C00010700C9851600699284491600199C2E9C4
:1056D000031019E01620207016E00121059AC0077A
:1056E0004FF00400517018BF0D20029D107007E0AC
:1056F0000599012048705FEAC97018BF0D240C702D
:105700000699284622F008FB1BB022F024BDD4D411
:10571000B0B502AF1D490968C90532D11D4C2168D9
:1057200061BB4FF0FF31216094F83810012907D197
:10573000002184F83810216B002918BF0131216342
:10574000A16AC1B1D4E90C23002B04EBC305296481
:1057500085F83C0018BF013363639A4204BF0120FF
:1057600084F8380022F0C7FB04F110001EF0BDFBE6
:105770002068013000E000202060B0BD06481CF029
:10578000AFFB03481CF064FD1CF00CFE04ED00E0D0
:10579000AE00000088E4032050340400B0B502AF2E
:1057A0001D490968C90532D11D4C216861BB4FF004
:1057B000FF31216094F84810012907D1002184F8B5
:1057C0004810216C002918BF01312164A16BC1B1BF
:1057D000D4E91023002B04EBC305296585F84C00A0
:1057E00018BF013363649A4204BF012084F8480063
:1057F00022F081FB04F110001EF01FFB2068013035
:1058000000E000202060B0BD06481CF069FB0348A2
:105810001CF01EFD1CF0C6FD04ED00E0AE00000013
:10582000D0E4032050340400BFB506AF0168DFE8C0
:1058300001F0041F191B17252D1DD0E90101CDE929
:10584000010101A8039028481CF0F6FC27481CF031
:10585000D1FC274903A81CF013FD1CF055FEBFBD69
:105860001E4806E01E4804E0174802E0174800E022
:105870001C4804B0BDE8B0401CF0EABC44681648BF
:105880001CF0DAFC20461CF0C9FC18E0D0E90154F9
:105890000F481CF0D1FC0F481CF0ACFCDFE805F011
:1058A000020C0406002008E0022006E023F02AF89B
:1058B00020461CF05DFD02E001201CF0D7FCBDE895
:1058C000BF401CF021BE00BFBF000000B6000000BA
:1058D000B8000000F7010000B2000000B1000000B5
:1058E000BD000000BE000000B50000001200000076
:1058F0005C17040080B56F4618B1BDE8804022F007
:105900000BBA80BD80B56F46016819B1BDE8804013
:1059100000F0C4B880BD80B56F46C24312061CBFFC
:10592000BDE8804000F00EBD80BDD4D40168426B5C
:105930008A429EBF00210160704780B56F46024BCE
:1059400010460A461BF02CFE9C17040080B56F46DB
:10595000C0B2BDE8804036F0ADBAD4D4F0B503AFE4
:105960004DF804BD0A460646D0E9000113F0A2FC3A
:105970000C461349054606F576701FF083FC0E466B
:1059800095F85E13B1B1013985F85E13090604BFBD
:1059900095F85C13042905D023F0D3F922F0B8FC64
:1059A00022F0BDBC103041F20131A5F85C131DF0AE
:1059B000C9F8F1E703481CF04BFC1CF0F3FC00BFF6
:1059C00058110400EF00000080B56F4601464068A2
:1059D0004A7A00F5B7601AB1BDE880400FF089BD82
:1059E000097ABDE880400FF068BD80B56F4680BD84
:1059F000B0B502AF456865B10289006822F002FFC8
:105A000038B10C46D0F84013294422F0EDFE22F0C4
:105A10007FFCB0BDB0B502AF88B00446D0E9062027
:105A200043690020009002AD21462846FFF7DEFBC7
:105A30002846FFF767FF204608B0BDE8B04000F0F9
:105A400071B8B0B502AF88B00446D0E9062043690A
:105A5000012194F82000CDE9001002AD214628462E
:105A6000FFF7C4FB2846FFF74DFF204608B0BDE80E
:105A7000B04000F057B880B56F460178042907D0D0
:105A8000082918BF80BD0430BDE8804000F058B838
:105A900090F83A00BDE8804022F032B9F0B503AF8B
:105AA0002DE900078AB0D0F800A0044686680020DF
:105AB000A06036B304F10C000DF1140808F10801E0
:105AC00090E82C002CC194F80490DAE900014A46D1
:105AD0001EF0B6FC0A68B0F85803013A0A600AF5ED
:105AE0007E71ADF8140068464246069612F0F6FD47
:105AF000019840B1029922F00FF909481CF0A8FB67
:105B000001E094F8049050464946FFF727FFE1680A
:105B100000200AB0BDE80007BDE8F040FFF7EABE8C
:105B200068000000D0B502AF0446D0E90201FFF7DB
:105B3000E1FE21792068BDE8D040FFF70FBFD4D443
:105B400080B56F4602C8DFE801F002020206BDE838
:105B50008040FFF75FBFBDE88040FFF772BFD0B560
:105B600002AF13F0BFFC68B10C4690F86F1300222F
:105B7000012980F86F2304BF00F51E701CF0E2FFBE
:105B800022F0C6FBD0BD80B56F4600F5B76000219E
:105B9000BDE880400FF091BC80B56F4690F844108E
:105BA00031B1032918BF80BDBDE88040FFF70CBFAD
:105BB0003830F9E7B0B502AF04460025902D08D083
:105BC0006019017D032904BF043000F0EFFA183595
:105BD000F4E7B0BDD0B502AF044600F0A8FB04F175
:105BE0001800BDE8D04000F0A2BBD4D480B56F4609
:105BF0000548002101220160044942500168002942
:105C0000FCD00021016080BD14710040F4FEFFFF54
:105C1000D0B502AF0446006848B90020207323F0D5
:105C20009CF8201D1CF08EFF22F072FBD0BD0448B2
:105C30001CF002FB1FF014FB1CF066FC1CF0B2FB16
:105C40009F000000F0B503AF2DE9000F89B0824638
:105C500030480068C00558D189463049104613F0D5
:105C600079FE0546D0E90046D0F8AC0005F1080BF6
:105C700088460138C5F8AC0058460FF0B3FB241A2B
:105C800066F10000BAEB040179EB000036D3E94677
:105C90005946484613F05EFABAEB0400049004D06B
:105CA000411E684619F072FA58B105AC99E84E00E9
:105CB00020464EC0204615F073FB10B122F043FE83
:105CC000F8E700206C46D5E90212914202D12A7C05
:105CD000D2070DD005EBC101896949B92046594663
:105CE00013F046FA9DF8000002280BD00120EAE7E5
:105CF000C0071CBF05F188001EF0EDF822F070F916
:105D000022F0D8B906481CF0E1F803481CF0A0FACC
:105D10001CF048FB04ED00E0AE000000140A040093
:105D20008C0F040080B56F4609490968C9050AD17E
:105D3000094913F00FFED0F8B020013AC0F8B020A6
:105D400022F075FA80BD03481CF082FA1CF02AFB91
:105D500004ED00E0AE000000040A040080B56F46C8
:105D600009490968C9050AD1094913F0F3FDD0F8BA
:105D70000021013AC0F8002122F059FA80BD034801
:105D80001CF066FA1CF00EFB04ED00E0AE00000013
:105D9000040A040080B56F4608490968C90508D19E
:105DA000084913F0D7FD026C013A026422F03FFA71
:105DB00080BD03481CF04CFA1CF0F4FA04ED00E03E
:105DC000AE000000040A040080B56F4690F8881009
:105DD000032918BF80BD2C30BDE8804000F09BBA7D
:105DE00080B56F4690F8EC10032918BF80BD1830BD
:105DF000BDE8804000F00CB880B56F4690F8F81010
:105E0000032918BF80BD2430BDE8804000F000B8F1
:105E100080B56F4690F84410032908D0042918BFB4
:105E2000052909D14830BDE8804000F074BA4830F7
:105E3000BDE88040FFF7C8BF80BD80B56F46817F59
:105E40000339012988BF80BD2430BDE8804000F0BF
:105E500000B8D0B502AF044690F82700042818BF58
:105E6000D0BD04F13C0000F0F5F9E06A228ED0E9E3
:105E70000001BDE8D040FFF772BE80B56F46417C9F
:105E8000042918BF80BD4068BDE88040FFF7C0BE50
:105E9000D0B502AF044690F83500032809D0042895
:105EA00003D0052818BFD0BD03E004F1380000F08E
:105EB0009DF9002084F83400D0BDD0B502AF04466F
:105EC00090F83500032804D0042807D0052818BF0F
:105ED000D0BD04F1380000F009F803E004F1380007
:105EE00000F084F9002084F83400D0BD80B56F46FE
:105EF00090F85010063907290AD8DFE801F00A0F98
:105F00000904091409045430BDE8804000F076B853
:105F100080BD5430BDE88040FFF76EBF5430BDE80F
:105F2000804000F059B85430BDE8804000F07FB99F
:105F300080B56F4690F82010042918BF80BD24302A
:105F4000BDE8804000F09DB980B56F4690F87C10A8
:105F5000032918BF80BDBDE88040FFF7E9BFD0B579
:105F600002AF0446007A032804D0042804D16068F4
:105F7000FFF7D8FE00206072D0BDD0B502AF044656
:105F8000807C032804D0042804D12068FFF7E6FEB3
:105F90000020E074D0BDD0B502AF0446C07903281C
:105FA00004D0042804D12068FFF7F4FE0020A0717B
:105FB000D0BD80B56F4690F83410032907D004296E
:105FC00018BF80BD5830BDE88040FFF7E5BD5830B0
:105FD000BDE8804000F040B880B56F46017C0329E1
:105FE00007D0042918BF80BD1830BDE8804000F0FC
:105FF00092B91430BDE8804000F000B880B56F461B
:10600000017C042918BF80BD1830BDE8804000F035
:1060100082B980B56F46017F042918BF80BD20304A
:10602000BDE8804000F00CB880B56F4690F858107D
:10603000032918BF80BD0430BDE8804000F05FB97F
:1060400080B56F4690F85C10032918BF80BD0830FA
:10605000BDE8804000F053B9D0B502AF044690F8D7
:106060005C00011F042906D3032818BFD0BD04F12A
:106070006000FFF702FFE06B4068BDE8D040FFF72B
:1060800082BDD0B502AF044690F82000042806D1A6
:10609000E0690078FFF75AFC002084F82200D0BDA8
:1060A00080B56F4690F84010032918BF80BD0C30B2
:1060B000BDE88040FFF7E5BF80B56F4690F844101B
:1060C000032918BF80BD1030BDE88040FFF7D9BF5D
:1060D00080B56F46C0B2032818BF80BDBDE88040C0
:1060E000FFF784BD80B56F46017B042918BF80BDD2
:1060F0008068BDE88040FFF78BBD80B56F4690F8A3
:10610000A810032998BF80BDD0F89000BDE880405A
:10611000FFF77EBD80B56F4690F8D811032918BFF0
:1061200080BD0C30BDE88040FFF7B2BE80B56F4641
:1061300090F80012032918BF80BD1030BDE88040E0
:10614000FFF7BBBE80B56F4690F8E011032918BF7A
:1061500080BD0430BDE88040FFF7DCBF80B56F46EE
:1061600090F820100339C9B2032988BF80BD044AC2
:1061700052F821100844BDE88040FFF7D7BF00BFA8
:106180008813040080B56F4690F820100339C9B217
:10619000042988BF80BD044A52F821100844BDE894
:1061A0008040FFF7C3BF00BFA047040080B56F4623
:1061B000017B032918BF80BD0430BDE8804000F09A
:1061C00055B880B56F4690F82D1041B1032918BF1E
:1061D00080BDD0E90601BDE88040FFF78BBBD0E968
:1061E0000001BDE8804021F097BDD4D480B56F4652
:1061F00090F82C100339052918D8DFE801F00317AF
:10620000170D08123030BDE88040FFF702BF303074
:10621000BDE88040FFF7F2BE3030BDE88040FFF7B8
:106220000FBF3030BDE8804000F001B880BD80B5C0
:106230006F4690F86010052907D0062918BF80BD69
:106240006430BDE88040FFF7FBBE7430BDE880409D
:10625000FFF7C6BD80B56F4690F82510042918BF1A
:1062600080BD2830BDE88040FFF7C2BB80B56F46D7
:106270004179032918BF80BD0430BDE880401CF07F
:10628000CFBB80B56F4690F8441039B1032918BFD1
:1062900080BD1430BDE88040FFF793BFD0E9010115
:1062A000BDE8804021F038BDD0B502AF044690F87B
:1062B0008800032801D028B1D0BD04F14000FFF7C9
:1062C000E0FF18342046BDE8D040FFF7E7BB80B5BB
:1062D0006F4690F8A410032918BF80BD2430BDE894
:1062E0008040FFF731BE80B56F4690F894100329C7
:1062F00018BF80BD0430BDE88040FFF75BBC80B5AF
:106300006F4690F85010032918BF80BD0C30BDE8CF
:106310008040FFF7C5BE80B56F4690F8581003293E
:1063200018BF80BD1030BDE88040FFF7C5BE80B506
:106330006F46017D032918BF80BD0430BDE8804051
:10634000FFF734BF80B56F46C0B2072818BF80BDC5
:106350000846BDE8804021F0D3BC80B56F4680BDC3
:10636000B0B502AF051D0C4634B155E90101FFF788
:10637000C1FA013C1035F7E7B0BDB0B502AF051D5D
:106380000C4634B155E9010121F0C6FC013C103541
:10639000F7E7B0BDB0B502AF00F13A050C463CB12D
:1063A00015F83A0C15F8401BFFF7CCFF013CF6E757
:1063B000B0BDE0B502AFCDE9000101A968461AF011
:1063C000E9F9F0B503AF4DF8048D8EB0054608A885
:1063D000884621F057FC0898C0B1A7F1370008A9FA
:1063E000C61C0C2221F0CBFEA7F146003146C41C8E
:1063F0000C2221F016FF0BAE21460C2221F0BFFE2D
:1064000028463146424611F02FFC01E01620287044
:106410000EB022F037B8D4D4F0B503AF2DE9000F99
:1064200089B0044604A8022122F0C6F922F0FEFB3E
:1064300002D021F0E8FC0FE021F001FDFA68102302
:106440000792BA680692054ACDE904A6009204AA0A
:106450001DF0D6FA21F08AFD21F022BE30FE0300A5
:10646000F0B503AF2DE9000F89B0044604A803215D
:1064700022F0A2F922F0DAFB02D021F0C4FC0FE0F6
:1064800021F0DDFCFA6810230792BA680692054AEB
:10649000CDE904A6009204AA1DF0B2FA21F066FD2F
:1064A00021F0FEBD40FE0300F0B503AF2DE9000F63
:1064B00099B003AE044620220D4621F060FE05F19E
:1064C00020010BAD202221F085FE30460FF04AF866
:1064D00028460FF047F814A80B21FFF772FF9DF82C
:1064E00050B0BBF1FF0F16D09DF85300E070BDF81F
:1064F00051009DF86310DDE91565A4F80100BDF8B1
:106500006100179A9DF86030ADF84C008DF84E1080
:1065100021F0C1FC33E09DF86080DDF85C90BDF8AF
:1065200061009DF86310DDE91552ADF84C00A4F848
:10653000110048468DF84E10E1744146029211F068
:1065400081FB114B82460E4620205146324620F0F8
:106550001BF80E4A2023009203AA1DF051FA0C48A2
:10656000402100902020524633461EF0ABFD094AE0
:10657000202300920BAA1DF043FA21F0F7FC84F8C7
:1065800000B019B021F0E7BD50FE030060FE03002B
:1065900070FE030080FE0300F0B503AF2DE9000F8D
:1065A00089B0044604A80C2122F006F922F03EFB33
:1065B00002D021F028FC17E021F041FC0246F868E7
:1065C0000A4B8C4607901146B86862460690102028
:1065D000CDE904A61FF0D8FF054A1023009204AAB3
:1065E0001DF00EFA21F0C2FC21F05ABD90FE03000E
:1065F000A0FE0300F0B503AF2DE9FE0F044602A88C
:1066000088460721FFF7DDFE9DF808A0BAF1FF0FCD
:1066100016D09DF80B00E070BDF809009DF81B1026
:10662000DDE90365A4F80100BDF81900059A9DF89D
:106630001830ADF804008DF8061021F02CFC1DE098
:106640009DF81860DDF81490BDF819009DF81B1036
:10665000ADF80400A4F8110048468DF80610E17466
:106660003146DDE9035B11F0EDFA074A102321F012
:1066700003FD2674C4E9015BC4F80C9084F800A003
:1066800007B021F068BD00BFB0FE0300F0B503AF56
:106690002DE9FF07044603A80D460821FFF791FEE8
:1066A0009DF80C00FF281ED09DF80F10E170BDF87A
:1066B0000D109DF81F20DDE90463A4F80110BDF85A
:1066C0001D10DDF818C09DF81C50ADF808108DF8AD
:1066D0000A202574C4E90163C4F80CC0A4F81110A1
:1066E000E274207030E09DF81C80069EBDF81D000D
:1066F000ADF8040041469DF81F008DF806003046B5
:10670000DDE9049A11F09EFA09B30246A8790B4616
:10671000002818BF0120107007210E4800900120AA
:106720001EF0D0FC0C4A062321F0F0FFFF2084F875
:1067300010802070BDF80400A4F811009DF8060038
:10674000C4E9019AE660E07408B021F098BE034AFB
:1067500021F0DDFBD0FE0300E0FE0300C0FE0300DD
:10676000F0B503AF4DF804BD054600780C46DFE8F0
:1067700000F00B512436186E7B4D9A208D151C7736
:10678000112D0E677F9E6A002046002180E0204682
:1067900010216FE06A7820460E2111E020460B217F
:1067A00076E06A782046042184E06A7820460C214D
:1067B00080E06A78204609217CE06A782046022140
:1067C0005DF804BBBDE8F04000F048BD6A782046A3
:1067D0000F215DF804BBBDE8F04000F04EBD20463F
:1067E00003210EF0FBFEC043000637D1A8782146F6
:1067F00000F0E2F80646C043000651D1D4E9010199
:1068000088422BD0697800F8011B65E06A78204641
:1068100007214FE0204601210EF0E0FEC0430006B4
:106820001CD1687802285AD001286CD12046012159
:106830000EF0D4FEC0430226000631D1A97820E034
:106840002046112116E06A782046142132E02046C5
:1068500005210EF0C3FEC043000631D002261FE022
:106860006A7820460D2125E06A782046062121E03D
:10687000204612210EF0B2FEC043022600060FD1C0
:10688000697820460EF0AAFEC04305E020460A21A2
:106890000EF0A4FEC0430226000608BF4FF0FF36EC
:1068A000304621F021BD6A782046082102E06A784E
:1068B000204613215DF804BBBDE8F04000F0ECBCBD
:1068C000D4E901018842C9D06A7821F0EBFE636007
:1068D000C4D0A978417002306060FF26E0E720460E
:1068E000022102260EF07AFEC0430006D8D1A97814
:1068F0000029C6D081290AD082290AD0832914BF51
:1069000004210321BDE7AA782046002161E7012187
:10691000B7E70221B5E7D4D4B0B502AF0546007899
:106920000C460421142888BFA0F11501C8B2DFE885
:1069300000F0031A0F1306242046002115E020461C
:1069400004210EF04BFEC04300061DD00220B0BD56
:106950006A1C2046022102E06A1C20460321BDE891
:10696000B04000F06CBC204601210EF037FE22F052
:1069700049F908BF4FF0FF30B0BD6A7820460521C5
:10698000BDE8B04000F088BC28462146FFF7E8FE8D
:10699000C14309060FD1E81C2146FFF7E1FEC143C0
:1069A000090608D1D4E901018842CFD0A97900F8BD
:1069B000011B6060FF20B0BD80B56F4680F0800095
:1069C0000A460649C0B251F8201010460EF006FEE5
:1069D00022F018F908BF4FF0FF3080BDB447040023
:1069E000F0B503AF2DE9C00704460620CDE900103D
:1069F000684600F046FD22F0F6F801D101203BE0A8
:106A0000C0074DD0684600F03CFD21F002FD02D1E8
:106A10000120354630E0C00742D0684600F031FD25
:106A2000C0F30728C1B2022902D10120454623E064
:106A3000C00735D0684600F024FDC0F30729C1B275
:106A4000022902D101204D4616E0C00728D0684631
:106A500000F017FDC0F3072AC1B2022902D10120BC
:106A6000554609E0C0071BD0684600F00AFD21F03A
:106A7000CBFC07D101201546012125542170BDE82A
:106A80000C07F0BDC0070BD065700021062015462D
:106A900084F805A084F8049084F80380A670ECE7DD
:106AA00001200E25E8E7E0B502AF014668460FF089
:106AB00091FD21F0F5FC03D19DF8011001208CBD62
:106AC000019830B1012807BF0020012101200E21CB
:106AD0008CBD002100208CBDBCB504AF05466846C6
