:1010000090D202200111000089200300495B0500F5
:1010100089200300892003008920030000000000CC
:101020000000000000000000000000008920030014
:1010300089200300000000008920030089200300AC
:1010400059110000C111000089200300892003000C
:1010500089200300892003007125030089200300F3
:101060003D12000089200300892003003112000096
:1010700089200300CD11000089200300892003008E
:1010800089200300352603008920030089200300FE
:10109000AD1100008920030089200300892003008E
:1010A0008920030089200300892003008920030090
:1010B00089200300892003000000000000000000D8
:1010C0008920030089200300892003008920030070
:1010D00089200300892003008920030049120000B1
:1010E00089200300892003008920030000000000FC
:1010F0000000000089200300000000008920030098
:1011000030F0C5FF0E480F490022814201D004C0D3
:10111000FBE70D480D490E4A814202D008CA08C0BB
:10112000FAE70C484FF47001026842EA01020260DB
:10113000BFF34F8FBFF36F8F2FF0B9F800DE0000C1
:1011400000F4022008F8032090D20220FCF30220D1
:10115000488B050088ED00E0B0B502AF4EF0D0FB43
:10116000104C206828B1002020600F48203031F05A
:1011700077FC606850B10C4D0020606005F12000E4
:1011800031F06EFC05F1300031F06AFCA06838B136
:101190000020A06004483030BDE8B04031F060BCB1
:1011A000B0BD00BF1C010040D4E2032080B56F46F3
:1011B0000248BDE8804031F053BC00BF98D3032003
:1011C00080B56F46BDE880404FF02CBFF0B503AF4F
:1011D0004DF804BD144E0020306032F069FB134D11
:1011E0000446286EF0B94FF0FF302866E86E78B1FB
:1011F000296F88420CD0D6F808140170D5E91B017C
:101200000130E866884204BF05F1640031F0FCFB60
:10121000286E0130286620465DF804BBBDE8F0402A
:1012200032F07CBB30F051FE00D100404CE3032093
:1012300080B56F46BDE8804050F090BD80B56F46E8
:10124000BDE880404FF0E2BEF0B503AF4DF8048D2D
:1012500084B0344C206858B1334D0120C4F80802E2
:1012600005F1200031F0FCFB05F1280031F0F8FB1E
:10127000E06D38B14FF40000C4F808022A48283065
:1012800031F0EEFBA06A38B14FF48060C4F8080278
:101290002548283031F0E4FBA06D28B10020A0657E
:1012A0002148203031F0DCFB206EB8B300202066EE
:1012B000D4F86C631C48C4F86C63BFF35F8F50E8CC
:1012C000061F314340E80612002AF8D10020BFF380
:1012D0005F8F8DF80C0007200DF1040802900120AB
:1012E0000190404629F082FC012817D101F01F042B
:1012F0000D4626FA04F0C00704D0284623F08CFCE3
:1013000031F0AEFB84F0100026FA00F0C007E8D000
:10131000284623F0B7FC31F0A3FBE2E704B039F034
:101320003FBD00BF00710240D4E20320F0B503AF1F
:101330002DE9000F93B0D0E90149834608468A465B
:10134000A4EB090538F032FB854201D200200BE204
:101350005046DBF8005038F029FB00EB0901484605
:101360002A46234636F0E6FC9AF80020FF2A1FD1D1
:101370009AF80420FF2A3ED13AF0D3FCBAF80800CC
:10138000012808A814BF1B211D2136F0E9FCC0B2BA
:10139000022840F0E081BAF80A1008A836F0F8FCFC
:1013A000C0B2022840F0D781DAE9031208A851E15F
:1013B000B2F10A044FF0000398BF1C46002C35D050
:1013C000012C48D13AF0ADFC08A8522136F0C8FCF7
:1013D000C0B2022840F0BF81BAF80C1008A836F05D
:1013E000D7FCC0B2022840F0B681DAE9011208A8A1
:1013F00037F09BFD35E0CDE9010100200390DFE8E7
:1014000012F00900C8005E00A4003200F2001E01C4
:10141000C5002C0101A8032136F0A2FCC0B20228AD
:1014200040F09981BAF8061001A88EE108AC0A2AAA
:101430000BC400F2A581DFE812F00B0018013501A2
:1014400038016C014A017601A301A301A301150132
:1014500008A810210BE13AF064FC08A81E2136F020
:101460007FFCC0B277E101A8092136F079FCC0B257
:10147000022840F07081DAF8144001A8214636F0C5
:101480006FFCC0B2022840F066810AF10802119494
:1014900039F00BFF08A8294638F04BF99DF82000D9
:1014A000FF2840F0578139F0AAFEC0B2022840F070
:1014B00052813AF07AFAC0B20228EBD04BE101A88F
:1014C000052136F04DFCC0B2022840F044819AF864
:1014D000144001A8214636F043FCC0B2022840F077
:1014E0003A810AF108028DF81C400DF1380807CA4C
:1014F00004AB07C308A80430009001AC08A804A9F5
:1015000038F067F9BDF82000002840F02381009AE8
:10151000A446BDF82210404678CA78C064461278C6
:101520000270604636F034FCC0B2022840F01381ED
:10153000404636F00BFC3AF056F920461A4637F092
:10154000F4FCC0B20228D9D005E101A8012136F08F
:1015500007FCC0B2022840F0FE809AF8051001A8EE
:1015600036F0FEFBC0B2022840F0F580BAF8081051
:1015700001A836F00DFCC0B2022840F0EC80DDE995
:101580000230834240F0F3800020E4E001A80D2106
:1015900057E001A8072136F0E3FBC0B2022840F073
:1015A000DA800AF108020DF1200839F07EFE40468B
:1015B000294637F055FE9DF82000FF2840F0CA80EC
:1015C000BDF822103046BDF8244036F0E1FBC0B231
:1015D000022840F0C0803046214636F0D9FBC0B228
:1015E0000228E4D0B7E001A8112136F0B9FBC0B25F
:1015F000022840F0B080DAF8144001A8214636F005
:10160000AFFBC0B2022840F0A6800AF10802119494
:1016100039F04BFE08A8294638F08BF89DF82000D9
:10162000FF2840F0978039F0EAFDC0B2022840F070
:1016300092803AF0BAF9C0B20228EBD08BE001A850
:101640000B2136F08DFBC0B2022840F08480DAE92D
:10165000021201A837F069FC79E001A8132136F0E5
:101660007FFB74E008A80C215FE008A8082136F091
:1016700077FBC0B202286ED1BAF8121008A836F073
:1016800087FBC0B2022866D1BAF8141008A836F059
:101690007FFBC0B202285ED10AF1010108A837F031
:1016A00009FE54E008A80A2135E008A8122136F006
:1016B00057FBC0B202284ED1BAF8021008A836F083
:1016C00067FBC0B2022846D1DAE901126EE608A82B
:1016D000062136F045FBC0B202283CD1BAF8021010
:1016E00008A836F055FBC0B2022834D1BAF804106D
:1016F00008A836F04DFBC0B202282CD1BAF806106B
:1017000008A836F045FBC0B2022824D1DAE902125B
:101710004CE608A8022136F023FBC0B202281AD1F9
:10172000BAF8021010E008A8042136F019FBC0B284
:10173000022810D1BAF8021008A836F029FBC0B26E
:10174000022808D1BAF8041008A836F021FBC0B26C
:10175000022800D10220022806D1504638F026F98E
:101760004844CBF80800022013B039F07ABA019A45
:10177000411C9AF8064036F0DDFA21B10470E9E721
:101780000F2030F018FA38F05EFEF0B503AF4DF8D8
:1017900004BD82B00446D0E901300D46191A04296F
:1017A0000BD3061D226839F04CFFCDE900016846D5
:1017B0002946042223F03EFA08B1002001E002206D
:1017C000A66038F096BF80B56F46002180F82610DD
:1017D00040F60601418480BD80B56F46002101734B
:1017E00001490131016080BDD4E2032080B56F461C
:1017F00045F2C472815010440021817180BDD4D45F
:1018000080B56F46DFF874C0044600254DF6684089
:1018100040F2011285422FD02B18654405F11806BD
:1018200056E8001F21B946E800210029F8D103E05D
:10183000BFF32F8F1D46EDE71148686205F12800C0
:101840002146FFF7D3FF2046294630F02FFE002522
:10185000BFF35F8F54E8000F44E800510029F9D12D
:10186000BFF35F8F30B1C669C5614576416A88476D
:101870003046F7E720BFEBE739F0DCFE68F40220E2
:10188000A5200200F0B503AF2DE9000B94B004468B
:10189000F8680DF13C0839F0C0FC9DF83C00FF28C9
:1018A00003D040F6032020801DE0A7F14E0008F190
:1018B0000401851C38F099FF02A82946861C38F0DF
:1018C000E6FD0BAD314638F090FF3AF0A5F82078F0
:1018D000FF2808D039F056FB044830F0FDFB39F002
:1018E0009DFA30F051FD14B039F0B5B9A4010000F3
:1018F000F0B503AF2DE9000FCDB0FE68D7F8088032
:10190000CDE91D2056F870AFD8F84400C346CDF895
:10191000AB00C1465BF8410FD6F808E02A90D8F832
:101920003D00129316917268F568D6F810C073697D
:10193000B169F469CDF8CB0059F83A0F2192CDF88E
:1019400070E01B95CDF868C0199320911F943290D8
:1019500032A88DE8120454460DF1F80ACDE9032EA1
:10196000624605952AA9CDE90610A6F13001504638
:1019700022F09EF922A89AE82E002EC042981190DB
:101980004398109044980F9045980E90306A1890A4
:10199000706A179008F14E00D6E90AA538F053FB9B
:1019A00020F07F40CDE90A0B209800901F98CDE9E8
:1019B0000104219803901C98CDE908A504900546E0
:1019C0001B98CDF854B00590834618980690179848
:1019D000CDF84C90CDF830901494079026A822A909
:1019E0001A9A199B9146984622F088F81D9810285B
:1019F00004D126A8169924F0B5FD30B11E99FF2018
:101A0000087040F6033088805EE0D6E90C40D7F8D5
:101A100008A01D90B06B18900AF14800F66B38F0E2
:101A200012FB20F07F400A9013980B9015980C90B1
:101A3000209804901F981899CDE905041D98CDE9C8
:101A40000816CDE9005BCDE9029807902AA822A9E3
:101A5000149A219B22F052F8DDE92C01DDE92A23BA
:101A6000CDE900013EAC204604F0F5FE9DF8F850AB
:101A7000FF2D0AD0611C32AC38F073FF1E9E214648
:101A800039F0CAFD3571FF201DE00DF1C809211D97
:101A900009F1030538F0A9FE2EAE294638F0F7FC0F
:101AA000129C0DF1F80832464046214623F0E9F930
:101AB0009DF8F850FF2D0AD01E9E08F1010139F063
:101AC000ABFDFF20357130704DB038F0F8BF9AF89B
:101AD000380002239AF84A100DF1F8089AF85020BD
:101AE000022801F0030008BF012302F0030180F087
:101AF000010081F0010108430F990091B0FA80F0D4
:101B00000E994009CDE901132146DDE91032039019
:101B1000404623F0E9F99DF82161022E09D198E8A9
:101B20006E0048466EC01E9E99E83E00301D3EC0C5
:101B3000A9E732AC3EA9292238F0E9FFBDF8260119
:101B40002146ADF830012922DDF822014B903EAD4F
:101B500038F0E0FF50462946292253F016FE4B98F4
:101B60001E99CAF82A00BDF83001AAF82E000A20F2
:101B70008AF829600870A7E7102B7DD1F0B503AF74
:101B80002DE9000F9DB009908846F868137800F1A0
:101B90006006D2F80100D2F80540D2F8095043EAB5
:101BA000002C39692B0243EA1463240244EA1060D2
:101BB000D47BB2F80D20C6E900C042EA044212020A
:101BC00042EA1562C6E9023218A803F02DF806F1C0
:101BD000300A189806F11003F66B1A9A08F07F0481
:101BE0001999DDF86CB0069283E80708A4F1400269
:101BF0000791314608909AE82006504653F018FCA9
:101C0000CDF81480804628464946224653F010FC01
:101C1000C4F14002814650463146D7F80CA053F03B
:101C20001DFC0AF1200103910699402CCDE901BA6F
:101C3000009138BF49EA00082948002C08BFA8468F
:101C400039F0F8FF0AA8DDE9073221F0BBFFDDE932
:101C50000C01DDE90A23CDE9000118AC204604F0AF
:101C60004BFD9DF86050FF2D0CD0611C0FAC38F07F
:101C700078FE099E21461FE0FF21017040F60321F6
:101C800081807047DDF814900FA8C61C211D10221A
:101C9000D7F8088038F038FF14AD314638F0A5FD8C
:101CA00018AC41462A46204623F0EBF89DF86050D8
:101CB000FF2D09D0099E611C39F0AEFCFF20357163
:101CC00030701DB038F0FBBE099C5146B02204F1C3
:101CD000080053F0ACFA0620C4F804902070F0E736
:101CE000C0FFFF7FF0B503AF2DE9000B94B00446B1
:101CF000F8680DF13C0839F090FA9DF83C00FF2897
:101D000003D040F6032020801DE0A7F14E0008F12B
:101D10000401851C38F069FD02A82946861C38F0AC
:101D2000B6FB0BAD314638F060FD39F075FE20781A
:101D3000FF2808D039F026F9044830F0CDF939F001
:101D40006DF830F021FB14B038F085BFA30100001E
:101D5000F0B503AF2DE9000F9FB08246880701D48C
:101D600011206FE0D56B934605F108030FCB41EAD4
:101D7000030440EA0206344311BF8DE80F0000203F
:101D8000CDE90200CDE9000016AE6946304604F008
:101D900095FD9DF85840FF2C3DD111A8311D00F153
:101DA0000308102239F008F90AAE414638F06FFBFB
:101DB0000DF158095946324639F0BEFF9DF858409A
:101DC000FF2C30D12868C10741D06968000A0A0E8B
:101DD0008DF83E200A0A40EA0160ADF83C200E90E2
:101DE00016AE0EA9304604F09DFD9DF85840FF2C1C
:101DF00011D1311D404638F03AFF1BAE414638F054
:101E000046FB05A85946324623F03BF89DF814409E
:101E1000FF2CA5D00DE011AD711C132238F07AFE15
:101E200005A8294602E005A809F10101013038F0B2
:101E30004CFE05A90AF10500013138F046FEFF20ED
:101E40008AF804408AF800001FB038F038BE052434
:101E5000EFE7F0B503AF2DE9000F8BB0044602A801
:101E60000E460021924604F01DFC9DF80800FF2854
:101E70001ED09DF80B10E170BDF809109DF81B20D5
:101E8000DDE903C5A4F80110BDF81910059E9DF801
:101E90001830ADF81C108DF81E202374C4E901C55C
:101EA000E660A4F81110E27420700BB038F007BEA1
:101EB0009DF818B0059DBDF81900ADF8040059460D
:101EC0009DF81B008DF806002846DDE9038920F007
:101ED00040F902460B4606F1480011461A4638F012
:101EE00056F9C0B202281CD1BDF804005146ADF825
:101EF00029009DF806008DF828B00995CDE90789DD
:101F00008DF82B0002AD07AA284622F0BAFF9DF8F3
:101F10000860FF2E10D0601C691C38F0D6FD2670BA
:101F2000C3E705204946207040460BB0BDE8000FCE
:101F3000BDE8F04038F008B9FF20B5E7F0B503AFD1
:101F40002DE9000F9FB00D46B968069314460B901B
:101F50001AA802F069FE1A9804F170061C9A05F09E
:101F60007F0504F1900B1B991D9B0FC60892A5F1EC
:101F700040020A909BE8400E50460991594607934B
:101F800053F056FA8046304649462A4653F050FAF6
:101F9000C5F1400281465046594653F05FFA04F1BC
:101FA0002001402DCDE90241079901910899009146
:101FB00038BF49EA00082448002D08BFB04639F070
:101FC00039FE0CA8DDE9093221F0FCFDDDE90E0146
:101FD000DDE90C23CDE900011AAC204604F08CFBAE
:101FE0009DF86850FF2D0BD0611C11AC38F0B9FC86
:101FF0000B9E21461322701C53F0C7FB35701FE067
:10200000DDF82C8011A8C51C211D38F0EEFB16AEA2
:10201000294638F03CFA1AAC06993246204622F09E
:1020200030FF9DF86850FF2D07D008F10100611CBA
:1020300038F04BFD88F8005002E0FF2088F80000DF
:102040001FB038F03CBD00BFC0FFFF7FF0B503AF4D
:102050002DE9000FB5B016461D46CDE91210B04669
:10206000D6F83D000DF1A00C55F8702FCDF8A30067
:1020700058F83A0F289056F8410FD5F808906B6839
:10208000D5F80CA0D5F810E0D5F814B0AC69E96922
:102090002C90D6F8030014921593CDF86C90CDF8DF
:1020A00068A0CDF864E0CDF860B017941691CDF833
:1020B000B3002CA88DE800460DF18009CDE9051C80
:1020C000A5F1300107904846CDE903B421F0F0FDB9
:1020D0001CA899E81E0005F1300B1EC02498119031
:1020E0002598109026980F9027980E90F01D9BE849
:1020F000100AD5F83CA037F0A6FF20F07F40CDE9CC
:102100000A08DDE91A10CDE908BA0C96CDE90001FC
:10211000199802901898039017980490169805A99A
:1021200081E8110228A81CA9DDE9142321F0E6FCAE
:10213000DDE928230DF18009DDE92A01CDE900015F
:10214000484604F088FB9DF88060FF2E0ED02CAC32
:1021500009F1010138F005FC139D21461322681D89
:1021600053F013FBFF202E71287052E0DDF84C80F5
:102170002CA8C61C09F1040138F089F931AC3146AC
:10218000102238F0C4FC0DF180091299224639F072
:10219000D3FD9DF88040FF2C0BD008F1050009F11C
:1021A000010138F092FCFF2088F8044088F8000014
:1021B0002FE005F1200B464608F11804ED6A9BE874
:1021C000000D09F107001CA938F051FD0B2049460C
:1021D00006F8010B172238F097FC199804F12C012E
:1021E0002062189860621798A0621698E56381E8EB
:1021F000010D11982060109860600F98A0600E98F3
:10220000E06014982061159860611B98A0611A988D
:10221000E06135B038F053BCF0B503AF2DE9000FE5
:102220008BB004460220ADF80A0001208DF80800AA
:102230001E462B4888468DF80920039007A837F0E2
:1022400047FF079DDDB3DDE9089BFB20D7F808A019
:10225000CDE904B00020069004A803A9FFF795FA81
:10226000C0B202281AD104A802A9FFF78EFAC0B2A0
:10227000022813D1DDE90530191A02290CD3049A7A
:10228000811C019135F056FDCDE9070107A83146C3
:10229000022222F0CFFCB8B1042004E0C0074FF0C6
:1022A000040018BF0D2001212070617028464946A6
:1022B0000BB0BDE8000FBDE8F04037F045BF162079
:1022C00020700BB038F0FBBB019851460A9007A86C
:1022D00080E8200A07AB2046424621F01BFAF0E7CF
:1022E00006000500DCB504AF10CB5031009431F08E
:1022F00087FFDCBD91F8673301F51472012B12BF23
:1023000091F8561202F58C720121A0B1D0B502AF3E
:102310009388B0F8154112686340D0F811416240CB
:102320001A4390F817315940C90718BF0020002AF6
:1023300018BF0020D0BD00207047D4D4F0B503AF43
:102340002DE9000792B06D4688468146284648210F
:1023500053F017F8D8F80C4048262946482C38BFC7
:1023600026463046482236F002FE0546D8F80800D8
:102370008A46214622F000F98E424DD80246284670
:10238000514639F0F3FB022C09D22C482FF0A4FE61
:1023900030462FF093FE2FF0F7FF0A2019E09DF84A
:1023A0000000441EE5B20E2D12D22046A6F1010A0D
:1023B0001FF0C8FF80B282451BD109F101006946B8
:1023C000482253F0E2F9C9F84C6089F8004008E06F
:1023D000072089F80500032089F80400FF2089F808
:1023E0000000D8E9000137F0AFFE12B0BDE80007E9
:1023F000F0BD0C482FF070FE0B480C4CA0470C4869
:10240000A0470C480C4950F8250051F825102EF033
:10241000F7FD0020A047BEE70B460020314639F00B
:1024200019F900BF99010000120000009520030077
:10243000EB020000B0760500787605009A010000F6
:10244000F0B503AF2DE9000F95B01C788046FF2C46
:1024500015D045481D4616468A4693F801B02FF020
:102460003BFE42482FF016FE284636F0F5FB032CC3
:1024700018BF4FF0080B2FF087FF192C05D1FF2054
:1024800088F8000015B038F01ABBB6F858430FA80A
:1024900037F01EFE0F98002848D0A7F143000094A3
:1024A000C51C0FA90C2238F035FBA7F152002946B4
:1024B000C61C0C2238F028FB12AD31460C2238F035
:1024C00029FB02A8294604221FF052FE9DF80800AD
:1024D000DDE903549DF81860FF28DDF8149026D13B
:1024E000484631461FF035FEE1B380F800B0304673
:1024F0001FF028FECDE904904046CDE9025402AD1C
:10250000009A51462B4621F005F998F80000FF2863
:10251000B5D098E85E0028465EC015482FF0DCFD77
:10252000284636F08BFB2FF02FFFABE716209DF8E7
:102530000B1088F80310BDF809109DF81B20A8F8AF
:102540000110BDF81910ADF804108DF8062088F8B8
:102550001060C8E90154C8F80C90A8F8111088F868
:1025600013208DE737F06FFF92010000CE020000CC
:1025700097010000F0B503AF4DF8048D92B00DF156
:1025800004080D4606461146404644221C4653F0B8
:1025900057F8B8682946009030464246234600F076
:1025A00005F812B05DF8048BF0BDD4D4F0B503AFDC
:1025B0002DE9000FADF29C6D189301F1780A179088
:1025C000DCAE91F8C84006F1600B90460D46022C37
:1025D000199132D10DF168092946C822484652F0B6
:1025E00026FE152028710E2028709DF8685098F856
:1025F00000000C2D00F2118306F17004DFE815F0E5
:102600000D008C0142012801C9000A01DE010D0301
:102610007402C5020D03AA029700FF2804BF98F8B0
:102620000C10002900F01E87411E0329C0F0B7825C
:10263000002840F0EE8200F056BF0DF50C792946D7
:10264000C8221AAE484652F0F2FD15209DF830120D
:102650002871122028700F2998F8000000F2B48524
:1026600006F16005DFE811F01000BF0301039D04CF
:10267000CD04B0057903DE032004B005A9053005BB
:10268000B005B005E5028603FF2804BF98F80C20CA
:102690000A2A40F09985D8F80800002802F08982BB
:1026A000199D0C22D8F8041095F81901032808BFC9
:1026B0000822DDF860A0DAF8383093F8700393F858
:1026C0007133024485F81A210C7813B1012185F881
:1026D00018110DF59F6858B195F81C0195F81D115A
:1026E00040F0030085F81C0141F0030185F81D113D
:1026F0001AA8514622F047FD9DF891000DF55C792E
:10270000022807D0600741F1BB829DF890000228A3
:1027100001F0B682DCAC38F02CFF39F064FB01F03C
:10272000138238F00CF98DF8FC5401F0BEBAFF2882
:1027300004BF98F80C10082940F02E82D8F8082021
:10274000002A02F03682D8F804000478022C81F0C6
:1027500016800DF59F68062A42F22582199A50F8D4
:10276000011FDDF860A0C2F811118188A2F81511CF
:1027700092F8F91082F81741022900F0F786818853
:10278000A2F8F4100068C2F8F00082F8F64000F0F9
:10279000EDBEFF2804BF98F80C10022900F04D860A
:1027A000042800F23D82DFE810F0E406FA01FA01A5
:1027B0000500E4060DF59F600DF59F6B00F1900597
:1027C0001998902200F11801584652F030FDDCAE05
:1027D00009F10101112238F097F90024D8F804001A
:1027E000C5E90004C5E904049DF87003C5E9024485
:1027F000C007C5E9064401F05585DDF860A0721CEC
:10280000B8680021CDE900AB102302908CA8FFF737
:10281000B3F9CAE1FF2804BF98F80C10022940F070
:10282000BB8119980DF59F64B02200F10801204684
:1028300052F0FDFCD8E90123A046DDF860A0B8689D
:102840001B99CDE900A402908CA8FFF795F9AEE1A1
:10285000042800F2E387DFE810F08C060500C207C9
:10286000A2018C069DF86900002801F06F8119997A
:1028700009F118001022D031CDE9001009F1020150
:1028800000F03FBFFF2804BF98F80C10032940F068
:102890008381199D4CA8702238F013FBDAF80000F0
:1028A00005F1980116902022DAE901B9DAF80C60F6
:1028B000C6A852F06AFF38F0B7FB40F09587D8F809
:1028C00004000DF59F6A169A5B461596D0F809101C
:1028D0001491D0F80110139101781291C17B1191DC
:1028E0001899D0F80550B0F80D0010905046CDE979
:1028F00000965E46FEF7C6FF9DF8F884B8F1FF0F1C
:1029000001F067828CA80AF10101053038F0DDF88A
:102910008DF8348200F0A3BFFF2804BF98F80C1094
:102920000B2940F03981D8E901120DF5467840466F
:1029300037F053FBDDF860A02022DAF82C10BEAC93
:1029400038F0E5F8DAF830104CAE37F0B4FF0DF59A
:102950009F69214642463346484637F081FA9DF842
:10296000F804C00700F045879DF8FB0409F1060153
:102970008DF806021222BDF8F9049DF8FC449DF87A
:10298000FD64ADF804027CA852F0FFFE09F11800C6
:1029900079A90DF59F6A0CC80CC1007808704CA984
:1029A000504603F0EFFE9DF8F804FF2801F06B821B
:1029B0000A2003258DF8710301F091BAFF2804BFA6
:1029C00098F80C10032940F0E78039F0F3F8DCA800
:1029D00052F02DFC38F028FB40F01487D8F80400A2
:1029E0001B9DDBE90E98D0F801100278129505F0D6
:1029F0007F0542EA0122CBF820201692D0F8093058
:102A0000D0F805201C0244EA1264120242EA116165
:102A1000CBF82840CBF82410C5F140021591C17BBA
:102A2000B0F80D00149440EA01404146000240EA2B
:102A3000136A4846CBF82CA0DBE90C6452F00EFD7B
:102A40001390304621462A4652F0F2FCA5F140028E
:102A500004464846414652F0EBFC1399402D38BFDE
:102A600044EA0100EE49002D08BF3046DCAA61F3BC
:102A70005F00149B02F12001CDE9003ACDE902127A
:102A80000490BEA8DDE9153221F09CF8DBE900AC2A
:102A9000DDE9BE648CEA0401DBE90289DDE9C035C9
:102AA00089EA050008438AEA060288EA030111431D
:102AB000084341F05F80DBE904230DF59F64DBE907
:102AC0000601CDE90001204603F039FE9DF8F854D7
:102AD000DDF860A0FF2D01F0F584611C4CAC37F0EF
:102AE00040FF8CA821462EE0FF2804BF98F80C1068
:102AF000032951D139F05EF8DCA852F098FB38F088
:102B000093FA40F08486D8F8040004F1100538F0F8
:102B100055F80EC5B968E061204602F085F8DDF889
:102B200060A0D4E90201D4E900230DF59F64CDE94A
:102B3000000151462046FEF7A5FE39F050F901F09C
:102B4000E0818CA8611C053037F0BFFF8DF834524E
:102B500000F053BEFF2804BF98F80C1007291BD1C2
:102B600038F062FA40F07886199890F8F900022857
:102B700008D0D8F804000AF1680438F01FF80EC431
:102B8000CAF874000C2000F06BBEFF2804BF98F850
:102B90000C100C2900F0AD85411E032936D28CA8FB
:102BA0001AA938F0CBFFDDF860A00DF59F689DF8FD
:102BB0003002FF2800F0E4840DF50C790DF59F60DC
:102BC000C822494652F033FB9DF8F8040E2800F065
:102BD000E184199D0D2840F0FD8495F8F980B8F145
:102BE000020F00F0F78495F81A0100F003000128A5
:102BF00002BF95F8200100F00300012800F02785AE
:102C000095F8F8C04FF0020800F04EBD002800F023
:102C10006884042804D100F0ACBCFF2840F056843E
:102C200098F80C00042800F0EE830D28B7D000F0CF
:102C3000A0BCFF2804BF98F80C20072A40F0C482EB
:102C400038F0F2F940F09E86199D95F8F9000228B7
:102C500008D0D8F804000AF1680437F0AFFF0EC4BA
:102C6000CAF874000F2000F092BEFF2804BF98F845
:102C70000C200B2A40F0A882BEAE09F104012022EC
:102C800037F042FFDDF864B00DF5467940220BF1D4
:102C9000240A4846514652F078FDD8E901124CAC5E
:102CA000204637F09AF90DF55C78314622464B46BE
:102CB000404637F0D5F89DF87003C00700F06A86EB
:102CC0009DF8730308F106018DF8AA001222BDF8E1
:102CD0007103ADF8A800BDF874431AAE06F14500C3
:102CE00052F053FD06F1570008F1180138F086FD47
:102CF00006F120004CA937F0E5FE304637F058FCCD
:102D000028465021ADF8AB4052F0E8FC9BF8080192
:102D1000811E38BF0221DDF860A0C9B2022901F08E
:102D20002F820DF55C79032941F049820F2038F09C
:102D3000CBFEDAF83820D6AEDCAC38F0A7FC9DF834
:102D40005853FF2D41F0E483E01D1AA938F060F8D4
:102D500009200DF59F6801F0F4BC98F80C10FF28CD
:102D600008BF022900F04D84DDE918A5FF2800F016
:102D7000318276E2FF2804BF98F80C20082A40F040
:102D80002382D8F80820002A01F01387D8F804001D
:102D9000DDE918A50478022C80F03B860DF59F68CC
:102DA000062A41F2008750F8011F0DF55C79C5F83D
:102DB00011118188A5F8151195F8F91085F81741BA
:102DC000022907D08188A5F8F4100068C5F8F00042
:102DD00085F8F64095F822110DF59F605246FEF7F2
:102DE000B7FF00F0A3BFDDE918A5FF2840F0FA8285
:102DF00098F80C100A2900F0DA85012940F0EA81E0
:102E0000D8E90112DCA837F0D2F99DF87003022846
:102E100040F0CE860A2037F012FD01F08BBA00BFD9
:102E2000C0FFFF7FFF2804BF98F80C20022A40F063
:102E3000CB81199DDCA8602238F043F89AE850084D
:102E400005F188013022DAF80C901AA852F09DFCA6
:102E500038F0EAF840F0F683D8F804000DF59878D9
:102E6000224633468D9D016816914168159181680F
:102E700014911899C06813904046CDE900B9FEF747
:102E800031FF9DF830A1BAF1FF0F01F0B1800DF5CF
:102E90009F6208F10101501D904637F016FEFF2099
:102EA0008DF8FCA401F0C8B8FF2804BF98F80C20E6
:102EB000032A40F08981199DDCA8B02238F001F87E
:102EC00038F0B2F840F075858D98DBE90EA900F076
:102ED0007F04DBF83410A4F14002DBF83050159188
:102EE000494614905046D8F80460169552F0A0FA5E
:102EF000159980462846224652F09AFAC4F14002BB
:102F000015905046494652F0A9FAB368F568D6F8CC
:102F100000907268DCA9039120310291402CCDE928
:102F20001253CDE90035159938BF41EA00081698CB
:102F3000002C08BF8046E34838F07CFE90461AA873
:102F40004A46434620F03EFEDBE900C1DBE90223AE
:102F50001AAE1D9870CE69405840084386EA0201B7
:102F600084EA0C021143084340F02B861499DDF8E3
:102F700060A0CBE908980DF59F6813981329CBF84A
:102F800028001298CBF82C0041F0D981DCAB199DB8
:102F90000DF59F60514605F1D002FFF757F800F09C
:102FA00044BDFF2804BF98F80C20022A40F00C8191
:102FB00038F000FE1AA852F03AF938F035F840F02F
:102FC0004183D8F8040037F0F9FD85E80E00B968B0
:102FD000E86005F1100001F027FED5E90601D5E90A
:102FE0000423CDE90001DCAC38F0C9FA38F0FBFE6F
:102FF00040F09086E01D1AA937F00AFF042000F087
:10300000E1BEFF2804BF98F80C20032A40F0DC80C2
:1030100019980DF1680BB02200F10801584652F0E2
:1030200006F938F001F840F00D83D8F804000BF1F0
:1030300020028168D0F80CA0D0F80490D0F800806D
:103040000020CDE9001ACDE915214B46CDE9022B30
:1030500042460490C6A820F0B5FDD5E902E3DDE9BB
:10306000C646DDE9C802D5E900C15A40714080EA90
:103070000E0011438CEA04021043084340F0AE8571
:1030800005F11003169CC5E908890FCBC5E90A4A6A
:10309000159DCDF800B001AE86E82003CDE9044AC5
:1030A00020F0CEFD199D044695F80801022841F054
:1030B0005E8185482FF010F838F028FB2FF064F976
:1030C0000DF59F601AAB37E3FF2804BF98F80C207A
:1030D0000C2A79D1DCA8199C00F11005DCA804F1B8
:1030E0000801502252F0A3F8D8E9010105F1280B9C
:1030F0000E902869139068691290A8691190E86988
:103100001090286A1490686A1590686B0F9004F507
:103110008F709BE8000B1691D5E90EA636F093FF51
:10312000D4F8142120F07F40D4F81111CDF83321C8
:103130004C91D4F80D21D4F80A11CDF86B201A91D6
:10314000CDE908A60A904CA80B901AA80C901398E9
:10315000029012980390119804901098CDE9050BF5
:103160000F98CDE900890790D6A8DCA9DDE91423E2
:1031700020F0C4FC1698102806D1D6A90E9823F08A
:10318000F1F9002800F033854FF00B090325DDF835
:1031900060A00DF59F68BEA908F10600122252F04A
:1031A000F4FAFF208DF8FD948DF8FC540DF55C7950
:1031B0008DF8F804199D00F0BBBDFF2804BF98F8F6
:1031C0000C20032A00F0A582FF280BD198F80C10E0
:1031D000DDE918A5042924D037F031FB0D2900F0D2
:1031E00006810BE1DDE918A50539082900F2FA800E
:1031F000DFE811F009003700F800F8009000F8004F
:10320000F800DC00F500012800F0DF8237F017FB42
:10321000022840F0F38040F60340ADF8FC0400F0D3
:103220008ABDD8F808000DF55C79002801F0C1844A
:10323000D8F80400047825482EF04EFF601EC0B276
:10324000102828BF0824204635F0A6FD2FF09CF852
:1032500003208DF8FD448DF8FC040DF59F6800F007
:103260006ABD032840F0BE80DCAE05F11801902253
:10327000304651F0DCFF0020D8F80410CBE90C10E8
:103280003246CBE910100021CBE90E005346CBE9C2
:103290001200B8689DF8315200901AAC2046FEF733
:1032A0004DFE9DF86860FF2E00F08C830DF59F6841
:1032B000611C08F1050037F008FC8DF8FC6400F093
:1032C0002FBD00BFC0FFFF7F7D0000003201000066
:1032D0008862050069000000330100009D010000C4
:1032E00068000000A1010000A70100009F0100008C
:1032F00090010000980100006700000001900300A9
:10330000A9010000930100009C01000002010000DF
:103310008E010000042865D105F108011AADB02224
:10332000284651F084FFD8F8010008F121041690D6
:103330002022D8F80D002146D8F805B0D8F809A009
:1033400015904CAE37F0E0FB5FF87C10204623F080
:1033500009F940B95FF8881006F1100023F002F96E
:10336000002800F0A78429460DF598792031002027
:1033700099E860033346CDE90089CDE902112A4678
:103380000490DCAC204620F01DFC4CA800F110019C
:10339000204623F0E7F8002800F09084FF208DF805
:1033A000F80440F20340ADF8FC044DE1D0B998F8C0
:1033B0000100002800F087835FF8E8002EF098FEF7
:1033C00095F823010DF59F68800700F13A8695F87E
:1033D00022110DF59F605246FEF7BAFC25E3002846
:1033E00000F0E78137F02BFA0138022806D20DF5FC
:1033F0009F608CA938F0A2FB00F098BC15208DF8D6
:10340000FC0400F098BCD8F80800002801F0D18333
:10341000D8F8040004785FF840012EF05DFE601ECD
:10342000C0B2102828BF0824204635F0B5FC2EF085
:10343000ABFF8DF8354203209CE037F0F5FD40F0FE
:103440008781D8F804108CACA01C37F010FC1999B7
:103450000DF59F6838F05FF837F075FCDDF860A077
:1034600004207DE118990DF59F60D8E901A921F0AC
:103470008AFE9DF82105022819D00D200DF59F68C0
:103480008DF8F80418984346816A826BDCAC38F0FA
:10349000EBF99DF87003FF2809D037F073FD5FF852
:1034A000C4012EF019FE37F0B9FC2EF06DFF0DF5BA
:1034B0009F6051464A4636F07AFE9DF8F844022C49
:1034C00040F0528137F084FB0A20B7E2072D08BF95
:1034D000042800F0C981411E0329FFF460AB0028D5
:1034E00047D10A2D45D198F80100002800F0278126
:1034F0005FF814022EF0FCFDDDF860A00DF59F686A
:103500000DF55C793DBB0DF59F645146204621F0D9
:10351000E8FD9DF82155FF2D00F0FD86DCAC0DF592
:103520009F61292237F0F3FADDF822052146199E22
:1035300029228890BDF82605ADF8240206F1D000B6
:1035400052F023F98898C6F8FA00BDF8240286F8EC
:10355000F950A6F8FE00199991F81D01800700F1B5
:10356000A78291F82201800700F140850D2001F02B
:10357000DFB815208DF83402DDF860A00DF59F68E6
:103580008CA808F10401043090E87C000E207CC176
:103590008DF8F8040DF55C7908F1040109F10400D7
:1035A00027F08CF90C2038F08FFA4B46DAF83820E7
:1035B0004CAC38F059F938F06DF90AD038F057FBB7
:1035C0005FF8E0022EF088FD484635F037FB2EF01C
:1035D000DBFE199D0DF59F61284638F0AFFA8CACE3
:1035E0002946204635F05CFDFF208DF870039DF8DC
:1035F0003002DCAEFE2818BF2646179D96E81F0055
:10360000D6E3DDE918A537F00FFD40F0C980D8F802
:1036100004100DF59F6808F1020037F028FB0DF546
:103620005C7905F1180109F1060037F0F1FB012082
:1036300049468DF8F90408F11200B62252F0A5F8B7
:10364000062034E337F05AFB37F0C2FA6BE34CAE96
:1036500005F1D00451463046224621F0E8FC38F00E
:1036600019F910D00DF55C7A96E83E0050463EC040
:103670005FF88C0338F05FFA504605F1D00435F05E
:10368000DDFA2EF081FE206805F1E00C1690AB46C5
:1036900060681590D4E902AE4C469CE86F006FC498
:1036A000DDE915209BF8F8C0CDE9E0AE0DF55C7EB4
:1036B000CDE9DE020EF118018DF871C399E87D00A5
:1036C000F1467DC10B2073468DF8700318988DF874
:1036D000A1838DF8A0C3816A826B4CAC38F0C4F82A
:1036E00038F0D8F83FF475AF38F0C1FA5FF8040449
:1036F00068E7199B09F10800D8E90112D033CDE938
:1037000000308CA8DDF860A05346FEF7F1F8FFF713
:103710004CBA199DDCA8B02237F0D3FB37F084FCFB
:1037200040F04B81D8F8040037F048FAFF90FCA82D
:103730000EC0DCAB0DF59F60DDF860A049E05FF8DE
:1037400050042EF0D5FC38F05EFB40F603702BE2FF
:103750000520DDF860A08DF83402FF200DF59F688C
:103760008DF83002FFF725BA9DF8FA540DF59F68E1
:10377000DDF860A0280700F15B8103205EE15FF8BF
:103780008C042EF0A9FC37F065FD2EF0FDFDDDF870
:1037900060A005200DF59F688DF8340200F0C7BFCA
:1037A00005200DF59F688DF8FC04FF200DF55C7970
:1037B0007DE298F80100002800F092815FF8C804CB
:1037C0002EF096FC112000F043BC09F108030DF522
:1037D0009F6005F1D0025146FEF738FC23E140F628
:1037E0000340ADF83402C7E640F60320ADF83402DA
:1037F00035E040F60330ADF83402FF200DF59F6848
:1038000000F096BF38F0FFFA40F60320CCE138F024
:10381000FAFA05208DF83402FFF7C5B99DF8690062
:1038200000287FF4FDA998F80C000C287FF4F8A973
:1038300037F0FAFB40F0C086D8F804108CACA01C1E
:1038400037F015FA19990DF59F6837F064FE37F0D7
:103850007AFA032000F0B6BE05208DF83402FF206E
:103860008DF83002FFF79FB9199C0DF59879B022B9
:1038700004F10801484651F0DAFC08F121060DF583
:10388000467A20225046314651F07FFFD8F8010099
:103890001690D8F809005FF8C8151490D8F80D00F4
:1038A00015903046D8F8055094F81EB135F0A0FBBD
:1038B00040B95FF8E4150AF1100035F099FB0028D3
:1038C00000F0FA84CDE912B5C6AB0DF53E780FCB0A
:1038D000119000BAC19008BAC09010BA1091414638
:1038E000BF9018BA0F920E93BE90DCAE30462DF00A
:1038F0000FFA0DF59F64002531464FF4B87220464B
:10390000CDF8DC54CDF8D854CDF8D454CDF8D054FB
:10391000CDF86856CDF86C56CDF87056CDF8745683
:1039200051F08EFEDCAE21464FF4C07237F084FFBA
:1039300009F120045FF83C963046202221468DF89C
:10394000F054C847304621462022C8470DF59F64F1
:10395000304601228DF8F8542146C84720463146AA
:103960004FF4C27251F06CFE9DF878A604F5B87160
:103970001022504635F048F8002965D000F8015B68
:103980000139F9E70520199D8DF8FC04FF208DF819
:10399000F80414E040F60330DDF860A0ADF8FC0454
:1039A000FF208DF8F80436F04AFF5D46BEE10120A5
:1039B0004EE3052037F00CF907E137F09FF9DDF809
:1039C00060A030E00DF59F68E80700F04F8109F135
:1039D000020037F0F3F88BE80E00CBF80C00DBE9BF
:1039E0000601CDE900015146DBE904231AAC20466B
:1039F000FEF778F99DF86850FF2D40F08D8108F1B1
:103A00000800DCA937F05EFC0020CDF8FC0408209B
:103A100087E15FF814072EF05FFB37F01BFC2EF0F8
:103A2000B3FC37F06BF90DF59F680DF55C797DE11E
:103A30009DF8FB64102E80F0718206208DF835020F
:103A400003208DF834029BE5A7F13C0600252046B3
:103A500047F83C5C31468DF8785647E90E5547F8F3
:103A6000305C35F00BFBA7F12C093146484626F0B7
:103A7000A3FF04F5B076102D09D06019013590F838
:103A8000601190F87021514080F86011F3E7BAF1AD
:103A9000100F40F06D8237F09BF8DDE912B5002081
:103AA000102800F07E8219F8001037F0D2F9F7E7FD
:103AB000DAF83C4004F1080338F0A8F800F09283EB
:103AC00082AD0FC593E35FF8C4072EF011FB40F6FB
:103AD00003700DF59F68ADF8FC040DF55C792AE1E3
:103AE0000DF55C7837F04FFC0DF168090D20434669
:103AF0008DF87003484621F071FA37F0F6FC0BD0D0
:103B000099E86E0040466EC05FF8040838F013F87C
:103B100037F084F92EF038FCE00700F094825FF86B
:103B200014082EF0E5FADCAC37F023FD9DF8705355
:103B30000DF59F680DF55C79FF2D00F0498536F095
:103B4000FEFE8DF8FC54F6E00120AFE019990DF56A
:103B50009F6808F10700B022183151F016FE0920C5
:103B600041468DF830028CA837F0D3FDDDF860A017
:103B7000FFF722B85FF868089B46169535466646FB
:103B80002EF0AAFA5046314642464B4634F0D8FF52
:103B9000169B284621465A4634F0D2FF2EF0F4FBFD
:103BA00038F031F940F20340ADF83402FEF7FBBFC4
:103BB0009DF8721336F043FE0A0700F1B583032027
:103BC000B8E337F005F8199D032004218DF8FC04B3
:103BD000FF208DF8FD148DF8F80426E7DDF860A0CD
:103BE00036F02DFE40F60340ADF8FC04E3E3DDF8CB
:103BF00064B002260DF168089BF81A119BF8204169
:103C00009BF8080101F0030104F0030481F00101B5
:103C1000022884F0010408BF01262143DDF860A0DA
:103C2000B1FA81F1D5E900234909D5E902050391EB
:103C300051468DE86100404621F056F99DF86850E4
:103C400008F102019DF8699012229DF89160C6ACBE
:103C500036F05DFF022E40F0B083BEA84ECCFF2DA3
:103C60004EC0218801807FF494AADEE308F10800A9
:103C7000DCA937F027FB0020CDF8FC04072050E03A
:103C8000DCAC5146204621F02CFA9DF89953FF2DCB
:103C900040F0D0830DF5987C94E86E0060466EC0CD
:103CA00008F104009CE83E003EC0FF20199D8DF8FD
:103CB000F8043DE00DF5987999E860031AA800F141
:103CC0007004199890F81E01002804BF82468346AC
:103CD000169908BF0146159A08BF0246C4E9081B99
:103CE00004F13000B968C4E90AA280E86003DCA8E6
:103CF00000F09AFFDDE9DE01DDE9DC23C4E9002301
:103D0000C4E90201CDE90001DCAC37F038FC38F041
:103D10006AF852D00DF59F6836F011FE8DF8FC540C
:103D2000FF208DF8F8040DF55C79199D9DF8F804D5
:103D3000FF2840F0938108F1040009F1040190E8A4
:103D40007C0012207CC14C46199D8DF8700308F14F
:103D50000400211D26F0B2FD0C20DAF828108DF8A1
:103D6000F8044346DAF838204CAC37F07DFD37F0E4
:103D700091FD09D037F006F9DFF8640E37F0DBFE6D
:103D800037F04CF82EF000FB1AACDCA9284637F0CF
:103D9000D5FE2046294635F094F9FF208DF8F80429
:103DA0009DF86800FE2818BFA046179D98E81F00E0
:103DB0001FC50DF29C6D36F082BEE01D1AA937F0CA
:103DC00027F80A200DF59F6837F061FE51F0DDFC01
:103DD000A9E7DDE91010702241EA00484CA9DCA8EF
:103DE00051F025FA139A28022946149DDDF858B09F
:103DF00040EA126A1298C4E900B640EA0222280298
:103E000040EA11614FEA082040EA1568159D1392B7
:103E1000C4E9035220221291C4F80890C4E905A114
:103E2000C4F81C80DCAC04F19000C6A951F0ADFCD4
:103E300004F12000129A8DE8110851464346139868
:103E4000CDE9036905951FF0FBFE0446199890F82B
:103E50000801022840F01083DFF88C0D2EF03CF9A9
:103E600037F054FC2EF090FA0DF59F64DCA9E01DAC
:103E700036F0CEFF092021468DF830028CA837F0AD
:103E800048FCFEF790BE1694D6A800F102080AF18D
:103E90000401102237F090F882A84146841C1022B9
:103EA00036F035FE0DF508782146102237F084F8FB
:103EB0000DF55C791899424637F03EFF37F093FFD5
:103EC00000F02C8399E85E0050465EC0DFF81C0DC0
:103ED0002EF002F9504634F0B1FE2EF055FA8CA8BF
:103EE000DCA90530013113220DF59F6851F04DFC1E
:103EF000FF208DF834528DF83002DDF860A0FEF717
:103F000056BEE01DDCA936F083FF092021468DF85E
:103F100030028CA837F0FDFBFEF747BEBDF8FC94DD
:103F20009DF8F9845FEA897041BF199991F81C01E5
:103F300040F0020081F81C015FEA895040F13584AD
:103F4000DAF83C30D3E902E1D3E9042341EA030C77
:103F50004EEA020050EA0C0000F01084CDF8F8E4BC
:103F6000CDF8FC14CDF80025CDF8043500F00FBCD9
:103F700016F80A00A7F12C0180F0800006F80A006C
:103F8000404626F019FDDDF860A00020DDE912B5FD
:103F9000102804D018F8001036F05BFFF8E70DF594
:103FA0009F680DF59F60314635F068F80FCE00BA76
:103FB000C19008BAC09010BABF9018BABE90C6A8F7
:103FC00000F11001BEA835F013F80DF1380EDDF840
:103FD00044C000289EE8104200F0768137F013FFBD
:103FE00040F20340ADF83402FEF7E1BD0B209FE341
:103FF0000DF59F6ADCA90AF1080060220AF1680841
:1040000051F015F9169808F10C01C8F8000030229B
:104010001598C8F804001498C8F808001398C8F850
:104020001C90D04681E851080AF188001AA951F085
:10403000ACFBCDF8FC5408208DF8F804DDF860A046
:1040400071E60E2006E0DFF8840B2EF051F8102008
:104050000DF59F680DF55C798DF8F8044C460DF56B
:104060009F69DCA8C822494651F0E1F89DF8700329
:1040700012283FF46CAE1AAC11287FF486AE95F886
:10408000F980B8F1020F04D1DFF8500B2EF030F8B0
:1040900073E095F81A0100F00300012802BF95F8BB
:1040A000200100F00300012804D095F8F8C04FF07B
:1040B000020831E04CAE05F1D00B514630465A466D
:1040C00020F0B5FF37F0E6FB0CD096E83E004846FE
:1040D0003EC0DFF8000B37F02EFD484634F0AEFD51
:1040E0002EF052F9DBF8000005F1E00C16900DF10E
:1040F000680EDBF8040014907446DBF80800159095
:10410000DBF80CA0AB469CE86F006FC47446DDE999
:10411000142116989BF8F8C0CDF804252246CDF856
:10412000000509F1180E8DF8F9C4CDF80815CDF881
:104130000CA592E87B008EE87B000B204B468DF8A7
:10414000F80418988DF829858DF828C5816A826B46
:104150004CAE37F0C6FD37F09DFB0CD096E83E0024
:1041600048463EC0DFF8700A2DF0B6FF484634F0EE
:1041700065FD2EF009F91AAC199D0DF59F6804E64E
:1041800036F05DFB002800F026820A2037F09CFC08
:10419000DAF83820D6AEDCAC37F078FA9DF8585310
:1041A000FF2D40F0B781A01D1AA936F031FE062080
:1041B0002146ADF8F80408F11200B622C3E208F176
:1041C00007001AA9B0225D4651F0DFFA03200DF571
:1041D0009F628DF8F804501C41469046B72251F07A
:1041E000D4FAA3E50020CDE98400CDE982000DF5E5
:1041F0009F6682A9304602F061FB37F0F0FD46D1A0
:104200004CA8311D00F10309102237F061F8D6AE39
:10421000494636F03CF90DF59F6851463246404616
:1042200020F02FFE37F0DBFD40F06C812068C107E5
:1042300000F073826168000A0DF59F660A0E8DF822
:10424000F6210A0A40EA01607C90ADF8F4217CA9CD
:10425000304602F067FB9DF8F8540DF59F68FF2D7E
:1042600015D1311D484636F002FDBEAE494636F046
:104270000EF90DF59F6451463246204620F001FEAE
:1042800037F0ADFD40F013841999FFF76AB9711C3E
:104290004CAE132236F038FCC6A81ECE1EC037F036
:1042A000D9FB3DE28CA80DF59F61083037F00AF884
:1042B0008D940520FFF7D4BADDE9C6CE0DF59F68D1
:1042C000DDE9C894DDF860A04CA8149E90301BF086
:1042D000010104BF0E460D46169A08BF0A46159BFB
:1042E00008BF0B4600F10C0180E86400B022C0E971
:1042F000069408F1070081E808504CA951F045FAEE
:10430000082041468DF830028CA80130B72251F0C8
:104310003CFAFEF74CBC37F0AAFC49468CA891E861
:104320007C0004307CC002E29DF873230F2A00F267
:10433000BB8106208DF8FD040320FFF760B8B86844
:104340004C1C00901AAEDCAA214630465346FDF7BD
:10435000F5FD9DF868500DF55C79FF2D24D108F12D
:104360000800DCA936F0AEFFCDF8FC449AE1DFF896
:104370004C082DF0B1FE37F0C9F92EF005F8DDF844
:1043800060A009208DF87003DD9436F0FCFF4CAE80
:10439000DCAC37F07BF99DF830510DF59F680DF5D9
:1043A0005C79FF2D00F0C88108F10500711C36F022
:1043B0008CFB8DF8FC54FF20A3E208F1140C169638
:1043C0000DF59878BCE84F00C646AEE84F009CF863
:1043D00000008EF80000BDF89600ADF80C02DDF884
:1043E000920082901AA94DCC8C46ACE84D00122266
:1043F0002088ACF800000BF1D2008BF8D1908BF83C
:10440000D05051F0C2F9B8E83E000BF1E4003EC0D4
:1044100016998BF8F91098F8001001708298CBF873
:10442000FA00BDF80C02ABF8FE000C200DF59F68F9
:10443000FEF7BCBE4CA8DCA9292251F0A6F9DDF894
:104440009A03022DC690BDF89E03ADF81C0300F040
:10445000AE834CA9199C292204F1D00051F095F9A2
:10446000C698C4F8FA00BDF81C0384F8F950254634
:10447000A4F8FE000D201AE4DFF868072DF02CFEEA
:1044800037F044F92DF080FFDDF860A00920CDF869
:10449000FC440DF59F6436F051FF2346DAF83820CE
:1044A000BEAE37F01EFC9DF8F8520DF59F68FF2D4B
:1044B00000F04D818CA8711C053036F006FB8DF89C
:1044C000345234E14CA8211DC61C35F0E0FFC6ACC7
:1044D0003146102236F01BFB0DF59F6651462246F1
:1044E000304620F0CEFC9DF8F8440DF59F68FF2C77
:1044F00000F039818CA8711C053036F0E6FA8DF891
:10450000344214E108F10101C6A836F0DEFA05E1F3
:104510000DF59F6808F10500711CEDE14CA94846B6
:1045200036F0D0FA09F12004C6A9202236F0EFFABD
:10453000169812228DF8B303BDF80402ADF8B0034B
:104540009DF806028DF8B20309F145008DF8B463B9
:104550007CA951F01AF909F1570079A937F04EF901
:104560005846502151F0BAF819990DF59F6891F805
:104570000801023838BF0220C0B2022800F0C5810D
:10458000DDF860A0032840F0F7810F200DF59F654E
:1045900036F0D4FE2B46DAF83820D6AE37F0A1FB41
:1045A0009DF85843FF2C40F06782E81DDCA936F0E7
:1045B0002FFC07202946A5E605200DF59F688DF8FC
:1045C0003402FF208DF83002DDF860A0FEF7F1BA6A
:1045D000199D012040E506F190001690E44840F254
:1045E000FF18D7F808A04FF0FF39834650462BF04C
:1045F000F9FA044650460E462BF0F4FADD4D00233E
:10460000A0FB0502E1FB0523A4FB0541A6FB056514
:1046100076184FF00001454152F1000253F10000BD
:1046200024EA080341F10001BBEB030379EB060325
:1046300079EB050379EB0202D8D3169C0022DDF852
:1046400060A004F1100384E8070083E80700082154
:104650008DF87013DA60E260DD9036F094FED6AC2F
:10466000DCAB37F001F99DF858530DF55C79FF2D5F
:1046700040F03D81B86800210090DCAC1AAA534696
:1046800020460026FDF75AFC9DF870530DF59F68F3
:10469000FF2D40F02E8108F108001AA936F012FE15
:1046A000CDF8FC6407202CE185F8201105F58F7109
:1046B00085F81E0105F58C70BDF874339DF87143C3
:1046C000A5F8223185F8212185F81F4135F0C6FC77
:1046D00085F80801DFF8EC0485F809112DF0FCFCE1
:1046E00036F01FFF2DF050FEDAF82C104CA836F0F3
:1046F000E9F9DAF83010DCAE36F0DDF80DF16808D3
:104700003146404602F03EF836F0EFFE00F07C8184
:104710000A2003248DF81903A2E105250DF59F68F1
:104720008DF834528CA80530C6A936F0CEF9FF209A
:104730008DF83002FEF73BBAE01D1AA936F068FB8F
:10474000052037F0A4F951F020F8FFF7EEBAA01DCC
:10475000DCA936F05DFB03202146ADF830028CA8C1
:104760001230B622D3E5129C132C40F08B81F01D41
:10477000DCA936F04DFB09203146C3E50020CDF819
:104780000405CDF80005CDF8FC04CDF8F804DFF8F9
:1047900040140DF59F6021F0E5FE30B1199991F8B4
:1047A0001D0140F0020081F81D0119980C2180F8CC
:1047B0002051054680F81F8105F58C78A0F82291DC
:1047C00080F8216180F81E4190F81901032808BF84
:1047D0000821DAF8380090F8702390F871338818BF
:1047E00085F81A0105F58F7013B1012188F80010C2
:1047F000414635F033FC85F80801DFF8FC0385F805
:1048000009112DF069FC36F08CFE2DF0BDFD0DF583
:104810009F60012101F046FF37F0E1FA3FD19DF89A
:104820000865DDF80445BDF80905ADF81803314603
:104830009DF80B058DF81A032046DDF8FC94DDF891
:1048400000551DF086FC36F0CEFF40461A4635F086
:104850009EFCC0B2022844D1CDF8F8940DF59F68B3
:10486000BDF818030DF55C79ADF8050551469DF8C6
:104870001A0342468DF8070548468DF80465CDF8C1
:104880000045CDF8FC5420F0FCFA37F0ACFA5AD1D0
:104890000DF59F6801208DF83002FEF78DB99DF867
:1048A00008259DF8FB048DF88023DDF804258DF89C
:1048B0007303BDF8F904DF92DDF800259DF80B15B0
:1048C000ADF87103BDF80905DE92DDF8FC24ADF802
:1048D00030018DF83211DD928DF88313ADF881032C
:1048E0003CE04846294635F02FFC052536E00DF51D
:1048F0009F6808F10500611C36F0E7F8FF208DF88D
:10490000FC548DF8F804FFF710BADDF860A091F8B8
:104910000901002800F0D0800A200DF59F6536F0CF
:104920000DFD2B46DAF83820D6AE37F0DAF99DF8CF
:104930005843FF2C40F0A080A81DDCA936F068FA8F
:104940000420294609E799E85E0040465EC0AB486E
:104950002DF0C2FB36F062FA2DF016FDDCA98CA812
:104960000530013136F0B1F88DF83452FEF706BE4D
:10497000FFC5FCFF40420F00B9680BF1100000F0CA
:1049800053F9DBE906010025DBE904238DE8030286
:104990000DF59F60CDE903451FF014F9DDF804150E
:1049A0000DF59F68DDF8F824DDF8FC34DDF800052E
:1049B000CBE90201CDE900014046CBE9002301F03B
:1049C0009BFE9DF8F844FF2C65D182A808F10401F4
:1049D000C61C35F05CFD88AC3146102236F097F8E5
:1049E0000DF556795146224637F0A6F99DF8584301
:1049F000FF2C40F0808008F10700DCA936F008FAAF
:104A000002204146FFF783BABEA808F10401861CC4
:104A100035F03DFDD6A83146841C102236F077F8DB
:104A20000DF502792146102236F052FC51460DF563
:104A3000467A4A46504620F024FA9DF81843FF2C47
:104A400040D09AE86E0040466EC05F482DF044FBAF
:104A500036F0E4F92DF098FCDDF860A00DF55C79F6
:104A6000C6A90DF59F6808F10500013136F02DF853
:104A70008DF8FC44FFF75FB98CA8711C053036F047
:104A800024F84BE08CA8DCA9083036F01BFC601C35
:104A90008D9005204CE682AD08F10101132236F01D
:104AA00039F8D6AE2946701C36F00FF82FE0611C9D
:104AB000C6A836F00AF833E6DAF8000090B3DAF860
:104AC000041048E008F103004CA935F0FBFF0DF598
:104AD0009F64DCA904F1240036F096FE02204146D2
:104AE0008DF8F804601C2322A04650F04EFEDDF83D
:104AF00060A0FEF79ABF99E86E0040466EC03D4840
:104B00002DF0EAFA36F08AF92DF03EFCD6AE8CA8EC
:104B1000711C053035F0D9FF0DF59F68FF208DF829
:104B2000344205E6BE68264C314DD6F800014028D7
:104B300007D3304600211DF053FFD6F8000140286E
:104B400039D2421C56F82000C6F80021A0FB04010F
:104B5000A8421046EBD80BF1400000260BF13002C2
:104B6000CDF8FC14C0E900160DF59F63C0E902669C
:104B70000820C2E90016C2E9026636F0DFFBDAF867
:104B80003820D6AD284620F029FA9DF858438CA845
:104B9000FF2C05D10830DCA936F094FB8D9678E720
:104BA0000530691C6BE7012007212DF000F82DF07E
:104BB00087F935F048FC40212DF001F87F00000016
:104BC00040420F0080000000A50100009401000099
:104BD00088620500A80100009E010000AA010000F3
:104BE000A00100007E0000007C000000A601000083
:104BF0007F3DF1FFA2010000810000009B01000049
:104C0000D0B502AF92B0BC688DF81020FF228DF8AD
:104C10000420CDE902343A69FB68009201AAFDF74D
:104C2000C5FC12B0D0BDD4D4F0B503AF2DE9FF0B55
:104C300000260D468046E946CDE90266CDE90066CC
:104C40000F2E1DD8D5F80041402C07D3284600214F
:104C50001DF0C6FED5F80041412C29D23046494608
:104C6000102220F0BAFA02460B4605EB8400C4F18C
:104C700040012EF0D0FE2044C5F800010E44DFE7CD
:104C800004A899E81E001EC004AB36F027F81FBF29
:104C9000A8E80F0008B0BDE8000BF0BD07482DF0F4
:104CA0001BFA04A834F0EEF82DF06EFB2DF0CAFAD2
:104CB0002046402140222CF07AFF00BFB0010000C6
:104CC000D0B502AF0F4AD269BFF35F8FA2B152686D
:104CD000012301441360002388420AD0D2F8004126
:104CE000002CFBD0C2F80031D2F8084500F8014B87
:104CF000F2E701205060D0BD03482DF0F9F92DF006
:104D0000A1FA00BFD4E203205A010000D0B502AFDF
:104D100004460A482DF0BEF92078FF2806D036F068
:104D200080F82046BDE8D04033F088BF36F071F9F6
:104D30006068BDE8D0402EF07BBA00BFCB02000017
:104D4000D0B502AF04460A482DF0A4F92078012816
:104D500006D136F066F86068BDE8D0402EF068BA3B
:104D600036F057F96078BDE8D0402CF08FB900BF1D
:104D7000CD010000D0B502AF044604482DF08AF9F9
:104D800003492046BDE8D0402DF0CAB9100000000C
:104D9000F0660500D0B502AF044610482DF07AF950
:104DA0002068023838BF0020DFE800F00210090B4D
:104DB00036F02FF92046BDE8D0402FF047BE022044
:104DC00000E00320BDE8D0402DF0A0B936F029F86E
:104DD0002079BDE8D0402FF0D3BD00BFA202000073
:104DE000D0B502AF044604482DF054F92046BDE882
:104DF000D04032F04FB900BF95020000D0B502AFED
:104E000004460D482DF046F921780C48DFE801F002
:104E10000F030A0C050E0D4809E004202DF076F969
:104E2000601C04E0084802E0064800E004480078FE
:104E3000BDE8D0402DF06AB9A00200008A700500DC
:104E40008D750500A07305009F7305009E73050016
:104E5000D0B502AF044604482DF01CF92046BDE849
:104E6000D0402AF0E7BF00BF12000000D0B502AF6B
:104E700004460A482DF00EF92088012809D135F0A2
:104E8000D0FF07482DF006F96088BDE8D0402CF02F
:104E9000A9B80020BDE8D0402DF038B90E000000C0
:104EA000CB010000D0B502AF044604482DF0F2F863
:104EB0002088BDE8D0402CF095B800BFCB010000A1
:104EC000D0B502AF044604482DF0E4F82046BDE812
:104ED000D04032F0BDBA00BFB9020000D0B502AF79
:104EE000044604482DF0D6F82078BDE8D0402DF0D7
:104EF0000DB900BF13000000F0B503AF4DF804BDBD
:104F0000856804686DB14268C66804F10800531BE7
:104F100000EB4211B21A00EB431052014FF072FD48
:104F200000E0C668701B206035F09EBE80B56F46FD
:104F300018B1BDE8804035F007B980BD80B56F4637
:104F4000C24312061CBFBDE8804001F049B980BDD4
:104F50000168426C8A429EBF00210160704780B5A3
:104F60006F4610460A462CF022FE0168426B8A42C8
:104F70009EBF00210160704780B56F4610460A460B
:104F80002CF015FED0B502AF044602688068211DE2
:104F900020F023F900202060D0BDD4D4F0B503AFB9
:104FA0004DF804BD0A460646D0E900011EF0F6FBA6
:104FB000054606F576700C4632F062FF0E4695F80F
:104FC0005E13A1B1013985F85E13090604BF95F897
:104FD0005C13042903D035F027FF35F0D3B9103026
:104FE00041F20131A5F85C132DF00EFDF3E7024804
:104FF0002DF07EF82DF026F9B7010000B0B502AF14
:1050000045684DB10289006836F091FB20B10C462D
:1050100035F0A2FE35F0B3FDB0BDF0B503AF4DF8ED
:10502000048D044601790068FFF7B8FF41F2901043
:105030002618215875688D4208D1307AC00705D1ED
:1050400000214FF00408042000250FE041F29C10DD
:1050500004EB000801EB81008D4208EB800091BF5A
:10506000C1F10101691A00254FF0040801F0F4F8BC
:105070004046294601F0F0F8316A11B1706AC968FA
:105080008847B16A11B1F06AC968884704F108001D
:105090005DF8048BBDE8F04000F0B0B8D0B502AFC9
:1050A0001EF083FC68B10C4690F86F1300220129B2
:1050B00080F86F2304BF00F51E702DF0A5FC35F0BD
:1050C0005EFDD0BD80B56F4600F5BD60BDE8804097
:1050D0001BF021B980B56F4600F5BA60BDE880408D
:1050E0001BF019B980B56F46BDE8804000F000B8EC
:1050F00080B56F46D0E90012114306BF90F85010FA
:10510000032980BD5830BDE8804000F0AFBBD0B56A
:1051100002AF044690F83B0003280FD0042805D0C6
:1051200005280ED1D4E91101FFF700FF94F83A00E9
:10513000012804BFD4E9080135F006F8002084F8FE
:105140003A00D0BDD0B502AF044690F85005032810
:1051500004BF04F59F60FFF7DAFF94F8A702033855
:1051600004281AD8DFE800F003150D10080004F534
:10517000307000F0CFFF10E004F52A7000F0F8FC6A
:105180000BE004F52A7006E004F5327000F028FC0C
:1051900003E004F5307000F004FC94F822000428C9
:1051A00006D0032818BFD0BD04F1280000F023FC6E
:1051B00007CCBDE8D04000F097B980B56F46C0B2CB
:1051C000BDE880404DF094B8D0B502AF0446006809
:1051D00048B90020207336F02AFE201D2DF014FC63
:1051E00035F0CDFCD0BD04482CF076FF32F036FE11
:1051F0002DF0CAF82DF026F843010000D0B502AF1B
:10520000044610301EF05AF941F27C00204431F07F
:105210008EFE41F288002044BDE8D04031F087BEC8
:1052200080B56F4690F87510042918BF80BDD0E98D
:105230000010C968BDE880400847D4D4F0B503AF7A
:105240002DE9000F89B0824623480068C0053ED191
:1052500035F0BBFA35F09BFB35F0CDFB31D3E94699
:10526000594648461EF063F936F0C1FA04D0411E93
:1052700068462AF0BBFD40B105AC35F0F6FA36F0D1
:1052800033F810B135F0F2FEF9E700206C46D5E9AD
:105290000212914202D12A7CD2070CD036F03CFD9A
:1052A00009D1204659462EF017FE9DF8000002282D
:1052B0000BD00120EBE7C0071CBF05F160002EF00A
:1052C0008EFE35F047F835F0ECB82CF0F9FD0348C8
:1052D0002CF00EFF2CF0B6FF04ED00E05C010000A6
:1052E000F0B503AF2DE9000F89B082462848006869
:1052F000C00548D135F069FA0546D0E90046D0F836
:10530000840005F1080B88460138C5F8840058462A
:105310001AF0A8FF35F06FFB2FD3E94659464846EF
:105320001EF01AF936F063FA04D0411E68462AF0DE
:105330005DFD40B105AC35F098FA35F0D5FF10B100
:1053400035F094FEF9E700206C46D5E9021291424F
:1053500002D12A7CD2070AD036F0DEFC07D12046E3
:1053600059462EF0F5FD009858B10120EDE7C00731
:105370001CBF05F178002EF091FE34F0EBFF35F004
:1053800090B82CF09DFD03482CF0B2FE2CF05AFF93
:1053900004ED00E05C010000F0B503AF2DE9000F63
:1053A00089B0824626480068C00544D135F00DFA20
:1053B0000546D0E9004B806B05F140080E460138E8
:1053C000A86340461AF05CFF35F031F831D3E94666
:1053D000414648461EF0F0F836F009FA04D0411E66
:1053E00068462AF014FD48B135F087F920461FF0D1
:1053F0000DFD10B135F0FBFDF8E756460021D5E96B
:105400001002801A18BF012095F848201043C007E9
:1054100009D0E86C38B940461EF0ECF801210028AC
:10542000EDD12CF04DFDC8071CBF05F12C002EF06E
:1054300035FE34F0ADBF03482CF05AFE2CF002FFCD
:1054400004ED00E05C010000F0B503AF2DE9000FB2
:1054500089B0824622480068C0053CD135F0B5F9D4
:1054600035F089FA34F0E3FF31D3E9464146484646
:105470001EF0D2F836F0BBF904D0411E68462AF07F
:10548000B5FC40B135F039F935F02EFF10B135F0EB
:10549000EDFDF9E7564600206C46D5E91412891A4D
:1054A00018BF012195F858201143C90709D0296E6A
:1054B00039B9204641461EF0C4F8009848B1012091
:1054C000EBE7C0071CBF05F13C002EF0E7FD34F010
:1054D0005FBF2CF0F5FC03482CF00AFE2CF0B2FE66
:1054E00004ED00E05C010000F0B503AF2DE9000F12
:1054F00089B0824625480068C00542D135F065F97B
:105500000546D0E9004B006E05F168080E460138EB
:10551000286640461AF0C2FE34F089FF2FD3E946D0
:1055200036F06CF836F063F904D0411E68462AF074
:105530005DFC40B135F0E1F835F0D6FE10B135F044
:1055400095FDF9E756460020D5E91A12891A18BFC9
:10555000012195F870201143C9070AD0A96F41B9FC
:1055600040461EF09AF8C1B201200229ECD12CF07D
:10557000A7FCC0071CBF05F154002EF08FFD34F0CE
:1055800007BF03482CF0B4FD2CF05CFE04ED00E0F6
:105590005C010000F0B503AF2DE9000F89B0824631
:1055A00021480068C0053AD135F00FF935F0E3F92C
:1055B00034F03DFF2FD3E94636F020F836F017F9E6
:1055C00004D0411E68462AF011FC40B135F095F830
:1055D00035F08AFE10B135F049FDF9E75646002056
:1055E0006C46D5E91412891A18BF012195F8582084
:1055F0001143C90709D0296E39B9204641462EF01A
:105600001FFD009848B10120EBE7C0071CBF05F162
:1056100034002EF0E4FC34F0BBBE2CF051FC034807
:105620002CF066FD2CF00EFE04ED00E05C010000A5
:10563000F0B503AF2DE9000F89B08246224800681B
:10564000C0053CD135F0C1F835F0A1F935F0D3F9FA
:105650002FD3E946594648461EF035F836F0C7F8CC
:1056600004D0411E68462AF0C1FB40B105AC35F0BC
:10567000FCF835F039FE10B135F0F8FCF9E7002000
:105680006C46D5E90212914202D12A7CD2070AD097
:1056900036F042FB07D1204659461EF029F8009803
:1056A00058B10120EDE7C0071CBF05F160002EF0E6
:1056B00096FC34F04FFE34F0F4BE2CF001FC0348AD
:1056C0002CF016FD2CF0BEFD04ED00E05C010000A6
:1056D00080B56F4609490968C90509D11EF083FBE9
:1056E000D0F8E820013AC0F8E82035F044FA80BD4F
:1056F00003482CF0FDFC2CF0A5FD00BF04ED00E0FC
:105700005C01000080B56F4609490968C90509D1E7
:105710001EF069FBD0F8F020013AC0F8F02035F017
:105720002AFA80BD03482CF0E3FC2CF08BFD00BF6F
:1057300004ED00E05C01000080B56F4690F8881031
:10574000032918BF80BD2C30BDE8804000F024BD87
:1057500080B56F4690F8A610032918BF80BD1C3095
:10576000BDE8804000F063B880B56F4690F8EC105B
:10577000032918BF80BD1830BDE8804000F00CB888
:1057800080B56F4690F8F810032918BF80BD24300B
:10579000BDE8804000F000B880B56F4690F8441036
:1057A000032908D0042918BF052909D14830BDE8CC
:1057B000804000F0F1BC4830BDE88040FFF7BCBF3E
:1057C00080BD80B56F46817F0339012988BF80BDC8
:1057D0002430BDE8804000F02AB8D4D480B56F46AC
:1057E00090F823100339062988BF80BDDFE801F057
:1057F0000B10060415041A0028300FE02430BDE811
:10580000804000F09DB92830BDE8804000F08DB99F
:105810002430BDE8804000F037BB2430BDE8804034
:1058200000F077B92430BDE8804000F05AB9D0B517
:1058300002AF044690F82700042818BFD0BD04F139
:105840003C0000F030FCE06A228ED0E90001BDE8A7
:10585000D040FFF723BC80B56F46417C042918BFB8
:1058600080BD4068BDE88040FFF7AEBCD0B502AF58
:10587000044690F88C03032818BFD0BD04F53A7095
:1058800000F098FB2046BDE8D04000F075BBD0B5D5
:1058900002AF044690F83500032809D0042803D04D
:1058A000052818BFD0BD03E004F1380000F0B0FBBC
:1058B000002084F83400D0BDD0B502AF044690F883
:1058C0003500032804D0042807D0052818BFD0BD10
:1058D00004F1380000F00AF803E004F1380000F0A9
:1058E00097FB002084F83400D0BDD4D480B56F4637
:1058F00090F85010063907290AD8DFE801F00A0F9E
:105900000904091409045430BDE8804000F0D3B8FC
:1059100080BD5430BDE88040FFF732BF5430BDE851
:10592000804000F0B6B85430BDE8804000F091BB34
:1059300080B56F4690F82210052918BF80BD2C3025
:10594000BDE8804000F094BA80B56F4690F8FC1036
:10595000032918BF80BD1030BDE8804000F00BB8AF
:1059600080B56F4690F8E010032918BF80BDBDE8F0
:10597000804000F00BB880B56F4690F8DE10032928
:1059800018BF80BDBDE8804000F01EBC80B56F46EA
:1059900090F8D610032918BF80BDBDE8804000F004
:1059A00013BC80B56F4690F82010032907D0042956
:1059B00018BF80BD2830BDE8804000F0B7BB38304C
:1059C000BDE88040FFF7C0BF80B56F4690F8C010BB
:1059D000032918BF80BD1030BDE8804000F0E8BB4F
:1059E00080B56F4690F8E210032918BF80BDBDE86E
:1059F000804000F083BB80B56F4690F834100329D7
:105A000018BF80BD3830BDE88040FFF791BFD0B5EA
:105A100002AF0446007A032804D0042804D1606849
:105A2000FFF756FE00206072D0BDD0B502AF04462D
:105A3000C07A032804D0042804D12068FFF762FE4E
:105A400000202073D0BDD4D4D0B502AF04464FF4AB
:105A50008F50205C033803281AD8DFE800F00214C6
:105A6000090F41F2E8102044BDE8D04000F069BBC6
:105A700041F2E8102044FFF7BEFF04E041F2E810D5
:105A80002044FFF75FFB2046BDE8D040FFF7C5BAD2
:105A9000D0BD80B56F46017C032907D0042918BF0B
:105AA00080BD1830BDE8804000F076BB1430BDE802
:105AB000804000F000B880B56F46017C042918BF13
:105AC00080BD1830BDE8804000F066BB80B56F46F1
:105AD000017F042918BF80BD2030BDE8804000F060
:105AE0000CB880B56F4690F85810032918BF80BDD8
:105AF0000430BDE8804000F043BB80B56F4690F8AD
:105B00005C10032918BF80BD0830BDE8804000F05C
:105B100037BB80B56F4690F8EC11032918BF80BDE4
:105B20002030BDE88040FFF7B2BE80B56F46017EF1
:105B3000032918BF80BD1C30BDE8804000F09CBA2E
:105B400080B56F4690F8E011032918BF80BD14306E
:105B5000BDE88040FFF79BBE80B56F4690F82410EB
:105B6000032938BF80BD2830BDE88040FFF74FBF14
:105B7000B0B502AF90F8F020062A0ED804460820EF
:105B800004212546DFE802F0350909040E0A040065
:105B900004F1F80000F036F804E0B0BD04F1F800BC
:105BA000FFF7DAFF04F1E00207CAFFF79DFC04F1FA
:105BB000D00207CAFFF794FB04F1C00207CAFFF73F
:105BC00043FC04F1B00207CAFFF7E6FB04F1A002B0
:105BD00007CAFFF733FB04F1900207CAFFF7DAFCAC
:105BE00004F1800207CAFFF723FD04F140054820B5
:105BF00044212258204443686058816A2868BDE8DF
:105C0000B040084780B56F4690F8F410032918BFDC
:105C100080BD0C30BDE8804000F0A6BA80B56F466C
:105C2000017C03290ED0042907D0052918BF80BDA7
:105C30001830BDE8804000F00AB81830BDE8804058
:105C400000F0A5B82030BDE8804000F0C7B880B5AE
:105C50006F4690F82810032907D0042918BF80BD8B
:105C60003030BDE8804000F092B83030BDE8804070
:105C700000F0B4B880B56F4690F849100339072991
:105C800088BF80BDDFE801F00D0408120408060695
:105C900050300CE0503005E05030BDE88040FFF758
:105CA000D6BF6030BDE8804000F098B85830BDE8FD
:105CB000804000F06CB8D4D4D0B502AF044690F860
:105CC00007010338082820D8DFE800F0050B050B92
:105CD000100808051A0004F58C7009E004F58870B6
:105CE00001E004F58C7000F052F803E004F58870D0
:105CF00000F074F804F16000BDE8D040FFF728B967
:105D000004F59C7000F050F8F4E7D0BD80B56F4604
:105D1000017C032907D0042918BF80BD1830BDE8D5
:105D2000804000F005B81830BDE8804000F023B88E
:105D300080B56F4690F830100339052988BF80BDC3
:105D4000DFE801F00A030F030514403000E03830AB
:105D5000BDE8804000F028B83830BDE88040FFF74B
:105D6000ABBF3830BDE88040FFF784BF4030BDE8AE
:105D7000804000F033B880B56F4690F8CF13032908
:105D800018BF80BD2030BDE88040FFF7D1BF80B58F
:105D90006F46017C052918BF032904D11830BDE8DE
:105DA000804000F01BB880BD80B56F4690F823108E
:105DB00003290ED0042907D0052918BF80BD28303B
:105DC000BDE88040FFF756BF2830BDE88040FFF7B0
:105DD000DEBF3030BDE8804000F000B880B56F46CF
:105DE000017C032918BF80BD1830BDE88040FFF753
:105DF0001CBED0B502AF044690F82000042806D19E
:105E0000E0690078FFF7D9F9002084F82200D0BDBE
:105E100080B56F4690F84010032918BF80BD0C3044
:105E2000BDE88040FFF7E5BF80B56F4690F84410AD
:105E3000032918BF80BD1030BDE88040FFF7D9BFEF
:105E400080B56F46017B042918BF80BD8068BDE81E
:105E50008040FFF7B9B980B56F4690F8A8100329C4
:105E600098BF80BDD0F89000BDE88040FFF7ACB986
:105E700080B56F4690F8B210032918BF80BD083076
:105E8000BDE88040FFF764BC80B56F4690F8D8113C
:105E9000032918BF80BD0C30BDE88040FFF7F7BC78
:105EA00080B56F4690F80012032918BF80BD1030EE
:105EB000BDE88040FFF700BD80B56F4690F8E01167
:105EC000032918BF80BD0430BDE88040FFF7DCBF68
:105ED00080B56F4690F820100339C9B2032988BFF6
:105EE00080BD044A52F821100844BDE88040FFF705
:105EF000D7BF00BF3862050080B56F4690F820100C
:105F00000339C9B2042988BF80BD044A52F8211060
:105F10000844BDE88040FFF7C3BF00BFE876050036
:105F200080B56F4690F858110339042988BF80BDA9
:105F3000DFE801F0031B0F15090000F5AE70BDE8A6
:105F40008040FFF7B9BF00F5B070BDE88040FFF7B3
:105F5000BFBF00F5B070BDE88040FFF7CDBF00F5D2
:105F6000AE70BDE88040FFF79BBF00F5AE70BDE8A6
:105F70008040FFF7B6BDD4D480B56F46817C0E3922
:105F80000B2911D8DFE801F00610101110101010C5
:105F9000060B100B1830BDE88040FFF75CBF1430D3
:105FA000BDE88040FFF74CBF80BD1430BDE88040A5
:105FB000FFF707BCD0B502AF044690F831000528C2
:105FC00009D006280ED104F1480000F06CF8A06B4F
:105FD000A28F34F0F1FAD4E9000134F0B5F80020D2
:105FE00084F83000D0BD80B56F4690F82D1041B1D7
:105FF000032918BF80BDD0E90601BDE88040FEF747
:1060000095BFD0E90001BDE8804034F09DB8D4D4FC
:1060100080B56F4690F82C100339052918D8DFE8B1
:1060200001F00317170D08123030BDE88040FFF76C
:106030004DBD3030BDE88040FFF73DBD3030BDE89C
:106040008040FFF75ABD3030BDE8804000F001B815
:1060500080BD80B56F4690F86010052907D00629ED
:1060600018BF80BD6430BDE88040FFF746BD743086
:10607000BDE88040FFF778BBD0B502AF044690F88A
:106080003D00092807D80121814011F46E7F03D01B
:10609000002084F83C00D0BD0628FCD104F140006B
:1060A000FFF7B6FFF4E780B56F4690F82510042996
:1060B00018BF80BD2830BDE88040FEF79FBF80B587
:1060C0006F4690F8441039B1032918BF80BD1430D1
:1060D000BDE88040FFF787BFD0E90101BDE88040FF
:1060E00034F032B880B56F4690F89810032918BF85
:1060F00080BD5030BDE88040FFF7E1BF80B56F46FE
:1061000090F8CE10032918BF80BD0830BDE880404C
:1061100000F05AB880B56F4690F8B011032918BF47
:1061200080BDE030BDE8804000F04EB880B56F46DD
:1061300090F8F010032918BF80BDBDE88040FFF73C
:106140000FBCD0B502AF044690F82900032803D055
:10615000042818BFD0BD03E004F12C00FFF7AFFF07
:10616000002084F82800D0BD80B56F4690F8E41078
:10617000032918BF80BD2030BDE88040FFF724BC54
:1061800080B56F4690F85010032918BF80BD0C30C1
:10619000BDE88040FFF73CBE80B56F4690F85810D0
:1061A000032918BF80BD1030BDE88040FFF73CBE1A
:1061B00080B56F4690F8AC10032918BF80BD103031
:1061C000BDE88040FFF78EBF80B56F4690F8201085
:1061D000032918BF80BD2430BDE88040FFF782BF8F
:1061E00080B56F46C0B2072801D1C80700D080BD76
:1061F0000248BDE880402BF07BBF00BF8F0100004C
:1062000080B56F4680BDB0B502AF051D0C4634B1F8
:1062100055E90101FEF78AFE013C1035F7E7B0BDF4
:10622000B0B502AF051D0C4634B155E9010133F09C
:106230008BFF013C1035F7E7B0BDB0B502AF00F100
:106240003A050C463CB115F83A0C15F8401BFFF71F
:10625000C7FF013CF6E7B0BDB0B502AF051D0C4667
:106260002CB1F5E8050133F06FFF013CF8E7B0BD54
:1062700080B56F462BF0C0F9F0B503AF2DE9F80FEC
:106280000646B0F80A9090F8098025480068C005D5
:1062900040D125481DF0A7FD0546007C8A4601280F
:1062A00004D105F1080101A81DF06BF9D5F8BC4037
:1062B0005CB3287C20B1B8F1FF0F26D02BF000FE94
:1062C000D5F80CB03146CDF80090092205EB0B193A
:1062D00009F114004FF059FA0098A9F81E000BF1CB
:1062E0000100B0F10801C9F8204089F81D8018BFED
:1062F0000146A868E960884204BF0120287434F090
:106300008EF805F194002DF06AFE34F014FC05B00F
:1063100034F0D5BB03482BF0EBFE2BF093FF00BF0E
:1063200004ED00E05C01000050DC0320F0B503AF99
:106330004DF804BD06461A480068C00529D11A4820
:106340001DF051FD054690F870000C46012804BF71
:1063500005F168001DF0A1F9286EC0B195F8701024
:10636000E1B9D5E91A12002A05EBC203986783F850
:10637000746018BF0132EA66914204BF012085F8BB
:10638000700034F04CF805F108001AF097FD33F076
:10639000F9BF04482BF0ACFE2BF054FF2BF090FD1E
:1063A00004ED00E05C01000098DE0320BFB506AFFD
:1063B0000168DFE801F0041F191B17252C1DD0E927
:1063C0000101CDE9010101A8039028482BF084FECA
:1063D00027482BF05FFE274903A82BF0A1FE2BF0E6
:1063E000D3FFBFBD1E4806E01E4804E0174802E088
:1063F000174800E01C4804B0BDE8B0402BF078BE60
:10640000446816482BF068FE34F09BFE19E0D0E992
:10641000015410482BF060FE0F482BF03BFEDFE8E4
:1064200005F0020D0406002009E0022007E0032029
:106430002BF06CFE20462BF0EBFE02E001202BF04F
:1064400065FEBDE8BF402BF09FBF00BF7901000093
:106450006D0100006F010000C70200006001000034
:106460005F01000075010000760100006701000077
:106470001000000000670500F0B503AF2DE9000F24
:106480008DB093F813901C4693F814801546D3E909
:1064900002BA0E46069091F8870001281ED100210D
:1064A000D6F8D8008DF82D104FF44071ADF82910B2
:1064B0000B218DF8280030468DF82C9006238DF89E
:1064C0002B800AAA2CF05CFCD6E90510053888421E
:1064D00080F0C68031690A5C01320A54CDF814B0EC
:1064E000D6F8D8B0BBF1080F80F0BC800BF10100EA
:1064F000C6F8D80006EB4B004FF48071A0F8DC1012
:106500003068012840F0B88070687169884280F076
:10651000A7803169B2698DF82C804FF003080B5CBD
:106520008DF82D9001330B54111D01208DF82B8017
:106530000723C6E9020100208DF82E000421ADF8E2
:10654000290030468DF828B00AAA2CF019FC222028
:106550008DF82DA08DF82C0021214F4807230A909B
:106560004FEA1A20CDF80CA002908DF82E000AAA4E
:1065700030462CF005FC06F1F00094F812A00494CB
:10658000B4F810902CF072F901287AD08DF824809C
:106590000DF11C08D6F8EC00079041F0800008F1DE
:1065A00004018DF822003046BC688DF823A0ADF8B8
:1065B00020902CF01BFCE4B106F1F2002CF056F90F
:1065C000012861D003208DF82FA08DF8300082467D
:1065D000D6F8EC00ADF82C908DF82E100A900AA891
:1065E000011D30462CF002FCDDF82C900A98019039
:1065F00001E04FF0FF0A06F1500206F1480307CA16
:106600002CF0A0FC029805F1200468772220E8769F
:106610004FF48070A5F819002048039AC5F81500BA
:106620000498059BD0E900012A77C5E900321C4A8D
:10663000C5E9024030462961294685F814B01DF0AD
:10664000FBF9069D0198C5E90309284685F814A0C1
:1066500098E80E000EC0AC610DB0BDE8000FF0BDB3
:106660002BF0ADFA0A482BF037FD08202BF026FD61
:106670002BF08AFE2BF0E6FD06482BF039FD2BF0BF
:10668000E1FD18202BF029FC19202BF026FC00BF7F
:106690004E0100005001000010010001092110010D
:1066A000085D0500F0B503AF4DF8048D8EB00546CA
:1066B00008A8884633F00CFD0898C0B1A7F1370050
:1066C00008A9C61C0C2234F01FFAA7F14600314677
:1066D000C41C0C2234F01BFA0BAE21460C2234F001
:1066E00013FA2846314642461BF042FD01E01620CF
:1066F00028700EB034F054BBF0B503AF2DE9FE0F97
:10670000044602A8022199469046FFF7CBFF35F0D8
:1067100075FA02D033F07FFD0DE09DF818A0059EBC
:1067200033F056FE34F038FC35F035F802AA2DF07F
:1067300063F935F0E3FA84F800B033F0B6BEF0B593
:1067400003AF2DE9FE0F044602A8032199469046A7
:10675000FFF7A8FF35F052FA02D033F05CFD0DE0F0
:106760009DF818A0059E33F033FE34F015FC35F08B
:1067700012F802AA2DF040F935F0C0FA84F800B002
:1067800033F093BEF0B503AF2DE9000F97B001AE23
:10679000044620220D4634F0B7F905F1200109AD79
:1067A000202234F0B7F930461AF007FA28461AF0DA
:1067B00004FA12A80B21FFF775FF9DF848B0BBF152
:1067C000FF0F1BD09DF84B00E070BDF849009DF80D
:1067D0005B10DDE91365A4F80100BDF85900159AB6
:1067E0009DF85830ADF844008DF846102374C4E984
:1067F0000165E260A4F81100E17427E09DF858807B
:10680000DDF85490BDF859009DF85B10DDE9135296
:10681000ADF84400A4F8110048468DF8461035F054
:106820009CF882460E4620205146324632F09FFBAD
:1068300001AA35F0D9F9202040215246334631F0E3
:1068400079FA09AA35F0D0F935F051FA84F800B098
:1068500017B034F034B9F0B503AF2DE9FE0F04469C
:1068600002A80C211E469246FFF71CFF35F0C6F920
:1068700002D033F0D0FC1DE09DF81880DDF81490B4
:1068800033F0A6FD48468DF8061035F066F802464E
:10689000F8680B460590B8681146049010201A4617
:1068A000CDE902A632F063FB02AA10232DF0A4F872
:1068B00035F01DFA84F800B033F0F7BDF0B503AF42
:1068C0002DE9FE0F044602A888460721FFF7EAFEDD
:1068D0009DF808A0BAF1FF0F02D033F09CFC1DE038
:1068E0009DF81860DDF81490BDF819009DF81B1094
:1068F000ADF80400A4F8110048468DF80610E174C4
:106900003146DDE9035B1BF024FC424610232DF0E9
:1069100073F82674C4E9015BC4F80C9084F800A0F5
:1069200033F0C3BDF0B503AF2DE9FF07044603A85C
:106930000D460821FFF7B6FE9DF80C00FF281ED07B
:106940009DF80F10E170BDF80D109DF81F20DDE9D6
:106950000463A4F80110BDF81D10DDF818C09DF8FF
:106960001C50ADF808108DF80A202574C4E90163A5
:10697000C4F80CC0A4F81110E27420702EE09DF849
:106980001C80069EBDF81D00ADF8040041469DF830
:106990001F008DF806003046DDE9049A1BF0D9FB94
:1069A000F9B10246A8790B46002818BF01201070E3
:1069B0000120072131F0BEF92A4606232DF01CF8EC
:1069C000FF2084F810802070BDF80400A4F81100A6
:1069D0009DF80600C4E9019AE660E07408B034F05E
:1069E000F6B933F030FDF0B503AF4DF8048DD0E9C2
:1069F00000234FF0000CD0E908568046AA1A76EB27
:106A0000030238BF4FF0010C00F120020223BCF159
:106A1000000F0CD0994217D0D2E90004D2E90856F1
:106A2000281A76EB040023D220320133F2E7994290
:106A30000AD0D2E90056D2E90804401B74EB0600E4
:106A400016D320320133F2E7BCF1000F0ED008EB71
:106A500041104E08A0F1200546B1404629462AF0D3
:106A6000A5FD013E08F12008203DF5E734F098B976
:106A700034F028FB5DF8048BBDE8F04000F0A0B9CD
:106A8000F0B503AF2DE9800F93460C468046082BE6
:106A90000ED3DD08DFF864A0E800A0EBD30908EB13
:106AA000C51134F0B4FF34F034FA34F02AFA8346D6
:106AB000DBE900EC0025D4E90023B2EB0E0673EB12
:106AC0000C064FF0000638BF0126D8E900108A1ADC
:106AD00070EB03024FF0000238BF012292EA060F6A
