:10100000C069032001110000336D02001133040098
:10101000336D0200336D0200336D020000000000EA
:10102000000000000000000000000000336D02001E
:10103000336D020000000000336D0200336D0200CA
:1010400059110000C1110000336D0200C1120000EF
:10105000336D0200336D0200417202004512000040
:10106000B5120000336D0200336D0200391200002A
:10107000336D0200CD110000336D0200336D0200AC
:10108000336D020019730200336D0200336D0200EC
:10109000AD110000336D0200336D0200336D0200AC
:1010A000336D0200336D0200336D0200336D0200B8
:1010B000336D0200336D02000000000000000000EC
:1010C000336D0200336D0200336D02009112000097
:1010D000336D0200336D0200336D02000D1300000A
:1010E000336D0200336D0200336D0200000000001A
:1010F00000000000336D020000000000336D0200AC
:1011000025F01AFE0E480F490022814201D004C08A
:10111000FBE70D480D490E4A814202D008CA08C0BB
:10112000FAE70C484FF47001026842EA01020260DB
:10113000BFF34F8FBFF36F8F22F061FE00DE000020
:10114000008B032008F80320C0690320FC8A0320D9
:10115000C8EF040088ED00E0B0B502AF3CF040F805
:10116000104C206828B1002020600F48343026F051
:1011700061FB606850B10C4D0020606005F13400E7
:1011800026F058FB05F14C0026F054FBA06838B15E
:101190000020A06004484C30BDE8B04026F04ABBB7
:1011A000B0BD00BF1C010040A0E6032080B56F4623
:1011B0000248BDE8804026F03DBB00BFD0D90320E7
:1011C00080B56F46BDE880403DF09CBBF0B503AFF5
:1011D0004DF804BD154E0020306027F049FA144D3B
:1011E0000446E868F0B94FF0FF30E860A86978B1CC
:1011F000E96988420CD0D6F808140170D5E90601D7
:101200000130A861884204BF05F1100026F0E6FA1B
:10121000E8680130E86020465DF804BBBDE8F040B6
:1012200027F05CBA034825F003FC00BF00D1004062
:1012300018E7032060BE040080B56F46BDE880401B
:101240003EF0FCB9D0B502AF0F4C206930B1102090
:10125000C4F808020D48443026F0ECFA606830B15A
:101260000220C4F808020948443026F0E3FA206856
:1012700040B10120C4F8080204484430BDE8D04021
:1012800026F0D8BAD0BD00BF00710040A0E6032010
:10129000D0B502AF054C206830B10548543026F077
:1012A000C9FA4020C4F8F001D0BD00BF1831024097
:1012B000A0E6032080B56F46BDE880403DF016BB38
:1012C000D0B502AF0F4C606C38B10F485C3026F0DF
:1012D000B1FA4FF48020C4F80402206830B10A4803
:1012E0005C3026F0A7FA0220C4F80402206A38B164
:1012F00005485C3026F09EFA4FF40070C4F80402F2
:10130000D0BD00BF04310040A0E60320F0B503AF1C
:101310002DE9800F394D286858B1394C0120C5F8A6
:10132000080204F1340026F085FA04F13C0026F0AE
:1013300081FAE86D38B14FF40000C5F80802304872
:101340003C3026F077FAA86A38B14FF48060C5F8CF
:1013500008022B483C3026F06DFAA86D28B1002019
:10136000A8652748343026F065FA286EE0B30020DF
:101370002866D5F86CA32248C5F86CA3BFF35F8F2D
:1013800050E80B1F41EA0A0140E80B12002AF7D18E
:10139000DFF87C804FF0000BDFF86C900126BFF384
:1013A0005F8F5FEACB701FD13546072E1CD82E46C3
:1013B0002AFA05F418BF0136E00706D0681E08288F
:1013C00014D209EBC00026F035FAE81FB0FA80F01D
:1013D0004FEA501BE003E4D5681E082808D208EB4A
:1013E000C00026F027FADCE72CF0EBBA054A00E053
:1013F000064A4FF0FF30082124F0C0FE0071024081
:10140000A0E6032040A0040090D7032050A00400D1
:10141000D0D70320F0B503AF2DE9000F9BB0D0E982
:10142000014B814608460E46A4EB0B052BF09CF8B9
:10143000854201D2002073E23046D9F800502BF0EB
:1014400093F8DFF808152A46009100EB0B01584687
:10145000234628F057FF3278FF2A1CD13279FF2A21
:101460003BD12CF0D5FE3089012812A814BF1B21D6
:101470001D2128F087FFC0B2022840F04882718900
:1014800012A828F09FFFC0B2022840F04082D6E99F
:10149000031212A8C4E1B2F10A044FF0000398BF8E
:1014A0001C46002C33D0012C46D12CF0B1FE12A8E2
:1014B000522128F067FFC0B2022840F02882B1898B
:1014C00012A828F07FFFC0B2022840F02082D6E99F
:1014D000011212A82AF04CF934E0CDE909010020EC
:1014E0000B90DFE812F009003601590016013100B7
:1014F0006B0193013301A00109A8032128F042FFE9
:10150000C0B2022840F00382F18809A8F9E112ACC8
:101510000A2A0BC400F21482DFE812F00B008D01DE
:10152000A701AA01DA01BB01E301120212021202B1
:101530008A0112A8102180E12CF06AFE12A81E2157
:1015400028F020FFC0B2E2E109A8092128F01AFF23
:10155000C0B2022840F0DB81746909A8214628F056
:1015600011FFC0B2022840F0D2812CF0B9F912A8C4
:1015700029462AF073FF9DF84800FF2840F0C681F5
:101580002CF003FAC0B2022840F0C1812CF0D7FC45
:10159000C0B20228EBD0BAE109A8052128F0F2FE7A
:1015A000C0B2022840F0B381357D09A8294628F051
:1015B000E9FEC0B2022840F0AA81D6E90220CDE9B6
:1015C0000E2031698DF8445010910EAC401AE9B2EA
:1015D0004FF0100A012908BF4FF0020A0AF1020178
:1015E0008842C0F09381204629F07AFD0546C00765
:1015F00040F09F8112A8214652462AF065FF1298BA
:10160000002800F096811399022924D004291AD0C9
:10161000102928D1C2684FF0020881880792C27A47
:10162000ADF8681001680892827A02925FFA81FC34
:10163000427A0392027A199101210492C279807947
:101640000592069012E0D0F800C04FF00108CDF8E6
:1016500064C001210AE0B0F800C00121ADF864C007
:101660004FF0000802E0CDF866100021002900F0DC
:101670005A81079BA2460C93290C9DF860308DF887
:101680003430089B8DF85430029B8DF85330039B07
:101690008DF85230049B9DF868008DF85130059B01
:1016A0009DF869209DF865E09DF866509DF86740BB
:1016B0008DF85030069B8DF84D000C988DF84F300A
:1016C0008DF84E208DF84C408DF84B508DF84AE047
:1016D0008DF849C08DF84880CDF8550009AC2046FA
:1016E00028F070FEC0B2022840F0118112A828F044
:1016F00019FE2CF0C0FA20461A462AF039F8C0B27A
:10170000022840F00481DDE90F0154469DF8445061
:101710005CE709A8012128F035FEC0B2022840F09C
:10172000F680717909A828F02DFEC0B2022840F099
:10173000EE80318909A828F045FEC0B2022840F0A9
:10174000E680B17909A828F0BDFDDCE009A80D21EB
:101750005EE009A8072128F015FEC0B2022840F07B
:10176000D68031690DF148080DF1240AD6E902202E
:101770001491CDE91220401A0428C0F0C7804046D9
:1017800029F0AEFC0546C00740F0C080404629F075
:10179000A7FC0446C00740F0B980290C2CF032FDAC
:1017A000C0B2022840F0B380210C2CF02BFDC0B257
:1017B000022840F0AC80DDE91301DCE709A8112123
:1017C00028F0E0FDC0B2022840F0A180746909A8A9
:1017D000214628F0D7FDC0B2022840F098802CF0B6
:1017E0007FF812A829462AF039FE9DF84800FF2804
:1017F00040F08C802CF0C9F8C0B2022840F08780FD
:101800002CF09DFBC0B20228EBD080E009A80B2190
:1018100028F0B8FDC0B2022879D1D6E9021209A891
:1018200029F0A6FF6FE009A8132128F0ABFD6AE0BC
:1018300012A80C2157E012A8082128F0A3FDC0B27D
:10184000022864D1718A12A828F0BCFDC0B2022817
:101850005DD1B18A12A828F0B5FDC0B2022856D1D8
:10186000711C12A82AF0D6FB4DE012A80A2131E023
:1018700012A8122128F086FDC0B2022847D1718833
:1018800012A828F09FFDC0B2022840D1D6E901126B
:10189000FFE512A8062128F075FDC0B2022836D156
:1018A000718812A828F08EFDC0B202282FD1B1880D
:1018B00012A828F087FDC0B2022828D1F18812A80A
:1018C00028F080FDC0B2022821D1D6E90212E0E55D
:1018D00012A8022128F056FDC0B2022817D1718843
:1018E0000EE012A8042128F04DFDC0B202280ED14E
:1018F000718812A828F066FDC0B2022807D1B1880D
:1019000012A828F05FFDC0B2022800D102200228F0
:1019100006D130462AF028FE5844C9F808000220B3
:101920001BB02BF092BE0798CDF85D0008988DF89B
:101930005C009DF860008DF8340017980C90E5E786
:1019400003480F21034A24F012FC00BFB4CE040068
:10195000A4D60400C4D60400F0B503AF4DF804BD0E
:1019600084B00446D0E901300D46191A04290CD37D
:101970002268061D08492BF0E8FDCDE9020102A806
:10198000294604221EF064FC08B1002001E0022078
:10199000A66004B02BF006BE5C53040080B56F4611
:1019A0000021017301490131016080BDA0E60320DF
:1019B00080B56F4641F2B03281501044002101726F
:1019C00080BDF0B503AF4DF8048D8CB091E87C007C
:1019D000EC4680460CF1140061467CC029222BF0B5
:1019E00079FF002088F829000CB05DF8048BF0BD69
:1019F00080B56F46002180F8281080BD80B56F4605
:101A00000021017480BDD4D4E0B502AFDFF880C0FE
:101A10000446002544F2A85040F2011285422FD01E
:101A20002B18654405F1180656E8001F21B946E851
:101A300000210029F8D103E0BFF32F8F1D46EDE709
:101A40001448686205F128002146FFF7B1FF2046DF
:101A5000294625F095FB0025BFF35F8F54E8000F62
:101A600044E800510029F9D1BFF35F8F30B1C66956
:101A7000C5614576416A88473046F7E720BFEBE706
:101A800005487A1E00902B210448054B25F01FF8CD
:101A9000789003200DC60100E48E040052D00400AB
:101AA000849A0400F0B503AF2DE9000B94B004460E
:101AB000F8680DF13C082BF05AFF9DF83C00FF2818
:101AC00003D040F6032020801DE0A7F14E0008F16E
:101AD0000401851C2BF021FC02A82946861C2BF052
:101AE00078FB0BAD31462BF018FC2CF050FA207827
:101AF000FF2808D02BF0F9FF044825F041F92BF01E
:101B0000E7FD25F0A5FA14B02BF0C1BDDF00000001
:101B1000F0B503AF2DE9000FCDB0FE68D7F808800F
:101B2000CDE91D2056F870AFD8F84400C346CDF873
:101B3000AB00C1465BF8410FD6F808E02A90D8F810
:101B40003D00129316917268F568D6F810C073695B
:101B5000B169F469CDF8CB0059F83A0F2192CDF86C
:101B600070E01B95CDF868C0199320911F943290B6
:101B700032A88DE8120454460DF1F80ACDE9032E7F
:101B8000624605952AA9CDE90610A6F13001504616
:101B90001CF046FD22A89AE82E002EC04298119013
:101BA0004398109044980F9045980E90306A189082
:101BB000706A179008F14E00D6E90AA52BF03CF99F
:101BC00020F07F40CDE90A0B209800901F98CDE9C6
:101BD0000104219803901C98CDE908A504900546BE
:101BE0001B98CDF854B00590834618980690179826
:101BF000CDF84C90CDF830901494079026A822A9E7
:101C00001A9A199B914698461CF030FC1D98102892
:101C100004D126A816991FF007F930B11E99FF20AC
:101C2000087040F6033088805EE0D6E90C40D7F8B3
:101C300008A01D90B06B18900AF14800F66B2BF0CD
:101C4000FBF820F07F400A9013980B9015980C90A9
:101C5000209804901F981899CDE905041D98CDE9A6
:101C60000816CDE9005BCDE9029807902AA822A9C1
:101C7000149A219B1CF0FAFBDDE92C01DDE92A23F3
:101C8000CDE900013EAC204605F038F89DF8F8504B
:101C9000FF2D0AD0611C32AC2BF03BFB1E9E21466F
:101CA0002BF04FFC3571FF201DE00DF1C809211DFF
:101CB00009F103052BF031FB2EAE29462BF089FAF2
:101CC000129C0DF1F8083246404621461EF0B1FB49
:101CD0009DF8F850FF2D0AD01E9E08F101012BF04F
:101CE00030FCFF20357130704DB02BF0DBBB9AF823
:101CF000380002239AF84A100DF1F8089AF850209B
:101D0000022801F0030008BF012302F0030180F064
:101D1000010081F0010108430F990091B0FA80F0B1
:101D20000E994009CDE901132146DDE910320390F7
:101D300040461EF0B1FB9DF82161022E09D198E8C2
:101D40006E0048466EC01E9E99E83E00301D3EC0A3
:101D5000A9E732AC3EA929222BF0FBFBBDF82601F6
:101D60002146ADF830012922DDF822014B903EAD2D
:101D70002BF0F6FB50462946292241F0EAF84B9811
:101D80001E99CAF82A00BDF83001AAF82E000A20D0
:101D90008AF829600870A7E7102B7DD1F0B503AF52
:101DA0002DE9000F9DB009908846F868137800F17E
:101DB0006006D2F80100D2F80540D2F8095043EA93
:101DC000002C39692B0243EA1463240244EA1060B0
:101DD000D47BB2F80D20C6E900C042EA04421202E8
:101DE00042EA1562C6E9023218A803F05BF806F170
:101DF000300A189806F11003F66B1A9A08F07F045F
:101E00001999DDF86CB0069283E80708A4F1400246
:101E10000791314608909AE82006504640F054FF5A
:101E2000CDF81480804628464946224640F04CFFB3
:101E3000C4F14002814650463146D7F80CA040F02C
:101E400059FF0AF1200103910699402CCDE901BA0E
:101E5000009138BF49EA00082948002C08BFA8466D
:101E60002CF093F90AA8DDE907321CF063FBDDE9E9
:101E70000C01DDE90A23CDE9000118AC204604F08D
:101E800079FE9DF86050FF2D0CD0611C0FAC2BF03B
:101E900040FA099E21461FE0FF21017040F6032110
:101EA00081807047DDF814900FA8C61C211D1022F8
:101EB000D7F808802BF018FB14AD31462BF02DFA23
:101EC00018AC41462A4620461EF0B3FA9DF86050F1
:101ED000FF2D09D0099E611C2BF033FBFF203571CB
:101EE00030701DB02BF0DEBA099C5146B02204F1CF
:101EF000080040F0D9F90620C4F804902070F0E7FB
:101F0000C0FFFF7FF0B503AF2DE9000B94B004468E
:101F1000F8680DF13C082BF02AFD9DF83C00FF28E5
:101F200003D040F6032020801DE0A7F14E0008F109
:101F30000401851C2BF0F1F902A82946861C2BF020
:101F400048F90BAD31462BF0E8F92CF020F8207859
:101F5000FF2808D02BF0C9FD044824F011FF2BF016
:101F6000B7FB25F075F814B02BF091BBDE00000034
:101F7000F0B503AF2DE9000F9FB08246880701D46A
:101F800011206FE0D56B934605F108030FCB41EAB2
:101F9000030440EA0206344311BF8DE80F0000201D
:101FA000CDE90200CDE9000016AE6946304604F0E6
:101FB000D5FE9DF85840FF2C3DD111A8311D00F1F0
:101FC000030810222BF086FC0AAE41462BF001F9E3
:101FD0000DF15809594632462CF0E9F89DF8584061
:101FE000FF2C30D12868C10741D06968000A0A0E69
:101FF0008DF83E200A0A40EA0160ADF83C200E90C0
:1020000016AE0EA9304604F0F3FE9DF85840FF2CA2
:1020100011D1311D40462BF0BFFA1BAE41462BF0CB
:10202000D8F805A8594632461EF003FA9DF8144028
:10203000FF2CA5D00DE011AD711C13222BF090FAEE
:1020400005A8294602E005A809F1010101302BF09D
:1020500048FA05A90AF1050001312BF042FAFF20E8
:102060008AF804408AF800001FB02BF01BBA052440
:10207000EFE7F0B503AF2DE9000F8BB0044602A8DF
:102080000E460021924604F04BFD9DF80800FF2803
:102090001DD09DF80B10E170BDF809109DF81B20B4
:1020A000DDE903C5A4F80110BDF81910059E9DF8DF
:1020B0001830ADF81C108DF81E202374C4E901C53A
:1020C000E660A4F81110E27420702BF077B99DF847
:1020D00018B0059DBDF81900ADF8040059469DF8EB
:1020E0001B008DF806002846DDE903891AF020FC64
:1020F00002460B4606F1480011461A462AF054FFE4
:10210000C0B202281CD1BDF804005146ADF8290028
:102110009DF806008DF828B00995CDE907898DF85E
:102120002B0002AD07AA28461EF083F99DF808602F
:10213000FF2E10D0601C691C2BF0D3F92670C4E769
:1021400005204946207040460BB0BDE8000FBDE8B1
:10215000F0402AF0FFBEFF20B6E7D4D4F0B503AFBD
:102160002DE9000F9FB00D46B968069314460B90F9
:102170001AA802F097FE1A9804F170061C9A05F04E
:102180007F0504F1900B1B991D9B0FC60892A5F1CA
:1021900040020A909BE8400E504609915946079329
:1021A00040F092FD8046304649462A4640F08CFD7C
:1021B000C5F1400281465046594640F09BFD04F16E
:1021C0002001402DCDE90241079901910899009124
:1021D00038BF49EA00082448002D08BFB0462BF05C
:1021E000D4FF0CA8DDE909321CF0A4F9DDE90E01E9
:1021F000DDE90C23CDE900011AAC204604F0BAFC5D
:102200009DF86850FF2D0BD0611C11AC2BF081F8AC
:102210000B9E21461322701C40F09BFE35701FE080
:10222000DDF82C8011A8C51C211D2BF076F816AE08
:1022300029462AF0CEFF1AAC0699324620461EF0F7
:10224000F8F89DF86850FF2D07D008F10100611CD7
:102250002BF047F988F8005002E0FF2088F80000D2
:102260001FB02BF01FB900BFC0FFFF7FF0B503AF59
:102270002DE9000FB5B016461D46CDE91210B04647
:10228000D6F83D000DF1A00C55F8702FCDF8A30045
:1022900058F83A0F289056F8410FD5F808906B6817
:1022A000D5F80CA0D5F810E0D5F814B0AC69E96900
:1022B0002C90D6F8030014921593CDF86C90CDF8BD
:1022C00068A0CDF864E0CDF860B017941691CDF811
:1022D000B3002CA88DE800460DF18009CDE9051C5E
:1022E000A5F1300107904846CDE903B41CF098F9F8
:1022F0001CA899E81E0005F1300B1EC0249811900F
:102300002598109026980F9027980E90F01D9BE826
:10231000100AD5F83CA02AF08FFD20F07F40CDE9CF
:102320000A08DDE91A10CDE908BA0C96CDE90001DA
:10233000199802901898039017980490169805A978
:1023400081E8110228A81CA9DDE914231CF08EF8ED
:10235000DDE928230DF18009DDE92A01CDE900013D
:10236000484604F0CBFC9DF88060FF2E0ED02CACCC
:1023700009F101012AF0CDFF139D21461322681DAA
:1023800040F0E7FDFF202E71287051E0DDF84C8011
:102390002CA8C61C09F104012AF01BFF31AC314600
:1023A0002BF010F80DF18009129922462BF0FFFE58
:1023B0009DF88040FF2C0BD008F1050009F10101C8
:1023C0002BF08FF8FF2088F8044088F800002FE0F9
:1023D00005F1200B464608F11804ED6A9BE8000D54
:1023E00009F107001CA92BF0D7F80B20494606F885
:1023F000010B17222BF078F8199804F12C012062B8
:10240000189860621798A0621698E56381E8010D3C
:1024100011982060109860600F98A0600E98E0609E
:1024200014982061159860611B98A0611A98E0616A
:1024300035B02BF037B8D4D4F0B503AF2DE9000F89
:102440008BB004460220ADF80A0001208DF8080088
:102450001E462C4888468DF80920039007A82AF0CC
:102460002FFD079DEDB3DDE9089BFB20D7F808A001
:10247000CDE904B00020069004A803A9FFF76CFA88
:10248000C0B202281CD104A802A9FFF765FAC0B2A5
:10249000022815D1DDE90530191A02290ED3049A54
:1024A00019490091811C019127F02CFFCDE907010A
:1024B00007A8314602221DF0CBFEB0B1042004E093
:1024C000C0074FF0040018BF0D200121207061707B
:1024D000284649460BB0BDE8000FBDE8F0402AF0A1
:1024E00039BD162020702AF069BF019851460A9024
:1024F00007A880E8200A07AB204642461BF08FFD64
:10250000F1E700BF060005005C53040091F8673353
:1025100001F51472012B12BF91F8561202F58C725C
:102520000121A0B1D0B502AF9388B0F8154112686F
:102530006340D0F8114162401A4390F81731594076
:10254000C90718BF0020002A18BF0020D0BD0020F6
:102550007047D4D4F0B503AF2DE9000794B002ADB5
:102560008846814648212BF07AFBD8F80C40482653
:10257000334B2946482C38BF26463046482229F09E
:1025800023F90546D8F808008A4621461DF046FA88
:102590008E4251D803462B4800901A462846514691
:1025A000334626F087F9022C09D22D4824F0E8FBA7
:1025B000304624F0D7FB24F04BFD0A2019E09DF8AB
:1025C0000800441EE5B20E2D12D22046A6F1010AE3
:1025D0001AF020FC80B282451BD109F1010002A94A
:1025E000482240F0B6FCC9F84C6089F8004008E089
:1025F000072089F80500032089F80400FF2089F8E6
:102600000000D8E900012AF0A5FC14B0BDE80007DD
:10261000F0BD0D4824F0B4FB0C480D4CA0470D480C
:10262000A0470D480D4950F8250051F8251022F01B
:1026300007FB0020A047BEE70A4B0A462BF0E2F852
:102640008C540400AC540400D400000014000000BA
:102650003F6D020031020000F0DB0400B8DB040033
:10266000D50000009C540400F0B503AF2DE9000F25
:1026700095B01C788046FF2C15D046481D4616465E
:102680008A4693F801B024F07BFB434824F057FBC3
:10269000284628F093FE032C18BF4FF0080B24F0B7
:1026A000D7FC192C05D1FF2088F8000015B02AF0BE
:1026B000F9BEB6F858430FA82AF002FC0F9800287C
:1026C00048D0A7F143000094C51C0FA90C222AF0A2
:1026D00047FFA7F152002946C61C0C222AF004FF2E
:1026E00012AD31460C222AF03BFF02A829460422F3
:1026F0001AF030F99DF80800DDE903549DF81860E0
:10270000FF28DDF8149026D1484631461AF010F91A
:10271000E1B380F800B030461AF002F9CDE9049038
:102720004046CDE9025402AD009A51462B461BF0BB
:1027300076FC98F80000FF28B5D098E85E0028469F
:102740005EC0164824F01CFB284628F029FE24F021
:102750007FFCABE716209DF80B1088F80310BDF83E
:1027600009109DF81B20A8F80110BDF81910ADF84C
:1027700004108DF8062088F81060C8E90154C8F8E4
:102780000C90A8F8111088F813208DE7044A2AF05D
:1027900024FD00BFCD0000000B020000D2000000AD
:1027A000CC540400F0B503AF4DF8048D92B00DF198
:1027B00004080D4606461146404644221C4640F099
:1027C00023FBB8682946009030464246234600F075
:1027D00005F812B05DF8048BF0BDD4D4F0B503AFAA
:1027E0002DE9000FADF29C6D189301F1780A179056
:1027F000DCAE91F8C84006F1600B90460D46022C05
:10280000199132D10DF168092946C82248463FF096
:102810004BFD152028710E2028709DF8685098F8FF
:1028200000000C2D00F2128306F17004DFE815F0B1
:102830000D008C0142012801C9000A01DF010E03CD
:102840007502C6020E03AB029700FF2804BF98F87A
:102850000C10002900F02287411E0329C0F0B88225
:10286000002840F0EF8200F05ABF0DF50C792946A0
:10287000C8221AAE48463FF017FD15209DF83012C9
:102880002871122028700F2998F8000000F2B685F0
:1028900006F16005DFE811F01000C10302039F0498
:1028A000CF04B2057B03E0032204B205AB05320579
:1028B000B205B205E6028803FF2804BF98F80C2091
:1028C0000A2A40F09B85D8F80800002802F0988278
:1028D000199D0C22D8F8041095F81901032808BF97
:1028E0000822DDF860A0DAF8383093F8700393F826
:1028F0007133024485F81A210C7813B1012185F84F
:1029000018110DF59F6858B195F81C0195F81D1127
:1029100040F0030085F81C0141F0030185F81D110A
:102920001AA851461DF02BFF9DF891000DF55C791A
:10293000022807D0600741F1C3829DF89000022869
:1029400001F0BE82DCAC2BF04EF92BF0B5FC01F0AF
:102950001B822AF02DFD8DF8FC5401F0C6BAFF2829
:1029600004BF98F80C10082940F02F82D8F80820EE
:10297000002A02F04382D8F804000478022C81F087
:102980001A800DF59F68062A42F22A82199A50F899
:10299000011FDDF860A0C2F811118188A2F815119D
:1029A00092F8F91082F81741022900F0FB8681881D
:1029B000A2F8F4100068C2F8F00082F8F64000F0C7
:1029C000F1BEFF2804BF98F80C10022900F05186D0
:1029D000042800F23E82DFE810F0E806FB01FB016C
:1029E0000500E8060DF59F600DF59F6B00F1900561
:1029F0001998902200F1180158463FF055FCDCAEC2
:102A000009F1010111222AF06FFD0024D8F8040019
:102A1000C5E90004C5E904049DF87003C5E9024452
:102A2000C007C5E9064401F05C85DDF860A0721CB2
:102A3000B8680021CDE900AB102302908CA8FFF705
:102A4000ABF9CBE1FF2804BF98F80C10022940F045
:102A5000BC8119980DF59F64B02200F10801204651
:102A60003FF022FCD8E90123A046DDF860A0B86859
:102A70001B99CDE900A402908CA8FFF78DF9AFE176
:102A8000042800F2E887DFE810F090060500C70789
:102A9000A30190069DF86900002801F0778119993B
:102AA00009F118001022D031CDE9001009F102011E
:102AB00000F043BFFF2804BF98F80C10032940F032
:102AC0008481199D4CA870222AF035FEDAF80000A6
:102AD00005F1980116902022DAE901B9DAF80C60C4
:102AE000C6A840F036FA2AF0A7FE40F09A87D8F838
:102AF00004000DF59F6A169A5B461596D0F80910EA
:102B00001491D0F80110139101781291C17B1191A9
:102B10001899D0F80550B0F80D0010905046CDE946
:102B200000965E46FEF7BEFF9DF8F884B8F1FF0FF1
:102B300001F06F828CA80AF1010105302AF0D1FC66
:102B40008DF8348200F0A8BFFF2804BF98F80C105D
:102B50000B2940F03A81D8E901120DF5467840463C
:102B60002AF0D2F8DDF860A02022DAF82C10BEACF2
:102B70002AF0EFFCDAF830104CAE40222AF0B4FC18
:102B80000DF59F69214642463346484629F0ECFF41
:102B90009DF8F804C00700F049879DF8FB0409F18F
:102BA00006018DF806021222BDF8F9049DF8FC44D6
:102BB0009DF8FD64ADF804027CA840F0CAF909F163
:102BC000180079A90DF59F6A0CC80CC1007808702F
:102BD0004CA9504604F01AF89DF8F804FF2801F0BB
:102BE00072820A2003258DF8710301F097BAFF283D
:102BF00004BF98F80C10032940F0E7802BF08EFA00
:102C0000DCA83FF051FB2AF017FE40F01887D8F8F7
:102C100004001B9DDBE90E98D0F801100278129594
:102C200005F07F0542EA0122CBF820201692D0F869
:102C30000930D0F805201C0244EA1264120242EA6C
:102C40001161CBF82840CBF82410C5F14002159152
:102C5000C17BB0F80D00149440EA014041460002E7
:102C600040EA136A4846CBF82CA0DBE90C6440F03C
:102C700041F81390304621462A4640F025F8A5F148
:102C8000400204464846414640F01EF81399402D44
:102C900038BF44EA0100EF49002D08BF3046DCAAE6
:102CA00061F35F00149B02F12001CDE9003ACDE908
:102CB00002120490BEA8DDE915321BF03BFCDBE9F3
:102CC00000ACDDE9BE648CEA0401DBE90289DDE9E0
:102CD000C03589EA050008438AEA060288EA03014A
:102CE0001143084341F06680DBE904230DF59F643E
:102CF000DBE90601CDE90001204603F061FF9DF804
:102D0000F854DDF860A0FF2D01F0FB84611C4CAC91
:102D10002AF0FFFA8CA821462EE0FF2804BF98F87D
:102D20000C10032951D12BF0F9F9DCA83FF0BCFAC3
:102D30002AF082FD40F08886D8F8040004F11005DE
:102D40002AF025FC0EC5B968E061204602F0AAF819
:102D5000DDF860A0D4E90201D4E900230DF59F64F9
:102D6000CDE9000151462046FEF79CFE2BF09CFA6F
:102D700001F0E6818CA8611C05302AF0B2FB8DF8C9
:102D8000345200F057BEFF2804BF98F80C100729F2
:102D90001BD12AF051FD40F07C86199890F8F9007B
:102DA000022808D0D8F804000AF168042AF0EFFBE2
:102DB0000EC4CAF874000C2000F06FBEFF2804BFD8
:102DC00098F80C100C2900F0B085411E032936D26A
:102DD0008CA81AA92BF071F9DDF860A00DF59F6899
:102DE0009DF83002FF2800F0E7840DF50C790DF511
:102DF0009F60C82249463FF057FA9DF8F8040E2814
:102E000000F0E484199D0D2840F0008595F8F980C4
:102E1000B8F1020F00F0FA8495F81A0100F00300EF
:102E2000012802BF95F8200100F00300012800F0FE
:102E30002A8595F8F8C04FF0020800F051BD00282F
:102E400000F06B84042804D100F0AFBCFF2840F0F0
:102E5000598498F80C00042800F0F1830D28B7D0AD
:102E600000F0A3BCFF2804BF98F80C20072A40F00C
:102E7000C5822AF0E1FC40F0A486199D95F8F9007E
:102E8000022808D0D8F804000AF168042AF07FFB71
:102E90000EC4CAF874000F2000F098BEFF2804BFCB
:102EA00098F80C200B2A40F0A982BEAE09F104016B
:102EB00020222AF019FBDDF864B00DF54679402296
:102EC0000BF1240A4846514640F043F8D8E9011274
:102ED0004CAC204629F018FF0DF55C7831462246AF
:102EE0004B46404629F040FE9DF87003C00700F0B5
:102EF00070869DF8730308F106018DF8AA0012226E
:102F0000BDF87103ADF8A800BDF874431AAE06F120
:102F1000450040F01EF806F1570008F118012BF0AB
:102F2000AEF806F120004CA92AF0D5FB30465146F8
:102F30002AF0D1FB28465021ADF8AB403FF0B2FF5C
:102F40009BF80801811E38BF0221DDF860A0C9B2DC
:102F5000022901F034820DF55C79032941F04E829B
:102F60000F202BF087F8DAF83820D6AEDCAC2AF048
:102F7000A6FE9DF85853FF2D41F0E883E01D1AA9E5
:102F80002AF0AFFB09200DF59F6801F0F9BC98F815
:102F90000C10FF2808BF022900F04F84DDE918A5B6
:102FA000FF2800F0318276E2FF2804BF98F80C2059
:102FB000082A40F02382D8F80820002A01F022874E
:102FC000D8F80400DDE918A50478022C80F04086CA
:102FD0000DF59F68062A41F2058750F8011F0DF58F
:102FE0005C79C5F811118188A5F8151195F8F910CB
:102FF00085F81741022907D08188A5F8F4100068E8
:10300000C5F8F00085F8F64095F822110DF59F609F
:103010005246FEF7ADFF00F0A9BFDDE918A5FF2875
:1030200040F0FC8298F80C100A2900F0DF85012995
:1030300040F0EA81D8E90112DCA829F0C5FF9DF82B
:103040007003022840F0D4860A202AF08FF901F09C
:1030500090BA00BFC0FFFF7FFF2804BF98F80C2084
:10306000022A40F0CB81199DDCA860222AF063FB84
:103070009AE8500805F188013022DAF80C901AA875
:103080003FF067FF2AF0D8FB40F0F883D8F804003F
:103090000DF59878224633468D9D0168169141685A
:1030A0001591816814911899C06813904046CDE934
:1030B00000B9FEF727FF9DF830A1BAF1FF0F01F02C
:1030C000B6800DF59F6208F10101501D90462AF06F
:1030D00008FAFF208DF8FCA401F0CDB8FF2804BF4A
:1030E00098F80C20032A40F08981199DDCA8B022B1
:1030F0002AF021FB2AF0A0FB40F07A858D98DBE9CD
:103100000EA900F07F04DBF83410A4F14002DBF8D4
:1031100030501591494614905046D8F804601695E1
:103120003FF0D2FD15998046284622463FF0CCFD5F
:10313000C4F140021590504649463FF0DBFDB368AC
:10314000F568D6F800907268DCA9039120310291ED
:10315000402CCDE91253CDE90035159938BF41EA2D
:1031600000081698002C08BF8046E3482BF00DF8A5
:1031700090461AA84A4643461BF0DCF9DBE900C139
:10318000DBE902231AAE1D9870CE6940584008430F
:1031900086EA020184EA0C021143084340F03186BA
:1031A0001499DDF860A0CBE908980DF59F68139895
:1031B0001329CBF828001298CBF82C0041F0DE81BF
:1031C000DCAB199D0DF59F60514605F1D002FFF76C
:1031D0004DF800F04ABDFF2804BF98F80C20022AE1
:1031E00040F00C812AF09AFF1AA83FF05DF82AF00F
:1031F00023FB40F04383D8F804002AF0C8F985E89F
:103200000E00B968E86005F1100001F04BFED5E949
:103210000601D5E90423CDE90001DCAC2AF0E9FC84
:103220002BF04AF840F09686E01D1AA92AF059FAC8
:10323000042000F0E7BEFF2804BF98F80C20032A02
:1032400040F0DC8019980DF1680BB02200F1080104
:1032500058463FF029F82AF0EFFA40F00F83D8F8EB
:1032600004000BF120028168D0F80CA0D0F8049083
:10327000D0F800800020CDE9001ACDE915214B4699
:10328000CDE9022B42460490C6A81BF053F9D5E9BC
:1032900002E3DDE9C646DDE9C802D5E900C15A40CE
:1032A000714080EA0E0011438CEA04021043084387
:1032B00040F0B48505F11003169CC5E908890FCBD1
:1032C000C5E90A4A159DCDF800B001AE86E8200395
:1032D000CDE9044A1BF06CF9199D044695F80801E4
:1032E000022841F06381854823F04AFD2AF0F5FC6D
:1032F00023F0AEFE0DF59F601AAB39E3FF2804BF43
:1033000098F80C200C2A79D1DCA8199C00F1100542
:10331000DCA804F1080150223EF0C6FFD8E9010103
:1033200005F1280B0E902869139068691290A8691E
:103330001190E8691090286A1490686A1590686B7B
:103340000F9004F58F709BE8000B1691D5E90EA63F
:1033500029F072FDD4F8142120F07F40D4F8111127
:10336000CDF833214C91D4F80D21D4F80A11CDF8C1
:103370006B201A91CDE908A60A904CA80B901AA8C8
:103380000C90139802901298039011980490109842
:10339000CDE9050B0F98CDE900890790D6A8DCA9E7
:1033A000DDE914231BF062F81698102806D1D6A97F
:1033B0000E981DF039FD002800F039854FF00B09FB
:1033C0000325DDF860A00DF59F68BEA908F1060091
:1033D00012223FF0BEFDFF208DF8FD948DF8FC54C5
:1033E0000DF55C798DF8F804199D00F0C1BDFF283A
:1033F00004BF98F80C20032A00F0A782FF280BD105
:1034000098F80C10DDE918A5042924D029F0AEFFA6
:103410000D2900F008810DE1DDE918A5053908291D
:1034200000F2FC80DFE811F009003700FA00FA0032
:103430009200FA00FA00DE00F700012800F0E282B4
:1034400029F094FF022840F0F58040F60340ADF8E3
:10345000FC0400F090BDD8F808000DF55C79002858
:1034600001F0C884D8F804000478254823F088FCCB
:10347000601EC0B2102828BF0824204628F042F859
:1034800023F0E6FD03208DF8FD448DF8FC040DF5D6
:103490009F6800F070BD032840F0C080DCAE05F1ED
:1034A0001801902230463EF0FFFE0020D8F80410AC
:1034B000CBE90C103246CBE910100021CBE90E000D
:1034C0005346CBE91200B8689DF8315200901AAC0F
:1034D0002046FEF743FE9DF86860FF2E00F09183C2
:1034E0000DF59F68611C08F1050029F0FAFF8DF8C1
:1034F000FC6400F035BD00BFC0FFFF7F340000005A
:103500009300000060A1040020000000940000006F
:10351000D80000001F000000DC000000E2000000F6
:10352000DA000000CB000000D30000001E00000005
:1035300005BB0200A4D20400E4000000CE0000009D
:10354000D700000064000000C9000000042865D115
:1035500005F108011AADB02228463EF0A5FED8F8C4
:10356000010008F1210416902022D8F80D00214610
:10357000D8F805B0D8F809A015904CAE29F0B4FFE2
:103580005FF8801020461DF04FFC40B95FF88C10AA
:1035900006F110001DF048FC002800F0AB8429461D
:1035A0000DF598792031002099E860033346CDE984
:1035B0000089CDE902112A460490DCAC20461AF0BD
:1035C000B9FF4CA800F1100120461DF02DFC002889
:1035D00000F09484FF208DF8F80440F20340ADF829
:1035E000FC044DE1D0B998F80100002800F08B836D
:1035F0005FF8EC0023F0D0FB95F823010DF59F68F0
:10360000800700F13D8695F822110DF59F60524626
:10361000FEF7AEFC29E3002800F0E88129F0A6FEC1
:103620000138022806D20DF59F608CA92AF045FDCD
:1036300000F09CBC15208DF8FC0400F09CBCD8F870
:103640000800002801F0D883D8F8040004785FF857
:10365000440123F095FB601EC0B2102828BF082447
:10366000204627F04FFF23F0F3FC8DF8354203206E
:103670009CE02AF0E1F840F08781D8F804108CAC87
:10368000A01C29F089FF19990DF59F682AF092FA7C
:1036900029F0E7FFDDF860A004207DE118990DF521
:1036A0009F60D8E901A91DF06AF89DF8210502285C
:1036B00019D00D200DF59F688DF8F8041898434631
:1036C000816A826BDCAC2AF0BFFB9DF87003FF2897
:1036D00009D02AF00AFA5FF8C80123F051FB29F05B
:1036E000F7FF23F0B5FC0DF59F6051464A4629F0DF
:1036F0006BFC9DF8F844022C40F0528129F042FF07
:103700000A20BBE2072D08BF042800F0CA81411E31
:103710000329FFF45DAB002847D10A2D45D198F865
:103720000100002800F027815FF8180223F034FB25
:10373000DDF860A00DF59F680DF55C793DBB0DF5DA
:103740009F64514620461CF0C8FF9DF82155FF2D6F
:1037500000F00087DCAC0DF59F61292229F0F9FE0D
:10376000DDF822052146199E29228890BDF82605FC
:10377000ADF8240206F1D0003FF0EBFB8898C6F8C4
:10378000FA00BDF8240286F8F950A6F8FE0019994F
:1037900091F81D01800700F1AB8291F822018007AA
:1037A00000F143850D2001F0E2B815208DF83402B8
:1037B000DDF860A00DF59F688CA808F104010430C5
:1037C00090E87C000E207CC18DF8F8040DF55C7942
:1037D00008F1040109F104001DF084FB0C202AF01B
:1037E00049FC4B46DAF838204CAC2AF02DFB2AF085
:1037F0003AFB0AD02AF074F95FF8E40223F0C0FA29
:10380000484627F0CDFD23F023FC199D0DF59F615F
:1038100028462AF052FC8CAC2946204628F0E6F9CE
:10382000FF208DF870039DF83002DCAEFE2818BF33
:103830002646179D96E81F00DAE3DDE918A529F072
:10384000FBFF40F0CA80D8F804100DF59F6808F11E
:10385000020029F0A1FE0DF55C7905F1180109F1CE
:10386000060029F03EFF012049468DF8F90408F1D1
:103870001200B6223FF06DFB062038E329F0D5FE9A
:1038800029F080FE6FE34CAE05F1D004514630467E
:1038900022461CF0A4FE2AF0E6FA10D00DF55C7A60
:1038A00096E83E0050463EC05FF890032AF0FBFBCE
:1038B000504605F1D00427F073FD23F0C9FB2068C2
:1038C00005F1E00C1690AB4660681590D4E902AEA5
:1038D0004C469CE86F006FC4DDE915209BF8F8C0EA
:1038E000CDE9E0AE0DF55C7ECDE9DE020EF118010A
:1038F0008DF871C399E87D00F1467DC10B207346B8
:103900008DF8700318988DF8A1838DF8A0C3816A93
:10391000826B4CAC2AF098FA2AF0A5FA3FF475AF06
:103920002AF0DEF85FF8080468E7199B09F108003F
:10393000D8E90112D033CDE900308CA8DDF860A0C1
:103940005346FEF7E5F8FFF749BA199DDCA8B02207
:1039500029F0F1FE29F070FF40F04E81D8F8040004
:1039600029F015FEFF90FCA80EC0DCAB0DF59F60A2
:10397000DDF860A04AE05FF8540423F00DFA2AF065
:10398000A3FC40F603702FE20520DDF860A08DF85F
:103990003402FF200DF59F688DF83002FFF722BA40
:1039A0009DF8FA540DF59F68DDF860A0280700F136
:1039B0005F81032062E15FF8900423F0E1F9204683
:1039C00021F0F6FA23F044FBDDF860A005200DF5A8
:1039D0009F688DF8340200F0C9BF05200DF59F687F
:1039E0008DF8FC04FF200DF55C7980E298F8010069
:1039F000002800F095815FF8CC0423F0CDF9112068
:103A000000F045BC09F108030DF59F6005F1D002F7
:103A10005146FEF72BFC26E140F60340ADF8340298
:103A2000C6E640F60320ADF8340235E040F6033038
:103A3000ADF83402FF200DF59F6800F098BF2AF022
:103A400043FC40F60320CFE12AF03EFC05208DF830
:103A50003402FFF7C1B99DF8690000287FF4F9A985
:103A600098F80C000C287FF4F4A929F0E5FE40F04A
:103A7000C186D8F804108CACA01C29F08DFD1999D2
:103A80000DF59F682AF096F829F0EBFD032000F071
:103A9000B7BE05208DF83402FF208DF83002FFF705
:103AA0009BB9199C0DF59879B02204F1080148469C
:103AB0003EF0FAFB08F121060DF5467A2022504629
:103AC00031463FF046FAD8F801001690D8F80900C0
:103AD0005FF8D0151490D8F80D0015903046D8F83E
:103AE000055094F81EB128F005F840B95FF8EC15C0
:103AF0000AF1100027F0FEFF002800F0FC84CDE959
:103B000012B5C6AB0DF53E780FCB119000BAC1903F
:103B100008BAC09010BA10914146BF9018BA0F92DF
:103B20000E93BE90DCAE304620F0E4FE0DF59F64AF
:103B3000002531464FF4B8722046CDF8DC54CDF85C
:103B4000D854CDF8D454CDF8D054CDF86856CDF82B
:103B50006C56CDF87056CDF874563FF055F9DCAE82
:103B600021464FF4C0722AF058FB09F120045FF897
:103B700040963046202221468DF8F054C847304602
:103B800021462022C8470DF59F64304601228DF85A
:103B9000F8542146C847204631464FF4C2723FF0E0
:103BA00033F99DF878A604F5B8715FF878361022DD
:103BB000504627F04FFA002966D000F8015B013922
:103BC000F9E70520199D8DF8FC04FF208DF8F80415
:103BD00014E040F60330DDF860A0ADF8FC04FF20EF
:103BE0008DF8F80429F0C2FB5D46BFE101204EE3E9
:103BF000052029F0C7FC08E129F017FDDDF860A0D9
:103C000031E00DF59F68E80700F0508109F10200EE
:103C100029F0BDFC8BE80E00CBF80C00DBE90601B7
:103C2000CDE900015146DBE904231AAC2046FEF73A
:103C300069F99DF86850FF2D40F08E8108F1080069
:103C4000DCA929F011FF0020CDF8FC04082088E150
:103C50005FF81C0723F094F8204621F0A9F923F01F
:103C6000F7F929F0E2FC0DF59F680DF55C797DE12F
:103C70009DF8FB64102E80F0708206208DF83502CE
:103C800003208DF8340297E5A7F13C060025204675
:103C900047F83C5C31468DF8785647E90E5547F8B1
:103CA000305C27F091FFA7F12C09314648461DF002
:103CB00075F904F5B076102D09D06019013590F82A
:103CC000601190F87021514080F86011F3E7BAF16B
:103CD000100F40F06C8229F055FCDDE912B5002090
:103CE000102800F07D8219F8001029F001FDF7E797
:103CF000DAF83C4004F108032AF026FA00F0918338
:103D000082AD0FC592E35FF8CC0723F045F840F68B
:103D100003700DF59F68ADF8FC040DF55C792AE1A0
:103D20000DF55C7829F0BBFE0DF168090D204346C6
:103D30008DF8700348461CF029FC29F0A0FF0BD039
:103D400099E86E0040466EC05FF80C082AF0ABF9A7
:103D500029F0BEFC23F07CF9E00700F093825FF8C5
:103D60001C0823F019F8DCAC29F03DFF9DF87053D6
:103D70000DF59F680DF55C79FF2D00F0478529F062
:103D800017FB8DF8FC54F6E00120AFE019990DF512
:103D90009F6808F10700B02218313FF0DAF80920D7
:103DA00041468DF830028CA829F09AFFDDF860A01A
:103DB000FFF71BB85FF870089B46169535466646B8
:103DC00022F0DEFF5046314642464B4627F0E6F9E8
:103DD000169B284621465A4627F0E0F923F038F989
:103DE0002AF072FA40F20340ADF83402FEF7F4BF55
:103DF0009DF8721329F0BAFA0A0700F1B483032080
:103E0000B7E329F0BFFB199D032004218DF8FC04C2
:103E1000FF208DF8FD148DF8F80426E7DDF860A08A
:103E200029F0A4FA40F60340ADF8FC04E2E3DDF823
:103E300064B002260DF168089BF81A119BF8204126
:103E40009BF8080101F0030104F0030481F0010173
:103E5000022884F0010408BF01262143DDF860A098
:103E6000B1FA81F1D5E900234909D5E902050391A9
:103E700051468DE8610040461CF00EFB9DF86850ED
:103E800008F102019DF8699012229DF89160C6AC7C
:103E900029F05FFB022E40F0AF83BEA84ECCFF2D71
:103EA0004EC0218801807FF48EAADDE308F108006E
:103EB000DCA929F0D9FD0020CDF8FC04072050E052
:103EC000DCAC514620461CF008FC9DF89953FF2DB0
:103ED00040F0CF830DF5987C94E86E0060466EC08C
:103EE00008F104009CE83E003EC0FF20199D8DF8BB
:103EF000F8043DE00DF5987999E860031AA800F1FF
:103F00007004199890F81E01002804BF8246834669
:103F1000169908BF0146159A08BF0246C4E9081B56
:103F200004F13000B968C4E90AA280E86003DCA8A3
:103F300000F0B8FFDDE9DE01DDE9DC23C4E90023A0
:103F4000C4E90201CDE90001DCAC29F052FE2AF0FF
:103F5000B3F952D00DF59F6829F02AFA8DF8FC5478
:103F6000FF208DF8F8040DF55C79199D9DF8F80493
:103F7000FF2840F0928108F1040009F1040190E863
:103F80007C0012207CC14C46199D8DF8700308F10D
:103F90000400211D1CF0A6FF0C20DAF828108DF873
:103FA000F8044346DAF838204CAC29F04DFF29F0EC
:103FB0005AFF09D029F099FDDFF8900E2AF073F826
:103FC00029F086FB23F044F81AACDCA928462AF035
:103FD00074F82046294627F01AFEFF208DF8F804D1
:103FE0009DF86800FE2818BFA046179D98E81F009E
:103FF0001FC50DF29C6D29F055BAE01D1AA929F0D4
:1040000070FB0A200DF59F682AF00EF83EF0A1FF24
:10401000A9E7DDE91010702241EA00484CA9DCA8AC
:104020003EF042F9139A28022946149DDDF858B053
:1040300040EA126A1298C4E900B640EA0222280255
:1040400040EA11614FEA082040EA1568159D139275
:10405000C4E9035220221291C4F80890C4E905A1D2
:10406000C4F81C80DCAC04F19000C6A93EF071FFDE
:1040700004F12000129A8DE8110851464346139826
:10408000CDE9036905951AF093FA0446199890F85A
:104090000801022840F00F83DFF8C00D22F070FE07
:1040A00029F01BFE22F0D4FF0DF59F64DCA9E01D72
:1040B00029F017FB092021468DF830028CA829F041
:1040C0000FFEFEF789BE1694D6A800F102080AF189
:1040D0000401102229F0FEFB82A84146841C29F02D
:1040E00071F90DF508782146102229F0F3FB0DF542
:1040F0005C79189942462AF05AF82AF0DDF800F067
:104100002B8399E85E0050465EC0DFF8540D22F024
:1041100037FE504627F044F922F09AFF8CA8DCA91C
:104120000530013113220DF59F683EF012FFFF208C
:104130008DF834528DF83002DDF860A0FEF750BEE5
:10414000E01DDCA929F0CDFA092021468DF83002C6
:104150008CA829F0C5FDFEF741BEBDF8FC949DF882
:10416000F9845FEA897041BF199991F81C0140F008
:10417000020081F81C015FEA895040F13584DAF8C9
:104180003C30D3E902E1D3E9042341EA030C4EEACF
:10419000020050EA0C0000F01084CDF8F8E4CDF8ED
:1041A000FC14CDF80025CDF8043500F00FBC16F84E
:1041B0000A00A7F12C0180F0800006F80A004046B2
:1041C0001CF0ECFEDDF860A00020DDE912B510283F
:1041D00004D018F8001029F08BFAF8E70DF59F6865
:1041E0000DF59F60314627F0EFFC0FCE00BAC1906D
:1041F00008BAC09010BABF9018BABE90C6A800F115
:104200001001BEA827F076FC0DF1380EDDF844C091
:1042100000289EE8104200F076812AF055F840F21E
:104220000340ADF83402FEF7DBBD0B209FE30DF534
:104230009F6ADCA90AF1080060220AF168083EF0D2
:1042400033F8169808F10C01C8F8000030221598D0
:10425000C8F804001498C8F808001398C8F81C900F
:10426000D04681E851080AF188001AA93EF071FE93
:10427000CDF8FC5408208DF8F804DDF860A072E653
:104280000E2006E0DFF8AC0B22F086FD10200DF5C5
:104290009F680DF55C798DF8F8044C460DF59F6923
:1042A000DCA8C82249463DF0FFFF9DF870031228A4
:1042B0003FF46DAE1AAC11287FF487AE95F8F98003
:1042C000B8F1020F04D1DFF87C0B22F065FD73E03A
:1042D00095F81A0100F00300012802BF95F82001AB
:1042E00000F00300012804D095F8F8C04FF0020850
:1042F00031E04CAE05F1D00B514630465A461CF029
:104300006EF929F0B0FD0CD096E83E0048463EC05C
:10431000DFF8280B29F0C7FE484627F041F822F0C5
:1043200097FEDBF8000005F1E00C16900DF1680E29
:10433000DBF8040014907446DBF808001590DBF8F5
:104340000CA0AB469CE86F006FC47446DDE91421F5
:1043500016989BF8F8C0CDF804252246CDF8000544
:1043600009F1180E8DF8F9C4CDF80815CDF80CA593
:1043700092E87B008EE87B000B204B468DF8F8041A
:1043800018988DF829858DF828C5816A826B4CAE06
:1043900029F049FF29F067FD0CD096E83E00484619
:1043A0003EC0DFF89C0A22F0EBFC484626F0F8FFFE
:1043B00022F04EFE1AAC199D0DF59F6805E628F017
:1043C000D5FF002800F025820A2029F053FEDAF8F4
:1043D0003820D6AEDCAC29F072FC9DF85853FF2D86
:1043E00040F0B681A01D1AA929F07BF906202146CC
:1043F000ADF8F80408F11200B622C3E208F1070094
:104400001AA9B0225D463EF0A4FD03200DF59F627F
:104410008DF8F804501C41469046B7223EF099FDB5
:10442000A4E50020CDE98400CDE982000DF59F666A
:1044300082A9304602F092FC29F036FF46D14CA802
:10444000311D00F10309102229F0AEFED6AE494617
:1044500028F0BFFE0DF59F685146324640461BF0DE
:10446000E8FF29F021FF40F06B812068C10700F0D0
:1044700073826168000A0DF59F660A0E8DF8F621B9
:104480000A0A40EA01607C90ADF8F4217CA930462C
:1044900002F0AEFC9DF8F8540DF59F68FF2D15D184
:1044A000311D484629F078F8BEAE494628F091FE05
:1044B0000DF59F645146324620461BF0BAFF29F0A5
:1044C000F3FE40F010841999FFF767B9711C4CAEE8
:1044D000132229F009F8C6A81ECE1EC029F075FDCA
:1044E0003DE28CA80DF59F61083029F0BDFA8D944E
:1044F0000520FFF7D2BADDE9C6CE0DF59F68DDE9EC
:10450000C894DDF860A04CA8149E90301BF0010107
:1045100004BF0E460D46169A08BF0A46159B08BFF3
:104520000B4600F10C0180E86400B022C0E906945B
:1045300008F1070081E808504CA93EF00AFD082068
:1045400041468DF830028CA80130B7223EF001FDC3
:10455000FEF746BC29F0C4FA49468CA891E87C00D5
:1045600004307CC002E29DF873230F2A00F2BA8166
:1045700006208DF8FD040320FFF75DB8B8684C1CD9
:1045800000901AAEDCAA214630465346FDF7E6FD00
:104590009DF868500DF55C79FF2D24D108F10800D5
:1045A000DCA929F061FACDF8FC4499E1DFF86C0848
:1045B00022F0E6FB29F091FB22F04AFDDDF860A035
:1045C00009208DF87003DD9429F069FA4CAEDCAC5B
:1045D00029F075FB9DF830510DF59F680DF55C795C
:1045E000FF2D00F0C88108F10500711C28F079FF4B
:1045F0008DF8FC54FF20A2E208F1140C16960DF57C
:104600009878BCE84F00C646AEE84F009CF8000022
:104610008EF80000BDF89600ADF80C02DDF89200AF
:1046200082901AA94DCC8C46ACE84D00122220880D
:10463000ACF800000BF1D2008BF8D1908BF8D05081
:104640003EF087FCB8E83E000BF1E4003EC016994E
:104650008BF8F91098F8001001708298CBF8FA00E6
:10466000BDF80C02ABF8FE000C200DF59F68FEF7BC
:10467000B7BE4CA8DCA929223EF06BFCDDF89A03FA
:10468000022DC690BDF89E03ADF81C0300F0AF8369
:104690004CA9199C292204F1D0003EF05AFCC6987E
:1046A000C4F8FA00BDF81C0384F8F9502546A4F8B4
:1046B000FE000D201BE4DFF8A00722F061FB29F0CB
:1046C0000CFB22F0C5FCDDF860A00920CDF8FC440D
:1046D0000DF59F6429F0DEF92346DAF83820BEAEE6
:1046E00029F0A1FD9DF8F8520DF59F68FF2D00F00F
:1046F0004D818CA8711C053028F0F3FE8DF83452E2
:1047000034E14CA8211DC61C28F063FDC6AC31461F
:1047100028F058FE0DF59F665146224630461BF0A4
:1047200088FE9DF8F8440DF59F68FF2C00F03A8153
:104730008CA8711C053028F0D4FE8DF8344215E1A8
:1047400008F10101C6A828F0CCFE06E10DF59F682E
:1047500008F10500711CEDE14CA9484628F0BBFFAB
:1047600009F12004C6A9202228F0F3FE169812228F
:104770008DF8B303BDF80402ADF8B0039DF806024E
:104780008DF8B20309F145008DF8B4637CA93EF0C1
:10479000E0FB09F1570079A929F071FC5846502136
:1047A0003EF080FB19990DF59F6891F808010238D9
:1047B00038BF0220C0B2022800F0C581DDF860A039
:1047C000032840F0F7810F200DF59F6529F062F96D
:1047D0002B46DAF83820D6AE29F025FD9DF858434F
:1047E000FF2C40F06582E81DDCA928F07AFF072045
:1047F0002946A6E605200DF59F688DF83402FF20B6
:104800008DF83002DDF860A0FEF7ECBA199D0120AA
:1048100041E506F190001690E44840F2FF18D7F801
:1048200008A04FF0FF39834650461FF0A1F8044618
:1048300050460E461FF09CF8DD4D0023A0FB0502FC
:10484000E1FB0523A4FB0541A6FB056576184FF0A7
:104850000001454152F1000253F1000024EA08032F
:1048600041F10001BBEB030379EB060379EB050390
:1048700079EB0202D8D3169C0022DDF860A004F187
:10488000100384E8070083E8070008218DF87013FF
:10489000DA60E260DD9029F002F9D6ACDCAB29F0F9
:1048A000D3FA9DF858530DF55C79FF2D40F03D810A
:1048B000B86800210090DCAC1AAA534620460026B6
:1048C000FDF74CFC9DF870530DF59F68FF2D40F0EF
:1048D0002E8108F108001AA929F0C6F8CDF8FC6469
:1048E00007202CE185F8201105F58F7185F81E0150
:1048F00005F58C70BDF874339DF87143A5F822312D
:1049000085F8212185F81F4128F0A0FA85F80801D3
:10491000DFF8100585F8091122F032FA29F050F974
:1049200022F096FBDAF82C104CA828F0D4FEDAF826
:104930003010DCAE402228F0D7FD0DF1680831467A
:10494000404602F063F929F09AF900F07A810A20D2
:1049500003248DF819039FE105250DF59F688DF857
:1049600034528CA80530C6A928F0BBFDFF208DF875
:104970003002FEF735BAE01D1AA928F0B2FE052074
:1049800029F052FB3EF0E5FAFFF7EFBAA01DDCA9D3
:1049900028F0A7FE03202146ADF830028CA8123083
:1049A000B622D3E5129C132C40F08881F01DDCA9BF
:1049B00028F097FE09203146C3E50020CDF8040514
:1049C000CDF80005CDF8FC04CDF8F804DFF8681444
:1049D0000DF59F601CF028FA30B1199991F81D016E
:1049E00040F0020081F81D0119980C2180F8205137
:1049F000054680F81F8105F58C78A0F8229180F893
:104A0000216180F81E4190F81901032808BF082190
:104A1000DAF8380090F8702390F87133881885F828
:104A20001A0105F58F7013B1012188F80010414675
:104A300028F00CFA85F80801DFF8340485F809112C
:104A400022F09EF929F0BCF822F002FB0DF59F60E0
:104A5000012102F065F829F027FC3FD19DF8086597
:104A6000DDF80445BDF80905ADF8180331469DF899
:104A70000B058DF81A032046DDF8FC94DDF800558F
:104A800017F056FF29F0F7F840461A4628F08CFA3E
:104A9000C0B2022844D1CDF8F8940DF59F68BDF856
:104AA00018030DF55C79ADF8050551469DF81A031C
:104AB00042468DF8070548468DF80465CDF8004557
:104AC000CDF8FC541BF0B5FC29F0F6FB59D10DF5DF
:104AD0009F6801208DF83002FEF787B99DF8082500
:104AE0009DF8FB048DF88023DDF804258DF8730311
:104AF000BDF8F904DF92DDF800259DF80B15ADF83F
:104B00007103BDF80905DE92DDF8FC24ADF8300133
:104B10008DF83211DD928DF88313ADF881033BE0FF
:104B2000484629F08BF9052536E00DF59F6808F118
:104B30000500611C28F0D5FCFF208DF8FC548DF891
:104B4000F804FFF712BADDF860A091F80901002817
:104B500000F0CE800A200DF59F6528F09BFF2B46C4
:104B6000DAF83820D6AE29F05EFB9DF85843FF2CCA
:104B700040F09E80A81DDCA928F0B3FD0420294642
:104B80000AE799E85E0040465EC0BA4822F0F8F8AD
:104B900028F09EFD22F05CFADCA98CA805300131DA
:104BA00028F09FFC8DF83452FEF704BEFFC5FCFFD1
:104BB00040420F00B9680BF1100000F073F9DBE917
:104BC00006010025DBE904238DE803020DF59F6053
:104BD000CDE9034519F0AEFCDDF804150DF59F682D
:104BE000DDF8F824DDF8FC34DDF80005CBE902013E
:104BF000CDE900014046CBE9002301F0BBFF9DF861
:104C0000F844FF2C63D182A808F10401C61C28F0E7
:104C1000E0FA88AC314628F0D5FB0DF556795146BF
:104C2000224629F0C4FA9DF85843FF2C40F08080BA
:104C300008F10700DCA928F054FD02204146FFF7E7
:104C400085BABEA808F10401861C28F0C2FAD6A8CD
:104C50003146841C28F0B6FB0DF50279214610225E
:104C600029F0A2FA51460DF5467A4A4650461BF005
:104C7000E0FB9DF81843FF2C40D09AE86E004046B8
:104C80006EC0694822F07CF828F022FD22F0E0F99D
:104C9000DDF860A00DF55C79C6A90DF59F6808F1F7
:104CA0000500013128F01DFC8DF8FC44FFF763B9C5
:104CB0008CA8711C053028F014FC4CE08CA8DCA9F1
:104CC000083028F0D1FE601C8D9005204FE682ADA3
:104CD00008F10101132228F043FCD6AE2946701CCE
:104CE00028F0FFFB30E0611CC6A828F0FAFB36E68E
:104CF000DAF8000098B3DAF8041049E008F103008C
:104D00004CA928F0E8FC0DF59F64DCA904F124000F
:104D100040223EF01EF9022041468DF8F804601C46
:104D20002322A0463EF015F9DDF860A0FEF79DBFF6
:104D300099E86E0040466EC04C4822F021F828F0F9
:104D4000C7FC22F085F9D6AE8CA8711C053028F07E
:104D5000C8FB0DF59F68FF208DF8344207E6BE685A
:104D60002F4C414DD6F80001402807D33046002192
:104D700018F076FBD6F80001402846D2421C56F8BF
:104D80002000C6F80021A0FB0401A8421046EBD881
:104D90000BF1400000260BF13002CDF8FC14C0E905
:104DA00000160DF59F63C0E902660820C2E90016EF
:104DB000C2E9026628F06EFEDAF83820D6AD284641
:104DC0001BF0E4FB9DF858438CA8FF2C05D108305C
:104DD000DCA928F049FE8D9677E70530691C6AE763
:104DE0001B4B00E00B4B0120072121F081F90F48FC
:104DF00021F014FE144A06E01F4A04E0154A02E0BE
:104E00000B4A00E0044A28F0E8F9164A402121F054
:104E1000B5F900BFDC530400CC5304003600000099
:104E200040420F0037000000E0000000BC530400C7
:104E3000AC530400CF00000060A10400E3000000B8
:104E4000D9000000E50000009C530400DB000000D6
:104E500010D1040000D10400350000003300000030
:104E6000E10000009C9F04007F3DF1FFDD00000099
:104E700038000000D60000007C530400D0B502AF1B
:104E800092B0BC688DF81020FF228DF80420CDE987
:104E900002343A69FB68009201AAFDF79FFC12B048
:104EA000D0BDD4D4F0B503AF2DE9FF07DFF894905F
:104EB00000260D468046EA46CDE90266CDE9006649
:104EC0000F2E1ED8D5F80041402C07D328460021CC
:104ED00018F0C6FAD5F80041412C2AD23046514686
:104EE00010224B4626F0B6F802460B4605EB84002E
:104EF000C4F1400123F0EEFC2044C5F800010E444B
:104F0000DEE704A89AE81E001EC004AB28F07DFB73
:104F10001FBFA8E80F0008B0BDE80007F0BD0848B3
:104F200021F02EFF04A826F0B1FB22F091F821F029
:104F3000DDFF054B20464021402221F0D9F800BF7B
:104F4000EB000000C4D704008C9F0400D0B502AF72
:104F50000F4A126BBFF35F8FA2B152680123014465
:104F60001360002388420AD0D2F80041002CFBD005
:104F7000C2F80031D2F8084500F8014BF2E70120F1
:104F80005060D0BD034821F007FF21F0AFFF00BF04
:104F9000A0E60320AD000000D0B502AF04460A48E9
:104FA00021F0CDFE2078FF2806D028F073FB2046A4
:104FB000BDE8D04026F0F4B928F028FC6068BDE8D0
:104FC000D04023F015B800BF05020000D0B502AFF5
:104FD00004460A4821F0B3FE2078012806D128F0C3
:104FE00059FB6068BDE8D04023F002B828F00EFC01
:104FF0006078BDE8D0401FF05BBE00BF110100002B
:10500000F0B503AF4DF804BD0446764821F097FE95
:105010002578FF2D15D128F03DFB784821F08FFE33
:105020002579FF2D26D128F035FB794821F087FE20
:10503000207A21F0BFFE608921F081FED4E90301CE
:10504000B5E00020002621F0B5FE674821F077FE8C
:10505000B5F10A0098BF3046E0B1012829D128F007
:1050600019FB634821F06BFEA08921F068FED4E9AA
:1050700001019CE028F0CAFB614821F060FEDFE8F6
:1050800005F00543233221505B415F0028F0BEFB51
:10509000E08811E028F0BAFB564821F050FEDFE826
:1050A00005F0066A575C517A8C6096538E0000209A
:1050B00062E028F00BFE4D485DF804BBBDE8F0400F
:1050C00021F03DBE04202DE028F000FE4D4821F0E7
:1050D00036FE4D48257D21F032FE681E18BF0120A6
:1050E00021F068FE15E028F0A0FE607921F062FE54
:1050F000208921F024FEA0795DF804BBBDE8F040D2
:1051000026F0F2B9072018E028F0C4FA3F4821F051
:1051100016FE04F108005DF804BBBDE8F04026F07F
:1051200043BA052021F046FE04F108005DF804BBF7
:10513000BDE8F04026F028BA062021F03BFE34E01E
:10514000082048E0042004E0092021F033FE8EE727
:10515000022021F02FFE6088AEE728F066FE60880E
:1051600083E7072021F026FE608821F0E8FDA08873
:1051700021F0E5FD19E0012021F01CFE608A21F0FC
:10518000DEFDA08A21F0DBFD601C5DF804BBBDE8FC
:10519000F04026F01BBA052021F00CFE6088164D69
:1051A000A847A088A847E088A847D4E902015DF88D
:1051B00004BBBDE8F04022F0F9BD062000E00A2063
:1051C00021F0F8FD608821F0BAFDA08874E708207E
:1051D00021F0F0FD60785DF804BBBDE8F04021F0FF
:1051E000E9BD00BF0202000013020000030200003C
:1051F0001A020000100200003F6D020014020000BD
:10520000080200000A020000190200000902000062
:105210000E020000D0B502AF0446044821F08FFD15
:105220002046BDE8D0401EF063BC00BF1400000063
:10523000D0B502AF04460A4821F081FD208801283C
:1052400009D128F027FA074821F079FD6088BDE8E8
:10525000D0401FF0E7BC0020BDE8D04021F0AABD3F
:105260000E0000000F010000D0B502AF0446044854
:1052700021F065FD2078BDE8D04021F09BBD00BF46
:1052800015000000B0B502AF0546044828F01BFD2C
:1052900028462146BDE8B04021F016BE02000000BD
:1052A000F0B503AF2DE9000FB1B0054688680024C2
:1052B000884600288C6053D0D8E9046B0A90B868FF
:1052C000D8F80C1000280895099153D0304659465B
:1052D0001AF0A4FB2BAC28F0CEFC20461A4627F08F
:1052E0008DF92D980E3405900A222C9821460690AF
:1052F0009DF8AD00BDF8B8A0BDF8AE509DF8AC90DB
:10530000079017A83DF025FEB9F1FE0F00F09E8131
:1053100017A920460A223DF01CFE0598B9F1FF0F9F
:105320002D9006982C900798ADF8B8A0ADF8AE5027
:105330008DF8AD008DF8AC9000F094810122002032
:10534000B9F10A0FA9F10B0188BF52FA81F00028C8
:1053500000F0BC80012800F0C6804FF0000AC2E0D7
:1053600098F80410D8F800001BF0E0FEAC6029713A
:1053700028601AE130465946CDE906231AF04EFB63
:105380002BAE28F0FBFA0DF15C0BB11C16229DF838
:10539000ACA058469DF8AD903DF0DBFDBAF1FE0F94
:1053A00000F05981594611A87CC97CC01622098891
:1053B000018059468DF82D908DF82CA00BA8023055
:1053C0003DF0C7FDBAF1FF0F00F051818DF85D90FF
:1053D0000BF102008DF85CA011A9162216243DF0F5
:1053E000B8FD2BA827F06CFD2B9D002D69D0DDE9C1
:1053F0002CA1FB200DF1AC0B0422CDE91D100020E7
:105400001F90584603911DA94FF0040926F07EF91C
:105410002B9E9DF8B040002E00F0B4800BF10501EA
:105420000DF1980B1322CDE9045A58463DF091FD39
:10543000DDF89B100DF18C0922910BF107012698E4
:105440000C22CDF8850028F0AFFED8F8005098F86F
:1054500004A0D5E900018DF884405246209618F04A
:10546000D3FF1FFA80FB484626F0B8F9864B024668
:105470000E468B4528BF8B4611465846324626F0CD
:10548000A3F9CDE900012BA817AB0699079C42466A
:10549000A0479DF8AC00FF2800F08A80089E9DF888
:1054A000AF1006F10805F171BDF8AD10A6F80510B2
:1054B0002CAC30711ECC1EC5DDE9045A00203060D2
:1054C0006BE00899002008600C716AE0B9F10A0FDE
:1054D0003FF643AF0120AA4600FA09F040F20C4122
:1054E00008423FF43AAF304659461AF097FA00297D
:1054F00000F0C78098F80450D8F800600DF15C08FF
:105500000078ADF860A00DF12C0AF9682A468DF8F4
:105510005D0003208DF85E1031468DF85C0050462A
:10552000434600F0BDF89DF82C40FF2C0BD011AD88
:105530000AF10101132228F013F8089E294628F0E9
:1055400000F800251BE011A80AF10401C41C27F093
:1055500039FF0DF12C0A2146102250463DF0F9FC8E
:10556000304629461BF0E2FD054608F103000C46D3
:10557000514628F011F8089E414627F0E2FF3471A9
:1055800035600EE008990120487100200860E007AE
:1055900018BF4FF00D0981F804902846514627F0B6
:1055A000D9FCDDE9091027F0D5FC31B027F07ABF2E
:1055B000089E2C98012809D1DDE924212D98521A42
:1055C00082420ED24FF48270B08075E72846514671
:1055D0001BF0ACFD002231713060B260DDE90401E6
:1055E000DDE70C1820A8D146AB46214624F0EAFEA0
:1055F000DDE9045AC0B2022816D120A804214FF0D8
:10560000040824F0DFFEC0B2022816D122984946D1
:10561000044458461BF08AFD039AC6E9025AC6E9BB
:10562000042431713060BCE70121C00771714FF073
:10563000040018BF0D20307140E701217171C007CF
:1056400018BF4FF00D0886F8048037E7134821F0A3
:1056500097FB079803E00E4821F092FB484625F09F
:1056600071FF0AE00C4821F08BFB2BA803E00748F0
:1056700021F086FB0BA8FFF7C3FC21F0E9FC21F029
:1056800035FC044A27F0A9FD30550400F60000005F
:10569000FB00000040550400F8000000FC00000082
:1056A000F0B503AF2DE9000F9BB0044615A898464E
:1056B00091460E4627F004FC159D002D64D01698E7
:1056C0000DF1540B0690FB2017990422CDE9071029
:1056D00000200594042409905846CDE903690191FE
:1056E00007A926F013F8DDF854A09DF85890BAF1F8
:1056F000000F57D0029510AC0BF1050127F009FE01
:10570000DDF843100C2210980C91E11DCDF82D000E
:105710000DAE27F0E9FE8DF82C900BF10400CDF8CA
:1057200028A098E83E003EC05946FF208DF854005E
:105730003046FBF76FFEC0B2022828D10398049AC6
:10574000D0E9000118F060FE0F9D80B2A84238BF7A
:1057500005460AA8294624F035FEC0B2022816D113
:105760000AA8042124F02EFEC0B202280FD1059A07
:10577000FF20029910700C9851600699284491609E
:105780000199C2E9031019E01620207016E00121EA
:10579000059AC0074FF00400517018BF0D20029DFC
:1057A000107007E00599012048705FEAC97018BFC2
:1057B0000D240C700699284627F0CCFB1BB027F06F
:1057C00071BED4D4F0B503AF4DF804BD06461B48F6
:1057D0000068C0052AD11B481B4918F08FFF0546F9
:1057E00090F838000C46012804BF05F1300018F08D
:1057F00091FBA86AC0B195F83810E1B9D5E90C124F
:10580000002A05EBC203186483F83C6018BF01321C
:105810006A63914204BF012085F8380027F0D1FC6B
:1058200005F1080023F00EFB27F0E0BD044821F04D
:10583000B3FA21F05BFB054821F0F0F804ED00E03D
:10584000B100000098E20320A8C1040028C20400AF
:10585000F0B503AF4DF804BD84B006461D4800689E
:10586000C0052ED11D481E4918F048FF054690F886
:1058700058000C46012804D105F1500101A818F088
:105880005FFBA86CC0B195F85810F9B9D5E91412AE
:10589000002A05EBC2031866A3F85C6018BF01324A
:1058A0006A65914204BF012085F8580027F089FC01
:1058B00005F1080023F0BCFA27F0E5FE04B027F05C
:1058C0006EBE054821F068FA21F010FB054821F072
:1058D000A5F800BF04ED00E0B100000090E3032054
:1058E000A8C1040028C20400F0B503AF4DF804BD00
:1058F00006461B480068C0052AD11B481B4918F002
:10590000FDFE054690F870000C46012804BF05F125
:10591000680018F0FFFA286EC0B195F87010E1B970
:10592000D5E91A12002A05EBC203986783F8746060
:1059300018BF0132EA66914204BF012085F8700069
:1059400027F03FFC05F1080015F024FD27F04EBDBF
:10595000044821F021FA21F0C9FA054821F05EF847
:1059600004ED00E0B100000000E40320A8C1040041
:1059700028C20400BFB506AF0168DFE801F0041FCC
:10598000191B17252D1DD0E90101CDE9010101A841
:105990000390284821F0F4F9274821F0D0F927494D
:1059A00003A821F011FA21F053FBBFBD1E4806E009
:1059B0001E4804E0174802E0174800E01C4804B005
:1059C000BDE8B04021F0E8B94468164821F0D8F9A4
:1059D000204621F0C7F918E0D0E901540F4821F022
:1059E000CFF90F4821F0ABF9DFE805F0020C04060F
:1059F000002008E0022006E028F017FA204621F0F7
:105A00005BFA02E0012021F0D5F9BDE8BF4021F0AA
:105A10001FBB00BFC3000000B9000000BB000000B6
:105A2000FF010000B5000000B4000000C10000004C
:105A3000C2000000B8000000120000008CA40400A6
:105A400080B56F4618B1BDE8804027F083BA80BDAD
:105A500080B56F46016819B1BDE8804000F0BEB85E
:105A600080BD80B56F46C24312061CBFBDE88040B2
:105A700000F012BD80BDD4D40168426B8A429EBF43
:105A800000210160704780B56F46024B10460A4600
:105A900020F02EFBE4A4040080B56F4680BDD4D472
:105AA000F0B503AF4DF804BD0A460646D0E9000143
:105AB00018F0D6FA0C461249054606F5767024F021
:105AC00001FD0E4695F85E13A1B1013985F85E130C
:105AD000090604BF95F85C13042903D028F0F8FBED
:105AE00027F084BC103041F20131A5F85C1321F09D
:105AF00075FEF3E7034821F04FF921F0F7F900BFF5
:105B0000EC9E0400F300000080B56F46014640683B
:105B10004A7A00F5B7601AB1BDE8804015F0E1B9E6
:105B2000097ABDE8804015F0C0B980B56F4680BDE8
:105B3000B0B502AF456865B10289006828F0A3F8E6
:105B400038B10C46D0F84013294428F08EF827F0DD
:105B50009AFDB0BDB0B502AF88B00446D0E90620CA
:105B600043690020009002AD21462846FFF798FBCC
:105B70002846FFF76DFF204608B0BDE8B04000F0B2
:105B800071B8B0B502AF88B00446D0E906204369C9
:105B9000012194F82000CDE9001002AD21462846ED
:105BA000FFF77EFB2846FFF753FF204608B0BDE80D
:105BB000B04000F057B880B56F460178042907D08F
:105BC000082918BF80BD0430BDE8804000F058B8F7
:105BD00090F83A00BDE8804027F0B0B9F0B503AFC7
:105BE0002DE900078AB0D0F800A00446866800209E
:105BF000A06036B304F10C000DF1140808F108019F
:105C000090E82C002CC194F80490DAE900014A468F
:105C100023F040FC0A68B0F85803013A0A600AF51C
:105C20007E71ADF8140068464246069617F0ECFB0C
:105C3000019840B1029927F08DF9094821F0ACF89C
:105C400001E094F8049050464946FFF729FFE168C7
:105C500000200AB0BDE80007BDE8F040FFF7F0BE45
:105C600068000000D0B502AF0446D0E90201FFF79A
:105C7000E7FE21792068BDE8D040FFF711BFD4D4FA
:105C800080B56F4602C8DFE801F002020206BDE8F7
:105C90008040FFF75FBFBDE88040FFF772BFD0B51F
:105CA00002AF18F0F5FA68B10C4690F86F130022B5
:105CB000012980F86F2304BF00F51E7021F08EFDCE
:105CC00027F0E1FCD0BD80B56F4600F5B76000213C
:105CD000BDE8804015F0E9B880B56F4690F84410F3
:105CE00031B1032918BF80BDBDE88040FFF70CBF6C
:105CF0003830F9E7B0B502AF04460025902D08D042
:105D00006019017D032904BF043000F0F9FA183549
:105D1000F4E7B0BDD0B502AF044600F0B2FB04F129
:105D20001800BDE8D04000F0ACBBD4D480B56F46BD
:105D30000548002101220160044942500168002900
:105D4000FCD00021016080BD14710040F4FEFFFF13
:105D500080B56F46C0B2BDE8804039F039BFD4D4B9
:105D6000D0B502AF0446006850B9002020734FF050
:105D7000FF302060201D21F031FD27F084FCD0BDD4
:105D8000044820F0FDFF24F08BFB21F061F921F0A5
:105D9000ADF800BFA2000000F0B503AF2DE9000F81
:105DA00089B0824630480068C00557D189463049DD
:105DB000104618F0A3FC0546D0E90046D0F8E400F0
:105DC00005F1080B88460138C5F8E400584615F07F
:105DD00001F8241A66F10000BAEB040179EB000027
:105DE00035D3E9465946484618F04AF8BAEB04005C
:105DF000049004D0411E68461DF04AFE50B105AC27
:105E000099E84E0020464EC028F01BF810B128F04B
:105E100047FAF9E700206C46D5E90212914202D117
:105E20002A7CD2070DD005EBC101896949B920460A
:105E3000594618F033F89DF8000002280BD00120D5
:105E4000EAE7C0071CBF05F1B80023F032F827F0DD
:105E500056FA27F008BA074820F0E0FD034820F082
:105E60009BFF21F043F800BF04ED00E0B10000000B
:105E700038970400209D040080B56F4609490968E1
:105E8000C9050AD1094918F039FCD0F8E820013ACF
:105E9000C0F8E82027F089FB80BD034820F07CFF94
:105EA00021F024F804ED00E0B10000006897040040
:105EB00080B56F4609490968C9050AD1094918F032
:105EC0001DFCD0F8C020013AC0F8C02027F06DFBBF
:105ED00080BD034820F060FF21F008F804ED00E0E9
:105EE000B10000006897040080B56F460849096852
:105EF000C90508D1084918F001FC026C013A026496
:105F000027F053FB80BD034820F046FF20F0EEFF52
:105F100004ED00E0B10000006897040080B56F4612
:105F200090F88810032918BF80BD2C30BDE8804050
:105F300000F09BBA80B56F4690F8EC10032918BFAB
:105F400080BD1830BDE8804000F00CB880B56F46C9
:105F500090F8F810032918BF80BD2430BDE88040B8
:105F600000F000B880B56F4690F84410032908D0BF
:105F7000042918BF052909D14830BDE8804000F048
:105F800074BA4830BDE88040FFF7C8BF80BD80B517
:105F90006F46817F0339012988BF80BD2430BDE869
:105FA000804000F000B8D0B502AF044690F827005A
:105FB000042818BFD0BD04F13C0000F0F5F9E06AF8
:105FC000228ED0E90001BDE8D040FFF768BE80B561
:105FD0006F46417C042918BF80BD4068BDE8804001
:105FE000FFF7BEBED0B502AF044690F835000328D7
:105FF00009D0042803D0052818BFD0BD03E004F160
:10600000380000F09DF9002084F83400D0BDD0B5F0
:1060100002AF044690F83500032804D0042807D0C6
:10602000052818BFD0BD04F1380000F009F803E0DE
:1060300004F1380000F084F9002084F83400D0BD69
:1060400080B56F4690F85010063907290AD8DFE866
:1060500001F00A0F0904091409045430BDE8804016
:1060600000F076B880BD5430BDE88040FFF76EBFC9
:106070005430BDE8804000F059B85430BDE880404D
:1060800000F07FB980B56F4690F82010042918BF42
:1060900080BD2430BDE8804000F09DB980B56F46DA
:1060A00090F87C10032918BF80BDBDE88040FFF741
:1060B000E9BFD0B502AF0446007A032804D0042813
:1060C00004D16068FFF7D8FE00206072D0BDD0B563
:1060D00002AF0446807C032804D0042804D1206841
:1060E000FFF7E6FE0020E074D0BDD0B502AF044655
:1060F000C079032804D0042804D12068FFF7F4FEF7
:106100000020A071D0BD80B56F4690F834100329EF
:1061100007D0042918BF80BD5830BDE88040FFF784
:10612000DBBD5830BDE8804000F040B880B56F4618
:10613000017C032907D0042918BF80BD1830BDE8B1
:10614000804000F092B91430BDE8804000F000B803
:1061500080B56F46017C042918BF80BD1830BDE8AA
:10616000804000F082B980B56F46017F042918BFD6
:1061700080BD2030BDE8804000F00CB880B56F468F
:1061800090F85810032918BF80BD0430BDE8804046
:1061900000F05FB980B56F4690F85C10032918BF16
:1061A00080BD0830BDE8804000F053B9D0B502AFE3
:1061B000044690F85C00011F042906D3032818BF89
:1061C000D0BD04F16000FFF702FFE06B4068BDE85E
:1061D000D040FFF778BD80B56F46C0B2032818BF26
:1061E00080BDBDE88040FFF7A1BDD0B502AF044639
:1061F00090F82000042806D1E0690078FFF7A8FD98
:10620000002084F82200D0BD80B56F4690F8401081
:10621000032918BF80BD0C30BDE88040FFF7E5BF03
:1062200080B56F4690F84410032918BF80BD103028
:10623000BDE88040FFF7D9BF80B56F46017B0429D8
:1062400018BF80BD8068BDE88040FFF789BD80B57C
:106250006F4690F8A810032998BF80BDD0F8900031
:10626000BDE88040FFF77CBD80B56F4690F8D8113F
:10627000032918BF80BD0C30BDE88040FFF7B2BED7
:1062800080B56F4690F80012032918BF80BD10300A
:10629000BDE88040FFF7BBBE80B56F4690F8E011C7
:1062A000032918BF80BD0430BDE88040FFF7DCBF84
:1062B00080B56F4690F820100339C9B2032988BF12
:1062C00080BD044A52F821100844BDE88040FFF721
:1062D000D7BF00BF20A1040080B56F4690F8201002
:1062E0000339C9B2042988BF80BD044A52F821107D
:1062F0000844BDE88040FFF7C3BF00BF28DC0400AE
:1063000080B56F46017B032918BF80BD0430BDE80E
:10631000804000F055B880B56F4690F82D1041B11F
:10632000032918BF80BDD0E90601BDE88040FFF712
:1063300087BBD0E90001BDE8804026F00BBED4D475
:1063400080B56F4690F82C100339052918D8DFE87E
:1063500001F00317170D08123030BDE88040FFF739
:1063600002BF3030BDE88040FFF7F2BE3030BDE8FC
:106370008040FFF70FBF3030BDE8804000F001B82B
:1063800080BD80B56F4690F86010052907D00629BA
:1063900018BF80BD6430BDE88040FFF7FBBE74309D
:1063A000BDE88040FFF7C6BD80B56F4690F8251068
:1063B000042918BF80BD2830BDE88040FFF7B8BB76
:1063C00080B56F464179032918BF80BD0430BDE810
:1063D000804021F021B980B56F4690F8441039B162
:1063E000032918BF80BD1430BDE88040FFF793BF7C
:1063F000D0E90101BDE8804026F0ACBDD0B502AFC8
:10640000044690F88800032801D028B1D0BD04F1DB
:106410004000FFF7E0FF18342046BDE8D040FFF70A
:10642000DDBB80B56F4690F8A410032918BF80BD6E
:106430002430BDE88040FFF731BE80B56F4690F84C
:106440009410032918BF80BD0430BDE88040FFF7D9
:1064500051BC80B56F4690F85010032918BF80BD1D
:106460000C30BDE88040FFF7CFBE80B56F4690F896
:106470005810032918BF80BD1030BDE88040FFF7D9
:10648000CFBE80B56F46017D032918BF80BD0430A3
:10649000BDE88040FFF734BF80B56F46C0B2072823
:1064A00018BF80BD0846BDE8804026F047BD80B5D6
:1064B0006F4680BDB0B502AF051D0C4634B155E93D
:1064C0000101FFF7BDFA013C1035F7E7B0BDB0B5EB
:1064D00002AF051D0C4634B155E9010126F03AFD25
:1064E000013C1035F7E7B0BDB0B502AF00F13A0599
:1064F0000C463CB115F83A0C15F8401BFFF7CCFFE1
:10650000013CF6E7B0BDE0B502AFCDE9000101A95D
:1065100068461EF0E9FED4D4F0B503AF2DE9000FB4
:10652000D1B0CDE90F204FF0000C78694FF0000991
:106530001291010E11913EA901F11C022431089221
:106540000B9130A924310491010C000A0590D7E980
:10655000030B0E90D0480D910793804600200C90BD
:106560000C98C00740F07E824B45C0F077820F98B0
:10657000A3EB090ABAF1070F484407D80025AA453A
:106580004AD0415D0A2935D00135F8E7C11CAAF18E
:10659000080E21F003010C1A01D1002408E00025A7
:1065A000415D0A2926D00135AC42F9D1744512D893
:1065B0000559BA4A85F00A36961B3543061976689E
:1065C00086F00A31511A31432940C94311F0803F06
:1065D00001D10834EAE7A2451ED0191B2044A1EBE3
:1065E00009050022815C0A2903D001329542F9D1C4
:1065F00012E0151909EB05024FF00009541CB3D045
:10660000A1469C42B0D80F98A146805C0A28ABD125
:106610000020A1460C9004E0012064460C909946AD
:106620001A460F98DBF81C506245604401D10021E6
:1066300006E0A2EB0C014A1E835C0D2B08BF11463D
:10664000DBF824206FF000439A4228BF1A460E9BC5
:10665000CDE909549B1A0D9A0693D2B2022A0FD1A2
:10666000119A022A40F08D800144DBF81840DBF8D3
:10667000205018F08EF92919BA6801FB0025B2E103
:10668000119A022A40F00C81BA68CDE9000130A8C5
:10669000594614F061FD4EA830A918F093F9509AAC
:1066A000501C00F09F8127F075FD38BF08464E9DB5
:1066B00018B1012840F09781EDE7DDF83CA123A84F
:1066C000594621F049FA279C002CE4D0269E002E42
:1066D000E1D024980028DED4259B002BDBD423991D
:1066E0008219D1F808C06245D5D8CA6803EB040EF8
:1066F0009645D0D80CF1070227F03BFDACEB060E17
:10670000CDF808E00CFB03003346CDE9004013A8A8
:1067100016F074FA0D98CDE92064CDE91E5A8DF873
:106720006C003EAD13A91EAA284618F0DDF81BA880
:106730004C902AAC204629461AF093FC9DF8B000F4
:106740000028F7D00228A6D04C98DDE92A23047847
:10675000002AEED4002BECD42AA8129914F060FC85
:106760002A980128E5D1DDE92B108F2998BF472809
:10677000DFD826F0ACFC08BF43EA02050D543EAD5D
:10678000D7E7BA68CDE9000130A8594614F0E4FC17
:106790004EA830A918F016F9509A501C00F022812A
:1067A00027F0F8FC38BF0846DDE94E5670B10128E5
:1067B00040F01981DBF820000028E9D027F066F8C6
:1067C000CDE93E563EAA1DF0BDFAE1E723A85946A1
:1067D00021F0C2F9279C002CDAD0DDF898A0BAF19C
:1067E000000FD5D024980028D2D4259B002BCFD4DD
:1067F000239900EB0A02D1F808C06245C8D8CA68DC
:1068000003EB040E9645C3D80CF1070227F0B1FC48
:10681000ACEB0A0ECDF808E00CFB03005346CDE9C3
:10682000004013A816F0EAF921941EA880E860043D
:1068300011988DF86C003EAD13A91EAA284618F0D9
:1068400053F81BA84C902AAC204629461AF009FCA4
:106850009DF8B00010B102289AD0F5E74C98DDE918
:106860002A230478002AEED4002BECD42AA812990B
:1068700014F0D6FB2A980128E5D1DDE92B108F29E9
:1068800098BF4728DFD826F022FC08BF43EA02055C
:106890000D543EADD7E700BFFFFF1000000101011E
:1068A000BA68CDE9000113A8594614F055FC1BA89D
:1068B00013A918F087F81D9A501C00F0938027F058
:1068C00069FC38BF0846DDE91B5470B1012840F06F
:1068D0008A80DBF820000028E9D026F0D7FFCDE938
:1068E0003E543EAA1DF02EFAE1E71EA8594621F0BB
:1068F00033F9229E002EDAD0DDF884A0BAF1000F21
:10690000D5D01F980028D2D4209B002BCFD41E991D
:1069100000EB0A02D1F808C06245C8D8CA6803EB88
:10692000060E9645C3D80CF1070227F022FCACEB0B
:106930000A0ECDF808E00CFB03005346CDE90060D9
:1069400023A816F05BF90D9807F8A20C119807F828
:10695000A10C0498CDE92CA6CDE92A542AA921F04E
:10696000F5F930AC23A91C2226F0F3FDA7F1A20013
:106970003890A7F1A10037903EA8214638223CF07C
:10698000E8FA0020CDE94C004EA80B991AF087FBDD
:106990004E9801288BD1DDE94F653EA819F0CCFC5B
:1069A000C0B202283FF483AF0899002E51F82000AE
:1069B0000478E9D4002DE7D44EA8129932462B462C
:1069C00014F02EFB4E980128DED1DDE94F108F29FF
:1069D00098BF4728D8D826F07AFB08BF43EA0205BB
:1069E0000D54D1E7BD68DDE909026421079B944697
:1069F0004843B0FBF1F00E990144B8680E9185420E
:106A00007FF7AEAD2C1A05980D99164614F036FB9B
:106A1000C0B202280AD0B96800F001033E91DBE958
:106A20000A1227F0BFF93EAA1DF08CF978690D997A
:106A300014F024FB079BC0B2B44602283FF490AD8B
:106A4000B96800F001033E91DBE90C1227F0AAF9C6
:106A50003EAA1DF077F9079BB44681E50120644604
:106A60000C90DDE551B026F01DBDD4D4F0B503AFD8
:106A70002DE9000F8BB0064638690C4699B280B2FA
:106A8000D7F81490B1FBF0F002920390002001932C
:106A9000F96888422FD0039988422ED0411C049176
:106AA000F96900FB09183969029A0025D7F818B06E
:106AB00000FB012AB868A8421BD03969E808B1EB8D
:106AC000D50F24D91AF8000005F007018840000608
:106AD0000CD5114831460A90002009902246CDE994
