:10100000C869032001110000DF6C0200C132040036
:10101000DF6C0200DF6C0200DF6C020000000000E9
:10102000000000000000000000000000DF6C020073
:10103000DF6C020000000000DF6C0200DF6C0200C9
:1010400059110000C1110000DF6C0200BD12000048
:10105000DF6C0200DF6C0200ED7102004112000043
:10106000B1120000DF6C0200DF6C020035120000DC
:10107000DF6C0200CD110000DF6C0200DF6C0200AB
:10108000DF6C0200C5720200DF6C0200DF6C020040
:10109000AD110000DF6C0200DF6C0200DF6C0200AB
:1010A000DF6C0200DF6C0200DF6C0200DF6C02000C
:1010B000DF6C0200DF6C0200000000000000000096
:1010C000DF6C0200DF6C0200DF6C02008D1200009A
:1010D000DF6C0200DF6C0200DF6C0200091300000D
:1010E000DF6C0200DF6C0200DF6C02000000000019
:1010F00000000000DF6C020000000000DF6C020056
:1011000025F0F0FD0E480F490022814201D004C0B5
:10111000FBE70D480D490E4A814202D008CA08C0BB
:10112000FAE70C484FF47001026842EA01020260DB
:10113000BFF34F8FBFF36F8F22F037FE00DE00004A
:10114000088B032008F80320C8690320048B0320C0
:1011500078EF040088ED00E0B0B502AF3CF018F87D
:10116000104C206828B1002020600F48283026F05D
:1011700037FB606850B10C4D0020606005F128001D
:1011800026F02EFB05F1400026F02AFBA06838B1BE
:101190000020A06004484030BDE8B04026F020BBED
:1011A000B0BD00BF1C010040F0E6032080B56F46D3
:1011B0000248BDE8804026F013BB00BF20DA0320C0
:1011C00080B56F46BDE880403DF074BBF0B503AF1D
:1011D0004DF804BD144E0020306027F01FFA134D67
:1011E00004462868E0B94FF0FF302860E86870B125
:1011F000296988420BD0D6F808140170D5E903019B
:101200000130E860884204BF281D26F0BDFA2CF0AA
:1012100042FA20465DF804BBBDE8F04027F034BA3E
:10122000034825F0DBFB00BF00D1004068E7032046
:101230000CBE040080B56F46BDE880403EF0D6B9D4
:10124000D0B502AF0F4C206930B11020C4F80802AD
:101250000D48383026F0C4FA606830B10220C4F876
:1012600008020948383026F0BBFA206840B1012056
:10127000C4F8080204483830BDE8D04026F0B0BABF
:10128000D0BD00BF00710040F0E60320D0B502AF32
:10129000054C206830B10548483026F0A1FA4020BE
:1012A000C4F8F001D0BD00BF18310240F0E60320C1
:1012B00080B56F46BDE880403DF0F0BAD0B502AFD2
:1012C0000F4C606C38B10F48503026F089FA4FF45B
:1012D0008020C4F80402206830B10A48503026F05B
:1012E0007FFA0220C4F80402206A38B10548503061
:1012F00026F076FA4FF40070C4F80402D0BD00BFA7
:1013000004310040F0E60320F0B503AF2DE9800F73
:10131000394D286858B1394C0120C5F8080204F14C
:10132000280026F05DFA04F1300026F059FAE86D45
:1013300038B14FF40000C5F808023048303026F0CC
:101340004FFAA86A38B14FF48060C5F808022B48FC
:10135000303026F045FAA86D28B10020A86527484E
:10136000283026F03DFA286EE0B300202866D5F834
:101370006CA32248C5F86CA3BFF35F8F50E8081F29
:1013800041EA0A0140E80812002AF7D1DFF87C8020
:101390004FF0000BDFF86C900126BFF35F8F5FEA20
:1013A000CB701FD13546072E1CD82E462AFA05F4DD
:1013B00018BF0136E00706D0681E082814D209EBD2
:1013C000C00026F00DFAE81FB0FA80F04FEA501B7B
:1013D000E003E4D5681E082808D208EBC00026F018
:1013E000FFF9DCE72CF0C3BA054A00E0064A4FF0EB
:1013F000FF30082124F098FE00710240F0E603203F
:10140000889F0400E0D70320989F040020D8032081
:10141000F0B503AF2DE9000F9BB0D0E9014B814639
:1014200008460E46A4EB0B052BF076F8854201D258
:10143000002073E23046D9F800502BF06DF8DFF849
:1014400008152A46009100EB0B015846234628F068
:1014500031FF3278FF2A1CD13279FF2A3BD12CF0A0
:10146000A6FE3089012812A814BF1B211D2128F0D7
:1014700061FFC0B2022840F04882718912A828F0AA
:1014800079FFC0B2022840F04082D6E9031212A8C8
:10149000C4E1B2F10A044FF0000398BF1C46002CCF
:1014A00033D0012C46D12CF082FE12A8522128F014
:1014B00041FFC0B2022840F02882B18912A828F06A
:1014C00059FFC0B2022840F02082D6E9011212A8CA
:1014D0002AF026F934E0CDE9090100200B90DFE87D
:1014E00012F0090036015900160131006B01930119
:1014F0003301A00109A8032128F01CFFC0B2022873
:1015000040F00382F18809A8F9E112AC0A2A0BC461
:1015100000F21482DFE812F00B008D01A701AA018E
:10152000DA01BB01E3011202120212028A0112A8BF
:10153000102180E12CF03BFE12A81E2128F0FAFEBB
:10154000C0B2E2E109A8092128F0F4FEC0B20228E5
:1015500040F0DB81746909A8214628F0EBFEC0B297
:10156000022840F0D2812CF091F912A829462AF0E5
:101570004DFF9DF84800FF2840F0C6812CF0DBF9B4
:10158000C0B2022840F0C1812CF0ADFCC0B20228EC
:10159000EBD0BAE109A8052128F0CCFEC0B20228A0
:1015A00040F0B381357D09A8294628F0C3FEC0B2BA
:1015B000022840F0AA81D6E90220CDE90E20316947
:1015C0008DF8445010910EAC401AE9B24FF0100A59
:1015D000012908BF4FF0020A0AF102018842C0F057
:1015E0009381204629F054FD0546C00740F09F81B5
:1015F00012A8214652462AF03FFF1298002800F018
:1016000096811399022924D004291AD0102928D1AF
:10161000C2684FF0020881880792C27AADF868105C
:1016200001680892827A02925FFA81FC427A039200
:10163000027A199101210492C2798079059206906B
:1016400012E0D0F800C04FF00108CDF864C00121CD
:101650000AE0B0F800C00121ADF864C04FF0000806
:1016600002E0CDF866100021002900F05A81079BA6
:10167000A2460C93290C9DF860308DF83430089BFD
:101680008DF85430029B8DF85330039B8DF8523007
:10169000049B9DF868008DF85130059B9DF86920EA
:1016A0009DF865E09DF866509DF867408DF85030D4
:1016B000069B8DF84D000C988DF84F308DF84E201C
:1016C0008DF84C408DF84B508DF84AE08DF849C0AC
:1016D0008DF84880CDF8550009AC204628F04AFE28
:1016E000C0B2022840F0118112A828F0F3FD2CF0BE
:1016F0009CFA20461A462AF013F8C0B2022840F09D
:101700000481DDE90F0154469DF844505CE709A8C7
:10171000012128F00FFEC0B2022840F0F680717956
:1017200009A828F007FEC0B2022840F0EE803189F7
:1017300009A828F01FFEC0B2022840F0E680B17967
:1017400009A828F097FDDCE009A80D215EE009A8B2
:10175000072128F0EFFDC0B2022840F0D6803169A1
:101760000DF148080DF1240AD6E902201491CDE9C3
:101770001220401A0428C0F0C780404629F088FC97
:101780000546C00740F0C080404629F081FC044671
:10179000C00740F0B980290C2CF003FDC0B202282C
:1017A00040F0B380210C2CF0FCFCC0B2022840F0C9
:1017B000AC80DDE91301DCE709A8112128F0BAFDAE
:1017C000C0B2022840F0A180746909A8214628F01F
:1017D000B1FDC0B2022840F098802CF057F812A852
:1017E00029462AF013FE9DF84800FF2840F08C801F
:1017F0002CF0A1F8C0B2022840F087802CF073FBD7
:10180000C0B20228EBD080E009A80B2128F092FD9D
:10181000C0B2022879D1D6E9021209A829F080FFC6
:101820006FE009A8132128F085FD6AE012A80C21B9
:1018300057E012A8082128F07DFDC0B2022864D12B
:10184000718A12A828F096FDC0B202285DD1B18A33
:1018500012A828F08FFDC0B2022856D1711C12A820
:101860002AF0B0FB4DE012A80A2131E012A81221A3
:1018700028F060FDC0B2022847D1718812A828F074
:1018800079FDC0B2022840D1D6E90112FFE512A8C5
:10189000062128F04FFDC0B2022836D1718812A867
:1018A00028F068FDC0B202282FD1B18812A828F014
:1018B00061FDC0B2022828D1F18812A828F05AFD93
:1018C000C0B2022821D1D6E90212E0E512A8022115
:1018D00028F030FDC0B2022817D171880EE012A89E
:1018E000042128F027FDC0B202280ED1718812A869
:1018F00028F040FDC0B2022807D1B18812A828F014
:1019000039FDC0B2022800D10220022806D130469B
:101910002AF002FE5844C9F8080002201BB02BF040
:101920007DBE0798CDF85D0008988DF85C009DF8A5
:1019300060008DF8340017980C90E5E703480F21FC
:10194000034A24F0EAFB00BF60CE040050D6040036
:1019500070D60400F0B503AF4DF804BD84B0044662
:10196000D0E901300D46191A04290CD32268061D4E
:1019700008492BF0CAFDCDE9020102A8294604223C
:101980001EF03CFC08B1002001E00220A66004B07B
:101990002BF0E8BD0C53040080B56F4600210173A5
:1019A00001490131016080BDF0E6032080B56F463A
:1019B00041F2B032815010440021017280BDF0B577
:1019C00003AF4DF8048D8CB091E87C00EC46804666
:1019D0000CF1140061467CC029222BF051FF00203D
:1019E00088F829000CB05DF8048BF0BD80B56F4617
:1019F000002180F8281080BD80B56F460021017459
:101A000080BDD4D4E0B502AFDFF880C00446002525
:101A100044F2A85040F2011285422FD02B186544A1
:101A200005F1180656E8001F21B946E800210029F3
:101A3000F8D103E0BFF32F8F1D46EDE7144868622D
:101A400005F128002146FFF7B1FF2046294625F081
:101A50006DFB0025BFF35F8F54E8000F44E8005191
:101A60000029F9D1BFF35F8F30B1C669C5614576F2
:101A7000416A88473046F7E720BFEBE705487A1E02
:101A800000902B210448054B24F0F7FF8890032099
:101A9000EDC501002C8E0400FECF0400CC9904009B
:101AA000F0B503AF2DE9000B94B00446F8680DF1D2
:101AB0003C082BF032FF9DF83C00FF2803D040F695
:101AC000032020801DE0A7F14E0008F10401851CD1
:101AD0002BF0FBFB02A82946861C2BF052FB0BAD1A
:101AE00031462BF0F2FB2CF026FA2078FF2808D0A4
:101AF0002BF0D1FF044825F019F92BF0C9FD25F092
:101B00007DFA14B02BF0A3BDDF000000F0B503AFE9
:101B10002DE9000FCDB0FE68D7F80880CDE91D2073
:101B200056F870AFD8F84400C346CDF8AB00C146B4
:101B30005BF8410FD6F808E02A90D8F83D001293E0
:101B400016917268F568D6F810C07369B169F469C6
:101B5000CDF8CB0059F83A0F2192CDF870E01B95E3
:101B6000CDF868C0199320911F94329032A88DE867
:101B7000120454460DF1F80ACDE9032E624605958C
:101B80002AA9CDE90610A6F1300150461CF01EFD31
:101B900022A89AE82E002EC04298119043981090E7
:101BA00044980F9045980E90306A1890706A17907C
:101BB00008F14E00D6E90AA52BF016F920F07F4077
:101BC000CDE90A0B209800901F98CDE901042198D7
:101BD00003901C98CDE908A5049005461B98CDF804
:101BE00054B005908346189806901798CDF84C90FD
:101BF000CDF830901494079026A822A91A9A199B20
:101C0000914698461CF008FC1D98102804D126A87F
:101C100016991FF0DFF830B11E99FF20087040F6CA
:101C2000033088805EE0D6E90C40D7F808A01D900C
:101C3000B06B18900AF14800F66B2BF0D5F820F045
:101C40007F400A9013980B9015980C902098049060
:101C50001F981899CDE905041D98CDE90816CDE91E
:101C6000005BCDE9029807902AA822A9149A219B2B
:101C70001CF0D2FBDDE92C01DDE92A23CDE90001CE
:101C80003EAC204605F038F89DF8F850FF2D0AD0FC
:101C9000611C32AC2BF015FB1E9E21462BF031FC53
:101CA0003571FF201DE00DF1C809211D09F1030563
:101CB0002BF00BFB2EAE29462BF063FA129C0DF194
:101CC000F8083246404621461EF089FB9DF8F85040
:101CD000FF2D0AD01E9E08F101012BF012FCFF20FF
:101CE000357130704DB02BF0BDBB9AF8380002232F
:101CF0009AF84A100DF1F8089AF85020022801F0DD
:101D0000030008BF012302F0030180F0010081F00D
:101D1000010108430F990091B0FA80F00E99400933
:101D2000CDE901132146DDE91032039040461EF053
:101D300089FB9DF82161022E09D198E86E00484682
:101D40006EC01E9E99E83E00301D3EC0A9E732AC31
:101D50003EA929222BF0DDFBBDF826012146ADF876
:101D600030012922DDF822014B903EAD2BF0D8FB4B
:101D700050462946292241F0C4F84B981E99CAF8CA
:101D80002A00BDF83001AAF82E000A208AF829603E
:101D90000870A7E7102B7DD1F0B503AF2DE9000F38
:101DA0009DB009908846F868137800F16006D2F873
:101DB0000100D2F80540D2F8095043EA002C3969F5
:101DC0002B0243EA1463240244EA1060D47BB2F885
:101DD0000D20C6E900C042EA0442120242EA15623E
:101DE000C6E9023218A803F05BF806F1300A189829
:101DF00006F11003F66B1A9A08F07F041999DDF8C2
:101E00006CB0069283E80708A4F1400207913146BE
:101E100008909AE82006504640F02EFFCDF8148036
:101E2000804628464946224640F026FFC4F140023B
:101E3000814650463146D7F80CA040F033FF0AF1F6
:101E4000200103910699402CCDE901BA009138BFD9
:101E500049EA00082948002C08BFA8462CF064F97C
:101E60000AA8DDE907321CF03BFBDDE90C01DDE9E6
:101E70000A23CDE9000118AC204604F079FE9DF854
:101E80006050FF2D0CD0611C0FAC2BF01AFA099E8C
:101E900021461FE0FF21017040F603218180704739
:101EA000DDF814900FA8C61C211D1022D7F8088059
:101EB0002BF0FAFA14AD31462BF007FA18AC414674
:101EC0002A4620461EF08BFA9DF86050FF2D09D05F
:101ED000099E611C2BF015FBFF20357130701DB081
:101EE0002BF0C0BA099C5146B02204F1080040F022
:101EF000B3F90620C4F804902070F0E7C0FFFF7F1C
:101F0000F0B503AF2DE9000B94B00446F8680DF16D
:101F10003C082BF002FD9DF83C00FF2803D040F662
:101F2000032020801DE0A7F14E0008F10401851C6C
:101F30002BF0CBF902A82946861C2BF022F90BAD19
:101F400031462BF0C2F92BF0F6FF2078FF2808D09D
:101F50002BF0A1FD044824F0E9FE2BF099FB25F0BD
:101F60004DF814B02BF073BBDE000000F0B503AFEA
:101F70002DE9000F9FB08246880701D411206FE041
:101F8000D56B934605F108030FCB41EA030440EA01
:101F90000206344311BF8DE80F000020CDE9020096
:101FA000CDE9000016AE6946304604F0D5FE9DF836
:101FB0005840FF2C3DD111A8311D00F1030810221B
:101FC0002BF05EFC0AAE41462BF0DBF80DF1580910
:101FD000594632462CF0BAF89DF85840FF2C30D1C3
:101FE0002868C10741D06968000A0A0E8DF83E20B2
:101FF0000A0A40EA0160ADF83C200E9016AE0EA928
:10200000304604F0F3FE9DF85840FF2C11D1311DED
:1020100040462BF0A1FA1BAE41462BF0B2F805A8C2
:10202000594632461EF0DBF99DF81440FF2CA5D02E
:102030000DE011AD711C13222BF072FA05A8294690
:1020400002E005A809F1010101302BF02AFA05A9E7
:102050000AF1050001312BF024FAFF208AF8044030
:102060008AF800001FB02BF0FDB90524EFE7F0B5AA
:1020700003AF2DE9000F8BB0044602A80E460021E5
:10208000924604F04BFD9DF80800FF281DD09DF8F6
:102090000B10E170BDF809109DF81B20DDE903C5A8
:1020A000A4F80110BDF81910059E9DF81830ADF880
:1020B0001C108DF81E202374C4E901C5E660A4F845
:1020C0001110E27420702BF059B99DF818B0059DDD
:1020D000BDF81900ADF8040059469DF81B008DF8B5
:1020E00006002846DDE903891AF0F8FB02460B4694
:1020F00006F1480011461A462AF02EFFC0B2022807
:102100001CD1BDF804005146ADF829009DF8060029
:102110008DF828B00995CDE907898DF82B0002AD1F
:1021200007AA28461EF05BF99DF80860FF2E10D024
:10213000601C691C2BF0B5F92670C4E705204946E0
:10214000207040460BB0BDE8000FBDE8F0402AF01B
:10215000D9BEFF20B6E7D4D4F0B503AF2DE9000F08
:102160009FB00D46B968069314460B901AA802F06A
:1021700097FE1A9804F170061C9A05F07F0504F189
:10218000900B1B991D9B0FC60892A5F140020A9067
:102190009BE8400E504609915946079340F06CFD6C
:1021A0008046304649462A4640F066FDC5F1400269
:1021B00081465046594640F075FD04F12001402DFE
:1021C000CDE90241079901910899009138BF49EA88
:1021D00000082448002D08BFB0462BF0A5FF0CA82E
:1021E000DDE909321CF07CF9DDE90E01DDE90C23A3
:1021F000CDE900011AAC204604F0BAFC9DF8685005
:10220000FF2D0BD0611C11AC2BF05BF80B9E21460F
:102210001322701C40F075FE35701FE0DDF82C8035
:1022200011A8C51C211D2BF050F816AE29462AF026
:10223000A8FF1AAC0699324620461EF0D0F89DF849
:102240006850FF2D07D008F10100611C2BF029F91F
:1022500088F8005002E0FF2088F800001FB02BF043
:1022600001B900BFC0FFFF7FF0B503AF2DE9000F3C
:10227000B5B016461D46CDE91210B046D6F83D0061
:102280000DF1A00C55F8702FCDF8A30058F83A0FB7
:10229000289056F8410FD5F808906B68D5F80CA037
:1022A000D5F810E0D5F814B0AC69E9692C90D6F8EF
:1022B000030014921593CDF86C90CDF868A0CDF87A
:1022C00064E0CDF860B017941691CDF8B3002CA857
:1022D0008DE800460DF18009CDE9051CA5F130011E
:1022E00007904846CDE903B41CF070F91CA899E8A2
:1022F0001E0005F1300B1EC02498119025981090F7
:1023000026980F9027980E90F01D9BE8100AD5F89C
:102310003CA02AF069FD20F07F40CDE90A08DDE904
:102320001A10CDE908BA0C96CDE90001199802906F
:102330001898039017980490169805A981E811023F
:1023400028A81CA9DDE914231CF066F8DDE9282380
:102350000DF18009DDE92A01CDE90001484604F0CC
:10236000CBFC9DF88060FF2E0ED02CAC09F1010152
:102370002AF0A7FF139D21461322681D40F0C1FDDE
:10238000FF202E71287051E0DDF84C802CA8C61C6F
:1023900009F104012AF0F5FE31AC31462AF0F2FFD2
:1023A0000DF18009129922462BF0D0FE9DF8804055
:1023B000FF2C0BD008F1050009F101012BF071F899
:1023C000FF2088F8044088F800002FE005F1200B7A
:1023D000464608F11804ED6A9BE8000D09F1070074
:1023E0001CA92BF0B9F80B20494606F8010B17225F
:1023F0002BF05AF8199804F12C01206218986062A9
:102400001798A0621698E56381E8010D1198206085
:10241000109860600F98A0600E98E060149820619A
:10242000159860611B98A0611A98E06135B02BF097
:1024300019B8D4D4F0B503AF2DE9000F8BB0044622
:102440000220ADF80A0001208DF808001E462C4835
:1024500088468DF80920039007A82AF009FD079DFA
:10246000EDB3DDE9089BFB20D7F808A0CDE904B067
:102470000020069004A803A9FFF76CFAC0B2022856
:102480001CD104A802A9FFF765FAC0B2022815D131
:10249000DDE90530191A02290ED3049A1949009171
:1024A000811C019127F006FFCDE9070107A83146FD
:1024B00002221DF0A3FEB0B1042004E0C0074FF0DB
:1024C000040018BF0D200121207061702846494684
:1024D0000BB0BDE8000FBDE8F0402AF013BD162098
:1024E00020702AF04BBF019851460A9007A880E857
:1024F000200A07AB204642461BF067FDF1E700BF0C
:10250000060005000C53040091F8673301F51472BE
:10251000012B12BF91F8561202F58C720121A0B165
:10252000D0B502AF9388B0F8154112686340D0F877
:10253000114162401A4390F817315940C90718BF3A
:102540000020002A18BF0020D0BD00207047D4D43E
:10255000F0B503AF2DE9000794B002AD884681467F
:1025600048212BF056FBD8F80C404826334B29461F
:10257000482C38BF26463046482229F0FDF805464B
:10258000D8F808008A4621461DF01EFA8E4251D81E
:1025900003462B4800901A4628465146334626F0FB
:1025A0005FF9022C09D22D4824F0C0FB304624F0FC
:1025B000AFFB24F023FD0A2019E09DF80800441E1B
:1025C000E5B20E2D12D22046A6F1010A1AF0F8FB50
:1025D00080B282451BD109F1010002A9482240F0D6
:1025E00090FCC9F84C6089F8004008E0072089F8A1
:1025F0000500032089F80400FF2089F80000D8E9CD
:1026000000012AF07FFC14B0BDE80007F0BD0D48C2
:1026100024F08CFB0C480D4CA0470D48A0470D48FA
:102620000D4950F8250051F8251022F0DFFA00205E
:10263000A047BEE70A4B0A462BF0B9F83C54040009
:102640005C540400D400000014000000EB6C020095
:10265000310200009CDB040064DB0400D5000000B4
:102660004C540400F0B503AF2DE9000F95B01C7871
:102670008046FF2C15D046481D4616468A4693F8DC
:1026800001B024F053FB434824F02FFB284628F0E8
:102690006DFE032C18BF4FF0080B24F0AFFC192C73
:1026A00005D1FF2088F8000015B02AF0DBBEB6F88F
:1026B00058430FA82AF0DCFB0F98002848D0A7F158
:1026C00043000094C51C0FA90C222AF029FFA7F192
:1026D00052002946C61C0C222AF0E6FE12AD3146F5
:1026E0000C222AF01DFF02A8294604221AF008F93C
:1026F0009DF80800DDE903549DF81860FF28DDF817
:10270000149026D1484631461AF0E8F8E1B380F833
:1027100000B030461AF0DAF8CDE904904046CDE931
:10272000025402AD009A51462B461BF04EFC98F81D
:102730000000FF28B5D098E85E0028465EC0164825
:1027400024F0F4FA284628F003FE24F057FCABE707
:1027500016209DF80B1088F80310BDF809109DF89D
:102760001B20A8F80110BDF81910ADF804108DF861
:10277000062088F81060C8E90154C8F80C90A8F841
:10278000111088F813208DE7044A2AF0FEFC00BFE0
:10279000CD0000000B020000D20000007C540400B9
:1027A000F0B503AF4DF8048D92B00DF104080D465D
:1027B00006461146404644221C4640F0FDFAB868E1
:1027C0002946009030464246234600F005F812B0F4
:1027D0005DF8048BF0BDD4D4F0B503AF2DE9000F44
:1027E000ADF29C6D189301F1780A1790DCAE91F868
:1027F000C84006F1600B90460D46022C199132D16B
:102800000DF168092946C82248463FF025FD1520EC
:1028100028710E2028709DF8685098F800000C2D43
:1028200000F2128306F17004DFE815F00D008C0150
:1028300042012801C9000A01DF010E037502C60228
:102840000E03AB029700FF2804BF98F80C10002974
:1028500000F02287411E0329C0F0B882002840F012
:10286000EF8200F05ABF0DF50C792946C8221AAE46
:1028700048463FF0F1FC15209DF8301228711220D7
:1028800028700F2998F8000000F2B68506F160055F
:10289000DFE811F01000C10302039F04CF04B2056A
:1028A0007B03E0032204B205AB053205B205B20595
:1028B000E6028803FF2804BF98F80C200A2A40F09B
:1028C0009B85D8F80800002802F09882199D0C22F8
:1028D000D8F8041095F81901032808BF0822DDF87C
:1028E00060A0DAF8383093F8700393F8713302443B
:1028F00085F81A210C7813B1012185F818110DF50E
:102900009F6858B195F81C0195F81D1140F003001F
:1029100085F81C0141F0030185F81D111AA85146E4
:102920001DF003FF9DF891000DF55C79022807D09A
:10293000600741F1C3829DF89000022801F0BE8239
:10294000DCAC2BF032F92BF08BFC01F01B822AF06F
:102950000FFD8DF8FC5401F0C6BAFF2804BF98F8AB
:102960000C10082940F02F82D8F80820002A02F025
:102970004382D8F804000478022C81F01A800DF507
:102980009F68062A42F22A82199A50F8011FDDF840
:1029900060A0C2F811118188A2F8151192F8F910FF
:1029A00082F81741022900F0FB868188A2F8F41012
:1029B0000068C2F8F00082F8F64000F0F1BEFF288F
:1029C00004BF98F80C10022900F05186042800F288
:1029D0003E82DFE810F0E806FB01FB010500E80697
:1029E0000DF59F600DF59F6B00F1900519989022F1
:1029F00000F1180158463FF02FFCDCAE09F101014F
:102A000011222AF051FD0024D8F80400C5E9000481
:102A1000C5E904049DF87003C5E90244C007C5E98F
:102A2000064401F05C85DDF860A0721CB8680021E6
:102A3000CDE900AB102302908CA8FFF7ABF9CBE1F6
:102A4000FF2804BF98F80C10022940F0BC811998A7
:102A50000DF59F64B02200F1080120463FF0FCFB19
:102A6000D8E90123A046DDF860A0B8681B99CDE93C
:102A700000A402908CA8FFF78DF9AFE1042800F2C2
:102A8000E887DFE810F090060500C707A30190066D
:102A90009DF86900002801F07781199909F1180063
:102AA0001022D031CDE9001009F1020100F043BF3E
:102AB000FF2804BF98F80C10032940F08481199D69
:102AC0004CA870222AF017FEDAF8000005F19801F0
:102AD00016902022DAE901B9DAF80C60C6A840F0B5
:102AE00010FA2AF089FE40F09A87D8F804000DF514
:102AF0009F6A169A5B461596D0F809101491D0F883
:102B00000110139101781291C17B11911899D0F89D
:102B10000550B0F80D0010905046CDE900965E4685
:102B2000FEF7BEFF9DF8F884B8F1FF0F01F06F8249
:102B30008CA80AF1010105302AF0B3FC8DF834822B
:102B400000F0A8BFFF2804BF98F80C100B2940F034
:102B50003A81D8E901120DF5467840462AF0ACF8E2
:102B6000DDF860A02022DAF82C10BEAC2AF0D1FCEF
:102B7000DAF830104CAE40222AF096FC0DF59F6931
:102B8000214642463346484629F0C6FF9DF8F804E0
:102B9000C00700F049879DF8FB0409F106018DF894
:102BA00006021222BDF8F9049DF8FC449DF8FD646C
:102BB000ADF804027CA840F0A4F909F1180079A945
:102BC0000DF59F6A0CC80CC1007808704CA95046DE
:102BD00004F01AF89DF8F804FF2801F072820A2028
:102BE00003258DF8710301F097BAFF2804BF98F808
:102BF0000C10032940F0E7802BF05FFADCA83FF0CF
:102C00002BFB2AF0F9FD40F01887D8F804001B9D33
:102C1000DBE90E98D0F801100278129505F07F05D7
:102C200042EA0122CBF820201692D0F80930D0F8E1
:102C300005201C0244EA1264120242EA1161CBF838
:102C40002840CBF82410C5F140021591C17BB0F8A3
:102C50000D00149440EA01404146000240EA136A24
:102C60004846CBF82CA0DBE90C6440F01BF813902D
:102C7000304621462A463FF0FFFFA5F140020446B8
:102C8000484641463FF0F8FF1399402D38BF44EACB
:102C90000100EF49002D08BF3046DCAA61F35F0058
:102CA000149B02F12001CDE9003ACDE90212049013
:102CB000BEA8DDE915321BF013FCDBE900ACDDE951
:102CC000BE648CEA0401DBE90289DDE9C03589EAEA
:102CD000050008438AEA060288EA03011143084313
:102CE00041F06680DBE904230DF59F64DBE9060112
:102CF000CDE90001204603F061FF9DF8F854DDF8AE
:102D000060A0FF2D01F0FB84611C4CAC2AF0D9FAC5
:102D10008CA821462EE0FF2804BF98F80C10032948
:102D200051D12BF0CAF9DCA83FF096FA2AF064FDE5
:102D300040F08886D8F8040004F110052AF007FC5A
:102D40000EC5B968E061204602F0AAF8DDF860A07F
:102D5000D4E90201D4E900230DF59F64CDE9000117
:102D600051462046FEF79CFE2BF072FA01F0E681F8
:102D70008CA8611C05302AF094FB8DF8345200F0C9
:102D800057BEFF2804BF98F80C1007291BD12AF062
:102D900033FD40F07C86199890F8F900022808D09D
:102DA000D8F804000AF168042AF0D1FB0EC4CAF86E
:102DB00074000C2000F06FBEFF2804BF98F80C10C0
:102DC0000C2900F0B085411E032936D28CA81AA91F
:102DD0002BF03BF9DDF860A00DF59F689DF83002FF
:102DE000FF2800F0E7840DF50C790DF59F60C822EF
:102DF00049463FF031FA9DF8F8040E2800F0E484CB
:102E0000199D0D2840F0008595F8F980B8F1020F62
:102E100000F0FA8495F81A0100F00300012802BFBF
:102E200095F8200100F00300012800F02A8595F8AC
:102E3000F8C04FF0020800F051BD002800F06B848C
:102E4000042804D100F0AFBCFF2840F0598498F862
:102E50000C00042800F0F1830D28B7D000F0A3BCCB
:102E6000FF2804BF98F80C20072A40F0C5822AF0FA
:102E7000C3FC40F0A486199D95F8F900022808D0FB
:102E8000D8F804000AF168042AF061FB0EC4CAF8FD
:102E900074000F2000F098BEFF2804BF98F80C20A3
:102EA0000B2A40F0A982BEAE09F1040120222AF0CB
:102EB000FBFADDF864B00DF5467940220BF1240AE7
:102EC0004846514640F01DF8D8E901124CAC204666
:102ED00029F0F2FE0DF55C78314622464B4640461D
:102EE00029F01AFE9DF87003C00700F070869DF867
:102EF000730308F106018DF8AA001222BDF87103D0
:102F0000ADF8A800BDF874431AAE06F145003FF0D5
:102F1000F8FF06F1570008F118012BF07FF806F1D1
:102F200020004CA92AF0BBFB304651462AF0B7FBE3
:102F300028465021ADF8AB403FF08CFF9BF80801CC
:102F4000811E38BF0221DDF860A0C9B2022901F05C
:102F500034820DF55C79032941F04E820F202BF06D
:102F600058F8DAF83820D6AEDCAC2AF07EFE9DF8B0
:102F70005853FF2D41F0E883E01D1AA92AF095FB74
:102F800009200DF59F6801F0F9BC98F80C10FF2896
:102F900008BF022900F04F84DDE918A5FF2800F0E2
:102FA000318276E2FF2804BF98F80C20082A40F00E
:102FB0002382D8F80820002A01F02287D8F80400DC
:102FC000DDE918A50478022C80F040860DF59F6895
:102FD000062A41F2058750F8011F0DF55C79C5F806
:102FE00011118188A5F8151195F8F91085F8174188
:102FF000022907D08188A5F8F4100068C5F8F00010
:1030000085F8F64095F822110DF59F605246FEF7BF
:10301000ADFF00F0A9BFDDE918A5FF2840F0FC8254
:1030200098F80C100A2900F0DF85012940F0EA81A8
:10303000D8E90112DCA829F09FFF9DF8700302284F
:1030400040F0D4860A202AF069F901F090BA00BF56
:10305000C0FFFF7FFF2804BF98F80C20022A40F031
:10306000CB81199DDCA860222AF045FB9AE8500824
:1030700005F188013022DAF80C901AA83FF041FFE0
:103080002AF0BAFB40F0F883D8F804000DF59878E0
:10309000224633468D9D01681691416815918168DD
:1030A00014911899C06813904046CDE900B9FEF715
:1030B00027FF9DF830A1BAF1FF0F01F0B6800DF5A2
:1030C0009F6208F10101501D90462AF0EAF9FF20A5
:1030D0008DF8FCA401F0CDB8FF2804BF98F80C20AF
:1030E000032A40F08981199DDCA8B0222AF003FB55
:1030F0002AF082FB40F07A858D98DBE90EA900F07A
:103100007F04DBF83410A4F14002DBF83050159155
:10311000494614905046D8F8046016953FF0ACFD2F
:1031200015998046284622463FF0A6FDC4F140028C
:103130001590504649463FF0B5FDB368F568D6F89E
:1031400000907268DCA9039120310291402CCDE9F6
:103150001253CDE90035159938BF41EA0008169899
:10316000002C08BF8046E3482AF0DEFF90461AA8EC
:103170004A4643461BF0B4F9DBE900C1DBE9022310
:103180001AAE1D9870CE69405840084386EA020185
:1031900084EA0C021143084340F031861499DDF8AB
:1031A00060A0CBE908980DF59F6813981329CBF818
:1031B00028001298CBF82C0041F0DE81DCAB199D81
:1031C0000DF59F60514605F1D002FFF74DF800F074
:1031D0004ABDFF2804BF98F80C20022A40F00C8159
:1031E0002AF06BFF1AA83FF037F82AF005FB40F0F1
:1031F0004383D8F804002AF0AAF985E80E00B968DC
:10320000E86005F1100001F04BFED5E90601D5E9B3
:103210000423CDE90001DCAC2AF0CDFC2BF020F832
:1032200040F09686E01D1AA92AF03FFA042000F02B
:10323000E7BEFF2804BF98F80C20032A40F0DC808A
:1032400019980DF1680BB02200F1080158463FF0C3
:1032500003F82AF0D1FA40F00F83D8F804000BF1FC
:1032600020028168D0F80CA0D0F80490D0F800803B
:103270000020CDE9001ACDE915214B46CDE9022BFE
:1032800042460490C6A81BF02BF9D5E902E3DDE91C
:10329000C646DDE9C802D5E900C15A40714080EA5E
:1032A0000E0011438CEA04021043084340F0B48539
:1032B00005F11003169CC5E908890FCBC5E90A4A38
:1032C000159DCDF800B001AE86E82003CDE9044A93
:1032D0001BF044F9199D044695F80801022841F0B5
:1032E0006381854823F022FD2AF0D1FC23F086FE7D
:1032F0000DF59F601AAB39E3FF2804BF98F80C2046
:103300000C2A79D1DCA8199C00F11005DCA804F185
:10331000080150223EF0A0FFD8E9010105F1280B79
:103320000E902869139068691290A8691190E86955
:103330001090286A1490686A1590686B0F9004F5D5
:103340008F709BE8000B1691D5E90EA629F04CFD75
:10335000D4F8142120F07F40D4F81111CDF8332196
:103360004C91D4F80D21D4F80A11CDF86B201A91A4
:10337000CDE908A60A904CA80B901AA80C901398B7
:10338000029012980390119804901098CDE9050BC3
:103390000F98CDE900890790D6A8DCA9DDE91423B0
:1033A0001BF03AF81698102806D1D6A90E981DF0F1
:1033B00011FD002800F039854FF00B090325DDF8D9
:1033C00060A00DF59F68BEA908F1060012223FF02B
:1033D00098FDFF208DF8FD948DF8FC540DF55C7977
:1033E0008DF8F804199D00F0C1BDFF2804BF98F8BE
:1033F0000C20032A00F0A782FF280BD198F80C10AC
:10340000DDE918A5042924D029F088FF0D2900F052
:1034100008810DE1DDE918A50539082900F2FC80D5
:10342000DFE811F009003700FA00FA009200FA0014
:10343000FA00DE00F700012800F0E28229F06EFFBA
:10344000022840F0F58040F60340ADF8FC0400F09F
:1034500090BDD8F808000DF55C79002801F0C8840B
:10346000D8F804000478254823F060FC601EC0B240
:10347000102828BF0824204628F01CF823F0BEFDA1
:1034800003208DF8FD448DF8FC040DF59F6800F0D5
:1034900070BD032840F0C080DCAE05F11801902219
:1034A00030463EF0D9FE0020D8F80410CBE90C10CD
:1034B0003246CBE910100021CBE90E005346CBE990
:1034C0001200B8689DF8315200901AAC2046FEF701
:1034D00043FE9DF86860FF2E00F091830DF59F6814
:1034E000611C08F1050029F0DCFF8DF8FC6400F098
:1034F00035BD00BFC0FFFF7F340000009300000017
:10350000A8A004002000000094000000D8000000E3
:103510001F000000DC000000E2000000DA000000F4
:10352000CB000000D30000001E000000B5BA02006E
:1035300050D20400E4000000CE000000D7000000DC
:1035400064000000C9000000042865D105F10801ED
:103550001AADB02228463EF07FFED8F8010008F1EF
:10356000210416902022D8F80D002146D8F805B085
:10357000D8F809A015904CAE29F096FF5FF880109E
:1035800020461DF027FC40B95FF88C1006F11000B2
:103590001DF020FC002800F0AB8429460DF5987939
:1035A0002031002099E860033346CDE90089CDE958
:1035B00002112A460490DCAC20461AF091FF4CA878
:1035C00000F1100120461DF005FC002800F0948455
:1035D000FF208DF8F80440F20340ADF8FC044DE103
:1035E000D0B998F80100002800F08B835FF8EC0058
:1035F00023F0A8FB95F823010DF59F68800700F1E3
:103600003D8695F822110DF59F605246FEF7AEFCFF
:1036100029E3002800F0E88129F080FE0138022823
:1036200006D20DF59F608CA92AF00FFD00F09CBC1E
:1036300015208DF8FC0400F09CBCD8F80800002888
:1036400001F0D883D8F8040004785FF8440123F02F
:103650006DFB601EC0B2102828BF0824204627F04A
:1036600029FF23F0CBFC8DF8354203209CE02AF0A3
:10367000C3F840F08781D8F804108CACA01C29F066
:103680006BFF19990DF59F682AF072FA29F0C9FFAE
:10369000DDF860A004207DE118990DF59F60D8E960
:1036A00001A91DF042F89DF82105022819D00D202E
:1036B0000DF59F688DF8F80418984346816A826B6F
:1036C000DCAC2AF090FB9DF87003FF2809D02AF0AB
:1036D000E2F95FF8C80123F029FB29F0D9FF23F0B4
:1036E0008DFC0DF59F6051464A4629F045FC9DF83A
:1036F000F844022C40F0528129F024FF0A20BBE25A
:10370000072D08BF042800F0CA81411E0329FFF4D9
:103710005DAB002847D10A2D45D198F8010000285B
:1037200000F027815FF8180223F00CFBDDF860A0A1
:103730000DF59F680DF55C793DBB0DF59F64514615
:1037400020461CF0A0FF9DF82155FF2D00F00087BA
:10375000DCAC0DF59F61292229F0DBFEDDF82205A6
:103760002146199E29228890BDF82605ADF824022D
:1037700006F1D0003FF0C5FB8898C6F8FA00BDF806
:10378000240286F8F950A6F8FE00199991F81D0157
:10379000800700F1AB8291F82201800700F1438598
:1037A0000D2001F0E2B815208DF83402DDF860A09C
:1037B0000DF59F688CA808F10401043090E87C00A6
:1037C0000E207CC18DF8F8040DF55C7908F1040138
:1037D00009F104001DF05CFB0C202AF01AFC4B469A
:1037E000DAF838204CAC2AF0FEFA2AF006FB0AD0B0
:1037F0002AF04CF95FF8E40223F098FA484627F0E3
:10380000A7FD23F0FBFB199D0DF59F6128462AF0CB
:103810001CFC8CAC2946204628F0C0F9FF208DF80E
:1038200070039DF83002DCAEFE2818BF2646179DB7
:1038300096E81F00DAE3DDE918A529F0DDFF40F086
:10384000CA80D8F804100DF59F6808F1020029F02D
:1038500083FE0DF55C7905F1180109F1060029F0E8
:1038600024FF012049468DF8F90408F11200B62220
:103870003FF047FB062038E329F0C0FE29F062FE46
:103880006FE34CAE05F1D0045146304622461CF0A1
:103890007CFE2AF0B2FA10D00DF55C7A96E83E0074
:1038A00050463EC05FF890032AF0CCFB504605F12D
:1038B000D00427F04DFD23F0A1FB206805F1E00CBA
:1038C0001690AB4660681590D4E902AE4C469CE871
:1038D0006F006FC4DDE915209BF8F8C0CDE9E0AEBC
:1038E0000DF55C7ECDE9DE020EF118018DF871C395
:1038F00099E87D00F1467DC10B2073468DF8700379
:1039000018988DF8A1838DF8A0C3816A826B4CACA6
:103910002AF069FA2AF071FA3FF475AF2AF0B6F886
:103920005FF8080468E7199B09F10800D8E901125B
:10393000D033CDE900308CA8DDF860A05346FEF707
:10394000E5F8FFF749BA199DDCA8B02229F0D3FEAB
:1039500029F052FF40F04E81D8F8040029F0F7FD1D
:10396000FF90FCA80EC0DCAB0DF59F60DDF860A0F9
:103970004AE05FF8540423F0E5F92AF079FC40F6B8
:1039800003702FE20520DDF860A08DF83402FF20DF
:103990000DF59F688DF83002FFF722BA9DF8FA54B2
:1039A0000DF59F68DDF860A0280700F15F81032016
:1039B00062E15FF8900423F0B9F9204621F0CEFAD5
:1039C00023F01CFBDDF860A005200DF59F688DF845
:1039D000340200F0C9BF05200DF59F688DF8FC0486
:1039E000FF200DF55C7980E298F80100002800F0D6
:1039F00095815FF8CC0423F0A5F9112000F045BCB7
:103A000009F108030DF59F6005F1D0025146FEF75C
:103A10002BFC26E140F60340ADF83402C6E640F642
:103A20000320ADF8340235E040F60330ADF834023F
:103A3000FF200DF59F6800F098BF2AF019FC40F6B2
:103A40000320CFE12AF014FC05208DF83402FFF7A3
:103A5000C1B99DF8690000287FF4F9A998F80C0015
:103A60000C287FF4F4A929F0C7FE40F0C186D8F8ED
:103A700004108CACA01C29F06FFD19990DF59F68FE
:103A80002AF076F829F0CDFD032000F0B7BE05201E
:103A90008DF83402FF208DF83002FFF79BB9199C96
:103AA0000DF59879B02204F1080148463EF0D4FBA8
:103AB00008F121060DF5467A2022504631463FF0A6
:103AC00020FAD8F801001690D8F809005FF8D01550
:103AD0001490D8F80D0015903046D8F8055094F899
:103AE0001EB127F0DFFF40B95FF8EC150AF11000B6
:103AF00027F0D8FF002800F0FC84CDE912B5C6AB52
:103B00000DF53E780FCB119000BAC19008BAC09065
:103B100010BA10914146BF9018BA0F920E93BE9002
:103B2000DCAE304620F0BCFE0DF59F64002531462A
:103B30004FF4B8722046CDF8DC54CDF8D854CDF807
:103B4000D454CDF8D054CDF86856CDF86C56CDF895
:103B50007056CDF874563FF02FF9DCAE21464FF485
:103B6000C0722AF02CFB09F120045FF84096304621
:103B7000202221468DF8F054C847304621462022A5
:103B8000C8470DF59F64304601228DF8F854214650
:103B9000C847204631464FF4C2723FF00DF99DF8F8
:103BA00078A604F5B8715FF878361022504627F0F1
:103BB00029FA002966D000F8015B0139F9E70520F0
:103BC000199D8DF8FC04FF208DF8F80414E040F6F0
:103BD0000330DDF860A0ADF8FC04FF208DF8F80498
:103BE00029F09CFB5D46BFE101204EE3052029F052
:103BF000A9FC08E129F002FDDDF860A031E00DF537
:103C00009F68E80700F0508109F1020029F09FFC4D
:103C10008BE80E00CBF80C00DBE90601CDE90001D2
:103C20005146DBE904231AAC2046FEF769F99DF8FA
:103C30006850FF2D40F08E8108F10800DCA929F0C2
:103C4000E9FE0020CDF8FC04082088E15FF81C079D
:103C500023F06CF8204621F081F923F0CFF929F008
:103C6000CDFC0DF59F680DF55C797DE19DF8FB6459
:103C7000102E80F0708206208DF8350203208DF81A
:103C8000340297E5A7F13C060025204647F83C5C46
:103C900031468DF8785647E90E5547F8305C27F0E5
:103CA0006BFFA7F12C09314648461DF04DF904F58C
:103CB000B076102D09D06019013590F8601190F898
:103CC0007021514080F86011F3E7BAF1100F40F015
:103CD0006C8229F037FCDDE912B50020102800F0D5
:103CE0007D8219F8001029F0E3FCF7E7DAF83C4090
:103CF00004F108032AF0F7F900F0918382AD0FC5B3
:103D000092E35FF8CC0723F01DF840F603700DF541
:103D10009F68ADF8FC040DF55C792AE10DF55C783F
:103D200029F093FE0DF168090D2043468DF87003CC
:103D300048461CF001FC29F07CFF0BD099E86E008E
:103D400040466EC05FF80C082AF07CF929F0A0FC10
:103D500023F054F9E00700F093825FF81C0822F08A
:103D6000F1FFDCAC29F021FF9DF870530DF59F6841
:103D70000DF55C79FF2D00F0478529F0F9FA8DF8F3
:103D8000FC54F6E00120AFE019990DF59F6808F1A9
:103D90000700B02218313FF0B4F8092041468DF8F1
:103DA00030028CA829F076FFDDF860A0FFF71BB881
:103DB0005FF870089B4616953546664622F0B6FFBA
:103DC0005046314642464B4627F0C0F9169B2846DE
:103DD00021465A4627F0BAF923F010F92AF048FA9A
:103DE00040F20340ADF83402FEF7F4BF9DF87213C1
:103DF00029F094FA0A0700F1B4830320B7E329F00D
:103E0000A1FB199D032004218DF8FC04FF208DF8EF
:103E1000FD148DF8F80426E7DDF860A029F07EFA9D
:103E200040F60340ADF8FC04E2E3DDF864B002269E
:103E30000DF168089BF81A119BF820419BF80801C6
:103E400001F0030104F0030481F00101022884F071
:103E5000010408BF01262143DDF860A0B1FA81F119
:103E6000D5E900234909D5E90205039151468DE8BA
:103E7000610040461CF0E6FA9DF8685008F1020126
:103E80009DF8699012229DF89160C6AC29F041FB23
:103E9000022E40F0AF83BEA84ECCFF2D4EC021882D
:103EA00001807FF48EAADDE308F10800DCA929F087
:103EB000B1FD0020CDF8FC04072050E0DCAC5146F9
:103EC00020461CF0E0FB9DF89953FF2D40F0CF8376
:103ED0000DF5987C94E86E0060466EC008F1040011
:103EE0009CE83E003EC0FF20199D8DF8F8043DE09F
:103EF0000DF5987999E860031AA800F170041998F3
:103F000090F81E01002804BF82468346169908BF18
:103F10000146159A08BF0246C4E9081B04F13000A7
:103F2000B968C4E90AA280E86003DCA800F0B8FF21
:103F3000DDE9DE01DDE9DC23C4E90023C4E9020197
:103F4000CDE90001DCAC29F036FE2AF089F952D027
:103F50000DF59F6829F00CFA8DF8FC54FF208DF8C0
:103F6000F8040DF55C79199D9DF8F804FF2840F0E0
:103F7000928108F1040009F1040190E87C0012200C
:103F80007CC14C46199D8DF8700308F10400211D79
:103F90001CF07EFF0C20DAF828108DF8F804434658
:103FA000DAF838204CAC29F01EFF29F026FF09D0A2
:103FB00029F071FDDFF8900E2AF044F829F068FB33
:103FC00023F01CF81AACDCA928462AF03EF820465B
:103FD000294627F0F4FDFF208DF8F8049DF86800CD
:103FE000FE2818BFA046179D98E81F001FC50DF2B8
:103FF0009C6D29F037BAE01D1AA929F056FB0A205A
:104000000DF59F6829F0DFFF3EF07BFFA9E7DDE9B2
:104010001010702241EA00484CA9DCA83EF01CF9BF
:10402000139A28022946149DDDF858B040EA126A16
:104030001298C4E900B640EA0222280240EA11615F
:104040004FEA082040EA1568159D1392C4E903520F
:1040500020221291C4F80890C4E905A1C4F81C807C
:10406000DCAC04F19000C6A93EF04BFF04F1200047
:10407000129A8DE81108514643461398CDE9036919
:1040800005951AF06BFA0446199890F80801022871
:1040900040F00F83DFF8C00D22F048FE29F0F7FD55
:1040A00022F0ACFF0DF59F64DCA9E01D29F0FDFABC
:1040B000092021468DF830028CA829F0EBFDFEF78F
:1040C00089BE1694D6A800F102080AF10401102254
:1040D00029F0D6FB82A84146841C29F053F90DF53E
:1040E00008782146102229F0CBFB0DF55C79189950
:1040F00042462AF02BF82AF0B3F800F02B8399E817
:104100005E0050465EC0DFF8540D22F00FFE5046B0
:1041100027F01EF922F072FF8CA8DCA905300131CE
:1041200013220DF59F683EF0ECFEFF208DF834520F
:104130008DF83002DDF860A0FEF750BEE01DDCA96E
:1041400029F0B3FA092021468DF830028CA829F015
:10415000A1FDFEF741BEBDF8FC949DF8F9845FEA2D
:10416000897041BF199991F81C0140F0020081F853
:104170001C015FEA895040F13584DAF83C30D3E91C
:1041800002E1D3E9042341EA030C4EEA020050EABB
:104190000C0000F01084CDF8F8E4CDF8FC14CDF854
:1041A0000025CDF8043500F00FBC16F80A00A7F181
:1041B0002C0180F0800006F80A0040461CF0C4FE86
:1041C000DDF860A00020DDE912B5102804D018F851
:1041D000001029F06DFAF8E70DF59F680DF59F6066
:1041E000314627F0C9FC0FCE00BAC19008BAC09082
:1041F00010BABF9018BABE90C6A800F11001BEA8B0
:1042000027F050FC0DF1380EDDF844C000289EE880
:10421000104200F076812AF02BF840F20340ADF80E
:104220003402FEF7DBBD0B209FE30DF59F6ADCA98E
:104230000AF1080060220AF168083EF00DF81698AD
:1042400008F10C01C8F8000030221598C8F80400E5
:104250001498C8F808001398C8F81C90D04681E854
:1042600051080AF188001AA93EF04BFECDF8FC5423
:1042700008208DF8F804DDF860A072E60E2006E054
:10428000DFF8AC0B22F05EFD10200DF59F680DF5F8
:104290005C798DF8F8044C460DF59F69DCA8C822BE
:1042A00049463DF0D9FF9DF8700312283FF46DAEEA
:1042B0001AAC11287FF487AE95F8F980B8F1020F97
:1042C00004D1DFF87C0B22F03DFD73E095F81A0174
:1042D00000F00300012802BF95F8200100F0030060
:1042E000012804D095F8F8C04FF0020831E04CAE38
:1042F00005F1D00B514630465A461CF046F929F0DC
:104300007CFD0CD096E83E0048463EC0DFF8280B06
:1043100029F098FE484627F01BF822F06FFEDBF8E4
:10432000000005F1E00C16900DF1680EDBF80400BA
:1043300014907446DBF808001590DBF80CA0AB462F
:104340009CE86F006FC47446DDE9142116989BF851
:10435000F8C0CDF804252246CDF8000509F1180E65
:104360008DF8F9C4CDF80815CDF80CA592E87B00BE
:104370008EE87B000B204B468DF8F80418988DF8DA
:1043800029858DF828C5816A826B4CAE29F014FF0F
:1043900029F033FD0CD096E83E0048463EC0DFF8D9
:1043A0009C0A22F0C3FC484626F0D2FF22F026FEEB
:1043B0001AAC199D0DF59F6805E628F0AFFF00289F
:1043C00000F025820A2029F024FEDAF83820D6AE43
:1043D000DCAC29F04AFC9DF85853FF2D40F0B68123
:1043E000A01D1AA929F061F906202146ADF8F804AC
:1043F00008F11200B622C3E208F107001AA9B022A0
:104400005D463EF07EFD03200DF59F628DF8F804B9
:10441000501C41469046B7223EF073FDA4E50020B3
:10442000CDE98400CDE982000DF59F6682A9304672
:1044300002F092FC29F00CFF46D14CA8311D00F18E
:104440000309102229F07FFED6AE494628F099FED6
:104450000DF59F685146324640461BF0C0FF29F0DB
:10446000F7FE40F06B812068C10700F0738261683D
:10447000000A0DF59F660A0E8DF8F6210A0A40EA39
:1044800001607C90ADF8F4217CA9304602F0AEFCCE
:104490009DF8F8540DF59F68FF2D15D1311D484644
:1044A00029F05AF8BEAE494628F06BFE0DF59F6420
:1044B0005146324620461BF092FF29F0C9FE40F0DB
:1044C00010841999FFF767B9711C4CAE132228F0BC
:1044D000EBFFC6A81ECE1EC029F043FD3DE28CA80E
:1044E0000DF59F61083029F095FA8D940520FFF7AE
:1044F000D2BADDE9C6CE0DF59F68DDE9C894DDF8D6
:1045000060A04CA8149E90301BF0010104BF0E4621
:104510000D46169A08BF0A46159B08BF0B4600F1C8
:104520000C0180E86400B022C0E9069408F107009D
:1045300081E808504CA93EF0E4FC082041468DF883
:1045400030028CA80130B7223EF0DBFCFEF746BCFF
:1045500029F09CFA49468CA891E87C0004307CC084
:1045600002E29DF873230F2A00F2BA8106208DF82B
:10457000FD040320FFF75DB8B8684C1C00901AAE2C
:10458000DCAA214630465346FDF7E6FD9DF868500B
:104590000DF55C79FF2D24D108F10800DCA929F084
:1045A00039FACDF8FC4499E1DFF86C0822F0BEFB43
:1045B00029F06DFB22F022FDDDF860A009208DF8C6
:1045C0007003DD9429F041FA4CAEDCAC29F04DFBD0
:1045D0009DF830510DF59F680DF55C79FF2D00F0C9
:1045E000C88108F10500711C28F05BFF8DF8FC54B0
:1045F000FF20A2E208F1140C16960DF59878BCE89D
:104600004F00C646AEE84F009CF800008EF8000050
:10461000BDF89600ADF80C02DDF8920082901AA960
:104620004DCC8C46ACE84D0012222088ACF800003E
:104630000BF1D2008BF8D1908BF8D0503EF061FC9A
:10464000B8E83E000BF1E4003EC016998BF8F91073
:1046500098F8001001708298CBF8FA00BDF80C02AF
:10466000ABF8FE000C200DF59F68FEF7B7BE4CA816
:10467000DCA929223EF045FCDDF89A03022DC69004
:10468000BDF89E03ADF81C0300F0AF834CA9199C44
:10469000292204F1D0003EF034FCC698C4F8FA0098
:1046A000BDF81C0384F8F9502546A4F8FE000D203F
:1046B0001BE4DFF8A00722F039FB29F0E8FA22F02A
:1046C0009DFCDDF860A00920CDF8FC440DF59F6449
:1046D00029F0B6F92346DAF83820BEAE29F06CFD91
:1046E0009DF8F8520DF59F68FF2D00F04D818CA8C4
:1046F000711C053028F0D5FE8DF8345234E14CA8F9
:10470000211DC61C28F03DFDC6AC314628F03AFEFE
:104710000DF59F665146224630461BF060FE9DF81F
:10472000F8440DF59F68FF2C00F03A818CA8711CAD
:10473000053028F0B6FE8DF8344215E108F101018C
:10474000C6A828F0AEFE06E10DF59F6808F1050049
:10475000711CEDE14CA9484628F0A1FF09F12004A5
:10476000C6A9202228F0D5FE169812228DF8B30390
:10477000BDF80402ADF8B0039DF806028DF8B2034F
:1047800009F145008DF8B4637CA93EF0BAFB09F14C
:10479000570079A929F042FC584650213EF05AFBB7
:1047A00019990DF59F6891F80801023838BF022069
:1047B000C0B2022800F0C581DDF860A0032840F0F7
:1047C000F7810F200DF59F6529F03AF92B46DAF8AD
:1047D0003820D6AE29F0F0FC9DF85843FF2C40F06D
:1047E0006582E81DDCA928F060FF07202946A6E6BF
:1047F00005200DF59F688DF83402FF208DF83002FA
:10480000DDF860A0FEF7ECBA199D012041E506F144
:1048100090001690E44840F2FF18D7F808A04FF037
:10482000FF39834650461FF079F8044650460E463D
:104830001FF074F8DD4D0023A0FB0502E1FB05230A
:10484000A4FB0541A6FB056576184FF00001454124
:1048500052F1000253F1000024EA080341F1000183
:10486000BBEB030379EB060379EB050379EB02025B
:10487000D8D3169C0022DDF860A004F1100384E870
:10488000070083E8070008218DF87013DA60E26002
:10489000DD9029F0DAF8D6ACDCAB29F0A4FA9DF86B
:1048A00058530DF55C79FF2D40F03D81B86800212B
:1048B0000090DCAC1AAA534620460026FDF74CFCBB
:1048C0009DF870530DF59F68FF2D40F02E8108F183
:1048D00008001AA929F09EF8CDF8FC6407202CE105
:1048E00085F8201105F58F7185F81E0105F58C708E
:1048F000BDF874339DF87143A5F8223185F8212164
:1049000085F81F4128F07AFA85F80801DFF81005CC
:1049100085F8091122F00AFA29F034F922F06EFB29
:10492000DAF82C104CA828F0BAFEDAF83010DCAE19
:10493000402228F0B9FD0DF168083146404602F0EA
:1049400063F929F076F900F07A810A2003248DF8C2
:1049500019039FE105250DF59F688DF834528CA849
:104960000530C6A928F09DFDFF208DF83002FEF726
:1049700035BAE01D1AA928F098FE052029F023FB7E
:104980003EF0BFFAFFF7EFBAA01DDCA928F08DFEBC
:1049900003202146ADF830028CA81230B622D3E5B0
:1049A000129C132C40F08881F01DDCA928F07DFEBC
:1049B00009203146C3E50020CDF80405CDF80005F7
:1049C000CDF8FC04CDF8F804DFF868140DF59F600D
:1049D0001CF000FA30B1199991F81D0140F0020065
:1049E00081F81D0119980C2180F82051054680F8A6
:1049F0001F8105F58C78A0F8229180F8216180F85C
:104A00001E4190F81901032808BF0821DAF8380080
:104A100090F8702390F87133881885F81A0105F51D
:104A20008F7013B1012188F80010414628F0E6F993
:104A300085F80801DFF8340485F8091122F076F9C9
:104A400029F0A0F822F0DAFA0DF59F60012102F0BA
:104A500065F829F0FDFB3FD19DF80865DDF80445B8
:104A6000BDF80905ADF8180331469DF80B058DF822
:104A70001A032046DDF8FC94DDF8005517F02EFFF0
:104A800029F0D3F840461A4628F066FAC0B2022848
:104A900044D1CDF8F8940DF59F68BDF818030DF5D5
:104AA0005C79ADF8050551469DF81A0342468DF82C
:104AB000070548468DF80465CDF80045CDF8FC544F
:104AC0001BF08DFC29F0CCFB59D10DF59F6801201E
:104AD0008DF83002FEF787B99DF808259DF8FB0494
:104AE0008DF88023DDF804258DF87303BDF8F904F3
:104AF000DF92DDF800259DF80B15ADF87103BDF8C8
:104B00000905DE92DDF8FC24ADF830018DF8321194
:104B1000DD928DF88313ADF881033BE0484629F020
:104B20005FF9052536E00DF59F6808F10500611C69
:104B300028F0B7FCFF208DF8FC548DF8F804FFF73F
:104B400012BADDF860A091F80901002800F0CE80CB
:104B50000A200DF59F6528F073FF2B46DAF8382000
:104B6000D6AE29F029FB9DF85843FF2C40F09E80DB
:104B7000A81DDCA928F099FD042029460AE799E838
:104B80005E0040465EC0BA4822F0D0F828F080FDB2
:104B900022F034FADCA98CA80530013128F081FC20
:104BA0008DF83452FEF704BEFFC5FCFF40420F00F3
:104BB000B9680BF1100000F073F9DBE9060100257C
:104BC000DBE904238DE803020DF59F60CDE9034581
:104BD00019F086FCDDF804150DF59F68DDF8F82462
:104BE000DDF8FC34DDF80005CBE90201CDE9000178
:104BF0004046CBE9002301F0BBFF9DF8F844FF2CB1
:104C000063D182A808F10401C61C28F0BAFA88AC66
:104C1000314628F0B7FB0DF556795146224629F06A
:104C200095FA9DF85843FF2C40F0808008F107006A
:104C3000DCA928F03AFD02204146FFF785BABEA85C
:104C400008F10401861C28F09CFAD6A83146841C81
:104C500028F098FB0DF502792146102229F073FA0D
:104C600051460DF5467A4A4650461BF0B8FB9DF872
:104C70001843FF2C40D09AE86E0040466EC0694849
:104C800022F054F828F004FD22F0B8F9DDF860A015
:104C90000DF55C79C6A90DF59F6808F10500013195
:104CA00028F0FFFB8DF8FC44FFF763B98CA8711C5A
:104CB000053028F0F6FB4CE08CA8DCA9083028F081
:104CC000A9FE601C8D9005204FE682AD08F1010120
:104CD000132228F025FCD6AE2946701C28F0E1FBF3
:104CE00030E0611CC6A828F0DCFB36E6DAF80000EC
:104CF00098B3DAF8041049E008F103004CA928F051
:104D0000CEFC0DF59F64DCA904F1240040223EF0A6
:104D1000F8F8022041468DF8F804601C2322A046D2
:104D20003EF0EFF8DDF860A0FEF79DBF99E86E0059
:104D300040466EC04C4821F0F9FF28F0A9FC22F053
:104D40005DF9D6AE8CA8711C053028F0AAFB0DF5D4
:104D50009F68FF208DF8344207E6BE682F4C414D16
:104D6000D6F80001402807D33046002118F04EFB4A
:104D7000D6F80001402846D2421C56F82000C6F85A
:104D80000021A0FB0401A8421046EBD80BF1400023
:104D900000260BF13002CDF8FC14C0E900160DF529
:104DA0009F63C0E902660820C2E90016C2E90266F4
:104DB00028F046FEDAF83820D6AD28461BF0BCFBBA
:104DC0009DF858438CA8FF2C05D10830DCA928F0A9
:104DD00021FE8D9677E70530691C6AE71B4B00E0E2
:104DE0000B4B0120072121F059F90F4821F0ECFD70
:104DF000144A06E01F4A04E0154A02E00B4A00E0AC
:104E0000044A28F0C2F9164A402121F08DF900BF6A
:104E10008C5304007C5304003600000040420F0015
:104E200037000000E00000006C5304005C530400F5
:104E3000CF000000A8A00400E3000000D90000009B
:104E4000E50000004C530400DB000000BCD004006F
:104E5000ACD004003500000033000000E100000089
:104E6000E49E04007F3DF1FFDD00000038000000FB
:104E7000D60000002C530400D0B502AF92B0BC683D
:104E80008DF81020FF228DF80420CDE902343A6914
:104E9000FB68009201AAFDF79FFC12B0D0BDD4D4EC
:104EA000F0B503AF2DE9FF07DFF8949000260D461B
:104EB0008046EA46CDE90266CDE900660F2E1ED88F
:104EC000D5F80041402C07D32846002118F09EFA5F
:104ED000D5F80041412C2AD23046514610224B468B
:104EE00026F090F802460B4605EB8400C4F1400121
:104EF00023F0C6FC2044C5F800010E44DEE704A8F8
:104F00009AE81E001EC004AB28F068FB1FBFA8E88B
:104F10000F0008B0BDE80007F0BD084821F006FF0B
:104F200004A826F08BFB22F069F821F0B5FF054BB1
:104F300020464021402221F0B1F800BFEB000000E4
:104F400070D70400D49E0400D0B502AF0F4A526A55
:104F5000BFF35F8FA2B152680123014413600023A5
:104F600088420AD0D2F80041002CFBD0C2F80031B0
:104F7000D2F8084500F8014BF2E701205060D0BD9F
:104F8000034821F0DFFE21F087FF00BFF0E6032099
:104F9000AD000000D0B502AF04460A4821F0A5FEDE
:104FA0002078FF2806D028F055FB2046BDE8D040E9
:104FB00026F0CEB928F00AFC6068BDE8D04022F0A7
:104FC000EDBF00BF05020000D0B502AF04460A489D
:104FD00021F08BFE2078012806D128F03BFB606889
:104FE000BDE8D04022F0DABF28F0F0FB6078BDE8E1
:104FF000D0401FF033BE00BF11010000F0B503AF79
:105000004DF804BD0446764821F06FFE2578FF2D4B
:1050100015D128F01FFB784821F067FE2579FF2D78
:1050200026D128F017FB794821F05FFE207A21F085
:1050300097FE608921F059FED4E90301B5E0002014
:10504000002621F08DFE674821F04FFEB5F10A00E1
:1050500098BF3046E0B1012829D128F0FBFA634817
:1050600021F043FEA08921F040FED4E901019CE03B
:1050700028F0ACFB614821F038FEDFE805F005437D
:10508000233221505B415F0028F0A0FBE08811E053
:1050900028F09CFB564821F028FEDFE805F0066A60
:1050A000575C517A8C6096538E00002062E028F0A5
:1050B000E7FD4D485DF804BBBDE8F04021F015BEAA
:1050C00004202DE028F0DCFD4D4821F00EFE4D4877
:1050D000257D21F00AFE681E18BF012021F040FE48
:1050E00015E028F074FE607921F03AFE208921F065
:1050F000FCFDA0795DF804BBBDE8F04026F0CCB91A
:10510000072018E028F0A6FA3F4821F0EEFD04F150
:1051100008005DF804BBBDE8F04026F01DBA05208C
:1051200021F01EFE04F108005DF804BBBDE8F0406C
:1051300026F002BA062021F013FE34E0082048E0F1
:10514000042004E0092021F00BFE8EE7022021F06C
:1051500007FE6088AEE728F03AFE608883E7072004
:1051600021F0FEFD608821F0C0FDA08821F0BDFD8A
:1051700019E0012021F0F4FD608A21F0B6FDA08A3B
:1051800021F0B3FD601C5DF804BBBDE8F04026F0E3
:10519000F5B9052021F0E4FD6088164DA847A088E8
:1051A000A847E088A847D4E902015DF804BBBDE840
:1051B000F04022F0D1BD062000E00A2021F0D0FD11
:1051C000608821F092FDA08874E7082021F0C8FDD6
:1051D00060785DF804BBBDE8F04021F0C1BD00BFC0
:1051E0000202000013020000030200001A02000085
:1051F00010020000EB6C0200140200000802000024
:105200000A02000019020000090200000E0200005C
:10521000D0B502AF0446044821F067FD2046BDE842
:10522000D0401EF03BBC00BF14000000D0B502AF60
:1052300004460A4821F059FD2088012809D128F0A8
:1052400009FA074821F051FD6088BDE8D0401FF001
:10525000BFBC0020BDE8D04021F082BD0E000000A0
:105260000F010000D0B502AF0446044821F03DFD17
:105270002078BDE8D04021F073BD00BF15000000CC
:10528000B0B502AF0546044828F0F7FC2846214691
:10529000BDE8B04021F0EEBD02000000F0B503AF64
:1052A0002DE9000FB1B00546886800248846002823
:1052B0008C6053D0D8E9046B0A90B868D8F80C1009
:1052C00000280895099153D0304659461AF07CFBC6
:1052D0002BAC28F0AAFC20461A4627F067F92D9837
:1052E0000E3405900A222C98214606909DF8AD00B8
:1052F000BDF8B8A0BDF8AE509DF8AC90079017A8C7
:105300003DF0FFFDB9F1FE0F00F09E8117A9204688
:105310000A223DF0F6FD0598B9F1FF0F2D90069891
:105320002C900798ADF8B8A0ADF8AE508DF8AD0050
:105330008DF8AC9000F0948101220020B9F10A0FA1
:10534000A9F10B0188BF52FA81F0002800F0BC805F
:10535000012800F0C6804FF0000AC2E098F804105F
:10536000D8F800001BF0B8FEAC60297128601AE183
:1053700030465946CDE906231AF026FB2BAE28F01D
:10538000D3FA0DF15C0BB11C16229DF8ACA0584667
:105390009DF8AD903DF0B5FDBAF1FE0F00F05981DA
:1053A000594611A87CC97CC016220988018059463B
:1053B0008DF82D908DF82CA00BA802303DF0A1FDAA
:1053C000BAF1FF0F00F051818DF85D900BF10200F2
:1053D0008DF85CA011A9162216243DF092FD2BA891
:1053E00027F046FD2B9D002D69D0DDE92CA1FB2087
:1053F0000DF1AC0B0422CDE91D1000201F90584682
:1054000003911DA94FF0040926F058F92B9E9DF831
:10541000B040002E00F0B4800BF105010DF1980BA7
:105420001322CDE9045A58463DF06BFDDDF89B1080
:105430000DF18C0922910BF1070126980C22CDF871
:10544000850028F080FED8F8005098F804A0D5E92F
:1054500000018DF884405246209618F0ABFF1FFAE9
:1054600080FB484626F092F9864B02460E468B4555
:1054700028BF8B4611465846324626F07DF9CDE9C5
:1054800000012BA817AB0699079C4246A0479DF840
:10549000AC00FF2800F08A80089E9DF8AF1006F14E
:1054A0000805F171BDF8AD10A6F805102CAC3071EF
:1054B0001ECC1EC5DDE9045A002030606BE008995F
:1054C000002008600C716AE0B9F10A0F3FF643AFA3
:1054D0000120AA4600FA09F040F20C4108423FF4CC
:1054E0003AAF304659461AF06FFA002900F0C780EB
:1054F00098F80450D8F800600DF15C080078ADF819
:1055000060A00DF12C0AF9682A468DF85D00032091
:105510008DF85E1031468DF85C005046434600F031
:10552000BDF89DF82C40FF2C0BD011AD0AF1010104
:10553000132227F0F5FF089E294627F0E2FF0025F9
:105540001BE011A80AF10401C41C27F01BFF0DF198
:105550002C0A2146102250463DF0D3FC3046294605
:105560001BF0BAFD054608F103000C46514627F032
:10557000F3FF089E414627F0C4FF347135600EE00A
:1055800008990120487100200860E00718BF4FF01B
:105590000D0981F804902846514627F0B3FCDDE957
:1055A000091027F0AFFC31B027F05CBF089E2C98A3
:1055B000012809D1DDE924212D98521A82420ED208
:1055C0004FF48270B08075E7284651461BF084FD89
:1055D000002231713060B260DDE90401DDE70C18B2
:1055E00020A8D146AB46214624F0C4FEDDE9045A8A
:1055F000C0B2022816D120A804214FF0040824F0DC
:10560000B9FEC0B2022816D1229849460444584631
:105610001BF062FD039AC6E9025AC6E904243171FF
:105620003060BCE70121C00771714FF0040018BF62
:105630000D20307140E701217171C00718BF4FF094
:105640000D0886F8048037E7134821F06FFB0798B0
:1056500003E00E4821F06AFB484625F04BFF0AE0C4
:105660000C4821F063FB2BA803E0074821F05EFB08
:105670000BA8FFF7C3FC21F0C1FC21F00DFC044A8C
:1056800027F083FDE0540400F6000000FB0000005A
:10569000F0540400F8000000FC000000F0B503AF77
:1056A0002DE9000F9BB0044615A8984691460E467A
:1056B00027F0DEFB159D002D64D016980DF1540BDC
:1056C0000690FB2017990422CDE9071000200594CD
:1056D000042409905846CDE90369019107A925F0F2
:1056E000EDFFDDF854A09DF85890BAF1000F57D0A7
:1056F000029510AC0BF1050127F0E3FDDDF8431036
:105700000C2210980C91E11DCDF82D000DAE27F064
:10571000CBFE8DF82C900BF10400CDF828A098E872
:105720003E003EC05946FF208DF854003046FBF73E
:105730006FFEC0B2022828D10398049AD0E9000174
:1057400018F038FE0F9D80B2A84238BF05460AA85F
:10575000294624F00FFEC0B2022816D10AA804215F
:1057600024F008FEC0B202280FD1059AFF2002994A
:1057700010700C9851600699284491600199C2E913
:10578000031019E01620207016E00121059AC007C9
:105790004FF00400517018BF0D20029D107007E0FB
:1057A0000599012048705FEAC97018BF0D240C707C
:1057B0000699284627F0A6FB1BB027F053BED4D489
:1057C000F0B503AF4DF804BD06461B480068C005A0
:1057D0002AD11B481B4918F067FF054690F838008E
:1057E0000C46012804BF05F1300018F069FBA86AD7
:1057F000C0B195F83810E1B9D5E90C12002A05EBD3
:10580000C203186483F83C6018BF01326A63914296
:1058100004BF012085F8380027F0ABFC05F1080033
:1058200023F0E6FA27F0C2BD044821F08BFA21F0FC
:1058300033FB054821F0C8F804ED00E0B10000009A
:10584000E8E2032054C10400D4C10400F0B503AF62
:105850004DF804BD84B006461D480068C0052ED131
:105860001D481E4918F020FF054690F858000C46C8
:10587000012804D105F1500101A818F037FBA86CEC
:10588000C0B195F85810F9B9D5E91412002A05EB02
:10589000C2031866A3F85C6018BF01326A659142C2
:1058A00004BF012085F8580027F063FC05F10800CB
:1058B00023F094FA27F0C7FE04B027F050BE054845
:1058C00021F040FA21F0E8FA054821F07DF800BF08
:1058D00004ED00E0B1000000E0E3032054C1040047
:1058E000D4C10400F0B503AF4DF804BD06461B4813
:1058F0000068C0052AD11B481B4918F0D5FE054693
:1059000090F870000C46012804BF05F1680018F0FB
:10591000D7FA286EC0B195F87010E1B9D5E91A121E
:10592000002A05EBC203986783F8746018BF013240
:10593000EA66914204BF012085F8700027F019FC47
:1059400005F1080015F016FD27F030BD044821F0E0
:10595000F9F921F0A1FA054821F036F804ED00E04C
:10596000B100000050E4032054C10400D4C104007D
:10597000BFB506AF0168DFE801F0041F191B17254A
:105980002D1DD0E90101CDE9010101A803902848AE
:1059900021F0CCF9274821F0A8F9274903A821F0E4
:1059A000E9F921F02BFBBFBD1E4806E01E4804E0CC
:1059B000174802E0174800E01C4804B0BDE8B040BA
:1059C00021F0C0B94468164821F0B0F9204621F012
:1059D0009FF918E0D0E901540F4821F0A7F90F48CA
:1059E00021F083F9DFE805F0020C0406002008E04E
:1059F000022006E028F0EBF9204621F033FA02E01D
:105A0000012021F0ADF9BDE8BF4021F0F7BA00BF99
:105A1000C3000000B9000000BB000000FF0100004F
:105A2000B5000000B4000000C1000000C20000008A
:105A3000B80000001200000038A4040080B56F46D2
:105A400018B1BDE8804027F05DBA80BD80B56F46D3
:105A5000016819B1BDE8804000F0BEB880BD80B5D6
:105A60006F46C24312061CBFBDE8804000F012BD65
:105A700080BDD4D40168426B8A429EBF0021016080
:105A8000704780B56F46024B10460A4620F006FB71
:105A900090A4040080B56F4680BDD4D4F0B503AFA8
:105AA0004DF804BD0A460646D0E9000118F0AEFAEA
:105AB0000C461249054606F5767024F0DBFC0E46CE
:105AC00095F85E13A1B1013985F85E13090604BF8C
:105AD00095F85C13042903D028F0CEFB27F066BCB0
:105AE000103041F20131A5F85C1321F04DFEF3E7CF
:105AF000034821F027F921F0CFF900BF349E0400BC
:105B0000F300000080B56F46014640684A7A00F510
:105B1000B7601AB1BDE8804015F0D3B9097ABDE885
:105B2000804015F0B2B980B56F4680BDB0B502AF08
:105B3000456865B10289006828F07FF838B10C46E5
:105B4000D0F84013294428F06AF827F07CFDB0BD56
:105B5000B0B502AF88B00446D0E906204369002002
:105B6000009002AD21462846FFF798FB2846FFF734
:105B70006DFF204608B0BDE8B04000F071B8B0B588
:105B800002AF88B00446D0E906204369012194F8A9
:105B90002000CDE9001002AD21462846FFF77EFB2C
:105BA0002846FFF753FF204608B0BDE8B04000F09C
:105BB00057B880B56F460178042907D0082918BF67
:105BC00080BD0430BDE8804000F058B890F83A003D
:105BD000BDE8804027F08AB9F0B503AF2DE9000792
:105BE0008AB0D0F800A0044686680020A06036B3D2
:105BF00004F10C000DF1140808F1080190E82C00E4
:105C00002CC194F80490DAE900014A4623F01AFC0A
:105C10000A68B0F85803013A0A600AF57E71ADF8D7
:105C2000140068464246069617F0C4FB019840B13E
:105C3000029927F067F9094821F084F801E094F807
:105C4000049050464946FFF729FFE16800200AB05A
:105C5000BDE80007BDE8F040FFF7F0BE68000000B7
:105C6000D0B502AF0446D0E90201FFF7E7FE217983
:105C70002068BDE8D040FFF711BFD4D480B56F468F
:105C800002C8DFE801F002020206BDE88040FFF72B
:105C90005FBFBDE88040FFF772BFD0B502AF18F01C
:105CA000CDFA68B10C4690F86F130022012980F8F4
:105CB0006F2304BF00F51E7021F066FD27F0C3FCC2
:105CC000D0BD80B56F4600F5B7600021BDE88040CB
:105CD00015F0DBB880B56F4690F8441031B1032958
:105CE00018BF80BDBDE88040FFF70CBF3830F9E732
:105CF000B0B502AF04460025902D08D06019017D93
:105D0000032904BF043000F0F9FA1835F4E7B0BDF8
:105D1000D0B502AF044600F0B2FB04F11800BDE8B4
:105D2000D04000F0ACBBD4D480B56F46054800210C
:105D3000012201600449425001680029FCD0002181
:105D4000016080BD14710040F4FEFFFF80B56F4616
:105D5000C0B2BDE8804039F013BFD4D4D0B502AF93
:105D60000446006850B9002020734FF0FF302060D7
:105D7000201D21F009FD27F066FCD0BD044820F06D
:105D8000D5FF24F065FB21F039F921F085F800BF3B
:105D9000A2000000F0B503AF2DE9000F89B08246E4
:105DA00030480068C00557D189463049104618F080
:105DB0007BFC0546D0E90046D0F8E40005F1080B6D
:105DC00088460138C5F8E400584614F0F3FF241A59
:105DD00066F10000BAEB040179EB000035D3E94627
:105DE0005946484618F022F8BAEB0400049004D053
:105DF000411E68461DF022FE50B105AC99E84E00E8
:105E000020464EC027F0F2FF10B128F01DFAF9E746
:105E100000206C46D5E90212914202D12A7CD207B9
:105E20000DD005EBC101896949B92046594618F0E2
:105E30000BF89DF8000002280BD00120EAE7C0070C
:105E40001CBF05F1B80023F00AF827F030FA27F05C
:105E5000E2B9074820F0B8FD034820F073FF21F0B5
:105E60001BF800BF04ED00E0B100000080960400C4
:105E7000689C040080B56F4609490968C9050AD1C4
:105E8000094918F011FCD0F8E820013AC0F8E820E0
:105E900027F06BFB80BD034820F054FF20F0FCFF8F
:105EA00004ED00E0B1000000B096040080B56F463C
:105EB00009490968C9050AD1094918F0F5FBD0F864
:105EC000C020013AC0F8C02027F04FFB80BD034836
:105ED00020F038FF20F0E0FF04ED00E0B10000000A
:105EE000B096040080B56F4608490968C90508D115
:105EF000084918F0D9FB026C013A026427F035FB1F
:105F000080BD034820F01EFF20F0C6FF04ED00E036
:105F1000B1000000B096040080B56F4690F888107C
:105F2000032918BF80BD2C30BDE8804000F09BBA2B
:105F300080B56F4690F8EC10032918BF80BD18306B
:105F4000BDE8804000F00CB880B56F4690F8F810BE
:105F5000032918BF80BD2430BDE8804000F000B8A0
:105F600080B56F4690F84410032908D0042918BF63
:105F7000052909D14830BDE8804000F074BA4830A6
:105F8000BDE88040FFF7C8BF80BD80B56F46817F08
:105F90000339012988BF80BD2430BDE8804000F06E
:105FA00000B8D0B502AF044690F82700042818BF07
:105FB000D0BD04F13C0000F0F5F9E06A228ED0E992
:105FC0000001BDE8D040FFF768BE80B56F46417C58
:105FD000042918BF80BD4068BDE88040FFF7BEBE01
:105FE000D0B502AF044690F83500032809D0042844
:105FF00003D0052818BFD0BD03E004F1380000F03D
:106000009DF9002084F83400D0BDD0B502AF04461D
:1060100090F83500032804D0042807D0052818BFBD
:10602000D0BD04F1380000F009F803E004F13800B5
:1060300000F084F9002084F83400D0BD80B56F46AC
:1060400090F85010063907290AD8DFE801F00A0F46
:106050000904091409045430BDE8804000F076B802
:1060600080BD5430BDE88040FFF76EBF5430BDE8BE
:10607000804000F059B85430BDE8804000F07FB94E
:1060800080B56F4690F82010042918BF80BD2430D9
:10609000BDE8804000F09DB980B56F4690F87C1057
:1060A000032918BF80BDBDE88040FFF7E9BFD0B528
:1060B00002AF0446007A032804D0042804D16068A3
:1060C000FFF7D8FE00206072D0BDD0B502AF044605
:1060D000807C032804D0042804D12068FFF7E6FE62
:1060E0000020E074D0BDD0B502AF0446C0790328CB
:1060F00004D0042804D12068FFF7F4FE0020A0712A
:10610000D0BD80B56F4690F83410032907D004291C
:1061100018BF80BD5830BDE88040FFF7DBBD583068
:10612000BDE8804000F040B880B56F46017C03298F
:1061300007D0042918BF80BD1830BDE8804000F0AA
:1061400092B91430BDE8804000F000B880B56F46C9
:10615000017C042918BF80BD1830BDE8804000F0E4
:1061600082B980B56F46017F042918BF80BD2030F9
:10617000BDE8804000F00CB880B56F4690F858102C
:10618000032918BF80BD0430BDE8804000F05FB92E
:1061900080B56F4690F85C10032918BF80BD0830A9
:1061A000BDE8804000F053B9D0B502AF044690F886
:1061B0005C00011F042906D3032818BFD0BD04F1D9
:1061C0006000FFF702FFE06B4068BDE8D040FFF7DA
:1061D00078BD80B56F46C0B2032818BF80BDBDE84A
:1061E0008040FFF7A1BDD0B502AF044690F8200073
:1061F000042806D1E0690078FFF7A8FD002084F8A4
:106200002200D0BD80B56F4690F84010032918BF1A
:1062100080BD0C30BDE88040FFF7E5BF80B56F461C
:1062200090F84410032918BF80BD1030BDE88040AD
:10623000FFF7D9BF80B56F46017B042918BF80BD29
:106240008068BDE88040FFF789BD80B56F4690F853
:10625000A810032998BF80BDD0F89000BDE8804009
:10626000FFF77CBD80B56F4690F8D811032918BFA1
:1062700080BD0C30BDE88040FFF7B2BE80B56F46F0
:1062800090F80012032918BF80BD1030BDE880408F
:10629000FFF7BBBE80B56F4690F8E011032918BF29
:1062A00080BD0430BDE88040FFF7DCBF80B56F469D
:1062B00090F820100339C9B2032988BF80BD044A71
:1062C00052F821100844BDE88040FFF7D7BF00BF57
:1062D00068A0040080B56F4690F820100339C9B259
:1062E000042988BF80BD044A52F821100844BDE843
:1062F0008040FFF7C3BF00BFD4DB040080B56F460A
:10630000017B032918BF80BD0430BDE8804000F048
:1063100055B880B56F4690F82D1041B1032918BFCC
:1063200080BDD0E90601BDE88040FFF787BBD0E91A
:106330000001BDE8804026F0E5BDD4D480B56F46AD
:1063400090F82C100339052918D8DFE801F003175D
:10635000170D08123030BDE88040FFF702BF303023
:10636000BDE88040FFF7F2BE3030BDE88040FFF767
:106370000FBF3030BDE8804000F001B880BD80B56F
:106380006F4690F86010052907D0062918BF80BD18
:106390006430BDE88040FFF7FBBE7430BDE880404C
:1063A000FFF7C6BD80B56F4690F82510042918BFC9
:1063B00080BD2830BDE88040FFF7B8BB80B56F4690
:1063C0004179032918BF80BD0430BDE8804021F029
:1063D000F9B880B56F4690F8441039B1032918BF59
:1063E00080BD1430BDE88040FFF793BFD0E90101C4
:1063F000BDE8804026F086BDD0B502AF044690F8D7
:106400008800032801D028B1D0BD04F14000FFF777
:10641000E0FF18342046BDE8D040FFF7DDBB80B573
:106420006F4690F8A410032918BF80BD2430BDE842
:106430008040FFF731BE80B56F4690F89410032975
:1064400018BF80BD0430BDE88040FFF751BC80B567
:106450006F4690F85010032918BF80BD0C30BDE87E
:106460008040FFF7CFBE80B56F4690F858100329E3
:1064700018BF80BD1030BDE88040FFF7CFBE80B5AB
:106480006F46017D032918BF80BD0430BDE8804000
:10649000FFF734BF80B56F46C0B2072818BF80BD74
:1064A0000846BDE8804026F021BD80B56F4680BD1E
:1064B000B0B502AF051D0C4634B155E90101FFF737
:1064C000BDFA013C1035F7E7B0BDB0B502AF051D10
:1064D0000C4634B155E9010126F014FD013C10359C
:1064E000F7E7B0BDB0B502AF00F13A050C463CB1DC
:1064F00015F83A0C15F8401BFFF7CCFF013CF6E706
:10650000B0BDE0B502AFCDE9000101A968461EF0BB
:10651000C1FED4D4F0B503AF2DE9000FD1B0CDE961
:106520000F204FF0000C78694FF000091291010E16
:1065300011913EA901F11C02243108920B9130A95E
:1065400024310491010C000A0590D7E9030B0E9049
:10655000D0480D910793804600200C900C98C007FE
:1065600040F07E824B45C0F077820F98A3EB090A7A
:10657000BAF1070F484407D80025AA454AD0415D23
:106580000A2935D00135F8E7C11CAAF1080E21F01F
:1065900003010C1A01D1002408E00025415D0A29FD
:1065A00026D00135AC42F9D1744512D80559BA4A02
:1065B00085F00A36961B35430619766886F00A314F
:1065C000511A31432940C94311F0803F01D10834A9
:1065D000EAE7A2451ED0191B2044A1EB09050022C1
:1065E000815C0A2903D001329542F9D112E01519D4
:1065F00009EB05024FF00009541CB3D0A1469C42A0
:10660000B0D80F98A146805C0A28ABD10020A146E3
:106610000C9004E0012064460C9099461A460F98AD
:10662000DBF81C506245604401D1002106E0A2EB7A
:106630000C014A1E835C0D2B08BF1146DBF8242099
:106640006FF000439A4228BF1A460E9BCDE90954C9
:106650009B1A0D9A0693D2B2022A0FD1119A022ADE
:1066600040F08D800144DBF81840DBF8205018F032
:1066700066F92919BA6801FB0025B2E1119A022ACC
:1066800040F00C81BA68CDE9000130A8594614F0F9
:1066900053FD4EA830A918F06BF9509A501C00F029
:1066A0009F8127F046FD38BF08464E9D18B101284E
:1066B00040F09781EDE7DDF83CA123A8594621F091
:1066C00021FA279C002CE4D0269E002EE1D02498AD
:1066D0000028DED4259B002BDBD423998219D1F826
:1066E00008C06245D5D8CA6803EB040E9645D0D8D9
:1066F0000CF1070227F00CFDACEB060ECDF808E01C
:106700000CFB03003346CDE9004013A816F04CFA09
:106710000D98CDE92064CDE91E5A8DF86C003EAD90
:1067200013A91EAA284618F0B5F81BA84C902AAC4D
:10673000204629461AF06BFC9DF8B0000028F7D0DF
:106740000228A6D04C98DDE92A230478002AEED44A
:10675000002BECD42AA8129914F052FC2A98012894
:10676000E5D1DDE92B108F2998BF4728DFD826F027
:1067700086FC08BF43EA02050D543EADD7E7BA6870
:10678000CDE9000130A8594614F0D6FC4EA830A936
:1067900018F0EEF8509A501C00F0228127F0C9FC46
:1067A00038BF0846DDE94E5670B1012840F0198126
:1067B000DBF820000028E9D027F03EF8CDE93E566E
:1067C0003EAA1DF095FAE1E723A8594621F09AF96F
:1067D000279C002CDAD0DDF898A0BAF1000FD5D0B4
:1067E00024980028D2D4259B002BCFD4239900EBEA
:1067F0000A02D1F808C06245C8D8CA6803EB040E83
:106800009645C3D80CF1070227F082FCACEB0A0EC8
:10681000CDF808E00CFB03005346CDE9004013A877
:1068200016F0C2F921941EA880E8600411988DF832
:106830006C003EAD13A91EAA284618F02BF81BA821
:106840004C902AAC204629461AF0E1FB9DF8B00096
:1068500010B102289AD0F5E74C98DDE92A23047894
:10686000002AEED4002BECD42AA8129914F0C8FB0D
:106870002A980128E5D1DDE92B108F2998BF4728F8
:10688000DFD826F0FCFB08BF43EA02050D543EADFD
:10689000D7E700BFFFFF100000010101BA68CDE992
:1068A000000113A8594614F047FC1BA813A918F0BF
:1068B0005FF81D9A501C00F0938027F03AFC38BF17
:1068C0000846DDE91B5470B1012840F08A80DBF8EE
:1068D00020000028E9D026F0AFFFCDE93E543EAAC3
:1068E0001DF006FAE1E71EA8594621F00BF9229E99
:1068F000002EDAD0DDF884A0BAF1000FD5D01F98B1
:106900000028D2D4209B002BCFD41E9900EB0A0282
:10691000D1F808C06245C8D8CA6803EB060E964590
:10692000C3D80CF1070227F0F3FBACEB0A0ECDF84D
:1069300008E00CFB03005346CDE9006023A816F0E5
:1069400033F90D9807F8A20C119807F8A10C0498D8
:10695000CDE92CA6CDE92A542AA921F0CDF930ACF5
:1069600023A91C2226F0D5FDA7F1A2003890A7F19B
:10697000A10037903EA8214638223CF0C2FA002000
:10698000CDE94C004EA80B991AF05FFB4E980128F8
:106990008BD1DDE94F653EA819F0A4FCC0B20228F6
:1069A0003FF483AF0899002E51F820000478E9D411
:1069B000002DE7D44EA8129932462B4614F020FB46
:1069C0004E980128DED1DDE94F108F2998BF472866
:1069D000D8D826F054FB08BF43EA02050D54D1E78E
:1069E000BD68DDE909026421079B94464843B0FB7A
:1069F000F1F00E990144B8680E9185427FF7AEAD73
:106A00002C1A05980D99164614F028FBC0B20228DE
:106A10000AD0B96800F001033E91DBE90A1227F0C1
:106A20008BF93EAA1DF064F978690D9914F016FBF4
:106A3000079BC0B2B44602283FF490ADB96800F09D
:106A400001033E91DBE90C1227F076F93EAA1DF016
:106A50004FF9079BB44681E5012064460C90DDE5C3
:106A600051B026F0FFBCD4D4F0B503AF2DE9000F30
:106A70008BB0064638690C4699B280B2D7F808B098
:106A8000B1FBF0F04FF00108039000200292019357
:106A9000F96888422DD0039988422CD0411C04917A
:106AA00039690025029A00FB0129B96900EB010A46
:106AB000AB451CD03969E808B1EBD50F25D919F8D9
:106AC000000005F00701884000060ED51148314648
:106AD0000A900020CDE9088022467869CDE906A811
